:100000000C9421280C9452280C9452280C945228B9
:100010000C9452280C9452280C9452280C94522878
:100020000C9452280C9452280C9452280C94522868
:100030000C9452280C9452280C9452280C94522858
:100040000C9452280C9472C50C9452280C9452288B
:100050000C9452280C9452280D940C6A0D94085458
:100060000C9452280C941F630C9415630C94522822
:100070000C9452280C9452280C9452280C94522818
:100080000C943E5B0C9452280C9452280C945228E9
:100090000C9452280C9452280C9452280C945228F8
:1000A0000C9452280C9452280C94105B0C945228F7
:1000B0000C9452280C9452280C9452280C94E25A16
:1000C0000C9452280C9452280C9452280C945228C8
:1000D0000C9452280C9452280C9452280C945228B8
:1000E0000C945228CD53D45387549855E056E95672
:1000F000F95655635B636D637D638563B56389639F
:10010000B5638D639163B563956399639D63A663DE
:10011000B563B1638B01B3012F03D902A7019F021D
:100120000102530221027302FD0119036502AD02AF
:100130001B037D029B01E901C9021B020F02B101F1
:100140004502CF02D5011703E90107021D02F301A1
:10015000A10231038F025902EF018901B901830124
:100160007501A1012B03B1021103AB0189010D023D
:10017000D701F90285020D0309038101090309036F
:10018000090309030903090309030903090309030F
:1001900009030903090309030903090309030903FF
:1001A00009030903090309030903090309030903EF
:1001B0009501090309030903090309030903090355
:1001C0000903670209030903090309030903090372
:1001D0000903090309030903E5012D02084AD73B76
:1001E0003BCE016E84BCBFFDC12F3D6C74319ABD06
:1001F00056833DDA3D00C77F11BED9E4BB4C3E912A
:100200006BAAAABE000000803F05A84CCDB2D44E18
:10021000B93836A9020C50B9918688083CA6AAAA1A
:100220002ABE000000803F07634236B79BD8A71A5A
:1002300039685618AEBAAB558C1D3CB7CC5763BD68
:100240006DEDFD753EF6177231BF000000803F086E
:10025000000000BE922449123EABAAAA2ABECDCC11
:10026000CC4C3E00000080BEABAAAAAA3E00000013
:1002700000BF000000803F0000000000084178D36C
:10028000BB4387D1133D190E3CC3BD4282AD2B3E0B
:1002900068EC8276BED98FE1A93E4C80EFFFBE01AB
:1002A000C4FF7F3F0000000000000C9484B30C9456
:1002B00038DA0C9495630D9452130C9489630D9461
:1002C000F9160C94B5630C9413D20C949D630C94A2
:1002D00091630C9413960C949F9D0C944FDA0C949C
:1002E000CD530C946CA40C94879D0D94A82B0C9466
:1002F000F3D10C94B3930C94B6750D94901D0C949B
:1003000098550D94D37F0D94A02B0C9427A60C9494
:1003100082A70D94072C0D94C0190C94A2AE0D94D5
:10032000A7A40C9497DB0D9405170D94CD7F0D9425
:10033000ED160C9495960D946E250C9401940C94E6
:10034000649D0D94B22B0C94D4DE0C9411B40D94D6
:10035000A9190C94A9A90D94DF2B0C9471A50D94E7
:10036000967D0D9487250D94A3190C94D0DB0D94E4
:100370000E170D94982B0C946D630C9468E20C94FA
:10038000B8DB0C947D630C94B3750C94C6E40D94A7
:10039000AB330D94E3310C9473DD0D9471120C9416
:1003A000A0DB0C94609D0D9401170D9495250D9480
:1003B000F32B0C94CBD50C947FAC0C94BDAE0C9469
:1003C0002DB00C9422DC0C9481B30D94EA7F0D9433
:1003D0002E530D94AC250D942C180C9431DC0D94F7
:1003E0008E2B0D9471520D94A7250C942EB50D945F
:1003F0009A670D943E110C9488DB0D94B5190C94FA
:10040000A6630D94AF190D9430310D941C1A0D9400
:100410009F250D94DF310C9411DB0D94E92B0D9485
:1004200083250C945FD20D94C32F0C9494DA0D9411
:10043000A72E0D94E1310D947D250D94A3250C94E8
:100440009D9D0D94B2190C941D960D94BD2F0C9486
:10045000A7960D94C52F0D94E1160D943C7E0D9436
:10046000E3110C949E960C943DB70C948D630C9400
:1004700055630C9436AE0C94F7930C944FB50C94D2
:10048000B3AA0D94E7310C94C4DB0D948B250C9426
:1004900093B40C941B940D940B170C9424DB0D94C3
:1004A000E1540C9493DE0D94BB190C9421940C949C
:1004B000CADB0D94842B0D94887D0D948E7D0C9455
:1004C0003ADF0C94A6DB0D94DD160D9472250D9485
:1004D000A67F0D94AE530C9469940C9477DA0C9427
:1004E0005B630C9491DD0D94CE190D9489A40C944A
:1004F00050DB0C9458A60C9487AE0D9468250D948F
:10050000E9160C9499630D94C12F0D94977F0C9468
:10051000AF960C949EB40C9463DB0C9435A70D94A9
:100520007A2B0D94FD160C94A19D0C9441960C947D
:100530006CAE0C9413E50D9408170C94DED10D9459
:10054000AC190D94702B0C947CDB0C94929D0C9444
:10055000939C0D94E5160C94BDB40D9475250C94E4
:1005600051AE0D94C62B0D94F5160C94BEDB0C9475
:10057000D6DB0C9487540C94FC930C94E2DB0C9423
:10058000D8DE0C9424D10C9466DA0C94C8D70D9460
:10059000E5310D9479250C9422960D948B7D0D9464
:1005A00091250C943CD90C9464DD0C94DFDA0C9406
:1005B0002D9F0D94C3190C94B2750C9427940C9430
:1005C00018960C94F2930C94E0560C94C5B40C94C9
:1005D00038B00C941ED20C9479DA0C94F9560C9421
:1005E000B2DB0D94D8530C9404E50C94ADD30C9469
:1005F000D4530D94FD2B0D940A550C9455B40C94C2
:100600007EB30D94BF2F0C9437DB0C9485630C9450
:10061000A5A80D943F7E0C94EBA00D94067E0D943E
:10062000F1160D94D52B0C9463980C94B1630D9432
:1006300099250D94B8190D9464250C94F8DA0C944E
:1006400023D10C94A0D20C9446AD0C94A79D0C948D
:1006500074B40C94ACDB0D94BC2B0D946D5E0D94B6
:10066000A6190D94752B0C94ADDA0C94E9560C94E4
:1006700066A80C946A9E0C9482DD0C9421A60C94BE
:1006800060970C940D9A0C94C6DA0D94BD140C94DA
:100690002D940C94A7A20C94403E0C94DCDB0D949A
:1006A00093524E414E494E495459494E46CDCCCCB9
:1006B0003D0AD7233C17B7D13877CC2B329595E636
:1006C000241FB14F0A000020410000C84200401C16
:1006D0004620BCBE4CCA1B0E5AAEC59D7400407A63
:1006E00010F35A00A0724E18090010A5D4E80000BB
:1006F000E87648170000E40B54020000CA9A3B0059
:100700000000E1F505000080969800000040420FCF
:10071000000000A08601000000102700000000E893
:1007200003000000006400000000000A0000000058
:10073000000100000000002C76D888DC674F0823F9
:10074000DFC1DFAE59E1B1B796E5E3E453C63AE65F
:1007500051997696E8E6C28426EB898C9B62ED403F
:100760007C6FFCEFBC9C9F40F2BAA56FA5F490058E
:100770005A2AF75C936B6CF9676DC11BFCE0E40DC2
:1007800047FEF520E6B500D0ED902E0300943577B6
:10079000050080841E080000204E0A000000C80CDE
:1007A000333333330F986E12831141EF8D21148947
:1007B0003BE65516CFFEE6DB18D1844B381BF77CA1
:1007C0001D901DA4BBE424203284725E228100C9E6
:1007D000F124ECA1E53D27434F4D4D554E49434192
:1007E00054494F4E0044525952554E004552524FB3
:1007F0005253004543484F0047322F473320626130
:100800006420706172616D65746572730A00536C67
:100810006565702E2E2E005A2050726F6265205032
:10082000617374204265640A005A2050726F6265D9
:1008300020506173742042656400486F6D652058D4
:10084000592066697273740A00486F6D65205859A3
:1008500020466972737400205A3A200020593A20C9
:100860000042656420583A20004D65736820706F1F
:10087000696E742063616E6E6F74206265207265AC
:10088000736F6C7665640A004E6F204D6F76652E2F
:1008900000456E642066696C65206C6973740A009B
:1008A000426567696E2066696C65206C6973740ABD
:1008B00000526573756D696E6720534400286E6F32
:1008C0002066696C65290043757272656E742066D6
:1008D000696C653A20005072696E742074696D65A8
:1008E0003A20000A53746174733A2046696C616D52
:1008F000656E7420757365643A20002C204C6F6E11
:1009000067657374206A6F623A2000546F74616C7B
:100910002074696D653A20002C204661696C65641D
:100920003A20002C2046696E69736865643A20009D
:100930005072696E74733A200053746174733A2074
:1009400000452025530044454255473A004D31317A
:100950003320530042656420436F6F6C696E672ECD
:100960002E2E004265642048656174696E672E2EE4
:100970002E00544D334420435231305632204F46DE
:10098000462E004348414D4245525F54454D504527
:10099000524154555245004D4F54494F4E5F4D4FB3
:1009A00044455300544845524D414C5F50524F54BA
:1009B000454354494F4E004155544F5245504F52B4
:1009C000545F53445F5354415455530050524F4D5C
:1009D00050545F535550504F525400454D45524767
:1009E000454E43595F504152534552004341534590
:1009F0005F4C494748545F4252494748544E45531B
:100A00005300544F47474C455F4C494748545300A7
:100A1000534F4654574152455F504F57455200423D
:100A200055494C445F50455243454E54004C455641
:100A3000454C494E475F44415441005A5F50524F24
:100A40004245004155544F4C4556454C0050524983
:100A50004E545F4A4F420050524F47524553530045
:100A60004155544F5245504F52545F54454D5000DC
:100A7000564F4C554D45545249430042494E415200
:100A8000595F46494C455F5452414E5346455200CA
:100A900053455249414C5F584F4E5F584F464600B0
:100AA0004649524D574152455F4E414D453A4D6181
:100AB000726C696E20322E302E345F4457362054CB
:100AC0004D33442053535344425520534F555243C2
:100AD000455F434F44455F55524C3A687474707398
:100AE0003A2F2F6769746875622E636F6D2F496E98
:100AF00073616E6974794175746F6D6174696F6E3D
:100B00002F4D61726C696E2F747265652F4372652B
:100B1000616C6974794477696E5F322E302050526F
:100B20004F544F434F4C5F56455253494F4E3A3105
:100B30002E30204D414348494E455F545950453A67
:100B4000544D33442043523130563220455854528C
:100B5000554445525F434F554E543A3120555549FF
:100B6000443A63656465326132662D343161322DF9
:100B7000343734382D396231322D633535633632AE
:100B80006633363766660A002F2F20004D31343524
:100B900020533C696E6465783E206F7574206F66E3
:100BA0002072616E67652028302D31290A003F4A86
:100BB000206F7574206F662072616E676520283023
:100BC0002E303120746F20302E33290A0020466CDD
:100BD0006F773A200050726F7465637465642050BB
:100BE000696E0A00206F7574206F662072616E67EF
:100BF000650A0020536572766F200020643A002059
:100C0000693A0020703A006469730043290A006160
:100C1000626C656420286D696E2074656D702000BB
:100C2000436F6C64206578747275646573206172BB
:100C300065200046696C616D656E742072756E6F1B
:100C400075742064697374616E636520286D6D2905
:100C50003A200046696C616D656E742072756E6F26
:100C6000757420004F666673657473204170706CF4
:100C7000696564004572723A20546F6F2066617234
:100C80002100546F6F206661722066726F6D207252
:100C900065666572656E636520706F696E740A00C3
:100CA000454550524F4D204F4B0A00506F776572AB
:100CB0002D6C6F7373207265636F76657279200097
:100CC000F3079911EC07E507D707446F6E652E0A05
:100CD000003F496E76616C69642073746F7261675E
:100CE0006520736C6F742E0A3F5573652030207435
:100CF0006F20004732392050322066696E69736870
:100D000065642E0A005859206F75747369646520F4
:100D10007072696E7461626C65207261646975736A
:100D20002E0A003F4572726F7220696E2042757301
:100D3000696E6573732043617264206D65617375BC
:100D400072656D656E742E0A004D616E75616C6C16
:100D5000792070726F62696E6720756E726561636B
:100D60006861626C65206D657368206C6F63617487
:100D7000696F6E732E0A0050726F62696E67206130
:100D8000726F756E642028004D65736820696E76F9
:100D9000616C6964617465642E2050726F62696E63
:100DA00067206D6573682E0A004D657368207A654B
:100DB000726F65642E0A0044656661756C742073F9
:100DC000746F7261676520736C6F74203020736577
:100DD0006C65637465642E0A004C6F6164696E67AC
:100DE00020746573745F7061747465726E207661CF
:100DF0006C7565732E0A0A00496E76616C69642011
:100E0000746573745F7061747465726E2076616C62
:100E100075652E20282D3120746F2032290A0A0092
:100E20004C6F636174696F6E7320696E76616C6973
:100E300064617465642E0A0A00456E7469726520E7
:100E40004D65736820696E76616C69646174656470
:100E50002E0A0A004D65616E204D65736820486555
:100E6000696768743A200023206F662073616D7093
:100E70006C65733A20000A4D657368206F6E6C795B
:100E8000207061727469616C6C7920706F70756C20
:100E9000617465642E0A0A0050726F62696E672081
:100EA000506F696E74000A50726F62696E67206DD0
:100EB00065736820706F696E74200020616E642015
:100EC00074616B652061206D6561737572656D6518
:100ED0006E742E0A006D6D20746869636B2E0A00B3
:100EE000427573696E657373204361726420697320
:100EF000200052656D6F76652026204D6561737503
:100F00007265204265640052656D6F766520736876
:100F1000696D00506C616365207368696D20756E42
:100F2000646572206E6F7A7A6C65004D6573682017
:100F3000506F696E74204D656173757265642061D0
:100F4000743A20000A4D657368206F6E6C792070CA
:100F500061727469616C6C7920706F70756C61740A
:100F600065642E0A00506C616365205368696D20CA
:100F700026204D656173757265004D6F76696E67E9
:100F800020746F206E657874004D65736820456429
:100F90006974696E672053746F7070656400446F84
:100FA0006E652045646974696E67204D6573680AD3
:100FB00000446F6E652045646974696E67204D65F5
:100FC00073680046696E652054756E696E67204DC2
:100FD0006573680028582C5929206F7574736964EB
:100FE00065207072696E7461626C652072616469FB
:100FF00075732E0A004F6666736574206F757420D2
:101000006F6620626F756E64732E20283020746FB7
:101010002031306D6D290A0A00496E76616C696471
:10102000206D617020747970652E0A0A003F284691
:10103000296164652068656967687420666F72203D
:10104000426564204C6576656C20436F72726563FF
:1010500074696F6E206E6F7420706C617573696255
:101060006C652E0A0A003F43616E27742061637429
:10107000697661746520616E64206465616374697A
:1010800076617465206174207468652073616D6594
:101090002074696D652E0A0A00426F74682058201A
:1010A000262059206C6F636174696F6E73206D75B3
:1010B0007374206265207370656369666965642E68
:1010C0000A0A003F496E76616C6964206772696440
:1010D0002073697A6520284A2920737065636966E0
:1010E0006965642028322D39292E0A0A003F2850CC
:1010F00029686173652076616C756520696E76611B
:101100006C69642028302D36292E0A0A003F2856A3
:10111000296572626F7365206C6576656C20696DF8
:10112000706C61757369626C652028302D34292ECE
:101130000A0A003F285229657065746974696F6EE8
:1011400020636F756E7420696E76616C6964202807
:10115000312B292E0A0A00446F696E672047323905
:1011600000726F746174696F6E206D61747269785A
:101170003A0A00206D61783A00206D696E3A0041AC
:101180007869732000554E4B4E4F574E20535441B3
:1011900054450047434F44455F494E464F004C433A
:1011A000445F50415553455F524553554D450046A8
:1011B000494C414D454E545F52554E4F55545F4337
:1011C0004F4E54494E55450046494C414D454E54AD
:1011D0005F52554E4F5554004D3837362052657387
:1011E000706F6E64696E672050524F4D50545F00AF
:1011F0004572726F722077726974696E6720746FBE
:1012000020454550524F4D210A00627573793A20AE
:1012100070617573656420666F7220696E70757495
:101220000A00627573793A2070617573656420668F
:101230006F7220757365720A00627573793A207057
:10124000726F63657373696E670A007061757365A9
:10125000004D363030002066696C616D656E745FDC
:1012600072756E6F7574200066696C616D656E7461
:101270005F72756E6F757420540046696C616D65A0
:101280006E7452756E6F75742054004E6F204368F3
:1012900065636B73756D2077697468206C696E6522
:1012A000206E756D6265722C204C617374204C69E0
:1012B0006E653A2000636865636B73756D206D69B8
:1012C000736D617463682C204C617374204C696E7B
:1012D000653A20004C696E65204E756D626572201E
:1012E0006973206E6F74204C617374204C696E6555
:1012F000204E756D6265722B312C204C6173742009
:101300004C696E653A20004D313130007761697467
:101310000A0053442072656164206572726F720A1C
:10132000002121204B494C4C20636175736564207A
:101330006279204B494C4C20627574746F6E2F702B
:10134000696E0A002121204B494C4C206361757362
:10135000656420627920746F6F206D756368206901
:101360006E6163746976652074696D65202D2063F4
:10137000757272656E7420636F6D6D616E643A2074
:1013800000363726033C3D380E2E303E131A1C180B
:1013900008440AFF430809070001486F74656E643A
:1013A00020746F6F20636F6C640A0053656E642055
:1013B0004D31303820746F20726573756D650A0089
:1013C00052656865617420446F6E6500526568659A
:1013D0006174696E67005265686561740048656193
:1013E00074657254696D656F75740053656E642021
:1013F0004D31303820746F2068656174206E6F7ACB
:101400007A6C650A004E6F7A7A6C65205061726B57
:10141000656400706175736564004D3630303A2044
:10142000546F6F20436F6C6400726573756D6564F3
:1014300000526573756D696E6700473236204865E6
:101440006174696E67204E6F7A7A6C650047323638
:101450002048656174696E67204265640057616960
:1014600074696E6720666F72206865617475702E8E
:101470000A004669786564204C656E677468205080
:1014800072696D6500446F6E65205072696D696E9A
:1014900067004D616E75616C207072696D696E6771
:1014A0002E2E2E004732362043616E63656C6564D4
:1014B000004C656176696E6720473236003F537095
:1014C0006563696669656420582C5920636F6F7283
:1014D00064696E617465206F7574206F6620626F39
:1014E000756E64732E0A003F285229657065617419
:1014F0002076616C7565206E6F7420706C617573F9
:1015000069626C653B206D7573742062652061743F
:10151000206C6561737420312E0A003F537065633F
:101520006966696564206E6F7A7A6C652074656D92
:101530007065726174757265206E6F7420706C6175
:10154000757369626C652E0A003F53706563696646
:101550006965642066696C616D656E742073697A73
:1015600065206E6F7420706C61757369626C652E96
:101570000A003F537065636966696564207072692B
:101580006D65206C656E677468206E6F7420706C7A
:1015900061757369626C652E0A003F5370656369FB
:1015A00066696564206E6F7A7A6C652073697A6506
:1015B000206E6F7420706C61757369626C652E0AA1
:1015C000003F52657472616374696F6E204D756C73
:1015D0007469706C696572206D7573742062652022
:1015E0007370656369666965642E0A003F537065B0
:1015F0006369666965642052657472616374696FBA
:101600006E204D756C7469706C696572206E6F74B4
:1016100020706C61757369626C652E0A003F5370AF
:1016200065636966696564206C61796572206865C7
:1016300069676874206E6F7420706C61757369627D
:101640006C652E0A0043292E0A003F5370656369BA
:1016500066696564206265642074656D7065726199
:1016600074757265206E6F7420706C617573696239
:101670006C65202834302D00473236207374617237
:1016800074696E672E2E2E0A00206D61783A200054
:10169000206D696E3A2000656E7175657565696EBD
:1016A000672022006F6B00526573656E643A2000FC
:1016B00025697920256964202569682025696D20C0
:1016C0002569730023646566696E6520444546415B
:1016D000554C545F004B6420004B6920004B702038
:1016E00000504944204175746F74756E65206669B9
:1016F0006E69736865642120507574207468652074
:101700006C617374204B702C204B6920616E6420D7
:101710004B6420636F6E7374616E74732066726FB6
:101720006D2062656C6F7720696E746F20436F6EF9
:1017300066696775726174696F6E2E680A00504938
:1017400044204175746F74756E65206661696C65BF
:1017500064212074696D656F75740A000A20436CFA
:10176000617373696320504944200A00204B643A36
:101770002000204B693A2000204B703A20000A20BC
:101780004E6F206F76657273686F6F740A00205415
:10179000753A2000204B753A200020643A20002042
:1017A000626961733A2000504944204175746F7436
:1017B000756E652073746172740A0050494420414B
:1017C00075746F74756E65206661696C656421203F
:1017D00054656D706572617475726520746F6F20E9
:1017E000686967680A00504944204175746F7475D0
:1017F0006E65206661696C656421204261642065C4
:1018000078747275646572206E756D6265720A0017
:101810004572723A207574663820666F6E74206E59
:101820006F7420696E697469616C697A65642E00F1
:10183000000C0D00FE07022603BC017FFE08FE0817
:10184000FE05080806000040F0C888889878100552
:101850000808060000C0F88888888888F80505050B
:101860000600012030F8302005080806000020702E
:10187000F820202020E00509090600FF2070A8A814
:10188000B888887020050606060001E08CEA8C8A7C
:101890000A0509090600FFF8A88888888888A8F83A
:1018A000050A0A0600FE205050505088A8A88870EB
:1018B00003030306000340A040FFFFFFFFFFFFFFFD
:1018C000FFFFFFFFFFFFFFFFFFFFFFFFFFFFFF0027
:1018D00000000605FF010707060200808080808067
:1018E0000080030303060105A0A0A005060606006C
:1018F0000050F85050F8500509090600FF2070A864
:10190000A07028A87020050707060000C8C810208E
:1019100040989805070706000040A0A040A89068DE
:101920000103030602058080800309090601FF20E8
:1019300040408080804040200309090601FF80402C
:101940004020202040408005070706000020A870A6
:101950002070A8200505050600012020F82020029F
:1019600003030601FFC04080050101060003F802E1
:101970000202060100C0C00507070600000810109B
:1019800020404080050707060000708898A8C88896
:101990007003070706010040C040404040E00507D3
:1019A00007060000708808102040F80507070600A9
:1019B00000F808103008887005070706000010308E
:1019C0005090F81010050707060000F880F008088E
:1019D0008870050707060000304080F08888700591
:1019E0000707060000F8081010202020050707064A
:1019F00000007088887088887005070706000070EE
:101A0000888878081060020505060100C0C000C083
:101A1000C00206060601FFC0C000C04080030505E5
:101A20000601012040804020050303060002F80063
:101A3000F8030505060101804020408005070706E0
:101A400000007088102020002005070706000070A5
:101A500088B8A8B88070050707060000708888F865
:101A6000888888050707060000F04848704848F055
:101A700005070706000070888080808870050707CA
:101A8000060000F04848484848F0050707060000EF
:101A9000F88080F08080F8050707060000F8808055
:101AA000F080808005070706000070888080988895
:101AB00070050707060000888888F888888803076B
:101AC00007060100E04040404040E00507070600EF
:101AD000003810101010906005070706000088906D
:101AE000A0C0A09088050707060000808080808045
:101AF00080F805070706000088D8A8888888880528
:101B000007070600008888C8A89888880507070680
:101B1000000070888888888870050707060000F034
:101B20008888F08080800507070600007088888814
:101B3000A89068050707060000F08888F0A0908844
:101B40000507070600007088807008887005070781
:101B5000060000F8202020202020050707060000AE
:101B60008888888888887005070706000088888824
:101B70008850502005070706000088888888A8A894
:101B80005005070706000088885020508888050700
:101B9000070600008888502020202005070706003F
:101BA00000F80810204080F80309090601FFE080D2
:101BB000808080808080E00507070600008040402C
:101BC000201010080309090601FFE0202020202032
:101BD0002020E005030306000520508805010106CA
:101BE00000FEF803030306010580402005050506F5
:101BF000000070087888780507070600008080F0EC
:101C0000888888F0050505060000708080887005CA
:101C10000707060000080878888888780505050603
:101C200000007088F080700507070600003048400B
:101C3000E04040400507070600FE70888888780865
:101C4000700507070600008080F0888888880307F1
:101C5000070601004000C0404040E00409090601B9
:101C6000FE100030101010109060050707060000ED
:101C700080808890E09088030707060100C04040FC
:101C8000404040E0050505060000D0A8A8A8A8052A
:101C90000505060000B0C88888880505050600000F
:101CA00070888888700507070600FEF0888888F02D
:101CB00080800507070600FE788888887808080570
:101CC0000505060000B0C8808080050505060000F7
:101CD00078807008F00507070600002020F8202013
:101CE0002018050505060000888888986805050500
:101CF00006000088888850200505050600008888B1
:101D0000A8A8500505050600008850205088050742
:101D1000070600FE888888502040800505050600DB
:101D200000F8102040F80309090601FF2040404058
:101D300080404040200109090602FF8080808080A9
:101D4000808080800309090601FF804040402040D8
:101D500040408005030306000248A890FF00FE00F3
:101D600003FF8007C7C00701E00000E00000F000AB
:101D700000700400700E00701F00703F80F00E00B5
:101D8000E00F01E007C7C003FF8000FE0000FE0077
:101D900003FF8007C7C00F01E00E00E03F80F01F87
:101DA00000700E00700400700000700000F0000071
:101DB000E00701E007C7C003FF8000FE000E000E31
:101DC000000E000E000E000E000E000E007FC03F41
:101DD000801F000E00040004000E001F003F807FE3
:101DE000C00E000E000E000E000E000E000E000EC3
:101DF00000FFFFFF7F80FFC0FFC0FFC07F807F80AC
:101E0000FFC0FFC0FFC03F001E000C000500000621
:101E100001000400060100060500000006000400A1
:101E20001B1E161E111E0C1E0000803F66667242AD
:101E30006666F042CCCC334366666F4300809543C0
:101E400025532025692F2569005D0A0062656420FD
:101E5000706C616E65206E6F726D616C203D205BF1
:101E600000436F756C64206E6F7420636F6D706CCF
:101E7000657465204C5346210054696C74696E6723
:101E8000206D65736820706F696E7420003F457225
:101E9000726F722070726F62696E6720706F696E08
:101EA000742E2041626F7274696E67206F70657264
:101EB0006174696F6E2E0A00255320332F3300544E
:101EC000696C74696E67206D6573682028332F33E1
:101ED000290A00255320322F330054696C74696E2F
:101EE00067206D6573682028322F33290A00436FFD
:101EF000727265637465645F5A3D0054696C7469FD
:101F00006E6720506F696E7400255320312F3300A7
:101F100054696C74696E67206D6573682028312F71
:101F200033290A00646F6E650A00496E7375666630
:101F3000696369656E7420646174610A0045787430
:101F40007261706F6C6174696E67206D6573682E65
:101F50002E2E0053544F505045442E20005072698D
:101F60006E7465722073746F70706564206475653B
:101F700020746F206572726F72732E20466978200C
:101F8000746865206572726F7220616E642075736B
:101F900065204D39393920746F2072657374617210
:101FA000742E202854656D70657261747572652099
:101FB00069732072657365742E205365742069748B
:101FC0002061667465722072657374617274696EE3
:101FD00067290A0021212053544F502063616C6C03
:101FE00065642062656361757365206F6620424C8D
:101FF000546F756368206572726F72202D20726550
:1020000073746172742077697468204D3939390AA4
:10201000005072696E74696E67204F626A656374FE
:10202000002553202569002F2F616374696F6E3A74
:1020300000626567696E0073686F77004469736159
:10204000626C6552756E6F75740050757267654D80
:102050006F7265004F7574616765205265636F76B6
:1020600065727900436F6E66696775726174696F36
:102070006E003F0043616E63656C004F6666004F03
:102080006E005072696E74657220537461747300CF
:10209000546865726D6973746F727300426F617218
:1020A0006420496E666F005072696E7465722049D3
:1020B0006E666F004D313030300053746F702050B9
:1020C00072696E7400526573756D65205072696E29
:1020D00074004D3231004368616E6765204D656460
:1020E00069610041626F7574205072696E74657227
:1020F000004C6576656C696E6720546F6F6C730079
:102100004E6F204D65646961005374617274205094
:1021100072696E740043616E6E6F7420656E7465D3
:1021200072207375626469723A2000022E2E005389
:102130006F667420456E6473746F70730054656DC0
:1021400070657261747572650050726F6265205AB5
:10215000204F6666736574004D61696E004D3834BA
:102160000044697361626C652053746570706572B8
:1021700073004732380A4D343820503130004D3426
:10218000382050726F62652054657374004C657618
:10219000656C20436F726E65727300473238205A47
:1021A00000486F6D65205A00473238205900486F4B
:1021B0006D65205900473238205800486F6D652002
:1021C00058004175746F20486F6D650050726568E6
:1021D00065617420504C4120456E64005072656802
:1021E00065617420504C41204265640050726568FE
:1021F0006561742041425320456E640050726568E9
:10220000656174204142532042656400436F6F6CE6
:10221000646F776E0046616E205370656564207E42
:1022200000466C6F77004D31303920532569004DE1
:102230003139302053256900496E666F205363722F
:1022400065656E004D65736820456469746F720042
:102250004265642054656D7000486F74656E64203B
:1022600054656D70004732392050362043202D00D0
:1022700048656967687420416D6F756E74004164CC
:102280006A757374204D6573682048656967687462
:102290000047323920503420540046696E6520547E
:1022A000756E6520436C6F7365737400473236201A
:1022B00043204225692048256920500056616C69F9
:1022C0006461746520437573746F6D204D65736828
:1022D000004732380A47323620432042313130201D
:1022E0004832343020500056616C69646174652056
:1022F0004D657368202841425329004732380A4708
:1023000032362043204237302048313830205000C8
:1023100056616C6964617465204D6573682028504E
:102320004C412900473239204A2569004C657665C1
:102330006C204D657368005369646520506F696E49
:1023400074730047726964204D657368204C65762C
:10235000656C696E6700473239204A3000332D5072
:102360006F696E74204C6576656C696E67004732E4
:1023700039205033205220432E2569004D616E755F
:10238000616C2046696C6C2D696E0046696C6C2D21
:10239000696E20416D6F756E74004D6573682069BC
:1023A0006E76616C6964617465642E0A0047323927
:1023B000204900496E76616C696461746520436CE4
:1023C0006F7365737400496E76616C6964617465DE
:1023D00020416C6C00473239205031204300436F5C
:1023E0006E74696E756520426564204D6573680082
:1023F00046696C6C2D696E204D6573680042756985
:102400006C6420437573746F6D204D65736800476D
:1024100032380A4D31393020533131300A4D3130A4
:102420003920533234300A4732392050310A4D3185
:1024300030342053300A4D3134302053300042754F
:10244000696C64204D657368202841425329004718
:1024500032380A4D313930205337300A4D31303956
:1024600020533138300A4732392050310A4D31304B
:10247000342053300A4D31343020533000427569D6
:102480006C64204D6573682028504C4129004164DC
:1024900076616E6365642053657474696E6773005A
:1024A000496E6974004D34323800496E697469614F
:1024B0006C697A6520454550524F4D0043616E630B
:1024C000656C204F626A6563740053746570732F86
:1024D0006D6D0050726F6265204F66667365747330
:1024E000004A65726B00416363656C657261746973
:1024F0006F6E0056656C6F63697479005365742064
:10250000486F6D65204F666673657473004E65781D
:102510007420506F696E74004E657874004E4F00E1
:102520005945530043616E63656C204F626A656371
:1025300074203D00436D643A2053572D4D6F646500
:1025400000436D643A2053746F7700436D643A2002
:102550004465706C6F7900436D643A2053656C6616
:102560002D5465737400436D643A2052657365742D
:102570000046616E20537065656400526573746F28
:1025800072652044656661756C7473004C6F61649C
:102590002053657474696E67730050726568656175
:1025A000742041425320436F6E6600507265686527
:1025B000617420504C4120436F6E6600424C546F52
:1025C00075636800506C656173652052657365744E
:1025D000005052494E5445522048414C5445440005
:1025E00025533A20255300706F7765726F66660039
:1025F0004B494C4C45442E20005072696E746572F4
:102600002068616C7465642E206B696C6C282920CD
:1026100063616C6C6564210A006563686F3A00450C
:1026200072726F723A0020204D34323120490020FE
:1026300020473239204939390A0061637469766567
:102640000A002053797374656D2076312E30312065
:10265000002020207C0A004E414E0020202E202009
:102660002000207C004C43443A0A004353563A0A67
:102670000020666F7220003A0A0A000A4265642050
:10268000546F706F677261706879205265706F72F5
:10269000740050726F62696E67204661696C656490
:1026A0000A0050726F62696E67204661696C6564EA
:1026B0000024F4D43050C38E20C2A24017828B7005
:1026C00011127A910D816CD90AA861E108C7586688
:1026D00007615143061E4B5D05C145A7041A411110
:1026E00004093D9803713931034036DB02653391AB
:1026F00002D4305402802E1D02632CEE01752AC5CF
:1027000001B028A001102781018F2564012B244BE3
:1027100001E0223401AC211F018D200D01801FFC3E
:1027200000841EED00971DDF00B81CD200E61BC61A
:1027300000201BBC00641AB200B219A8000A19A03C
:10274000006A189900D117910040178B00B51684C4
:102750000031167E00B31579003A157300C7146F67
:102760000058146A00EE1366008813630025135E98
:1027700000C7125B006C12570015125400C11151B2
:102780000070114F0021114B00D61049008D1047E9
:10279000004610440002104200C00F4000800F3E6F
:1027A00000420F3C00060F3B00CB0E3800930E3763
:1027B000005C0E3500270E3400F30D3200C10D31E0
:1027C00000900D3000600D2E00320D2D00050D2CF7
:1027D00000D90C2B00AE0C2900850C29005C0C27BD
:1027E00000350C27000E0C2600E80B2400C40B2437
:1027F00000A00B23007D0B23005A0B2100390B2175
:1028000000180B2000F80A1F00D90A1E00BB0A1E80
:10281000009D0A1D00800A1D00630A1C00470A1B58
:10282000002C0A1B00110A1A00F7091A00DD091909
:1028300000C4091900AB091900920917007B091897
:1028400000630917004C0916003609160020091606
:10285000000A091500F5081500E0081400CC08145A
:1028600000B8081400A4081400900813007D081292
:10287000006B0813005808120046081200340811B3
:1028800000230811001208110001081100F00710C0
:1028900000E0071000D0071000C0071000B0070FBD
:1028A00000A107100091070E0083070F0074070FA7
:1028B0000065070E0057070E0049070E003B070D85
:1028C000002E070E0020070D0013070D0006070D50
:1028D00000F9060C00ED060D00E0060C00D4060C15
:1028E00000C8060C00BC060C00B0060C00A4060BC9
:1028F0000099060C008D060B0082060B0077060B74
:10290000006C060B0061060A0057060B004C060A15
:102910000042060A0038060A002E060A0024060AAB
:10292000001A060A001006090007060A00FD05093C
:1029300000F4050900EB050900E2050900D90509C5
:1029400000D0050900C7050900BE050900B5050846
:1029500000AD050800A50509009C050800940508C0
:10296000008C050800840508007C05080074050833
:10297000006C050700650508005D050700560508A1
:10298000004E050700470507004005080038050709
:1029900000310507002A050700230507001C05066E
:1029A00000160507000F05070008050600020507C9
:1029B00000FB040600F5040700EE040600E8040628
:1029C00000E2040700DB040600D5040600CF04067D
:1029D00000C9040600C3040600BD040600B70406CF
:1029E00000B1040500AC040600A6040600A004051E
:1029F000009B04060095040500900406008A040567
:102A00000085040500800406007A040500750405AD
:102A100000700405006B04050066040500610405F0
:102A2000005C04050057040500520405004D040530
:102A30000048040500430405003E0404003A040570
:102A40000035040500300404002C040500270404AC
:102A500000230405001E0404001A040400160405E3
:102A600000110404000D040400090405000404041A
:102A70000000040400FC030400F8030400F4030451
:102A800000F0030400EC030400E8030400E4030482
:102A900000E0030400DC030400D8030400D40304B2
:102AA00000D0030400CC030400C8030300C50303E3
:102AB0000024F404D9201BC40C5C0E9804C4095FE4
:102AC0000265077101F405F900FB04B300480487AF
:102AD00000C10369005803550003034500BE023AD4
:102AE000008402310053022A00290225000402203A
:102AF00000E4011C00C8011900AF0117009801147F
:102B00000084011300710110006101100051010ED9
:102B10000043010D0036010B002B010B0020010BBF
:102B200000150109000C01090003010800FB000861
:102B300000F3000800EB000700E4000600DE0006DA
:102B400000D8000600D2000600CC000500C7000532
:102B500000C2000500BD000400B9000400B5000477
:102B600000B1000400AD000400A9000400A50003AA
:102B700000A20003009F0004009B000300980003D4
:102B8000009500020093000300900003008D0002F6
:102B9000008B00030088000200860002008400030E
:102BA00000810002007F0002007D0002007B000225
:102BB0000079000200770001007600020074000234
:102BC0000072000100710002006F0002006D000140
:102BD000006C0002006A0001006900020067000149
:102BE000006600010065000100640002006200014F
:102BF0000061000100600001005F0002005D000153
:102C0000005C0001005B0001005A00010059000156
:102C10000058000100570001005600010055000156
:102C20000054000100530000005300010052000155
:102C30000051000100500001004F0001004E000053
:102C4000004E0001004D0001004C0001004B00004F
:102C5000004B0001004A000100490001004800004B
:102C60000048000100470001004600000046000146
:102C70000045000000450001004400010043000041
:102C8000004300010042000000420001004100003A
:102C90000041000100400001003F0000003F000132
:102CA000003E0000003E0001003D0000003D00012C
:102CB000003C0000003C0000003C0001003B000024
:102CC000003B0001003A0000003A0001003900001A
:102CD0000039000100380000003800000038000111
:102CE0000037000000370001003600000036000009
:102CF00000360001003500000035000000350001FD
:102D000000340000003400000034000100330000F3
:102D100000330000003300010032000000320000E8
:102D200000320001003100000031000000310001DC
:102D3000003000000030000000300001002F0000D3
:102D4000002F0000002F0000002F0001002E0000C7
:102D5000002E0000002E0001002D0000002D0000BC
:102D6000002D0000002D0001002C0000002C0000B0
:102D7000002C0000002C0001002B0000002B0000A4
:102D8000002B0000002B0001002A0000002A000098
:102D9000002A0000002A000100290000002900008C
:102DA000002900000029000000290001002800007F
:102DB0000028000000280000002800000028000172
:102DC0000027000000270000002700000027000067
:102DD0000027000100260000002600000026000059
:102DE000002600000026000100250000002500004C
:102DF000002500000025000000250000002500013E
:102E00000024000000240000002400000024000032
:102E10000024000100230000002300000023000024
:102E20000023000000230000002300000023000115
:102E3000002200000022000000220000002200000A
:102E400000220000002200010021000000210000FB
:102E500000210000002100000021000000210000EE
:102E600000210001002000000020000000200000E0
:102E700000200000002000000020000000200000D2
:102E800000200001001F0000001F0000001F0000C4
:102E9000001F0000001F0000001F0000001F0001B5
:102EA000001E0000001E0000001E0000001E0000AA
:102EB00000393000003325000087190000B00F00F2
:102EC00000DB080000BD040000740200003F0100A8
:102ED00000473239205034205239393920540047C4
:102EE00032380A473239205031004D6F74696F6EA5
:102EF000004D313137204D657368202569204C6FB6
:102F00006164656400473239204C2569004D3131D8
:102F100037204D657368202569205361766564000C
:102F200047323920532569004C6F61642042656443
:102F3000204D657368004D656D6F727920536C6F1D
:102F400074004E6F2053746F7261676500486F6D37
:102F5000696E672058595A0047323920503420583A
:102F60002573205925732052256900202D2D2D2DE4
:102F70002D004732380047323920532D31004F663B
:102F800066205072696E746572204261636B757061
:102F900000473239205431004F75747075742066C3
:102FA0006F722043535600473239205430004F751A
:102FB0007470757420666F7220486F737400456476
:102FC0006974204D657368004732392049393939B1
:102FD0000A4732392050322042205430004D616E71
:102FE00075616C6C79204275696C64204D657368FD
:102FF00000372E205361766520426564204D65734D
:103000006800362E2046696E652054756E65204135
:103010006C6C00352E2056616C6964617465204DBE
:1030200065736800342E2046696E652054756E65A0
:1030300020416C6C00332E2056616C6964617465AC
:10304000204D6573680047323920503320543000DA
:10305000322E20536D6172742046696C6C2D696E3E
:1030600000312E204275696C6420436F6C64204DE2
:103070006573680046616465204865696768740027
:103080004732392057004F75747075742055424C83
:1030900020496E666F0055424C20546F6F6C730070
:1030A0004F7574707574204D657368204D617000A4
:1030B0004D6573682053746F72616765004D657369
:1030C00068204564697400537465702D42792D53EE
:1030D0007465702055424C004732392041004163ED
:1030E0007469766174652055424C0047323920443A
:1030F00000446561637469766174652055424C00D3
:1031000052756E6F75742044697374206D6D004C38
:103110006F6164206D6D00556E6C6F6164206D6D24
:103120000046696C2E204469612E004520696E209E
:103130006D6DC2B3004D33303320553120452569C4
:103140002053256900504944204175746F74756E91
:1031500065202A005049442D44202A005049442D1E
:1031600049202A005049442D50202A00200820469A
:10317000616374002008204D6178002008204D69AB
:103180006E004175746F74656D70002062797465AE
:10319000733B2063726320004E6F20454550524FB1
:1031A0004D2E0A00204A00205200454550524F4DF6
:1031B000206461746173697A65206572726F722E22
:1031C0000A003F4D65736820746F6F206269672045
:1031D000666F7220454550524F4D2E0A0055424CA5
:1031E0002072657365740A00206C6F6164656420E9
:1031F00066726F6D2073746F726167652E0A004D81
:1032000065736820003F43616E277420656E6162BC
:103210006C65200020696E697469616C697A656407
:103220002E0A0A002073746F7265642073657474CB
:10323000696E6773207265747269657665642028AB
:1032400000202863616C63756C6174656429210AD0
:103250000020213D2000454550524F4D2043524310
:10326000206D69736D61746368202D202873746FFD
:10327000726564292000496E6465783A2000204D0B
:1032800061726C696E3D563736290A0045455052C9
:103290004F4D2076657273696F6E206D69736D6135
:1032A0007463682028454550524F4D3D00454550B8
:1032B000524F4D20496E697469616C697A65640A80
:1032C000004D65736820736176656420696E2073B4
:1032D0006C6F7420003F556E61626C6520746F20C6
:1032E00073617665206D65736820646174612E0A70
:1032F0000020736C6F743D00206D65736865735FAB
:10330000656E643D004532454E443D00206D657359
:103310006820736C6F747320617661696C61626C94
:10332000652E0A003F496E76616C696420736C6F8C
:10333000742E0A004D657368206C6F6164656420AB
:1033400066726F6D20736C6F7420003F556E616202
:103350006C6520746F206C6F6164206D65736820EC
:10336000646174612E0A0048617264636F6465640D
:103370002044656661756C742053657474696E676A
:1033800073204C6F616465640A00556E69666965F7
:103390006420426564204C6576656C696E67003B0D
:1033A000200020204D363033200020204D34313293
:1033B00020530046696C616D656E742072756E6F86
:1033C00075742073656E736F723A002055004669FC
:1033D0006C616D656E74206C6F61642F756E6C6FBF
:1033E0006164206C656E677468733A0020204D3804
:1033F00035312058005A2D50726F6265204F666635
:103400007365740020204D343133205300506F77A2
:1034100065722D4C6F7373205265636F7665727998
:103420003A0020204D33303420500020204D3330DE
:10343000312050005049442073657474696E67737D
:103440003A0020460020480020204D3134352053DA
:10345000004D6174657269616C2068656174757096
:1034600020706172616D65746572733A00206D65DC
:10347000736865732E0A0A00454550524F4D20630C
:10348000616E20686F6C642000416374697665200A
:103490004D65736820536C6F743A200020204D34C2
:1034A000323020530020204D323036205800486FF3
:1034B0006D65206F66667365743A0020204D32306A
:1034C00035204200416476616E6365643A20423C77
:1034D0006D696E5F7365676D656E745F74696D6548
:1034E0005F75733E20533C6D696E5F6665656472FF
:1034F0006174653E20543C6D696E5F7472617665DF
:103500006C5F66656564726174653E204A3C6A75ED
:103510006E635F6465763E0020204D32303420506B
:1035200000416363656C65726174696F6E20287514
:103530006E6974732F7332293A20503C7072696E31
:10354000745F616363656C3E20523C7265747261A6
:1035500063745F616363656C3E20543C7472617692
:10356000656C5F616363656C3E0020204D323031D5
:103570002058004D6178696D756D20416363656CFD
:1035800065726174696F6E2028756E6974732F732C
:1035900032293A0020204D3230332058004D6178D6
:1035A000696D756D20666565647261746573202848
:1035B000756E6974732F73293A00537465707320A4
:1035C00070657220756E69743A0020204D3230307B
:1035D0002044300A0020204D323030204400204466
:1035E000697361626C65640A0046696C616D656E41
:1035F000742073657474696E67733A0020204D31CE
:1036000034392043203B20556E69747320696E2045
:1036100043656C736975730A0020286D6D2900205D
:1036200020473231202020203B20556E69747320C2
:10363000696E206D6D00486F6D696E672046616927
:103640006C6564000000FA430000FA43000020416A
:10365000000096420000A0420000A0420000C843C3
:103660000000BA42DC050000DC0500006400000038
:103670004B000000496E736572742066696C616D61
:10368000656E7420616E642073656E64204D313008
:10369000380A0020746F6F206C6F6E672065787435
:1036A000727573696F6E2070726576656E7465648D
:1036B0000A0020636F6C6420657874727573696F9B
:1036C0006E2070726576656E7465640A00486F6D71
:1036D0006520257325732573204669727374006213
:1036E0007574746F6E00436F6E74696E7565004C0F
:1036F0006F61642046696C616D656E7420540022B0
:103700000A00556E6B6E6F776E20636F6D6D616E24
:10371000643A20220020573A00496E76616C696451
:103720002065787472756465720A007C3C3E5E2B7D
:103730003D3F2F5B5D3B2C2A225C0053746F72650A
:103740002053657474696E67730052756E6F75747B
:103750002053656E736F7200554E4C4F41442046A6
:10376000494C414D454E540046494C414D454E54FF
:10377000204348414E4745004D3139305335350AD5
:103780004732380A47323950310A47323950330A02
:1037900047323953310A47323953300A47323946B2
:1037A000302E300A473239410A4D313034533231EC
:1037B000350A4732380A4D313039533231350A47EC
:1037C00031583135305931353046353030300A478F
:1037D000315A300A4D3530300A4D3430300A4D31CF
:1037E000313720536574205A204F66667365740024
:1037F0004D313036533132380A4D3330334338533C
:103800003231354530550A4D3530300A4D3131377A
:10381000205049442054756E6520446F6E65004DFC
:103820003139305335350A4D313034533231350A60
:103830004732380A4732394C310A47312058313043
:10384000305931303046353030300A47315A300047
:103850004D3530300A4D3131372053657474696EFF
:1038600067732053746F72656400507265702066D0
:103870006F72205A2041646A757374005049442065
:1038800054756E65005365747570004D3730322085
:10389000542564004D3630302042302054256400D9
:1038A0004D373032203B2564004D373031205425D0
:1038B00064004D373032004D373031004D363030F6
:1038C000204230005075726765206D6F726500523E
:1038D0004553554D45204F5054494F4E533A005093
:1038E00052494E54205041555345440020204E6FBC
:1038F0007A7A6C653A2000256C642E25696D004546
:103900007874727564656420546F74616C004C6FD8
:103910006E67657374204A6F622054696D65003E5E
:103920002000546F74616C205072696E7420746949
:103930006D6500436F6D706C6574656400507269ED
:103940006E7420436F756E7400313530004245440B
:103950003A4154432031303447542D320052756E71
:10396000617761792057617463683A204F4E004D4A
:1039700061782054656D7000323535004D696E20D8
:1039800054656D700045313A204550434F53203106
:1039900030304B005053550047656E6572696300C7
:1039A00050726F746F636F6C00312E30004261751E
:1039B000640032353030303000437265616C6974B8
:1039C0007933442052414D505300457874727564E8
:1039D0006572730074696E796D616368696E657391
:1039E00033642E636F6D00544D33442043523130A5
:1039F000563200323032302D30322D3238005061A4
:103A0000726B696E672E2E2E00000057616974205C
:103A1000666F720066696C616D656E7420636861C3
:103A20006E676500746F207374617274005761690A
:103A30007420666F720066696C616D656E742075C6
:103A40006E6C6F616400004E6F7A7A6C65206865F9
:103A50006174696E6700506C656173652077616998
:103A6000742E2E2E0000507265737320627574746C
:103A70006F6E00746F2068656174206E6F7A7A6C67
:103A8000650000496E736572742066696C616D65CE
:103A90006E7400616E642070726573732062757459
:103AA000746F6E00746F20636F6E74696E7565005D
:103AB0005761697420666F720066696C616D656E2E
:103AC00074206C6F616400005072657373204275DE
:103AD00074746F6E00746F20726573756D652070FD
:103AE00072696E7400005761697420666F7220708D
:103AF00072696E7400746F20726573756D652E2E19
:103B00002E00005761697420666F720066696C61EF
:103B10006D656E7420707572676500002568753A72
:103B20002530326875002568756420253032687547
:103B30003A25303268750020202020202020004DBA
:103B4000656469612052656D6F766564004D6564DA
:103B5000696120496E736572746564001FE020100E
:103B6000201020101020102020102010303008408D
:103B7000048003001FE03FF03FF03FF01FE01FE034
:103B80003FF03FF03FF00FC0078003003FFFF038E9
:103B9000007030FC3020FC102078102030102C00F9
:103BA000D02E31D02F7BD02F7BD02E31D02C00D0F7
:103BB00020301020781020FC1030FC303800703F8E
:103BC000FFF03FFFF03800703186302387102787E1
:103BD000902F87D02F03D02030102078102078101D
:103BE0002030102F03D02F87D027879023871031C4
:103BF00086303800703FFFF01FFFF81FFFF80410F9
:103C000040020820020820041040082080104100D3
:103C10001041000820800410400000001FFFF81F22
:103C2000FFF8FFFFFF8000018E00E19F01F193810B
:103C3000399F81F99F81F99FB9F98F28F180380167
:103C40008000019FFFF99174999B06A99B54A99B41
:103C500056A99B54999FFFF9FFFFFF5072696E743C
:103C60002066726F6D204D65646961004D6F7665E9
:103C70002025736D6D004D6F766520302E316D6D92
:103C8000004D6F766520316D6D004D6F766520318A
:103C9000306D6D004D6F7665204178697300486F17
:103CA00074656E6420746F6F20636F6C6400457878
:103CB000747275646572004D6F7665205A004D6FA1
:103CC00076652059004D6F76652058004368616E17
:103CD00067652046696C616D656E7400556E6C6F2A
:103CE00061642046696C616D656E74004C6F61643F
:103CF0002046696C616D656E74005072656865611F
:103D00007420414253005072656865617420504CC4
:103D100041005072656865617420437573746F6DFE
:103D2000004261636B0000002100240027002A008C
:103D30002D003000330001010000040107010A01D9
:103D400000002200250028002B002E003100340046
:103D500002010000050108010B0100002000230002
:103D6000260029002C002F00320000010000030172
:103D700006010901050505050705080808080202EE
:103D800002020A0A080804040404010101010101F5
:103D900001010303030303030303040707070C0CD8
:103DA0000C0C0C0C0C0C020202020606060606069F
:103DB00006060B0B0B0B0B0B0B0B01021020200844
:103DC0000810204010204080020102010804020176
:103DD00001020408102040808040201008040201E5
:103DE000800402018040201008040201080402013E
:103DF00001020408102040800102040810204080C5
:103E000000000A0B02090C0D0E0807030401000054
:103E100000000000000000000000000000000000A2
:103E2000000000000000000000000000121110005F
:103E30000000000000000000000000000000000082
:103E40000000000000005654726176204D696E003B
:103E5000566D696E00566D6178204500566D61782B
:103E6000205A00566D6178205900566D61782058AF
:103E700000416D6178204500416D6178205A004114
:103E80006D6178205900416D6178205800412D54B2
:103E9000726176656C00412D5265747261637400C5
:103EA000416363656C004A756E6374696F6E20448C
:103EB00065760050726F62652059204F66667365A3
:103EC000740050726F62652058204F666673657487
:103ED000004573746570732F6D6D005A737465704F
:103EE000732F6D6D005973746570732F6D6D00586D
:103EF00073746570732F6D6D006F70656E00545232
:103F0000494747455245440066696C616D656E746A
:103F1000007A5F6D696E00795F6D696E00785F6D24
:103F2000696E005265706F7274696E6720656E64A9
:103F300073746F70207374617475730A0020436F1B
:103F4000756E7420583A005072696E742050617515
:103F5000736564005061757365205072696E7400FA
:103F60006E6F74696669636174696F6E2000544D89
:103F70003344204352313056322052656164792EE9
:103F8000005072696E74696E672E2E2E0063616E2A
:103F900063656C005072696E742041626F72746563
:103FA00064004469736D6973730055492041626F01
:103FB00072746564004D323520500A4D323400521F
:103FC0006573756D650055492050617573650072A4
:103FD0006573756D650053657474696E67732053FE
:103FE000746F726564202800FD55555555555FFF67
:103FF000FFFFFFFFFFFFFFFFFE00000000003FFF8D
:10400000FFFFFFFFFFFFFFFFFD000007FFFFFFFFB8
:10401000FFFFFFFFFFFFFFFFFE07C005555555558A
:10402000555FFFFFFFFFFFFFFC0A200600000000B6
:10403000003FFFFFFFFFFFFFFE141005000007FF1A
:10404000FFFFFFFFFFFFFFFFFC28080607C0055525
:10405000555555555FFFFFFFFE5404040A20060026
:10406000000000003FFFFFFFFC6004061410050085
:104070000007FFFFFFFFFFFFFE50040428080607AC
:10408000C00555555555555FFC6004065404040A97
:10409000200600000000003FFE54041C60040614CB
:1040A000100500000000001FFC28082E5004042802
:1040B000080607C00001F03FFE14105460040654C7
:1040C00004040A200002081FFC0A206654041C6035
:1040D000040614100005043FFE07C05428082E50A3
:1040E00004042808000A021FFC00002E141054606B
:1040F000040654040015013FFE00001C0A2066540B
:10410000041C60040018011FFC00000607C05428AE
:10411000082E50040014013FFE00000400002E147D
:10412000105460040018011FFCFFFFFE00001C0A71
:10413000206654041C15013FFED5555400000607A7
:10414000C05428082A0A021FFC84104600000400FC
:10415000002E14105105043FFEC41044FFFFFE0062
:10416000001C0A206102881FFC841046D5555400AB
:10417000000607C05101F03FFE8410448410460041
:10418000000400002A00001FFCC41046C41044FFB5
:10419000FFFE00001C00003FFE841044841046D542
:1041A000555400000000001FFCD55556841044846F
:1041B000104600000000003FFCFFFFFCC41046C496
:1041C0001044FFFFFFFFFF9FFE00000684104484A1
:1041D0001046D555555555BFFD555554D5555684A2
:1041E000104484104104109FFFFFFFFCFFFFFCC43C
:1041F0001046C410410411BFFFFFFFFE00000684FB
:10420000104484104104109FFFFFFFFD555554D505
:10421000555684104104109FFFFFFFFFFFFFFCFF76
:10422000FFFCC410410411BFFFFFFFFFFFFFFE00B2
:10423000000684104104109FFFFFFFFFFFFFFD55A4
:104240005554D555555555BFFFFFFFFFFFFFFFFFE5
:10425000FFFCFFFFFFFFFF9FFFFFFFFFFFFFFFFFD1
:10426000FFFE00000000003FFFFFFFFFFFFFFFFF1A
:10427000FFFD55555555555FFFFFFFFFFFFFFFFF42
:10428000FFFFFFFFFFFFFFFFFFFFFFFFFFFFFFFF3E
:10429000FFFFFFFFFFFFFFFFFFFFFFFFFFFFFFFF2E
:1042A000FFFFFFFFFFFFFFFFFFFFFFFFFFFFFFFF1E
:1042B000FFFFFFFFFFFFFFFFE02EFB7DFBFBCFC1FA
:1042C000DFBB3EC0E1FE3C1FFDEE7B39F9F3CF9E24
:1042D000DFBB3EDFDEFCDDE7FDEE3BBBF9EBD7BF2E
:1042E0005FBB5EDFDEFDEDF7FDEEBBD3FAEBB73F64
:1042F000DFBB4EDFDFFFCDF3FDEEDBC7FAEBBB7FAD
:10430000C03B6EC0E3FF1DF3FDEECBEFFADBBB7FDE
:10431000DFBB66DFF8FFCDF3FDEEEBEFFB5B033FAA
:104320005FBB76DFFE7FEDF3FDEEF3EFFB5B79BE67
:10433000DFBB7ADFDE7DEDF7FDEEF3EFFBBAFD9E2E
:10434000DFBB7CDFDEFDCDE7FDEEFBEFFBBAFDC1A1
:10435000DFBB7EC0E0FE1C1F1FFFFFFFFFFFFF60F3
:104360000000000001FF400000000000FF8000008E
:104370000000007F83CF00000C303F87FF80000CDF
:10438000301F867980000C000F8C30C7838C30E79B
:104390008C30CFC7CC31F38C30DCECEC33B98C30C3
:1043A000D86C6C33198C30D06C0C33198C30D86CC1
:1043B0000C33198C30DC6C0E3B198C30CF7C079F92
:1043C000198C30C77C038F19400000000000026088
:1043D0000000000000061FFFFFFFFFFFF868747475
:1043E000703A2F2F6D61726C696E66772E6F7267EF
:1043F00000322E302E345F445736004D313030308D
:1044000020530070726F6D70745F00656E640020E1
:1044100020506C616E6E6572427566666572427997
:104420007465733A20002046726565204D656D6F96
:1044300072793A2000436F6D70696C65643A204D63
:10444000617220203720323032300A00204C6173F4
:104450007420557064617465643A20323032302DB6
:1044600030322D3238207C20417574686F723A20CA
:1044700054696E794D616368696E657333440A00EF
:10448000322E302E345F4457360A004D61726C690B
:104490006E0020536F667477617265205265736594
:1044A000740A00205761746368646F6720526573F3
:1044B00065740A002042726F776E206F7574205207
:1044C000657365740A002045787465726E616C20AE
:1044D00052657365740A00506F77657255700A00F3
:1044E0006175746F25632E67004732385859004450
:1044F0006F6E65207072696E74696E672066696C94
:10450000650A004D3331004D305131533138303070
:10451000006572726F722077726974696E672074B9
:104520006F2066696C650A00446F6E652073617662
:10453000696E672066696C652E0A004D3239002568
:104540005320256320256320256320256300205AFE
:104550003A0020593A00656E6473746F7073206876
:1045600069743A20002053697A653A200043616EED
:104570006E6F74206F70656E20737562646972204F
:104580000053442063617264206F6B0A006F706592
:104590006E526F6F74206661696C65640A00766F95
:1045A0006C756D652E696E6974206661696C6564F1
:1045B0000A00534420696E6974206661696C0A00C0
:1045C0004D32332025730046696C652073656C6538
:1045D000637465640A0046696C65206F70656E657A
:1045E000643A2000454E4420535542524F55544999
:1045F0004E450A002220706F7300222070617265A0
:104600006E743A2200535542524F5554494E45203C
:1046100043414C4C207461726765743A2200747295
:1046200079696E6720746F2063616C6C20737562AA
:104630002D67636F64652066696C657320776974A4
:104640006820746F6F206D616E79206C6576656C83
:10465000732E204D4158206C6576656C2069733A45
:10466000310A0044656C6574696F6E206661696C1F
:1046700065642C2046696C653A200046696C6520AB
:1046800064656C657465643A005344207072696EA9
:1046900074696E67206279746520004E6F742053D0
:1046A00044207072696E74696E670A00577269748B
:1046B000696E6720746F2066696C653A20006672C7
:1046C00065736800646F696E67004E6F7720000045
:1046D000000000000000000000000000809D43007A
:1046E000009B430000C843000048420000484200CD
:1046F0000080400202040000A0400000A040000032
:104700000040FFFFFF0000000100000001000080EA
:1047100000555555000000400033333300AAAA2A43
:10472000004992240000002000C7711C00999919CB
:1047300000D1451700555515003BB113002449120F
:104740000011111100000010000F0F0F00E3380ED0
:104750000043790D00CCCC0C00C3300C00E8A20B58
:104760000064210B00AAAA0A00703D0A009DD80926
:1047700000427B090092240900DCD30800888808E5
:10478000001042080000000800F0C10700878707FA
:104790000075500700711C07003EEB0600A1BC0627
:1047A000006990060066660600703E060061180605
:1047B0000017F4050074D105005BB00500B2900548
:1047C00000627205005555050078390500B81E05D0
:1047D00000050505004EEC040087D40400A1BD04CB
:1047E0000090A7040049920400C17D0400EE690412
:1047F00000C7560400444404005C3204000821044D
:104800000041100400000004003FF00300F8E00342
:104810000026D20300C3C30300CCB503003AA803AB
:10482000000A9B0300388E0300C08103009F7503BC
:1048300000D0690300505E03001D53030034480399
:1048400000913D03003333030016290300381F0392
:104850000097150300300C0300030303000BFA025A
:104860000049F10200BAE802005CE002002DD80223
:10487000002DD0020059C80200B0C0020031B902B8
:1048800000DAB10200AAAA0200A0A30200BC9C02A6
:1048900000FA9502005C8F0200DF8802008282022B
:1048A00000457C02002776020027700200436A025E
:1048B000007C640200D05E02003F590200C853022F
:1048C00000FFFDFCFAF8F6F4F2F0EEECEAE9E7E5B9
:1048D000E3E1E0DEDCDAD9D7D5D4D2D0CFCDCBCA74
:1048E000C8C7C5C3C2C0BFBDBCBAB9B7B6B4B3B2FE
:1048F000B0AFADACAAA9A8A6A5A4A2A1A09E9D9C5C
:104900009A99989795949392908F8E8D8B8A898897
:10491000878684838281807F7E7D7B7A79787776B3
:104920007574737271706F6E6D6C6B6A69686766AF
:104930006564636261605F5E5D5C5B5A595858579D
:1049400056555453525150504F4E4D4C4B4A4A4974
:1049500048474646454443424241403F3E3E3D3C37
:104960003B3B3A39383837363535343332323130EB
:10497000302F2E2E2D2C2B2B2A2929282727262590
:104980002524232322212120201F1E1E1D1C1C1B29
:104990001B1A1919181817161615151413131212B5
:1049A0001111100F0F0E0E0D0D0C0C0B0A0A090938
:1049B00008080707060605050404030302020100B0
:1049C000005761726E696E673A20486F6D696E6755
:1049D0002042756D702044697669736F72203C20A7
:1049E000310A00453100626564002C2073797374CC
:1049F000656D2073746F7070656421204865617403
:104A000065725F49443A200048656174696E6720A9
:104A10004661696C65640048656174696E6720660B
:104A200061696C6564004D3131322053687574647E
:104A30006F776E00202D20496E76616C6964206569
:104A400078747275646572206E756D62657220216E
:104A50000A00544845524D414C2052554E41574151
:104A60005900546865726D616C2052756E61776192
:104A700079004572723A204D415854454D50004DD1
:104A8000415854454D50207472696767657265647A
:104A9000004572723A204D494E54454D50004D49E3
:104AA0004E54454D502074726967676572656400A5
:104AB0004D383420582059205A204500202F0020FE
:104AC00042403A0020403A0070012C019001270139
:104AD000B0012201C0011D01F001180110021301F3
:104AE00030020E016002090190020401C002FF00C1
:104AF0000003FA004003F5008003F000D003EB0050
:104B00002004E6007004E100E004DC004005D7006A
:104B1000C005D2004006CD00D006C8008007C30003
:104B20003008BE00F008B900C009B400B00AAF00F8
:104B3000B00BAA00D00CA500000EA000500F9B00E7
:104B4000C01096005012910000148C00C015870010
:104B5000B0178200B0197D00D01B7800001E7300D2
:104B600040206E0090226900F024640040275F001E
:104B700090295A00E02B5500102E500020304B0099
:104B800010324600E033410090353C0010373700CA
:104B900070383200A0392D00B03A2800A03B230025
:104BA000603C1E00103D1900903D1400103E0F00A7
:104BB000703E0A00C03E0500003F0000403FFBFF82
:104BC000803FF6FFC03FF1FF1000C90210012C0129
:104BD0004001220170011801B0010E01F001040131
:104BE0005002FA00B002F0003003E600D003DC000F
:104BF0009004D2007005C800A006BE000008B400F2
:104C0000B009AA00D00BA000600E960060118C00C5
:104C10000015820020197800C01D6E00A0226400DB
:104C2000B0275A00902C500000314600E0343C0080
:104C300010383200903A2800603C1E00A03D14005D
:104C4000803E0A00203F0000416363656C6572612D
:104C500074696F6E3A205000204D39322058002080
:104C6000204D61783A200020204D696E3A20005393
:104C70006F667420656E6473746F70733A20004DB4
:104C800032342053256C642054256C64004739323B
:104C90002E392045257300473120462564004739C9
:104CA000322E39205A2573004731205A302046329F
:104CB0003030004731205825732059257320463362
:104CC000303030004D34323020532569205A25735E
:104CD000004D3130362050256920532569004D3272
:104CE000303020442573004739322E392045305A60
:104CF000300A47315A320A47323852305859004D3B
:104D0000343230205330205A300020496E76616CA6
:104D10006964206578747275646572200044696600
:104D2000663A200046726F6D5374703A0053746592
:104D3000707065723A00556E4C6576656C3A004C41
:104D40006576656C65643A005261773A20202020D0
:104D5000000A4C6F676963616C3A00436F756E744B
:104D600020453A004361703A004D302053746F7013
:104D7000004D312053746F7000436C69636B207475
:104D80006F20526573756D652E2E2E0050726F6206
:104D900065204F6666736574205A0050726F6265B5
:104DA000204F66667365745A3A20003F5A206F752B
:104DB00074206F662072616E67652028003F59205D
:104DC0006F7574206F662072616E676520282D00F4
:104DD0003F58206F7574206F662072616E67652082
:104DE000282D0050726F6265204F666673657420CF
:104DF00058006F70656E206661696C65642C204692
:104E0000696C653A20003F454550524F4D20737400
:104E10006F72616765206E6F7420617661696C6185
:104E2000626C652E0A005374616E64617264204482
:104E30006576696174696F6E3A20004F46460A00D4
:104E4000466164652048656967687420004265644E
:104E5000204C6576656C696E6720004661696C65FB
:104E60006420746F20656E61626C65204265642009
:104E70004C6576656C696E670A00496E76616C698F
:104E800064206D6573682E0A0076616C69640A534C
:104E9000746F7261676520736C6F743A20004D65A2
:104EA000736820697320003F496E76616C696420E5
:104EB00073746F7261676520736C6F742E0A004D96
:104EC00034323120696E636F727265637420706171
:104ED00072616D657465722075736167650A00445F
:104EE0006576696174696F6E0025533A20257300F9
:104EF0002052616E67653A20004D65616E3A200070
:104F000046696E6973686564210A002072616E6784
:104F1000653A2000207369676D613A2000206D6555
:104F2000616E3A20003A207A3A2000206F66200015
:104F3000476F696E6720746F3A20580043570A0024
:104F4000206469723A0020616E676C653A005374A0
:104F5000617274207261646975733A004D3438204F
:104F6000506F696E740025533A2025642F25640024
:104F7000506F736974696F6E696E6720746865201D
:104F800070726F62652E2E2E0A003F4E756D62653F
:104F900072206F66206C65677320696E206D6F7676
:104FA000656D656E74206E6F7420706C61757369C9
:104FB000626C652028302D3135292E0A003F2028CB
:104FC000582C5929206F7574206F6620626F756E9A
:104FD00064732E0A003F53616D706C652073697AAB
:104FE00065206E6F7420706C61757369626C6520EA
:104FF00028342D3530292E0A004D3438205A2D50B2
:10500000726F6265205265706561746162696C6976
:10501000747920546573740A003F285629657262BA
:105020006F7365206C6576656C20696D706C617559
:105030007369626C652028302D34292E0A008F0197
:10504000750211241FBECFEFD1E2DEBFCDBF00E05D
:105050000CBF13E0A0E0B2E0ECEAFEE603E00BBF19
:1050600002C007900D92AC36B107D9F728E1ACE643
:10507000B3E001C01D92A139B207E1F718E2C0E226
:10508000D8E200E006C021970109802FFE010F94AD
:1050900054B2CF31D10780E00807A9F70F94779E6B
:1050A0000D9444B70C9400002F923F924F925F9260
:1050B0006F927F928F929F92AF92BF92CF92DF9228
:1050C000EF92FF920F931F93CF93DF93CDB7DEB78D
:1050D000E4970FB6F894DEBF0FBECDBF8BAB209127
:1050E000E60528AB11E01093E605809169128D3436
:1050F00009F488C3843511F40C945839873411F0BD
:105100000C945F3980916712909168128B319105F0
:1051100009F41AC1B4F48430910534F48230910555
:10512000DCF597FF2DC06AC38531910511F40C940D
:1051300061398A31910509F403C1049709F05EC30E
:10514000C0C08A32910509F4A7C254F48D3191058B
:1051500009F424C10CF412C14E9709F423C14EC3C3
:105160008B35910509F4E2C18C35910509F4E3C151
:105170008A35910509F042C310927B030C94613982
:1051800080916E02882311F40C9461390F946A782F
:105190000F94F83B0C94613920916E02222311F494
:1051A0000C94613911E0029709F010E00F946A78CD
:1051B00019821A821B821C821D821E821F821886FF
:1051C00082E50E946BB9882309F44BC00E94E9B8BC
:1051D0006B017C0120E030E0A9010F9459AB8823DA
:1051E00009F455C08091EE059091EF05A091F0056E
:1051F000B091F1058CA39DA3AEA3BFA38091F2054E
:105200009091F305A091F405B091F5058CA79DA7A9
:10521000AEA7BFA78090C4059090C505A090C60515
:10522000B090C7054090C8055090C9056090CA0568
:105230007090CB05A50194016CA17DA18EA19FA1C9
:105240000F9459AB81110C946A39A30192016CA59A
:105250007DA58EA59FA50F9459AB8823C1F00C9412
:105260006A3989E40E946BB9882331F00E94E9B859
:1052700069837A838B839C838AE40E946BB9882339
:1052800031F00E94E9B86D837E838F83988720E098
:1052900030E0A90169817A818B819C810F9459AB9F
:1052A00081110C941E3A20E030E0A9016D817E81CD
:1052B0008F8198850F9459AB81110C941E3A0C94F0
:1052C000313A80E50E946BB9882329F00F945A780F
:1052D0006B017C0103C0C12CD12C760183E50E94B7
:1052E0006BB9882361F00E94E9B820E030E04AE71A
:1052F00054E40F94BFAB0F94D0B36B017C010F94B7
:10530000F8608091440E811105C060E08EE098E065
:105310000F942D520F944A2CC60ED71EE81EF91E6C
:105320000F944A2CDC01CB018C199D09AE09BF09F1
:10533000B7FD02C00C94613980E00E94AF5CF0CFF1
:105340000E94726B0C9461390F94760281110C9457
:1053500061398CE0ECE8F2E0DE01119601900D92EB
:105360008A95E1F760E070E080E50F944876BE0131
:105370006F5F7F4F0F94F54E0C94613980918C11C3
:105380008770873011F00C94383A60E08FE40E9407
:10539000526781110C9461390C94383A0E9428505C
:1053A0000C9461392091390530913A0540913B05C3
:1053B00050913C056091EE057091EF058091F005EC
:1053C0009091F1050F945DB2AB01BC0188E50E949C
:1053D000677A69837A838B839C8320913D05309122
:1053E0003E0540913F05509140056091F205709156
:1053F000F3058091F4059091F5050F945DB2AB0132
:10540000BC0189E50E94677A6D837E838F839887CC
:10541000BE016B5F7F4FCE0101960E9412BA8823B6
:1054200011F40C94613980E00E9447BD0F947038EC
:1054300061E085E40E945267182F01E021E041E01D
:10544000682FCE0101960E94F1C16B017C019B0186
:10545000AC010F94AAB581115FC089809A80AB809E
:10546000BC8020E030E0A901C501B4010F9459AB24
:1054700087FF05C027E137EB41E558EB04C027E182
:1054800037EB41E558E3C501B4010F945DB2AB01C0
:10549000BC0181E698E00E94BCC18D809E80AF80F7
:1054A000B88420E030E0A901C501B4010F9459ABE4
:1054B00087FF05C027E137EB41E558EB04C027E142
:1054C00037EB41E558E3C501B4010F945DB2AB0180
:1054D000BC018CE598E00E94BCC120E030E0A9014D
:1054E000C701B6010F9459AB87FF05C027E137EB21
:1054F00041E558EB04C027E137EB41E558E3C7012C
:10550000B6010F945DB2AB01BC0187E598E00E9443
:10551000BCC18AE00E946C5B0F945738113011F4C3
:105520000F94495F0F947D3A0C9461398FE080931A
:105530007B030C94613980916612882349F189308C
:1055400009F0A6C03CEAA32E32E0B32E4EEEE42EC4
:1055500045E0F42ED12C00E010E0D5018D915D01E5
:105560000E946BB9882369F00E94E9B8F701608353
:10557000718382839383133011F401E002C0DD2430
:10558000D3941F5FF4E0EF0EF11C143031F775C0B7
:105590008CEA282E82E0382E90E8E92E91E1F92E4F
:1055A0002EEE35E03DA32CA324E7C22E21E1D22E1E
:1055B00000E010E0D1018D911D010E946BB988239C
:1055C00009F44BC00E94E9B82B013C01133049F0AB
:1055D000F60120813181428153810F945CB22B010D
:1055E0003C01ACA1BDA12D913D914D915C91C301B8
:1055F000B2010F945CB24B015C012DEB37E346E83E
:1056000055EB0F94BDB487FD0AC02DEB37E346E898
:1056100055E3C501B4010F9459AB1816F4F41330D7
:1056200051F44092FA055092FB056092FC0570928D
:10563000FD0501E012C0A5019401F70160817181AF
:10564000828193810F945DB2D7016D937D938D9389
:105650009C931397812F0F944A661F5FB4E0EB0E63
:10566000F11CECA1FDA13496FDA3ECA3F4E0CF0E58
:10567000D11C143009F09ECF05C0DD2019F00F9425
:105680007B3A06C0002321F08AEF95E00F94A264D4
:105690000F947D3A0C94613980916E02882311F445
:1056A0000C94613989E40E946BB9082F882321F09A
:1056B0000E94E5B8E82E01C0E12C8AE40E946BB993
:1056C000182F882321F00E94E5B8F82E01C0F12C94
:1056D000002319F025E02E1528F0112349F035E0BC
:1056E0003F1530F489E698E00E945ABF0C94613966
:1056F00080E1EEEEF5E0A4ECB5E001900D928A9524
:10570000E1F7002359F08E2D0E94F8BA6093C4058A
:105710007093C5058093C6059093C705112359F072
:105720008F2D0E94F8BA6093C8057093C9058093C5
:10573000CA059093CB0560E080E50E9452678823FC
:10574000C1F10023D1F02091390530913A05409103
:105750003B0550913C056091C4057091C505809151
:10576000C6059091C7050F945CB26093C405709311
:10577000C5058093C6059093C7051123D1F02091EC
:105780003D0530913E0540913F05509140056091A7
:10579000C8057091C9058091CA059091CB050F94F9
:1057A0005CB26093C8057093C9058093CA05909355
:1057B000CB0540E050E0BA0186E40E94677A6B01B5
:1057C0007C0120E030E0A9010F94BDB418164CF420
:1057D00020E030E040E752E4C701B6010F9457B330
:1057E00003C060E070E0CB0169837A838B839C8384
:1057F000CE0101960F94C7440C9461390F946E0149
:105800000C946139809167129091681289379105E3
:1058100009F4E5C70CF03CC18D34910509F443C48B
:105820000CF09CC08B31910509F41EC30CF056C0DE
:105830008531910509F477C2B4F58131910509F4F8
:105840005EC244F4029710F00C9455390F94738D96
:105850000C9461398231910509F456C6449711F0D0
:105860000C94553980EA98E00E945ABF85EE95E184
:105870000F9464078BE1E5EEF5E1DE0111960190EE
:105880000D928A95E1F760E070E0CE0101960F94E9
:10589000765CCE0101960E944D6881E998E00E94F5
:1058A0005ABF0C9461398831910509F45BC26CF4DC
:1058B0008631910509F43BC2479711F00C94553994
:1058C000E0910205F09103053FC28931910509F489
:1058D000B2C24A9709F4BAC20C9455398132910583
:1058E00009F46AC3ECF48E31910509F42CC37CF4FD
:1058F0008C31910509F41FC34D9711F00C94553963
:105900008091C8158E7F8093C8150C9461398F31B2
:10591000910509F463C3809709F425C30C945539A4
:105920008934910509F4A8C364F48A32910509F415
:1059300075C3C09711F00C9455390F947A980C9454
:1059400061398B34910509F4AAC38C34910511F0A7
:105950000C9455390F94EF4A0C9461398C369105AB
:1059600011F40C9461390CF053C08535910509F49C
:10597000CEC5ACF58235910509F4B8C534F58E3441
:10598000910509F494C38135910511F00C945539B2
:105990000F94446A0F94ED5F0F9409610E94E558DB
:1059A0001092ED051092EC051092EB0568EE73E095
:1059B00080E090E00E94B4BE0E94215960E082E73E
:1059C00099E00F942D520C9461398335910509F4B7
:1059D00094C58435910509F497C50C9455398936D9
:1059E000910509F472C454F48C35910509F4B2C5DB
:1059F0008836910509F4EEC30C9455398A36910521
:105A000009F477C48B36910509F496C40C94553982
:105A10008237910509F428C6D4F48F36910509F42C
:105A2000A9C454F48D36910509F4F9C38E36910555
:105A300009F48FC40C9455398037910511F40C94F6
:105A400061398137910509F4DAC40C9455398637E8
:105A5000910509F487C654F48337910509F407C604
:105A60008537910509F46CC60C9455398737910533
:105A700009F4B2C68837910511F00C94553981E0CC
:105A80008093BE0E8093BD0E0F94E93B0C94613958
:105A90008139A1E09A0711F40C94A4370CF08EC060
:105AA000833D910509F4B8C70CF040C0883C9105CE
:105AB00009F4F6C6CCF48139910509F497C654F47B
:105AC0008D37910509F40FC58C38910509F4B9C4D7
:105AD0000C9455398B39910509F4DFC48E3B91053F
