:100000000C94B11F0C94E21F0C94E21F0C94E21F9D
:100010000C94E21F0C94E21F0C94E21F0C94E21F5C
:100020000C94E21F0C94E21F0C94E21F0C94E21F4C
:100030000C94E21F0C94E21F0C94E21F0C94E21F3C
:100040000C94E21F0D948D200C94E21F0C94E21F7F
:100050000C94E21F0C94E21F0C94D9A50C94ADA94A
:100060000C94E21F0C94463E0C943C3E0C94E21F10
:100070000C94E21F0C94E21F0C94E21F0C94E21FFC
:100080000C94E21F0C94E21F0C94E21F0C94E21FEC
:100090000C94E21F0C94E21F0C94E21F0C94E21FDC
:1000A0000C94E21F0C94E21F0C94E21F0C94E21FCC
:1000B0000C94E21F0C94E21F0C94E21F0C94E21FBC
:1000C0000C94E21F0C94E21F0C94E21F0C94E21FAC
:1000D0000C94E21F0C94E21F0C94E21F0C94E21F9C
:1000E0000C94E21F7C3E823E943EA43EAC3EDC3E3D
:1000F000B03EDC3EB43EB83EDC3EBC3EC03EC43EFC
:10010000CD3EDC3ED83E74D557D55AD577D55DD592
:1001100060D563D56FD566D582D569D56CD5A50177
:100120006D01A3019301A301A301A301A301A301F5
:10013000A301A301A301A301A301A301A301A3019F
:10014000A301A301A301A301A301A301A301A3018F
:10015000A301A301A301A301A3010902A301A30118
:10016000A301A301A301A301A301A3012901A301E9
:10017000A301A301A301A301A301A301A301A3015F
:10018000A30173015B02BB020B02B7015D01D10148
:10019000AB028F018B01AD021302A5026702CD01F4
:1001A0002B01AB024B025502BF0179018D01870281
:1001B000D9010F0291014901C70231023301CB017C
:1001C0004F02670187019101B301D301D701084AAA
:1001D000D73B3BCE016E84BCBFFDC12F3D6C74315B
:1001E0009ABD56833DDA3D00C77F11BED9E4BB4CB2
:1001F0003E916BAAAABE000000803F05A84CCDB27C
:10020000D44EB93836A9020C50B9918688083CA65C
:10021000AAAA2ABE000000803F000C9442D60C948B
:100220008B3F0C9450C60D94741D0C94DAD30C942F
:1002300051BB0C947C760C94C7D30C94D7BC0C9413
:100240009D7A0C9454BE0D94FA0F0C94CCC70C9468
:100250001CB60D9416280D943E2A0C9455B60C9499
:10026000CE760C94DC3E0D944D2B0C94C1B80C94BE
:1002700043CF0C94DDB40C94C7B80C943D9D0D9401
:10028000EC1E0D9486110D94551D0C94AC3E0C94EF
:100290005D9D0D94332B0D949D150D94D71C0C94DE
:1002A000A5B50C947C3E0D94861D0D94CD1C0D942B
:1002B000051C0C9411690C9454B50D940D2A0C94E2
:1002C0007F760C94F6B40C9402C70D94E30F0D9452
:1002D000702B0C9491B80C9413C70D9476260C9443
:1002E000BBD30C94D5D50D945A280D94501D0C9465
:1002F000943E0D940B2B0C9453A90C94E0D30C94C6
:10030000AEC60C94A3B80D948C1D0D94E8110D94F9
:100310007A2B0C94107A0D94222A0D94102B0D94A4
:100320001E2A0D94A22B0D9443280C9424D00C94D7
:100330006E8B0D94A7110C945AD50C94F1760D94F4
:1003400099150C94AFB80D94AF260D9407280C9412
:10035000C4B50D949B150D945A1D0C94B03E0D948C
:10036000D80F0C94DDD30D94842B0D941D110D9496
:10037000092A0C9410CE0C948BB80C9441B50D94B2
:100380004C2A0C9444D60C940FB50C948A3F0D94CF
:1003900003260C9409BB0D94572B0D943A2A0C9408
:1003A000C3D30D94132A0D948E2B0C94CFD30D949C
:1003B000982B0D941F2B0C9460D50D94A9120C94BE
:1003C000E2760C941AD60C945DD50C9465D80C94F6
:1003D000B5CE0C94823E0D9414100C9482D50C94DE
:1003E0006CD50C94C2B40C9481B40C941B640D9421
:1003F000C81C0D94E0110C9467B70C94F5910C9403
:10040000BBB80C9479760C948FD10C9466DA0C946A
:10041000E6B80D943D280D941A2A0C94D7D30D9468
:10042000292B0C94CCBA0D942C2A0C9430D60C9415
:1004300076C90C9466D50C9492B50C941BC70C9499
:1004400059B60C941F640C9430780C9404B60C9438
:1004500080B50D94EF1F0D94421B0C947DBE0C943F
:100460007BBA0D94432B0C946FD50C948E3F0C9457
:100470008FC60C94BC3E0C9498B40C94E3650C9419
:1004800017640D9407120C94249E0C94B83E0C949F
:1004900063D50C94C0B40D94442A0C94B43E0D94CE
:1004A000612B0C94B7D30C94B3D30D94482A0D94BC
:1004B0007A1D0C94BDBA0D94AC260D94CE3E0D94CD
:1004C00000260C9497B80D945C100D94801D0D942B
:1004D000362A0C9477D50C94D83E0D94D21C0D94EA
:1004E000B03E0C944E690C94B5B80C94F7D50C94AE
:1004F000C03E0C941D640D9497150C9467B50C9434
:10050000A7B90C947DA90C94CBD30C9428B50D9469
:10051000152B0D9406260C9410B60C94BFD30C9496
:1005200074D50D94C1110C94ED760C940BC70C94FA
:10053000C3760C943ED70C9457D50C94A9B80C9460
:1005400069D50C94CD3E0C9419640D94302A0D9409
:1005500088150C94D3D30D94512A0D94282A0D9408
:10056000BF130C94D6CB0C94C43E0C9440D60C9480
:100570009DB80D94DC1C0D94172A0C94AFB40D9407
:1005800026120C94A43E0C94AFD30C9425D60D9453
:100590003B2B4E414E494E495459494E46CDCCCC49
:1005A0003D0AD7233C17B7D13877CC2B329595E647
:1005B000241FB14F0A000020410000C84200401C27
:1005C0004620BCBE4CCA1B0E5AAEC59D7400407A74
:1005D00010F35A00A0724E18090010A5D4E80000CC
:1005E000E87648170000E40B54020000CA9A3B006A
:1005F0000000E1F505000080969800000040420FE1
:10060000000000A08601000000102700000000E8A4
:1006100003000000006400000000000A0000000069
:10062000000100000000002C76D888DC674F08230A
:10063000DFC1DFAE59E1B1B796E5E3E453C63AE670
:1006400051997696E8E6C28426EB898C9B62ED4050
:100650007C6FFCEFBC9C9F40F2BAA56FA5F490059F
:100660005A2AF75C936B6CF9676DC11BFCE0E40DD3
:1006700047FEF520E6B500D0ED902E0300943577C7
:10068000050080841E080000204E0A000000C80CEF
:10069000333333330F986E12831141EF8D21148958
:1006A0003BE65516CFFEE6DB18D1844B381BF77CB2
:1006B0001D901DA4BBE424203284725E228100C9F7
:1006C000F124ECA1E53D27434F4D4D554E494341A3
:1006D00054494F4E0044525952554E004552524FC4
:1006E0005253004543484F0047322F473320626141
:1006F0006420706172616D65746572730A00536C79
:100700006565702E2E2E00206F6620004D424C2015
:1007100047323920706F696E7420004A206F7574FB
:10072000206F662072616E67652028302D00492099
:100730006F7574206F662072616E67652028302D9A
:10074000004D6573682070726F62696E6720646F18
:100750006E652E0A005374617274206D6573682093
:1007600070726F62696E6720776974682022473201
:1007700039205331222066697273742E0A00473281
:10078000380A47323920533200686173206E6F2077
:10079000646174612E0A004D6573682042656420AF
:1007A0004C6576656C696E67200053206F75742008
:1007B0006F662072616E67652028302D35292E0AFC
:1007C000004D65736820706F696E742063616E6E92
:1007D0006F74206265207265736F6C7665640A00C1
:1007E0004E6F204D6F76652E00456E642066696CF5
:1007F00065206C6973740A00426567696E206669DA
:100800006C65206C6973740A00526573756D696E4E
:100810006720534400286E6F2066696C6529004389
:10082000757272656E742066696C653A200050724C
:10083000696E742074696D653A20000A537461749E
:10084000733A2046696C616D656E742075736564DA
:100850003A20002C204C6F6E67657374206A6F62BB
:100860003A2000546F74616C2074696D653A200001
:100870002C204661696C65643A20002C2046696E24
:1008800069736865643A20005072696E74733A2027
:100890000053746174733A20004520255300444589
:1008A0004255473A004D31313320530042656420B0
:1008B000436F6F6C696E672E2E2E00426564204870
:1008C000656174696E672E2E2E00544D33442043AB
:1008D0005231305632204F46462E004348414D4259
:1008E00045525F54454D5045524154555245004D77
:1008F0004F54494F4E5F4D4F444553005448455265
:100900004D414C5F50524F54454354494F4E004166
:1009100055544F5245504F52545F53445F535441C6
:100920005455530050524F4D50545F535550504FF3
:10093000525400454D455247454E43595F50415230
:1009400053455200434153455F4C494748545F4229
:1009500052494748544E45535300544F47474C451E
:100960005F4C494748545300534F465457415245F2
:100970005F504F574552004255494C445F504552D5
:1009800043454E54004C4556454C494E475F444103
:100990005441005A5F50524F4245004155544F4C0C
:1009A0004556454C005052494E545F4A4F42005004
:1009B000524F4752455353004155544F5245504FA3
:1009C00052545F54454D5000564F4C554D4554526E
:1009D00049430042494E4152595F46494C455F5494
:1009E00052414E534645520053455249414C5F587F
:1009F0004F4E5F584F4646004649524D574152456B
:100A00005F4E414D453A4D61726C696E20322E3019
:100A10002E345F44573620544D33442053534D44B5
:100A20004E4E20534F555243455F434F44455F550B
:100A3000524C3A68747470733A2F2F6769746875F2
:100A4000622E636F6D2F496E73616E6974794175A3
:100A5000746F6D6174696F6E2F4D61726C696E2F6A
:100A6000747265652F437265616C69747944776946
:100A70006E5F322E302050524F544F434F4C5F56D2
:100A8000455253494F4E3A312E30204D414348494B
:100A90004E455F545950453A544D334420435231EA
:100AA0003056322045585452554445525F434F55B5
:100AB0004E543A3120555549443A63656465326174
:100AC00032662D343161322D343734382D3962316C
:100AD000322D6335356336326633363766660A0043
:100AE0002F2F20004D31343520533C696E646578DA
:100AF0003E206F7574206F662072616E67652028D6
:100B0000302D31290A003F4A206F7574206F66200E
:100B100072616E67652028302E303120746F20306E
:100B20002E33290A0020466C6F773A200050726FEE
:100B30007465637465642050696E0A004D424C20F0
:100B400041646A757374205A0020643A0020693A3F
:100B50000020703A006469730043290A0061626CE6
:100B6000656420286D696E2074656D702000436F88
:100B70006C64206578747275646573206172652099
:100B80000046696C616D656E742072756E6F757468
:100B90002064697374616E636520286D6D293A2045
:100BA0000046696C616D656E742072756E6F757448
:100BB00020004F666673657473204170706C6965C0
:100BC00064004572723A20546F6F20666172210092
:100BD000546F6F206661722066726F6D2072656659
:100BE0006572656E636520706F696E740A004545B5
:100BF00050524F4D204F4B0A00506F7765722D6C4D
:100C00006F7373207265636F766572792000E306F7
:100C10002C0CDC06D506C706554E4B4E4F574E20C2
:100C200053544154450047434F44455F494E464F56
:100C3000004C43445F50415553455F524553554D19
:100C4000450046494C414D454E545F52554E4F5517
:100C5000545F434F4E54494E55450046494C414D13
:100C6000454E545F52554E4F5554004D383736203F
:100C7000526573706F6E64696E672050524F4D50AD
:100C8000545F004572726F722077726974696E6783
:100C900020746F20454550524F4D210A00627573F4
:100CA000793A2070617573656420666F7220696E91
:100CB0007075740A00627573793A20706175736596
:100CC0006420666F7220757365720A0062757379AD
:100CD0003A2070726F63657373696E670A007061A2
:100CE000757365004D363030002066696C616D6546
:100CF0006E745F72756E6F7574200066696C616DDD
:100D0000656E745F72756E6F757420540046696C01
:100D1000616D656E7452756E6F7574205400535416
:100D20004F505045442E20005072696E74657220F9
:100D300073746F707065642064756520746F2065CE
:100D400072726F72732E2046697820746865206510
:100D500072726F7220616E6420757365204D39392F
:100D60003920746F20726573746172742E20285458
:100D7000656D706572617475726520697320726546
:100D80007365742E205365742069742061667465E0
:100D9000722072657374617274696E67290A004EFD
:100DA0006F20436865636B73756D20776974682085
:100DB0006C696E65206E756D6265722C204C617376
:100DC00074204C696E653A2000636865636B7375C7
:100DD0006D206D69736D617463682C204C61737450
:100DE000204C696E653A20004C696E65204E756D29
:100DF000626572206973206E6F74204C6173742079
:100E00004C696E65204E756D6265722B312C204CDD
:100E1000617374204C696E653A20004D31313000A9
:100E2000776169740A0053442072656164206572B9
:100E3000726F720A002121204B494C4C206361756E
:100E4000736564206279204B494C4C206275747440
:100E50006F6E2F70696E0A002121204B494C4C2087
:100E600063617573656420627920746F6F206D759E
:100E7000636820696E6163746976652074696D6565
:100E8000202D2063757272656E7420636F6D6D61C5
:100E90006E643A2000506C6561736520526573651D
:100EA00074005052494E5445522048414C544544D8
:100EB0000025533A20255300706F7765726F666680
:100EC000004B494C4C45442E20005072696E7465AD
:100ED000722068616C7465642E206B696C6C2829C3
:100EE0002063616C6C6564210A00363726033C3D43
:100EF000380E2E303E121A1C1808440AFF43080907
:100F00000700012569792025696420256968202565
:100F1000696D202569730023646566696E652044E8
:100F2000454641554C545F004B6420004B692000FE
:100F30004B702000504944204175746F74756E6584
:100F40002066696E69736865642120507574207429
:100F50006865206C617374204B702C204B69206194
:100F60006E64204B6420636F6E7374616E747320C3
:100F700066726F6D2062656C6F7720696E746F208A
:100F8000436F6E66696775726174696F6E2E680A69
:100F900000504944204175746F74756E6520666118
:100FA000696C6564212074696D656F75740A000A47
:100FB00020436C617373696320504944200A002008
:100FC0004B643A2000204B693A2000204B703A20B5
:100FD000000A204E6F206F76657273686F6F740A17
:100FE000002054753A2000204B753A2000206D6196
:100FF000783A2000206D696E3A200020643A200083
:1010000020626961733A2000504944204175746F31
:1010100074756E652073746172740A0050494420BF
:101020004175746F74756E65206661696C656421C5
:101030002054656D706572617475726520746F6F90
:1010400020686967680A00504944204175746F74CC
:10105000756E65206661696C65642120426164205B
:101060006578747275646572206E756D6265720A5A
:10107000004572723A207574663820666F6E74206F
:101080006E6F7420696E697469616C697A65642E2B
:1010900000000C0D00FE07022603BC017FFE08FEC7
:1010A00008FE05080806000040F0C88888987810F7
:1010B000050808060000C0F88888888888F80505B3
:1010C000050600012030F830200508080600002041
:1010D00070F820202020E00509090600FF2070A8F4
:1010E000A8B888887020050606060001E08CEA8C06
:1010F0008A0A0509090600FFF8A88888888888A850
:10110000F8050A0A0600FE205050505088A8A8880A
:101110007003030306000340A040FFFFFFFFFFFF33
:10112000FFFFFFFFFFFFFFFFFFFFFFFFFFFFFFFFCF
:101130000000000605FF010707060200808080808E
:10114000800080030303060105A0A0A00506060693
:10115000000050F85050F8500509090600FF2070B3
:10116000A8A07028A87020050707060000C8C810AE
:101170002040989805070706000040A0A040A890CE
:10118000680103030602058080800309090601FF48
:101190002040408080804040200309090601FF80F4
:1011A000404020202040408005070706000020A87E
:1011B000702070A8200505050600012020F82020D9
:1011C0000203030601FFC04080050101060003F889
:1011D000020202060100C0C0050707060000081051
:1011E0001020404080050707060000708898A8C8B6
:1011F000887003070706010040C040404040E005FA
:101200000707060000708808102040F80507070649
:101210000000F80810300888700507070600001065
:10122000305090F81010050707060000F880F0080D
:10123000088870050707060000304080F088887035
:10124000050707060000F8081010202020050707F2
:1012500006000070888870888870050707060000FF
:1012600070888878081060020505060100C0C0007B
:10127000C0C00206060601FFC0C000C040800305D2
:10128000050601012040804020050303060002F806
:1012900000F803050506010180402040800507078E
:1012A00006000070881020200020050707060000B7
:1012B0007088B8A8B8807005070706000070888895
:1012C000F8888888050707060000F04848704848F5
:1012D000F005070706000070888080808870050789
:1012E00007060000F04848484848F0050707060090
:1012F00000F88080F08080F8050707060000F8807D
:1013000080F0808080050707060000708880809844
:101310008870050707060000888888F88888880391
:101320000707060100E04040404040E0050707068F
:1013300000003810101010906005070706000088A4
:1013400090A0C0A0908805070706000080808080DC
:101350008080F805070706000088D8A88888888854
:101360000507070600008888C8A898888805070729
:1013700006000070888888888870050707060000C6
:10138000F08888F080808005070706000070888854
:1013900088A89068050707060000F08888F0A090EC
:1013A00088050707060000708880700888700507A8
:1013B00007060000F820202020202005070706004F
:1013C0000088888888888870050707060000888854
:1013D000888850502005070706000088888888A85C
:1013E000A850050707060000888850205088880507
:1013F00007070600008888502020202005070706E0
:101400000000F80810204080F80309090601FFE0F9
:1014100080808080808080E0050707060000804093
:1014200040201010080309090601FFE020202020B9
:10143000202020E005030306000520508805010157
:101440000600FEF80303030601058040200505059C
:10145000060000700878887805070706000080807D
:10146000F0888888F0050505060000708080887087
:1014700005070706000008087888888878050505AC
:101480000600007088F080700507070600003048ED
:1014900040E04040400507070600FE7088888878D5
:1014A00008700507070600008080F0888888880398
:1014B00007070601004000C0404040E0040909065B
:1014C00001FE100030101010109060050707060094
:1014D0000080808890E09088030707060100C040E4
:1014E00040404040E0050505060000D0A8A8A8A897
:1014F000050505060000B0C88888880505050600B2
:101500000070888888700507070600FEF0888888C4
:10151000F080800507070600FE788888887808082C
:10152000050505060000B0C8808080050505060099
:101530000078807008F00507070600002020F820DA
:10154000202018050505060000888888986805058C
:1015500005060000888888502005050506000088DB
:1015600088A8A85005050506000088502050880569
:1015700007070600FE88888850204080050505067C
:101580000000F8102040F80309090601FF20404040
:101590004080404040200109090602FF8080808091
:1015A00080808080800309090601FF804040402040
:1015B0004040408005030306000248A890FF4732E0
:1015C000362048656174696E67204E6F7A7A6C6563
:1015D000004732362048656174696E672042656451
:1015E0000057616974696E6720666F722068656173
:1015F0007475702E0A004669786564204C656E67C4
:101600007468205072696D6500446F6E6520507279
:10161000696D696E67004D616E75616C20707269ED
:101620006D696E672E2E2E004732362043616E6341
:10163000656C6564004C656176696E67204732367B
:10164000003F53706563696669656420582C5920B2
:10165000636F6F7264696E617465206F7574206F5B
:101660006620626F756E64732E0A003F28522965EA
:10167000706561742076616C7565206E6F74207082
:101680006C61757369626C653B206D757374206263
:1016900065206174206C6561737420312E0A003FEF
:1016A000537065636966696564206E6F7A7A6C65EC
:1016B0002074656D7065726174757265206E6F74EB
:1016C00020706C61757369626C652E0A003F5370FF
:1016D000656369666965642066696C616D656E74D1
:1016E0002073697A65206E6F7420706C6175736900
:1016F000626C652E0A003F537065636966696564B4
:10170000207072696D65206C656E677468206E6FFD
:101710007420706C61757369626C652E0A003F53AA
:101720007065636966696564206E6F7A7A6C65209E
:1017300073697A65206E6F7420706C61757369626D
:101740006C652E0A003F52657472616374696F6E36
:10175000204D756C7469706C696572206D75737459
:10176000206265207370656369666965642E0A008E
:101770003F53706563696669656420526574726180
:101780006374696F6E204D756C7469706C696572F5
:10179000206E6F7420706C61757369626C652E0ABF
:1017A000003F537065636966696564206C617965A3
:1017B0007220686569676874206E6F7420706C6150
:1017C000757369626C652E0A0043292E0A003F5327
:1017D0007065636966696564206265642074656D1F
:1017E0007065726174757265206E6F7420706C61C3
:1017F000757369626C65202834302D0047323620BD
:101800007374617274696E672E2E2E0A0024F4D4EC
:101810003050C38E20C2A24017828B7011127A9171
:101820000D816CD90AA861E108C758660761514368
:10183000061E4B5D05C145A7041A411104093D98D8
:1018400003713931034036DB0265339102D43054E1
:1018500002802E1D02632CEE01752AC501B028A05E
:1018600001102781018F2564012B244B01E02234D4
:1018700001AC211F018D200D01801FFC00841EED95
:1018800000971DDF00B81CD200E61BC600201BBC61
:1018900000641AB200B219A8000A19A0006A1899C7
:1018A00000D117910040178B00B516840031167EC9
:1018B00000B31579003A157300C7146F0058146A05
:1018C00000EE1366008813630025135E00C7125BE9
:1018D000006C12570015125400C111510070114FC5
:1018E0000021114B00D61049008D104700461044CE
:1018F0000002104200C00F4000800F3E00420F3C2B
:1019000000060F3B00CB0E3800930E37005C0E35FF
:1019100000270E3400F30D3200C10D3100900D3060
:1019200000600D2E00320D2D00050D2C00D90C2B62
:1019300000AE0C2900850C29005C0C2700350C2713
:10194000000E0C2600E80B2400C40B2400A00B237F
:10195000007D0B23005A0B2100390B2100180B20AE
:1019600000F80A1F00D90A1E00BB0A1E009D0A1DAE
:1019700000800A1D00630A1C00470A1B002C0A1B7A
:1019800000110A1A00F7091A00DD091900C4091923
:1019900000AB091900920917007B091800630917A9
:1019A000004C09160036091600200916000A091510
:1019B00000F5081500E0081400CC081400B808145D
:1019C00000A4081400900813007D0812006B08138F
:1019D00000580812004608120034081100230811AC
:1019E000001208110001081100F0071000E00710B4
:1019F00000D0071000C0071000B0070F00A10710AB
:101A00000091070E0083070F0074070F0065070E93
:101A10000057070E0049070E003B070D002E070E6A
:101A20000020070D0013070D0006070D00F9060C36
:101A300000ED060D00E0060C00D4060C00C8060CF4
:101A400000BC060C00B0060C00A4060B0099060CA6
:101A5000008D060B0082060B0077060B006C060B50
:101A60000061060A0057060B004C060A0042060AEF
:101A70000038060A002E060A0024060A001A060A82
:101A8000001006090007060A00FD050900F4050913
:101A900000EB050900E2050900D9050900D0050998
:101AA00000C7050900BE050900B5050800AD050819
:101AB00000A50509009C050800940508008C050890
:101AC00000840508007C050800740508006C050703
:101AD00000650508005D050700560508004E05076E
:101AE00000470507004005080038050700310507D5
:101AF000002A050700230507001C05060016050738
:101B0000000F0507000805060002050700FB040694
:101B100000F5040700EE040600E8040600E20407EE
:101B200000DB040600D5040600CF040600C9040645
:101B300000C3040600BD040600B7040600B1040596
:101B400000AC040600A6040600A00405009B0406E1
:101B50000095040500900406008A0405008504052C
:101B600000800406007A0405007504050070040571
:101B7000006B04050066040500610405005C0405B3
:101B80000057040500520405004D040500480405F3
:101B900000430405003E0404003A04050035040532
:101BA00000300404002C040500270404002304056D
:101BB000001E0404001A04040016040500110404A5
:101BC000000D0404000904050004040400000404DA
:101BD00000FC030400F8030400F4030400F0030411
:101BE00000EC030400E8030400E4030400E0030441
:101BF00000DC030400D8030400D4030400D0030471
:101C000000CC030400C8030300C503030024F4044C
:101C1000D9201BC40C5C0E9804C4095F02650771CF
:101C200001F405F900FB04B30048048700C103690F
:101C3000005803550003034500BE023A00840231F8
:101C40000053022A002902250004022000E4011C9E
:101C500000C8011900AF0117009801140084011396
:101C600000710110006101100051010E0043010DCF
:101C70000036010B002B010B0020010B00150109A0
:101C8000000C01090003010800FB000800F3000834
:101C900000EB000700E4000600DE000600D80006A6
:101CA00000D2000600CC000500C7000500C20005F8
:101CB00000BD000400B9000400B5000400B1000438
:101CC00000AD000400A9000400A5000300A2000369
:101CD000009F0004009B0003009800030095000291
:101CE0000093000300900003008D0002008B0003AE
:101CF00000880002008600020084000300810002C8
:101D0000007F0002007D0002007B000200790002DB
:101D100000770001007600020074000200720001EA
:101D200000710002006F0002006D0001006C0002F3
:101D3000006A0001006900020067000100660001FE
:101D40000065000100640002006200010061000102
:101D500000600001005F0002005D0001005C000106
:101D6000005B0001005A0001005900010058000109
:101D70000057000100560001005500010054000109
:101D80000053000000530001005200010051000107
:101D900000500001004F0001004E0000004E000105
:101DA000004D0001004C0001004B0000004B000101
:101DB000004A0001004900010048000000480001FD
:101DC00000470001004600000046000100450000F9
:101DD00000450001004400010043000000430001F1
:101DE00000420000004200010041000000410001EB
:101DF00000400001003F0000003F0001003E0000E5
:101E0000003E0001003D0000003D0001003C0000DC
:101E1000003C0000003C0001003B0000003B0001D2
:101E2000003A0000003A00010039000000390001CA
:101E300000380000003800000038000100370000C2
:101E400000370001003600000036000000360001B7
:101E500000350000003500000035000100340000AE
:101E600000340000003400010033000000330000A3
:101E70000033000100320000003200000032000197
:101E8000003100000031000000310001003000008E
:101E90000030000000300001002F0000002F000083
:101EA000002F0000002F0001002E0000002E000077
:101EB000002E0001002D0000002D0000002D00006C
:101EC000002D0001002C0000002C0000002C000060
:101ED000002C0001002B0000002B0000002B000054
:101EE000002B0001002A0000002A0000002A000048
:101EF000002A00010029000000290000002900003C
:101F0000002900000029000100280000002800002E
:101F10000028000000280000002800010027000021
:101F20000027000000270000002700000027000114
:101F30000026000000260000002600000026000009
:101F400000260001002500000025000000250000FB
:101F500000250000002500000025000100240000ED
:101F600000240000002400000024000000240001E0
:101F700000230000002300000023000000230000D5
:101F800000230000002300000023000100220000C5
:101F900000220000002200000022000000220000B9
:101FA00000220001002100000021000000210000AB
:101FB000002100000021000000210000002100019C
:101FC0000020000000200000002000000020000091
:101FD0000020000000200000002000000020000180
:101FE000001F0000001F0000001F0000001F000075
:101FF000001F0000001F0000001F0001001E000065
:10200000001E0000001E0000001E0000003930000D
:10201000003325000087190000B00F0000DB080026
:1020200000BD040000740200003F0100004D333089
:1020300033205531204525692053256900504944F6
:10204000204175746F74756E65202A005049442DC7
:1020500044202A005049442D49202A005049442D4B
:1020600050202A0020082046616374002008204D7B
:102070006178002008204D696E004175746F7465A9
:102080006D70005654726176204D696E00566D6910
:102090006E00566D6178204500566D6178205A00BB
:1020A000566D6178205900566D6178205800416D59
:1020B0006178204500416D6178205A00416D61785A
:1020C000205900416D6178205800412D547261768D
:1020D000656C00412D5265747261637400416363E5
:1020E000656C006563686F3A004572726F723A0002
:1020F0000A4D6561737572656420706F696E7473E3
:102100003A0A00357835206D6573682E205A206FA5
:1021100066667365743A20005072696E74696E6702
:10212000204F626A656374002553202569002F2FB4
:10213000616374696F6E3A00626567696E00736807
:102140006F770044697361626C6552756E6F757468
:102150000050757267654D6F726500486F74656EEB
:102160006420746F6F20636F6C640A0053656E6443
:10217000204D31303820746F20726573756D650A9B
:102180000052656865617420446F6E650052656831
:10219000656174696E6700526568656174004865C1
:1021A0006174657254696D656F75740053656E6412
:1021B000204D31303820746F2068656174206E6F57
:1021C0007A7A6C650A004E6F7A7A6C65205061727B
:1021D0006B656400706175736564004D3630303A2C
:1021E00020546F6F20436F6C6400726573756D656A
:1021F0006400526573756D696E670043616E636557
:102200006C204F626A65637400416476616E636539
:10221000642053657474696E6773005A2056616C4C
:10222000756500496E646578205900496E6465786B
:1022300020580053746F72652053657474696E671B
:1022400073004C6F61642053657474696E6773002A
:102250004C6576656C20436F726E657273004661E3
:102260006465204865696768740045646974204D39
:10227000657368004C6576656C20426564004E4F5E
:10228000005945530043616E63656C204F626A6577
:102290006374203D0046616E205370656564005292
:1022A0006573746F72652044656661756C74730044
:1022B000507265686561742041425320436F6E66B9
:1022C000005072656865617420504C4120436F6E08
:1022D00066006F70656E0054524947474552454449
:1022E0000066696C616D656E74007A5F6D696E0081
:1022F000795F6D696E00785F6D696E005265706F11
:102300007274696E6720656E6473746F7020737485
:10231000617475730A0020436F756E7420583A001B
:102320005761726E696E673A20486F6D696E6720FB
:1023300042756D702044697669736F72203C20315C
:102340000A00000000000000000000000000008003
:102350009D4300009B430000C8430000484200002A
:102360004842000080400202040000A0400000A09B
:102370004000000040FFFFFF0000000100000001DE
:1023800000008000555555000000400033333300F5
:10239000AAAA2A004992240000002000C7711C004C
:1023A00099991900D1451700555515003BB11300F7
:1023B0002449120011111100000010000F0F0F002E
:1023C000E3380E0043790D00CCCC0C00C3300C0078
:1023D000E8A20B0064210B00AAAA0A00703D0A00C3
:1023E0009DD80900427B090092240900DCD3080033
:1023F000888808001042080000000800F0C10700AB
:102400008787070075500700711C07003EEB060028
:10241000A1BC06006990060066660600703E0600D4
:102420006118060017F4050074D105005BB00500C3
:10243000B290050062720500555505007839050017
:10244000B81E0500050505004EEC040087D4040005
:10245000A1BD040090A7040049920400C17D0400BE
:10246000EE690400C7560400444404005C320400D2
:102470000821040041100400000004003FF00300A4
:10248000F8E0030026D20300C3C30300CCB5030069
:102490003AA803000A9B0300388E0300C0810300A2
:1024A0009F750300D0690300505E03001D530300B5
:1024B00034480300913D0300333303001629030021
:1024C000381F030097150300300C030003030300BB
:1024D0000BFA020049F10200BAE802005CE00200D7
:1024E0002DD802002DD0020059C80200B0C0020051
:1024F00031B90200DAB10200AAAA0200A0A30200C8
:10250000BC9C0200FA9502005C8F0200DF8802008A
:1025100082820200457C02002776020027700200BA
:10252000436A02007C640200D05E02003F59020050
:10253000C85302002568753A253032687500256851
:1025400075642025303268753A2530326875002070
:10255000202020202020004D656469612052656D97
:102560006F766564004D6564696120496E736572BC
:10257000746564001FE0201020102010102010202F
:102580002010201030300840048003001FE03FF08E
:102590003FF03FF01FE01FE03FF03FF03FF00FC083
:1025A000078003003FFFF038007030FC3020FC1043
:1025B0002078102030102C00D02E31D02F7BD02F3F
:1025C0007BD02E31D02C00D020301020781020FC71
:1025D0001030FC303800703FFFF03FFFF0380070E3
:1025E0003186302387102787902F87D02F03D02064
:1025F00030102078102078102030102F03D02F8733
:10260000D02787902387103186303800703FFFF045
:102610001FFFF81FFFF804104002082002082004E2
:102620001040082080104100104100082080041054
:10263000400000001FFFF81FFFF8FFFFFF800001B0
:102640008E00E19F01F19381399F81F99F81F99F6C
:10265000B9F98F28F18038018000019FFFF991744A
:10266000999B06A99B54A99B56A99B54999FFFF936
:10267000FFFFFF5061757365205072696E74006EC4
:102680006F74696669636174696F6E200063616E5F
:1026900063656C005072696E742041626F7274657C
:1026A00064004469736D6973730055492041626F1A
:1026B00072746564004D323520500A4D3234005238
:1026C0006573756D650055492050617573650072BD
:1026D0006573756D650053657474696E6773205317
:1026E000746F72656420280070012C01900127012D
:1026F000B0012201C0011D01F001180110021301F7
:1027000030020E016002090190020401C002FF00C4
:102710000003FA004003F5008003F000D003EB0053
:102720002004E6007004E100E004DC004005D7006E
:10273000C005D2004006CD00D006C8008007C30007
:102740003008BE00F008B900C009B400B00AAF00FC
:10275000B00BAA00D00CA500000EA000500F9B00EB
:10276000C01096005012910000148C00C015870014
:10277000B0178200B0197D00D01B7800001E7300D6
:1027800040206E0090226900F024640040275F0022
:1027900090295A00E02B5500102E500020304B009D
:1027A00010324600E033410090353C0010373700CE
:1027B00070383200A0392D00B03A2800A03B230029
:1027C000603C1E00103D1900903D1400103E0F00AB
:1027D000703E0A00C03E0500003F0000403FFBFF86
:1027E000803FF6FFC03FF1FF1000C90210012C012D
:1027F0004001220170011801B0010E01F001040135
:102800005002FA00B002F0003003E600D003DC0012
:102810009004D2007005C800A006BE000008B400F5
:10282000B009AA00D00BA000600E960060118C00C9
:102830000015820020197800C01D6E00A0226400DF
:10284000B0275A00902C500000314600E0343C0084
:1028500010383200903A2800603C1E00A03D140061
:10286000803E0A00203F0000496E76616C6964205A
:1028700065787472756465720A00202D20496E7641
:10288000616C6964206578747275646572206E7518
:102890006D62657220210A00544845524D414C201A
:1028A00052554E4157415900546865726D616C2014
:1028B00052756E61776179004572723A204D4158C8
:1028C00054454D50004D415854454D502074726947
:1028D000676765726564004572723A204D494E54CF
:1028E000454D50004D494E54454D50207472696716
:1028F0006765726564004D383420582059205A208D
:102900004500202F002042403A0020403A00205746
:102910003A00FD55555555555FFFFFFFFFFFFFFF7F
:10292000FFFFFE00000000003FFFFFFFFFFFFFFF73
:10293000FFFFFD000007FFFFFFFFFFFFFFFFFFFF9F
:10294000FFFFFE07C00555555555555FFFFFFFFFBB
:10295000FFFFFC0A200600000000003FFFFFFFFF12
:10296000FFFFFE141005000007FFFFFFFFFFFFFF42
:10297000FFFFFC28080607C00555555555555FFF54
:10298000FFFFFE5404040A200600000000003FFF81
:10299000FFFFFC600406141005000007FFFFFFFFA7
:1029A000FFFFFE50040428080607C005555555557D
:1029B000555FFC6004065404040A20060000000071
:1029C000003FFE54041C60040614100500000000C3
:1029D000001FFC28082E50040428080607C0000128
:1029E000F03FFE1410546004065404040A20000250
:1029F000081FFC0A206654041C600406141000051D
:102A0000043FFE07C05428082E5004042808000A7A
:102A1000021FFC00002E141054600406540400151C
:102A2000013FFE00001C0A206654041C60040018CC
:102A3000011FFC00000607C05428082E5004001493
:102A4000013FFE00000400002E1410546004001822
:102A5000011FFCFFFFFE00001C0A206654041C1529
:102A6000013FFED5555400000607C05428082A0A25
:102A7000021FFC84104600000400002E14105105B3
:102A8000043FFEC41044FFFFFE00001C0A20610248
:102A9000881FFC841046D5555400000607C051011C
:102AA000F03FFE84104484104600000400002A0019
:102AB000001FFCC41046C41044FFFFFE00001C00B1
:102AC000003FFE841044841046D555540000000099
:102AD000001FFCD5555684104484104600000000A9
:102AE000003FFCFFFFFCC41046C41044FFFFFFFF83
:102AF000FF9FFE000006841044841046D5555555AE
:102B000055BFFD555554D555568410448410410485
:102B1000109FFFFFFFFCFFFFFCC41046C4104104E0
:102B200011BFFFFFFFFE0000068410448410410423
:102B3000109FFFFFFFFD555554D555568410410495
:102B4000109FFFFFFFFFFFFFFCFFFFFCC4104104CD
:102B500011BFFFFFFFFFFFFFFE00000684104104CE
:102B6000109FFFFFFFFFFFFFFD555554D5555555ED
:102B700055BFFFFFFFFFFFFFFFFFFFFCFFFFFFFF52
:102B8000FF9FFFFFFFFFFFFFFFFFFFFE00000000B2
:102B9000003FFFFFFFFFFFFFFFFFFFFD55555555AE
:102BA000555FFFFFFFFFFFFFFFFFFFFFFFFFFFFF7F
:102BB000FFFFFFFFFFFFFFFFFFFFFFFFFFFFFFFF25
:102BC000FFFFFFFFFFFFFFFFFFFFFFFFFFFFFFFF15
:102BD000FFFFFFFFFFFFFFFFFFFFFFFFFFFFFFFF05
:102BE000FFFFE02EFB7DFBFBCFC1DFBB3EC0E1FE64
:102BF0003C1FFDEE7B39F9F3CF9EDFBB3EDFDEFCF1
:102C0000DDE7FDEE3BBBF9EBD7BF5FBB5EDFDEFD73
:102C1000EDF7FDEEBBD3FAEBB73FDFBB4EDFDFFFD7
:102C2000CDF3FDEEDBC7FAEBBB7FC03B6EC0E3FF2D
:102C30001DF3FDEECBEFFADBBB7FDFBB66DFF8FFFA
:102C4000CDF3FDEEEBEFFB5B033F5FBB76DFFE7F7B
:102C5000EDF3FDEEF3EFFB5B79BEDFBB7ADFDE7DEC
:102C6000EDF7FDEEF3EFFBBAFD9EDFBB7CDFDEFD93
:102C7000CDE7FDEEFBEFFBBAFDC1DFBB7EC0E0FEA2
:102C80001C1F1FFFFFFFFFFFFF600000000001FF90
:102C9000400000000000FF8000000000007F83CFA4
:102CA00000000C303F87FF80000C301F86798000C9
:102CB0000C000F8C30C7838C30E78C30CFC7CC3101
:102CC000F38C30DCECEC33B98C30D86C6C33198C71
:102CD00030D06C0C33198C30D86C0C33198C30DC40
:102CE0006C0E3B198C30CF7C079F198C30C77C034E
:102CF0008F19400000000000026000000000000684
:102D00001FFFFFFFFFFFF8687474703A2F2F6D618B
:102D1000726C696E66772E6F726700322E302E34B9
:102D20005F445736004D3130303020530070726FA1
:102D30006D70745F00656E64002020506C616E6E73
:102D4000657242756666657242797465733A2000F1
:102D50002046726565204D656D6F72793A2000439B
:102D60006F6D70696C65643A204D61722020372068
:102D7000323032300A00204C617374205570646127
:102D80007465643A20323032302D30322D323820A2
:102D90007C20417574686F723A2054696E794D6178
:102DA0006368696E657333440A00322E302E345FD7
:102DB0004457360A004D61726C696E0020536F668D
:102DC00074776172652052657365740A00205761DB
:102DD000746368646F672052657365740A002042EB
:102DE000726F776E206F75742052657365740A0078
:102DF0002045787465726E616C2052657365740A43
:102E000000506F77657255700A006175746F2563A5
:102E10002E6700473238585900446F6E6520707233
:102E2000696E74696E672066696C650A004D33319E
:102E3000004D3051315331383030006572726F724D
:102E40002077726974696E6720746F2066696C659B
:102E50000A00446F6E6520736176696E672066694B
:102E60006C652E0A004D323900255320256320253C
:102E70006320256320256300205A3A0020593A0038
:102E8000656E6473746F7073206869743A200020F3
:102E900062797465733B2063726320004E6F204536
:102EA0004550524F4D2E0A00205200454550524F7A
:102EB0004D206461746173697A65206572726F7206
:102EC0002E0A002073746F726564207365747469D0
:102ED0006E67732072657472696576656420280078
:102EE000202863616C63756C6174656429210A0034
:102EF00020213D2000454550524F4D204352432054
:102F00006D69736D61746368202D202873746F720E
:102F10006564292000496E6465783A2000204D617F
:102F2000726C696E3D563736290A00454550524F3E
:102F30004D2076657273696F6E206D69736D617473
:102F400063682028454550524F4D3D00454550523D
:102F50004F4D20496E697469616C697A65640A0035
:102F600048617264636F6465642044656661756C72
:102F7000742053657474696E6773204C6F61646567
:102F8000640A003B200020204D36303320002020F2
:102F90004D34313220530046696C616D656E74208A
:102FA00072756E6F75742073656E736F723A002060
:102FB000550046696C616D656E74206C6F61642F9D
:102FC000756E6C6F6164206C656E677468733A002F
:102FD00020204D343133205300506F7765722D4CD3
:102FE0006F7373205265636F766572793A002020A3
:102FF0004D33303420500020204D333031205000EC
:103000005049442073657474696E67733A002046B2
:103010000020480020204D3134352053004D61748C
:10302000657269616C206865617475702070617289
:10303000616D65746572733A002020473239205300
:1030400034205A00202047323920533320490020B1
:10305000204D3432302053004D6573682042656442
:10306000204C6576656C696E673A0020204D3230E1
:1030700036205800486F6D65206F66667365743A38
:1030800000204A0020204D32303520420041647635
:10309000616E6365643A20423C6D696E5F7365677B
:1030A0006D656E745F74696D655F75733E20533C2A
:1030B0006D696E5F66656564726174653E20543C3F
:1030C0006D696E5F74726176656C5F66656564726A
:1030D0006174653E204A3C6A756E635F6465763E46
:1030E0000020204D323034205000416363656C6510
:1030F000726174696F6E2028756E6974732F7332F4
:10310000293A20503C7072696E745F616363656C2C
:103110003E20523C726574726163745F61636365E3
:103120006C3E20543C74726176656C5F61636365CC
:103130006C3E0020204D3230312058004D617869BE
:103140006D756D20416363656C65726174696F6E46
:103150002028756E6974732F7332293A0020204D30
:103160003230332058004D6178696D756D20666589
:10317000656472617465732028756E6974732F734A
:10318000293A0053746570732070657220756E69FA
:10319000743A0020204D3230302044300A00202084
:1031A0004D3230302044002044697361626C6564A4
:1031B0000A0046696C616D656E742073657474698C
:1031C0006E67733A0020204D3134392043203B2074
:1031D000556E69747320696E2043656C73697573ED
:1031E0000A0020286D6D2900202047323120202040
:1031F000203B20556E69747320696E206D6D004808
:103200006F6D696E67204661696C6564000000FA45
:10321000430000FA4300002041000096420000A055
:10322000420000A0420000C8430000BA42DC050092
:1032300000DC050000640000004B00000052756EC9
:103240006F75742044697374206D6D004C6F6164F8
:10325000206D6D00556E6C6F6164206D6D00466968
:103260006C2E204469612E004520696E206D6DC270
:10327000B3002053697A653A200043616E6E6F7423
:10328000206F70656E20737562646972200053440C
:103290002063617264206F6B0A006F70656E526FFD
:1032A0006F74206661696C65640A00766F6C756D79
:1032B000652E696E6974206661696C65640A0053E5
:1032C0004420696E6974206661696C0A004D32336E
:1032D0002025730046696C652073656C65637465B1
:1032E000640A0046696C65206F70656E65643A20FB
:1032F00000454E4420535542524F5554494E450ABD
:10330000002220706F73002220706172656E743A23
:103310002200535542524F5554494E452043414C8B
:103320004C207461726765743A2200747279696E18
:103330006720746F2063616C6C207375622D676306
:103340006F64652066696C657320776974682074A2
:103350006F6F206D616E79206C6576656C732E20C1
:103360004D4158206C6576656C2069733A310A00CE
:1033700044656C6574696F6E206661696C65642C68
:103380002046696C653A200046696C652064656C6E
:10339000657465643A005344207072696E74696E96
:1033A00067206279746520004E6F7420534420704A
:1033B00072696E74696E670A0057726974696E6724
:1033C00020746F2066696C653A20006672657368C8
:1033D00000646F696E67004E6F7720004F757461EF
:1033E0006765205265636F7665727900436F6E661C
:1033F000696775726174696F6E003F0043616E6347
:10340000656C005072696E746572205374617473D8
:1034100000546865726D6973746F727300426F61F6
:10342000726420496E666F005072696E7465722016
:10343000496E666F004D313030300053746F70202C
:103440005072696E7400526573756D6520507269B3
:103450006E74004D3231004368616E6765204D65C2
:103460006469610041626F7574205072696E7465A1
:1034700072004E6F204D656469610054756E650081
:10348000496E666F2053637265656E005374617296
:1034900074205072696E740043616E6E6F742065A3
:1034A0006E746572207375626469723A2000022E30
:1034B0002E0052756E6F75742053656E736F7200B7
:1034C000554E4C4F41442046494C414D454E5400C9
:1034D00046494C414D454E54204348414E474500D6
:1034E0004D37303220542564004D36303020423084
:1034F00020542564004D373032203B2564004D3781
:10350000303120542564004D373032004D37303192
:10351000004D363030204230005075726765206DA6
:103520006F726500524553554D45204F5054494FD9
:103530004E533A005052494E542050415553454441
:103540000020204E6F7A7A6C653A2000256C642E3C
:1035500025696D00457874727564656420546F74D4
:10356000616C004C6F6E67657374204A6F62205403
:10357000696D65003E2000546F74616C2050726963
:103580006E742074696D6500436F6D706C65746551
:1035900064005072696E7420436F756E740031352B
:1035A00030004245443A4154432031303447542D91
:1035B000320052756E617761792057617463683AA1
:1035C000204F4E004D61782054656D7000333135C9
:1035D000004D696E2054656D700045313A204550AC
:1035E000434F53203130304B005053550047656EE8
:1035F000657269630050726F746F636F6C00312E77
:103600003000426175640032353030303000437232
:1036100065616C69747933442052414D5053004DBB
:10362000657368204C6576656C696E6700457874D3
:103630007275646572730074696E796D616368692F
:103640006E657333642E636F6D00544D33442043B5
:10365000523130563200323032302D30322D323845
:10366000005061726B696E672E2E2E00000057614C
:10367000697420666F720066696C616D656E742096
:103680006368616E676500746F20737461727400A3
:103690005761697420666F720066696C616D656E52
:1036A0007420756E6C6F616400004E6F7A7A6C6581
:1036B0002068656174696E6700506C656173652090
:1036C000776169742E2E2E0000507265737320622C
:1036D0007574746F6E00746F2068656174206E6F0E
:1036E0007A7A6C650000496E736572742066696C45
:1036F000616D656E7400616E642070726573732015
:10370000627574746F6E00746F20636F6E74696E8F
:103710007565005761697420666F720066696C6137
:103720006D656E74206C6F61640000507265737318
:1037300020427574746F6E00746F20726573756DBE
:1037400065207072696E7400005761697420666F3D
:1037500072207072696E7400746F20726573756D7B
:10376000652E2E2E00005761697420666F72006608
:10377000696C616D656E74207075726765000042DA
:103780006564205A004D61696E00436F6F6C646F11
:10379000776E0046616E205370656564207E00423E
:1037A00061627973746570205A00466C6F770050BF
:1037B00072696E74205061757365640020746F6F58
:1037C000206C6F6E6720657874727573696F6E20F8
:1037D00070726576656E7465640A0020636F6C6450
:1037E00020657874727573696F6E20707265766586
:1037F0006E7465640A00220A00556E6B6E6F776EF8
:1038000020636F6D6D616E643A202200544D334425
:10381000204352313056322052656164792E005077
:1038200072696E74696E672E2E2E007C3C3E5E2B94
:103830003D3F2F5B5D3B2C2A225C00204D3932201E
:10384000580020204D61783A200020204D696E3AC2
:103850002000536F667420656E6473746F70733AE2
:1038600020004D32342053256C642054256C6400B4
:103870004739322E392045257300473120462564CB
:10388000004739322E39205A2573004731205A30EB
:103890002046323030004731205825732059257397
:1038A000204633303030004D3432302053256920EB
:1038B0005A2573004D313036205025692053256933
:1038C000004D31303920532569004D3139302053B6
:1038D0002569004D32303020442573004739322E9F
:1038E000392045305A300A47315A320A4732385265
:1038F000305859004D343230205330205A30002097
:10390000496E76616C69642065787472756465725D
:103910002000446966663A200046726F6D537470E9
:103920003A00537465707065723A00556E4C657656
:10393000656C3A004C6576656C65643A0052617757
:103940003A20202020000A4C6F676963616C3A00BE
:10395000436F756E7420453A004361703A004D30F4
:103960002053746F70004D312053746F7000436C9E
:1039700069636B20746F20526573756D652E2E2EF2
:1039800000656E7175657565696E672022006F6BE5
:1039900000526573656E643A20005072696E74203F
:1039A00066726F6D204D6564696100496E73657262
:1039B000742066696C616D656E7420616E6420733D
:1039C000656E64204D3130380A004368616E67656A
:1039D0002046696C616D656E7400556E6C6F616434
:1039E0002046696C616D656E74004C6F61642046A1
:1039F000696C616D656E74005072656865617420F4
:103A0000414253005072656865617420504C41001A
:103A10005072656865617420437573746F6D004200
:103A200061636B00486F6D652025732573257320D6
:103A3000466972737400627574746F6E00436F6EC2
:103A400074696E7565004C6F61642046696C616DC8
:103A5000656E742054004A756E6374696F6E2044FD
:103A60006576004573746570732F6D6D005A7374BD
:103A70006570732F6D6D005973746570732F6D6D64
:103A8000005873746570732F6D6D00496E69740012
:103A90004D34323800496E697469616C697A652009
:103AA000454550524F4D0053746570732F6D6D0036
:103AB0004A65726B00416363656C65726174696F1E
:103AC0006E0056656C6F63697479005365742048A5
:103AD0006F6D65204F666673657473004E6578740C
:103AE00020506F696E74004E657874004C65766581
:103AF0006C696E6720446F6E6521002569202F2058
:103B000025750047323920533100436C69636B20BF
:103B1000746F20426567696E00486F6D696E67203B
:103B200058595A006F70656E206661696C65642C27
:103B30002046696C653A20004F6666004F6E004D66
:103B40006F74696F6E00426564204C6576656C69C0
:103B50006E670054656D70657261747572650053AF
:103B60006F667420456E6473746F7073004D3834E3
:103B70000044697361626C6520537465707065728E
:103B80007300473238205A00486F6D65205A00474D
:103B90003238205900486F6D65205900473238206F
:103BA0005800486F6D6520580047323800417574E1
:103BB0006F20486F6D6500507265686561742050B4
:103BC0004C4120456E6400507265686561742050F8
:103BD0004C41204265640050726568656174204103
:103BE000425320456E6400507265686561742041DF
:103BF00042532042656400FFFDFCFAF8F6F4F2F04F
:103C0000EEECEAE9E7E5E3E1E0DEDCDAD9D7D5D4AA
:103C1000D2D0CFCDCBCAC8C7C5C3C2C0BFBDBCBA46
:103C2000B9B7B6B4B3B2B0AFADACAAA9A8A6A5A4B3
:103C3000A2A1A09E9D9C9A99989795949392908FFB
:103C40008E8D8B8A8988878684838281807F7E7D22
:103C50007B7A797877767574737271706F6E6D6C2C
:103C60006B6A696867666564636261605F5E5D5C1C
:103C70005B5A5958585756555453525150504F4EFD
:103C80004D4C4B4A4A4948474646454443424241C7
:103C9000403F3E3E3D3C3B3B3A3938383736353580
:103CA000343332323130302F2E2E2D2C2B2B2A292B
:103CB0002928272726252524232322212120201FC8
:103CC0001E1E1D1C1C1B1B1A191918181716161559
:103CD0001514131312121111100F0F0E0E0D0D0CDF
:103CE0000C0B0A0A0909080807070606050504045B
:103CF000030302020100004D6F7665205A004D6FEC
:103D000076652025736D6D004D6F766520302E3100
:103D10006D6D004D6F766520316D6D004D6F766570
:103D20002031306D6D004D6F7665204178697300EC
:103D3000486F74656E6420746F6F20636F6C6400ED
:103D40004578747275646572004D6F766520590010
:103D50004D6F766520580000002100240027002ABE
:103D6000002D003000330001010000040107010AAA
:103D70000100002200250028002B002E0031003415
:103D80000002010000050108010B010000200023D2
:103D900000260029002C002F003200000100000343
:103DA00001060109010505050507050808080802BF
:103DB0000202020A0A0808040404040101010101C4
:103DC0000101010303030303030303040707070CB3
:103DD0000C0C0C0C0C0C0C02020202060606060669
:103DE0000606060B0B0B0B0B0B0B0B010210202016
:103DF000080810204010204080020102010804023F
:103E000001010204081020408080402010080402B4
:103E1000018004020180402010080402010804020D
:103E20000101020408102040800102040810204013
:103E30008000000A0B02090C0D0E080703040100A4
:103E40000000000000000000000000000000000072
:103E5000000000000000000000000000001211102F
:103E60000000000000000000000000000000000052
:103E700000000000000000453100626564002C2055
:103E800073797374656D2073746F7070656421202D
:103E90004865617465725F49443A20004865617401
:103EA000696E67204661696C656400486561746984
:103EB0006E67206661696C6564004D313132205354
:103EC000687574646F776E004F46460A00466164F9
:103ED000652048656967687420004661696C65649F
:103EE00020746F20656E61626C6520426564204CB1
:103EF0006576656C696E670A004D6573682042657A
:103F000064204C6576656C20646174613A0A0049EE
:103F10006E76616C6964206D6573682E0A00206E90
:103F20006F7420656E74657265642E0A004D3432BC
:103F30003120696E636F72726563742070617261A3
:103F40006D657465722075736167650A004163630E
:103F5000656C65726174696F6E3A205000005D0295
:103F60006F0211241FBECFEFD1E2DEBFCDBF00E054
:103F70000CBF13E0A0E0B2E0EEE5F1EA02E00BBF17
:103F800002C007900D92AC33B107D9F727E1ACE33B
:103F9000B3E001C01D92AD3AB207E1F71FE1C0EBFB
:103FA000DFE100E006C021970109802FFE010F9498
:103FB000004DCF3AD10780E00807A9F70F94733876
:103FC0000D949D500C9400002F923F924F925F925F
:103FD0006F927F928F929F92AF92BF92CF92DF9219
:103FE000EF92FF920F931F93CF93DF93CDB7DEB77E
:103FF000E4970FB6F894DEBF0FBECDBF8BAB209118
:104000003C1128AB81E080933C1180916F108D347E
:1040100009F428C4843511F40C940531873411F067
:104020000C940C3180916D1090916E108A31910535
:1040300009F412C194F48430910534F4823091056E
:10404000BCF597FF29C00AC48430910509F4C5C0A6
:10405000459711F40C940E3101C48A32910509F48C
:104060007EC354F48C31910509F414C10CF4F8C0EA
:104070004D9709F41FC1F2C38B35910509F4B8C2FD
:104080008C35910509F4B9C28A35910509F0E6C36A
:1040900010924B030C940E3180917702882311F417
:1040A0000C940E310E9444F50E9492820C940E31C1
:1040B00020917702222311F40C940E3111E0029723
:1040C00009F010E00E9444F519821A821B821C82BA
:1040D0001D821E821F82188682E50E94344E88232C
:1040E00009F44BC00E94FD4D6B017C0120E030E0E3
:1040F000A9010F940546882309F455C08091A109B0
:104100009091A209A091A309B091A4098CA39DA3A9
:10411000AEA3BFA38091A5099091A609A091A7097C
:10412000B091A8098CA79DA7AEA7BFA780901F112B
:1041300090902011A0902111B09022114090231155
:10414000509024116090251170902611A5019401C2
:104150006CA17DA18EA19FA10F94054681110C94A5
:104160001731A30192016CA57DA58EA59FA50F9483
:1041700005468823C1F00C94173189E40E94344E1F
:10418000882331F00E94FD4D69837A838B839C8361
:104190008AE40E94344E882331F00E94FD4D6D83E5
:1041A0007E838F83988720E030E0A90169817A813E
:1041B0008B819C810F94054681110C94CB3120E0BA
:1041C00030E0A9016D817E818F8198850F9405462D
:1041D00081110C94CB310C94DE3180E50E94344E79
:1041E000882329F00F94BF336B017C0103C0C12CDD
:1041F000D12C760183E50E94344E882361F00E9421
:10420000FD4D20E030E04AE754E40F946B460F94F4
:104210007C4E6B017C010F94D32380918705811123
:1042200005C060E08EEF96E00E94F99C0F94E52BAC
:10423000C60ED71EE81EF91E0F94E52BDC01CB013C
:104240008C199D09AE09BF09B7FD02C00C940E314F
:1042500080E00E94E537F0CF0E94654E0C940E314D
:104260000F942D0981110C940E318CE0EDE7F2E0F2
:10427000DE01119601900D928A95E1F760E070E001
:1042800080E50E9475FCBE016F5F7F4F0E94CF9B4F
:104290000C940E31809138118770873011F00C9496
:1042A000E53160E08FE40E94504E81110C940E3194
:1042B0000C94E53183E50F948309182F863030F094
:1042C0008AEA97E00E943D700C940E31833009F425
:1042D0000DC128F48130E9F0823069F106C08430E4
:1042E00009F454C1853009F461C187E997E00E945F
:1042F0003D700E94CF6F882339F0809128170E946B
:104300007C710E94E27058C189E897E00E943D707C
:1043100053C10E94BB6E1092010210920002809164
:104320004411811108C08EE797E09093FF068093B7
:10433000FE060C940E31809100029091010297FFCD
:1043400006C085E597E00E943D700C940E31009701
:10435000A1F4809127028093520319821A821B8252
:104360001C821C8E1D8E1E8E1F8EBE016F5F7F4FA6
:10437000CE014C960E94CD8627C0815065E00F94F7
:10438000CA4C80FF03C024E0291B922F25E0920233
:10439000F0011124E80FF11D87FDFA95EE0FFF1FC4
:1043A000EE0FFF1FE253FB4F8091A9099091AA09DC
:1043B000A091AB09B091AC0980839183A283B383B0
:1043C0008091520380932702809100029091010214
:1043D000893191050CF058C0109227029C012F5F83
:1043E0003F4F309301022093000265E00F94CA4CC6
:1043F00080FF03C024E0291B922F34E09302F001D8
:104400001124E65CFB4E80809180A280B38094E012
:104410008902F0011124EA5DFB4E408051806280E8
:1044200073808DEC9CECACE4BEE38C8F9D8FAE8FE3
:10443000BF8F19821A821B821C82DE0111966D01C8
:10444000E12CF12C00EA10E4A3019201C501B401B2
:104450000E94EF8519821A821B821C82B601CE014E
:104460004C960E94CD868092A1099092A209A092BA
:10447000A309B092A4094092A5095092A60960929E
:10448000A7097092A8092FC080E090E0A0EAB0E4EC
:104490008093A9099093AA09A093AB09B093AC09A2
:1044A0008AE292E00E94D4850F94D3238FEF9FEF8E
:1044B000909301028093000281E497E00E943D7096
:1044C00063E972E084E690E00E94CC9C6AEB72E0C3
:1044D00084E690E00E94CC9C89EA9BE30F94B106AD
:1044E00081E00E94CB6E1092441168C089E40E9462
:1044F000344E8823B1F00E94F94D182F853060F0BA
:1045000064E070E08EE297E00E94B77183E09BE088
:104510000E943D700C940E318AE40E94344E811149
:1045200005C08AE40F94D0400C940E310E94F94DDE
:10453000082F853060F064E070E08BE197E00E9426
:10454000B77183E09BE00E943D700C940E318AE5C8
:104550000E94344E8823A9F00E94FD4DB5E01B0255
:10456000F0011124E00FF11D07FDFA95EE0FFF1F7A
:10457000EE0FFF1FE253FB4F6083718382839383AF
:1045800033C08AE50F94D0400C940E318AE50E9426
:10459000344E8823B1F30E94FD4D6093CA0470939A
:1045A000CB048093CC049093CD041EC080E00E9485
:1045B000CB6E0E94BB6E18C01230B1F46091000245
:1045C000709101026931710514F069E170E08CE0CD
:1045D00097E00E94B77169E170E087E097E00E9480
:1045E000B7718AE00E94B9360E9414870C940E318C
:1045F0008FE080934B030C940E3180916C108823D4
:1046000051F1893009F0A7C0A3E1AA2EA3E0BA2E88
:10461000B1EAEB2EB9E0FB2ED12C00E010E0F50161
:1046200081915F010E94344E882371F00E94FD4DFC
:10463000D7016D937D938D939C931397133011F451
:1046400001E002C0DD24D3941F5FB4E0EB0EF11C47
:10465000143029F775C073E1272E73E0372EE2EB93
:10466000EE2EE4E0FE2EE1EAF9E0FDA3ECA3F6EA8B
:10467000CF2EF4E0DF2E00E010E0D1018D911D017E
:104680000E94344E882309F44BC00E94FD4D2B013B
:104690003C01133049F0F601208131814281538180
:1046A0000F94084D2B013C01ACA1BDA12D913D9172
:1046B0004D915C91C301B2010F94084D4B015C0117
:1046C0002DEB37E346E855EB0F94694F87FD0AC0A1
:1046D0002DEB37E346E855E3C501B4010F940546D9
:1046E0001816F4F4133051F44092AD095092AE090B
:1046F0006092AF097092B00901E012C0A501940167
:10470000F70160817181828193810F94094DD701F6
:104710006D937D938D939C931397812F0E94D181EC
:104720001F5FB4E0EB0EF11CECA1FDA13496FDA3DC
:10473000ECA3F4E0CF0ED11C143009F09ECF05C0DD
:10474000DD2019F00E94128706C0002321F08DEAB7
:1047500099E00F94E4230E9414870C940E31809109
:104760007702882311F40C940E3189E40E94344EB0
:10477000F82E882321F00E94F94D182F01C010E077
:104780008AE40E94344E082F882319F00E94F94DC4
:1047900001C080E0FF2011F0153020F4002341F02B
:1047A000853030F081EC97E00E943D700C940E3122
:1047B00090E1E1EAF9E0AFE1B1E101900D929A9563
:1047C000E1F7FF2091F024E01202F0011124E65CF1
:1047D000FB4E408151816281738140931F11509340
:1047E00020116093211170932211002391F034E085
:1047F0008302F0011124EA5DFB4E80819181A28148
:10480000B3818093231190932411A0932511B09329
:10481000261140E050E0BA0186E40E948C436B010F
:104820007C0120E030E0A9010F94694F18164CF488
:1048300020E030E040E752E4C701B6010F94034E98
:1048400003C060E070E0CB0169837A838B839C8333
:10485000CE0101960E946D850C940E310E94BDEB35
:104860000C940E3180916D1090916E1087379105E8
:1048700009F497C70CF0F0C08C34910509F4FAC321
:104880000CF06DC08A31910509F4C8C2B4F58431C9
:10489000910509F414C294F48131910509F4FBC126
:1048A00044F4029710F00C9402310F9444040C94D9
:1048B0000E31429709F419C60C94023187319105E3
:1048C00009F422C28CF48531910509F419C2469786
:1048D00011F00C9402310E9458C180915914877FC5
:1048E000809359140C940E318831910509F423C238
:1048F000499709F488C20C9402318F31910509F46B
:1049000058C37CF48C31910509F4FDC20CF494C2B7
:104910008D31910509F4FFC24E9709F403C30C943D
:1049200002318A32910509F464C364F4803291053E
:1049300009F408C3819711F00C9402310E94E349F5
:104940000C940E318934910509F481C38B3491059F
:1049500011F00C9402310E9481350C940E318A368C
:10496000910509F4ADC4ACF58335910509F4B6C5DC
:10497000BCF48E34910509F485C30CF47FC38135F2
:10498000910509F495C58235910511F00C94023119
:1049900080914B038F7D806180934B030C940E318B
:1049A0008C35910509F4C7C554F48435910509F493
:1049B0009CC58535910509F49BC50C940231883658
:1049C000910509F4F1C38936910509F465C40C9485
:1049D00002318037910511F40C940E31D4F48D36E8
:1049E000910509F405C45CF48B36910509F489C47A
:1049F0008C36910511F40C940E310C9402318E36E4
:104A0000910509F48AC48F36910509F497C40C9472
:104A100002318337910509F418C66CF4813791058A
:104A200009F4D0C48237910511F00C9402310F942F
:104A3000FB040C940E318537910509F46FC6863757
:104A4000910511F00C9402310091F5031091F603D9
:104A500094E0F12C40E089C68033A1E09A0711F47C
:104A60000C94892E0CF07EC08C3C910509F495C7FE
:104A700074F58139910509F4A6C684F48937910546
:104A800009F49AC60CF490C68D37910509F40DC54A
:104A90008C38910509F4B8C40C940231883C910516
:104AA00009F4ECC654F48B39910509F4D8C48E3B53
:104AB000910509F4C2C40C940231893C910509F4B2
:104AC00027C78B3C910509F449C70C940231823EFB
:104AD000910511F40C945E2D14F5833D910509F4B4
:104AE00087C79CF48D3C910509F45AC78E3C91050B
:104AF00011F00C940231E3E1CE2EE3E0DE2EF0EF74
:104B0000EF2EF6E0FF2E10E061C78C3D910509F411
:104B100072C78D3D910509F47BC70C9402318D322B
:104B2000E1E09E0711F40C940A2E6CF4823221E02D
:104B3000920711F40C94AA2D8C32914011F40C942C
:104B4000F52D0C9402318E32A1E09A0711F40C94E9
:104B5000FC2E8F32914011F00C9402310E94A3433D
:104B60000C940E31863FE1E09E0711F40C94363030
:104B70000CF047C0843A21E0920711F40C94642FA2
:104B8000ECF48A39A1E09A0711F40C940E314CF43C
:104B90008039914011F00C9402310F94D3230C947E
:104BA0000E318C39F1E09F0711F40C94402F8D39B0
:104BB000914011F40C94EB300C940231863E31E0BC
:104BC000930711F40C94C72F6CF4853AB1E09B075E
:104BD00011F40C94672F8C3A914011F40C946A2FC5
:104BE0000C940231843FF1E09F0711F40C943330B0
:104BF000853F914011F00C9402310E946BB40C94EB
:104C00000E318D3B32E0930711F40C94D7300CF544
:104C10008C30B2E09B0711F40C9453306CF4873F56
:104C2000F1E09F0711F40C943930883F914011F462
:104C30000C9442300C940231883532E0930711F421
:104C40000C945B308B35924011F40C945E300C94D4
:104C50000231803AB3E09B0709F49DC16CF48E3BAE
:104C6000F2E09F0711F40C94DA308C36934011F483
:104C70000C940E310C940231873E33E0930711F40B
:104C80000C94DD30883E934011F00C9402310E9468
:104C90008DF60C940E318091681084FF02C00C9444
:104CA0008B3380916A1087FF02C00C948B33809104
:104CB0006B10837011F00C948B330C94A73388EF36
:104CC00097E00E943D7086E794E10E94AE9F8BE1E1
:104CD000E6E7F4E1DE01119601900D928A95E1F785
:104CE00060E070E0CE0101960E945CC5CE010196A5
:104CF0000E94A36D89EE97E00E943D700C940E31E6
:104D00000E940DC20C940E31E091F503F091F60370
:104D10008081882329F0803209F410823196F8CFFF
:104D200060E08091F5039091F6030E947AC410929E
:104D3000FD060C940E3183E50E94344E882321F049
:104D40000E94C54D0E94B34A84E50E94344E8823D8
:104D5000A9F00E94C54D6B017C010E941997C09279
:104D60002D17D0922E17E0922F17F0923017CD28E2
:104D7000CE28CF2819F081E0809394098091C9084A
:104D80008823E9F080E090E0A0EAB1E489839A8387
:104D9000AB83BC831C8E1D8E1E8E1F8E18A219A283
:104DA0001AA21BA220E0AE014F5F5F4FBE01645EFE
:104DB0007F4FCE0180960E941B720C940E310E9490
:104DC0005D35882381F00E9469C10E9481358CE79E
:104DD00096E00E940EC11092701010927110109205
:104DE00072101092731061E08FEC96E20E944C708A
:104DF00042EA56E269E078E085E00F9418090E94E3
:104E000080EB0C940E318091591482FF03C08B7F8C
:104E1000809359140E949CFB0C940E31809159147C
:104E200083FD02C00C940E3183E50E94344E811143
:104E30000C94B5330C940E3183E40E94746C882377
:104E4000C1F18FE198E00E943D708091BD158823EB
:104E500039F1BE016F5F7F4F8AEB95E10E94FDF350
:104E60008E010F5F1F4FF80181918F01882319F088
:104E70000E94B936F8CFCE0101960E94FCC3809102
:104E80005209882389F080E20E94B93602E519E0D0
:104E9000D8018D918D01882339F00E94B936F8CF61
:104EA00085E198E00E943D708AE00E94B9360C943A
:104EB0000E3183E50E94344E882309F10E94D54DBE
:104EC000182F90E0CD970CF01CE3109340030F9443
:104ED000E52B6B017C01212F30E0A8EEB3E00F94AD
:104EE000AF4CC60ED71EE81EF91EC0923C03D092EE
:104EF0003D03E0923E03F0923F030C940E310E947A
:104F0000E7C00C940E318091F5039091F6030E9456
:104F10002AC40C940E31809159148E7F80935914B9
:104F20000C940E318091591483FD02C00C940E3103
:104F30000E94A3EB8091F5039091F6030E9488C331
:104F40000C940E318091591482FD0F94D3238091DB
:104F5000591483FD02C00C940E3160E080E50E947C
:104F6000504E182F682F8091F5039091F6030E9400
:104F70007AC483E50E94344E882321F00E94C54DF7
:104F80000E94B34A0E9469C111110C940E310E9413
:104F900081350C940E312091F5033091F6039091F8
:104FA0005914926090935914C9010E942AC40C9418
:104FB0000E310E94E5966C8F7D8F8E8F9F8FBE0184
:104FC0006F5F7F4FCE014C960E94044960E0CE0196
:104FD00001960E94969D0E94DB71BE016F5F7F4F1C
:104FE0008EE298E00E94C4718AE00E94B9360C9467
:104FF0000E3183E50E94344E882311F40C940E3157
:105000000E94D54DF82E6DE070E080E50E94414E83
:105010008C0197FF02C00C940E31873031F089303B
:1050200041F4F092DE090C940E31F092DF090C94F9
:105030000E3160E089E40E94504E81110C94BA3325
:10504000802F0F94AF36811156C50C94BA3380E58A
:105050000E94746C882311F40C940E310E94D54D7B
:1050600090E08536910510F084E690E08093FD068F
:105070000C940E310E9434970C940E310F94B7218A
:105080000C940E3160E070E083E50E94414E8E3456
:10509000910531F40F9428220E9480EB0C940E317C
:1050A00081E998E00E943D7060912D0670912E0676
:1050B00088E898E00E94997160912F0670913006FF
:1050C0008BE798E00E94997160912D0670912E06F1
:1050D00080912F0690913006681B790B809194097E
:1050E000815021E030E0823010F020E030E0621B9F
:1050F000730B80E798E00E9499718AE00E94B936AC
:1051000081E998E00E943D708091310690913206CD
:10511000A0913306B09134068C8F9D8FAE8FBF8FD8
:10512000BE016F5F7F4FCE014C960E940449BE01C5
:105130006F5F7F4F83E698E00E94C47180913506CF
:1051400090913606A0913706B09138068C8F9D8FCE
:10515000AE8FBF8FBE016F5F7F4FCE014C960E9416
:105160000449BE016F5F7F4F83E598E00E94C471E0
:1051700020E030E04AE754E46091390670913A0645
:1051800080913B0690913C060F94034EAB01BC010D
:105190008BE398E00E94A6718DE60E94B9368AE002
:1051A0000E94B9360C940E318091F40F83FF02C037
:1051B0000C940E310E9464F687FF02C00C940E31ED
:1051C00083E50E94344E882379F00E94FD4D0F94B0
:1051D000754ECB010E94E7A00F946038811104C086
:1051E0000F94B7210E9480EB0F942F400C940E3146
:1051F0008091F40F83FF02C00C940E310E9464F67C
:10520000F82E87FF02C00C940E3183E50E94344EC5
:10521000082F811106C082E50E94344E182F882382
:1052200081F10E94FD4D0F94754ECB010E94E7A0C5
:105230000F946038882311F40C94C8330E94813590
:1052400060916A1370916B13072E000C880B990BF9
:105250000F940C464B015C0140906613509067130D
:105260006090681370906913A30192010F94694FC5
:10527000181614F40C94E833002311F40C94CE3374
:1052800011E00F942F40112309F4C8C740E0602FAC
:105290008F2D0E94FBA2C2C70E9464F6182F87FDC3
:1052A0000AC08EE899E30E943D70812F0E94F7A00A
:1052B0008AE00E94B936B8A9B0933C110C94063527
:1052C00080E50F948309182F823008F0A7C781E486
:1052D0000E94746C882321F06091DE0970E002C0A6
:1052E0006FEF70E083E50E9475FCE12FF0E0E25281
:1052F000F64F8F3F910519F010F08FEF90E080830B
:105300008DC780E50F948309823008F087C7E82FA6
:10531000F0E0E252F64F108281C78EE40E94344ED4
:10532000882309F47BC70E94C54D6093F1037093F5
:10533000F2038093F3039093F40370C783E50E9414
:10534000746C882329F083E50F9483098093F40F0C
:105350000E94DB718EE998E00E943D708091F40F0D
:10536000882369F16EE0E62E6CE0F62E00E010E096
:1053700020E08091F40F90E0A0E0B0E0002E04C0A7
:10538000B695A795979587950A94D2F780FF0EC09A
:10539000DD24D394D20E222319F08CE20E94B93678
:1053A000F701859194910E943D702D2D0F5F1F4F45
:1053B000E2E0EE0EF11C05301105D9F675CD8DEB4E
:1053C0009EE070CD83E50E94344E882371F00E94E8
:1053D000D54D282F30E02D3331051CF48093020287
:1053E0001DC78CE38093020219C70E94DB714091B4
:1053F000020250E060E070E085EA98E00E94887167
:105400008AE00E94B9360AC78091F40F83FD06C76F
:1054100083E50E94344E882339F00E94FD4D0F949D
:10542000754ECB010E94B74D0F9460388111F6C6BE
:105430000F94B7210E9480EBF1C68091F40F83FD99
:10544000EDC683E50E94344E182F81110C94EB3386
:1054500082E50E94344E81110C94EB33DFC683E564
:105460000E94344E882309F4D9C60E94D54D182FC6
:1054700090E0CD970CF01CE3109345030F94E52BBF
:105480006B017C01212F30E0A8EEB3E00F94AF4C0C
:10549000C60ED71EE81EF91EC0924103D0924203E9
:1054A000E0924303F0924403B9C60E949CFBB6C647
:1054B0000E9411A60F94B7210F9443250E945835DE
:1054C00068EE73E080E090E00E9419700E949435CD
:1054D00060E08AEC98E00E94F99CA0C680914B03A2
:1054E0008F7E806280934B0399C60E9477FD96C69B
:1054F00083E50E94746C882309F490C60F94E52B11
:1055000060932F1170933011809331119093321169
:105510000E94FD4D20E030E04AE754E40F946B46D2
:105520000F947C4E60934603709347038093480327
:105530009093490373C60E9464F687FD6FC69091ED
:10554000681094FD04C090916A1097FF0AC043E16F
:10555000C42E43E0D42E55EFE52E5FE0F52E10E08B
:1055600009C090916B10937091F7682F81E00E94B1
:10557000CDFD54C6D6018D916D010E94344E882315
:1055800009F459C0133009F04FC00E94FD4D4B0182
:105590005C0120E030E040EA51E40F94054687FFCB
:1055A0003AC0A50194016091151070911610809178
:1055B0001710909118100F94034E2B013C019B0182
:1055C000AC01609125107091261080912710909168
:1055D00028100F946B4660932510709326108093CB
:1055E0002710909328106091D2097091D30980916F
:1055F000D4099091D5090F940A46A30192010F9402
:105600006B460F947C4E6093D2097093D3098093BC
:10561000D4099093D5098092151090921610A092FB
:105620001710B092181007C00E94FD4DF701648B4F
:10563000758B868B978B1F5FF4E0EF0EF11C143097
:1056400009F098CF0F94AF23E9C588EF99E00E9445
:105650003D7060E088EE99E00F94E10460E083ED36
:1056600099E00F94E10461E080EA9AE30F94E10489
:1056700061E088EC99E00F94E10461E088EB99E047
:105680000F94E10460E08FEA99E00F94E10461E097
:1056900085EA99E00F94E10460E08BE999E00F94CA
:1056A000E10460E083E999E00F94E10461E085E8BA
:1056B00099E00F94E10461E087E799E00F94E10439
:1056C00060E088E699E00F94E10460E08AE599E003
:1056D0000F94E10460E084E499E00F94E10461E058
:1056E00083E399E00F94E10461E084E299E00F9490
:1056F000E10461E08FE099E00F94E10461E08CEF58
:1057000098E00F94E10460E08FEE98E00F94E104DC
:1057100060E08BED98E00F94E10480C58091F50383
:105720009091F603009741F0DC012C91222321F0A7
:1057300060E00E94969D72C50E9480EB6FC5F801E3
:105740008081282F2B7F213499F08035E9F48181E5
:1057500080538A30C8F498012E5F3F4F89012F5F34
:105760003F4FF80180818032C9F3915041F70CC05E
:105770002181213349F4813421F0853461F741E0FE
:10578000EACFFF24F394E7CF41110E94DB71FF20A1
:1057900021F080EE9AE00E943D70C8010E94C4375B
:1057A0003DC50E941C883AC581E080933E068093E7
:1057B0003D060E943F8832C510923E0610923D067B
:1057C0000E943F882BC560E070E083E50E94414E57
:1057D0008C011127023011053CF00E94D77184EE34
:1057E0009AE00E943D701AC588E40E94344E8823D6
:1057F000A9F00E94F94D8A3A91053CF08D32F1E012
:105800009F072CF08CE291E002C08AEA90E0F80158
:10581000EE0FFF1FEA50FF4E9183808386E40E94C3
:10582000344E882381F00E94F94D97FD07C08F3FC9
:10583000910529F024F08FEF90E001C080E0F8019D
:10584000E75BF84E808382E40E94344E882309F49B
:10585000E5C40E94F94D8530910534F08D389105ED
:105860002CF08CE890E002C085E090E0F801EE0FAB
:10587000FF1FEB5BF84E91838083D0C40E9464F6D7
:10588000182F87FDCBC484E40E94746C8823E9F14F
:105890000E94FD4D6B017C0101E020E030E0A90198
:1058A0000F940546811101C000E000931F1720E00E
:1058B00030E0A901C701B6010F940546882329F1FC
:1058C00024E01202F0011124EC5DF84EC082D18276
:1058D000E282F38220E030E0A90160912417709108
:1058E000251780912617909127170F94054681114F
:1058F0000CC080E090E0A0EEBFE38093241790936B
:105900002517A0932617B09327170F94EF1F86C46F
:105910000E9464F687FD82C4B3E1EB2EB3E0FB2E58
:1059200005EF1FE085E0C82E80E1D82ED7018D91CC
:105930007D010E94746C882359F00E94FD4D0F94E4
:105940007C4EF80160837183828393830F94682374
:105950000C5F1F4FC016D10649F760C40E9464F661
:1059600087FD5CC4A3E1EA2EA3E0FA2E05EF1FE059
:10597000D7018D917D010E94746C882339F00E94BB
:10598000FD4DF80164A375A386A397A30C5F1F4F79
:10599000F0E105301F0761F741C40F9449333EC45D
:1059A0008091681081FD46C78091691081FD42C7D2
:1059B00080916A108C7009F03DC730C41F5FF4E01D
:1059C000EF0EF11C133011F40C94F422D6018D91DA
:1059D0006D010E94746C882389F30E94FD4DF701CC
:1059E0006083718382839383812F0E94D181E6CF6C
:1059F0000E9488FC13C483E50E94344E882309F476
:105A00000DC40E94F94D909329028093280206C488
:105A10000E9464F6F82E87FD01C483E50E94344E8F
:105A20000F2D0F2C000C110B882369F10E94F94DEA
:105A3000F801EE0FFF1FE759FD4F91838083000FA0
:105A4000111F000F111F9801255B3D4F7901BC010B
:105A5000990F880B990B0F940C462AE037ED43E21F
:105A60005CE30F946B46F801E05EF84E20813181D3
:105A7000428153810F946B46D7016D937D938D9333
:105A80009C931397CBC30E94DB7185E40E94B936C7
:105A900080E38F0D0E94B936F801EE0FFF1FE75922
:105AA000FD4F6081718185E29BE00E94B77185E2C4
:105AB0000E94B9368AE00E94B936B0C380E50E94E0
:105AC000746C882309F4AAC360E070E080E50E944A
:105AD000414EF82E6FEF7FEF83E50E94414E8C011F
