:100000000C942D130C9457130C9457130C945713F2
:100010000C9457130C9457130C9457130C945713B8
:100020000C9457130C9457130C9457130C945713A8
:100030000C9457130C949A5C0C9457130C9457130C
:100040000C9457130C94BEA60C94A0CA0C9457138E
:100050000C94ABB10C94A1B10C9457130C9457139E
:100060000C9457130C9457130C9457130C94571368
:100070000C9457130C9457130C9457130C94571358
:100080000C94B0AF0C9457130C945713DFB1E5B137
:10009000F7B107B20FB23FB213B23FB217B21BB201
:1000A0003FB21FB223B227B230B23FB23BB214C943
:1000B00017C90AC90EC92EC92EC91BC91FC925C90E
:1000C00029C90FCA14CA19CA23CA51CA51CA2DCA8A
:1000D00035CA3DCA47CAD9CE98CDCFCD15CFCFCDE1
:1000E000CFCDCFCDCFCDCFCDCFCDCFCDCFCDCFCD30
:1000F000CFCDCFCDCFCDCFCDCFCDCFCDCFCDCFCD20
:10010000CFCDCFCDCFCDCFCDCFCDCFCDCFCDCFCD0F
:10011000CFCD0FCFCFCDCFCDCFCDCFCDCFCDCFCDBD
:10012000CFCDCFCDE8CECFCDCFCDCFCDCFCDCFCDD5
:10013000CFCDCFCDCFCDCFCDCFCD2CCFCCCD4E4190
:100140004E494E495459494E46CDCCCC3D0AD72351
:100150003C17B7D13877CC2B329595E6241FB14F99
:100160000A000020410000C84200401C4620BCBEDE
:100170004CCA1B0E5AAEC59D7400407A10F35A004B
:10018000A0724E18090010A5D4E80000E8764817C0
:100190000000E40B54020000CA9A3B000000E1F5A5
:1001A00005000080969800000040420F000000A06B
:1001B0008601000000102700000000E80300000096
:1001C000006400000000000A0000000000010000C0
:1001D0000000002C76D888DC674F0823DFC1DFAE33
:1001E00059E1B1B796E5E3E453C63AE651997696FC
:1001F000E8E6C28426EB898C9B62ED407C6FFCEFC5
:10020000BC9C9F40F2BAA56FA5F490055A2AF75CF2
:10021000936B6CF9676DC11BFCE0E40D47FEF520A4
:10022000E6B500D0ED902E0300943577050080846C
:100230001E080000204E0A000000C80C3333333380
:100240000F986E12831141EF8D2114893BE65516EC
:10025000CFFEE6DB18D1844B381BF77C1D901DA424
:10026000BBE424203284725E228100C9F124ECA117
:10027000E53D270000000000000000000000000035
:10028000809D4300009B430000C843C002441DB949
:1002900002B202A40200004842000048420000806E
:1002A00040FFFFFF434F4D4D554E49434154494F89
:1002B0004E0044525952554E004552524F5253002F
:1002C0004543484F006F6B003F5A206F7574206F95
:1002D000662072616E67652028003F59206F757433
:1002E000206F662072616E676520282D0020746F74
:1002F00020003F58206F7574206F662072616E6712
:100300006520282D0050726F6265204F6666736508
:1003100074205800454550524F4D204F4B0A004F16
:10032000666673657473204170706C69656400451E
:1003300072723A20546F6F206661722100546F6FA1
:10034000206661722066726F6D20726566657265E7
:100350006E636520706F696E740A004D343231200F
:10036000696E636F727265637420706172616D652E
:100370007465722075736167650A00426564204C7C
:100380006576656C696E6720004661696C656420FE
:10039000746F20656E61626C6520426564204C65F7
:1003A00076656C696E670A00496E76616C696420D7
:1003B0006D6573682E0A006469730043290A006141
:1003C000626C656420286D696E2074656D70200014
:1003D000436F6C6420657874727564657320617214
:1003E000652000496E76616C696420657874727569
:1003F0006465720A0020643A0020693A0020703A6D
:100400000050726F6265204F6666736574205A00F3
:1004100050726F6265204F66667365745A3A2000A9
:10042000206F7574206F662072616E67650A002008
:10043000536572766F200020466C6F773A20004F2C
:1004400046460020204D61783A200020204D696EFC
:100450003A2000536F667420656E6473746F707316
:100460003A20003F4A206F7574206F662072616EDB
:1004700067652028302E303120746F20302E3329CC
:100480000A00205400205200416363656C6572616C
:1004900074696F6E3A2050004D31343520533C69F9
:1004A0006E6465783E206F7574206F662072616E91
:1004B00067652028302D31290A002F2F200046495A
:1004C000524D574152455F4E414D453A4D61726C18
:1004D000696E20322E302E345F44573620544D330F
:1004E00044204F455344424220534F555243455FA9
:1004F000434F44455F55524C3A68747470733A2FB9
:100500002F6769746875622E636F6D2F496E736112
:100510006E6974794175746F6D6174696F6E2F4D7A
:1005200061726C696E2F747265652F437265616CC0
:100530006974794477696E5F322E302050524F547F
:100540004F434F4C5F56455253494F4E3A312E3030
:10055000204D414348494E455F545950453A5375E3
:100560005065522043522D31302045585452554445
:1005700045525F434F554E543A3120555549443A00
:1005800063656465326132662D343161322D3437F2
:1005900034382D396231322D633535633632663366
:1005A000363766660A00204D3932205800537550A0
:1005B00065522043522D3130204F46462E004D319A
:1005C000313320530044454255473A0050726F740E
:1005D00065637465642050696E0A00256979202579
:1005E0006964202569682025696D2025697300509C
:1005F00072696E742074696D653A20004E6F204DEB
:100600006F76652E004D302053746F70004D312091
:1006100053746F7000436F6E74696E756500436C40
:1006200069636B20746F20526573756D652E2E2E75
:10063000004D65736820706F696E742063616E6E23
:100640006F74206265207265736F6C7665640A0052
:100650005A2050726F626520506173742042656445
:100660000A005A2050726F626520506173742042F4
:10067000656400486F6D652058592066697273740F
:100680000A00486F6D6520585920466972737400DE
:10069000536C6565702E2E2E0024F4D43050C38E1A
:1006A00020C2A24017828B7011127A910D816CD9F1
:1006B0000AA861E108C7586607615143061E4B5DF1
:1006C00005C145A7041A411104093D980371393148
:1006D000034036DB0265339102D4305402802E1D74
:1006E00002632CEE01752AC501B028A001102781F4
:1006F000018F2564012B244B01E0223401AC211F22
:10070000018D200D01801FFC00841EED00971DDF70
:1007100000B81CD200E61BC600201BBC00641AB245
:1007200000B219A8000A19A0006A189900D11791FF
:100730000040178B00B516840031167E00B3157982
:10074000003A157300C7146F0058146A00EE136660
:10075000008813630025135E00C7125B006C1257FC
:100760000015125400C111510070114F0021114B9E
:1007700000D61049008D1047004610440002104278
:1007800000C00F4000800F3E00420F3C00060F3BB0
:1007900000CB0E3800930E37005C0E3500270E3468
:1007A00000F30D3200C10D3100900D3000600D2EB0
:1007B00000320D2D00050D2C00D90C2B00AE0C299C
:1007C00000850C29005C0C2700350C27000E0C2638
:1007D00000E80B2400C40B2400A00B23007D0B2396
:1007E000005A0B2100390B2100180B2000F80A1FBA
:1007F00000D90A1E00BB0A1E009D0A1D00800A1DAA
:1008000000630A1C00470A1B002C0A1B00110A1A6D
:1008100000F7091A00DD091900C4091900AB09190C
:1008200000920917007B091800630917004C09168C
:100830000036091600200916000A091500F50815EA
:1008400000E0081400CC081400B8081400A4081430
:1008500000900813007D0812006B0813005808125E
:100860000046081200340811002308110012081174
:100870000001081100F0071000E0071000D0071079
:1008800000C0071000B0070F00A107100091070E6D
:100890000083070F0074070F0065070E0057070E4F
:1008A0000049070E003B070D002E070E0020070D24
:1008B0000013070D0006070D00F9060C00ED060DEC
:1008C00000E0060C00D4060C00C8060C00BC060CA8
:1008D00000B0060C00A4060B0099060C008D060B58
:1008E0000082060B0077060B006C060B0061060AFF
:1008F0000057060B004C060A0042060A0038060A9A
:10090000002E060A0024060A001A060A001006092C
:100910000007060A00FD050900F4050900EB0509BA
:1009200000E2050900D9050900D0050900C705093D
:1009300000BE050900B5050800AD050800A50509BC
:10094000009C050800940508008C05080084050833
:10095000007C050800740508006C050700650508A3
:10096000005D050700560508004E0507004705070E
:10097000004005080038050700310507002A050773
:1009800000230507001C050600160507000F0507D4
:10099000000805060002050700FB040600F5040731
:1009A00000EE040600E8040600E2040700DB04068B
:1009B00000D5040600CF040600C9040600C30406DF
:1009C00000BD040600B7040600B1040500AC04062F
:1009D00000A6040600A00405009B0406009504057B
:1009E00000900406008A04050085040500800406C2
:1009F000007A04050075040500700405006B040509
:100A00000066040500610405005C04050057040548
:100A100000520405004D0405004804050043040588
:100A2000003E0404003A04050035040500300404C7
:100A3000002C04050027040400230405001E040400
:100A4000001A04040016040500110404000D040437
:100A500000090405000404040000040400FC03046D
:100A600000F8030400F4030400F0030400EC0304A2
:100A700000E8030400E4030400E0030400DC0304D2
:100A800000D8030400D4030400D0030400CC030402
:100A900000C8030300C503030024F404D9201BC4C9
:100AA0000C5C0E9804C4095F0265077101F405F936
:100AB00000FB04B30048048700C1036900580355D4
:100AC0000003034500BE023A008402310053022AAB
:100AD000002902250004022000E4011C00C80119BD
:100AE00000AF011700980114008401130071011078
:100AF000006101100051010E0043010D0036010B91
:100B0000002B010B0020010B00150109000C01094D
:100B10000003010800FB000800F3000800EB0007D9
:100B200000E4000600DE000600D8000600D2000641
:100B300000CC000500C7000500C2000500BD000490
:100B400000B9000400B5000400B1000400AD0004C9
:100B500000A9000400A5000300A20003009F0004F8
:100B6000009B00030098000300950002009300031F
:100B700000900003008D0002008B0003008800023B
:100B8000008600020084000300810002007F000252
:100B9000007D0002007B0002007900020077000166
:100BA0000076000200740002007200010071000271
:100BB000006F0002006D0001006C0002006A00017D
:100BC0000069000200670001006600010065000185
:100BD0000064000200620001006100010060000189
:100BE000005F0002005D0001005C0001005B00018D
:100BF000005A00010059000100580001005700018F
:100C0000005600010055000100540001005300008F
:100C1000005300010052000100510001005000018A
:100C2000004F0001004E0000004E0001004D000189
:100C3000004C0001004B0000004B0001004A000185
:100C40000049000100480000004800010047000181
:100C5000004600000046000100450000004500017C
:100C60000044000100430000004300010042000076
:100C7000004200010041000000410001004000016D
:100C8000003F0000003F0001003E0000003E000168
:100C9000003D0000003D0001003C0000003C000061
:100CA000003C0001003B0000003B0001003A000056
:100CB000003A00010039000000390001003800004E
:100CC0000038000000380001003700000037000144
:100CD000003600000036000000360001003500003C
:100CE0000035000000350001003400000034000031
:100CF0000034000100330000003300000033000125
:100D0000003200000032000000320001003100001B
:100D10000031000000310001003000000030000010
:100D200000300001002F0000002F0000002F000005
:100D3000002F0001002E0000002E0000002E0001F8
:100D4000002D0000002D0000002D0000002D0001EE
:100D5000002C0000002C0000002C0000002C0001E2
:100D6000002B0000002B0000002B0000002B0001D6
:100D7000002A0000002A0000002A0000002A0001CA
:100D800000290000002900000029000000290000BF
:100D900000290001002800000028000000280000B1
:100DA00000280000002800010027000000270000A4
:100DB0000027000000270000002700010026000097
:100DC000002600000026000000260000002600018A
:100DD000002500000025000000250000002500007F
:100DE0000025000000250001002400000024000070
:100DF0000024000000240000002400010023000063
:100E00000023000000230000002300000023000056
:100E10000023000000230001002200000022000047
:100E20000022000000220000002200000022000139
:100E3000002100000021000000210000002100002E
:100E4000002100000021000000210001002000001E
:100E50000020000000200000002000000020000012
:100E6000002000000020000000200001001F000002
:100E7000001F0000001F0000001F0000001F0000F6
:100E8000001F0000001F0001001E0000001E0000E7
:100E9000001E0000001E0000003930000033250055
:100EA0000087190000B00F0000DB080000BD04003F
:100EB00000740200003F010000454550524F4D2094
:100EC000496E697469616C697A65640A00486F6D7E
:100ED000696E67204661696C6564006F70656E00BD
:100EE000545249474745524544007A5F6D696E0048
:100EF000795F6D696E00785F6D696E005265706F25
:100F00007274696E6720656E6473746F7020737499
:100F1000617475730A0020436F756E7420583A002F
:100F200020453A005761726E696E673A20486F6DCE
:100F3000696E672042756D702044697669736F72BF
:100F4000203C20310A000000FA430000FA43000070
:100F50002041000096420000A0420000A042000094
:100F6000C8430000BE42DC050000DC050000640050
:100F700000004B0000000202040000A0400000A09E
:100F8000400000004046696C2E204469612E0045F7
:100F900020696E206D6DC2B300656E7175657565F3
:100FA000696E672022004D333033205531204525AE
:100FB000692053256900504944204175746F747548
:100FC0006E65202A005049442D44202A005049448F
:100FD0002D49202A005049442D50202A0020082065
:100FE00046616374002008204D6178002008204D80
:100FF000696E004175746F74656D70006275737908
:101000003A2070617573656420666F7220696E7036
:1010100075740A00627573793A207061757365643E
:1010200020666F7220757365720A00627573793A73
:101030002070726F63657373696E670A00212120E7
:101040004B494C4C20636175736564206279207450
:101050006F6F206D75636820696E61637469766572
:101060002074696D65202D2063757272656E742021
:10107000636F6D6D616E643A20004E6F204368654A
:10108000636B73756D2077697468206C696E652079
:101090006E756D6265722C204C617374204C696EA4
:1010A000653A2000636865636B73756D206D6973C5
:1010B0006D617463682C204C617374204C696E659B
:1010C0003A20004C696E65204E756D62657220692C
:1010D00073206E6F74204C617374204C696E6520B0
:1010E0004E756D6265722B312C204C617374204CEF
:1010F000696E653A20004D31313000776169740ABC
:1011000000506C65617365205265736574005052C0
:10111000494E5445522048414C5445440025533AC9
:1011200020255300706F7765726F6666004B494CDF
:101130004C45442E20005072696E746572206861BF
:101140006C7465642E206B696C6C28292063616C5B
:101150006C6564210A006563686F3A004572726FBE
:10116000723A0042696C696E656172204C65766501
:101170006C696E6720477269643A0A0000000001DA
:10118000000000010000800055555500000040009F
:1011900033333300AAAA2A00499224000000200019
:1011A000C7711C0099991900D145170055551500B4
:1011B0003BB113002449120011111100000010006E
:1011C0000F0F0F00E3380E0043790D00CCCC0C005C
:1011D000C3300C00E8A20B0064210B00AAAA0A008D
:1011E000703D0A009DD80900427B09009224090045
:1011F000DCD30800888808001042080000000800BE
:10120000F0C107008787070075500700711C0700B1
:101210003EEB0600A1BC060069900600666606006B
:10122000703E06006118060017F4050074D1050031
:101230005BB00500B29005006272050055550500CF
:1012400078390500B81E0500050505004EEC0400C0
:1012500087D40400A1BD040090A7040049920400B3
:10126000C17D0400EE690400C75604004444040034
:101270005C32040008210400411004000000040056
:101280003FF00300F8E0030026D20300C3C30300CD
:10129000CCB503003AA803000A9B0300388E030074
:1012A000C08103009F750300D0690300505E0300F6
:1012B0001D53030034480300913D03003333030002
:1012C00016290300381F030097150300300C030094
:1012D000030303000BFA020049F10200BAE802001E
:1012E0005CE002002DD802002DD0020059C8020097
:1012F000B0C0020031B90200DAB10200AAAA0200AD
:10130000A0A30200BC9C0200FA9502005C8F0200C0
:10131000DF88020082820200457C020027760200FC
:1013200027700200436A02007C640200D05E020063
:101330003F590200C8530200FFFDFCFAF8F6F4F230
:10134000F0EEECEAE9E7E5E3E1E0DEDCDAD9D7D577
:10135000D4D2D0CFCDCBCAC8C7C5C3C2C0BFBDBC15
:10136000BAB9B7B6B4B3B2B0AFADACAAA9A8A6A586
:10137000A4A2A1A09E9D9C9A9998979594939290CF
:101380008F8E8D8B8A8988878684838281807F7EF9
:101390007D7B7A797877767574737271706F6E6D04
:1013A0006C6B6A696867666564636261605F5E5DF5
:1013B0005C5B5A5958585756555453525150504FD8
:1013C0004E4D4C4B4A4A49484746464544434242A3
:1013D00041403F3E3E3D3C3B3B3A3938383736355D
:1013E00035343332323130302F2E2E2D2C2B2B2A08
:1013F00029292827272625252423232221212020A7
:101400001F1E1E1D1C1C1B1B1A1919181817161637
:10141000151514131312121111100F0F0E0E0D0DBE
:101420000C0C0B0A0A09090808070706060505043B
:10143000040303020201000053544F505045442E50
:1014400020005072696E7465722073746F707065DD
:10145000642064756520746F206572726F72732EDC
:101460002046697820746865206572726F72206109
:101470006E6420757365204D39393920746F207280
:101480006573746172742E202854656D7065726185
:10149000747572652069732072657365742E2053AC
:1014A0006574206974206166746572207265737456
:1014B000617274696E67290A0021212053544F50CC
:1014C0002063616C6C65642062656361757365207F
:1014D0006F6620424C546F756368206572726F723C
:1014E000202D20726573746172742077697468208E
:1014F0004D3939390A002F2F616374696F6E3A00D4
:10150000627574746F6E00626567696E0073686FF0
:10151000770050726F62696E6720506F696E740059
:1015200025532025692F25690050726F62696E6707
:10153000206D65736820706F696E742000202844E8
:10154000525952554E2900473239204175746F2047
:10155000426564204C6576656C696E67003F2028A3
:101560004C2C522C462C4229206F7574206F66201B
:10157000626F756E64732E0A003F28562965726289
:101580006F7365206C6576656C20696D706C617534
:101590007369626C652028302D34292E0A0042615F
:1015A00064205A2076616C75650A004E6F2062696E
:1015B0006C696E65617220677269640A0020496E09
:1015C00076616C6964206578747275646572200058
:1015D000526573656E643A200020420020573A003D
:1015E000452025530042656420436F6F6C696E6728
:1015F0002E2E2E004265642048656174696E672E48
:101600002E2E0023646566696E652044454641556B
:101610004C545F004B6420004B6920004B7020004D
:10162000504944204175746F74756E652066696E0B
:101630006973686564212050757420746865206C36
:10164000617374204B702C204B6920616E64204BB9
:101650006420636F6E7374616E74732066726F6D55
:101660002062656C6F7720696E746F20436F6E66C1
:10167000696775726174696F6E2E680A005049441B
:10168000204175746F74756E65206661696C656460
:10169000212074696D656F75740A000A20436C61BE
:1016A0007373696320504944200A00204B643A2038
:1016B00000204B693A2000204B703A20000A204E4F
:1016C0006F206F76657273686F6F740A00205475AF
:1016D0003A2000204B753A2000206D61783A2000B6
:1016E000206D696E3A200020643A20002062696112
:1016F000733A2000504944204175746F74756E65CB
:101700002073746172740A00504944204175746FEB
:1017100074756E65206661696C6564212054656D21
:10172000706572617475726520746F6F2068696787
:10173000680A00504944204175746F74756E6520C5
:101740006661696C65642120426164206578747209
:1017500075646572206E756D6265720A00507269FB
:101760006E74205061757365640020746F6F206C17
:101770006F6E6720657874727573696F6E20707212
:101780006576656E7465640A0020636F6C6420651D
:101790007874727573696F6E2070726576656E7499
:1017A00065640A00220A00556E6B6E6F776E2063C7
:1017B0006F6D6D616E643A20220053755065522042
:1017C00043522D31302052656164792E0050726988
:1017D0006E74696E672E2E2E0050726F6265205AED
:1017E000204F66667365740046616E2053706565B0
:1017F00064004E6F7A7A6C65004D61696E00466CCC
:101800006F770020202020202020003FFFF03800AC
:101810007030FC3020FC102078102030102C00D0CC
:101820002E31D02F7BD02F7BD02E31D02C00D0204A
:10183000301020781020FC1030FC303800703FFF52
:10184000F03FFFF0380070318630238710278790F3
:101850002F87D02F03D02030102078102078102030
:1018600030102F03D02F87D0278790238710318601
:10187000303800703FFFF0041040020820020820BA
:10188000041040082080104100104100082080040E
:1018900010400000001FFFF81FFFF84F6666004F62
:1018A0006E0054656D7065726174757265004D38B7
:1018B000340044697361626C6520537465707065AF
:1018C0007273004C6576656C20436F726E6572733F
:1018D000004732380A473239004C6576656C204241
:1018E000656400473238004175746F20486F6D653C
:1018F000005072656865617420504C4120426564F7
:10190000005072656865617420504C4120456E64DA
:1019100000507265686561742041425320456E64D1
:1019200000507265686561742041425320426564CD
:1019300000436F6F6C646F776E005072656865610D
:101940007420414253005072656865617420504CA8
:10195000410053746F72652053657474696E6773C8
:10196000003F00436F6E66696775726174696F6EE0
:10197000004D3139305335350A4732380A4732394C
:101980000A4D3430300A4D313034533231350A4744
:1019900032380A4D313039533231350A4D34323014
:1019A00053310A47315831303059313030463530B3
:1019B00030300A47315A300A4D3530300A4D313116
:1019C0003720536574205A204F6666736574004D46
:1019D000313036533132380A4D3330334338533295
:1019E00031354530550A4D3530300A4D31313720CB
:1019F0005049442054756E6520446F6E65004D312A
:101A000039305335350A4D313034533231350A4788
:101A100032380A4732394C310A4731205831303098
:101A20005931303046353030300A47315A30004D68
:101A30003530300A4D3131372053657474696E6723
:101A4000732053746F726564005072657020666F06
:101A500072205A2041646A757374005049442054BE
:101A6000756E65005365747570004261636B004D5F
:101A70006F74696F6E00526573756D652050726981
:101A80006E74004C6576656C696E6720546F6F6C80
:101A9000730053746F70205072696E7400496E66E3
:101AA0006F2053637265656E004A756E6374696F6B
:101AB0006E204465760050726F62652059204F6633
:101AC000667365740050726F62652058204F6666B9
:101AD000736574004573746570732F6D6D005A7370
:101AE000746570732F6D6D005973746570732F6D0D
:101AF0006D005873746570732F6D6D0043616E6374
:101B0000656C00496E6974004D34323800496E6965
:101B10007469616C697A6520454550524F4D0046A5
:101B2000696C616D656E740053746570732F6D6DB3
:101B30000050726F6265204F666673657473004A69
:101B400065726B00416363656C65726174696F6E89
:101B50000056656C6F636974790053657420486F33
:101B60006D65204F66667365747300416476616EBF
:101B70006365642053657474696E6773004E65789D
:101B80007420506F696E74004E65787400486F6DF4
:101B9000696E672058595A00436D643A2053746F38
:101BA0007700436D643A204465706C6F7900436D33
:101BB000643A2053572D4D6F646500436D643A209D
:101BC00053656C662D5465737400436D643A2052FE
:101BD0006573657400526573746F72652044656641
:101BE00061756C7473004C6F616420536574746923
:101BF0006E677300507265686561742041425320BE
:101C0000436F6E66005072656865617420504C4188
:101C100020436F6E6600424C546F75636800202D40
:101C200020496E76616C69642065787472756465AC
:101C300072206E756D62657220210A00544845520B
:101C40004D414C2052554E415741590054686572E0
:101C50006D616C2052756E61776179004572723AE0
:101C6000204D415854454D50004D415854454D501C
:101C700020747269676765726564004572723A2004
:101C80004D494E54454D50004D494E54454D502000
:101C900074726967676572656400202F0020424096
:101CA0003A0020403A001000C90210012C01400106
:101CB000220170011801B0010E01F001040150026F
:101CC000FA00B002F0003003E600D003DC0090041C
:101CD000D2007005C800A006BE000008B400B0091C
:101CE000AA00D00BA000600E960060118C000015B9
:101CF000820020197800C01D6E00A0226400B02769
:101D00005A00902C500000314600E0343C0010385E
:101D10003200903A2800603C1E00A03D1400803E36
:101D20000A00203F000050757267654D6F726500B4
:101D3000554E4B4E4F574E20535441544500474348
:101D40004F44455F494E464F004C43445F50415518
:101D500053455F524553554D450046494C414D450D
:101D60004E545F52554E4F55545F434F4E54494E5B
:101D700055450046494C414D454E545F52554E4FD6
:101D80005554004D38373620526573706F6E646954
:101D90006E672050524F4D50545F004572726F7203
:101DA0002077726974696E6720746F2045455052C0
:101DB0004F4D210A000F150E1216170E1303021AAB
:101DC0001401000E0C190DFF180C040001656E645F
:101DD000002020506C616E6E657242756666657299
:101DE00042797465733A20002046726565204D651E
:101DF0006D6F72793A2000436F6D70696C65643A5B
:101E0000204D617220203820323032300A00204CC0
:101E100061737420557064617465643A20323032A5
:101E2000302D30322D3238207C20417574686F722D
:101E30003A2054696E794D616368696E6573334405
:101E40000A00322E302E345F4457360A004D61723C
:101E50006C696E0020536F667477617265205265FD
:101E60007365740A00205761746368646F67205259
:101E7000657365740A002042726F776E206F757407
:101E80002052657365740A002045787465726E612E
:101E90006C2052657365740A00506F7765725570D7
:101EA0000A00456E6473746F7073002553202563B8
:101EB00020256320256320256300205A3A002059FD
:101EC0003A00656E6473746F7073206869743A20A9
:101ED000004572723A207574663820666F6E742001
:101EE0006E6F7420696E697469616C697A65642EBD
:101EF00000000C0D00FE07022603BC017FFE08FE59
:101F000008FE05080806000040F0C8888898781088
:101F1000050808060000C0F88888888888F8050544
:101F2000050600012030F8302005080806000020D2
:101F300070F820202020E00509090600FF2070A885
:101F4000A8B888887020050606060001E08CEA8C97
:101F50008A0A0509090600FFF8A88888888888A8E1
:101F6000F8050A0A0600FE205050505088A8A8889C
:101F70007003030306000340A040FFFFFFFFFFFFC5
:101F8000FFFFFFFFFFFFFFFFFFFFFFFFFFFFFFFF61
:101F90000000000605FF0107070602008080808020
:101FA000800080030303060105A0A0A00506060625
:101FB000000050F85050F8500509090600FF207045
:101FC000A8A07028A87020050707060000C8C81040
:101FD0002040989805070706000040A0A040A89060
:101FE000680103030602058080800309090601FFDA
:101FF0002040408080804040200309090601FF8086
:10200000404020202040408005070706000020A80F
:10201000702070A8200505050600012020F820206A
:102020000203030601FFC04080050101060003F81A
:10203000020202060100C0C00507070600000810E2
:102040001020404080050707060000708898A8C847
:10205000887003070706010040C040404040E0058B
:102060000707060000708808102040F805070706DB
:102070000000F808103008887005070706000010F7
:10208000305090F81010050707060000F880F0089F
:10209000088870050707060000304080F0888870C7
:1020A000050707060000F808101020202005070784
:1020B0000600007088887088887005070706000091
:1020C00070888878081060020505060100C0C0000D
:1020D000C0C00206060601FFC0C000C04080030564
:1020E000050601012040804020050303060002F898
:1020F00000F8030505060101804020408005070720
:102100000600007088102020002005070706000048
:102110007088B8A8B8807005070706000070888826
:10212000F8888888050707060000F0484870484886
:10213000F00507070600007088808080887005071A
:1021400007060000F04848484848F0050707060021
:1021500000F88080F08080F8050707060000F8800E
:1021600080F08080800507070600007088808098D6
:102170008870050707060000888888F88888880323
:102180000707060100E04040404040E00507070621
:102190000000381010101090600507070600008836
:1021A00090A0C0A09088050707060000808080806E
:1021B0008080F805070706000088D8A888888888E6
:1021C0000507070600008888C8A8988888050707BB
:1021D0000600007088888888887005070706000058
:1021E000F08888F0808080050707060000708888E6
:1021F00088A89068050707060000F08888F0A0907E
:102200008805070706000070888070088870050739
:1022100007060000F82020202020200507070600E0
:1022200000888888888888700507070600008888E5
:10223000888850502005070706000088888888A8ED
:10224000A850050707060000888850205088880598
:102250000707060000888850202020200507070671
:102260000000F80810204080F80309090601FFE08B
:1022700080808080808080E0050707060000804025
:1022800040201010080309090601FFE0202020204B
:10229000202020E0050303060005205088050101E9
:1022A0000600FEF80303030601058040200505052E
:1022B000060000700878887805070706000080800F
:1022C000F0888888F0050505060000708080887019
:1022D000050707060000080878888888780505053E
:1022E0000600007088F0807005070706000030487F
:1022F00040E04040400507070600FE708888887867
:1023000008700507070600008080F0888888880329
:1023100007070601004000C0404040E004090906EC
:1023200001FE100030101010109060050707060025
:102330000080808890E09088030707060100C04075
:1023400040404040E0050505060000D0A8A8A8A828
:10235000050505060000B0C8888888050505060043
:102360000070888888700507070600FEF088888856
:10237000F080800507070600FE78888888780808BE
:10238000050505060000B0C880808005050506002B
:102390000078807008F00507070600002020F8206C
:1023A000202018050505060000888888986805051E
:1023B000050600008888885020050505060000886D
:1023C00088A8A850050505060000885020508805FB
:1023D00007070600FE88888850204080050505060E
:1023E0000000F8102040F80309090601FF204040D2
:1023F0004080404040200109090602FF8080808023
:1024000080808080800309090601FF8040404020D1
:102410004040408005030306000248A890FF565440
:10242000726176204D696E00566D696E00566D6161
:1024300078204500566D6178205A00566D617820ED
:102440005900566D6178205800416D617820450033
:10245000416D6178205A00416D6178205900416DCD
:102460006178205800412D54726176656C00412DD1
:102470005265747261637400416363656C005061FE
:10248000757365205072696E740063616E63656C6C
:10249000005072696E742041626F7274656400440A
:1024A00069736D6973730055492041626F72746579
:1024B0006400706175736500526573756D650055D4
:1024C0004920506175736500726573756D65006EA6
:1024D0006F74696669636174696F6E200000002122
:1024E00000240027002A0000002200250028002BDD
:1024F0000000002000230026002900020202020240
:102500000202020404040404040404030303030396
:10251000030303010101010101010101020408108B
:1025200020408001020408102040800102040810AD
:1025300020408080402010080402010000000102B9
:1025400000090A0000000004030807000000000062
:1025500000000000000000000000004D6F766520C4
:1025600025736D6D004D6F766520302E316D6D00D9
:102570004D6F766520316D6D004D6F766520313081
:102580006D6D004D6F7665204178697300486F74FA
:10259000656E6420746F6F20636F6C64004578749F
:1025A0007275646572004D6F7665205A004D6F76C6
:1025B000652059004D6F766520580070726F6D7000
:1025C000745F00453100626564002C207379737478
:1025D000656D2073746F7070656421204865617447
:1025E00065725F49443A200048656174696E6720EE
:1025F0004661696C65640048656174696E67206650
:1026000061696C6564004D313132205368757464C2
:102610006F776E00205A3A200020593A2000426518
:102620006420583A200050726F62696E67204661DC
:10263000696C65640A0050726F62696E672046615A
:10264000696C656400486F6D65202573257325737B
:10265000204669727374000010E011241FBECFEF92
:10266000D0E4DEBFCDBF12E0A0E0B1E0ECE2FDEDD2
:1026700001E00BBF02C007900D92A434B107D9F757
:102680002FE0A4E4B2E001C01D92A433B207E1F749
:1026900013E1CDE2D3E104C02197FE010E9437ECA3
:1026A000CC32D107C9F70E943DDC0C9494EE0C9417
:1026B00000002F923F924F925F926F927F928F9283
:1026C0009F92AF92BF92CF92DF92EF92FF920F93C1
:1026D0001F93CF93DF93CDB7DEB7C154D1090FB6A7
:1026E000F894DEBF0FBECDBF20914D032EAB81E02D
:1026F00080934D0380914C038D3409F44FC484358D
:1027000011F40C947826873411F00C949326809160
:102710004A0390914B038C31910509F4A8C18CF4C4
:102720008430910509F4D6C01CF4029738F132C404
:102730008531910511F40C9495264B9709F408C145
:1027400029C48A32910509F4FEC244F48D31910501
:1027500009F49DC14E9709F4AEC11CC48B35910597
:1027600009F46EC28C35910509F46FC28A35910562
:1027700009F010C4109249030C949526809123010E
:10278000882311F40C9495262FE7822E21E0922EB7
:1027900039E3C32E33E0D32E42E1E42E45E0F42E9C
:1027A0005BE0A52E5FE0B52E10E0D4018D914D01C8
:1027B0000E944F66882311F10E94EA652B013C01BB
:1027C000812F0E942464882351F0F70120813181F8
:1027D00042815381C301B2010E9441EC09C0D5017D
:1027E0002D913D914D915C91C301B2010E9440EC4D
:1027F000F60160837183828393830AC0F70180812D
:102800009181A281B381F60180839183A283B383F6
:102810001F5FF4E0CF0ED11C24E0E20EF11C34E087
:10282000A30EB11C133009F685E40E944F6688237D
:1028300001F10E94EA656B017C0183E00E9424643F
:10284000882371F020911E0530911F0540912005CD
:1028500050912105C701B6010E9441EC6B017C013A
:10286000C0924503D0924603E0924703F09248039A
:1028700010C080911E0590911F05A0912005B09178
:1028800021058093450390934603A0934703B0939B
:10289000480340E050E0BA0186E40E94696D20E000
:1028A00030E0A9010E94C4ED181684F40E94EA6584
:1028B00020E030E040E752E40E94C4EC60936B01FA
:1028C00070936C0180936D0190936E010E94C933E7
:1028D0000C94952680E50E944F66882329F00E947B
:1028E00040646B017C0103C0C12CD12C760183E5CF
:1028F0000E944F66882361F00E94EA6520E030E084
:102900004AE754E40E94B0E50E943DED6B017C0172
:102910000E942F5F80910E03811105C060E080E965
:1029200096E00E94C1BE0E9494CAC60ED71EE81E41
:10293000F91E0E9494CADC01CB018C199D09AE09D5
:10294000BF09B7FD02C00C9495260E94B94BF1CF88
:102950000E946FD681110C9495268CE0E3E7F1E09C
:10296000DE01119601900D928A95E1F780E50E94B3
:102970004F66882319F00E94B26501C060E080E0D4
:1029800090E0A8E4B2E48AA39BA3ACA3BDA380E03B
:1029900090E0A0EAB0E48E8F9F8FA8A3B9A3613026
:1029A00019F0623039F029C0BE01625E7F4FCE015E
:1029B000099644C029853A854B855C8560911A0546
:1029C00070911B0580911C0590911D050E9441ECA2
:1029D0006B017C0120E030E048EC53E40E944AE5C2
:1029E00087FD06C0C12CD12C98ECE92E93E4F92E7A
:1029F000CE8ADF8AE88EF98E1CC0A0901A05B090AE
:102A00001B05C0901C05D0901D05E984FA840B8538
:102A10001C859701A801B501C6010E944AE587FD02
:102A200002C075018601C701D8018E8B9F8BA88FCC
:102A3000B98FBE01625E7F4FCE0146960E94763806
:102A400088E0FE013196DE01569601900D928A953E
:102A5000E1F7AE014E5D5F4FBE01665E7F4FCE0176
:102A600046960E9454380E9420390C9495268091F5
:102A70002B0F8770873011F00C94A22660E08FE452
:102A80000E94A06681110C9495260C94A2260E94A7
:102A90006FD681110C94952680910D03882311F433
:102AA0000C94C42860E08FE40E94A06681110C940D
:102AB00095260C94C4282091170F3091180F40913F
:102AC000190F50911A0F60911205709113058091A2
:102AD0001405909115050E9441ECAB01BC0188E5FD
:102AE0000E94696D69837A838B839C8320911B0F7D
:102AF00030911C0F40911D0F50911E0F60911605D3
:102B00007091170580911805909119050E9441EC6C
:102B1000AB01BC0189E50E94696D6D837E838F8363
:102B20009887BE016B5F7F4FCE0101960E947D6446
:102B3000882311F40C94952680E00E94E8470E94B7
:102B4000593761E085E40E94A066182F21E0482FE4
:102B5000BE016B5F7F4FCE0101960E9414D76B01BF
:102B60007C019B01AC010E9442EE81115FC0898013
:102B70009A80AB80BC8020E030E0A901C501B4019F
:102B80000E944AE587FD05C027E137EB41E558E3A0
:102B900004C027E137EB41E558EBC501B4010E94C1
:102BA00041ECAB01BC018EE196E20E94E54A8D80CA
:102BB0009E80AF80B88420E030E0A901C501B40157
:102BC0000E944AE587FD05C027E137EB41E558E360
:102BD00004C027E137EB41E558EBC501B4010E9481
:102BE00041ECAB01BC0189E196E20E94E54A20E09C
:102BF00030E0A901C701B6010E944AE587FD05C082
:102C000067E177EB81E598E304C067E177EB81E565
:102C100098EBA70196010E9441ECAB01BC0184E155
:102C200096E20E94E54A8AE00E9475B00E94403711
:102C3000113011F40E943E5E0E9420390C949526BA
:102C40008FE0809349030C949526FFE72F2EF1E047
:102C50003F2EAFEFEA2EA2E0FA2E22E135E03FA3AD
:102C60002EA3BBE0CB2EBFE0DB2E00E010E0D101B5
:102C70008D911D010E944F66882309F44BC00E946C
:102C8000EA652B013C01133049F0F60120813181C6
:102C9000428153810E9440EC2B013C01AEA1BFA1B7
:102CA0002D913D914D915C91C301B2010E9440EC88
:102CB0004B015C012DEB37E346E855EB0E94C4ED78
:102CC00087FD0AC02DEB37E346E855E3C501B401A3
:102CD0000E944AE51816F4F4133051F440921E0590
:102CE00050921F05609220057092210501E012C0EC
:102CF000A5019401F70160817181828193810E9415
:102D000041ECD7016D937D938D939C931397812F05
:102D10000E94A9331F5FB4E0EB0EF11CEEA1FFA1EE
:102D20003496FFA3EEA3F4E0CF0ED11C143009F0CB
:102D30009ECF002321F08EE195E00E943F5F0E942C
:102D400020390C94952680912301882311F40C944A
:102D5000952689E40E944F66E82E882321F00E9480
:102D6000E665082F01C000E08AE40E944F66F82E55
:102D7000882321F00E94E665182F01C010E0EE20A4
:102D800011F0053020F4FF2041F0153030F081E3E0
:102D900096E00E944B4A0C94952680E1E2E1F5E032
:102DA000A9E3B3E001900D928A95E1F7EE2019F1C5
:102DB000602F000F770B880B990B0E9451E5209133
:102DC000EF023091F0024091F1025091F2020E9424
:102DD000B0E52091F7023091F8024091F90250914C
:102DE000FA020E9441EC6093390370933A03809396
:102DF0003B0390933C03FF2019F1612F110F770BD8
:102E0000880B990B0E9451E52091F3023091F40256
:102E10004091F5025091F6020E94B0E52091FB022C
:102E20003091FC024091FD025091FE020E9441EC63
:102E300060933D0370933E0380933F039093400360
:102E400060E080E50E94A0668823C1F1EE20D1F009
:102E50002091170F3091180F4091190F50911A0FB0
:102E60006091390370913A0380913B0390913C0348
:102E70000E9440EC6093390370933A0380933B03C4
:102E800090933C03FF20D1F020911B0F30911C0F39
:102E900040911D0F50911E0F60913D0370913E03B4
:102EA00080913F03909140030E9440EC60933D036A
:102EB00070933E0380933F039093400340E050E0C3
:102EC000BA0186E40E94696D6B017C0120E030E06C
:102ED000A9010E94C4ED18165CF420E030E040E740
:102EE00052E4C701B6010E94C4EC6B017C0103C02F
:102EF000C12CD12C760180906B0190906C01A09038
:102F00006D01B0906E0120E030E0A901C701B6016B
:102F10000E944AE5882341F0C0926B01D0926C0177
:102F2000E0926D01F0926E0100912001109121015B
:102F300084E690E09093210180932001C0904101AC
:102F4000D0904201E0904301F090440180E090E095
:102F5000A0E8BFE38093410190934201A093430115
:102F6000B09344010E94C93380926B0190926C012E
:102F7000A0926D01B0926E01109321010093200187
:102F8000C0924101D0924201E0924301F09244018B
:102F90000C9495260E9435870C94952680914A03BF
:102FA00090914B038C38910509F4E3C30CF094C065
:102FB0008836910509F4EEC20CF044C08C349105BA
:102FC00009F4D3C2FCF48231910509F420C46CF4F5
:102FD00097FF02C00C947526823091050CF43AC11B
:102FE000419709F4C3C10C9475268A32910509F4FE
:102FF00090C28B34910509F4B4C24F9711F00C9430
:103000007526D9C18335910509F4F9C37CF481355E
:10301000910509F4D7C30CF0EAC38D34910511F082
:103020000C9475260E945F5A0C949526853591055F
:1030300009F437C40CF4EBC38C35910509F456C47C
:103040000C9475268037910511F40C949526BCF4E8
:103050008C36910511F40C9495263CF48A36910532
:1030600009F4D0C20CF4BAC2F1C28E36910509F44B
:10307000F8C20CF009C30E94B6740C9495268537EB
:10308000910509F4F2C48CF48237910509F4E7C480
:103090000CF445C38337910511F00C9475268EEB23
:1030A00094E00E944B4A0C9495268737910509F4C9
:1030B0002EC50CF4F1C48837910509F42CC5893765
:1030C000910511F00C94752610920B0310920C03CD
:1030D0000E94823A0C9495268E3221E0920711F4D8
:1030E0000C94C9220CF04BC08E3C910509F4E6C645
:1030F000FCF4893C910509F4C2C574F48E3B91053A
:1031000009F45CC3883C910509F46CC581399105CB
:1031100011F00C94752608C58C3C910509F4FAC58C
:103120000CF06CC68B3C910509F4D2C50C94752645
:10313000823E910511F40C94A92074F48C3D910504
:1031400009F4A4C78D3D910509F4ADC7833D9105F0
:1031500011F00C947526D4C68232A1E09A0711F4BE
:103160000C948B218D32B1E09B0711F40C94D62185
:103170008831914011F00C9475260C94F420853A16
:10318000F1E09F0711F40C94832494F5813931E028
:10319000930711F40C94102394F48033B1E09B074F
:1031A00011F40C94562214F40C940D2380399140A0
:1031B00011F00C9475260E942F5F0C9495268A3985
:1031C00021E0920711F40C949526843A31E093079C
:1031D00011F40C941A238239914011F00C94752645
:1031E0000E9474640E943E5E0E9420390C949526D1
:1031F000863FB1E09B0711F40C945A2584F4843F78
:10320000F1E09F0711F40C94542514F00C94572509
:103210008C3A914011F40C94EC240C94752683356F
:10322000A3E09A0711F40C946E253CF4883F91407A
:1032300011F40C945D250C9475268C36F3E09F07F1
:1032400011F40C949526873E934011F40C94672654
:103250000C947526A090ED02B090EE0280E50E94DD
:103260004F66882359F00E9440646B017C0111E095
:10327000672B682B692B31F410E004C010E0C12CDF
:10328000D12C760183E50E944F66882311F40C94BB
:10329000C7280E94EA6520E030E04AE754E40E9433
:1032A000B0E50E943DED6B017C0111110BC0672B55
:1032B000682B692B39F4A114B10421F0D5018C914C
:1032C000811102C010E001C011E00E942F5F1123A4
:1032D00041F080912A0F811109C0C5010E9492BE60
:1032E00005C060E08EE196E00E94C1BE10914D03E2
:1032F00083E080934D0381E08093EC0280914A0348
:1033000090914B03892B19F465E076E002C06DE0E3
:1033100076E020E030E045E156E082E00E94EB6696
:10332000C114D104E104F10431F00E9494CAC60E24
:10333000D71EE81EF91E8091EC02882311F40C942C
:10334000CC28C114D104E104F10411F40C94D32865
:103350000E9494CADC01CB018C199D09AE09BF09FA
:10336000B7FF02C00C94D3280C94CC2885E292E0DD
:103370000E9450648823A1F088E50E941D66811197
:103380005E9889E50E941D6681115E988AE50E941B
:103390001D66882311F40C94952615980C94952697
:1033A00060E08CEF95E00E94C1BE5E985E98159833
:1033B0005E980C9495260E94EC597B018C0120E8C4
:1033C00031E541E050E00E94A0EBC9016DE671E0FB
:1033D0000E940FEC4B015C01C801B70120E13EE007
:1033E00040E050E00E94A0EBCA01B90128E130E0C2
:1033F00040E050E00E94A0EB762E672EC62ED72E1E
:10340000ECE32E2E312C412C512CC801B701A20126
:1034100091010E94A0EBF62EE72ECA01B901A2018C
:1034200091010E94A0EBCB018E010F5F1F4F811411
:10343000910499F0EF92FF927F936F936F927F9236
:10344000BF92AF929F928F928BED95E09F938F9357
:103450001F930F930E94E2E413C0A114B104B1F0D2
:10346000EF92FF927F936F936F927F92BF92AF9292
:103470008FED95E09F938F931F930F930E94E2E44B
:103480000FB6F894DEBF0FBECDBF30C0CD2879F0A7
:10349000EF92FF927F936F936F927F9283EE95E00E
:1034A0009F938F931F930F930E94E2E4E9CF892BA0
:1034B00069F0EF92FF927F936F9387EE95E09F9371
:1034C0008F931F930F930E94E2E4DACFEF92FF9263
:1034D0008BEE95E09F938F931F930F930E94E2E4EE
:1034E0000F900F900F900F900F900F9080912A0FD8
:1034F000811103C0C8010E9492BE0E941A4BB801FC
:103500008FEE95E00E94034B8AE00E9475B00C9408
:10351000952683E50E944F66882311F40C94952626
:103520000E94C265F82E6FEF7FEF80E50E948566EE
:103530008C0197FF02C00C949526843021F4F09200
:103540003E050C94952660E089E40E94A0668111F6
:103550000C94D728802F0E9418DC811117C60C9478
:10356000D7280E943B5A0C949526809111058130F2
:1035700011F00C94952682E0809311050E9494CA64
:103580006093E8027093E9028093EA029093EB0261
:103590000C9495268091020B83FF02C00C94952613
:1035A0000E945C6687FF02C00C94952683E50E940A
:1035B0004F66882379F00E94EA650E9436EDCB01C0
:1035C0000E94FCA40E94F6A6811104C00E945F5ACA
:1035D0000E9424870E94865E0C9495260E945C6659
:1035E000182F87FD0AC085EC92E00E944B4A812F7C
:1035F0000E940CA58AE00E9475B0BEA9B0934D034D
:103600000C94612960E080E50E94946681110C941D
:10361000952681E40E941D66882321F060913E0575
:10362000062F02C00FEF10E083E50E944F6688234B
:1036300049F00E94B2658B016F3F710519F010F0DF
:103640000FEF10E000933E050C94952660E080E5B6
:103650000E94946681110C94952610923E050C945C
:1036600095268EE40E944F66882311F40C949526CB
:103670000E94B2656093E4027093E5028093E602D3
:103680009093E7020C94952683E50E941D6688239B
:1036900031F060E083E50E9494668093020B0E9403
:1036A0001A4B85EC95E00E944B4A8091020B8823CF
:1036B00069F17BE8E72E72E0F72E00E010E020E0F1
:1036C0008091020B90E0A0E0B0E0002E04C0B6951F
:1036D000A795979587950A94D2F780FF0EC0DD24B1
:1036E000D394D20E222319F08CE20E9475B0F70118
:1036F000859194910E944B4A2D2D0F5F1F4FE2E060
:10370000EE0EF11C05301105D9F604C089E291E1F5
:103710000E944B4A8AE00E9475B00C94952683E57E
:103720000E944F66882381F00E94C265282F30E0F6
:103730002D33310524F480931F010C9495268CE3DE
:1037400080931F010C9495260E941A4BC0901F0174
:10375000D12CE12CF12C8EEB95E00E944B4A4AE0F3
:10376000C701B6010E947CB08AE00E9475B00C943B
:1037700095268091020B83FF02C00C94952683E569
:103780000E944F66882379F00E94EA650E9436ED18
:103790006C38710514F06CE870E07093D602609399
:1037A000D5020E945DA30E94F6A681110C94952675
:1037B0000E945F5A0E9424870C9495260E94E17211
:1037C0000C9495260E9409A70E945F5A0E949E6051
:1037D0000E943D6468EE73E080E090E00E94274A1A
:1037E00060E08DEA95E00E94C1BE0C949526809120
:1037F00049038F7D8061809349030C9495268091C5
:1038000049038F7E8062809349030C94952683E55B
:103810000E944F668823A1F00E94EA6520E030E014
:103820004AE754E40E94B0E50E943DED60931B011D
:1038300070931C0180931D0190931E010C9495269A
:1038400085E292E00E945064882339F10E942F5F44
:1038500088E50E941D66882331F05E9A8091290FC9
:103860008E7F8093290F89E50E941D66882331F0A1
:103870005E9A8091290F8D7F8093290F8AE50E949F
:103880001D66882311F40C949526159A8091290FB2
:103890008B7F8093290F0C9495260E949E600C9438
:1038A000952683E50E941D66882311F40C949526C5
:1038B0000E9494CA6093230F7093240F8093250F66
:1038C0009093260F0E94EA6520E030E04AE754E436
:1038D0000E94B0E50E943DED6093C9027093CA0258
:1038E0008093CB029093CC020C9495260E945C6648
:1038F00087FF02C00C94952685E292E00E945064F6
:10390000882309F475C05FE7C52E51E0D52E63E02A
:10391000E62E6BE0F62E10E0D6018D916D010E942F
:103920004F66882309F459C0133009F04FC00E9434
:10393000EA654B015C0120E030E040EA51E40E947E
:103940004AE587FF3AC0A50194016091230B70916D
:10395000240B8091250B9091260B0E94C4EC2B0127
:103960003C019B01AC016091330B7091340B809151
:10397000350B9091360B0E94B0E56093330B70933A
:10398000340B8093350B9093360B60913205709118
:10399000330580913405909135050E944FE5A301D0
:1039A00092010E94B0E50E943DED60933205709354
:1039B000330580933405909335058092230B9092C4
:1039C000240BA092250BB092260B07C00E94EA653B
:1039D000F701648B758B868B978B1F5FF4E0EF0E7E
:1039E000F11C143009F098CF0E940B5F0C949526BF
:1039F0000E941A4B4091170B5091180B6091190BB4
:103A000070911A0B86EA95E00E94E54A40911B0BE3
:103A100050911C0B60911D0B70911E0B81EB95E278
:103A20000E94E54A40911F0B5091200B6091210BA1
:103A30007091220B8AEA95E20E94E54A4091230B9D
:103A40005091240B6091250B7091260B8DE494E22C
:103A50000E94E54A8AE00E9475B00C9495260E9467
:103A60002F5F0E9420390C9495268091ED02909151
:103A7000EE02009769F0DC012C91222349F020919D
:103A80002A0F21110C9495260E9492BE0C94952623
:103A90000E9424870C9495260091ED021091EE026D
:103AA00094E0F12C40E0915021F1F8018081282F21
:103AB0002B7F213421F421812133D9F407C08035B3
:103AC000C1F4818180538A3048F013C0813421F0E1
:103AD000853421F441E002C0FF24F39498012E5F65
:103AE0003F4F89012F5F3F4FF80180818032C9F33A
:103AF000DACF41110E941A4BFF2021F08AEB94E0AB
:103B00000E944B4AC8010E9480B10C9495260E94E5
:103B1000333A0C94952681E080930B0380930C0339
:103B20000E94823A0C94952660E070E083E50E9442
:103B300085668C0111270230110544F00E94164B56
:103B400088E994E00E944B4A0C94952688E40E94F0
:103B50004F668823A9F00E94E6658A3A91053CF0F9
:103B6000843BF1E09F072CF083EB91E002C08AEAEE
:103B700090E0F801EE0FFF1FEB53FD4F9183808320
:103B800086E40E944F66882381F00E94E66597FDD7
:103B900007C08F3F910529F024F08FEF90E001C01E
:103BA00080E0F801ED53FD4F808382E40E944F6670
:103BB000882311F40C9495260E94E66585309105C2
:103BC00034F08D3891052CF08CE890E002C085E04F
:103BD00090E0000F111FF801E154FD4F91838083A5
:103BE0000C9495260E945C66182F87FF02C00C94E7
:103BF000952684E40E941D668823E9F10E94EA6507
:103C00006B017C0101E020E030E0A9010E944AE55F
:103C1000811101C000E00093BE0220E030E0A90164
:103C2000C701B6010E944AE5882329F124E0120267
:103C3000F0011124E654FD4FC082D182E282F3826A
:103C400020E030E0A9016091BA027091BB0280913E
:103C5000BC029091BD020E944AE581110CC080E037
:103C600090E0A0EEBFE38093BA029093BB02A093D2
:103C7000BC02B093BD020E94FD5B0C9495260E948D
:103C80005C6687FF02C00C9495269FE7E92E91E0C1
:103C9000F92E03E01BE023E1C22E2BE0D22ED70148
:103CA0008D917D010E941D66882359F00E94EA656E
:103CB0000E943DEDF80160837183828393830E94AB
:103CC000C45E0C5F1F4FC016D10649F70C949526B1
:103CD0000E945C6687FF02C00C9495268FE7E82E51
:103CE00081E0F82E03E01BE0D7018D917D010E9459
:103CF0001D66882339F00E94EA65F80164A375A364
:103D000086A397A30C5F1F4FFBE003311F0761F7EA
:103D10000C9495268AE292E00E945064811128C09A
:103D20004091370B5091380B6091390B70913A0BE1
:103D300088E894E00E94E54A40913B0B50913C0B8F
:103D400060913D0B70913E0B85E894E00E94E54A3E
:103D500040913F0B5091400B6091410B7091420B91
:103D600082E894E00E94E54A8AE00E9475B0DDC7CF
:103D700083E50E944F66882391F00E94EA65609374
:103D8000370B7093380B8093390B90933A0B6093F9
:103D90003F0B7093400B8093410B9093420B80E557
:103DA0000E944F66882351F00E94EA656093370BAA
:103DB0007093380B8093390B90933A0B82E50E94F5
:103DC0004F66882351F00E94EA6560933B0B709325
:103DD0003C0B80933D0B90933E0B84E50E944F6615
:103DE000882309F4A2C70E94EA6560933F0B709391
:103DF000400B8093410B9093420B97C78FE292E068
:103E00000E945064882309F490C782E40E941D66D2
:103E1000882351F00E9440646093130B7093140B3D
:103E20008093150B9093160B83E50E941D668823E3
:103E300051F00E94EA656093430B7093440B8093AA
:103E4000450B9093460B84E50E941D66882351F034
:103E50000E94EA656093470B7093480B8093490B6F
:103E600090934A0B8AE40E941D66882309F45DC77B
:103E70000E94EA656B017C012AE037ED43E25CE3D6
:103E80000E94C4ED87FD13C02AE939E949E95EE3E0
:103E9000C701B6010E944AE518164CF0C0922205EF
:103EA000D0922305E0922405F09225053EC70E949A
:103EB000164B83E694E00E944B4A37C71FE7C12E9A
:103EC00011E0D12E0EEAE02E02E0F02E10E0D60135
:103ED0008D916D010E941D66882351F00E94EA6554
:103EE000F7016083718382839383812F0E94A933BA
:103EF0001F5FF4E0EF0EF11C133049F70C949F168E
:103F000040900B0F50900C0F60900D0F70900E0FA3
:103F10002091030130910401409105015091060167
:103F2000C301B2010E9441EC6EA37FA388A799A7A9
:103F300080900F0F9090100FA090110FB090120F63
:103F400020910701309108014091090150910A0127
:103F5000C501B4010E9441EC6AA77BA78CA79DA76D
:103F6000C090130FD090140FE090150FF090160F23
:103F700020910B0130910C0140910D0150910E01E7
:103F8000C701B6010E9441EC6EA77FA788AB99AB31
:103F900020910F01309110014091110150911201B7
:103FA000C301B2010E9441EC2B013C01209113019D
:103FB000309114014091150150911601C501B401D1
:103FC0000E9441EC4B015C012091170130911801D6
:103FD0004091190150911A01C701B6010E9441ECAC
:103FE0006B017C010E941A4B83E594E00E944B4ACE
:103FF00083E50E941D66882321F00E94D665809388
:10400000020180910201811103C08FE394E002C09C
:104010008FEA92E00E944B4A8BE494E00E944B4A64
:104020004EA15FA168A579A58AEA95E00E94E54ABC
:104030004AA55BA56CA57DA581EB95E20E94E54AAA
:104040004EA55FA568A979A98AEA95E20E94E54A8A
:1040500089E098E10E944B4A83E494E00E944B4A35
:10406000B301A2018AEA95E00E94E54AB501A401E4
:1040700081EB95E20E94E54AB701A6018AEA95E242
:104080000E94E54A8AE00E9475B04FC683E50E940F
:104090004F66882309F449C60E94E6659093210182
:1040A0008093200142C60E945C66F82E87FD3DC6C3
:1040B00083E50E944F660F2D0F2C000C110B8823F7
:1040C00069F10E94E665F801EE0FFF1FE050FF4F17
:1040D00091838083000F111F000F111F98012F5B28
:1040E0003E4F7901BC01990F880B990B0E9451E555
:1040F0002AE037ED43E25CE30E94B0E5F801E655C3
:10410000FD4F20813181428153810E94B0E5D7016A
:104110006D937D938D939C93139707C60E941A4BC2
:1041200085E40E9475B080E38F0D0E9475B0000F8A
:10413000111FF801E050FF4F6081718187E394E027
:104140000E94F64A85E20E9475B08AE00E9475B02E
:10415000ECC580E50E941D66882309F4E6C560E091
:1041600070E080E50E948566F82E6FEF7FEF83E5B3
:104170000E9485668C010196039708F0D6C5F7FC6E
:10418000D4C58F2D0E9418DC882339F00E94164B6D
:104190008CEC95E00E944B4AC8C50E942F5F60E0FE
:1041A0008F2D0E94ACC90F3FBFEF1B0731F00130CC
:1041B000110571F401E010E00DC08F2D0E9454C96B
:1041C00031E020E0892B09F030E0032F122F02C0EC
:1041D00000E010E08F2D0E9454C98017910709F468
:1041E000A4C50E94B94BF6CF80E50E941D668823C6
:1041F00009F49BC50E94E6658C01892B09F07FC0FC
:1042000083E50E941D66882389F00E94E6658F3F42
:10421000EFEF9E0729F487E49DE00E9412AE85C56A
:10422000BC0187E49DE00E94C1AE7FC50E941A4B8D
:1042300060E070E08FE294E00E94F64A8091490DC0
:1042400028E532E06901C81AD10887FDD394CC0C67
:10425000DD1CCC0CDD1C0D2C000CEE08FF08809141
:10426000480D28E830E04901881A910887FD9394A9
:10427000880C991C880C991C092C000CAA08BB08F6
:104280008091470D8F3FC1F090E0FC01EE0FFF1FC2
:104290008E0F9F1FFC01EE5DF24F2181328153E0B2
:1042A000220F331F5A95E1F764E0369527956A95FA
:1042B000E1F72E5F3F4F02C020E030E02F5F3F4F1D
:1042C000C901330FAA0BBB0B9C01AD012819390999
:1042D0004A095B09A4EBB0E00E94E1EBA70196015B
:1042E000281939094A095B090E94C2EBB90185EE18
:1042F00095E20E94F64A8AE00E9475B016C50E94B7
:10430000164BB80180E394E00E94F64A80E294E004
:104310000E944B4A0AC58AE50E944F66811105C07A
:1043200083E50E944F668823A1F10E94EA6520E0A0
:1043300030E040E050EC0E944AE587FD4CC70E9407
:10434000EA6520E030E040E050E40E94C4ED181639
:104350000CF43BC70E94EA656B017C0120911F0BA6
:104360003091200B4091210B5091220BC701B601D7
:104370000E94B0E50E9436EDCB010E94D3D680E5C5
:104380000E941D66882309F42CC70E94D6658111FE
:1043900028C784E392E00E945064882309F447C749
:1043A00082E50E941D66811142C7BFC460E085E4BA
:1043B0000E949466811173C080E50E941D66882367
:1043C00051F00E94EA656093160D7093170D80936B
:1043D000180D9093190D89E40E941D66882381F0C1
:1043E0000E94EA652CEA35EC47E25EE30E94B0E504
:1043F00060931A0D70931B0D80931C0D90931D0DEF
:1044000084E40E941D66882381F00E94EA652CEAFC
:1044100035EC47E25EE30E94C4EC60931E0D70939E
:104420001F0D8093200D9093210D0E941A4B4091F7
:10443000160D5091170D6091180D7091190D8DEF9B
:1044400093E00E94E54A2CEA35EC47E25EE3609196
:104450001A0D70911B0D80911C0D90911D0D0E94E5
:10446000C4ECAB01BC0189EF93E00E94E54A2CEA61
:1044700035EC47E25EE360911E0D70911F0D809157
:10448000200D9091210D0E94B0E5AB01BC0185EF9C
:1044900093E00E94E54A8AE00E9475B046C40E94FB
:1044A000164B83EE93E00E944B4A3FC480E50E9486
:1044B0001D66882351F00E94EA656093D8027093CC
:1044C000D9028093DA029093DB0289E40E941D6690
:1044D000882381F00E94EA652CEA35EC47E25EE32E
:1044E0000E94B0E56093DC027093DD028093DE02EF
:1044F0009093DF0284E40E941D66882381F00E946D
:10450000EA652CEA35EC47E25EE30E94C4EC609376
:10451000E0027093E1028093E2029093E3020E9432
:104520001A4B4091D8025091D9026091DA027091F1
:10453000DB028DEF93E00E94E54A2CEA35EC47E27E
:104540005EE36091DC027091DD028091DE02909169
:10455000DF020E94C4ECAB01BC0189EF93E00E9432
:10456000E54A2CEA35EC47E25EE36091E0027091A7
:10457000E1028091E2029091E3020E94B0E5AB017A
:10458000BC0185EF93E00E94E54A8AE00E9475B085
:10459000CCC383E50E941D66182F882371F00E940A
:1045A000EA650E9436ED709346016093450121E073
:1045B000672B09F020E020934F0580E50E941D66DF
:1045C000882359F02091450130914601232B11F0A9
:1045D0000E94D66580934F05A8C31111A6C30E94FF
:1045E0001A4B80ED93E00E944B4A80914F05811158
:1045F00003C087EB93E002C086EA9AE10E944B4A2F
:1046000060914501709146018FEB93E00E94F64A5C
:104610008BEB93E00E944B4A88C30E94806D85C358
:1046200080910A0F81110C949F1681E00E94655DB4
:104630000C949F1683E50E941D66882349F00E9412
:10464000D665282E811106C080E00E94E84702C08E
:1046500020900D03409012055090130560901405B2
:10466000709015058091160590911705A091180579
:10467000B091190588AF99AFAAAFBBAF80911A0569
:1046800090911B05A0911C05B0911D058CAF9DAFAD
:10469000AEAFBFAF86E50E941D668FAB20E030E075
:1046A000A9016091EF027091F0028091F102909166
:1046B000F2020E944AE5882309F4B0C083E40E9414
:1046C0001D66882309F4B6C00E94EA656B017C016F
:1046D0001BAA312C98EC9CABA2ECADAB812C912C9D
:1046E000B8ECBEA7E2E4EAABF5E0FEA32EA12150B0
:1046F0002EA32F3F09F43FC035E03AA795E0929FE3
:10470000C001112422969FAF8EAF22979AA5915097
:104710009AA79F3F59F32296EEADFFAD2297E90F7E
:10472000F11DEE0FFF1FEE0FFF1FEA5BFD4F108123
:104730000181B280A38094014EA55AA9612F702FE8
:104740008B2D9A2D0E944AE587FF04C0812E902E62
:10475000BEA6AAAA2BA9332D4CA95DA9612F702F43
:104760008B2D9A2D0E94C4ED181684F61BAB302EAB
:10477000BCAAADAACBCF2BA9332D4CA95DA9B401FE
:104780008EA59AA90E9441EC20E030E040E05FE372
:104790000E94B0E5A70196010E9441EC4B015C012B
:1047A0002DEB37E346E855EB0E94C4ED87FD0AC0C8
:1047B0002DEB37E346E855E3C501B4010E944AE515
:1047C0001816C4F580E00E94E84705E0E02E85E079
:1047D000382EEA94BFEFEB1669F115E0F12E3E9CFE
:1047E00060011124FA94EFEFFE1699F386010F0D84
:1047F000111D000F111F000F111F0A5B1D4FA50196
:104800009401D8016D917D918D919C910E9440EC15
:10481000F8016083718382839383E4CF211003C006
:10482000FFA9FF23D1F00E941A4B88EA93E00E946F
:104830004B4A16C02FA9222381F020E030E0A901C5
:104840006091EF027091F0028091F1029091F2027A
:104850000E944AE581110E945A4A822D0E94E8472F
:10486000222051F080910D03811106C00E94164B49
:1048700089E893E00E944B4A0E941A4B8BE793E031
:104880000E944B4A80910D03811103C08FE394E095
:1048900002C08FEA92E00E944B4A8AE00E9475B003
:1048A0002091120530911305409114055091150582
:1048B000C301B2010E944AE581110C949F16209118
:1048C000160530911705409118055091190568ADEE
:1048D00079AD8AAD9BAD0E944AE581110C949F167B
:1048E00020911A0530911B0540911C0550911D0522
:1048F0006CAD7DAD8EAD9FAD0E944AE5882309F475
:1049000014C20C949F166FEF7FEF89E40E948566B6
:10491000182F6FEF7FEF8AE40E948566082F8AE5E3
:104920000E941D66F82E811105C081E50E941D665A
:10493000D82E01C0D12C17FD06C007FD04C0F11010
:1049400009C0D11007C00E94164B8BE593E00E946E
:104950004B4AEBC1153010F4053038F00E94164B6D
:1049600081E396E00E944B4AE0C1E12E110FFF085F
:10497000002E000C110B0E94EA65DD2099F025E065
:104980002E9DF0012F9DF00D1124E00FF11FEE0F71
:10499000FF1FEE0FFF1FEA5BFD4F20813181428137
:1049A000538103C020E030E0A901A5E0AE9DF001F5
:1049B000AF9DF00D11240E0F1F1F000F111F000FD0
:1049C000111F0A5B1D4F0E9441ECD8016D937D932E
:1049D0008D939C931397A9C10E946FD68111A5C195
:1049E00003E712E0E2E1F5E0FFA3EEA39E012F5FF3
:1049F0003F4F190191EAC92E92E0D92E7901F801B1
:104A00006591759185919491AEA1BFA18D909D9076
:104A1000AD90BD90BFA3AEA3A50194010E9440EC50
:104A20002B013C0120E030E040EA51EC0E94C4ED53
:104A300087FD10C020E030E040EA51E4C301B2013C
:104A40000E944AE5181634F0F701408251826282D2
:104A500073820EC0F60184911816B4F7B7FAB094B9
:104A6000B7F8B094D7018D929D92AD92BC921397F6
:104A7000D7018D909D90AD90BD907D0120E030E0FC
:104A800040EA51ECC501B4010E94C4ED87FDE1C3C9
:104A900020E030E040EA51E4C501B4010E944AE55B
:104AA00018160CF0E4C3D5C30E94954F3EC10E9476
:104AB000DB3D3BC10E94963C38C181E080934502BA
:104AC0000E942C5410924502882309F42EC10E94A2
:104AD0001A4B84E193E00E944B4A27C184E392E0A1
:104AE0000E945064811128C04091170F5091180FF7
:104AF0006091190F70911A0F85E093E00E94E54ACA
:104B000040911B0F50911C0F60911D0F70911E0F53
:104B100081EB95E20E94E54A40911F0F5091200FD2
:104B20006091210F7091220F8AEA95E20E94E54A76
:104B30008AE00E9475B0F9C02090170F3090180FCE
:104B40004090190F50901A0F60901B0F70901C0F1F
:104B500080901D0FF0911E0FFEA3C0901F0FD090EC
:104B6000200FE090210FF090220F88E50E944F6601
:104B7000882351F10E94EA655B018C0120E030E05E
:104B800046E953EC0E94C4ED87FD0AC020E030E006
:104B900046E953E4B501C8010E944AE5181694F4A9
:104BA0006CE271E082EF92E00E94F64A6CE271E002
:104BB0008DEE92E00E94F64A87EB94E00E944B4A09
:104BC00010E003C01501280111E089E50E944F663D
:104BD000882381F10E94EA65962EA72EB82E092F10
:104BE00020E030E046E953EC0E94C4ED87FD0CC0A4
:104BF00020E030E046E953E4692D7A2D8B2D902F8B
:104C00000E944AE5181694F46CE271E08AED92E095
:104C10000E94F64A6CE271E08DEE92E00E94F64A44
:104C200087EB94E00E944B4A10E004C0692C7A2C78
:104C30008B2C0EA38AE50E944F66882339F10E94CF
:104C4000EA656B017C0120E030E040E151EC0E941C
:104C5000C4ED87FD0AC020E030E040E151E4C70127
:104C6000B6010E944AE518168CF467EF7FEF88ECD6
:104C700092E00E94F64A69E070E08DEE92E00E94B8
:104C8000F64A87EB94E00E944B4A4FC0112309F487
:104C90004CC0C101D2018093170F9093180FA093BD
:104CA000190FB0931A0FC301A82DBEA180931B0F3B
:104CB00090931C0FA0931D0FB0931E0FC0921F0F57
:104CC000D092200FE092210FF092220F2EC081E0AF
:104CD0008093230110922A0F60E083E50E94A06672
:104CE000811123C00E94EF7620C00E9435871DC02D
:104CF00000914A0310914B030023B9F00E941A4B14
:104D000084E50E9475B0B8017727072E000C880B48
:104D1000990B0E94E9B080E20E9475B083EE93E0A7
:104D20000E944B4A02C00E943587E0914402F0E0A5
:104D3000ED54F24F808181110E94B4762EA9209308
:104D40004D03BFC20E942F5F30910D033AAB80E04C
:104D50000E94E8470E94593781E080930B030E942C
:104D6000823A88E50E941D66182F89E50E941D661B
:104D7000282E8AE50E941D661211F8C1181711F03D
:104D8000212EF4C12224239411E001E080E1E2E12C
:104D9000F5E0A9E3B3E001900D928A95E1F782E591
:104DA0000E944F66882369F00E94EA656B017C01CE
:104DB00020E030E0A9010E944AE5882309F43FC0C1
:104DC00006C0C12CD12C80E8E82E80E4F82E111109
:104DD00003C0222009F411C18091290F82FD09C06E
:104DE00060911A0570911B0580911C0590911D051D
:104DF00003C060E070E0CB01A70196010E9441EC86
:104E00006093410370934203809343039093440360
:104E100020911A0530911B0540911C0550911D05EC
:104E20000E94C4ED18165CF419821A821B821C823F
:104E3000BE016F5F7F4F81E493E00E9476381123BB
:104E400009F4D6C0222009F4D0C0109212051092A5
:104E50001305109214051092150510921605109264
:104E6000170510921805109219050E941E39E1EAE3
:104E7000F2E084918BABEFE7F2E085909590A590FE
:104E8000B490E3E8F2E0C590D590E590F490A701E6
:104E90009601C501B4010E94C4ED18162CF4A501B9
:104EA0009401C701B60104C0A7019601C501B40170
:104EB0000E94C4EC2B013C01E9E9F2E08591959157
:104EC000A591B4918EA39FA3A8A7B9A7E5E9F2E0A5
:104ED00085919591A591B4918AA79BA7ACA7BDA7F1
:104EE0009C01AD016EA17FA188A599A50E94C4ED8A
:104EF00018163CF01EA19FA19EA738A4A9A5AEA399
:104F000006C01AA5BBA5BEA73CA4EDA5EEA3A301B0
:104F10009201C301B2010E94B0E520E030E040E818
:104F20005FE30E9441EC0E9402EE212F3EA5432D3B
:104F30005EA10E94B0E56E8F7F8F88A399A3E2EAFD
:104F4000F2E0149120E030E040EC5FE3C701B601ED
:104F50000E94B0E56B017C01612F110F770B880B6C
:104F6000990B0E9451E59B01AC01C701B6010E945B
:104F7000B0E569837A838B839C8320E030E040EC4A
:104F80005FE3C501B4010E94B0E56B017C01FBA9A0
:104F90006F2FFF0F770B880B990B0E9451E59B0138
:104FA000AC01C701B6010E94B0E56E8B7F8B888F84
:104FB000998FAE01425E5F4FBE016F5F7F4FCE01A2
:104FC00046960E9454380E94913A1092120510920F
:104FD00013051092140510921505109216051092E3
:104FE0001705109218051092190580E00E945A3B8F
:104FF000222019F081E00E945A3B002309F4A5C049
:1050000080E00E94E0678091290F8370833051F027
:1050100060E082E896E00E94C1BE0E941A4B83E7DE
:1050200096E0AFC00E941E3940901A0550901B05B3
:1050300060901C0570901D052091170F3091180F7E
:105040004091190F50911A0F60E070E086E193E4EF
:105050000E9440EC6B017C016093390370933A032A
:1050600080933B0390933C0320911B0F30911C0FC6
:1050700040911D0F50911E0F60E070E086E193E4B7
:105080000E9440EC4B015C0160933D0370933E0332
:1050900080933F039093400320911F0F3091200F86
:1050A0004091210F5091220FC301B2010E9440ECA8
:1050B00060934103709342038093430390934403AE
:1050C00027E137EB41ED58EBC501B4010E94C4ED77
:1050D00087FD4EC023E030E04BE953E4C501B40145
:1050E0000E944AE518160CF443C027E137EB41ED66
:1050F00058EBC701B6010E94C4ED87FD39C023E01B
:1051000030E84DE953E4C701B6010E944AE518169C
:105110007CF11E8A1F8A188E198E88E0E9E3F3E07D
:10512000DE01119601900D928A95E1F7AE014A5E7B
:105130005F4FBE016B5F7F4FCE0101960E945438D6
:1051400082E00E945A3B0E943E5E0E941E3980917E
:105150000C0380930B038AA90E94E8470E94403702
:1051600083E0809322010E942039DFCD082F0ECEEC
:1051700060E082E696E00E94C1BE0E941A4B80E584
:1051800096E00E944B4ADFCF0E94A368CECD11115A
:105190000C9462190C945B190E9424871092EC0203
:1051A00010934D03C2CD0E94B94B0C949B1961E042
:1051B000802F0E94ACC96F2D802F0E947DC96F2D5A
:1051C00070E0802F0E94E8C9B0CDC12CD12CE12C19
:1051D00030E4F32EC3C8C12CD12CE12C20ECF22EEC
:1051E000BDC8A701960160911F0F7091200F80919B
:1051F000210F9091220F0E9441EC60931F0F70933A
:10520000200F8093210F9093220F0E941A4B409100
:105210001F0F5091200F6091210F7091220F80E19C
:1052200094E00E94E54A8AE00E9475B0B2C80E94EC
:105230001A4B40911F0F5091200F6091210F7091D8
:10524000220F81E094E00E94E54A8AE00E9475B056
:105250006CCD0E94164B8DE393E00E944B4A61E0B7
:105260008FE293E00E94C1BE0E942EC35ECD0C5F10
:105270001F4FBFEFCB1ADB0AEFE7F2E0E017F107B1
:1052800009F0BDCB8EEAE82E82E0F82E10E0F101A5
:1052900081919191A191B1911F01F7018193919316
:1052A000A193B1937F01812F0E94A9331F5F133017
:1052B00071F70E94203960E08FE193E00E94C1BE47
:1052C00034CDCF5BDF4F0FB6F894DEBF0FBECDBF3E
:1052D000DF91CF911F910F91FF90EF90DF90CF90D2
:1052E000BF90AF909F908F907F906F905F904F9006
:1052F0003F902F9008952F923F924F925F926F921E
:105300007F928F929F92AF92BF92CF92DF92EF9255
:10531000FF920F931F93CF93DF93CDB7DEB76197C3
:105320000FB6F894DEBF0FBECDBF8FEF9FEF909307
:105330008900809388000AE0098B212C312C789415
:105340008091950390919603A0919703B091980353
:10535000892B8A2B8B2B79F080906F0190907001B4
:10536000A0907101B090720181149104A104B10464
:1053700009F005C2B7C18091B80E8823D1F0109210
:10538000B80E8091B60E9091B70E892B29F310922A
:1053900056031092B70E1092B60E90914D0D80915B
:1053A0004E0D9817C9F280914E0D8F5F8F708093CC
:1053B0004E0D8091B60E9091B70E892B69F24091F7
:1053C00091035091920360919303709194038091A3
:1053D0008D0390918E03A0918F03B0919003009163
:1053E000840310E020E030E0841B950BA60BB70B84
:1053F000081719072A073B0710F4D901C801E82F3D
:10540000840F951FA61FB71F80939103909392035B
:10541000A0939303B0939403F1E080905B0390908A
:105420005C03A0905D03B0905E0380916B0390914C
:105430006C03A0916D03B0916E03880E991EAA1E95
:10544000BB1E80926B0390926C03A0926D03B0928E
:105450006E03B7FC31C080914E03082E000C990BEF
:10546000AA0BBB0B4091C50E5091C60E6091C70EA2
:105470007091C80E840F951FA61FB71F8093C50E8D
:105480009093C60EA093C70EB093C80E8091570399
:1054900090915803A0915903B0915A03A50194012A
:1054A000281B390B4A0B5B0B20936B0330936C0367
:1054B00040936D0350936E03C0905F03D0906003E0
:1054C000E0906103F090620380916F03909170030C
:1054D000A0917103B0917203C80ED91EEA1EFB1E83
:1054E000C0926F03D0927003E0927103F092720346
:1054F000F7FC31C080914F03082E000C990BAA0BCA
:10550000BB0B4091C90E5091CA0E6091CB0E7091A9
:10551000CC0E840F951FA61FB71F8093C90E9093C2
:10552000CA0EA093CB0EB093CC0E809157039091EE
:105530005803A0915903B0915A0326013701481A24
:10554000590A6A0A7B0A40926F0350927003609274
:1055500071037092720340916303509164036091F0
:105560006503709166038091730390917403A09119
:105570007503B0917603480F591F6A1F7B1F409334
:10558000730350937403609375037093760377FDF0
:1055900031C080915003082E000C990BAA0BBB0B55
:1055A0000091CD0E1091CE0E2091CF0E3091D00EE5
:1055B000800F911FA21FB31F8093CD0E9093CE0E2C
:1055C000A093CF0EB093D00E8091570390915803C3
:1055D000A0915903B0915A038A019B01081B190B32
:1055E0002A0B3B0B009373031093740320937503F2
:1055F000309376030091670310916803209169034B
:1056000030916A038091770390917803A091790398
:10561000B0917A03800F911FA21FB31F809377036D
:1056200090937803A0937903B0937A03B7FD31C0C8
:1056300000915103002E000C110B220B330B4090F4
:10564000D10E5090D20E6090D30E7090D40E040DF7
:10565000151D261D371D0093D10E1093D20E2093D9
:10566000D30E3093D40E009157031091580320911C
:10567000590330915A032C013D01401A510A620A24
:10568000730A409277035092780360927903709284
:105690007A03F11104C02091840030918500B7FE97
:1056A0005F9AF7FE469A77FF2B9AB7FF299A2091C7
:1056B0008400309185002091840030918500B7FEF0
:1056C0005F98F7FE469877FF2B98B7FF2998EE234F
:1056D00021F08091840090918500E150F0E009F084
:1056E0009CCE3ACE8091270F9091280F009709F415
:1056F00032C023B124701598000000000000181675
:10570000190614F42A9A01C02A980000000000002B
:105710002B9A34E03A950000E9F72B98000000003E
:105720000000222311F02A9A01C02A9800000000EC
:1057300000001816190634F48091270F9091280F55
:10574000019705C08091270F9091280F01969093A3
:10575000280F8093270F0E94104A811104C08FEFF9
:105760009FEFDC0104C080ED97E0A0E0B0E0809303
:105770006F0190937001A0937101B09372018091B9
:10578000950390919603A0919703B0919803892B6C
:105790008A2B8B2B11F00C94A231E091B60EF09174
:1057A000B70E309711F40C947D3380919103909152
:1057B0009203A0919303B091940340918D03509173
:1057C0008E0360918F037091900384179507A6074D
:1057D000B707D8F0109256031092B70E1092B60E7B
:1057E00090914D0D80914E0D981711F40C947D33CE
:1057F00080914E0D8F5F8F7080934E0DA0ED4A2EDD
:10580000A7E05A2E612C712CF6C340918903509168
:105810008A0360918B0370918C03481759076A07BC
:105820007B0708F4A5C1C0908503D0908603E09063
:105830008703F090880385A996A9A7A9B0ADC816DB
:10584000D906EA06FB0608F077C1C114D104E104C9
:10585000F10449F48091520390915303A0915403B1
:10586000B091550365C1B0E0A9818C2D3D2D2E2D41
:10587000FA81EB817C816D815E814F8198855091A9
:105880008204589F712D662740918304489F700DB4
:10589000611D10908404189E600D539F700D611D52
:1058A000439F600D529F600DF72FE62FF79F512DFC
:1058B00044279927F69F500D411D9B1FE79F500DD0
:1058C000411D9B1FE69F400D911DF42FE92FF79F6F
:1058D000A12D44279927F69FA00D411D9B1FE79FEF
:1058E000A00D411D9B1FE69F400D911DF42FE92F38
:1058F0005527809152033091530320915403009017
:10590000C60B0B2A09F484C04091C20B4F9F51195A
:105910008B0B3B0B2B0B9091C30B9F9F5019810955
:105920003B0B2B0BA091C40BAF9F801931092B0BA4
:105930004E9F501981093B0B2B0B9E9F80193109FB
:105940002B0BAE9F30192109F79FA12D44279927D2
:10595000F69FA00D411D9B1FE79FA00D411D9B1FA2
:10596000E69F400D911DF42FE92F4091BE0B4F9FF4
:10597000510D8B1F3B1F2B1F9091BF0B9F9F500DF5
:10598000811D3B1F2B1FA091C00BAF9F800D311DB0
:105990002B1F4E9F500D811D3B1F2B1F9E9F800D67
:1059A000311D2B1FAE9F300D211DF79FA12D4427C8
:1059B0009927F69FA00D411D9B1FE79FA00D411D3C
:1059C0009B1FE69F400D911DF42FE92F4091BA0BCC
:1059D0004F9F51198B0B3B0B2B0B9091BB0B9F9F38
:1059E000501981093B0B2B0BA091BC0BAF9F801969
:1059F00031092B0B4E9F501981093B0B2B0B9E9F9E
:105A0000801931092B0BAE9F301921090C948A2D76
:105A10004091C20B4F9F510D8B1F3B1F2B1F90912D
:105A2000C30B9F9F500D811D3B1F2B1FA091C40BCB
:105A3000AF9F800D311D2B1F4E9F500D811D3B1FB1
:105A40002B1F9E9F800D311D2B1FAE9F300D211DE2
:105A5000F79FA12D44279927F69FA00D411D9B1F5D
:105A6000E79FA00D411D9B1FE69F400D911DF42F48
:105A7000E92F4091BE0B4F9F51198B0B3B0B2B0B0A
:105A80009091BF0B9F9F501981093B0B2B0BA0914D
:105A9000C00BAF9F801931092B0B4E9F5019810904
:105AA0003B0B2B0B9E9F801931092B0BAE9F30199E
:105AB0002109F79FA12D44279927F69FA00D411D8D
:105AC0009B1FE79FA00D411D9B1FE69F400D911D51
:105AD000F42FE92F4091BA0B4F9F510D8B1F3B1FA5
