:100000000C94DD210C940E220C940E220C940E22E2
:100010000C940E220C940E220C940E220C940E22A0
:100020000C940E220C940E220C940E220C940E2290
:100030000C940E220C940E220C940E220C940E2280
:100040000C940E220D948B250C940E220C940E22EF
:100050000C940E220C940E220D944A330C94C9B9C0
:100060000C940E220C944A430C9440430C940E22A0
:100070000C940E220C940E220C940E220C940E2240
:100080000C94003C0C940E220C940E220C940E2224
:100090000C940E220C940E220C940E220C940E2220
:1000A0000C940E220C940E220C94D23B0C940E2233
:1000B0000C940E220C940E220C940E220C94A43B51
:1000C0000C940E220C940E220C940E220C940E22F0
:1000D0000C940E220C940E220C940E220C940E22E0
:1000E0000C940E22804386439843A843B043E043D8
:1000F000B443E043B843BC43E043C043C443C843B4
:10010000D143E043DC43329B159B189B359B1B9BE3
:100110001E9B219B2D9B249B409B279B2A9B74B15C
:10012000A6B1A8B1B7B1BCB172B1C7B18001CC0161
:100130006A0202024801E2011601C8016601C60115
:1001400062015801FA010C02E201D2010A01EC003D
:100150007E023A011E026A01A001DC012E02E400C7
:100160002A02B801FC008401DE019401DC01740163
:1001700012010002084AD73B3BCE016E84BCBFFD92
:10018000C12F3D6C74319ABD56833DDA3D00C77F67
:1001900011BED9E4BB4C3E916BAAAABE0000008000
:1001A0003F05A84CCDB2D44EB93836A9020C50B98F
:1001B000918688083CA6AAAA2ABE000000803F00BB
:1001C0000C9452A90C9435770D94A3430C94159B71
:1001D0000C946B6D0C94D1830D948B410C94279BE4
:1001E0000C94688B0C94B4430C94C48E0C94B7B1EB
:1001F0000D94F3010C94996E0D94BF430C945B988D
:100200000C94C68E0D949C1A0D94363D0C9405C624
:100210000C9401C60D9487410C94828B0D94243D5F
:100220000D94303D0D94F6430C9477980D945D41F8
:100230000C94876E0C94BCC50C94816E0D940624AE
:100240000C94F8700C94B0430C94DAA80C94B84356
:100250000C94826D0D94FA3C0C949BA80C94329BE8
:100260000C944F980C94B6830C9437940D942624D8
:100270000C946B980D9478430C942A9B0C949B835C
:100280000C9466890C9480830C9483960C94DC43C4
:100290000D9452410C9472B10D9438400C942889FD
:1002A0000C94BC430C943A6E0C9418950C94666EA6
:1002B0000D9475410C9490900C9467980C941E9B2F
:1002C0000C94BDCF0D946F410C94C0430D946741C5
:1002D0000D942A3D0D9487430C94D46D0C94E0AE9C
:1002E0000D9413020C94FEC50D94EC430C94936E84
:1002F0000C947F890C94A9930C94219B0C948643B5
:100300000D9456410C94086E0D94C9430C94778B50
:100310000C947B6E0C94BCB10C942D9B0C9424C655
:100320000C94B0AA0D94723C0D94E2430C94C370EB
:100330000C94C9CF0C945E710D947C3C0D94FE011D
:100340000D9491430D94773C0C9480430C94A5B983
:100350000D94D3030C949B880C9463980C94189B75
:100360000D9409020C946F980C949C8C0C94C88E7C
:100370000D94B5430C949E8C0C94E8760C94216EED
:100380000C9480980C94359B0D94ED240D946B4146
:100390000D9461410C9411C60D9459410C94A08C9C
:1003A0000C94249B0D9483410C94F3A80C948A899B
:1003B0000C94CA8E0C9441850D940A440D94D84334
:1003C0000D9402060D9490410C9437DF0C943E7707
:1003D0000D94813C0C94756E0C9498880C94988CB8
:1003E0000C94DC6E0C94C3CF0C948AC50C94C4435B
:1003F0000C94A6B10D9479410C9419B10C946874C5
:100400000D9400440D944C410C9426770C94536E3B
:100410000C945AAC0D941E3D0D947D410D94043DF9
:100420000C94A3C50C94EF6D0C945AA90C947A9873
:100430000C948BCC0C94409B0C9453980D947D435E
:100440000C944AA90C9444830C941B9B0D94F93D85
:100450000C94996D0D94AB430D94673C0D949B43A4
:100460000C949E990C940BAA0C949A8C0C948D6EFF
:100470000C94E4CA0C9498430C9441A90C94B47065
:100480000D940D020C94FBC50C94E0430C94FC708D
:100490000D940B020C944A830C9457980C947BB9DE
:1004A0000C94A8B10C94C7B10D94655F0C945CB129
:1004B0000D94863C0C9402C60C9465830C94E2C5A2
:1004C0000C94D1430C94CFC50C94CC8E0D94BE2CBF
:1004D0000C9474B10D9448410D94475F0C9473983B
:1004E0000C9443CC0D94D0010C9495880C947D9879
:1004F0000C94A5700C94118E0C94B7CF0D9473438B
:100500000C94A8430D94FF3C0C94C8430C945F9842
:100510000C94939B0C94B1CF4E414E494E49545983
:10052000494E46CDCCCC3D0AD7233C17B7D13877BE
:10053000CC2B329595E6241FB14F0A0000204100D4
:1005400000C84200401C4620BCBE4CCA1B0E5AAE1E
:10055000C59D7400407A10F35A00A0724E1809002D
:1005600010A5D4E80000E87648170000E40B540218
:100570000000CA9A3B000000E1F505000080969853
:1005800000000040420F000000A0860100000010A3
:100590002700000000E803000000006400000000E5
:1005A000000A00000000000100000000002C76D8C6
:1005B00088DC674F0823DFC1DFAE59E1B1B796E5AC
:1005C000E3E453C63AE651997696E8E6C28426EB10
:1005D000898C9B62ED407C6FFCEFBC9C9F40F2BA23
:1005E000A56FA5F490055A2AF75C936B6CF9676DBB
:1005F000C11BFCE0E40D47FEF520E6B500D0ED9010
:100600002E0300943577050080841E080000204EDC
:100610000A000000C80C333333330F986E12831175
:1006200041EF8D2114893BE65516CFFEE6DB18D14C
:10063000844B381BF77C1D901DA4BBE4242032841E
:10064000725E228100C9F124ECA1E53D27434F4DA4
:100650004D554E49434154494F4E0044525952550D
:100660004E004552524F5253004543484F004732C7
:100670002F47332062616420706172616D6574651B
:1006800072730A00536C6565702E2E2E005A20502E
:10069000726F62652050617374204265640A005A6B
:1006A0002050726F6265205061737420426564004F
:1006B000486F6D652058592066697273740A004846
:1006C0006F6D65205859204669727374004D313141
:1006D000372050726F6265206661696C65642E0A0E
:1006E0004732380A0070726F62655F7265776970B1
:1006F0006500473239205265747279696E67004D22
:1007000031313720426564206C6576656C696E67AF
:10071000206661696C65642E0A4730205A31300AC0
:100720004D3330302050323520533838300A4D3375
:100730003030205035302053300A4D333030205087
:10074000323520533838300A4D3330302050353070
:100750002053300A4D333030205032352053383852
:10076000300A4D333030205035302053300A473472
:100770002053310070726F62655F6661696C6564F9
:10078000004D31313720426564206C6576656C69B7
:100790006E6720646F6E652E004D65736820706F04
:1007A000696E742063616E6E6F742062652072657D
:1007B000736F6C7665640A004E6F204D6F76652E00
:1007C00000456E642066696C65206C6973740A006C
:1007D000426567696E2066696C65206C6973740A8E
:1007E00000526573756D696E6720534400286E6F03
:1007F0002066696C65290043757272656E742066A7
:10080000696C653A20005072696E742074696D6578
:100810003A20000A53746174733A2046696C616D22
:10082000656E7420757365643A20002C204C6F6EE1
:1008300067657374206A6F623A2000546F74616C4C
:100840002074696D653A20002C204661696C6564EE
:100850003A20002C2046696E69736865643A20006E
:100860005072696E74733A200053746174733A2045
:1008700000452025530044454255473A004D31314B
:100880003320530042656420436F6F6C696E672E9E
:100890002E2E004265642048656174696E672E2EB5
:1008A0002E0053755065522043522D3230204F4652
:1008B000462E004348414D4245525F54454D5045F8
:1008C000524154555245004D4F54494F4E5F4D4F84
:1008D00044455300544845524D414C5F50524F548B
:1008E000454354494F4E004155544F5245504F5285
:1008F000545F53445F5354415455530050524F4D2D
:1009000050545F535550504F525400454D45524737
:10091000454E43595F504152534552004341534560
:100920005F4C494748545F4252494748544E4553EB
:100930005300544F47474C455F4C49474854530078
:10094000534F4654574152455F504F57455200420E
:1009500055494C445F50455243454E54004C455612
:10096000454C494E475F44415441005A5F50524FF5
:100970004245004155544F4C4556454C0050524954
:100980004E545F4A4F420050524F47524553530016
:100990004155544F5245504F52545F54454D5000AD
:1009A000564F4C554D45545249430042494E4152D1
:1009B000595F46494C455F5452414E53464552009B
:1009C00053455249414C5F584F4E5F584F46460081
:1009D0004649524D574152455F4E414D453A4D6152
:1009E000726C696E20322E302E345F44573620549C
:1009F0004D33442032534D44424220534F555243CD
:100A0000455F434F44455F55524C3A687474707368
:100A10003A2F2F6769746875622E636F6D2F496E68
:100A200073616E6974794175746F6D6174696F6E0D
:100A30002F4D61726C696E2F747265652F437265FC
:100A4000616C6974794477696E5F322E3020505240
:100A50004F544F434F4C5F56455253494F4E3A31D6
:100A60002E30204D414348494E455F545950453A38
:100A700053755065522043522D3230204558545200
:100A8000554445525F434F554E543A3120555549D0
:100A9000443A63656465326132662D343161322DCA
:100AA000343734382D396231322D6335356336327F
:100AB0006633363766660A002F2F20004D313435F5
:100AC00020533C696E6465783E206F7574206F66B4
:100AD0002072616E67652028302D31290A0020467A
:100AE0006C6F773A200050726F7465637465642090
:100AF00050696E0A00206F7574206F662072616EF7
:100B000067650A0020536572766F200020643A0002
:100B100020693A0020703A004C434420436F6E74C1
:100B2000726173743A20006469730043290A00619A
:100B3000626C656420286D696E2074656D7020009C
:100B4000436F6C642065787472756465732061729C
:100B50006520004D34323120696E636F72726563B7
:100B60007420706172616D65746572207573616760
:100B7000650A004F666673657473204170706C6916
:100B80006564004572723A20546F6F20666172216D
:100B900000546F6F206661722066726F6D207265FF
:100BA000666572656E636520706F696E740A0045D4
:100BB0004550524F4D204F4B0A003F4B2076616C01
:100BC0007565206F7574206F662072616E67652091
:100BD00028302D3130292E0A00416476616E63651C
:100BE000204B3D00506F7765722D6C6F73732072D0
:100BF00065636F7665727920006906170C62065B83
:100C0000064D06554E4B4E4F574E205354415445BA
:100C10000047434F44455F494E464F004C43445FB5
:100C200050415553455F524553554D450046494C3B
:100C3000414D454E545F52554E4F55545F434F4EB4
:100C400054494E55450046494C414D454E545F521E
:100C5000554E4F5554004D38373620526573706FDE
:100C60006E64696E672050524F4D50545F0045725C
:100C7000726F722077726974696E6720746F204595
:100C80004550524F4D210A00627573793A207061C8
:100C90007573656420666F7220696E7075740A00E2
:100CA000627573793A2070617573656420666F723E
:100CB00020757365720A00627573793A2070726FDD
:100CC00063657373696E670A004E6F2043686563DE
:100CD0006B73756D2077697468206C696E65206E22
:100CE000756D6265722C204C617374204C696E6561
:100CF0003A2000636865636B73756D206D69736D71
:100D0000617463682C204C617374204C696E653A81
:100D100020004C696E65204E756D626572206973A6
:100D2000206E6F74204C617374204C696E65204E88
:100D3000756D6265722B312C204C617374204C6987
:100D40006E653A20004D31313000776169740A00D8
:100D500053442072656164206572726F720A0021CB
:100D600021204B494C4C2063617573656420627986
:100D7000204B494C4C20627574746F6E2F70696EF5
:100D80000A002121204B494C4C2063617573656436
:100D900020627920746F6F206D75636820696E61C1
:100DA00063746976652074696D65202D20637572A2
:100DB00072656E7420636F6D6D616E643A200050D1
:100DC0006C65617365205265736574005052494EBD
:100DD0005445522048414C5445440025533A20255F
:100DE0005300706F7765726F6666004B494C4C45D7
:100DF000442E20005072696E7465722068616C74B4
:100E000065642E206B696C6C28292063616C6C65AD
:100E100064210A00363726033C3D380E2E303E1240
:100E20001A1C1808440AFF43080907000147323614
:100E30002048656174696E67204E6F7A7A6C650030
:100E40004732362048656174696E672042656400E8
:100E500057616974696E6720666F72206865617496
:100E600075702E0A004669786564204C656E67745B
:100E700068205072696D6500446F6E65205072691C
:100E80006D696E67004D616E75616C207072696D81
:100E9000696E672E2E2E004732362043616E6365E1
:100EA0006C6564004C656176696E67204732360078
:100EB0003F53706563696669656420582C592063E7
:100EC0006F6F7264696E617465206F7574206F66F0
:100ED00020626F756E64732E0A003F285229657078
:100EE0006561742076616C7565206E6F7420706C1E
:100EF00061757369626C653B206D75737420626502
:100F0000206174206C6561737420312E0A003F5398
:100F10007065636966696564206E6F7A7A6C6520B6
:100F200074656D7065726174757265206E6F742082
:100F3000706C61757369626C652E0A003F53706551
:100F40006369666965642066696C616D656E7420AD
:100F500073697A65206E6F7420706C617573696255
:100F60006C652E0A003F537065636966696564208D
:100F70007072696D65206C656E677468206E6F7441
:100F800020706C61757369626C652E0A003F537046
:100F900065636966696564206E6F7A7A6C65207333
:100FA000697A65206E6F7420706C61757369626C0C
:100FB000652E0A003F52657472616374696F6E201A
:100FC0004D756C7469706C696572206D75737420F1
:100FD0006265207370656369666965642E0A003F07
:100FE00053706563696669656420526574726163F4
:100FF00074696F6E204D756C7469706C69657220D0
:101000006E6F7420706C61757369626C652E0A0076
:101010003F537065636966696564206C61796572C8
:1010200020686569676874206E6F7420706C6175E4
:101030007369626C652E0A0043292E0A003F5370C3
:1010400065636966696564206265642074656D70B6
:1010500065726174757265206E6F7420706C617555
:101060007369626C65202834302D00473236207356
:1010700074617274696E672E2E2E0A0024F4D430C7
:1010800050C38E20C2A24017828B7011127A910D2C
:10109000816CD90AA861E108C75866076151430607
:1010A0001E4B5D05C145A7041A411104093D980373
:1010B000713931034036DB0265339102D43054027A
:1010C000802E1D02632CEE01752AC501B028A001F7
:1010D000102781018F2564012B244B01E02234016C
:1010E000AC211F018D200D01801FFC00841EED002E
:1010F000971DDF00B81CD200E61BC600201BBC00F9
:10110000641AB200B219A8000A19A0006A1899005E
:10111000D117910040178B00B516840031167E0060
:10112000B31579003A157300C7146F0058146A009C
:10113000EE1366008813630025135E00C7125B0080
:101140006C12570015125400C111510070114F005C
:1011500021114B00D61049008D1047004610440065
:1011600002104200C00F4000800F3E00420F3C00C2
:10117000060F3B00CB0E3800930E37005C0E350097
:10118000270E3400F30D3200C10D3100900D3000F8
:10119000600D2E00320D2D00050D2C00D90C2B00FA
:1011A000AE0C2900850C29005C0C2700350C2700AB
:1011B0000E0C2600E80B2400C40B2400A00B230017
:1011C0007D0B23005A0B2100390B2100180B200046
:1011D000F80A1F00D90A1E00BB0A1E009D0A1D0046
:1011E000800A1D00630A1C00470A1B002C0A1B0012
:1011F000110A1A00F7091A00DD091900C4091900BB
:10120000AB091900920917007B0918006309170040
:101210004C09160036091600200916000A091500A7
:10122000F5081500E0081400CC081400B8081400F4
:10123000A4081400900813007D0812006B08130026
:101240005808120046081200340811002308110043
:101250001208110001081100F0071000E00710004B
:10126000D0071000C0071000B0070F00A107100042
:1012700091070E0083070F0074070F0065070E002B
:1012800057070E0049070E003B070D002E070E0002
:1012900020070D0013070D0006070D00F9060C00CE
:1012A000ED060D00E0060C00D4060C00C8060C008C
:1012B000BC060C00B0060C00A4060B0099060C003E
:1012C0008D060B0082060B0077060B006C060B00E8
:1012D00061060A0057060B004C060A0042060A0087
:1012E00038060A002E060A0024060A001A060A001A
:1012F0001006090007060A00FD050900F4050900AB
:10130000EB050900E2050900D9050900D00509002F
:10131000C7050900BE050900B5050800AD050800B0
:10132000A50509009C050800940508008C05080027
:10133000840508007C050800740508006C0507009A
:10134000650508005D050700560508004E05070005
:10135000470507004005080038050700310507006C
:101360002A050700230507001C05060016050700CF
:101370000F0507000805060002050700FB0406002C
:10138000F5040700EE040600E8040600E204070086
:10139000DB040600D5040600CF040600C9040600DD
:1013A000C3040600BD040600B7040600B10405002E
:1013B000AC040600A6040600A00405009B04060079
:1013C00095040500900406008A04050085040500C4
:1013D000800406007A040500750405007004050009
:1013E0006B04050066040500610405005C0405004B
:1013F00057040500520405004D040500480405008B
:10140000430405003E0404003A04050035040500C9
:10141000300404002C040500270404002304050004
:101420001E0404001A04040016040500110404003C
:101430000D04040009040500040404000004040071
:10144000FC030400F8030400F4030400F0030400A8
:10145000EC030400E8030400E4030400E0030400D8
:10146000DC030400D8030400D4030400D003040008
:10147000CC030400C8030300C503030024F404D90B
:10148000201BC40C5C0E9804C4095F02650771013F
:10149000F405F900FB04B30048048700C1036900A8
:1014A0005803550003034500BE023A008402310090
:1014B00053022A002902250004022000E4011C0036
:1014C000C8011900AF01170098011400840113002E
:1014D000710110006101100051010E0043010D0067
:1014E00036010B002B010B0020010B001501090038
:1014F0000C01090003010800FB000800F3000800CC
:10150000EB000700E4000600DE000600D80006003D
:10151000D2000600CC000500C7000500C20005008F
:10152000BD000400B9000400B5000400B1000400CF
:10153000AD000400A9000400A5000300A200030000
:101540009F0004009B000300980003009500020028
:1015500093000300900003008D0002008B00030045
:10156000880002008600020084000300810002005F
:101570007F0002007D0002007B0002007900020073
:101580007700010076000200740002007200010082
:10159000710002006F0002006D0001006C0002008B
:1015A0006A00010069000200670001006600010096
:1015B000650001006400020062000100610001009A
:1015C000600001005F0002005D0001005C0001009E
:1015D0005B0001005A0001005900010058000100A1
:1015E00057000100560001005500010054000100A1
:1015F000530000005300010052000100510001009F
:10160000500001004F0001004E0000004E0001009C
:101610004D0001004C0001004B0000004B00010098
:101620004A00010049000100480000004800010094
:101630004700010046000000460001004500000090
:101640004500010044000100430000004300010088
:101650004200000042000100410000004100010082
:10166000400001003F0000003F0001003E0000007C
:101670003E0001003D0000003D0001003C00000074
:101680003C0000003C0001003B0000003B0001006A
:101690003A0000003A000100390000003900010062
:1016A000380000003800000038000100370000005A
:1016B000370001003600000036000000360001004F
:1016C0003500000035000000350001003400000046
:1016D000340000003400010033000000330000003B
:1016E000330001003200000032000000320001002F
:1016F0003100000031000000310001003000000026
:1017000030000000300001002F0000002F0000001A
:101710002F0000002F0001002E0000002E0000000E
:101720002E0001002D0000002D0000002D00000003
:101730002D0001002C0000002C0000002C000000F7
:101740002C0001002B0000002B0000002B000000EB
:101750002B0001002A0000002A0000002A000000DF
:101760002A000100290000002900000029000000D3
:1017700029000000290001002800000028000000C6
:1017800028000000280000002800010027000000B9
:1017900027000000270000002700000027000100AC
:1017A00026000000260000002600000026000000A1
:1017B0002600010025000000250000002500000093
:1017C0002500000025000000250001002400000085
:1017D0002400000024000000240000002400010078
:1017E000230000002300000023000000230000006D
:1017F000230000002300000023000100220000005D
:101800002200000022000000220000002200000050
:101810002200010021000000210000002100000042
:101820002100000021000000210000002100010033
:101830002000000020000000200000002000000028
:101840002000000020000000200000002000010017
:101850001F0000001F0000001F0000001F0000000C
:101860001F0000001F0000001F0001001E000000FC
:101870001E0000001E0000001E000000232C0000BF
:10188000B8220000561800003A0F0000B808000007
:10189000B1040000710200003E0100006563686F42
:1018A0003A004572726F723A0042696C696E656106
:1018B00072204C6576656C696E6720477269643A80
:1018C0000A0053544F505045442E20005072696E08
:1018D0007465722073746F70706564206475652020
:1018E000746F206572726F72732E2046697820744F
:1018F0006865206572726F7220616E642075736511
:10190000204D39393920746F207265737461727497
:101910002E202854656D706572617475726520693A
:10192000732072657365742E20536574206974206A
:1019300061667465722072657374617274696E6732
:10194000290A0021212053544F502063616C6C659B
:10195000642062656361757365206F6620424C5434
:101960006F756368206572726F72202D20726573C7
:10197000746172742077697468204D3939390A00AE
:101980005072696E74696E67204F626A6563740095
:101990002553202569002F2F616374696F6E3A000B
:1019A000626567696E00656E640070726F6D707459
:1019B0005F0073686F7700486F74656E6420746FA2
:1019C0006F20636F6C640A0053656E64204D313084
:1019D0003820746F20726573756D650A00526568F2
:1019E00065617420446F6E65005265686561746955
:1019F0006E67005265686561740048656174657260
:101A000054696D656F75740053656E64204D313097
:101A10003820746F2068656174206E6F7A7A6C6507
:101A20000A004E6F7A7A6C65205061726B656400B3
:101A3000706175736564004D3630303A20546F6FB5
:101A400020436F6C6400726573756D656400526548
:101A500073756D696E670000FE0003FF8007C7C0E5
:101A60000701E00000E00000F00000700400700ECC
:101A700000701F00703F80F00E00E00F01E007C70C
:101A8000C003FF8000FE0000FE0003FF8007C7C008
:101A90000F01E00E00E03F80F01F00700E007004A8
:101AA00000700000700000F00000E00701E007C7D0
:101AB000C003FF8000FE000E000E000E000E000EA0
:101AC000000E000E000E007FC03F801F000E0004BD
:101AD0000004000E001F003F807FC00E000E000EAD
:101AE000000E000E000E000E000E00FFFFFF7F80B4
:101AF000FFC0FFC0FFC07F807F80FFC0FFC0FFC06E
:101B00003F001E000C004C6F6164206D6D00556E2F
:101B10006C6F6164206D6D0046696C2E20446961B4
:101B20002E004520696E206D6DC2B3004D333033F9
:101B3000205531204525692053256900504944200E
:101B40004175746F74756E65202A005049442D44A8
:101B5000202A005049442D49202A005049442D5044
:101B6000202A0020082046616374002008204D616F
:101B700078002008204D696E004175746F74656DA2
:101B80007000206D61783A2000206D696E3A200067
:101B90003F5A206F7574206F662072616E676520F2
:101BA00028003F59206F7574206F662072616E6740
:101BB0006520282D0020746F20003F58206F757419
:101BC000206F662072616E676520282D0050726F4D
:101BD0006265204F6666736574205800656E717586
:101BE000657565696E672022006F6B0052657365CD
:101BF0006E643A200025697920256964202569688A
:101C00002025696D202569730023646566696E650A
:101C10002044454641554C545F004B6420004B69BD
:101C200020004B702000504944204175746F74753A
:101C30006E652066696E69736865642120507574ED
:101C400020746865206C617374204B702C204B6984
:101C500020616E64204B6420636F6E7374616E74D8
:101C6000732066726F6D2062656C6F7720696E7489
:101C70006F20436F6E66696775726174696F6E2E4F
:101C8000680A00504944204175746F74756E652070
:101C90006661696C6564212074696D656F75740A8D
:101CA000000A20436C617373696320504944200A21
:101CB00000204B643A2000204B693A2000204B70F2
:101CC0003A20000A204E6F206F76657273686F6F3E
:101CD000740A002054753A2000204B753A200020E9
:101CE000643A200020626961733A20005049442020
:101CF0004175746F74756E652073746172740A0037
:101D0000504944204175746F74756E652066616931
:101D10006C6564212054656D7065726174757265BF
:101D200020746F6F20686967680A00504944204139
:101D300075746F74756E65206661696C65642120C9
:101D4000426164206578747275646572206E756D89
:101D50006265720A004572723A20757466382066B0
:101D60006F6E74206E6F7420696E697469616C693E
:101D70007A65642E00FFE0FFD140A0C8A6A22FF82C
:101D80000023AC00AF10FFFEFF05FFD0FFE0FFC156
:101D9000FFD1E240A0C8A6A22FF800238127AC0003
:101DA000AFFFD0FF64FFD1A5FFD0FF64FF64FFD178
:101DB000A4FFD0FFFE416476616E636564205365C5
:101DC0007474696E677300496E6974004D343238FB
:101DD00000496E697469616C697A652045455052A5
:101DE0004F4D0043616E63656C204F626A6563749A
:101DF0000053746570732F6D6D0050726F626520B3
:101E00004F666673657473004A65726B0041636365
:101E1000656C65726174696F6E0056656C6F63699D
:101E200074790053657420486F6D65204F66667342
:101E3000657473004E4F005945530043616E6365EE
:101E40006C204F626A656374203D00436D643A20E4
:101E500053746F7700436D643A204465706C6F79FA
:101E600000436D643A2053572D4D6F646500436DF8
:101E7000643A2053656C662D5465737400436D6439
:101E80003A2052657365740046616E205370656533
:101E900064004C6F61642053657474696E677300ED
:101EA000526573746F72652044656661756C7473F6
:101EB00000507265686561742041425320436F6E23
:101EC00066005072656865617420504C4120436F14
:101ED0006E66004C434420436F6E747261737400ED
:101EE000424C546F756368005654726176204D6998
:101EF0006E00566D696E00566D6178204500566D16
:101F00006178205A00566D6178205900566D6178CD
:101F1000205800416D6178204500416D6178205A5C
:101F200000416D6178205900416D61782058004171
:101F30002D54726176656C00412D52657472616337
:101F40007400416363656C004A756E6374696F6EFB
:101F5000204465760050726F62652059204F666696
:101F60007365740050726F62652058204F66667307
:101F70006574004573746570732F6D6D005A7374CA
:101F80006570732F6D6D005973746570732F6D6D6F
:101F9000005873746570732F6D6D0053746F7265A4
:101FA0002053657474696E677300554E4C4F4144FD
:101FB0002046494C414D454E540046494C414D4503
:101FC0004E54204348414E4745004D31393053353A
:101FD000350A4732380A4732390A4D3430300A4D13
:101FE000313034533231350A4732380A4D313039C5
:101FF000533231350A4D34323053310A473158317A
:1020000030305931303046353030300A47315A306F
:102010000A4D3530300A4D31313720536574205A1E
:10202000204F6666736574004D3130365331323857
:102030000A4D3330334338533231354530550A4D2C
:102040003530300A4D313137205049442054756EB7
:102050006520446F6E65004D3139305335350A4D7A
:10206000313034533231350A4732380A4732394C2D
:10207000310A47312058313030593130304635300F
:1020800030300A47315A30004D3530300A4D313149
:10209000372053657474696E67732053746F72656B
:1020A00064005072657020666F72205A2041646A25
:1020B000757374005049442054756E6500536574FF
:1020C0007570004D37303220542564004D36303065
:1020D00020423020542564004D373032203B2564A7
:1020E000004D37303120542564004D373032004DDB
:1020F000373031004D363030204230005075726735
:1021000065206D6F726500524553554D45204F5007
:1021100054494F4E533A005052494E542050415565
:102120005345440020204E6F7A7A6C653A20002592
:102130006C642E25696D0045787472756465642041
:10214000546F74616C004C6F6E67657374204A6FD6
:10215000622054696D65003E2000546F74616C20EC
:102160005072696E742074696D6500436F6D706C98
:1021700065746564005072696E7420436F756E7487
:1021800000313530004245443A4154432031303427
:1021900047542D320052756E617761792057617412
:1021A00063683A204F4E004D61782054656D700091
:1021B000333135004D696E2054656D700045313AFC
:1021C000204550434F53203130304B005053550081
:1021D00047656E657269630050726F746F636F6CF0
:1021E00000312E30004261756400323530303030BD
:1021F00000437265616C69747933442052414D50DB
:1022000053005061726B696E672E2E2E00000057CE
:1022100061697420666F720066696C616D656E74C9
:10222000206368616E676500746F207374617274F7
:10223000005761697420666F720066696C616D6534
:102240006E7420756E6C6F616400004E6F7A7A6CEC
:10225000652068656174696E6700506C65617365BF
:1022600020776169742E2E2E0000507265737320E2
:10227000627574746F6E00746F2068656174206E8F
:102280006F7A7A6C650000496E73657274206669B6
:102290006C616D656E7400616E642070726573733D
:1022A00020627574746F6E00746F20636F6E746952
:1022B0006E7565005761697420666F720066696C9F
:1022C000616D656E74206C6F61640000507265739F
:1022D0007320427574746F6E00746F20726573752D
:1022E0006D65207072696E740000576169742066B4
:1022F0006F72207072696E7400746F2072657375EE
:102300006D652E2E2E00005761697420666F720075
:1023100066696C616D656E7420707572676500002A
:102320006F70656E00545249474745524544007AE4
:102330005F6D696E00795F6D696E00785F6D696EC3
:10234000005265706F7274696E6720656E64737495
:102350006F70207374617475730A0020436F756E1B
:102360007420583A005761726E696E673A20486F60
:102370006D696E672042756D702044697669736F70
:1023800072203C20310A0000000000000000000024
:10239000000000000070430000704300007A43001A
:1023A0000048420000484200008040020204000051
:1023B000A0400000A04000000040FFFFFF00000020
:1023C000010000000100008000555555000000404C
:1023D0000033333300AAAA2A0049922400000020C7
:1023E00000C7711C0099991900D145170055551562
:1023F000003BB1130024491200111111000000101C
:10240000000F0F0F00E3380E0043790D00CCCC0C09
:1024100000C3300C00E8A20B0064210B00AAAA0A3A
:1024200000703D0A009DD80900427B0900922409F2
:1024300000DCD3080088880800104208000000086B
:1024400000F0C107008787070075500700711C075F
:10245000003EEB0600A1BC06006990060066660619
:1024600000703E06006118060017F4050074D105DF
:10247000005BB00500B2900500627205005555057D
:102480000078390500B81E0500050505004EEC046E
:102490000087D40400A1BD040090A7040049920461
:1024A00000C17D0400EE690400C7560400444404E2
:1024B000005C320400082104004110040000000404
:1024C000003FF00300F8E0030026D20300C3C3037B
:1024D00000CCB503003AA803000A9B0300388E0322
:1024E00000C08103009F750300D0690300505E03A4
:1024F000001D53030034480300913D0300333303B0
:102500000016290300381F030097150300300C0341
:1025100000030303000BFA020049F10200BAE802CB
:10252000005CE002002DD802002DD0020059C80244
:1025300000B0C0020031B90200DAB10200AAAA025A
:1025400000A0A30200BC9C0200FA9502005C8F026E
:1025500000DF88020082820200457C0200277602AA
:102560000027700200436A02007C640200D05E0211
:10257000003F590200C85302004F7574616765201F
:102580005265636F7665727900436F6E6669677531
:10259000726174696F6E003F0043616E63656C0029
:1025A00042696C696E656172204C6576656C696E16
:1025B00067004578747275646572730074696E792A
:1025C0006D616368696E657333642E636F6D00536C
:1025D000755065522043522D323000323032302D4A
:1025E00030322D3238005072696E74657220537427
:1025F00061747300546865726D6973746F727300EF
:10260000426F61726420496E666F005072696E7429
:10261000657220496E666F004D3130303000537462
:102620006F70205072696E7400526573756D65200D
:102630005072696E74004D3231004368616E676597
:10264000204D656469610041626F75742050726944
:102650006E746572004C6576656C696E6720546FA8
:102660006F6C73004E6F204D6564696100496E6642
:102670006F2053637265656E0053746172742050ED
:1026800072696E740043616E6E6F7420656E74655E
:1026900072207375626469723A2000022E2E002047
:1026A00053697A653A200043616E6E6F74206F70D3
:1026B000656E207375626469722000534420636103
:1026C0007264206F6B0A006F70656E526F6F7420BA
:1026D0006661696C65640A00766F6C756D652E695C
:1026E0006E6974206661696C65640A0053442069F0
:1026F0006E6974206661696C0A004D32332025735F
:102700000046696C652073656C65637465640A00D6
:1027100046696C65206F70656E65643A2000454EB1
:102720004420535542524F5554494E450A002220E9
:10273000706F73002220706172656E743A220053CC
:102740005542524F5554494E452043414C4C2074FC
:1027500061726765743A2200747279696E672074D9
:102760006F2063616C6C207375622D67636F6465A5
:102770002066696C6573207769746820746F6F20B8
:102780006D616E79206C6576656C732E204D4158B5
:10279000206C6576656C2069733A310A0044656C7B
:1027A0006574696F6E206661696C65642C2046698A
:1027B0006C653A200046696C652064656C657465DB
:1027C000643A005344207072696E74696E672062C7
:1027D00079746520004E6F74205344207072696EC6
:1027E00074696E670A0057726974696E6720746F46
:1027F0002066696C653A2000667265736800646FD4
:10280000696E67004E6F772000FD55555555555F31
:10281000FFFFFFFFFFFFFFFFFFFE00000000003F84
:10282000FFFFFFFFFFFFFFFFFFFD000007FFFFFFB0
:10283000FFFFFFFFFFFFFFFFFFFE07C005555555D8
:1028400055555FFFFFFFFFFFFFFC0A200600000059
:1028500000003FFFFFFFFFFFFFFE14100500000711
:10286000FFFFFFFFFFFFFFFFFFFC28080607C00573
:1028700055555555555FFFFFFFFE5404040A2006C9
:1028800000000000003FFFFFFFFC6004061410057D
:10289000000007FFFFFFFFFFFFFE500404280806AB
:1028A00007C00555555555555FFC60040654040492
:1028B0000A200600000000003FFE54041C600406CD
:1028C00014100500000000001FFC28082E5004040E
:1028D00028080607C00001F03FFE141054600406EB
:1028E0005404040A200002081FFC0A206654041C39
:1028F00060040614100005043FFE07C05428082E8B
:102900005004042808000A021FFC00002E14105472
:1029100060040654040015013FFE00001C0A2066F6
:1029200054041C60040018011FFC00000607C0547A
:1029300028082E50040014013FFE00000400002E61
:1029400014105460040018011FFCFFFFFE00001C5F
:102950000A206654041C15013FFED555540000069C
:1029600007C05428082A0A021FFC841046000004ED
:1029700000002E14105105043FFEC41044FFFFFE5A
:1029800000001C0A206102881FFC841046D55554A3
:1029900000000607C05101F03FFE84104484104639
:1029A00000000400002A00001FFCC41046C41044AC
:1029B000FFFFFE00001C00003FFE84104484104610
:1029C000D5555400000000001FFCD5555684104416
:1029D00084104600000000003FFCFFFFFCC41046CE
:1029E000C41044FFFFFFFFFF9FFE00000684104459
:1029F000841046D555555555BFFD555554D555569A
:102A000084104484104104109FFFFFFFFCFFFFFC73
:102A1000C41046C410410411BFFFFFFFFE000006B2
:102A200084104484104104109FFFFFFFFD5555544E
:102A3000D5555684104104109FFFFFFFFFFFFFFC98
:102A4000FFFFFCC410410411BFFFFFFFFFFFFFFEAB
:102A500000000684104104109FFFFFFFFFFFFFFDF1
:102A6000555554D555555555BFFFFFFFFFFFFFFF87
:102A7000FFFFFCFFFFFFFFFF9FFFFFFFFFFFFFFFC9
:102A8000FFFFFE00000000003FFFFFFFFFFFFFFF12
:102A9000FFFFFD55555555555FFFFFFFFFFFFFFF3A
:102AA000FFFFFFFFFFFFFFFFFFFFFFFFFFFFFFFF36
:102AB000FFFFFFFFFFFFFFFFFFFFFFFFFFFFFFFF26
:102AC000FFFFFFFFFFFFFFFFFFFFFFFFFFFFFFFF16
:102AD000FFFFFFFFFFFFFFFFFFE02EFB7DFBFBCFB4
:102AE000C1DFBB3EC0E1FE3C1FFDEE7B39F9F3CFF9
:102AF0009EDFBB3EDFDEFCDDE7FDEE3BBBF9EBD747
:102B0000BF5FBB5EDFDEFDEDF7FDEEBBD3FAEBB7DB
:102B10003FDFBB4EDFDFFFCDF3FDEEDBC7FAEBBBE4
:102B20007FC03B6EC0E3FF1DF3FDEECBEFFADBBBD6
:102B30007FDFBB66DFF8FFCDF3FDEEEBEFFB5B0362
:102B40003F5FBB76DFFE7FEDF3FDEEF3EFFB5B79DE
:102B5000BEDFBB7ADFDE7DEDF7FDEEF3EFFBBAFD06
:102B60009EDFBB7CDFDEFDCDE7FDEEFBEFFBBAFDBC
:102B7000C1DFBB7EC0E0FE1C1F1FFFFFFFFFFFFF8A
:102B8000600000000001FF400000000000FF800026
:102B9000000000007F83CF00000C303F87FF8000E3
:102BA0000C301F867980000C000F8C30C7838C306E
:102BB000E78C30CFC7CC31F38C30DCECEC33B98C04
:102BC00030D86C6C33198C30D06C0C33198C30D8F5
:102BD0006C0C33198C30DC6C0E3B198C30CF7C07BD
:102BE0009F198C30C77C038F194000000000000241
:102BF000600000000000061FFFFFFFFFFFF8687481
:102C000074703A2F2F6D61726C696E66772E6F72D9
:102C10006700322E302E345F445736004D3130304D
:102C2000302053002020506C616E6E6572427566D4
:102C300066657242797465733A2000204672656554
:102C4000204D656D6F72793A2000436F6D70696C2D
:102C500065643A204D617220203720323032300ACC
:102C600000204C61737420557064617465643A206F
:102C7000323032302D30322D3238207C2041757484
:102C8000686F723A2054696E794D616368696E6548
:102C90007333440A00322E302E345F4457360A0014
:102CA0004D61726C696E0020536F66747761726556
:102CB0002052657365740A00205761746368646FFD
:102CC000672052657365740A002042726F776E2028
:102CD0006F75742052657365740A002045787465B9
:102CE000726E616C2052657365740A00506F77656F
:102CF0007255700A006175746F25632E6700473244
:102D000038585900446F6E65207072696E74696E30
:102D1000672066696C650A004D3331004D305131D2
:102D20005331383030006572726F72207772697477
:102D3000696E6720746F2066696C650A00446F6E67
:102D40006520736176696E672066696C652E0A007E
:102D50004D3239002553202563202563202563202B
:102D6000256300205A3A0020593A00656E64737456
:102D70006F7073206869743A20007C3C3E5E2B3D86
:102D80003F2F5B5D3B2C2A225C00000C0D00FE07F0
:102D9000022603BC017FFE08FE08FE0508080600A7
:102DA0000040F0C88888987810050808060000C020
:102DB000F88888888888F80505050600012030F81D
:102DC00030200508080600002070F820202020E0B0
:102DD0000509090600FF2070A8A8B888887020059A
:102DE0000606060001E08CEA8C8A0A05090906003D
:102DF000FFF8A88888888888A8F8050A0A0600FECF
:102E0000205050505088A8A8887003030306000380
:102E100040A040FFFFFFFFFFFFFFFFFFFFFFFFFF9F
:102E2000FFFFFFFFFFFFFFFFFF0000000605FF01A0
:102E3000070706020080808080800080030303066D
:102E40000105A0A0A005060606000050F85050F8A5
:102E5000500509090600FF2070A8A07028A870205E
:102E6000050707060000C8C8102040989805070706
:102E700006000040A0A040A89068010303060205D8
:102E80008080800309090601FF2040408080804047
:102E900040200309090601FF8040402020204040D7
:102EA0008005070706000020A8702070A8200505EF
:102EB000050600012020F820200203030601FFC0C0
:102EC0004080050101060003F8020202060100C06D
:102ED000C0050707060000081010204040800507C5
:102EE00007060000708898A8C888700307070601C5
:102EF0000040C040404040E00507070600007088E1
:102F000008102040F8050707060000F808103008F0
:102F1000887005070706000010305090F810100563
:102F20000707060000F880F0080888700507070604
:102F30000000304080F0888870050707060000F820
:102F400008101020202005070706000070888870F0
:102F50008888700507070600007088887808106068
:102F6000020505060100C0C000C0C0020606060139
:102F7000FFC0C000C040800305050601012040805D
:102F80004020050303060002F800F80305050601CA
:102F9000018040204080050707060000708810204F
:102FA0002000200507070600007088B8A8B88070C8
:102FB000050707060000708888F8888888050707D5
:102FC000060000F04848704848F005070706000072
:102FD00070888080808870050707060000F04848E8
:102FE000484848F0050707060000F88080F0808018
:102FF000F8050707060000F88080F080808005074C
:103000000706000070888080988870050707060012
:1030100000888888F8888888030707060100E04050
:1030200040404040E005070706000038101010102F
:1030300090600507070600008890A0C0A090880552
:103040000707060000808080808080F8050707065B
:10305000000088D8A88888888805070706000088A7
:1030600088C8A8988888050707060000708888889F
:10307000888870050707060000F08888F080808047
:1030800005070706000070888888A890680507076C
:10309000060000F08888F0A0908805070706000069
:1030A00070888070088870050707060000F82020E7
:1030B0002020202005070706000088888888888847
:1030C000700507070600008888888850502005078B
:1030D0000706000088888888A8A85005070706000A
:1030E00000888850205088880507070600008888D7
:1030F0005020202020050707060000F80810204077
:1031000080F80309090601FFE080808080808080CC
:10311000E005070706000080404020101008030962
:10312000090601FFE020202020202020E0050303E5
:103130000600052050880501010600FEF803030380
:103140000601058040200505050600007008788806
:10315000780507070600008080F0888888F005055C
:1031600005060000708080887005070706000008CB
:103170000878888888780505050600007088F08042
:1031800070050707060000304840E0404040050752
:10319000070600FE70888888780870050707060013
:1031A000008080F0888888880307070601004000B7
:1031B000C0404040E00409090601FE100030101034
:1031C0001010906005070706000080808890E0904E
:1031D00088030707060100C04040404040E0050565
:1031E00005060000D0A8A8A8A8050505060000B09F
:1031F000C8888888050505060000708888887005DD
:1032000007070600FEF0888888F08080050707061B
:1032100000FE78888888780808050505060000B053
:10322000C880808005050506000078807008F005DC
:1032300007070600002020F82020201805050506B5
:103240000000888888986805050506000088888839
:1032500050200505050600008888A8A8500505052A
:1032600006000088502050880507070600FE888861
:103270008850204080050505060000F8102040F821
:103280000309090601FF20404040804040402001E2
:1032900009090602FF808080808080808080030989
:1032A000090601FF80404040204040408005030364
:1032B00006000248A890FF2062797465733B206382
:1032C000726320004E6F20454550524F4D2E0A002C
:1032D000205200454550524F4D206461746173691E
:1032E0007A65206572726F722E0A002073746F7295
:1032F00065642073657474696E6773207265747297
:103300006965766564202800202863616C63756CAC
:103310006174656429210A0020213D200045455043
:10332000524F4D20435243206D69736D6174636841
:10333000202D202873746F726564292000496E6403
:1033400065783A2000204D61726C696E3D563736C3
:10335000290A00454550524F4D2076657273696FBA
:103360006E206D69736D6174636820284545505205
:103370004F4D3D00454550524F4D20496E6974698F
:10338000616C697A65640A0048617264636F6465A0
:10339000642044656661756C742053657474696E4D
:1033A0006773204C6F616465640A003B2000202035
:1033B0004D363033200020550046696C616D656ED6
:1033C00074206C6F61642F756E6C6F6164206C6526
:1033D0006E677468733A0020204D393030204B00FE
:1033E0004C696E65617220416476616E63653A0076
:1033F00020204D3835312058005A2D50726F6265AB
:10340000204F66667365740020204D34313320539D
:1034100000506F7765722D4C6F7373205265636F28
:10342000766572793A0020204D3235302043004CC9
:10343000434420436F6E74726173743A0020204DD0
:1034400033303420500020204D3330312050005094
:1034500049442073657474696E67733A00204600AE
:1034600020480020204D3134352053004D617465D3
:103470007269616C20686561747570207061726139
:103480006D65746572733A002020473239205720E9
:10349000490020204D3432302053004175746F2094
:1034A000426564204C6576656C696E673A00202041
:1034B0004D323036205800486F6D65206F66667358
:1034C00065743A00204A0020204D323035204200F9
:1034D000416476616E6365643A20423C6D696E5F5B
:1034E0007365676D656E745F74696D655F75733E56
:1034F00020533C6D696E5F66656564726174653EFC
:1035000020543C6D696E5F74726176656C5F6665B0
:103510006564726174653E204A3C6A756E635F64DF
:1035200065763E0020204D323034205000416363E8
:10353000656C65726174696F6E2028756E6974734D
:103540002F7332293A20503C7072696E745F616348
:1035500063656C3E20523C726574726163745F6196
:103560006363656C3E20543C74726176656C5F6188
:103570006363656C3E0020204D3230312058004D91
:103580006178696D756D20416363656C6572617406
:10359000696F6E2028756E6974732F7332293A0033
:1035A00020204D3230332058004D6178696D756DA3
:1035B000206665656472617465732028756E697430
:1035C000732F73293A0053746570732070657220ED
:1035D000756E69743A0020204D3230302044300A34
:1035E0000020204D32303020440020446973616255
:1035F0006C65640A0046696C616D656E7420736564
:103600007474696E67733A0020204D313439204359
:10361000203B20556E69747320696E2043656C737E
:103620006975730A0020286D6D290020204732310A
:10363000202020203B20556E69747320696E206D18
:103640006D00486F6D696E67204661696C65640046
:1036500000803B4400803B44000020410000964233
:103660000000A0420000A0420000C8430000BE428B
:10367000D0070000D0070000640000004B000000ED
:103680002568753A253032687500256875642025EF
:10369000303268753A2530326875002020202020AD
:1036A0002020004D656469612052656D6F76656408
:1036B000004D6564696120496E73657274656400CC
:1036C0001FE02010201020101020102020102010AB
:1036D00030300840048003001FE03FF03FF03FF02F
:1036E0001FE01FE03FF03FF03FF00FC007800300F6
:1036F0003FFFF038007030FC3020FC1020781020A4
:1037000030102C00D02E31D02F7BD02F7BD02E31FB
:10371000D02C00D020301020781020FC1030FC304D
:103720003800703FFFF03FFFF038007031863023E3
:1037300087102787902F87D02F03D0203010207834
:10374000102078102030102F03D02F87D02787909B
:103750002387103186303800703FFFF01FFFF81FBD
:10376000FFF804104002082002082004104008203E
:10377000801041001041000820800410400000002B
:103780001FFFF81FFFF8FFFFFF8000018E00E19F81
:1037900001F19381399F81F99F81F99FB9F98F28B0
:1037A000F18038018000019FFFF99174999B06A96F
:1037B0009B54A99B56A99B54999FFFF9FFFFFF417A
:1037C0006363656C65726174696F6E3A2050003F87
:1037D0004A206F7574206F662072616E67652028BD
:1037E000302E303120746F20302E33290A00204DC6
:1037F000393220580020204D61783A200020204D99
:10380000696E3A2000536F667420656E6473746F3E
:1038100070733A20004D32342053256C64205425B7
:103820006C64004739322E3920452573004731201A
:10383000462564004739322E39205A257300473116
:10384000205A30204632303000473120582573202E
:10385000592573204633303030004D3432302053F8
:103860002569205A2573004D3130362050256920B6
:10387000532569004D31303920532569004D3139C8
:103880003020532569004D323030204425730047E5
:1038900039322E392045305A300A47315A320A47D8
:1038A000323852305859004D343230205330205A7B
:1038B000300020496E76616C696420657874727599
:1038C00064657220005072696E7420506175736572
:1038D000640020746F6F206C6F6E6720657874725F
:1038E0007573696F6E2070726576656E7465640AB3
:1038F0000020636F6C6420657874727573696F6EF5
:103900002070726576656E7465640A00220A00553F
:103910006E6B6E6F776E20636F6D6D616E643A20B3
:10392000220053755065522043522D32302052658B
:103930006164792E005072696E74696E672E2E2E46
:103940000054656D70657261747572650050726FB8
:103950006265205A204F6666736574004164766123
:103960006E6365204B004D61696E0050726568653D
:1039700061742041425320456E6400507265686551
:103980006174204142532042656400436F6F6C6450
:103990006F776E0046616E205370656564207E000F
:1039A000466C6F77005072696E742066726F6D207E
:1039B0004D656469610050726F62696E672046618F
:1039C000696C656400205A3A200020593A20004270
:1039D000656420583A200050726F62696E67204615
:1039E00061696C65640A00486F6D652025732573F5
:1039F000257320466972737400627574746F6E006B
:103A000050757267654D6F726500436F6E74696EB5
:103A10007565004C6F61642046696C616D656E74FC
:103A2000205400496E736572742066696C616D651F
:103A30006E7420616E642073656E64204D31303881
:103A40000A0050726F62696E6720506F696E740071
:103A500025532025692F25690050726F62696E67B2
:103A6000206D65736820706F696E74200020284493
:103A7000525952554E2900473239204175746F20F2
:103A8000426564204C6576656C696E67003F20284E
:103A90004C2C522C462C4229206F7574206F6620C6
:103AA000626F756E64732E0A003F28562965726234
:103AB0006F7365206C6576656C20696D706C6175DF
:103AC0007369626C652028302D34292E0A0042610A
:103AD00064205A2076616C75650A004E6F20626919
:103AE0006C696E65617220677269640A004465766C
:103AF000696174696F6E0025533A20257300537411
:103B0000616E6461726420446576696174696F6E88
:103B10003A20002052616E67653A20004D65616E63
:103B20003A200046696E6973686564210A00207254
:103B3000616E67653A2000207369676D613A200005
:103B4000206D65616E3A20003A207A3A2000206F9D
:103B5000662000476F696E6720746F3A20580043F3
:103B6000570A00206469723A0020616E676C653AFA
:103B7000005374617274207261646975733A004D08
:103B8000343820506F696E740025533A2025642F15
:103B9000256400506F736974696F6E696E67207475
:103BA00068652070726F62652E2E2E0A003F4E757A
:103BB0006D626572206F66206C65677320696E2088
:103BC0006D6F76656D656E74206E6F7420706C61BC
:103BD000757369626C652028302D3135292E0A00F5
:103BE0003F2028582C5929206F7574206F66206259
:103BF0006F756E64732E0A003F53616D706C6520A3
:103C000073697A65206E6F7420706C617573696278
:103C10006C652028342D3530292E0A004D3438208B
:103C20005A2D50726F6265205265706561746162D1
:103C3000696C69747920546573740A0050617573F6
:103C400065205072696E74006E6F74696669636195
:103C500074696F6E200063616E63656C00507269F9
:103C60006E742041626F72746564004469736D699B
:103C700073730055492041626F72746564004D3260
:103C80003520500A4D323400526573756D6500550C
:103C90004920506175736500726573756D650053D9
:103CA000657474696E67732053746F72656420283D
:103CB00000FFFDFCFAF8F6F4F2F0EEECEAE9E7E5D5
:103CC000E3E1E0DEDCDAD9D7D5D4D2D0CFCDCBCA90
:103CD000C8C7C5C3C2C0BFBDBCBAB9B7B6B4B3B21A
:103CE000B0AFADACAAA9A8A6A5A4A2A1A09E9D9C78
:103CF0009A99989795949392908F8E8D8B8A8988B4
:103D0000878684838281807F7E7D7B7A79787776CF
:103D10007574737271706F6E6D6C6B6A69686766CB
:103D20006564636261605F5E5D5C5B5A59585857B9
:103D300056555453525150504F4E4D4C4B4A4A4990
:103D400048474646454443424241403F3E3E3D3C53
:103D50003B3B3A3938383736353534333232313007
:103D6000302F2E2E2D2C2B2B2A29292827272625AC
:103D70002524232322212120201F1E1E1D1C1C1B45
:103D80001B1A1919181817161615151413131212D1
:103D90001111100F0F0E0E0D0D0C0C0B0A0A090954
:103DA00008080707060605050404030302020100CC
:103DB0000070012C0190012701B0012201C0011DFA
:103DC00001F00118011002130130020E0160020916
:103DD0000190020401C002FF000003FA004003F555
:103DE000008003F000D003EB002004E6007004E143
:103DF00000E004DC004005D700C005D2004006CD3D
:103E000000D006C8008007C3003008BE00F008B923
:103E100000C009B400B00AAF00B00BAA00D00CA5D6
:103E200000000EA000500F9B00C010960050129191
:103E30000000148C00C0158700B0178200B0197DF7
:103E400000D01B7800001E730040206E0090226995
:103E500000F024640040275F0090295A00E02B55B1
:103E600000102E500020304B0010324600E033414D
:103E70000090353C001037370070383200A0392DE3
:103E800000B03A2800A03B2300603C1E00103D1902
:103E900000903D1400103E0F00703E0A00C03E0529
:103EA00000003F0000403FFBFF803FF6FFC03FF1B6
:103EB000FF1000C90210012C0140012201700118FD
:103EC00001B0010E01F00104015002FA00B002F04D
:103ED000003003E600D003DC009004D2007005C877
:103EE00000A006BE000008B400B009AA00D00BA0D4
:103EF00000600E960060118C000015820020197879
:103F000000C01D6E00A0226400B0275A00902C5003
:103F10000000314600E0343C0010383200903A286E
:103F200000603C1E00A03D1400803E0A00203F00BF
:103F300000496E76616C6964206578747275646599
:103F4000720A00202D20496E76616C6964206578C4
:103F5000747275646572206E756D62657220210AD7
:103F600000544845524D414C2052554E41574159FD
:103F700000546865726D616C2052756E617761796D
:103F8000004572723A204D415854454D50004D4104
:103F90005854454D502074726967676572656400B6
:103FA0004572723A204D494E54454D50004D494E90
:103FB00054454D5020747269676765726564004DA1
:103FC000383420582059205A204500202F00204204
:103FD000403A0020403A0020573A006F70656E204A
:103FE0006661696C65642C2046696C653A20004DF9
:103FF0006F74696F6E004F6666004F6E00536F6698
:104000007420456E6473746F7073004D38340044CF
:10401000697361626C6520537465707065727300BA
:104020004732380A4D343820503130004D34382072
:1040300050726F6265205465737400466164652038
:10404000486569676874004732380A473239004C5E
:104050006576656C2042656400473238205A004816
:104060006F6D65205A00473238205900486F6D65E2
:10407000205900473238205800486F6D652058009D
:10408000473238004175746F20486F6D650050727B
:10409000656865617420504C4120456E6400507223
:1040A000656865617420504C4120426564000000E1
:1040B0002100240027002A002D00300033000101D8
:1040C0000000040107010A01000022002500280069
:1040D0002B002E0031003400020100000501080110
:1040E0000B01000020002300260029002C002F00D7
:1040F0003200000100000301060109010505050564
:10410000070508080808020202020A0A080804044F
:10411000040401010101010101010303030303037D
:104120000303040707070C0C0C0C0C0C0C0C02020C
:10413000020206060606060606060B0B0B0B0B0B09
:104140000B0B010210202008081020401020408096
:10415000020102010804020101020408102040804B
:1041600080402010080402018004020180402010D9
:104170000804020108040201010204081020408022
:10418000010204081020408000000A0B02090C0DF7
:104190000E080703040100000000000000000000FA
:1041A000000000000000000000000000000000000F
:1041B00000000000121110000000000000000000CC
:1041C00000000000000000000000000000004D6F33
:1041D00076652025736D6D004D6F766520302E312C
:1041E0006D6D004D6F766520316D6D004D6F76659C
:1041F0002031306D6D004D6F766520417869730018
:10420000486F74656E6420746F6F20636F6C640018
:104210004578747275646572004D6F7665205A003A
:104220004D6F76652059004D6F76652058004368C4
:10423000616E67652046696C616D656E7400556ED0
:104240006C6F61642046696C616D656E74004C6FC3
:1042500061642046696C616D656E740050726568BA
:104260006561742041425300507265686561742035
:10427000437573746F6D005072656865617420508A
:104280004C41004261636B00446966663A20004617
:10429000726F6D5374703A00537465707065723A42
:1042A00000556E4C6576656C3A004C6576656C65BC
:1042B000643A005261773A20202020000A4C6F6750
:1042C0006963616C3A00436F756E7420453A004330
:1042D00061703A004D302053746F70004D3120539F
:1042E000746F7000436C69636B20746F2052657348
:1042F000756D652E2E2E0050726F6265204F6666BA
:10430000736574205A0050726F6265204F66667341
:1043100065745A3A2000453100626564002C2073B0
:10432000797374656D2073746F70706564212048B3
:1043300065617465725F49443A200048656174693B
:104340006E67204661696C65640048656174696EDA
:1043500067206661696C6564004D313132205368B5
:104360007574646F776E004F46460A004661646557
:10437000204865696768742000426564204C657652
:10438000656C696E6720004661696C656420746FB6
:1043900020656E61626C6520426564204C657665BF
:1043A0006C696E670A00496E76616C6964206D65A0
:1043B00073682E0A000054026C0211241FBECFEF56
:1043C000D1E2DEBFCDBF00E00CBF13E0A0E0B2E061
:1043D000ECEEF1EE02E00BBF02C007900D92AC369E
:1043E000B107D9F729E1ACE6B3E001C01D92A233D1
:1043F000B207E1F711E2CCEDD1E200E006C021976F
:104400000109802FFE010F944E6DCB3DD10780E056
:104410000807A9F70F9476580D94E4700C940000E7
:104420002F923F924F925F926F927F928F929F92C4
:10443000AF92BF92CF92DF92EF92FF920F931F93B2
:10444000CF93DF93CDB7DEB7E4970FB6F894DEBF16
:104450000FBECDBF8BAB2091AB1128AB11E01093F9
:10446000AB118091D7188D3409F4EBC3843511F466
:104470000C942D34873411F00C9434348091D51879
:104480009091D6188B31910509F421C1B4F4843090
:10449000910534F482309105E4F597FF2EC0CDC329
:1044A0008531910511F40C9436348A31910509F463
:1044B0000AC1049709F0C1C3C7C08A32910509F443
:1044C000DCC24CF48D319105B1F00CF41AC14E9759
:1044D00009F458C1B2C38B35910509F418C28C3563
:1044E000910509F419C28A35910509F0A6C3109205
:1044F0007A030C94363414E032C180918802882308
:1045000011F40C9436340E9406E60E94CAA00C9462
:10451000363420918802222311F40C94363411E0B1
:10452000029709F010E00E9406E619821A821B82A7
:104530001C821D821E821F82188682E50E94F5471A
:10454000882309F44BC00E9475476B017C0120E071
:1045500030E0A9010F945366882309F455C0809177
:10456000F1099091F209A091F309B091F4098CA39B
:104570009DA3AEA3BFA38091F5099091F609A091E8
:10458000F709B091F8098CA79DA7AEA7BFA78090A7
:10459000741190907511A0907611B09077114090A1
:1045A00078115090791160907A1170907B11A5016B
:1045B00094016CA17DA18EA19FA10F9453668111DE
:1045C0000C943F34A30192016CA57DA58EA59FA5F7
:1045D0000F9453668823C1F00C943F3489E40E9401
:1045E000F547882331F00E94754769837A838B836E
:1045F0009C838AE40E94F547882331F00E94754726
:104600006D837E838F83988720E030E0A9016981E4
:104610007A818B819C810F94536681110C94F334C1
:1046200020E030E0A9016D817E818F8198850F9413
:10463000536681110C94F3340E943A698EE696E039
:104640000E94BF670C94363480E50E94F5478823AA
:1046500029F00F94FC106B017C0103C0C12CD12CFC
:10466000760183E50E94F547882361F00E94754733
:1046700020E030E04AE754E40F94B9660F94CA6E24
:104680006B017C010F94352A8091B511811105C011
:1046900060E084E896E00F94C2230F944D44C60E68
:1046A000D71EE81EF91E0F944D44DC01CB018C1976
:1046B0009D09AE09BF09B7FD02C00C94363480E0F5
:1046C0000E945A3DF0CF0E9426480C9436340F9435
:1046D000D30981110C9436348CE0EEE8F2E0DE016F
:1046E000119601900D928A95E1F760E070E080E507
:1046F0000E9437EDBE016F5F7F4F0F9495220C949F
:1047000036348091A3118770873011F00C940635F0
:1047100060E08FE40E94114881110C9436340C94AF
:1047200006358091231281111FC00F94AA1588238A
:1047300009F1115011F40C94033720E030E04BE6FE
:104740005CE362EF76E085E00E94406861E085EE20
:1047500096E00E94CE678DEC96E00F941D4F0F946B
:10476000D3098823F1F206C060E08FE40E9411486B
:104770008823D9F20E94F26781E897E00F941D4FD9
:104780000C943634209190113091911140919211F6
:10479000509193116091F1097091F2098091F309A0
:1047A0009091F4090F94576DAB01BC0188E50E940C
:1047B000AC7969837A838B839C83209194113091A7
:1047C000951140919611509197116091F509709152
:1047D000F6098091F7099091F8090F94576DAB0194
:1047E000BC0189E50E94AC796D837E838F839887B5
:1047F000BE016B5F7F4FCE0101960F94FA54882360
:1048000011F40C94363480E00E9490630E94BEA3A1
:1048100061E085E40E941148182F21E0482FBE0175
:104820006B5F7F4FCE0101960F94C20A6B017C0132
:104830009B01AC010F94497081115FC089809A80FF
:10484000AB80BC8020E030E0A901C501B4010F9429
:10485000536687FF05C027E137EB41E558EB04C0FD
:1048600027E137EB41E558E3C501B4010F94576DDB
:10487000AB01BC018FEC99E30E9409698D809E8099
:10488000AF80B88420E030E0A901C501B4010F94E5
:10489000536687FF05C027E137EB41E558EB04C0BD
:1048A00027E137EB41E558E3C501B4010F94576D9B
:1048B000AB01BC018AEC99E30E94096920E030E079
:1048C000A901C701B6010F94536687FF05C067E1D0
:1048D00077EB81E598EB04C067E177EB81E598E33E
:1048E000A70196010F94576DAB01BC0185EC99E3CC
:1048F0000E9409698AE00E942E3C0E94A5A3113003
:1049000011F40F9445270E9427A70C9436348FE0AA
:1049100080937A030C9436348091D418882349F11B
:10492000893009F0A6C046EDA42E42E0B42E51EF26
:10493000E52E59E0F52ED12C00E010E0D5018D9147
:104940005D010E94F547882369F00E947547F701D1
:104950006083718382839383133011F401E002C07A
:10496000DD24D3941F5FF4E0EF0EF11C143031F717
:1049700075C096ED292E92E0392E2EE9E22E25E023
:10498000F22E21EF39E03DA32CA334E8C32E31E110
:10499000D32E00E010E0D1018D911D010E94F5475A
:1049A000882309F44BC00E9475472B013C0113304A
:1049B00049F0F60120813181428153810F94566D77
:1049C0002B013C01ACA1BDA12D913D914D915C917C
:1049D000C301B2010F94566D4B015C012DEB37E31F
:1049E00046E855EB0F94B76F87FD0AC02DEB37E310
:1049F00046E855E3C501B4010F9453661816F4F464
:104A0000133051F44092FD095092FE096092FF0963
:104A10007092000A01E012C0A5019401F7016081C3
:104A20007181828193810F94576DD7016D937D932E
:104A30008D939C931397812F0E9409A01F5FB4E070
:104A4000EB0EF11CECA1FDA13496FDA3ECA3F4E068
:104A5000CF0ED11C143009F09ECF05C0DD2019F017
:104A60000E94F5A506C0002321F08DEF99E00F9478
:104A7000462A0E9427A70C94363480918802882306
:104A800011F40C94363489E40E94F547E82E88230B
:104A900021F00E947147082F01C000E08AE40E94C3
:104AA000F547F82E882321F00E947147182F01C086
:104AB00010E0EE2011F0053020F4FF2041F0153019
:104AC00030F089E997E00E94BF670C94363480E1AA
:104AD000E1EFF9E0A4E7B1E101900D928A95E1F7E9
:104AE000EE2019F1602F000F770B880B990B0F94B4
:104AF0005A662091E6083091E7084091E808509105
:104B0000E9080F94B9662091D8083091D9084091EE
:104B1000DA085091DB080F94576D6093741170930D
:104B200075118093761190937711FF2019F1612F01
:104B3000110F770B880B990B0F945A662091EA0896
:104B40003091EB084091EC085091ED080F94B96654
:104B50002091DC083091DD084091DE085091DF089B
:104B60000F94576D609378117093791180937A1137
:104B700090937B1160E080E50E9411488823C1F189
:104B8000EE20D1F02091901130919111409192112D
:104B900050919311609174117091751180917611FB
:104BA000909177110F94566D6093741170937511F5
:104BB0008093761190937711FF20D1F0209194117A
:104BC0003091951140919611509197116091781103
:104BD0007091791180917A1190917B110F94566D9B
:104BE000609378117093791180937A1190937B116F
:104BF00040E050E0BA0186E40E94AC796B017C0190
:104C000020E030E0A9010F94B76F18164CF420E0B3
:104C100030E040E752E4C701B6010F94516E03C083
:104C200060E070E0CB0169837A838B839C83CE0143
:104C300001960E94DDA30C9436340F94AC010C94C1
:104C400036348091D5189091D6188937910511F492
:104C50000C94172E0CF03CC18D34910509F445C419
:104C60000CF09CC08B31910509F42EC30CF056C09A
:104C70008531910509F488C2B4F58131910509F4B3
:104C80006FC244F4029710F00C942A340F94B04C85
:104C90000C9436348231910509F45FC6449711F0C3
:104CA0000C942A3480ED97E00E94BF6783EF95E172
:104CB0000E94A5C28BE1E3EFF5E1DE0111960190C0
:104CC0000D928A95E1F760E070E0CE0101960E94B6
:104CD00087B8CE0101960E94865481EC97E00E942D
:104CE000BF670C9436348831910509F46CC26CF4BA
:104CF0008631910509F44CC2479711F00C942A347F
:104D0000E0917C05F0917D0550C28931910509F44F
:104D1000C2C24A9709F4CAC20C942A34813291055E
:104D200009F47AC3ECF48E31910509F43CC37CF4A8
:104D30008C31910509F42FC34D9711F00C942A344E
:104D40008091D6158E7F8093D6150C9436348F3192
:104D5000910509F465C3809709F435C30C942A348E
:104D60008934910509F4AAC364F48A32910509F4DF
:104D700077C3C09711F00C942A340F9415110C943A
:104D800036348B34910509F4ACC38C34910511F0A1
:104D90000C942A340F94F41F0C9436348C369105FD
:104DA00011F40C9436340CF053C08535910509F498
:104DB000D7C5ACF58235910509F4C1C534F58E34FB
:104DC000910509F496C38135910511F00C942A34AC
:104DD0000F9482330F94E9270F94F52B0E94163914
:104DE0001092A7111092A6111092A51168EE73E00F
:104DF00080E090E00E94FF660E94523960E082EA03
:104E000098E00F94C2230C9436348335910509F44D
:104E10009DC58435910509F4A0C50C942A348936C2
:104E2000910509F472C454F48C35910509F4BBC59D
:104E30008836910509F4EFC30C942A348A3691051B
:104E400009F477C48B36910509F497C40C942A347D
:104E50008237910509F431C6D4F48F36910509F4EF
:104E6000AEC454F48D36910509F4F9C38E3691051C
:104E700009F492C40C942A348037910511F40C94EF
:104E800036348137910509F4DFC40C942A3486370F
:104E9000910509F48FC654F48337910509F410C6BF
:104EA0008537910509F475C60C942A348737910526
:104EB00009F4BAC68837910511F00C942A3481E0C0
:104EC00080934E0680934D060E948CA80C94363435
:104ED000803921E0920711F40C94DD310CF089C087
:104EE000833D910509F4B9C70CF040C0883C910599
:104EF00009F4FFC6CCF48139910509F49FC654F436
:104F00008D37910509F418C58C38910509F4C1C491
:104F10000C942A348B39910509F4E8C48E3B910531
:104F200009F4D2C40C942A348C3C910509F46DC761
:104F300054F4893C910509F426C78B3C910509F48A
:104F400045C70C942A348D3C910509F461C78E3C09
:104F5000910511F00C942A3456EDC52E52E0D52E51
:104F600060E0E62E67E0F62E10E05BC78232A1E03B
:104F70009A0711F40C947630DCF4823E910509F422
:104F8000D2C754F48C3D910509F46AC78D3D910553
:104F900009F473C70C942A348A3F910511F40C94D8
:104FA00081318831914011F40C94DF2F0C942A3414
:104FB0008E32F1E09F0711F40C9496316CF48C3230
:104FC00031E0930711F40C9479308D32914011F453
:104FD0000C948E300C942A348F32B1E09B0711F47C
:104FE0000C94DA318033914011F40C940E310C940E
:104FF0002A34873FF1E09F0711F40C9419330CF029
:1050000052C0853A31E0930711F40C94E03144F535
:105010008A39B1E09B0711F40C94363494F4813949
:10502000F1E09F0709F40FC78239914011F00C9409
:105030002A340F940C110F9445270E9427A70C9433
:1050400036348D3931E0930711F40C940634843AE8
:10505000914011F00C942A340F943A560C94363443
:10506000843FB1E09B0711F40C9413336CF48C3A39
:10507000F1E09F0711F40C944932863E914011F4FF
:105080000C94A7320C942A34853F31E0930711F435
:105090000C941633863F914011F00C942A340E94F0
:1050A00075D10C9436348E3BB2E09B0711F40C940E
:1050B000B6331CF58835F2E09F0711F40C943A33AF
:1050C0006CF4883F31E0930711F40C9421338C3059
:1050D000924011F40C9432330C942A348B35B2E0A4
:1050E0009B0711F40C943D338D3B924011F00C94CE
:1050F0002A340E941AEA0C9436348438F3E09F076D
:1051000011F40C94BC336CF4833533E0930711F441
:105110000C94B9338C36934011F40C9436340C94BF
:105120002A34873EB3E09B0711F40C94F833883E91
:10513000E3E09E0711F40C942734803A934011F079
:105140000C942A3420917C0530917D059091D615E0
:1051500092609093D615C9010E9455B70C943634CD
:105160008091EC0484FF02C00C9419378091EE0406
:1051700087FF02C00C9419378091EF04837011F0FF
:105180000C9419370C9435370E949AB50C94363428
:105190000E94E5B48091D615877F8093D6150C9434
:1051A0003634803209F41082319680818111F9CF32
:1051B00060E080917C0590917D050E94A5B71092DA
:1051C0000D070C94363483E50E94F547882321F0BF
:1051D0000E943D470E94D38084E50E94F5478823C2
:1051E000A9F00E943D476B017C010F94D91FC0922A
:1051F0002812D0922912E0922A12F0922B12CD2876
:10520000CE28CF2819F081E08093F0098091CB055A
:105210008823E9F080E090E0A0EAB1E489839A83F2
:10522000AB83BC831C8E1D8E1E8E1F8E18A219A2EE
:105230001AA21BA220E0AE014F5F5F4FBE01645E69
:105240007F4FCE0180960E94506A0C9436340E94A3
:105250001B39882381F00E94F6B40E943F398DE803
:1052600096E00E949BB41092F0041092F104109208
:10527000F2041092F30461E088E99CE30E94CE6797
:105280004BE65CE361EE77E085E00F94A0090F94B4
:1052900089010C9436348091D61582FF03C08B7F30
:1052A0008093D6150E945EEC0C9436348091D6150E
:1052B00083FD02C00C94363483E50E94F5478111CA
:1052C0000C9443370C94363483E40E94AC47882313
:1052D000C1F187EF97E00E94BF6780913A1788235A
:1052E00039F1BE016F5F7F4F87E397E10E9471C282
:1052F0008E010F5F1F4FD8018D918D01882319F00A
:105300000E942E3CF8CFCE0101960E9427B78091D3
:10531000AE09882389F080E20E942E3C0EEA19E053
:10532000F80181918F01882339F00E942E3CF8CF3B
:105330008DEE97E00E94BF678AE00E942E3C0C949D
:10534000363483E50E94F547882309F10E944D47D2
:10535000182F90E0CD970CF01CE3109370030F947E
:105360004D446B017C01212F30E0A8EEB3E00F9497
:10537000FD6CC60ED71EE81EF91EC0926C03D092BB
:105380006D03E0926E03F0926F030C9436340E942A
:1053900074B40C94363480917C0590917D050E9404
:1053A00055B70C9436348091D61583FD02C00C9409
:1053B00036340F94DD0C80917C0590917D050E9420
:1053C000B3B60C9436348091D61582FD0F94352AED
:1053D0008091D61583FD02C00C94363460E080E5E0
:1053E0000E941148182F682F80917C0590917D05AF
:1053F0000E94A5B783E50E94F547882321F00E940B
:105400003D470E94D3800E94F6B411110C943634AB
:105410000E943F390C9436340E9403800C94363439
:105420000F94A51F6C8F7D8F8E8F9F8FBE016F5F36
:105430007F4FCE014C960E94247F60E0CE01019602
:105440000F945F240E94106ABE016F5F7F4F86E059
:1054500098E00E9427698AE00E942E3C0C94363422
:1054600083E50E94F547882311F40C9436340E949A
:105470004D47F82E6DE070E080E50E9402488C01F7
:1054800097FF02C00C943634873031F0893041F4F4
:10549000F092320A0C943634F092330A0C9436347B
:1054A00060E089E40E94114881110C944837802FF4
:1054B0000F945158811154C50C94483780E50E94CF
:1054C000AC47882311F40C9436340E944D4790E089
:1054D0008536910510F084E690E080930D070C94DA
:1054E00036340E943F390C9436340F94E9270C94DB
:1054F000363460E070E083E50E9402488E34910506
:1055000031F40F945A280F9489010C94363489E6AB
:1055100098E00E94BF6760913D0670913E0680E66C
:1055200098E00E94FC6860913F067091400683E518
:1055300098E00E94FC6860913D0670913E06809163
:105540003F0690914006681B790B8091F0098150CD
:1055500021E030E0823010F020E030E0621B730B7D
:1055600088E498E00E94FC688AE00E942E3C89E66C
:1055700098E00E94BF678091410690914206A091F9
:105580004306B09144068C8F9D8FAE8FBF8FBE01B6
:105590006F5F7F4FCE014C960E94247FBE016F5FEC
:1055A0007F4F8BE398E00E94276980914506909198
:1055B0004606A0914706B09148068C8F9D8FAE8F0E
:1055C000BF8FBE016F5F7F4FCE014C960E94247F3C
:1055D000BE016F5F7F4F8BE298E00E94276920E059
:1055E00030E04AE754E46091490670914A068091A0
:1055F0004B0690914C060F94516EAB01BC0183E1B8
:1056000098E00E9409698DE60E942E3C8AE00E9483
:105610002E3C0C9436348091FC1083FF02C00C9415
:1056200036340E9426E787FF02C00C94363483E5A7
:105630000E94F547882379F00E9475470F94C36E46
:10564000CB010F945B2E0F94345F811104C00F9433
:10565000E9270F9489010F94045F0C9436348091EC
:10566000FC1083FF02C00C9436340E9426E7F82E0B
:1056700087FF02C00C94363483E50E94F547082F5B
:10568000811106C082E50E94F547182F882381F119
:105690000E9475470F94C36ECB010F945B2E0F943D
:1056A000345F882311F40C9456370E943F3960917F
:1056B0008F1470919014072E000C880B990B0F9487
:1056C0005A664B015C0140908B1450908C14609092
:1056D0008D1470908E14A30192010F94B76F181659
:1056E00014F40C947637002311F40C945C3711E019
:1056F0000F94045F112311F40C94363440E0602FB2
:105700008F2D0F946F300C9436340E9426E7182F9B
:1057100087FD0AC089EE9BE10E94BF67812F0F942D
:105720006B2E8AE00E942E3CF8A9F093AB110C94EA
:10573000FD3760E080E50F942E56182F823010F070
:105740000C94363481E40E94AC47882321F06091A8
:10575000320A70E002C06FEF70E083E50E9437ED1F
:10576000E12FF0E0EE5CF54F8F3F910519F010F05E
:105770008FEF90E080830C94363460E080E50F94E6
:105780002E56823010F00C943634E82FF0E0EE5CA8
:10579000F54F10820C9436348EE40E94F54788232E
:1057A00011F40C9436340E943D4760937805709351
:1057B000790580937A0590937B050C94363483E5C4
:1057C0000E94AC47882331F060E083E50F942E56A9
:1057D0008093FC100E94106A86E798E00E94BF67E1
:1057E0008091FC10882369F189EFE82E8BE0F82E78
:1057F00000E010E020E08091FC1090E0A0E0B0E03C
:10580000002E04C0B695A795979587950A94D2F770
:1058100080FF0EC0DD24D394D20E222319F08CE237
:105820000E942E3CF701859194910E94BF672D2D17
:105830000F5F1F4F32E0E30EF11C05301105D9F662
:105840007BCD87EE9DE076CD83E50E94F5478823EA
:1058500081F00E944D47282F30E02D33310524F48C
:10586000809300020C9436348CE3809300020C94F5
:1058700036340E94106A4091000250E060E070E00F
:105880008DE798E00E94EB688AE00E942E3C0C9421
:1058900036348091FC1083FF02C00C94363483E5CB
:1058A0000E94F547882339F00E9475470F94C36E14
:1058B000CB010E942F470F94345F8111D7C70F94FB
:1058C000E9270F948901D2C78091FC1083FDCEC7D0
:1058D00083E50E94F547182F81110C94793782E5F2
:1058E0000E94F54781110C947937C0C783E50E9467
:1058F000F547882309F4BAC70E944D47182F90E056
:10590000CD970CF01CE3109375030F944D446B017D
:105910007C01212F30E0A8EEB3E00F94FD6CC60EA1
:10592000D71EE81EF91EC0927103D0927203E09256
:105930007303F09274039AC70E945EEC97C780913C
:105940007A038F7D806180937A0390C780917A0378
:105950008F7E806280937A0389C70E9439EE86C762
:1059600083E50E94AC47882309F480C70F944D4417
:1059700060939C1170939D1180939E1190939F1141
:105980000E94754720E030E04AE754E40F94B9667E
:105990000F94CA6E609376037093770380937803B5
:1059A0009093790363C70E9426E787FD5FC79091B4
:1059B000EC0494FD04C09091EE0497FF0AC016ED2C
:1059C000C12E12E0D12E0DEFE02E00E1F02E10E0FE
:1059D00009C09091EF04937091F7682F81E00E94C5
:1059E0008FEE44C7D6018D916D010E94F547882343
:1059F00009F459C0133009F04FC00E9475474B019C
:105A00005C0120E030E040EA51E40F94536687FFE8
:105A10003AC0A501940160911D1170911E118091F1
:105A20001F11909120110F94516E2B013C019B018D
:105A3000AC0160912D1170912E1180912F119091D8
:105A400030110F94B96660932D1170932E118093CD
:105A50002F11909330116091220A7091230A809146
:105A6000240A9091250A0F945866A30192010F947D
:105A7000B9660F94CA6E6093220A7093230A8093CA
:105A8000240A9093250A80921D1190921E11A092D3
:105A90001F11B092201107C00E947547F701648B57
:105AA000758B868B978B1F5FF4E0EF0EF11C143023
:105AB00009F098CF0F94112AD9C60F94674DD6C616
:105AC00080ED99E00E94BF6760E080EC99E00F9460
:105AD0004D4D60E08BEA99E00F944D4D61E08CED07
