:100000000C9458270C9489270C9489270C948927E1
:100010000C9489270C9489270C9489270C948927A0
:100020000C9489270C9489270C9489270C94892790
:100030000C9489270C9489270C9489270C94892780
:100040000C9489270C9415E60C9489270C94892725
:100050000C9489270C9489270D94566F0C9422F2E6
:100060000C9489270C94BB5D0C94B15D0C9489278A
:100070000C9489270C9489270C9489270C94892740
:100080000C9449560C9489270C9489270C94892741
:100090000C9489270C9489270C9489270C94892720
:1000A0000C9489270C9489270C941B560C9489274F
:1000B0000C9489270C9489270C9489270C94ED556E
:1000C0000C9489270C9489270C9489270C948927F0
:1000D0000C9489270C9489270C9489270C948927E0
:1000E0000C948927474E4E4E014F12505A5163517E
:1000F0007351F15DF75D095E195E215E515E255E0B
:10010000515E295E2D5E515E315E355E395E425E26
:10011000515E4D5E3CF141F146F150F15AF1D3F19F
:1001200064F16CF174F17EF188F192F1A1F1ABF11F
:10013000D3F1B5F1BFF1C9F186FFB8FFBAFFC9FF2E
:10014000CEFF84FFD9FF3C018A023E02F801F00293
:10015000AA0102035E01B401BE018E02E6021E0284
:100160002A01AA01E60128029402DE01B001BC01C5
:10017000FE013A024A024E01F2016601920150016B
:100180009E02084AD73B3BCE016E84BCBFFDC12F07
:100190003D6C74319ABD56833DDA3D00C77F11BE78
:1001A000D9E4BB4C3E916BAAAABE000000803F057B
:1001B000A84CCDB2D44EB93836A9020C50B99186AC
:1001C00088083CA6AAAA2ABE000000803F07634216
:1001D00036B79BD8A71A39685618AEBAAB558C1DDE
:1001E0003CB7CC5763BD6DEDFD753EF6177231BF60
:1001F000000000803F08000000BE922449123EAB80
:10020000AAAA2ABECDCCCC4C3E00000080BEABAA30
:10021000AAAA3E00000000BF000000803F000000CE
:100220000000084178D3BB4387D1133D190E3CC36E
:10023000BD4282AD2B3E68EC8276BED98FE1A93EED
:100240004C80EFFFBE01C4FF7F3F000000000000B4
:100250000C947E9A0D94FA140C942D5E0C947F9855
:100260000C94FE8F0C94609C0C945FA00D94C2645F
:100270000C94B79C0C949E9C0D94D3140C9486FF04
:100280000C9446F10C9473510C94B18D0C9484FF32
:100290000C94709E0C9492F10C94BE8B0D94C36CD4
:1002A0000D94C96C0D948D5E0D94F0640C945A9D60
:1002B0000C9428810D944C690D940E290D94DE1434
:1002C0000C946CF10D942E290C9463510D94C66C12
:1002D0000C94255E0C943CF10D94E5820C94F08B0B
:1002E0000C941D8B0D94E46C0C94E2BD0D94E764AA
:1002F0000C945DA00C94F2800C949D980C944FBCCF
:100300000C94F15D0C94295E0C9420920C94474E51
:100310000D94E7280C9477E50C9465A00C94EA9A68
:100320000C9450F10D94DC6C0D941A610C94979818
:100330000D9419290C94B49A0C9463A00C9499B15F
:100340000D9450690D9434210C94E8BD0C94F75D24
:100350000C9467980D940D150D94E0820C94ABF1FC
:100360000D94B76C0D944D830D94E4140C946D8C26
:100370000C94CEFF0D94EB280D94BA6C0D94E814F8
:100380000C94C9B00C94B7A30C94CD9C0D94406907
:100390000C94C5F00C94E1B90D94B65C0C94A18C4E
:1003A0000C94F09A0C94315E0C949D8C0D94018504
:1003B0000C9409810C94515E0C948C8B0D94DE6C22
:1003C0000C946D980D94F1290C942F8C0D940015BC
:1003D0000D94B75F0D9428290C94B9B10C94248125
:1003E0000C94395E0D94CF6C0C9441F10D943869E6
:1003F0000D94C9140C94B5F10C94C9F10D94E16CF1
:100400000C94A0B90D94E32C0C9405B20D942629FC
:100410000C942FBD0C94E4910C94588B0C94C4B1A3
:100420000C948E960C94C9FF0D94F8640C94428C35
:100430000C9447BB0C9488F10C9433B50D94F614CE
:100440000C944EA00C94425E0D9448690C94195E75
:100450000D9404150D94CE640D94FC840C94A1F1BC
:100460000C9422810D943C690D9454850C943D8F1D
:100470000C9427C20D94BD6C0C94095E0D94C514A8
:100480000D94735D0D94D6820C94618C0C94048849
:100490000D94EAA60D94C06C0C945AF10C9474F16E
:1004A0000C947EF10D9434690D945D850C94BAA37F
:1004B0000C94CAB00C942BBF0C9485980C94D999C9
:1004C0000D9497820C94CF9A0C94B6A30C9430861A
:1004D0000D94DB820C944E4E0D94905E0C9426810C
:1004E0000D94BD670C94D6A10C94639A0D94FF8271
:1004F0000C94EC820C9455930D94F7840C94799899
:100500000C9464F10C9427BE0C94D9FF0C94A58B29
:100510000C9412500D94D6140D94CCA60D94EC149A
:100520000C946AA40D94B45F0D9408150C94BF90BC
:100530000D94B42A0D94935E0D94BC3D0D94CC6C37
:100540000C945A510D9430690C945FBA0D94A965BE
:100550000C9494BF0C940D930C94168C0D94D85C51
:100560000D94F35D0D9411830C945B8C0C94F885C1
:100570000C94BFF10C9460C10C94038C0C948B9878
:100580000C94999A0C94D3F10C9461A00C94B8FF3C
:100590000D940B830C94D5910C94355E0D94DC6610
:1005A0000C9461980D9406850C9473980C94A4B8DF
:1005B0000C94014F0C9420810C94BAFF0C94EFF032
:1005C0000D94E9860C942BFF0D942C690D94F21474
:1005D0000C94D78B0C9491980C944D5E0C9484B130
:1005E0000D94CF140C9493910D94EC870C94C29CB1
:1005F0000C946EFF0C9412BA0D9424290C94738BF6
:100600000D9428690D94DA140D94D66B0D9405831E
:100610000D94B15F0C9415B30C9430B70D944E66E5
:100620000C945E8C0D948A5E0D9444690C94215E4A
:100630004E414E494E495459494E46CDCCCC3D0AC7
:10064000D7233C17B7D13877CC2B329595E6241FAA
:10065000B14F0A000020410000C84200401C462063
:10066000BCBE4CCA1B0E5AAEC59D7400407A10F336
:100670005A00A0724E18090010A5D4E80000E876D0
:1006800048170000E40B54020000CA9A3B00000027
:10069000E1F505000080969800000040420F000040
:1006A00000A08601000000102700000000E8030001
:1006B0000000006400000000000A000000000001CB
:1006C00000000000002C76D888DC674F0823DFC1CB
:1006D000DFAE59E1B1B796E5E3E453C63AE6519986
:1006E0007696E8E6C28426EB898C9B62ED407C6FAF
:1006F000FCEFBC9C9F40F2BAA56FA5F490055A2A66
:10070000F75C936B6CF9676DC11BFCE0E40D47FE71
:10071000F520E6B500D0ED902E0300943577050066
:1007200080841E080000204E0A000000C80C3333ED
:1007300033330F986E12831141EF8D2114893BE6FC
:100740005516CFFEE6DB18D1844B381BF77C1D9085
:100750001DA4BBE424203284725E228100C9F124EE
:10076000ECA1E53D27434F4D4D554E49434154497A
:100770004F4E0044525952554E004552524F52531B
:10078000004543484F0047322F47332062616420C1
:10079000706172616D65746572730A00536C656592
:1007A000702E2E2E005A2050726F62652050617399
:1007B00074204265640A005A2050726F62652050AE
:1007C0006173742042656400486F6D65205859203C
:1007D00066697273740A00486F6D65205859204627
:1007E0006972737400205A3A200020593A2000425E
:1007F000656420583A20004D65736820706F696EFB
:10080000742063616E6E6F74206265207265736F11
:100810006C7665640A004E6F204D6F76652E00453C
:100820006E642066696C65206C6973740A004265A9
:1008300067696E2066696C65206C6973740A005282
:100840006573756D696E6720534400286E6F20666E
:10085000696C65290043757272656E742066696CF7
:10086000653A20005072696E742074696D653A2093
:10087000000A53746174733A2046696C616D656E49
:100880007420757365643A20002C204C6F6E676588
:100890007374206A6F623A2000546F74616C207424
:1008A000696D653A20002C204661696C65643A20C8
:1008B000002C2046696E69736865643A20005072A6
:1008C000696E74733A200053746174733A20004562
:1008D0002025530044454255473A004D31313320DD
:1008E000530042656420436F6F6C696E672E2E2E35
:1008F000004265642048656174696E672E2E2E0083
:1009000053755065522043522D3230204F46462EAB
:10091000004348414D4245525F54454D5045524178
:1009200054555245004D4F54494F4E5F4D4F44452D
:100930005300544845524D414C5F50524F5445432B
:1009400054494F4E004155544F5245504F52545FF9
:1009500053445F5354415455530050524F4D5054DB
:100960005F535550504F525400454D455247454EE8
:1009700043595F50415253455200434153455F4CE8
:10098000494748545F4252494748544E45535300E3
:10099000544F47474C455F4C494748545300534FC9
:1009A0004654574152455F504F57455200425549B2
:1009B0004C445F50455243454E54004C4556454CBF
:1009C000494E475F44415441005A5F50524F42459F
:1009D000004155544F4C4556454C005052494E54D9
:1009E0005F4A4F420050524F4752455353004155C2
:1009F000544F5245504F52545F54454D5000564F3E
:100A00004C554D45545249430042494E4152595F5D
:100A100046494C455F5452414E534645520053455A
:100A20005249414C5F584F4E5F584F464600464929
:100A3000524D574152455F4E414D453A4D61726CA2
:100A4000696E20322E302E345F44573620544D3399
:100A5000442032454D44425520534F555243455F43
:100A6000434F44455F55524C3A68747470733A2F43
:100A70002F6769746875622E636F6D2F496E73619D
:100A80006E6974794175746F6D6174696F6E2F4D05
:100A900061726C696E2F747265652F437265616C4B
:100AA0006974794477696E5F322E302050524F540A
:100AB0004F434F4C5F56455253494F4E3A312E30BB
:100AC000204D414348494E455F545950453A53756E
:100AD0005065522043522D323020455854525544CF
:100AE00045525F434F554E543A3120555549443A8B
:100AF00063656465326132662D343161322D34377D
:100B000034382D396231322D6335356336326633F0
:100B1000363766660A002F2F20004D3134352053BA
:100B20003C696E6465783E206F7574206F66207234
:100B3000616E67652028302D31290A0020466C6FD0
:100B4000773A200050726F74656374656420506951
:100B50006E0A00206F7574206F662072616E676583
:100B60000A0020536572766F200020643A002069E5
:100B70003A0020703A004C434420436F6E74726117
:100B800073743A20006469730043290A0061626C3F
:100B9000656420286D696E2074656D702000436F58
:100BA0006C64206578747275646573206172652069
:100BB000004F666673657473204170706C6965647C
:100BC000004572723A20546F6F20666172210054A2
:100BD0006F6F206661722066726F6D207265666548
:100BE00072656E636520706F696E740A00454550CA
:100BF000524F4D204F4B0A003F4B2076616C75657C
:100C0000206F7574206F662072616E6765202830D2
:100C10002D3130292E0A00416476616E6365204BC8
:100C20003D00506F7765722D6C6F73732072656332
:100C30006F76657279200081079B0E7A07730765CE
:100C4000076563686F3A004572726F723A00202040
:100C50004D3432312049002020473239204939397A
:100C60000A006163746976650A00205379737465BC
:100C70006D2076312E303120002020207C0A004E5D
:100C8000414E0020202E20202000207C004C434498
:100C90003A0A004353563A0A0020666F7220003A1F
:100CA0000A0A000A42656420546F706F67726170AF
:100CB0006879205265706F72740050726F62696E4D
:100CC00067204661696C65640A0050726F62696EE4
:100CD00067204661696C656400446F6E652E0A008A
:100CE0003F496E76616C69642073746F72616765E9
:100CF00020736C6F742E0A3F557365203020746F1B
:100D000020004732392050322066696E6973686569
:100D1000642E0A005859206F7574736964652070D9
:100D200072696E7461626C65207261646975732E9C
:100D30000A003F4572726F7220696E2042757369B6
:100D40006E6573732043617264206D6561737572A3
:100D5000656D656E742E0A004D616E75616C6C79FF
:100D60002070726F62696E6720756E72656163686C
:100D700061626C65206D657368206C6F6361746976
:100D80006F6E732E0A0050726F62696E6720617217
:100D90006F756E642028004D65736820696E7661FA
:100DA0006C6964617465642E2050726F62696E674D
:100DB000206D6573682E0A004D657368207A657230
:100DC0006F65642E0A0044656661756C74207374E7
:100DD0006F7261676520736C6F7420302073656C6F
:100DE00065637465642E0A004C6F6164696E6720E8
:100DF000746573745F7061747465726E2076616C73
:100E00007565732E0A0A00496E76616C69642074F8
:100E10006573745F7061747465726E2076616C7551
:100E2000652E20282D3120746F2032290A0A004CAB
:100E30006F636174696F6E7320696E76616C69644B
:100E4000617465642E0A0A00456E74697265204DEE
:100E500065736820696E76616C6964617465642E7F
:100E60000A0A00726F746174696F6E206D6174722A
:100E700069783A0A00206D61783A00206D696E3A0F
:100E800000417869732000554E4B4E4F574E20530A
:100E9000544154450047434F44455F494E464F0037
:100EA0004C43445F50415553455F524553554D4562
:100EB0000046494C414D454E545F52554E4F555496
:100EC0005F434F4E54494E55450046494C414D45B0
:100ED0004E545F52554E4F5554004D3837362052C0
:100EE0006573706F6E64696E672050524F4D505439
:100EF0005F004572726F722077726974696E672045
:100F0000746F20454550524F4D210A006275737928
:100F10003A2070617573656420666F7220696E7027
:100F200075740A00627573793A207061757365642F
:100F300020666F7220757365720A00627573793A64
:100F40002070726F63657373696E670A004E6F205D
:100F5000436865636B73756D2077697468206C698D
:100F60006E65206E756D6265722C204C6173742005
:100F70004C696E653A2000636865636B73756D201C
:100F80006D69736D617463682C204C617374204CBF
:100F9000696E653A20004C696E65204E756D62651C
:100FA00072206973206E6F74204C617374204C69D9
:100FB0006E65204E756D6265722B312C204C61730D
:100FC00074204C696E653A20004D313130007761F4
:100FD00069740A0053442072656164206572726FFF
:100FE000720A002121204B494C4C206361757365C6
:100FF00064206279204B494C4C20627574746F6E8A
:101000002F70696E0A002121204B494C4C206361EE
:101010007573656420627920746F6F206D756368E5
:1010200020696E6163746976652074696D65202D31
:101030002063757272656E7420636F6D6D616E648E
:101040003A2000506C6561736520526573657400C9
:101050005052494E5445522048414C544544002575
:10106000533A20255300706F7765726F6666004BA8
:10107000494C4C45442E20005072696E74657220B4
:1010800068616C7465642E206B696C6C2829206320
:10109000616C6C6564210A00363726033C3D380ECE
:1010A0002E303E121A1C1808440AFF430809070094
:1010B00001486F74656E6420746F6F20636F6C6499
:1010C0000A0052656865617420446F6E6500526560
:1010D00068656174696E670052656865617400488F
:1010E000656174657254696D656F75740053656EE2
:1010F00064204D31303820746F2068656174206E33
:101100006F7A7A6C650A004E6F7A7A6C652050614E
:10111000726B656400706175736564004D363030C4
:101120003A20546F6F20436F6C6400726573756D65
:10113000656400526573756D696E670047323620CD
:1011400048656174696E67204E6F7A7A6C650047F6
:1011500032362048656174696E67204265640057C5
:10116000616974696E6720666F7220686561747565
:10117000702E0A004669786564204C656E67746855
:10118000205072696D6500446F6E65205072696D04
:10119000696E67004D616E75616C207072696D6972
:1011A0006E672E2E2E004732362043616E63656CCB
:1011B0006564004C656176696E6720473236003F92
:1011C00053706563696669656420582C5920636FA4
:1011D0006F7264696E617465206F7574206F66202C
:1011E000626F756E64732E0A003F28522965706520
:1011F00061742076616C7565206E6F7420706C610F
:10120000757369626C653B206D757374206265202F
:101210006174206C6561737420312E0A003F537035
:1012200065636966696564206E6F7A7A6C6520749F
:10123000656D7065726174757265206E6F74207073
:101240006C61757369626C652E0A003F537065634B
:1012500069666965642066696C616D656E7420738A
:10126000697A65206E6F7420706C61757369626C49
:10127000652E0A003F537065636966696564207076
:1012800072696D65206C656E677468206E6F74207E
:10129000706C61757369626C652E0A003F537065EE
:1012A000636966696564206E6F7A7A6C652073691C
:1012B0007A65206E6F7420706C61757369626C65FD
:1012C0002E0A003F52657472616374696F6E204D1F
:1012D000756C7469706C696572206D7573742062C9
:1012E00065207370656369666965642E0A003F5303
:1012F00070656369666965642052657472616374C0
:10130000696F6E204D756C7469706C696572206EC2
:101310006F7420706C61757369626C652E0A003F92
:10132000537065636966696564206C6179657220D4
:10133000686569676874206E6F7420706C6175737E
:1013400069626C652E0A0043292E0A003F537065BE
:10135000636966696564206265642074656D7065A3
:10136000726174757265206E6F7420706C61757334
:1013700069626C65202834302D0047323620737442
:10138000617274696E672E2E2E0A00050000060138
:101390000004000601000605000000060004009A93
:1013A00013951390138B130000803F66663A4266D4
:1013B00066B842CCCC0943666637430000654325D6
:1013C000532025692F2569005D0A0062656420703D
:1013D0006C616E65206E6F726D616C203D205B00EC
:1013E000436F756C64206E6F7420636F6D706C65F5
:1013F0007465204C5346210054696C74696E6720F3
:101400006D65736820706F696E7420003F4572725D
:101410006F722070726F62696E6720706F696E7490
:101420002E2041626F7274696E67206F7065726101
:1014300074696F6E2E0A00255320332F33005469D0
:101440006C74696E67206D6573682028332F3329AB
:101450000A00255320322F330054696C74696E677B
:10146000206D6573682028322F33290A00436F727C
:101470007265637465645F5A3D0054696C74696E8B
:101480006720506F696E7400255320312F3300544C
:10149000696C74696E67206D6573682028312F331D
:1014A000290A00646F6E650A00496E737566666985
:1014B0006369656E7420646174610A0045787472B2
:1014C00061706F6C6174696E67206D6573682E2E34
:1014D0002E0053544F505045442E20005072696ED8
:1014E0007465722073746F70706564206475652014
:1014F000746F206572726F72732E20466978207443
:101500006865206572726F7220616E642075736504
:10151000204D39393920746F20726573746172748B
:101520002E202854656D706572617475726520692E
:10153000732072657365742E20536574206974205E
:1015400061667465722072657374617274696E6726
:10155000290A0021212053544F502063616C6C658F
:10156000642062656361757365206F6620424C5428
:101570006F756368206572726F72202D20726573BB
:10158000746172742077697468204D3939390A00A2
:101590005072696E74696E67204F626A6563740089
:1015A0002553202569002F2F616374696F6E3A00FF
:1015B000626567696E00627574746F6E0073686F40
:1015C000770050757267654D6F72650053656E6484
:1015D000204D31303820746F20726573756D650A47
:1015E000004C6F6164206D6D00556E6C6F616420FE
:1015F0006D6D0046696C2E204469612E004520699E
:101600006E206D6DC2B3004D33303320553120450F
:1016100025692053256900504944204175746F7431
:10162000756E65202A005049442D44202A005049F7
:10163000442D49202A005049442D50202A002008DA
:101640002046616374002008204D61780020082046
:101650004D696E004175746F74656D7000565472FB
:101660006176204D696E00566D696E00566D617829
:10167000204500566D6178205A00566D61782059DA
:1016800000566D6178205800416D61782045004119
:101690006D6178205A00416D6178205900416D617B
:1016A00078205800412D54726176656C00412D52AE
:1016B00065747261637400416363656C00000C0DB6
:1016C00000FE07022603BC017FFE08FE08FE050897
:1016D0000806000040F0C8888898781005080806B9
:1016E0000000C0F88888888888F80505050600018C
:1016F0002030F830200508080600002070F820206F
:101700002020E00509090600FF2070A8A8B88888F5
:101710007020050606060001E08CEA8C8A0A05099D
:10172000090600FFF8A88888888888A8F8050A0AAA
:101730000600FE205050505088A8A888700303036C
:1017400006000340A040FFFFFFFFFFFFFFFFFFFF7A
:10175000FFFFFFFFFFFFFFFFFFFFFFFF000000068F
:1017600005FF01070706020080808080800080035B
:101770000303060105A0A0A005060606000050F818
:101780005050F8500509090600FF2070A8A07028E5
:10179000A87020050707060000C8C81020409898C8
:1017A00005070706000040A0A040A89068010303B9
:1017B0000602058080800309090601FF2040408061
:1017C00080804040200309090601FF80404020201E
:1017D0002040408005070706000020A8702070A860
:1017E000200505050600012020F82020020303063D
:1017F00001FFC04080050101060003F80202020655
:101800000100C0C005070706000008101020404076
:1018100080050707060000708898A8C8887003072D
:101820000706010040C040404040E00507070600B1
:1018300000708808102040F8050707060000F80827
:10184000103008887005070706000010305090F827
:101850001010050707060000F880F00808887005DA
:101860000707060000304080F088887005070706EB
:101870000000F8081010202020050707060000705F
:101880008888708888700507070600007088887847
:10189000081060020505060100C0C000C0C00206B5
:1018A000060601FFC0C000C0408003050506010117
:1018B0002040804020050303060002F800F80305DD
:1018C00005060101804020408005070706000070E2
:1018D0008810202000200507070600007088B8A89F
:1018E000B88070050707060000708888F888888827
:1018F000050707060000F04848704848F00507074C
:101900000600007088808080887005070706000048
:10191000F04848484848F0050707060000F880806E
:10192000F08080F8050707060000F88080F08080CE
:10193000800507070600007088808098887005077A
:1019400007060000888888F888888803070706014A
:1019500000E04040404040E0050707060000381026
:1019600010101090600507070600008890A0C0A026
:101970009088050707060000808080808080F80539
:10198000070706000088D8A8888888880507070602
:1019900000008888C8A89888880507070600007096
:1019A000888888888870050707060000F08888F016
:1019B00080808005070706000070888888A89068E6
:1019C000050707060000F08888F0A0908805070743
:1019D0000600007088807008887005070706000000
:1019E000F82020202020200507070600008888888E
:1019F0008888887005070706000088888888505006
:101A00002005070706000088888888A8A8500507D1
:101A100007060000888850205088880507070600C0
:101A20000088885020202020050707060000F808BD
:101A300010204080F80309090601FFE080808080C3
:101A4000808080E0050707060000804040201010DD
:101A5000080309090601FFE020202020202020E0C3
:101A60000503030600052050880501010600FEF865
:101A700003030306010580402005050506000070EC
:101A8000087888780507070600008080F088888835
:101A9000F0050505060000708080887005070706C0
:101AA0000000080878888888780505050600007019
:101AB00088F08070050707060000304840E040408D
:101AC000400507070600FE708888887808700507BB
:101AD000070600008080F0888888880307070601D1
:101AE000004000C0404040E00409090601FE10002B
:101AF00030101010109060050707060000808088E5
:101B000090E09088030707060100C0404040404035
:101B1000E0050505060000D0A8A8A8A8050505064B
:101B20000000B0C888888805050506000070888810
:101B300088700507070600FEF0888888F080800519
:101B400007070600FE7888888878080805050506D6
:101B50000000B0C880808005050506000078807010
:101B600008F00507070600002020F82020201805AF
:101B700005050600008888889868050505060000A8
:101B800088888850200505050600008888A8A85088
:101B90000505050600008850205088050707060047
:101BA000FE88888850204080050505060000F81052
:101BB0002040F80309090601FF20404040804040D2
:101BC00040200109090602FF80808080808080809B
:101BD000800309090601FF804040402040404080CA
:101BE00005030306000248A890FF00FE0003FF80E3
:101BF00007C7C00701E00000E00000F0000070042B
:101C000000700E00701F00703F80F00E00E00F01AA
:101C1000E007C7C003FF8000FE0000FE0003FF8056
:101C200007C7C00F01E00E00E03F80F01F00700EFC
:101C300000700400700000700000F00000E0070178
:101C4000E007C7C003FF8000FE000E000E000E007C
:101C50000E000E000E000E000E007FC03F801F0021
:101C60000E00040004000E001F003F807FC00E0025
:101C70000E000E000E000E000E000E000E00FFFF04
:101C8000FF7F80FFC0FFC0FFC07F807F80FFC0FF5D
:101C9000C0FFC03F001E000C004A756E6374696F80
:101CA0006E204465760050726F62652059204F6641
:101CB000667365740050726F62652058204F6666C7
:101CC000736574004573746570732F6D6D005A737E
:101CD000746570732F6D6D005973746570732F6D1B
:101CE0006D005873746570732F6D6D00496E697463
:101CF000004D34323800496E697469616C697A65E7
:101D000020454550524F4D0043616E63656C204F36
:101D1000626A6563740053746570732F6D6D005053
:101D2000726F6265204F666673657473004A6572F0
:101D30006B00416363656C65726174696F6E005618
:101D4000656C6F636974790053657420486F6D65C5
:101D5000204F666673657473004E4F0059455300FB
:101D600043616E63656C204F626A656374203D0059
:101D7000436D643A2053746F7700436D643A204496
:101D800065706C6F7900436D643A2053572D4D6F29
:101D9000646500436D643A2053656C662D54657329
:101DA0007400436D643A2052657365740046616E39
:101DB00020537065656400206D61783A2000206DC5
:101DC000696E3A20003F5A206F7574206F6620724A
:101DD000616E67652028003F59206F7574206F661B
:101DE0002072616E676520282D003F58206F757442
:101DF000206F662072616E676520282D0050726F1B
:101E00006265204F6666736574205800656E717553
:101E1000657565696E672022006F6B00526573659A
:101E20006E643A2000256979202569642025696857
:101E30002025696D202569730023646566696E65D8
:101E40002044454641554C545F004B6420004B698B
:101E500020004B702000504944204175746F747508
:101E60006E652066696E69736865642120507574BB
:101E700020746865206C617374204B702C204B6952
:101E800020616E64204B6420636F6E7374616E74A6
:101E9000732066726F6D2062656C6F7720696E7457
:101EA0006F20436F6E66696775726174696F6E2E1D
:101EB000680A00504944204175746F74756E65203E
:101EC0006661696C6564212074696D656F75740A5B
:101ED000000A20436C617373696320504944200AEF
:101EE00000204B643A2000204B693A2000204B70C0
:101EF0003A20000A204E6F206F76657273686F6F0C
:101F0000740A002054753A2000204B753A200020B6
:101F1000643A200020626961733A200050494420ED
:101F20004175746F74756E652073746172740A0004
:101F3000504944204175746F74756E6520666169FF
:101F40006C6564212054656D70657261747572658D
:101F500020746F6F20686967680A00504944204107
:101F600075746F74756E65206661696C6564212097
:101F7000426164206578747275646572206E756D57
:101F80006265720A004572723A207574663820667E
:101F90006F6E74206E6F7420696E697469616C690C
:101FA0007A65642E00FFE0FFD140A0C8A6A22FF8FA
:101FB0000023AC00AF10FFFEFF05FFD0FFE0FFC124
:101FC000FFD1E240A0C8A6A22FF800238127AC00D1
:101FD000AFFFD0FF64FFD1A5FFD0FF64FF64FFD146
:101FE000A4FFD0FFFE47323920503420523939390E
:101FF0002054004732380A473239205031004D6FA3
:1020000074696F6E004D313137204D65736820253E
:102010006920536176656400473239205325690091
:102020004C6F616420426564204D657368004D65A6
:102030006D6F727920536C6F74004E6F2053746F04
:102040007261676500486F6D696E672058595A0064
:102050004732392050342058257320592573205297
:10206000256900202D2D2D2D2D00473238004732B7
:102070003920532D31004F6666205072696E7465A9
:1020800072204261636B7570004732392054310011
:102090004F757470757420666F72204353560047F5
:1020A0003239205430004F757470757420666F7229
:1020B00020486F73740045646974204D657368002F
:1020C00047323920493939390A47323920503220CC
:1020D00042205430004D616E75616C6C7920427500
:1020E000696C64204D65736800372E2053617665F6
:1020F00020426564204D65736800362E2046696E67
:10210000652054756E6520416C6C00352E2056613B
:102110006C6964617465204D65736800342E2046D7
:10212000696E652054756E6520416C6C00332E20FD
:1021300056616C6964617465204D6573680047324F
:102140003920503320543000322E20536D61727488
:102150002046696C6C2D696E00312E204275696CC9
:102160006420436F6C64204D65736800466164654C
:1021700020486569676874004732392057004F75F9
:10218000747075742055424C20496E666F0055423C
:102190004C20546F6F6C73004F7574707574204DC4
:1021A000657368204D6170004D6573682053746FCE
:1021B00072616765004D65736820456469740053FA
:1021C0007465702D42792D537465702055424C0012
:1021D0004732392041004163746976617465205546
:1021E000424C00473239204400446561637469768B
:1021F0006174652055424C004D31303920532569BA
:10220000004D3139302053256900496E666F2053E7
:10221000637265656E004265642054656D700048A8
:102220006F74656E642054656D70004732392050BC
:10223000362043202D0048656967687420416D6F22
:10224000756E740041646A757374204D65736820FF
:10225000486569676874004732392050342054005B
:1022600046696E652054756E6520436C6F736573A7
:1022700074004732362043204225692048256920D2
:10228000500056616C696461746520437573746FA6
:102290006D204D657368004732380A473236204357
:1022A0002042313130204832343020500056616CA9
:1022B0006964617465204D65736820284142532923
:1022C000004732380A473236204320423730204810
:1022D00031383020500056616C6964617465204D5E
:1022E0006573682028504C412900473239204A251F
:1022F00069004C6576656C204D65736800536964B0
:102300006520506F696E74730047726964204D6573
:102310007368204C6576656C696E670047323920BA
:102320004A3000332D506F696E74204C6576656CB1
:10233000696E6700473239205033205220432E25E2
:1023400069004D616E75616C2046696C6C2D696E1B
:102350000046696C6C2D696E20416D6F756E74005E
:102360004D65736820696E76616C6964617465643B
:102370002E0A00473239204900496E76616C696443
:1023800061746520436C6F7365737400496E766188
:102390006C696461746520416C6C0047323920506F
:1023A00031204300436F6E74696E75652042656429
:1023B000204D6573680046696C6C2D696E204D6513
:1023C0007368004275696C6420437573746F6D2087
:1023D0004D657368004732380A4D3139302053312A
:1023E00031300A4D31303920533234300A473239D6
:1023F0002050310A4D3130342053300A4D313430C1
:10240000205330004275696C64204D657368202844
:1024100041425329004732380A4D31393020533771
:10242000300A4D31303920533138300A47323920A3
:1024300050310A4D3130342053300A4D3134302080
:102440005330004275696C64204D657368202850D4
:102450004C4129004D313137204D65736820256985
:10246000204C6F6164656400473239204C25690057
:102470002062797465733B2063726320004E6F2085
:10248000454550524F4D2E0A00204A00205200452B
:102490004550524F4D206461746173697A652065BF
:1024A00072726F722E0A003F4D65736820746F6FF1
:1024B0002062696720666F7220454550524F4D2E4D
:1024C0000A0055424C2072657365740A00206C6FD7
:1024D000616465642066726F6D2073746F726167EA
:1024E000652E0A004D65736820003F43616E2774B6
:1024F00020656E61626C65200020696E6974696197
:102500006C697A65642E0A0A002073746F726564C0
:102510002073657474696E6773207265747269657F
:10252000766564202800202863616C63756C617493
:10253000656429210A0020213D2000454550524F65
:102540004D20435243206D69736D61746368202D83
:10255000202873746F726564292000496E64657861
:102560003A2000204D61726C696E3D563736290A5B
:1025700000454550524F4D2076657273696F6E204D
:102580006D69736D617463682028454550524F4DE5
:102590003D00454550524F4D20496E697469616C4C
:1025A000697A65640A004D657368207361766564B5
:1025B00020696E20736C6F7420003F556E61626CF1
:1025C0006520746F2073617665206D657368206483
:1025D0006174612E0A0020736C6F743D00206D657C
:1025E000736865735F656E643D004532454E443DDA
:1025F00000206D65736820736C6F74732061766161
:10260000696C61626C652E0A003F496E76616C6987
:102610006420736C6F742E0A004D657368206C6FB4
:10262000616465642066726F6D20736C6F74200046
:102630003F556E61626C6520746F206C6F61642021
:102640006D65736820646174612E0A00486172646C
:10265000636F6465642044656661756C74205365BE
:102660007474696E6773204C6F616465640A005509
:102670006E696669656420426564204C6576656CA8
:10268000696E67003B200020204D3630332000204B
:10269000550046696C616D656E74206C6F61642FC6
:1026A000756E6C6F6164206C656E677468733A0058
:1026B00020204D393030204B004C696E656172200E
:1026C000416476616E63653A0020204D38353120D3
:1026D00058005A2D50726F6265204F66667365749C
:1026E0000020204D343133205300506F7765722D18
:1026F0004C6F7373205265636F766572793A002070
:10270000204D3235302043004C434420436F6E74DB
:10271000726173743A0020204D3330342050002011
:10272000204D33303120500050494420736574747B
:10273000696E67733A0020460020480020204D3122
:1027400034352053004D6174657269616C20686591
:102750006174757020706172616D65746572733A31
:1027600000206D65736865732E0A0A004545505256
:102770004F4D2063616E20686F6C6420004163746C
:10278000697665204D65736820536C6F743A20003C
:1027900020204D34323020530020204D323036205E
:1027A0005800486F6D65206F66667365743A002047
:1027B000204D323035204200416476616E6365649D
:1027C0003A20423C6D696E5F7365676D656E745F3C
:1027D00074696D655F75733E20533C6D696E5F660D
:1027E000656564726174653E20543C6D696E5F740A
:1027F000726176656C5F66656564726174653E20C2
:102800004A3C6A756E635F6465763E0020204D32F7
:102810003034205000416363656C65726174696F88
:102820006E2028756E6974732F7332293A20503CDC
:102830007072696E745F616363656C3E20523C72B6
:102840006574726163745F616363656C3E20543CC0
:1028500074726176656C5F616363656C3E00202015
:102860004D3230312058004D6178696D756D2041D1
:102870006363656C65726174696F6E2028756E693B
:1028800074732F7332293A0020204D323033205890
:10289000004D6178696D756D20666565647261745F
:1028A00065732028756E6974732F73293A00537409
:1028B0006570732070657220756E69743A0020200F
:1028C0004D3230302044300A0020204D323030204C
:1028D00044002044697361626C65640A0046696C57
:1028E000616D656E742073657474696E67733A0008
:1028F00020204D3134392043203B20556E697473BC
:1029000020696E2043656C736975730A0020286D19
:102910006D29002020473231202020203B20556E99
:1029200069747320696E206D6D00486F6D696E6704
:10293000204661696C65640000803B4400803B4434
:1029400000002041000096420000A0420000A0428A
:102950000000C8430000BE42D0070000D0070000BE
:10296000640000004B00000020746F6F206C6F6EDD
:102970006720657874727573696F6E207072657602
:10298000656E7465640A0020636F6C6420657874FA
:10299000727573696F6E2070726576656E746564AA
:1029A0000A00486F6D6520257325732573204669DD
:1029B00072737400436F6E74696E7565004C6F615D
:1029C000642046696C616D656E74205400496E73B5
:1029D0006572742066696C616D656E7420616E64E9
:1029E0002073656E64204D3130380A00220A00558C
:1029F0006E6B6E6F776E20636F6D6D616E643A20E3
:102A000022000000000000000000000000000000A4
:102A100070430000704300007A4300004842000009
:102A20004842000080400202040000A0400000A0D4
:102A30004000000040FFFFFF000000010000000117
:102A4000000080005555550000004000333333002E
:102A5000AAAA2A004992240000002000C7711C0085
:102A600099991900D1451700555515003BB1130030
:102A70002449120011111100000010000F0F0F0067
:102A8000E3380E0043790D00CCCC0C00C3300C00B1
:102A9000E8A20B0064210B00AAAA0A00703D0A00FC
:102AA0009DD80900427B090092240900DCD308006C
:102AB000888808001042080000000800F0C10700E4
:102AC0008787070075500700711C07003EEB060062
:102AD000A1BC06006990060066660600703E06000E
:102AE0006118060017F4050074D105005BB00500FD
:102AF000B290050062720500555505007839050051
:102B0000B81E0500050505004EEC040087D404003E
:102B1000A1BD040090A7040049920400C17D0400F7
:102B2000EE690400C7560400444404005C3204000B
:102B30000821040041100400000004003FF00300DD
:102B4000F8E0030026D20300C3C30300CCB50300A2
:102B50003AA803000A9B0300388E0300C0810300DB
:102B60009F750300D0690300505E03001D530300EE
:102B700034480300913D030033330300162903005A
:102B8000381F030097150300300C030003030300F4
:102B90000BFA020049F10200BAE802005CE0020010
:102BA0002DD802002DD0020059C80200B0C002008A
:102BB00031B90200DAB10200AAAA0200A0A3020001
:102BC000BC9C0200FA9502005C8F0200DF880200C4
:102BD00082820200457C02002776020027700200F4
:102BE000436A02007C640200D05E02003F5902008A
:102BF000C8530200FFFDFCFAF8F6F4F2F0EEECEA3E
:102C0000E9E7E5E3E1E0DEDCDAD9D7D5D4D2D0CF0D
:102C1000CDCBCAC8C7C5C3C2C0BFBDBCBAB9B7B6A1
:102C2000B4B3B2B0AFADACAAA9A8A6A5A4A2A1A006
:102C30009E9D9C9A99989795949392908F8E8D8B48
:102C40008A8988878684838281807F7E7D7B7A796A
:102C50007877767574737271706F6E6D6C6B6A696C
:102C60006867666564636261605F5E5D5C5B5A595C
:102C700058585756555453525150504F4E4D4C4B37
:102C80004A4A4948474646454443424241403F3EFE
:102C90003E3D3C3B3B3A39383837363535343332B4
:102CA000323130302F2E2E2D2C2B2B2A292928275C
:102CB0002726252524232322212120201F1E1E1DF7
:102CC0001C1C1B1B1A191918181716161515141386
:102CD0001312121111100F0F0E0E0D0D0C0C0B0A0A
:102CE0000A09090808070706060505040403030284
:102CF000020100005761726E696E673A20486F6D7D
:102D0000696E672042756D702044697669736F72D1
:102D1000203C20310A00FD55555555555FFFFFFFFA
:102D2000FFFFFFFFFFFFFE00000000003FFFFFFF6F
:102D3000FFFFFFFFFFFFFD000007FFFFFFFFFFFF9B
:102D4000FFFFFFFFFFFFFE07C00555555555555FB7
:102D5000FFFFFFFFFFFFFC0A200600000000003F0E
:102D6000FFFFFFFFFFFFFE141005000007FFFFFF3E
:102D7000FFFFFFFFFFFFFC28080607C0055555555C
:102D800055555FFFFFFFFE5404040A2006000000B3
:102D900000003FFFFFFFFC60040614100500000761
:102DA000FFFFFFFFFFFFFE50040428080607C005D1
:102DB00055555555555FFC6004065404040A200619
:102DC00000000000003FFE54041C600406141005BF
:102DD00000000000001FFC28082E500404280806EC
:102DE00007C00001F03FFE141054600406540404B0
:102DF0000A200002081FFC0A206654041C60040616
:102E000014100005043FFE07C05428082E50040487
:102E10002808000A021FFC00002E1410546004064B
:102E200054040015013FFE00001C0A206654041CD7
:102E300060040018011FFC00000607C05428082E7B
:102E400050040014013FFE00000400002E14105432
:102E500060040018011FFCFFFFFE00001C0A206632
:102E600054041C15013FFED5555400000607C054FC
:102E700028082A0A021FFC84104600000400002EC5
:102E800014105105043FFEC41044FFFFFE00001C57
:102E90000A206102881FFC841046D55554000006A4
:102EA00007C05101F03FFE84104484104600000426
:102EB00000002A00001FFCC41046C41044FFFFFE9F
:102EC00000001C00003FFE841044841046D5555479
:102ED00000000000001FFCD55556841044841046A5
:102EE00000000000003FFCFFFFFCC41046C410447B
:102EF000FFFFFFFFFF9FFE00000684104484104682
:102F0000D555555555BFFD555554D5555684104486
:102F100084104104109FFFFFFFFCFFFFFCC410461C
:102F2000C410410411BFFFFFFFFE000006841044DF
:102F300084104104109FFFFFFFFD555554D5555691
:102F400084104104109FFFFFFFFFFFFFFCFFFFFC09
:102F5000C410410411BFFFFFFFFFFFFFFE0000068A
:102F600084104104109FFFFFFFFFFFFFFD555554E4
:102F7000D555555555BFFFFFFFFFFFFFFFFFFFFC76
:102F8000FFFFFFFFFF9FFFFFFFFFFFFFFFFFFFFEB2
:102F900000000000003FFFFFFFFFFFFFFFFFFFFDFE
:102FA00055555555555FFFFFFFFFFFFFFFFFFFFF23
:102FB000FFFFFFFFFFFFFFFFFFFFFFFFFFFFFFFF21
:102FC000FFFFFFFFFFFFFFFFFFFFFFFFFFFFFFFF11
:102FD000FFFFFFFFFFFFFFFFFFFFFFFFFFFFFFFF01
:102FE000FFFFFFFFFFFFE02EFB7DFBFBCFC1DFBB41
:102FF0003EC0E1FE3C1FFDEE7B39F9F3CF9EDFBB07
:103000003EDFDEFCDDE7FDEE3BBBF9EBD7BF5FBB90
:103010005EDFDEFDEDF7FDEEBBD3FAEBB73FDFBBC6
:103020004EDFDFFFCDF3FDEEDBC7FAEBBB7FC03B2E
:103030006EC0E3FF1DF3FDEECBEFFADBBB7FDFBB22
:1030400066DFF8FFCDF3FDEEEBEFFB5B033F5FBB0D
:1030500076DFFE7FEDF3FDEEF3EFFB5B79BEDFBBCA
:103060007ADFDE7DEDF7FDEEF3EFFBBAFD9EDFBB11
:103070007CDFDEFDCDE7FDEEFBEFFBBAFDC1DFBB84
:103080007EC0E0FE1C1F1FFFFFFFFFFFFF60000070
:10309000000001FF400000000000FF800000000071
:1030A000007F83CF00000C303F87FF80000C301F73
:1030B000867980000C000F8C30C7838C30E78C3011
:1030C000CFC7CC31F38C30DCECEC33B98C30D86C1E
:1030D0006C33198C30D06C0C33198C30D86C0C33A9
:1030E000198C30DC6C0E3B198C30CF7C079F198C0F
:1030F00030C77C038F194000000000000260000010
:10310000000000061FFFFFFFFFFFF8687474703AAD
:103110002F2F6D61726C696E66772E6F7267003249
:103120002E302E345F445736004D3130303020532E
:103130000070726F6D70745F00656E6400202050C7
:103140006C616E6E65724275666665724279746511
:10315000733A20002046726565204D656D6F727967
:103160003A2000436F6D70696C65643A204D61725E
:1031700020203820323032300A00204C6173742015
:10318000557064617465643A20323032302D3032CB
:103190002D3238207C20417574686F723A20546952
:1031A0006E794D616368696E657333440A00322E2F
:1031B000302E345F4457360A004D61726C696E00E0
:1031C00020536F6674776172652052657365740A67
:1031D00000205761746368646F672052657365747B
:1031E0000A002042726F776E206F757420526573EB
:1031F00065740A002045787465726E616C205265B2
:103200007365740A00506F77657255700A006175B6
:10321000746F25632E6700473238585900446F6E2B
:1032200065207072696E74696E672066696C650AE4
:10323000004D3331004D305131533138303000655D
:1032400072726F722077726974696E6720746F2072
:1032500066696C650A00446F6E6520736176696EFD
:10326000672066696C652E0A004D323900255320AF
:10327000256320256320256320256300205A3A001A
:1032800020593A00656E6473746F707320686974B6
:103290003A200020573A00496E76616C69642065D7
:1032A000787472756465720A007C3C3E5E2B3D3F0B
:1032B0002F5B5D3B2C2A225C002053697A653A2003
:1032C0000043616E6E6F74206F70656E207375625F
:1032D000646972200053442063617264206F6B0A3A
:1032E000006F70656E526F6F74206661696C656403
:1032F0000A00766F6C756D652E696E697420666163
:10330000696C65640A00534420696E6974206661C3
:10331000696C0A004D32332025730046696C6520C4
:1033200073656C65637465640A0046696C65206F3B
:1033300070656E65643A2000454E442053554252F4
:103340004F5554494E450A002220706F73002220C9
:10335000706172656E743A2200535542524F555453
:10336000494E452043414C4C207461726765743A64
:103370002200747279696E6720746F2063616C6CCF
:10338000207375622D67636F64652066696C657371
:10339000207769746820746F6F206D616E79206C7E
:1033A0006576656C732E204D4158206C6576656C92
:1033B0002069733A310A0044656C6574696F6E2048
:1033C0006661696C65642C2046696C653A2000462C
:1033D000696C652064656C657465643A00534420CB
:1033E0007072696E74696E67206279746520004E30
:1033F0006F74205344207072696E74696E670A009E
:1034000057726974696E6720746F2066696C653ADB
:103410002000667265736800646F696E67004E6FA6
:1034200077200024F4D43050C38E20C2A2401782EB
:103430008B7011127A910D816CD90AA861E108C7CD
:10344000586607615143061E4B5D05C145A7041A26
:10345000411104093D9803713931034036DB02659F
:10346000339102D4305402802E1D02632CEE01757C
:103470002AC501B028A001102781018F2564012BE6
:10348000244B01E0223401AC211F018D200D01806D
:103490001FFC00841EED00971DDF00B81CD200E663
:1034A0001BC600201BBC00641AB200B219A8000A97
:1034B00019A0006A189900D117910040178B00B528
:1034C00016840031167E00B31579003A157300C7D3
:1034D000146F0058146A00EE136600881363002509
:1034E000135E00C7125B006C12570015125400C126
:1034F00011510070114F0021114B00D61049008D61
:103500001047004610440002104200C00F400080E7
:103510000F3E00420F3C00060F3B00CB0E380093DD
:103520000E37005C0E3500270E3400F30D3200C15B
:103530000D3100900D3000600D2E00320D2D000574
:103540000D2C00D90C2B00AE0C2900850C29005C39
:103550000C2700350C27000E0C2600E80B2400C4B5
:103560000B2400A00B23007D0B23005A0B210039F4
:103570000B2100180B2000F80A1F00D90A1E00BBFF
:103580000A1E009D0A1D00800A1D00630A1C0047D8
:103590000A1B002C0A1B00110A1A00F7091A00DD89
:1035A000091900C4091900AB091900920917007B19
:1035B000091800630917004C091600360916002087
:1035C0000916000A091500F5081500E0081400CCDA
:1035D000081400B8081400A4081400900813007D13
:1035E0000812006B08130058081200460812003435
:1035F000081100230811001208110001081100F041
:10360000071000E0071000D0071000C0071000B03E
:10361000070F00A107100091070E0083070F007429
:10362000070F0065070E0057070E0049070E003B05
:10363000070D002E070E0020070D0013070D0006D2
:10364000070D00F9060C00ED060D00E0060C00D495
:10365000060C00C8060C00BC060C00B0060C00A44A
:10366000060B0099060C008D060B0082060B0077F6
:10367000060B006C060B0061060A0057060B004C97
:10368000060A0042060A0038060A002E060A00242E
:10369000060A001A060A001006090007060A00FDBD
:1036A000050900F4050900EB050900E2050900D948
:1036B000050900D0050900C7050900BE050900B5C8
:1036C000050800AD050800A50509009C0508009443
:1036D0000508008C050800840508007C05080074B6
:1036E0000508006C050700650508005D0507005624
:1036F0000508004E0507004705070040050800388B
:10370000050700310507002A050700230507001CEF
:10371000050600160507000F05070008050600024C
:10372000050700FB040600F5040700EE040600E8A8
:10373000040600E2040700DB040600D5040600CFFF
:10374000040600C9040600C3040600BD040600B751
:10375000040600B1040500AC040600A6040600A09F
:103760000405009B04060095040500900406008AE9
:1037700004050085040500800406007A0405007530
:10378000040500700405006B040500660405006173
:103790000405005C04050057040500520405004DB3
:1037A00004050048040500430405003E0404003AF3
:1037B00004050035040500300404002C040500272E
:1037C000040400230405001E0404001A0404001667
:1037D000040500110404000D04040009040500049C
:1037E00004040000040400FC030400F8030400F4D3
:1037F000030400F0030400EC030400E8030400E405
:10380000030400E0030400DC030400D8030400D434
:10381000030400D0030400CC030400C8030300C564
:1038200003030024F404D9201BC40C5C0E9804C4C8
:10383000095F0265077101F405F900FB04B3004854
:10384000048700C10369005803550003034500BE07
:10385000023A008402310053022A002902250004A2
:10386000022000E4011C00C8011900AF01170098F4
:103870000114008401130071011000610110005156
:10388000010E0043010D0036010B002B010B00203F
:10389000010B00150109000C01090003010800FBE0
:1038A000000800F3000800EB000700E4000600DE5B
:1038B000000600D8000600D2000600CC000500C7B4
:1038C000000500C2000500BD000400B9000400B5F9
:1038D000000400B1000400AD000400A9000400A52C
:1038E000000300A20003009F0004009B0003009857
:1038F0000003009500020093000300900003008D78
:103900000002008B00030088000200860002008491
:10391000000300810002007F0002007D0002007BA6
:1039200000020079000200770001007600020074B6
:1039300000020072000100710002006F0002006DC1
:103940000001006C0002006A0001006900020067CB
:1039500000010066000100650001006400020062D1
:1039600000010061000100600001005F0002005DD5
:103970000001005C0001005B0001005A00010059D9
:1039800000010058000100570001005600010055D9
:1039900000010054000100530000005300010052D8
:1039A00000010051000100500001004F0001004ED5
:1039B0000000004E0001004D0001004C0001004BD2
:1039C0000000004B0001004A0001004900010048CE
:1039D00000000048000100470001004600000046CA
:1039E00000010045000000450001004400010043C3
:1039F00000000043000100420000004200010041BD
:103A000000000041000100400001003F0000003FB5
:103A10000001003E0000003E0001003D0000003DAE
:103A20000001003C0000003C0000003C0001003BA5
:103A30000000003B0001003A0000003A000100399C
:103A40000000003900010038000000380000003894
:103A5000000100370000003700010036000000368A
:103A60000000003600010035000000350000003580
:103A70000001003400000034000000340001003375
:103A8000000000330000003300010032000000326B
:103A90000000003200010031000000310000003160
:103AA0000001003000000030000000300001002F55
:103AB0000000002F0000002F0000002F0001002E4A
:103AC0000000002E0000002E0001002D0000002D3F
:103AD0000000002D0000002D0001002C0000002C33
:103AE0000000002C0000002C0001002B0000002B27
:103AF0000000002B0000002B0001002A0000002A1B
:103B00000000002A0000002A00010029000000290E
:103B10000000002900000029000000290001002801
:103B200000000028000000280000002800000028F5
:103B300000010027000000270000002700000027E8
:103B400000000027000100260000002600000026DB
:103B500000000026000000260001002500000025CE
:103B600000000025000000250000002500000025C1
:103B700000010024000000240000002400000024B4
:103B800000000024000100230000002300000023A7
:103B90000000002300000023000000230000002399
:103BA000000100220000002200000022000000228C
:103BB000000000220000002200010021000000217E
:103BC0000000002100000021000000210000002171
:103BD0000000002100010020000000200000002063
:103BE0000000002000000020000000200000002055
:103BF000000000200001001F0000001F0000001F47
:103C00000000001F0000001F0000001F0000001F38
:103C10000001001E0000001E0000001E0000001E2B
:103C2000000000232C0000B8220000561800003AC3
:103C30000F0000B8080000B1040000710200003E4F
:103C40000100005072696E742066726F6D204D65C0
:103C5000646961004D6F76652025736D6D004D6F51
:103C6000766520302E316D6D004D6F766520316D9B
:103C70006D004D6F76652031306D6D004D6F76654E
:103C8000204178697300486F74656E6420746F6FAB
:103C900020636F6C64004578747275646572004DC2
:103CA0006F7665205A004D6F76652059004D6F760E
:103CB000652058004368616E67652046696C616DD8
:103CC000656E7400556E6C6F61642046696C616D41
:103CD000656E74004C6F61642046696C616D656E41
:103CE00074005072656865617420414253005072DF
:103CF000656865617420504C41005072656865616B
:103D00007420437573746F6D004261636B00000033
:103D10002100240027002A002D003000330001017B
:103D20000000040107010A0100002200250028000C
:103D30002B002E00310034000201000005010801B3
:103D40000B01000020002300260029002C002F007A
:103D50003200000100000301060109010505050507
:103D6000070508080808020202020A0A08080404F3
:103D70000404010101010101010103030303030321
:103D80000303040707070C0C0C0C0C0C0C0C0202B0
:103D9000020206060606060606060B0B0B0B0B0BAD
:103DA0000B0B01021020200808102040102040803A
:103DB00002010201080402010102040810204080EF
:103DC000804020100804020180040201804020107D
:103DD00008040201080402010102040810204080C6
:103DE000010204081020408000000A0B02090C0D9B
:103DF0000E0807030401000000000000000000009E
:103E000000000000000000000000000000000000B2
:103E1000000000001211100000000000000000006F
:103E20000000000000000000000000000000256805
:103E3000753A253032687500256875642025303262
:103E400068753A2530326875002020202020202017
:103E5000004D656469612052656D6F766564004D43
:103E60006564696120496E736572746564001FE062
:103E70002010201020101020102020102010303092
:103E80000840048003001FE03FF03FF03FF01FE0D8
:103E90001FE03FF03FF03FF00FC0078003003FFFFF
:103EA000F038007030FC3020FC10207810203010EA
:103EB0002C00D02E31D02F7BD02F7BD02E31D02C88
:103EC00000D020301020781020FC1030FC3038005A
:103ED000703FFFF03FFFF0380070318630238710CD
:103EE0002787902F87D02F03D020301020781020E4
:103EF00078102030102F03D02F87D027879023876A
:103F0000103186303800703FFFF01FFFF81FFFF8B8
:103F100004104002082002082004104008208010ED
:103F200041001041000820800410400000001FFFE5
:103F3000F81FFFF8FFFFFF8000018E00E19F01F1F5
:103F40009381399F81F99F81F99FB9F98F28F18079
:103F500038018000019FFFF99174999B06A99B5439
:103F6000A99B56A99B54999FFFF9FFFFFF54656DCC
:103F700070657261747572650050726F6265205A67
:103F8000204F666673657400416476616E636520D8
:103F90004B004D61696E0050726568656174205018
:103FA0004C4120456E640050726568656174205014
:103FB0004C4120426564005072656865617420411F
:103FC000425320456E6400507265686561742041FB
:103FD00042532042656400436F6F6C646F776E00DC
:103FE00046616E205370656564207E00466C6F7775
:103FF000004D65736820456469746F72006F706569
:104000006E00545249474745524544007A5F6D69F6
:104010006E00795F6D696E00785F6D696E00526544
:10402000706F7274696E6720656E6473746F702050
:104030007374617475730A0020436F756E74205831
:104040003A004D65616E204D65736820486569676B
:1040500068743A200023206F662073616D706C6570
:10406000733A20000A4D657368206F6E6C7920707A
:1040700061727469616C6C7920706F70756C6174B9
:1040800065642E0A0A0050726F62696E6720506F75
:10409000696E74000A50726F62696E67206D657395
:1040A0006820706F696E74200020616E64207461F6
:1040B0006B652061206D6561737572656D656E74E9
:1040C0002E0A006D6D20746869636B2E0A004275BC
:1040D00073696E6573732043617264206973200095
:1040E00052656D6F76652026204D6561737572652A
:1040F000204265640052656D6F7665207368696D56
:1041000000506C616365207368696D20756E64652D
:1041100072206E6F7A7A6C65004D65736820506FFF
:10412000696E74204D656173757265642061743ABF
:1041300020000A4D657368206F6E6C792070617283
:104140007469616C6C7920706F70756C61746564F2
:104150002E0A00506C616365205368696D2026202B
:104160004D656173757265004D6F76696E67207479
:104170006F206E657874004D6573682045646974BE
:10418000696E672053746F7070656400446F6E656C
:104190002045646974696E67204D6573680A004440
:1041A0006F6E652045646974696E67204D6573683C
:1041B0000046696E652054756E696E67204D6573A3
:1041C000680028582C5929206F757473696465201C
:1041D0007072696E7461626C652072616469757376
:1041E0002E0A004F6666736574206F7574206F66C3
:1041F00020626F756E64732E20283020746F20311A
:10420000306D6D290A0A00496E76616C6964206D13
:10421000617020747970652E0A0A003F2846296172
:1042200064652068656967687420666F72204265FE
:1042300064204C6576656C20436F727265637469A7
:104240006F6E206E6F7420706C61757369626C653F
:104250002E0A0A003F43616E2774206163746976F9
:1042600061746520616E6420646561637469766160
:104270007465206174207468652073616D652074B5
:10428000696D652E0A0A00426F7468205820262046
:1042900059206C6F636174696F6E73206D757374F0
:1042A000206265207370656369666965642E0A0A19
:1042B000003F496E76616C6964206772696420739F
:1042C000697A6520284A2920737065636966696583
:1042D000642028322D39292E0A0A003F28502968E7
:1042E0006173652076616C756520696E76616C69B5
:1042F000642028302D36292E0A0A003F28562965C9
:1043000072626F7365206C6576656C20696D706C88
:1043100061757369626C652028302D34292E0A0A74
:10432000003F285229657065746974696F6E206357
:104330006F756E7420696E76616C69642028312B0C
:10434000292E0A0A00446F696E67204732390050EF
:1043500072696E7420506175736564005061757385
:1043600065205072696E74006E6F7469666963616E
:1043700074696F6E200053755065522043522D3280
:10438000302052656164792E005072696E74696ED6
:10439000672E2E2E0063616E63656C005072696E2D
:1043A000742041626F72746564004469736D69734F
:1043B000730055492041626F72746564004D323557
:1043C00020500A4D323400526573756D65005549B1
:1043D00020506175736500726573756D6500536576
:1043E0007474696E67732053746F7265642028005B
:1043F000416476616E6365642053657474696E67A9
:104400007300554E4C4F41442046494C414D454E5A
:10441000540046494C414D454E54204348414E4777
:1044200045004C6F61642053657474696E67730056
:1044300053746F72652053657474696E67730052AC
:104440006573746F72652044656661756C74730082
:10445000507265686561742041425320436F6E66F7
:10446000005072656865617420504C4120436F6E46
:1044700066004C434420436F6E7472617374004253
:104480004C546F756368004D3139305335350A47E8
:1044900032380A47323950310A47323950330A47E5
:1044A000323953310A47323953300A4732394630AC
:1044B0002E300A473239410A4D31303453323135CA
:1044C0000A4732380A4D313039533231350A4731D3
:1044D000583135305931353046353030300A473172
:1044E0005A300A4D3530300A4D3430300A4D3131B2
:1044F0003720536574205A204F6666736574004DEB
:10450000313036533132380A4D3330334338533239
:1045100031354530550A4D3530300A4D313137206F
:104520005049442054756E6520446F6E65004D31CE
:1045300039305335350A4D313034533231350A472D
:1045400032380A4732394C310A473120583130303D
:104550005931303046353030300A47315A30004D0D
:104560003530300A4D3131372053657474696E67C8
:10457000732053746F726564005072657020666FAB
:1045800072205A2041646A75737400504944205463
:10459000756E65005365747570004D373032205468
:1045A0002564004D36303020423020542564004DC3
:1045B000373032203B2564004D373031205425649C
:1045C000004D373032004D373031004D363030201D
:1045D0004230005075726765206D6F7265005245FC
:1045E00053554D45204F5054494F4E533A00505269
:1045F000494E54205041555345440020204E6F7A77
:104600007A6C653A20004F75746167652052656366
:104610006F7665727900436F6E6669677572617453
:10462000696F6E00256C642E25696D004578747283
:104630007564656420546F74616C004C6F6E6765BF
:104640007374204A6F622054696D65003E200054E7
:104650006F74616C205072696E742074696D6500AE
:10466000436F6D706C65746564005072696E742080
:10467000436F756E7400313530004245443A415401
:10468000432031303447542D320052756E617761CA
:10469000792057617463683A204F4E004D6178204D
:1046A00054656D7000343530004D696E2054656D71
:1046B0007000350045313A204154432031303447B1
:1046C000542D32005053550047656E657269630082
:1046D00050726F746F636F6C00312E3000426175E1
:1046E000640032353030303000437265616C69747B
:1046F0007933442052414D505300457874727564AB
:104700006572730074696E796D616368696E657353
:1047100033642E636F6D0053755065522043522DE4
:10472000323000323032302D30322D32380050727B
:10473000696E746572205374617473005468657295
:104740006D6973746F727300426F61726420496E99
:10475000666F005072696E74657220496E666F00F4
:104760004D313030300053746F70205072696E7468
:1047700000526573756D65205072696E74004D321C
:1047800031004368616E6765204D65646961004171
:10479000626F7574205072696E746572004C657634
:1047A000656C696E6720546F6F6C73004E6F204D9F
:1047B00065646961005061726B696E672E2E2E0010
:1047C00000005761697420666F720066696C616DE4
:1047D000656E74206368616E676500746F20737422
:1047E000617274005761697420666F720066696C4B
:1047F000616D656E7420756E6C6F616400004E6F44
:104800007A7A6C652068656174696E6700506C65C2
:1048100061736520776169742E2E2E0000507265D9
:10482000737320627574746F6E00746F20686561B5
:1048300074206E6F7A7A6C650000496E73657274CD
:104840002066696C616D656E7400616E64207072C3
:1048500065737320627574746F6E00746F20636F7C
:104860006E74696E7565005761697420666F7200B9
:1048700066696C616D656E74206C6F6164000050D8
:104880007265737320427574746F6E00746F20725A
:104890006573756D65207072696E7400005761698B
:1048A0007420666F72207072696E7400746F20726B
:1048B0006573756D652E2E2E000057616974206634
:1048C0006F720066696C616D656E742070757267D9
:1048D000650000453100626564002C2073797374B3
:1048E000656D2073746F7070656421204865617414
:1048F00065725F49443A200048656174696E6720BB
:104900004661696C65640048656174696E6720661C
:1049100061696C6564004D3131322053687574648F
:104920006F776E00202D20496E76616C696420657A
:1049300078747275646572206E756D62657220217F
:104940000A00544845524D414C2052554E41574162
:104950005900546865726D616C2052756E617761A3
:1049600079004572723A204D415854454D50004DE2
:10497000415854454D50207472696767657265648B
:10498000004572723A204D494E54454D50004D49F4
:104990004E54454D502074726967676572656400B6
:1049A0004D383420582059205A204500202F00200F
:1049B00042403A0020403A001000C90210012C0188
:1049C0004001220170011801B0010E01F001040143
:1049D0005002FA00B002F0003003E600D003DC0021
:1049E0009004D2007005C800A006BE000008B40004
:1049F000B009AA00D00BA000600E960060118C00D8
:104A00000015820020197800C01D6E00A0226400ED
:104A1000B0275A00902C500000314600E0343C0092
:104A200010383200903A2800603C1E00A03D14006F
:104A3000803E0A00203F0000416363656C6572613F
:104A400074696F6E3A2050003F4A206F7574206F72
:104A5000662072616E67652028302E303120746FB9
:104A600020302E33290A00204D39322058002020D2
:104A70004D61783A200020204D696E3A2000536F36
:104A8000667420656E6473746F70733A20004D32E3
:104A9000342053256C642054256C64004739322E31
:104AA00039204525730047312046256400473932B7
:104AB0002E39205A2573004731205A302046323093
:104AC0003000473120582573205925732046333054
:104AD0003030004D34323020532569205A25730080
:104AE0004D3130362050256920532569004D323034
:104AF0003020442573004739322E392045305A3052
:104B00000A47315A320A47323852305859004D3428
:104B10003230205330205A300020496E76616C6963
:104B20006420657874727564657220003F0043618B
:104B30006E63656C004F6666004F6E005374617261
:104B400074205072696E740043616E6E6F742065DC
:104B50006E746572207375626469723A2000022E69
:104B60002E00536F667420456E6473746F7073000B
:104B70004D38340044697361626C6520537465700C
:104B800070657273004732380A4D34382050313026
:104B9000004D34382050726F626520546573740084
:104BA000473238205A00486F6D65205A0047323826
:104BB000205900486F6D6520590047323820580051
:104BC000486F6D652058004175746F20486F6D65A2
:104BD000006F70656E206661696C65642C204669A3
:104BE0006C653A2000446966663A200046726F6D33
:104BF0005374703A00537465707065723A00556E64
:104C00004C6576656C3A004C6576656C65643A0077
:104C10005261773A20202020000A4C6F6769636157
:104C20006C3A00436F756E7420453A004361703AE8
:104C3000004D302053746F70004D312053746F70ED
:104C400000436C69636B20746F20526573756D65EA
:104C50002E2E2E0050726F6265204F66667365744B
:104C6000205A0050726F6265204F66667365745AF1
:104C70003A20003F454550524F4D2073746F72618A
:104C80006765206E6F7420617661696C61626C6526
:104C90002E0A005374616E64617264204465766903
:104CA0006174696F6E3A20004F46460A004661649F
:104CB00065204865696768742000426564204C651A
:104CC00076656C696E6720004661696C6564207466
:104CD0006F20656E61626C6520426564204C65766C
:104CE000656C696E670A00496E76616C6964206D57
:104CF0006573682E0A0076616C69640A53746F727A
:104D000061676520736C6F743A20004D657368208D
:104D1000697320003F496E76616C69642073746F1B
:104D20007261676520736C6F742E0A004D343231E6
:104D300020696E636F727265637420706172616D59
:104D4000657465722075736167650A0044657669EC
:104D50006174696F6E0025533A20257300205261FB
:104D60006E67653A20004D65616E3A200046696EB7
:104D70006973686564210A002072616E67653A2074
:104D800000207369676D613A2000206D65616E3A9D
:104D900020003A207A3A2000206F662000476F6991
:104DA0006E6720746F3A20580043570A00206469E8
:104DB000723A0020616E676C653A005374617274D8
:104DC000207261646975733A004D343820506F6900
:104DD0006E740025533A2025642F256400506F73AC
:104DE0006974696F6E696E67207468652070726F90
:104DF00062652E2E2E0A003F4E756D626572206F21
:104E000066206C65677320696E206D6F76656D65D1
:104E10006E74206E6F7420706C61757369626C655E
:104E20002028302D3135292E0A003F2028582C59B2
:104E300029206F7574206F6620626F756E64732E03
:104E40000A003F53616D706C652073697A65206E4E
:104E50006F7420706C61757369626C652028342DE5
:104E60003530292E0A004D3438205A2D50726F6289
:104E700065205265706561746162696C697479203E
:104E8000546573740A003F2856296572626F736512
:104E9000206C6576656C20696D706C6175736962F4
:104EA0006C652028302D34292E0A000048028C021F
:104EB00011241FBECFEFD1E2DEBFCDBF00E00CBF9B
:104EC00013E0A0E0B2E0EAE5F3E703E00BBF02C0C5
:104ED00007900D92A237B107D9F729E1A2E7B3E015
:104EE00001C01D92AB35B207E1F717E2C7E5D7E283
:104EF00000E006C021970109802FFE010F94B2B493
:104F0000C635D10780E00807A9F70F949A9F0D9442
:104F10009BB90C9400002F923F924F925F926F9238
:104F20007F928F929F92AF92BF92CF92DF92EF9239
:104F3000FF920F931F93CF93DF93CDB7DEB7E49724
:104F40000FB6F894DEBF0FBECDBF8BAB2091970597
:104F500028AB11E010939705809154198D3409F412
:104F600088C3843511F40C94A939873411F00C945A
:104F7000B03980915219909153198B31910509F4F0
:104F80001AC1B4F48430910534F482309105DCF513
:104F900097FF2DC06AC38531910511F40C94B23985
:104FA0008A31910509F403C1049709F05EC3C0C0BA
:104FB0008A32910509F4A7C254F48D31910509F4A0
:104FC00024C10CF412C14E9709F423C14EC38B3592
:104FD000910509F4E2C18C35910509F4E3C18A35E4
:104FE000910509F042C3109280030C94B23980916C
:104FF0007302882311F40C94B2390F945C7E0F94E1
:1050000077340C94B23920917302222311F40C945A
:10501000B23911E0029709F010E00F945C7E19821A
:105020001A821B821C821D821E821F82188682E5C4
:105030000E94BC3F882309F44BC00E943A3F6B0199
:105040007C0120E030E0A9010F94B7AD882309F47A
:1050500055C080919F059091A005A091A105B091A8
:10506000A2058CA39DA3AEA3BFA38091A30590919D
:10507000A405A091A505B091A6058CA79DA7AEA7F4
:10508000BFA78090FB109090FC10A090FD10B090F6
:10509000FE104090FF105090001160900111709030
:1050A0000211A50194016CA17DA18EA19FA10F9475
:1050B000B7AD81110C94BB39A30192016CA57DA5FC
:1050C0008EA59FA50F94B7AD8823C1F00C94BB3972
:1050D00089E40E94BC3F882331F00E943A3F6983F3
:1050E0007A838B839C838AE40E94BC3F882331F0BF
:1050F0000E943A3F6D837E838F83988720E030E063
:10510000A90169817A818B819C810F94B7AD81114E
:105110000C946F3A20E030E0A9016D817E818F818F
:1051200098850F94B7AD81110C946F3A0C94823A24
:1051300080E50E94BC3F882329F00F94A47D6B0179
:105140007C0103C0C12CD12C760183E50E94BC3FB9
:10515000882361F00E943A3F20E030E04AE754E4BF
:105160000F941DAE0F942EB66B017C010E94AEE928
:1051700080912C12811105C060E08CE997E00F94BA
:10518000725C0E9416F2C60ED71EE81EF91E0E941F
:1051900016F2DC01CB018C199D09AE09BF09B7FDE0
:1051A00002C00C94B23980E00E94BA57F0CF0E943E
:1051B00045650C94B2390E941DE481110C94B239FA
:1051C0008CE0E1E9F2E0DE01119601900D928A9502
:1051D000E1F760E070E080E50F94927BBE016F5FC5
:1051E0007F4F0F943A590C94B23980911C0D8770FF
:1051F000873011F00C94893A60E08FE40E94CE6110
:1052000081110C94B2390C94893A0E94A24A0C94F0
:10521000B2392091380D3091390D40913A0D5091AD
:105220003B0D60919F057091A0058091A105909123
:10523000A2050F94BBB4AB01BC0188E50E94D8A6BF
:1052400069837A838B839C8320913C0D30913D0D43
:1052500040913E0D50913F0D6091A3057091A405C2
:105260008091A5059091A6050F94BBB4AB01BC013C
:1052700089E50E94D8A66D837E838F839887BE01BF
:105280006B5F7F4FCE0101960E946240882311F42C
:105290000C94B23980E00E9466430F94F63061E0CE
:1052A00085E40E94CE61182F01E021E041E0682FE3
:1052B000CE0101960E9404486B017C019B01AC0168
:1052C0000F9408B881115FC089809A80AB80BC8040
:1052D00020E030E0A901C501B4010F94B7AD87FF0C
:1052E00005C027E137EB41E558EB04C027E137EB78
:1052F00041E558E3C501B4010F94BBB4AB01BC0157
:105300008FEE97E00E94CF478D809E80AF80B8845B
:1053100020E030E0A901C501B4010F94B7AD87FFCB
:1053200005C027E137EB41E558EB04C027E137EB37
:1053300041E558E3C501B4010F94BBB4AB01BC0116
:105340008AEE97E00E94CF4720E030E0A901C70134
:10535000B6010F94B7AD87FF05C027E137EB41E5F4
:1053600058EB04C027E137EB41E558E3C701B6012C
:105370000F94BBB4AB01BC0185EE97E00E94CF4710
:105380008AE00E9477560F94DD30113011F40E94AC
:10539000CFE70F9403330C94B2398FE080938003EE
:1053A0000C94B23980915119882349F1893009F060
:1053B000A6C04BEAA42E42E0B42E5FE9E52E55E0EC
:1053C000F52ED12C00E010E0D5018D915D010E94F9
:1053D000BC3F882369F00E943A3FF70160837183E4
:1053E00082839383133011F401E002C0DD24D3944F
:1053F0001F5FF4E0EF0EF11C143031F775C09BEA2B
:10540000292E92E0392E20E1E22E2DE0F22E2FE916
:1054100035E03DA32CA334E0C32E3DE0D32E00E0C5
:1054200010E0D1018D911D010E94BC3F882309F439
:105430004BC00E943A3F2B013C01133049F0F6016A
:1054400020813181428153810F94BAB42B013C01F8
:10545000ACA1BDA12D913D914D915C91C301B201D3
:105460000F94BAB44B015C012DEB37E346E855EBE2
:105470000F941BB787FD0AC02DEB37E346E855E3D1
:10548000C501B4010F94B7AD1816F4F4133051F4FC
:105490004092AB055092AC056092AD057092AE059E
:1054A00001E012C0A5019401F70160817181828140
:1054B00093810F94BBB4D7016D937D938D939C938F
:1054C0001397812F0E9450EF1F5FB4E0EB0EF11C89
:1054D000ECA1FDA13496FDA3ECA3F4E0CF0ED11C0A
:1054E000143009F09ECF05C0DD2019F00F94013370
:1054F00006C0002321F08BEA95E00E9458ED0F943E
:1055000003330C94B23980917302882311F40C9404
:10551000B23989E40E94BC3F082F882321F00E9401
:10552000363FE82E01C0E12C8AE40E94BC3F182FD0
:10553000882321F00E94363FF82E01C0F12C002371
:1055400019F025E02E1528F0112349F035E03F151C
:1055500030F487EF97E00E9479450C94B23980E1EE
:10556000EFE9F5E0ABEFB0E101900D928A95E1F73C
:10557000002359F08E2D0E942D416093FB107093F3
:10558000FC108093FD109093FE10112359F08F2D85
:105590000E942D416093FF107093001180930111C0
:1055A0009093021160E080E50E94CE618823C1F1F2
:1055B0000023D1F02091380D3091390D40913A0DF2
:1055C00050913B0D6091FB107091FC108091FD108B
:1055D0009091FE100F94BAB46093FB107093FC107E
:1055E0008093FD109093FE101123D1F020913C0D7B
:1055F00030913D0D40913E0D50913F0D6091FF1057
:105600007091001180910111909102110F94BAB420
:105610006093FF1070930011809301119093021119
:1056200040E050E0BA0186E40E94D8A66B017C01FC
:1056300020E030E0A9010F941BB718164CF420E0CD
:1056400030E040E752E4C701B6010F94B5B503C09E
:1056500060E070E0CB0169837A838B839C83CE0109
:1056600001960F94463D0C94B2390E940BE30C94C2
:10567000B23980915219909153198937910511F4DB
:105680000C943E330CF03CC18D34910509F447C4B1
:105690000CF09CC08B31910509F430C30CF056C05E
:1056A0008531910509F489C2B4F58131910509F478
:1056B00070C244F4029710F00C94A6390F94209510
:1056C0000C94B2398231910509F46DC6449711F0FA
:1056D0000C94A6398EE298E00E94794581E996E122
:1056E0000E9451F58BE1E1E9F6E1DE0111960190AE
:1056F0000D928A95E1F760E070E0CE0101960F947B
:10570000E007CE0101960E94C9628FE198E00E94F5
:1057100079450C94B2398831910509F46DC26CF465
:105720008631910509F44DC2479711F00C94A639C2
:10573000E0916F05F091700551C28931910509F42E
:10574000C4C24A9709F4CCC20C94A639813291059F
:1057500009F47CC3ECF48E31910509F43EC37CF46A
:105760008C31910509F431C34D9711F00C94A63991
:10577000809174168E7F809374160C94B2398F3199
:10578000910509F467C3809709F437C30C94A639CF
:105790008934910509F4ACC364F48A32910509F4A3
:1057A00079C3C09711F00C94A6390F94BB9A0C944E
:1057B000B2398B34910509F4AEC38C34910511F0E4
:1057C0000C94A6390F94FB550C94B2398C36910584
:1057D00011F40C94B2390CF053C08535910509F4DD
:1057E000E5C5ACF58235910509F4CEC534F58E34A6
:1057F000910509F498C38135910511F00C94A639EF
:105800000F948E6F0E9473E80E94BFE90E945F535D
:1058100010929E0510929D0510929C0568EE73E013
:1058200080E090E00E94D3440E949B5360E080E0BF
:1058300099E00F94725C0C94B2398335910509F4A8
:10584000ABC58435910509F4AEC50C94A6398936EB
:10585000910509F476C454F48C35910509F4C9C551
:105860008836910509F4F2C30C94A6398A3691055D
:1058700009F47BC48B36910509F49BC40C94A639BA
:105880008237910509F43FC6D4F48F36910509F4A7
:10589000B2C454F48D36910509F4FDC38E369105DA
:1058A00009F496C40C94A6398037910511F40C9430
:1058B000B2398137910509F4E3C40C94A6398637CF
:1058C000910509F49EC654F48337910509F41EC668
:1058D0008537910509F483C60C94A639873791055D
:1058E00009F4C9C68837910511F00C94A63981E0F6
:1058F00080935D0D80935C0D0F9468340C94B239E5
:105900008039A1E09A0711F40C94FF360CF089C09D
:10591000833D910509F4C3C70CF040C0883C910554
:1059200009F40EC7CCF48139910509F4AEC654F4DC
:105930008D37910509F424C58C38910509F4C5C447
:105940000C94A6398B39910509F4F2C48E3B91056C
:1059500009F4D9C40C94A6398C3C910509F47FC78D
:1059600054F4893C910509F435C78B3C910509F441
:1059700054C70C94A6398D3C910509F473C78E3C2D
:10598000910511F00C94A6394BEAC42E42E0D42EB6
:105990005FE0E52E5EE0F52E10E067C78232E1E0C1
:1059A0009E0711F40C949835DCF4823E910509F4BD
:1059B000DCC754F48C3D910509F474C78D3D910505
:1059C00009F47DC70C94A6398A3F910511F40C9413
:1059D000A3368831914011F40C9401350C94A6390A
:1059E0008E3231E0930711F40C94B8366CF48C329B
:1059F000B1E09B0711F40C949B358D32914011F46A
:105A00000C94B0350C94A6398F32F1E09F0711F455
:105A10000C94FC368033914011F40C9430360C9485
:105A2000A639873F31E0930711F40C94D9370CF075
:105A300053C0853AB1E09B0711F40C9407374CF53D
:105A40008A39F1E09F0711F40C94B2399CF4813942
:105A500031E0930711F40C9402378239914011F030
:105A60000C94A6390E9450400E94CFE70F94033354
:105A70000C94B2398D39B1E09B0711F40C94823942
:105A8000843A914011F00C94A6390F9426990C9405
:105A9000B239843FF1E09F0711F40C94D3376CF4D2
:105AA0008C3A31E0930711F40C940A37863E91400A
:105AB00011F40C9467370C94A639853FB1E09B072D
:105AC00011F40C94D637863F914011F00C94A6390E
:105AD0000E9441C30C94B2398E3BF2E09F0711F44F
