:100000000C9481170C94B2170C94B2170C94B2177D
:100010000C94B2170C94B2170C94B2170C94B2173C
:100020000C94B2170C94B2170C94B2170C94B2172C
:100030000C94B2170C94B2170C94B2170C94B2171C
:100040000C94B2170C948A6D0C94B2170C94B217DE
:100050000C94B2170C94B2170C94D4BA0C94B9C87F
:100060000C94B2170C9440580C9436580C94B21758
:100070000C94B2170C94B2170C94B2170C94B217DC
:100080000C94CA4F0C94B2170C94B2170C94B2177C
:100090000C94B2170C94B2170C94B2170C94B217BC
:1000A0000C94B2170C94B2170C949C4F0C94B2178A
:1000B0000C94B2170C94B2170C94B2170C946E4FA8
:1000C0000C94B2170C94B2170C94B2170C942DC95F
:1000D0000C9403C90C94B2170C94B2170C94B21779
:1000E0000C94B217FB174218481870187D18861820
:1000F000911822232B2401252C25383238328526CD
:100100002427642838323832192B4C2C852C38326D
:100110004C2E38323832052F38323832952FFE2F98
:100120007A308E304A31952C9D2CC12CE52C192D1E
:10013000822D962DAF2DBC2DC92DDD2D392EB22F40
:10014000B52FB82FCE2FD52FDC2FF42F7358795819
:100150008B589B58A358D058A758D058AB58AF5875
:10016000D058B358B758BB58C358D058CD5829FDAC
:100170002CFD1BFD1FFD25FD63FD30FD34FD3AFD0B
:100180003EFD42FD48FD4CFD50FD63FD56FD5AFD10
:100190005EFD1D01A9015B01BD019D0163013501EA
:1001A0005D0151016D01C101BF017F01C701630103
:1001B0007301AB01B701084AD73B3BCE016E84BC4B
:1001C000BFFDC12F3D6C74319ABD56833DDA3D00B1
:1001D000C77F11BED9E4BB4C3E916BAAAABE0000FA
:1001E00000803F05A84CCDB2D44EB93836A9020CD8
:1001F00050B9918688083CA6AAAA2ABE00000080B1
:100200003F000C9422230C9464280C949B580C946B
:10021000B7580C94B52F0C9491180C9448180C9462
:1002200034FD0C94952F0C94E52C0C9425FD0C9426
:1002300073580C949CCA0C94DD2D0D944E020C94B2
:10024000852C0C9430FD0C94052F0C94AF580C9415
:10025000C3580C9472C90C94A3580C942CFD0C94A4
:10026000D52F0C9429FD0C94192B0D9476020C9427
:1002700048FD0C944C2E0C94822D0C9401250C946A
:10028000A7580C9442180C9463C90C9442FD0C942A
:100290003AFD0C941BFD0C945AFD0D9466210C94B0
:1002A000C12C0D9486020C945EFD0C94B82F0C9416
:1002B00056FD0C944A310D9458020D947E020C9414
:1002C000DC2F0C9494C90D94E5020C9438320C94F4
:1002D00024270D9448210C9486180D9490020C94B8
:1002E000392E0C943EFD0D94C7020C947FC80C94DB
:1002F0004C2C0C9479580C94FB170C941FFD0D9406
:10030000B3020C94C92D0C94952C0C94CD580C94DC
:1003100063FD0C947A300C94B3580C94F42F0C9425
:1003200086C90C94962D0C942C250C9470180C9462
:100330009D2C0C9485260C948B580D946C020C9477
:10034000AF2D0C94BC2D0C94192D0C942B240C94D3
:10035000FE2F0D9453020D94D1020C947D180C9431
:100360008E300C94CE2F0C94B22F0C94AB580D946D
:10037000DB020C944CFD0C9450FD0D9462020D9424
:10038000A4020D949A020C94D0580C944FCA0D9468
:10039000BD020C94BB584E414E494E495459494EEA
:1003A00046CDCCCC3D0AD7233C17B7D13877CC2BE0
:1003B000329595E6241FB14F0A000020410000C885
:1003C0004200401C4620BCBE4CCA1B0E5AAEC59D06
:1003D0007400407A10F35A00A0724E18090010A55C
:1003E000D4E80000E87648170000E40B540200004F
:1003F000CA9A3B000000E1F50500008096980000D5
:100400000040420F000000A08601000000102700FD
:10041000000000E803000000006400000000000A83
:1004200000000000000100000000002C76D888DCED
:10043000674F0823DFC1DFAE59E1B1B796E5E3E4CA
:1004400053C63AE651997696E8E6C28426EB898C43
:100450009B62ED407C6FFCEFBC9C9F40F2BAA56FA5
:10046000A5F490055A2AF75C936B6CF9676DC11B74
:10047000FCE0E40D47FEF520E6B500D0ED902E033C
:1004800000943577050080841E080000204E0A0085
:100490000000C80C333333330F986E12831141EFD1
:1004A0008D2114893BE65516CFFEE6DB18D1844B2F
:1004B000381BF77C1D901DA4BBE424203284725E9F
:1004C000228100C9F124ECA1E53D274D32352050B1
:1004D0000A4D323400526573756D650055492050E0
:1004E00061757365004E6F204D61746368203A003A
:1004F0004D3130303043004D31303030004D3939DE
:10050000390A4D323830503053313630004D3530A5
:10051000320A4D353030000A202A2A2A7265636477
:1005200061742E646174615B305D203D0047323838
:100530000A4731204631303030205A313000556E74
:10054000737570706F72746564204F7074696F6E2C
:100550002053656C656374656400473236523235EA
:1005600035004D3139305335350A4732380A473274
:10057000390A4D3430300A4D313034533231350A76
:100580004732380A4D313039533231350A4D343221
:100590003053310A473158313030593130304635D7
:1005A0003030300A47315A300A4D3530300A4D313B
:1005B000313720536574205A204F66667365740086
:1005C0004732380A4731204631303030205A302EF9
:1005D00030004732385A0A473146313530305A30C8
:1005E0002E30004732380A473146313530305A30E4
:1005F0002E30004732380A473146313030305A30D9
:100600002E30005A204F6666736574203A20257399
:100610000053746F70205472696767657265640077
:1006200053746F70204E6F004D3834004265676917
:100630006E537769746368007265636461742E61D8
:10064000646472203D3D007265636461742E646170
:1006500074615B305D203D3D00776169747761793D
:10066000203D3D002A2A2A4E6F7A7A6C6554656DCA
:10067000705374617475735B325D203D00434F4D60
:100680004D554E49434154494F4E004452595255DD
:100690004E004552524F5253004543484F00473297
:1006A0002F47332062616420706172616D657465EB
:1006B00072730A00536C6565702E2E2E005A2050FE
:1006C000726F62652050617374204265640A005A3B
:1006D0002050726F6265205061737420426564001F
:1006E000486F6D652058592066697273740A004816
:1006F0006F6D65205859204669727374004D313111
:10070000372050726F6265206661696C65642E0ADD
:100710004732380A0070726F62655F726577697080
:100720006500473239205265747279696E67004DF1
:1007300031313720426564206C6576656C696E677F
:10074000206661696C65642E0A4730205A31300A90
:100750004D3330302050323520533838300A4D3345
:100760003030205035302053300A4D333030205057
:10077000323520533838300A4D3330302050353040
:100780002053300A4D333030205032352053383822
:10079000300A4D333030205035302053300A473442
:1007A0002053310070726F62655F6661696C6564C9
:1007B000004D31313720426564206C6576656C6987
:1007C0006E6720646F6E652E004D65736820706FD4
:1007D000696E742063616E6E6F742062652072654D
:1007E000736F6C7665640A004E6F204D6F76652ED0
:1007F00000456E642066696C65206C6973740A003C
:10080000426567696E2066696C65206C6973740A5D
:1008100000526573756D696E6720534400286E6FD2
:100820002066696C65290043757272656E74206676
:10083000696C653A20005072696E742074696D6548
:100840003A20000A53746174733A2046696C616DF2
:10085000656E7420757365643A20002C204C6F6EB1
:1008600067657374206A6F623A2000546F74616C1C
:100870002074696D653A20002C204661696C6564BE
:100880003A20002C2046696E69736865643A20003E
:100890005072696E74733A200053746174733A2015
:1008A00000452025530044454255473A004D31311B
:1008B0003320530042656420436F6F6C696E672E6E
:1008C0002E2E004265642048656174696E672E2E85
:1008D0002E004348414D4245525F54454D504552CC
:1008E0004154555245004D4F54494F4E5F4D4F4472
:1008F000455300544845524D414C5F50524F54456A
:100900004354494F4E004155544F5245504F525455
:100910005F53445F5354415455530050524F4D5010
:10092000545F535550504F525400454D4552474522
:100930004E43595F50415253455200434153455F26
:100940004C494748545F4252494748544E455353D7
:1009500000544F47474C455F4C4947485453005358
:100960004F4654574152455F504F574552004255EC
:10097000494C445F50455243454E54004C45564502
:100980004C494E475F44415441005A5F50524F42D8
:1009900045004155544F4C4556454C005052494E28
:1009A000545F4A4F420050524F4752455353004103
:1009B00055544F5245504F52545F54454D50005678
:1009C0004F4C554D455452494300454550524F4DAB
:1009D0000042494E4152595F46494C455F5452418D
:1009E0004E534645520053455249414C5F584F4E75
:1009F0005F584F4646004649524D574152455F4E5B
:100A0000414D453A4D61726C696E20322E302E3464
:100A10005F44573620544D334420453550534D44A0
:100A2000424220534F555243455F434F44455F5523
:100A3000524C3A68747470733A2F2F6769746875F2
:100A4000622E636F6D2F496E73616E6974794175A3
:100A5000746F6D6174696F6E2F4D61726C696E2F6A
:100A6000747265652F437265616C69747944776946
:100A70006E5F322E302050524F544F434F4C5F56D2
:100A8000455253494F4E3A312E30204D414348494B
:100A90004E455F545950453A544D33442045352016
:100AA000506C75732045585452554445525F434F1E
:100AB000554E543A3120555549443A636564653280
:100AC0006132662D343161322D343734382D39623C
:100AD00031322D6335356336326633363766660A12
:100AE000002F2F200020466C6F773A200050726F45
:100AF0007465637465642050696E0A00206F7574B4
:100B0000206F662072616E67650A002053657276F9
:100B10006F200020643A0020693A0020703A006497
:100B200069730043290A0061626C656420286D695D
:100B30006E2074656D702000436F6C64206578745E
:100B400072756465732061726520005049442041CC
:100B500075746F74756E65206661696C65642120BB
:100B6000426164206578747275646572206E756D7B
:100B70006265720A0046696C616D656E74207275FB
:100B80006E6F75742064697374616E636520286D7F
:100B90006D293A200046696C616D656E742072752E
:100BA0006E6F757420004D34323120696E636F7240
:100BB0007265637420706172616D65746572207511
:100BC000736167650A004F666673657473204170D0
:100BD000706C696564004572723A20546F6F2066CC
:100BE00061722100546F6F206661722066726F6DB2
:100BF000207265666572656E636520706F696E74DC
:100C00000A00454550524F4D204F4B0A003F4B20A4
:100C100076616C7565206F7574206F662072616EE9
:100C200067652028302D3130292E0A004164766115
:100C30006E6365204B3D00506F7765722D6C6F734E
:100C400073207265636F7665727920009906AE2312
:100C500092068B067D064572726F722077726974F8
:100C6000696E6720746F20454550524F4D210A0030
:100C7000627573793A2070617573656420666F726E
:100C800020696E7075740A00627573793A2070611C
:100C90007573656420666F7220757365720A0062F1
:100CA0007573793A2070726F63657373696E670A42
:100CB000007061757365004D363030002066696CD8
:100CC000616D656E745F72756E6F75742000666914
:100CD0006C616D656E745F72756E6F757420540013
:100CE00046696C616D656E7452756E6F75742054D3
:100CF000004E6F20436865636B73756D2077697470
:100D000068206C696E65206E756D6265722C204C72
:100D1000617374204C696E653A2000636865636B8B
:100D200073756D206D69736D617463682C204C61FF
:100D30007374204C696E653A20004C696E65204ED4
:100D4000756D626572206973206E6F74204C6173DB
:100D500074204C696E65204E756D6265722B312C66
:100D6000204C617374204C696E653A20004D31311E
:100D70003000776169740A00534420726561642011
:100D80006572726F720A002121204B494C4C20631E
:100D9000617573656420627920746F6F206D75636F
:100DA0006820696E6163746976652074696D652079
:100DB0002D2063757272656E7420636F6D6D616E48
:100DC000643A2000706F7765726F6666004B494C1D
:100DD0004C45442E20005072696E74657220686123
:100DE0006C7465642E206B696C6C28292063616CBF
:100DF0006C6564210A00363726033C3D380E2E30E0
:100E00003E121A1C1808440AFF430809070001246F
:100E1000F4D43050C38E20C2A24017828B701112BE
:100E20007A910D816CD90AA861E108C758660761FB
:100E30005143061E4B5D05C145A7041A4111040923
:100E40003D9803713931034036DB0265339102D49A
:100E5000305402802E1D02632CEE01752AC501B0AC
:100E600028A001102781018F2564012B244B01E06C
:100E7000223401AC211F018D200D01801FFC008454
:100E80001EED00971DDF00B81CD200E61BC6002037
:100E90001BBC00641AB200B219A8000A19A0006AAB
:100EA000189900D117910040178B00B516840031B6
:100EB000167E00B31579003A157300C7146F0058F9
:100EC000146A00EE1366008813630025135E00C7E2
:100ED000125B006C12570015125400C111510070C2
:100EE000114F0021114B00D61049008D10470046CC
:100EF00010440002104200C00F4000800F3E00422C
:100F00000F3C00060F3B00CB0E3800930E37005C01
:100F10000E3500270E3400F30D3200C10D31009064
:100F20000D3000600D2E00320D2D00050D2C00D966
:100F30000C2B00AE0C2900850C29005C0C27003519
:100F40000C27000E0C2600E80B2400C40B2400A084
:100F50000B23007D0B23005A0B2100390B210018B5
:100F60000B2000F80A1F00D90A1E00BB0A1E009DB4
:100F70000A1D00800A1D00630A1C00470A1B002C82
:100F80000A1B00110A1A00F7091A00DD091900C42A
:100F9000091900AB091900920917007B09180063B1
:100FA0000917004C09160036091600200916000A18
:100FB000091500F5081500E0081400CC081400B865
:100FC000081400A4081400900813007D0812006B98
:100FD00008130058081200460812003408110023B4
:100FE0000811001208110001081100F0071000E0BC
:100FF000071000D0071000C0071000B0070F00A1B5
:1010000007100091070E0083070F0074070F00659B
:10101000070E0057070E0049070E003B070D002E74
:10102000070E0020070D0013070D0006070D00F93D
:10103000060C00ED060D00E0060C00D4060C00C8FE
:10104000060C00BC060C00B0060C00A4060B0099B0
:10105000060C008D060B0082060B0077060B006C59
:10106000060B0061060A0057060B004C060A0042F8
:10107000060A0038060A002E060A0024060A001A8C
:10108000060A001006090007060A00FD050900F41B
:10109000050900EB050900E2050900D9050900D0A2
:1010A000050900C7050900BE050900B5050800AD22
:1010B000050800A50509009C050800940508008C9A
:1010C000050800840508007C050800740508006C0C
:1010D000050700650508005D050700560508004E78
:1010E00005070047050700400508003805070031DF
:1010F0000507002A050700230507001C0506001642
:101100000507000F0507000805060002050700FB9C
:10111000040600F5040700EE040600E8040600E2F9
:10112000040700DB040600D5040600CF040600C94E
:10113000040600C3040600BD040600B7040600B19F
:10114000040500AC040600A6040600A00405009BEC
:1011500004060095040500900406008A0405008535
:10116000040500800406007A04050075040500707B
:101170000405006B04050066040500610405005CBD
:1011800004050057040500520405004D04050048FD
:10119000040500430405003E0404003A040500353C
:1011A000040500300404002C040500270404002377
:1011B0000405001E0404001A0404001604050011AE
:1011C0000404000D040400090405000404040000E4
:1011D000040400FC030400F8030400F4030400F01A
:1011E000030400EC030400E8030400E4030400E04B
:1011F000030400DC030400D8030400D4030400D07B
:10120000030400CC030400C8030300C50303002447
:10121000F404D9201BC40C5C0E9804C4095F026559
:10122000077101F405F900FB04B30048048700C10D
:101230000369005803550003034500BE023A0084C9
:1012400002310053022A002902250004022000E492
:10125000011C00C8011900AF011700980114008497
:10126000011300710110006101100051010E0043D3
:10127000010D0036010B002B010B0020010B0015A6
:101280000109000C01090003010800FB000800F33C
:10129000000800EB000700E4000600DE000600D8AE
:1012A000000600D2000600CC000500C7000500C201
:1012B000000500BD000400B9000400B5000400B141
:1012C000000400AD000400A9000400A5000300A272
:1012D0000003009F0004009B00030098000300959A
:1012E00000020093000300900003008D0002008BB9
:1012F00000030088000200860002008400030081D1
:101300000002007F0002007D0002007B00020079E5
:1013100000020077000100760002007400020072F3
:10132000000100710002006F0002006D0001006CFE
:101330000002006A00010069000200670001006607
:10134000000100650001006400020062000100610C
:10135000000100600001005F0002005D0001005C10
:101360000001005B0001005A000100590001005813
:101370000001005700010056000100550001005413
:101380000001005300000053000100520001005111
:10139000000100500001004F0001004E0000004E0F
:1013A0000001004D0001004C0001004B0000004B0B
:1013B0000001004A00010049000100480000004807
:1013C0000001004700010046000000460001004502
:1013D00000000045000100440001004300000043FC
:1013E00000010042000000420001004100000041F5
:1013F000000100400001003F0000003F0001003EEE
:101400000000003E0001003D0000003D0001003CE6
:101410000000003C0000003C0001003B0000003BDD
:101420000001003A0000003A0001003900000039D4
:1014300000010038000000380000003800010037CB
:1014400000000037000100360000003600000036C2
:1014500000010035000000350000003500010034B7
:1014600000000034000000340001003300000033AD
:1014700000000033000100320000003200000032A2
:101480000001003100000031000000310001003097
:1014900000000030000000300001002F0000002F8D
:1014A0000000002F0000002F0001002E0000002E81
:1014B0000000002E0001002D0000002D0000002D76
:1014C0000000002D0001002C0000002C0000002C6A
:1014D0000000002C0001002B0000002B0000002B5E
:1014E0000000002B0001002A0000002A0000002A52
:1014F0000000002A00010029000000290000002946
:101500000000002900000029000100280000002838
:10151000000000280000002800000028000100272B
:10152000000000270000002700000027000000271F
:101530000001002600000026000000260000002612
:101540000000002600010025000000250000002505
:1015500000000025000000250000002500010024F7
:1015600000000024000000240000002400000024EB
:1015700000010023000000230000002300000023DE
:1015800000000023000000230000002300010022CF
:1015900000000022000000220000002200000022C3
:1015A00000000022000100210000002100000021B5
:1015B00000000021000000210000002100000021A7
:1015C000000100200000002000000020000000209A
:1015D000000000200000002000000020000000208B
:1015E0000001001F0000001F0000001F0000001F7E
:1015F0000000001F0000001F0000001F0001001E6F
:101600000000001E0000001E0000001E000000235D
:101610002C0000B8220000561800003A0F0000B855
:10162000080000B1040000710200003E0100006FDC
:101630006B00526573656E643A2000256979202538
:101640006964202569682025696D2025697300FF7C
:10165000FDFCFAF8F6F4F2F0EEECEAE9E7E5E3E196
:10166000E0DEDCDAD9D7D5D4D2D0CFCDCBCAC8C74B
:10167000C5C3C2C0BFBDBCBAB9B7B6B4B3B2B0AFD0
:10168000ADACAAA9A8A6A5A4A2A1A09E9D9C9A992A
:10169000989795949392908F8E8D8B8A8988878660
:1016A00084838281807F7E7D7B7A7978777675747A
:1016B000737271706F6E6D6C6B6A69686766656472
:1016C000636261605F5E5D5C5B5A5958585756555E
:1016D0005453525150504F4E4D4C4B4A4A49484733
:1016E0004646454443424241403F3E3E3D3C3B3BF3
:1016F0003A39383837363535343332323130302FA5
:101700002E2E2D2C2B2B2A29292827272625252448
:10171000232322212120201F1E1E1D1C1C1B1B1ADF
:10172000191918181716161515141313121211116A
:10173000100F0F0E0E0D0D0C0C0B0A0A09090808EC
:10174000070706060505040403030202010000570B
:10175000616974696E6720666F722068656174756F
:10176000702E0A004C656176696E6720473236003C
:101770003F53706563696669656420582C5920631E
:101780006F6F7264696E617465206F7574206F6627
:1017900020626F756E64732E0A003F2852296570AF
:1017A0006561742076616C7565206E6F7420706C55
:1017B00061757369626C653B206D75737420626539
:1017C000206174206C6561737420312E0A003F28FB
:1017D00052296570656174206D757374206265208F
:1017E000737065636966696564207768656E206EED
:1017F0006F74207573696E6720616E204C43442EB0
:101800000A003F537065636966696564206E6F7A8C
:101810007A6C652074656D7065726174757265208F
:101820006E6F7420706C61757369626C652E0A004E
:101830003F5370656369666965642066696C616DB4
:10184000656E742073697A65206E6F7420706C61A8
:10185000757369626C652E0A003F53706563696633
:10186000696564207072696D65206C656E67746867
:10187000206E6F7420706C61757369626C652E0ADE
:10188000003F5072696D65206C656E677468206DED
:101890007573742062652073706563696669656439
:1018A000207768656E206E6F74207573696E67208F
:1018B000616E204C43442E0A003F53706563696695
:1018C000696564206E6F7A7A6C652073697A652029
:1018D0006E6F7420706C61757369626C652E0A009E
:1018E0003F52657472616374696F6E204D756C74DC
:1018F00069706C696572206D757374206265207300
:1019000070656369666965642E0A003F537065639C
:1019100069666965642052657472616374696F6E8B
:10192000204D756C7469706C696572206E6F7420DF
:10193000706C61757369626C652E0A003F53706547
:10194000636966696564206C6179657220686569A0
:10195000676874206E6F7420706C61757369626C57
:10196000652E0A0043292E0A003F5370656369669D
:10197000696564206265642074656D706572617468
:10198000757265206E6F7420706C61757369626C1E
:1019900065202834302D004732362073746172740C
:1019A000696E672E2E2E0A000000B4430000B44377
:1019B0000000C8430000B4430000B443000000002E
:1019C000000048420000484200008040020204003B
:1019D00000A0400000A040000000400101FF000006
:1019E0000001000000010000800055555500000076
:1019F000400033333300AAAA2A0049922400000091
:101A00002000C7711C0099991900D1451700555540
:101A100015003BB113002449120011111100000000
:101A200010000F0F0F00E3380E0043790D00CCCCEF
:101A30000C00C3300C00E8A20B0064210B00AAAA22
:101A40000A00703D0A009DD80900427B09009224DB
:101A50000900DCD308008888080010420800000054
:101A60000800F0C107008787070075500700711C48
:101A700007003EEB0600A1BC060069900600666602
:101A80000600703E06006118060017F4050074D1C8
:101A900005005BB00500B290050062720500555567
:101AA000050078390500B81E0500050505004EEC57
:101AB000040087D40400A1BD040090A7040049924B
:101AC0000400C17D0400EE690400C75604004444CC
:101AD00004005C32040008210400411004000000EE
:101AE00004003FF00300F8E0030026D20300C3C364
:101AF0000300CCB503003AA803000A9B0300388E0C
:101B00000300C08103009F750300D0690300505E8D
:101B100003001D53030034480300913D0300333399
:101B2000030016290300381F030097150300300C2B
:101B30000300030303000BFA020049F10200BAE8B4
:101B400002005CE002002DD802002DD0020059C82E
:101B50000200B0C0020031B90200DAB10200AAAA44
:101B60000200A0A30200BC9C0200FA9502005C8F58
:101B70000200DF88020082820200457C0200277694
:101B8000020027700200436A02007C640200D05EFB
:101B900002003F590200C853020020436F756E7463
:101BA00020583A005761726E696E673A20486F6D2F
:101BB000696E672042756D702044697669736F7233
:101BC000203C20310A0020746F6F206C6F6E6720FC
:101BD000657874727573696F6E2070726576656E64
:101BE0007465640A0020636F6C6420657874727594
:101BF00073696F6E2070726576656E7465640A0035
:101C00007C3C3E5E2B3D3F2F5B5D3B2C2A225C00E3
:101C10002062797465733B2063726320005365749E
:101C200074696E67732053746F7265642028004571
:101C30004550524F4D206461746173697A65206527
:101C400072726F722E0A002073746F726564207353
:101C5000657474696E677320726574726965766500
:101C600064202800202863616C63756C617465646E
:101C700029210A0020213D2000454550524F4D208A
:101C8000435243206D69736D61746368202D202871
:101C900073746F726564292000496E6465783A2018
:101CA00000204D61726C696E3D563736290A004539
:101CB0004550524F4D2076657273696F6E206D6985
:101CC000736D617463682028454550524F4D3D0047
:101CD000496E76616C6964206578747275646572AA
:101CE0000A00544845524D414C2052554E415741EF
:101CF0005900546865726D616C2052756E61776130
:101D000079004572723A204D415854454D50004D6E
:101D1000415854454D502074726967676572656417
:101D2000004572723A204D494E54454D50004D4980
:101D30004E54454D50207472696767657265640042
:101D40004D383420582059205A204500202F00209B
:101D500042403A0020403A0020573A001000C902A1
:101D600010012C014001220170011801B0010E0187
:101D7000F00104015002FA00B002F0003003E60066
:101D8000D003DC009004D2007005C800A006BE009D
:101D90000008B400B009AA00D00BA000600E9600A5
:101DA00060118C000015820020197800C01D6E00A3
:101DB000A0226400B0275A00902C50000031460049
:101DC000E0343C0010383200903A2800603C1E009D
:101DD000A03D1400803E0A00203F00004469666672
:101DE0003A200046726F6D5374703A0053746570F8
:101DF0007065723A00556E4C6576656C3A004C65BC
:101E000076656C65643A005261773A2020202000A4
:101E10000A4C6F676963616C3A00436F756E74209A
:101E2000453A004361703A004D302053746F7000A2
:101E30004D312053746F7000436F6E74696E756519
:101E400000436C69636B20746F20526573756D6518
:101E50002E2E2E0050726F6265204F666673657479
:101E6000205A0050726F6265204F66667365745A1F
:101E70003A20003F5A206F7574206F662072616EA1
:101E800067652028003F59206F7574206F662072A7
:101E9000616E676520282D0020746F20003F582058
:101EA0006F7574206F662072616E676520282D0043
:101EB00050726F6265204F666673657420580065C6
:101EC0006E7175657565696E672022004D31303021
:101ED000302053002020506C616E6E657242756632
:101EE00066657242797465733A20002046726565B2
:101EF000204D656D6F72793A2000436F6D70696C8B
:101F000065643A204D617220203720323032300A29
:101F100000204C61737420557064617465643A20CC
:101F2000323032302D30322D3238207C20417574E1
:101F3000686F723A2054696E794D616368696E65A5
:101F40007333440A00322E302E345F4457360A0071
:101F50004D61726C696E0020536F667477617265B3
:101F60002052657365740A00205761746368646F5A
:101F7000672052657365740A002042726F776E2085
:101F80006F75742052657365740A00204578746516
:101F9000726E616C2052657365740A00506F7765CC
:101FA0007255700A006175746F25632E67004732A1
:101FB00038585900446F6E65207072696E74696E8E
:101FC000672066696C650A004D3331004D30513130
:101FD000533630006572726F722077726974696E61
:101FE0006720746F2066696C650A00446F6E652017
:101FF000736176696E672066696C652E0A004D32E2
:102000003900205A3A0020593A00656E6473746FA3
:102010007073206869743A20002053697A653A2009
:102020000043616E6E6F74206F70656E2073756211
:10203000646972200053442063617264206F6B0AEC
:10204000006F70656E526F6F74206661696C6564B5
:102050000A00766F6C756D652E696E697420666115
:10206000696C65640A00534420696E697420666176
:10207000696C0A004D32332025730046696C652077
:1020800073656C65637465640A0046696C65206FEE
:1020900070656E65643A2000454E442053554252A7
:1020A0004F5554494E450A002220706F730022207C
:1020B000706172656E743A2200535542524F555406
:1020C000494E452043414C4C207461726765743A17
:1020D0002200747279696E6720746F2063616C6C82
:1020E000207375622D67636F64652066696C657324
:1020F000207769746820746F6F206D616E79206C31
:102100006576656C732E204D4158206C6576656C44
:102110002069733A310A0044656C6574696F6E20FA
:102120006661696C65642C2046696C653A200046DE
:10213000696C652064656C657465643A005344207D
:102140007072696E74696E67206279746520004EE2
:102150006F74205344207072696E74696E670A0050
:1021600057726974696E6720746F2066696C653A8E
:102170002000667265736800646F696E67004E6F59
:102180007720003F4A206F7574206F662072616E61
:1021900067652028302E303120746F20302E33298F
:1021A0000A00204D393220580020204D61783A2015
:1021B0000020204D696E3A2000536F667420656ED2
:1021C0006473746F70733A2000473238004D3234B4
:1021D0002053256C642054256C64004739322E3915
:1021E0002045257300473120462564004739322EAB
:1021F00039205A2573004731205A3020463230307A
:10220000004731205825732059257320463330303C
:1022100030004D34323020532569205A2573004D4B
:102220003130362050256920532569004D31303931
:1022300020532569004D31393020532569004D3236
:10224000303020442573004739322E392045305A2A
:10225000300A47315A320A47323852305859004D05
:10226000343230205330205A300020496E76616C71
:1022700069642065787472756465722000656368AE
:102280006F3A004572726F723A0042696C696E650E
:102290006172204C6576656C696E6720477269646F
:1022A0003A0A0053544F505045442E200050726952
:1022B0006E7465722073746F7070656420647565E8
:1022C00020746F206572726F72732E2046697820B9
:1022D000746865206572726F7220616E6420757318
:1022E00065204D39393920746F20726573746172BD
:1022F000742E202854656D70657261747572652046
:1023000069732072657365742E2053657420697437
:102310002061667465722072657374617274696E8F
:1023200067290A0021212053544F502063616C6CAF
:1023300065642062656361757365206F6620424C39
:10234000546F756368206572726F72202D207265FC
:1023500073746172742077697468204D3939390A51
:10236000002F2F616374696F6E3A00626567696E52
:1023700000656E640070726F6D70745F0073686FDB
:10238000770044697361626C6552756E6F75740095
:1023900050757267654D6F726500554E4B4E4F57C5
:1023A0004E2053544154450047434F44455F494EE6
:1023B000464F004C43445F50415553455F5245538F
:1023C000554D450046494C414D454E545F52554E82
:1023D0004F55545F434F4E54494E55450046494C66
:1023E000414D454E545F52554E4F5554004D383770
:1023F0003620526573706F6E64696E672050524F5D
:102400004D50545F002052000A20696E6974207A92
:1024100070726F62655F7A6F6666736574203D20C7
:1024200000454550524F4D20496E697469616C6991
:102430007A65640A0048617264636F64656420446D
:10244000656661756C742053657474696E6773207A
:102450004C6F616465640A003B200020204D3630DB
:1024600033200020204D34313220530046696C6106
:102470006D656E742072756E6F75742073656E7302
:102480006F723A0020550046696C616D656E74206C
:102490006C6F61642F756E6C6F6164206C656E6724
:1024A0007468733A0020204D393030204B004C695D
:1024B0006E65617220416476616E63653A0020202A
:1024C0004D3835312058005A2D50726F6265204FBB
:1024D00066667365740020204D34313320530050FC
:1024E0006F7765722D4C6F7373205265636F7665DD
:1024F00072793A0020204D33303420500020204D96
:102500003330312050005049442073657474696E33
:1025100067733A0020204732392057204900202095
:102520004D3432302053004175746F204265642071
:102530004C6576656C696E673A0020204D32303606
:10254000205800486F6D65206F66667365743A00A9
:10255000204A0020204D323035204200416476610F
:102560006E6365643A20423C6D696E5F7365676DAA
:10257000656E745F74696D655F75733E20533C6D65
:10258000696E5F66656564726174653E20543C6D7A
:10259000696E5F74726176656C5F666565647261B1
:1025A00074653E204A3C6A756E635F6465763E00E2
:1025B00020204D323034205000416363656C6572D9
:1025C0006174696F6E2028756E6974732F73322978
:1025D0003A20503C7072696E745F616363656C3E53
:1025E00020523C726574726163745F616363656CF1
:1025F0003E20543C74726176656C5F616363656C08
:102600003E0020204D3230312058004D6178696DF8
:10261000756D20416363656C65726174696F6E20CE
:1026200028756E6974732F7332293A00205900207F
:10263000204D3230332058004D6178696D756D2022
:102640006665656472617465732028756E6974735C
:102650002F73293A0053746570732070657220756A
:102660006E69743A0020204D3230302044300A0028
:1026700020204D3230302044002044697361626C68
:1026800065640A0046696C616D656E7420736574DB
:1026900074696E67733A0020286D6D290020204709
:1026A0003231202020203B20556E69747320696EE2
:1026B000206D6D00486F6D696E67204661696C65BD
:1026C00064006F70656E0054524947474552454457
:1026D0000066696C616D656E74007A5F6D696E008D
:1026E000795F6D617800785F6D6178005265706F19
:1026F0007274696E6720656E6473746F7020737492
:10270000617475730A0000803B4400803B44000004
:102710002041000096420000A0420000A0420000BC
:1027200048440000BE42D0070000D007000064000B
:1027300000004B000000206D61783A2000206D6998
:102740006E3A200023646566696E65204445464103
:10275000554C545F004B6420004B6920004B7020A7
:1027600000504944204175746F74756E6520666928
:102770006E697368656421205075742074686520E3
:102780006C617374204B702C204B6920616E642047
:102790004B6420636F6E7374616E74732066726F26
:1027A0006D2062656C6F7720696E746F20436F6E69
:1027B00066696775726174696F6E2E680A005049A8
:1027C00044204175746F74756E65206661696C652F
:1027D00064212074696D656F75740A000A20436C6A
:1027E000617373696320504944200A00204B643AA6
:1027F0002000204B693A2000204B703A20000A202C
:102800004E6F206F76657273686F6F740A00205484
:10281000753A2000204B753A200020643A200020B1
:10282000626961733A2000504944204175746F74A5
:10283000756E652073746172740A005049442041BA
:1028400075746F74756E65206661696C65642120AE
:1028500054656D706572617475726520746F6F2058
:10286000686967680A00453100626564002C20735E
:10287000797374656D2073746F707065642120487E
:1028800065617465725F49443A2000486561746906
:102890006E67204661696C65640048656174696EA5
:1028A00067206661696C6564004D31313220536880
:1028B0007574646F776E00202D20496E76616C69A7
:1028C00064206578747275646572206E756D6265DA
:1028D0007220210A0070012C0190012701B0012211
:1028E00001C0011D01F00118011002130130020E98
:1028F000016002090190020401C002FF000003FA16
:10290000004003F5008003F000D003EB002004E654
:10291000007004E100E004DC004005D700C005D2EF
:10292000004006CD00D006C8008007C3003008BEB6
:1029300000F008B900C009B400B00AAF00B00BAA9B
:1029400000D00CA500000EA000500F9B00C01096F8
:10295000005012910000148C00C0158700B017823F
:1029600000B0197D00D01B7800001E730040206E5F
:102970000090226900F024640040275F0090295AEB
:1029800000E02B5500102E500020304B0010324636
:1029900000E033410090353C00103737007038328A
:1029A00000A0392D00B03A2800A03B2300603C1E57
:1029B00000103D1900903D1400103E0F00703E0ABB
:1029C00000C03E0500003F0000403FFBFF803FF697
:1029D000FFC03FF1FF4F46460A004661646520484C
:1029E00065696768742000426564204C6576656C93
:1029F000696E6720004661696C656420746F2065AC
:102A00006E61626C6520426564204C6576656C6918
:102A10006E670A00496E76616C6964206D65736843
:102A20002E0A0050726F62696E6720506F696E7473
:102A30000025532025692F25690050726F62696E49
:102A400067206D65736820706F696E7420002028A0
:102A500044525952554E2900473239204175746FFE
:102A600020426564204C6576656C696E67003F2086
:102A7000284C2C522C462C4229206F7574206F66EE
:102A800020626F756E64732E0A00426164205A20C2
:102A900076616C75650A004E6F2062696C696E65BF
:102AA000617220677269640A0050726F62696E67B2
:102AB000204661696C656400205A3A200020593A2A
:102AC000200042656420583A200050726F62696E9F
:102AD00067204661696C65640A00486F6D65202552
:102AE000732573257320466972737400220A00559A
:102AF0006E6B6E6F776E20636F6D6D616E643A20E2
:102B0000220000002100240027002A002D003000B0
:102B1000330001010000040107010A010000220046
:102B2000250028002B002E00310034000201000097
:102B3000050108010B0100002000230026002900E8
:102B40002C002F00320000010000030106010901E2
:102B500005050505070508080808020202020A0A19
:102B60000808040404040101010101010101030337
:102B7000030303030303040707070C0C0C0C0C0CE2
:102B80000C0C0202020206060606060606060B0BDF
:102B90000B0B0B0B0B0B0102102020080810204020
:102BA0001020408002010201080402010102040811
:102BB000102040808040201008040201800402019F
:102BC00080402010080402010804020101020408E8
:102BD00010204080010204081020408000000A0BF1
:102BE00002090C0D0E08070304010000000000009C
:102BF00000000000000000000000000000000000D5
:102C00000000000000000000121110000000000091
:102C100000000000000000000000000000000000B4
:102C200000007061757365640053656E64204D31FA
:102C3000303820746F20726573756D650A00496EB7
:102C4000736572742066696C616D656E7420616E67
:102C5000642073656E64204D3130380A0052656817
:102C60006561742066696E69736865642E005265DB
:102C70006865617420446F6E6500526568656174B3
:102C8000696E672E2E2E00526568656174696E67E5
:102C900000526568656174004865617465725469C5
:102CA0006D656F75740053656E64204D313038204A
:102CB000746F2068656174206E6F7A7A6C650A00A3
:102CC0004E6F7A7A6C65205061726B656400486F54
:102CD00074656E6420746F6F20636F6C640A0062A9
:102CE0007574746F6E004C6F61642046696C616D21
:102CF000656E74004C6F61642046696C616D656E31
:102D000074205400726573756D6564005265737547
:102D10006D696E67006E6F74696669636174696F6F
:102D20006E200063616E63656C005072696E742082
:102D300041626F72746564004469736D69737300F6
:102D400055492041626F7274656400726573756DD8
:102D500065000000000000000000000000006F702F
:102D6000656E206661696C65642C2046696C653A05
:102D700020003F2856296572626F7365206C657666
:102D8000656C20696D706C61757369626C65202873
:102D9000302D34292E0A005374616E6461726420F0
:102DA000446576696174696F6E3A20002052616EE5
:102DB00067653A20004D65616E3A200046696E698C
:102DC00073686564210A002072616E67653A2000AD
:102DD000207369676D613A2000206D65616E3A204D
:102DE000003A207A3A2000206F662000476F696E13
:102DF0006720746F3A20580043570A0020646972B4
:102E00003A0020616E676C653A00537461727420F9
:102E10007261646975733A00506F736974696F6E9B
:102E2000696E67207468652070726F62652E2E2E41
:102E30000A003F4E756D626572206F66206C656793
:102E40007320696E206D6F76656D656E74206E6F90
:102E50007420706C61757369626C652028302D3147
:102E600035292E0A003F2028582C5929206F7574C7
:102E7000206F6620626F756E64732E0A003F536187
:102E80006D706C652073697A65206E6F7420706C4C
:102E900061757369626C652028342D3530292E0ADE
:102EA000004D3438205A2D50726F62652052657083
:102EB0006561746162696C69747920546573740A20
:102EC00000416363656C65726174696F6E3A20508E
:102ED000005072696E742050617573656400544DC2
:102EE000334420453520506C7573205265616479F8
:102EF0002E005072696E74696E672E2E2E004D0181
:102F0000690111241FBECFEFD1E2DEBFCDBF00E0CB
:102F10000CBF18E0A0E0B2E0E6EDF4E602E00BBF83
:102F200002C007900D92A834B107D9F72CE1A8E4AC
:102F3000B8E001C01D92AB3DB207E1F717E1C0E870
:102F4000D7E100E006C021970109802FFE010F9410
:102F5000942ECF37D10780E00807A9F70F94BF1B45
:102F60000D9459320C9400002F923F924F925F9231
:102F70006F927F928F929F92AF92BF92CF92DF9289
:102F8000EF92FF920F931F93CF93DF93CDB7DEB7EE
:102F9000A4970FB6F894DEBF0FBECDBF81E080933B
:102FA000F1121092F0121092EF128091F909882319
:102FB00029F00F94C70D882309F46AC610925F08A0
:102FC00080915F08853620F010925F081092F90911
:102FD000E091F9098E2FEE0F990BAA0BBB0BFC01A8
:102FE0003197E730F10508F0A2C08827EE58FF4F6F
:102FF0008F4F0D94942E0F94BF0D882309F497C022
:1030000081E08093250288EC93E00E94035180E1E7
:1030100090E09093FB148093FA1485E08093EE1473
:1030200072E8F72EF092F11484E190E1A0E0B0E0B4
:103030008093F2149093F314A093F414B093F514C6
:103040000F94B40E81E09AE59093FB148093FA14E8
:1030500086E390E09093FD148093FC1487E08093C6
:10306000EE14F092F11484E890E0A0E0B0E08093D8
:10307000F2149093F314A093F414B093F5140F94F6
:10308000B40E53C00F94BF0D882309F450C049C03B
:1030900086ED93E00E94035181E09AE59093FB1442
:1030A0008093FA1480E490E09093FD148093FC14D4
:1030B00067E0F62EF092EE1482E88093F11484E833
:1030C00090E0A0E0B0E08093F2149093F314A0930A
:1030D000F414B093F5140F94B40EF092F90927C0CC
:1030E00080915E08882319F10F94BF0D8823F9F0B1
:1030F0000F94C70D81111BC0D1C50F94BF0D88233C
:10310000B1F00F94C70D811112C0F6C50F94C70D11
:1031100081110DC042E060E070E0CB010F94DD0D45
:1031200004C00F94C70D811102C01092F90980915B
:103130002502882309F4DCC480919C11811123C1EC
:1031400084E096E09093FB148093FA1480EA90E870
:103150009093FD148093FC1447E0F42EF092EE144B
:1031600052E8E52EE092F11480EA90E0A0E0B0E0B1
:103170008093F2149093F314A093F414B093F51485
:103180000F94B40E8091050290910602A09107025F
:10319000B09108020097A105B10519F51092FB1432
:1031A0001092FA1435E0F32EF092EE14E092F1143E
:1031B0008AE890E1A0E0B0E08093F2149093F314D9
:1031C000A093F414B093F5140F94B40E89E090E03A
:1031D0009093FB148093FA14F092EE14E092F114A1
:1031E00041C00196A11DB11D25E0B695A795979503
:1031F00087952A95D1F70197A109B109009721E098
:10320000A207B10558F0B093FB14A093FA14909361
:10321000FD148093FC14F092EE1407C09093FB14FD
:103220008093FA1485E08093EE1492E8F92EF092E0
:10323000F1148AE890E1A0E0B0E08093F21490935A
:10324000F314A093F414B093F5140F94B40E88E023
:1032500090E09093FB148093FA1485E08093EE1431
:10326000F092F1148CE890E1A0E0B0E08093F214C9
:103270009093F314A093F414B093F5140F94B40E38
:10328000C0900502D0900602E0900702F09008027C
:10329000C114D10431E0E306F10450F0F092FB14C4
:1032A000E092FA14D092FD14C092FC1487E005C09D
:1032B000D092FB14C092FA1485E08093EE1482E859
:1032C0008093F11488E890E1A0E0B0E08093F214DC
:1032D0009093F314A093F414B093F5140F94B40ED8
:1032E000FE2CED2CDC2CCC24C114D10481E0E806AA
:1032F000F10450F0F092FB14E092FA14D092FD1415
:10330000C092FC1487E005C0D092FB14C092FA145E
:1033100085E08093EE14B2E8FB2EF092F11481EA7E
:1033200090E0A0E0B0E08093F2149093F314A093A7
:10333000F414B093F5140F94B40E809135178823CC
:1033400019F083E090E002C082E090E09093FB14DB
:103350008093FA1485E08093EE14F092F11485E4E2
:1033600090E1A0E0B0E08093F2149093F314A09366
:10337000F414B093F5140F94B40E80919C11875EF1
:1033800080939C1123C08A3F08F58EEF80939C1197
:1033900084EE93E00E94035181E08093250281E056
:1033A0009AE59093FB148093FA148DE290E0909349
:1033B000FD148093FC1487E08093EE1482E88093E0
:1033C000F11484E890E0A0E0B0E03DC420919C11AD
:1033D000822F90E0253678F49093FB148093FA14B2
:1033E00085E08093EE1482E88093F11480E090E110
:1033F000A0E0B0E010C0845691099093FB14809334
:10340000FA1485E08093EE1482E88093F11481E051
:1034100090E1A0E0B0E08093F2149093F314A093B5
:10342000F414B093F5140F94B40E80914C14909151
:103430004D14891B877009F0D7C40E949A4D8111E1
:10344000D3C48091681582FDCFC480C484E690E027
:103450009093FB148093FA14E092EE14F092F1141E
:103460008EE090E1A0E0B0E08093F2149093F3142A
:10347000A093F414B093F5140F94B40E92E3C91A08
:1034800090E8D90ACC0CDD1CD092FB14C092FA143F
:10349000E092EE14F092F1148FE090E1A0E0B0E041
:1034A0008093F2149093F314A093F414B093F51452
:1034B0000F94B40E0F94A60B90E09093FB1480939E
:1034C000FA1485E08093EE1482E88093F11486E18B
:1034D00090E1A0E0B0E08093F2149093F314A093F5
:1034E000F414B093F5140F94B40E20E030E048ECDF
:1034F00052E46091C11C7091C21C8091C31C9091D8
:10350000C41C0F9421280F9409307093FB1460930E
:10351000FA1455E0E52EE092EE1462E8F62EF092F1
:10352000F11486E290E1A0E0B0E08093F214909371
:10353000F314A093F414B093F5140F94B40E20E098
:1035400030E0A90160910613709107138091081370
:10355000909109130F949D2E0F9409307093FB14D2
:103560006093FA14E092EE14F092F11486E390E185
:10357000A0E0B0E08093F2149093F314A093F414BD
:10358000B093F5140F94B40E6091590E70915A0EC9
:1035900080915B0E90915C0E0F9409307093FB1438
:1035A0006093FA14E092EE14F092F1148CE390E13F
:1035B000A0E0B0E08093F2149093F314A093F4147D
:1035C000B093F5140F94B40E80910A1390910B13DD
:1035D0009093FB148093FA14E092EE14F092F1149D
:1035E00084E390E1A0E0B0E08093F2149093F314B0
:1035F000A093F414B093F5140F94B40E80915D0E63
:1036000090915E0E9093FB148093FA14E092EE1466
:10361000F092F1148AE390E1A0E0B0E08093F2141C
:103620009093F314A093F414B093F5140F94B40E84
:1036300080911702909118029093FB148093FA14D2
:10364000E092EE14F092F11480E093E1A0E0B0E09B
:103650008093F2149093F314A093F414B093F514A0
:103660000F94B40E20E030E040E251E46091E80DA8
:103670007091E90D8091EA0D9091EB0D0F94212846
:103680000F9410307093FB146093FA14E092EE14D0
:10369000F092F11482E492E1A0E0B0E08093F214A1
:1036A0009093F314A093F414B093F5140F94B40E04
:1036B00020E030E040E251E46091EC0D7091ED0DBE
:1036C0008091EE0D9091EF0D0F9421280F94103002
:1036D0007093FB146093FA14E092EE14F092F114DC
:1036E00086E492E1A0E0B0E08093F2149093F314AA
:1036F000A093F414B093F5140F94B40E20E030E0CE
:1037000040E251E46091F00D7091F10D8091F20D65
:103710009091F30D0F9421280F9410307093FB14A7
:103720006093FA14E092EE14F092F1148AE492E1BC
:10373000A0E0B0E08093F2149093F314A093F414FB
:10374000B093F5140F94B40E20E030E040E251E461
:103750006091F40D7091F50D8091F60D9091F70D3B
:103760000F9421280F9410307093FB146093FA1477
:10377000E092EE14F092F1148EE492E1A0E0B0E059
:103780008093F2149093F314A093F414B093F5146F
:103790000F94B40E20E030E048EC52E46091B91C84
:1037A0007091BA1C8091BB1C9091BC1C0F94212875
:1037B0000F9409307093FB146093FA14E092EE14A6
:1037C000F092F11486E392E1A0E0B0E08093F2146D
:1037D0009093F314A093F414B093F5140F94B40ED3
:1037E00020E030E048EC52E46091BD1C7091BE1CBA
:1037F0008091BF1C9091C01C0F9421280F94093018
:103800007093FB146093FA14E092EE14F092F114AA
:103810008AE392E1A0E0B0E08093F2149093F31475
:10382000A093F414B093F5140F94B40E20E030E09C
:1038300048EC52E46091C11C7091C21C8091C31C81
:103840009091C41C0F9421280F9409307093FB149D
:103850006093FA14E092EE14F092F1148EE392E188
:10386000A0E0B0E08093F2149093F314A093F414CA
:10387000B093F5140F94B40E80910302909104025A
:103880009093FB148093FA14E092EE14F092F114EA
:1038900082E592E1A0E0B0E08093F2149093F314FB
:1038A000A093F414B093F5140F94B40E8091010218
:1038B000909102029093FB148093FA14E092EE141C
:1038C000F092F11484E592E1A0E0B0E08093F2146C
:1038D0009093F314A093F414B093F5140F94B40ED2
:1038E00020E030E040E251E460910D1370910E133E
:1038F00080910F13909110130F9421280F94103082
:103900007093FB146093FA14E092EE14F092F114A9
:1039100086E592E1A0E0B0E08093F2149093F31476
:10392000A093F414B093F5140F94B40E2CEA35EC74
:1039300047E25EE3609111137091121380911313AB
:10394000909114130F94972F20E030E040E251E45F
:103950000F9421280F9410307093FB146093FA1485
:10396000E092EE14F092F1148AE592E1A0E0B0E06A
:103970008093F2149093F314A093F414B093F5147D
:103980000F94B40E2CEA35EC47E25EE36091151318
:103990007091161380911713909118130F9421288A
:1039A00020E030E040E251E40F9421280F941030E1
:1039B0007093FB146093FA14E092EE14F092F114F9
:1039C0008EE592E1A0E0B0E08093F2149093F314BE
:1039D000A093F414B093F5140F94B40E20E030E0EB
:1039E00040E251E46091600E7091610E8091620E30
:1039F0009091630E0F9421280F9410307093FB1454
:103A00006093FA14E092EE14F092F11482E692E1DF
:103A1000A0E0B0E08093F2149093F314A093F41418
:103A2000B093F5140F94B40E2CEA35EC47E25EE344
:103A30006091640E7091650E8091660E9091670E94
:103A40000F94972F20E030E040E251E40F942128BA
:103A50000F9410307093FB146093FA14E092EE14FC
:103A6000F092F11486E692E1A0E0B0E08093F214C7
:103A70009093F314A093F414B093F5140F94B40E30
:103A80002CEA35EC47E25EE36091680E7091690EB6
:103A900080916A0E90916B0E0F94212820E030E007
:103AA00040E251E40F9421280F9410307093FB14DE
:103AB0006093FA14E092EE14F092F1148AE692E127
:103AC000A0E0B0E08093F2149093F314A093F41468
:103AD000B093F5140F94B40EB0905908B11025C2EC
:103AE00080915B08811121C280915E088111E2C240
:103AF0009EE3C92E95E1D92E2AE1B22E89E193E108
:103B00000E9494C9E0904E08F0904F0818161906CC
:103B100034F4BAE1EB16F10414F40C944B321E1495
:103B20001F0494F490919F1480913E15981709F406
:103B3000A7C38AE1EEE3F5E1DF011D928A95E9F77B
:103B400010924F0810924E088091A2149091A314E5
:103B5000A091A414B091A5148C34E0E19E07A105B6
:103B6000B10509F47AC08A349041A105B10509F480
:103B700074C020E030E040E251E460918002709136
:103B8000810280918202909183020F9421280F94E8
:103B900009307093FB146093FA1405E00093EE145F
:103BA00012E81093F11488E490E1A0E0B0E0809373
:103BB000F2149093F314A093F414B093F5140F94AB
:103BC000B40E20E030E040E251E460918402709154
:103BD000850280918602909187020F9421280F948C
:103BE00009307093FB146093FA140093EE14109351
:103BF000F1148AE490E1A0E0B0E08093F214909395
:103C0000F314A093F414B093F5140F94B40E20E0C1
:103C100030E040E251E46091880270918902809125
:103C20008A0290918B020F9421280F94093070938F
:103C3000FB146093FA140093EE141093F1148CE4C7
:103C400090E1A0E0B0E08093F2149093F314A0937D
:103C5000F414B093F5140F94B40E1092F112A496CC
:103C60000FB6F894DEBF0FBECDBFDF91CF911F918D
:103C70000F91FF90EF90DF90CF90BF90AF909F900B
:103C80008F907F906F905F904F903F902F9008950E
:103C900080915F088F5F80935F0892C987E096E00C
:103CA0000E94035180915D0890E0A0E0B0E0895B44
:103CB0009F4FAE4FB54A21E03AE53093FB14209375
:103CC000FA149093FD148093FC1487E08093EE1413
:103CD00082E88093F11484E890E0A0E0B0E0809363
:103CE000F2149093F314A093F414B093F5140F947A
:103CF000B40E10925E0819CA81E0809325021092DA
:103D0000F90985E196E00E94035181E09AE59093DC
:103D1000FB148093FA148EE490E09093FD1480934A
:103D2000FC1487E08093EE1482E88093F11484E819
:103D300090E0A0E0B0E08093F2149093F314A0938D
:103D4000F414B093F5140F94B40EF1C98090590E89
:103D500090905A0EA0905B0EB0905C0E60915D0E3C
:103D600070915E0E072E000C880B990B0F94C227E2
:103D70002B013C0120E030E040E050E40F949C2E09
:103D8000A50194010F94FD3018160CF4D9C120E060
:103D900030E0A90160910613709107138091081318
:103DA000909109130F949D2E69A37AA38BA39CA3D2
:103DB00060910A1370910B13072E000C880B990B5E
:103DC0000F94C2276B017C0120E030E040E251E417
:103DD0000F949C2E29A13AA14BA15CA10F94FD3018
:103DE00018160CF4ADC18DC18CE090E09093FB14DB
:103DF0008093FA1495E0F92EF092EE1482E8809305
:103E0000F11484E190E1A0E0B0E08093F21490938B
:103E1000F314A093F414B093F5140F94B40E0F940C
:103E2000CA0920E13EE040E050E00F94112E211538
:103E3000310581E04807510560F05093FB14409331
:103E4000FA143093FD142093FC1487E08093EE1451
:103E500006C03093FB142093FA14F092EE14F2E8AB
:103E6000FF2EF092F11480E190E1A0E0B0E08093A9
:103E7000F2149093F314A093F414B093F5140F94E8
:103E8000B40E0F94CA0920E13EE040E050E00F94E8
:103E9000112E2CE330E040E050E00F94112E3093CF
:103EA000FB142093FA14A5E0EA2EE092EE14F092AF
:103EB000F11482E190E1A0E0B0E08093F2149093DD
:103EC000F314A093F414B093F5140F94B40E0F945C
:103ED000A60B882379F08F5F80935C08C82ED12CC5
:103EE000833308F0B3CACC0CDD1CD092FB14C09213
:103EF000FA1404C01092FB141092FA14E092EE141B
:103F0000F092F1148EE090E1A0E0B0E08093F21422
:103F10009093F314A093F414B093F5140F94B40E8B
:103F20001092FB141092FA14B3CA20E030E0A901F9
:103F300060910613709107138091081390910913F3
:103F40000F949D2E20E030E048EC52E40F9421289D
:103F50006B017C0160910A1370910B13072E000C0A
:103F6000880B990B0F94C2279B01AC01C701B601C6
:103F70000F94972F0F9410306436710510F064E69B
:103F800070E07093FB146093FA1435E0932E9092D6
:103F9000EE1442E8A42EA092F11484E290E1A0E095
:103FA000B0E08093F2149093F314A093F414B093C0
:103FB000F5140F94B40E20E030E0A90160910613CF
:103FC0007091071380910813909109130F949D2EFF
:103FD0006B017C0120E030E04AE253E40F94FD30B5
:103FE00018160CF0EFC0BB2009F4ECC01092590871
:103FF00020E030E040E251E46091510870915208B5
:1040000080915308909154080F9421280F940930FF
:104010007093FB146093FA149092EE14A092F11432
:1040200084E590E1A0E0B0E08093F2149093F31463
:10403000A093F414B093F5140F94B40E20E030E084
:1040400040E251E4609155087091560880915708FC
:10405000909158080F9421280F9409307093FB1405
:104060006093FA149092EE14A092F11488E590E116
:10407000A0E0B0E08093F2149093F314A093F414B2
:10408000B093F5140F94B40E83E296E00E940351AE
:1040900081E09AE59093FB148093FA1481E490E018
:1040A0009093FD148093FC1487E08093EE14A0920B
:1040B000F114D7C080915008FF24F394F80EF092C9
:1040C000500890E09093FB148093FA1485E080935D
:1040D000EE1482E88093F11482E490E1A0E0B0E075
:1040E0008093F2149093F314A093F414B093F51406
:1040F0000F94B40EA9E0AF1508F0FACC1092500856
:10410000F7CC20E030E040E050E4C301B2010F946E
:104110009D2EA50194010F94BB2787FD31C020E09F
:1041200030E040E251E4C701B6010F949D2E29A171
:104130003AA14BA15CA10F94BB2787FD21C0D5C933
:104140008DE090E09093FB148093FA1485E08093C7
:10415000EE1482E88093F11484E190E1A0E0B0E0F5
:104160008093F2149093F314A093F414B093F51485
:104170000F94B40E8091F809811121C081E01FC015
:1041800084E190E09093FB148093FA1485E080938F
:10419000EE1482E88093F11484E190E1A0E0B0E0B5
:1041A0008093F2149093F314A093F414B093F51445
:1041B0000F94B40E8091F809811101C082E08093C0
:1041C000F80993C960910A1370910B13072E000C24
:1041D000880B990B0F94C2279B01AC01C701B60154
:1041E0000F94FD3087FD80CC60915B08662309F455
:1041F0007BCC062E000C770B84E696E00E94C1E093
:104200008AE00E94F84F10925B0884E090E090935F
:10421000FB148093FA1485E08093EE1482E8F82E64
:10422000F092F1148EE890E1A0E0B0E08093F214F7
:104230009093F314A093F414B093F5140F94B40E68
:1042400081E09AE59093FB148093FA1483E590E063
:104250009093FD148093FC1487E08093EE14F09209
:10426000F11484E890E0A0E0B0E08093F214909321
:10427000F314A093F414B093F5140F94B40E34CC4B
:104280009091A01480913F15981353CC83E0E816C9
:10429000F1040CF44ECC9091401590939E148091B3
:1042A00041158093A114933079F4982F9D7F903815
:1042B00059F4909142159F3409F055C090914315DF
:1042C0009B3409F050C035CC833809F04CC0809144
:1042D000421590914315982789279827A0E0B0E0D0
:1042E0008093A2149093A314A093A414B093A51444
:1042F0004091441550E060E070E04093A614509364
:10430000A7146093A8147093A91485E4A82E85E1DE
:10431000B82E80E090E0DC0184179507A607B70768
:1043200008F04FC06C017D01F694E794D794C794D0
:1043300096012A5F3F4FF901EE0FFF1F9F012256A2
:104340003B4E7901F501208130E0322F2227D180C8
:104350002D29F701318320830296A11DB11DF2E0C2
:10436000AF0EB11CD9CF813861F58091421590E034
:10437000A0E0B0E08093A2149093A314A093A4149F
:10438000B093A51480914315482F50E060E070E091
:104390004093A6145093A7146093A8147093A91483
:1043A000A4E4B5E1EAEAF4E190E020E030E0281787
:1043B000390739F04D9150E0419351932F5F3F4FB2
:1043C000F6CF8AE1EEE3F5E1DF011D928A95E9F788
:1043D00010924F0810924E0885EF93E00E9403510F
:1043E0006091F909161664F4062E000C770B89E526
:1043F00096E00E94C1E08AE00E94F84F0C943C32A3
:104400006091AA147091AB1487E496E00E94A3E037
:104410008AE00E94F84F4091A2145091A314609139
:10442000A4147091A51488E396E00E9492E08AE0BB
:104430000E94F84F8091A2149091A314A091A4140B
:10444000B091A514E4E9F2E0E12CF12C41915191F5
:1044500061917191411551056105710509F442C0E1
:10446000481759076A077B07C9F5AC01BD01477FAB
:104470004233504161057105C9F18433F0E19F0772
:10448000A105B10599F1811523E19207A105B105B7
:1044900069F1AC01BD0148505041610971094530D5
:1044A00051056105710530F1AC01BD014654504123
:1044B000610971094730510561057105F8F0AC01DA
:1044C000BD014455504161097109453051056105EF
:1044D0007105B8F462E1E62EF12C13C03FEFE31A48
:1044E000F30AB4CFEE24EA94FE2C0BC0F8E0EF2ED2
:1044F000F12C07C0E3E0EE2EF12C03C07FE0E72EA5
:10450000F12C8235E2E19E07A105B10509F467C0EF
:1045100090F5823422E19207A105B10509F45FC04C
:10452000B0F48A33E2E19E07A105B10509F457C052
:104530008E33F2E19F07A105B10509F450C086331F
:1045400022E19207A105B10509F04CC048C08A34A8
:1045500032E19307A105B10509F441C08E34E2E1CF
:104560009E07A105B105D9F18634F2E19F07A105A7
:10457000B105C1F534C08E3522E19207A105B10520
:1045800071F198F48635E2E19E07A105B10539F194
:104590008A35F2E19F07A105B10509F1843522E1D1
:1045A0009207A105B105F1F41AC0863632E19307EE
:1045B000A105B105A1F038F48236F2E19F07A1050B
:1045C000B10581F40CC08A3622E19207A105B1053C
:1045D00031F0811533E19307A105B10519F458E0D5
:1045E000E52EF12C8A509042A109B109833D910535
:1045F000A105B10530F08FEFE816F80629F40C9408
:104600003C3249E1E42EF12C86E194E00E94035112
:10461000B7010F2C000C880B990B0E946C500E9464
:10462000FD508CE296E00E940351BAE1EB16F104D2
:1046300010F00C943832F7018827E758FF4F8F4F5E
:104640000D94942E8091AA149091AB148130910511
:10465000B1F4109225028FEF8093451960E080E05D
:104660000F94291784E294E00E94035181E09AE5B7
:104670009093FB148093FA148EE290E0D9C08230BC
:10468000910509F0BEC081E0809325020F941E0CB5
:1046900088E296E09093750F8093740F8BE090E022
:1046A0009093FB148093FA1405E00093EE1412E843
:1046B0001093F11480E092E1A0E0B0E08093F21456
:1046C0009093F314A093F414B093F5140F94B40ED4
:1046D0001092FB141092FA140093EE141093F1143C
:1046E0008EE090E1A0E0B0E08093F2149093F31498
:1046F000A093F414B093F5140F94B40E1092FB141D
:104700001092FA140093EE141093F1148FE090E1DC
:10471000A0E0B0E08093F2149093F314A093F4140B
:10472000B093F5140F94B40E1092FB141092FA1477
:104730000093EE141093F11486E190E1A0E0B0E054
:104740008093F2149093F314A093F414B093F5149F
:104750000F94B40E62E070E080E090E00F94940E4D
:104760001092FB141092FA140093EE141093F114AB
:1047700080E190E1A0E0B0E08093F2149093F31414
:10478000A093F414B093F5140F94B40E1092FB148C
:104790001092FA140093EE141093F11482E190E158
:1047A000A0E0B0E08093F2149093F314A093F4147B
:1047B000B093F5140F94B40E8CE494E00E9403516E
:1047C00081E09AE59093FB148093FA148DE290E0D7
:1047D0009093FD148093FC1487E08093EE14109363
:1047E000F11484E890E0A0E0B0E08093F21490939C
:1047F000F314A093F414B093F5140F94B40E0C9426
:104800003C3283309105F9F481E08093250284E7FE
:1048100094E00E94035180910002882309F44BC365
:1048200081E09AE59093FB148093FA148AE390E078
:104830009093FD148093FC1487E08093EE1482E83B
:104840008093F114CECF049711F00C943C32109267
:1048500025020C943C328091AA149091AB148130C3
:104860009105D1F41092250280910002882319F05D
:1048700082E090E002C083E090E09093FB1480938C
:10488000FA1485E08093EE1482E88093F1148EE1AF
:1048900090E1A0E0B0E0A9CF82309105E9F48CE985
:1048A00094E00E94035181E0809325028091F809F1
:1048B000843049F081E09AE59093FB148093FA14D8
:1048C00085E390E0B5CF81E09AE59093FB14809367
:1048D000FA1486E390E0ACCF8330910509F04CC028
:1048E00020910002222319F19093FB148093FA1473
:1048F00085E08093EE1482E88093F1148EE190E1DC
:10490000A0E0B0E08093F2149093F314A093F41419
:10491000B093F5140F94B40E40E060E070E088ECC2
:1049200092E40F94750C109200020C943C3282E0D9
:1049300090E09093FB148093FA1485E08093EE143A
:1049400082E88093F1148EE190E1A0E0B0E08093E2
:10495000F2149093F314A093F414B093F5140F94FD
:10496000B40E40E060E070E0CB010F94750C81E084
:10497000809300020C943C32049711F00C943C326A
:1049800080914C088823F1F082E090E09093FB1432
:104990008093FA1485E08093EE1482E88093F114FA
:1049A0008FE190E1A0E0B0E08093F2149093F314D3
:1049B000A093F414B093F5140F94B40E10924C0815
:1049C0000C943C3283E090E09093FB148093FA14B3
:1049D00085E08093EE1482E88093F1148FE190E1FA
:1049E000A0E0B0E08093F2149093F314A093F41439
:1049F000B093F5140F94B40E81E080934C080C949E
:104A00003C320091AA141091AB14B80180E090E000
:104A10000F94C0276B017C0120E030E040E251E4BC
:104A20000F94BB2787FD0DC020E030E04AEF53E430
:104A3000C701B6010F94FD30181634F0902F812F66
:104A400005C09AE080E002C094EF81E090934302B9
:104A5000809344020C943C328091A2149091A31450
:104A6000A091A414B091A5148830E0E19E07A1059F
:104A7000B10509F092C081EC94E00E94035180914D
:104A8000AA149091AB14803F910561F581E09AE5FD
:104A90009093FB148093FA1485E390E09093FD14B7
:104AA0008093FC1487E08093EE1482E88093F114E5
:104AB00084E890E0A0E0B0E08093F2149093F314C7
:104AC000A093F414B093F5140F94B40E6091AA144B
:104AD0007091AB1480E296E00E94A3E08AE00E940D
:104AE000F84FEAC081E09AE59093FB148093FA14A2
:104AF0008DE290E09093FD148093FC1487E0809306
:104B0000EE1412E81093F11484E890E0A0E0B0E015
:104B10008093F2149093F314A093F414B093F514CB
:104B20000F94B40E1092FB141092FA1405E0009347
:104B3000EE141093F11480E190E1A0E0B0E08093D6
:104B4000F2149093F314A093F414B093F5140F940B
:104B5000B40E1092FB141092FA140093EE141093FA
:104B6000F11482E190E1A0E0B0E08093F214909320
:104B7000F314A093F414B093F5140F94B40E609151
:104B8000AA147091AB1481E196E00E94A3E08AE040
:104B90000E94F84F0F941E0C8FC08A30F0E19F07DF
:104BA000A105B105E1F58091AA149091AB14813F64
:104BB000910511F00C943C3281E09AE59093FB143E
:104BC0008093FA1486E390E09093FD148093FC1494
:104BD00087E08093EE1482E88093F11484E890E0FB
:104BE000A0E0B0E08093F2149093F314A093F41437
:104BF000B093F5140F94B40E45ED54E06CED74E0F1
:104C000084E00F94B41160E081ED9EE20F94D40B28
:104C10008BEC94E09093750F8093740F4DC08C30A3
:104C20009041A105B10509F047C08091AA14909167
:104C3000AB14019709F040C00F942C211092F80991
:104C400081E0809325028CE090E09093FB148093A8
:104C5000FA1485E08093EE1412E81093F11484E1C5
:104C600090E1A0E0B0E08093F2149093F314A0934D
:104C7000F414B093F5140F94B40E81E09AE5909378
:104C8000FB148093FA1485E390E09093FD148093D5
:104C9000FC1487E08093EE141093F11484E890E004
:104CA000A0E0B0E08093F2149093F314A093F41476
:104CB000B093F5140F94B40E8091A2149091A314A4
:104CC000A091A414B091A5148C309041A105B10518
:104CD00011F00C943C328091AA149091AB1402977D
:104CE00011F00C943C320F942C2181E080935B08EE
:104CF0001092F8098093250281E09AE59093FB14C5
:104D00008093FA1482E590E093CD2091AA1430911B
:104D1000AB14B90180E090E037FF09C00F94C027C1
:104D200020E030E040E857E40F949C2E02C00F943E
:104D3000C02720E030E048EC52E40F94972F6B013D
:104D40007C0120E030E040E151EC0F94FD3087FD24
:104D50002DC020E030E040E151E4C701B6010F94DE
:104D6000BB2718161CF1A70196016091C11C709118
:104D7000C21C8091C31C9091C41C0F949C2E209146
:104D8000F00D3091F10D4091F20D5091F30D0F9413
:104D9000212890580F940930CB010F94CA1682E154
:104DA00095E09093750F8093740F28C020E030E059
:104DB00048EC52E46091C11C7091C21C8091C31CEC
:104DC0009091C41C0F9421280F9409307093FB1408
:104DD0006093FA1485E08093EE1482E88093F114D6
:104DE00086E290E1A0E0B0E08093F2149093F31497
:104DF000A093F414B093F5140F94B40E6091C11CF9
:104E00007091C21C8091C31C9091C41C8E010B5EDA
:104E10001F4F23E041E00F948C229F938F9383E0F8
:104E200096E09F938F93045111091F930F930F9452
:104E30005327C8010E9460670F900F900F900F904A
:104E40000F900F900C943C328091AA149091AB1467
:104E5000009729F481E0809325020C943C32813044
:104E60009105B1F480910002882349F081E09AE530
:104E70009093FB148093FA148CE390E0D9CC81E0FA
:104E80009AE59093FB148093FA148BE390E0D0CCD6
:104E900082309105F9F283309105F9F48091000296
:104EA00040E0882389F060E070E088EC92E40F94A1
:104EB000750C1092000281E09AE59093FB148093A8
:104EC000FA1489E390E0B4CC60E070E0CB010F9479
:104ED000750C81E080930002A3CC8530910559F5D3
:104EE00040E060E070E084E393E40F94520D46E00C
:104EF00060E070E08CE892E40F94520D84EB90E057
:104F00009093FB148093FA1405E00093EE1412E8DA
:104F10001093F11484E390E1A0E0B0E08093F214E8
:104F20009093F314A093F414B093F5140F94B40E6B
:104F300086E490E02DC08630910599F540E060E070
:104F400070E080E793E40F94520D46E060E070E07B
:104F50008CED92E40F94520D80EF90E09093FB144F
:104F60008093FA1405E00093EE1412E81093F11404
:104F700084E390E1A0E0B0E08093F2149093F31406
:104F8000A093F414B093F5140F94B40E8EE690E051
:104F90009093FB148093FA140093EE141093F11481
:104FA000DBC0813F910511F00C943C3240E060E0A1
:104FB00070E0CB010F94750C41E060E070E0CB0134
:104FC0000F94750C1092000240E060E070E0CB019D
:104FD0000F94520D46E060E070E0CB010F94520D4B
:104FE0001092FB141092FA1405E00093EE1412E8EC
:104FF0001093F11484E390E1A0E0B0E08093F21408
:105000009093F314A093F414B093F5140F94B40E8A
:1050100061E070E080E090E00F94940E1092FB1439
:105020001092FA140093EE141093F1148AE390E1B5
:10503000A0E0B0E08093F2149093F314A093F414E2
:10504000B093F5140F94B40E61E070E080E090E04E
:105050000F94940E84E190E09093FB148093FA14E3
:105060000093EE141093F11484E190E1A0E0B0E01D
:105070008093F2149093F314A093F414B093F51466
:105080000F94B40E81E09AE59093FB148093FA1488
:1050900089E390E09093FD148093FC1487E0809363
:1050A000EE141093F11484E890E0A0E0B0E0809357
:1050B000F2149093F314A093F414B093F5140F9496
:1050C000B40E82E00C9435328BEC94E00E940351D4
:1050D000C090A214D090A314E090A414F090A51452
:1050E0002091AA143091AB1482E3C81680E1D8064F
:1050F000E104F104B1F52115310509F48CCB21301F
:105100003105A9F440E060E070E0CB010F94520D4E
:105110001092FB141092FA1485E08093EE1482E84A
:105120008093F11484E390E1A0E0B0E05ECB223004
:10513000310511F00C943C3246E060E070E0CB01A8
:105140000F94520D1092FB141092FA1485E0809384
:10515000EE1482E88093F1148AE390E1A0E0B0E0DD
:1051600044CB94E3C91690E1D906E104F10439F483
:10517000B90180E090E00F94C02740E00DC0AAE3A1
:10518000CA16A0E1DA06E104F10451F4B90180E0A5
:1051900090E00F94C02746E00F94520D0C943C32DF
:1051A000C114B3E1DB06E104F10421F530931802E8
:1051B00020931702B901330F880B990B0F94C22764
:1051C0002AE037ED43E25CE30F9421282091EF09B8
:1051D0003091F0094091F1095091F2090F94212882
:1051E0006093490270934A0280934B0290934C0261
:1051F0000C943C32E2E5CE16E2E1DE06E104F10475
:1052000031F430930402209303020C943C32F4E511
:10521000CF16F2E1DF06E104F10431F4309302022B
:10522000209301020C943C32B90180E090E037FFFA
:1052300009C00F94C02720E030E040E857E40F9405
:105240009C2E02C00F94C02720E030E048EC52E4CE
:105250000F94972F4B015C0122E4C21622E1D20683
:10526000E104F10481F420E030E040E251E40F94E5
:1052700021286093E80D7093E90D8093EA0D9093D7
:10528000EB0D0C943C3236E4C31632E1D306E10454
:10529000F10481F420E030E040E251E40F94212851
:1052A0006093EC0D7093ED0D8093EE0D9093EF0DE8
:1052B0000C943C328AE4C81682E1D806E104F10479
:1052C00091F420E030E040E251E4C501B4010F94D4
:1052D00021286093F00D7093F10D8093F20D90935F
:1052E000F30D0C943C329EE4C91692E1D906E10418
:1052F000F10491F420E030E040E251E4C501B40152
:105300000F9421286093F40D7093F50D8093F60DA2
:105310009093F70D0C943C32A6E3CA16A2E1DA068C
:10532000E104F10451F48092B91C9092BA1CA0924D
:10533000BB1CB092BC1C0C943C32BAE3CB16B2E15D
:10534000DB06E104F10451F48092BD1C9092BE1C76
:10535000A092BF1CB092C01C0C943C32EEE3CE165F
:10536000E2E1DE06E104F10451F48092C11C909266
:10537000C21CA092C31CB092C41C0C943C32F6E533
:10538000CF16F2E1DF06E104F104B9F52CEA35ECC1
:1053900047E25EE360911513709116138091171325
:1053A000909118130F9421286B017C012CEA35ECA5
:1053B00047E25EE360911113709112138091131311
:1053C000909114130F94972F2B013C0120E030E0B3
:1053D00040E251E4C501B4010F94212860930D13FC
:1053E00070930E1380930F13909310132CEA35ECE7
:1053F00047E25EE3C301B20123C02AE5C21622E1FF
:10540000D206E104F104C1F52CEA35EC47E25EE393
:1054100060911513709116138091171390911813C2
:105420000F9421286B017C0120E030E040E251E440
:10543000C501B4010F9421282CEA35EC47E25EE364
:105440000F942128609311137093121380931313F8
:10545000909314132CEA35EC47E25EE3C701B601E2
:105460000F94972F6093151370931613809317134F
:10547000909318130C943C323EE5C31632E1D306E8
:10548000E104F10449F52CEA35EC47E25EE3609172
:1054900011137091121380911313909114130F94A0
:1054A000972F2CEA35EC47E25EE30F9421286093B6
:1054B000111370931213809313139093141320E01D
:1054C00030E040E251E4C501B4010F9421282CEAF8
:1054D00035EC47E25EE3C4CF82E6C81682E1D80627
:1054E000E104F104B9F52CEA35EC47E25EE36091A2
:1054F000680E7091690E80916A0E90916B0E0F94F8
:1055000021286B017C012CEA35EC47E25EE36091D7
:10551000640E7091650E8091660E9091670E0F94E7
:10552000972F2B013C0120E030E040E251E4C5011F
:10553000B4010F9421286093600E7093610E8093E4
:10554000620E9093630E2CEA35EC47E25EE3C301F2
:10555000B20123C096E6C91692E1D906E104F1042E
:1055600069F52CEA35EC47E25EE36091680E7091D4
:10557000690E80916A0E90916B0E0F9421286B0139
:105580007C0120E030E040E251E4C501B4010F9419
:1055900021282CEA35EC47E25EE30F942128609342
:1055A000640E7093650E8093660E9093670E2CEADE
:1055B00035EC47E25EE3C701B60130C0AAE6CA1681
:1055C000A2E1DA06E104F10409F056C72CEA35EC51
:1055D00047E25EE36091640E7091650E8091660E05
:1055E0009091670E0F94972F2CEA35EC47E25EE31B
:1055F0000F9421286093640E7093650E8093660E5D
:105600009093670E20E030E040E251E4C501B40120
:105610000F9421282CEA35EC47E25EE30F94972F94
:105620006093680E7093690E80936A0E90936B0E70
:1056300023C78091AA149091AB14009709F40ACC67
:105640008130910509F04CC080913517882319F0FD
:1056500083E090E002C082E090E09093FB1480939E
:10566000FA1485E08093EE1482E88093F11485E4C7
:1056700090E1A0E0B0E08093F2149093F314A09333
:10568000F414B093F5140F94B40E8AE090E0909364
:10569000FB148093FA1485E08093EE1482E88093E3
:1056A000F11480E092E1A0E0B0E08093F2149093D6
:1056B000F314A093F414B093F5140F94B40E0F9454
:1056C000BF0D811103C083EF95E002C087EF95E025
:1056D0009093750F8093740F82E08093F9090BC14A
:1056E0008230910509F0ADC081E08093250288E009
:1056F000E1E5F8E0DF011D928A95E9F780E090E0AE
:10570000A0E2B1E48093510890935208A09353080B
:10571000B09354088093550890935608A093570867
:10572000B093580884E690E09093FB148093FA14A9
:1057300005E00093EE1412E81093F11484E590E173
:10574000A0E0B0E08093F2149093F314A093F414CB
:10575000B093F5140F94B40E20E030E040E251E431
:10576000609155087091560880915708909158089B
:105770000F9421280F9409307093FB146093FA144E
:105780000093EE141093F11488E590E1A0E0B0E0EE
:105790008093F2149093F314A093F414B093F5143F
:1057A0000F94B40E20E030E0A901609106137091CF
:1057B000071380910813909109130F949D2E0F9455
:1057C00009307093FB146093FA140093EE14109355
:1057D000F11486E390E1A0E0B0E08093F21490939E
:1057E000F314A093F414B093F5140F94B40E8091B5
:1057F0000A1390910B139093FB148093FA14009367
:10580000EE141093F11484E390E1A0E0B0E08093F3
:10581000F2149093F314A093F414B093F5140F942E
:10582000B40E62E070E080E090E00F94940E81E0AE
:105830009AE59093FB148093FA1481E490E00C9421
:10584000E8238330910561F410925D0881E09AE5C8
:105850009093FB148093FA1487E490E00C9418243E
:105860008430910509F408C68530910549F44EE766
:1058700050E160E070E089ED94E00F94AF0FFCC55B
:10588000069709F0F9C588E296E09093750F80932A
:10589000740F8BE090E0A9C28091AA149091AB1490
:1058A000019711F51092250281E09AE59093FB147F
:1058B0008093FA148FE390E09093FD148093FC148E
:1058C00087E08093EE1482E88093F11484E890E0FE
:1058D000A0E0B0E08093F2149093F314A093F4143A
:1058E000B093F5140F94B40E8091AA149091AB1458
:1058F000029709F0C1C581E09AE59093FB1480936B
:10590000FA1480E490E00C9418246091AA14709129
:10591000AB14FB013197EC30F10508F0B5C18827D5
:10592000ED56FF4F8F4F0D94942E8091FA1280FF09
:10593000DDC5869580FDDDC5D9C52DEC3CEC4CEC74
:105940005DE36091C11C7091C21C8091C31C909159
:10595000C41C0F949D2E6B017C0120E030E040E1DF
:1059600051EC0F94FD3087FD3EC220E030E040E175
:1059700051E4C701B6010F94BB2718160CF0C0C53F
:1059800032C22DEC3CEC4CEC5DE36091C11C70919B
:10599000C21C8091C31C9091C41C0F949C2E6B015F
:1059A0007C0120E030E040E151EC0F94FD3087FDB8
:1059B0001AC220E030E040E151E4C701B6010F9483
:1059C000BB2718160CF0F8C50EC280E00E94D7DB8A
:1059D0000F94BF0D811103C080EC95E002C084ECF0
:1059E00095E09093750F8093740F82E08093F9098E
:1059F00081E09AE59093FB148093FA1484E590E09B
:105A00009093FD148093FC1487E08093EE1482E859
:105A10008093F11484E890E0A0E0B0E08093F21469
:105A20009093F314A093F414B093F5140F94B40E60
:105A3000DAC183E08093F90983E090E09093FB144E
:105A40008093FA1485E08093EE1482E88093F11439
:105A50008DE890E1A0E0B0E08093F2149093F3140D
:105A6000A093F414B093F5140F94B40EC12C31E14B
:105A7000D32EE12CF12C05E012E81092FB141092C9
:105A8000FA140093EE141093F114C092F214D09211
:105A9000F314E092F414F092F5140F94B40EB2E003
:105AA000CB0ED11CE11CF11CE2E3CE16E1E1DE06D7
:105AB000E104F10411F781E09AE59093FB148093DF
:105AC000FA1485E590E09093FD148093FC1487E030
:105AD0008093EE1482E88093F11484E890E0A0E0D3
