:100000000C9460170C9491170C9491170C94911701
:100010000C9491170C9491170C9491170C949117C0
:100020000C9491170C9491170C9491170C949117B0
:100030000C9491170C9491170C9491170C949117A0
:100040000C9491170C942EC60C9491170C94911744
:100050000C9491170C9491170C94E5A80C94CDCDA9
:100060000C9491170C9492570C9488570C949117F8
:100070000C9491170C9491170C9491170C94911760
:100080000C941C4F0C9491170C9491170C9491178D
:100090000C9491170C9491170C9491170C94911740
:1000A0000C9491170C9491170C94EE4E0C9491179C
:1000B0000C9491170C9491170C9491170C94C04EBA
:1000C0000C9491170C9491170C9491170C9441CEA9
:1000D0000C9417CE0C9491170C9491170C949117C3
:1000E0000C949117DA17211827184F185C18651807
:1000F000701801230A24E0240B25173217326426D6
:100100000327432817321732F82A2B2C642C173276
:100110002B2E17321732E42E17321732742FDD2FA1
:1001200059306D302931742C7C2CA02CC42CF82C27
:10013000612D752D8E2D9B2DA82DBC2D182E912F48
:10014000942F972FAD2FB42FBB2FD32FC557CB573D
:10015000DD57ED57F5572258F9572258FD570158EA
:100160002258055809580D58155822581F58AF01E4
:10017000790151014901230197017F013B012501CB
:100180001B012901A901C3011501970167019D0107
:100190004701730135017B0127018B010701210113
:1001A0005501BD01430187014B017101190107018F
:1001B0000B01AB019301084AD73B3BCE016E84BCD7
:1001C000BFFDC12F3D6C74319ABD56833DDA3D00B1
:1001D000C77F11BED9E4BB4C3E916BAAAABE0000FA
:1001E00000803F05A84CCDB2D44EB93836A9020CD8
:1001F00050B9918688083CA6AAAA2ABE00000080B1
:100200003F000C949ACE0C94CB570C94742C0D9404
:10021000F10C0C947C2C0D94D30C0D949D1B0C9420
:10022000E42E0C945C180C9417320D943C080C943A
:100230001F580D94C90C0D942A080C942B2C0C9467
:10024000DD570D94820C0D9411080D9426080D9421
:100250006E0C0D942E080C9429310C946D300C9476
:1002600070180C94742F0C9443280D945F0C0C940C
:1002700093CD0C9477CE0D9420080C9405580C94D3
:10028000942F0C9459300D949C0C0C94D32F0D94F6
:100290004A080D940B080D94B00C0C94A02C0C94EF
:1002A000FD570D9407080C94DA170D948A0C0C94E2
:1002B000C5570C94A82D0C940D580C94F82A0C9446
:1002C000BB2F0C94972F0C9486CE0C94C42C0D94B9
:1002D00042080C94ED570C9409580C9421180C9476
:1002E0000B250D94BF0C0D945A0C0C948E2D0C9470
:1002F0002B2E0D9418080D94640C0C94E0240D948E
:100300001C080D94BB1B0C9403270C9422580D94CD
:10031000A60C0C9464260D94780C0C949B2D0C94D4
:10032000612D0C94752D0D94E70C0C94B42F0D9445
:100330004F080C9427180C9415580D9446080C94EB
:1003400001230C94BC2D0C94182E0C9465180C945D
:100350000A240D9434080D94DD0C0C94DD2F0D94BB
:1003600015080C9463CF0C9401580C944F180C94FE
:10037000B0CF0C94912F0C94F82C0D94920C0C94FB
:10038000F5570C94AD2F0D9438080C94A8CE0C940E
:10039000F9570C94642C4E414E494E495459494EDC
:1003A00046CDCCCC3D0AD7233C17B7D13877CC2BE0
:1003B000329595E6241FB14F0A000020410000C885
:1003C0004200401C4620BCBE4CCA1B0E5AAEC59D06
:1003D0007400407A10F35A00A0724E18090010A55C
:1003E000D4E80000E87648170000E40B540200004F
:1003F000CA9A3B000000E1F50500008096980000D5
:100400000040420F000000A08601000000102700FD
:10041000000000E803000000006400000000000A83
:1004200000000000000100000000002C76D888DCED
:10043000674F0823DFC1DFAE59E1B1B796E5E3E4CA
:1004400053C63AE651997696E8E6C28426EB898C43
:100450009B62ED407C6FFCEFBC9C9F40F2BAA56FA5
:10046000A5F490055A2AF75C936B6CF9676DC11B74
:10047000FCE0E40D47FEF520E6B500D0ED902E033C
:1004800000943577050080841E080000204E0A0085
:100490000000C80C333333330F986E12831141EFD1
:1004A0008D2114893BE65516CFFEE6DB18D1844B2F
:1004B000381BF77C1D901DA4BBE424203284725E9F
:1004C000228100C9F124ECA1E53D274D32352050B1
:1004D0000A4D323400526573756D650055492050E0
:1004E00061757365004E6F204D61746368203A003A
:1004F0004D3130303043004D31303030004D3939DE
:10050000390A4D323830503053313630004D3530A5
:10051000320A4D353030000A202A2A2A7265636477
:1005200061742E646174615B305D203D0047323838
:100530000A4731204631303030205A313000556E74
:10054000737570706F72746564204F7074696F6E2C
:100550002053656C656374656400473236523235EA
:1005600035004D3139305335350A4732380A473274
:10057000390A4D3430300A4D313034533231350A76
:100580004732380A4D313039533231350A4D343221
:100590003053310A473158313030593130304635D7
:1005A0003030300A47315A300A4D3530300A4D313B
:1005B000313720536574205A204F66667365740086
:1005C0004732380A4731204631303030205A302EF9
:1005D00030004732385A0A473146313530305A30C8
:1005E0002E30004732380A473146313530305A30E4
:1005F0002E30004732380A473146313030305A30D9
:100600002E30005A204F6666736574203A20257399
:100610000053746F70205472696767657265640077
:1006200053746F70204E6F004D3834004265676917
:100630006E537769746368007265636461742E61D8
:10064000646472203D3D007265636461742E646170
:1006500074615B305D203D3D00776169747761793D
:10066000203D3D002A2A2A4E6F7A7A6C6554656DCA
:10067000705374617475735B325D203D00434F4D60
:100680004D554E49434154494F4E004452595255DD
:100690004E004552524F5253004543484F00473297
:1006A0002F47332062616420706172616D657465EB
:1006B00072730A00536C6565702E2E2E005A2050FE
:1006C000726F62652050617374204265640A005A3B
:1006D0002050726F6265205061737420426564001F
:1006E000486F6D652058592066697273740A004816
:1006F0006F6D65205859204669727374004D313111
:10070000372050726F6265206661696C65642E0ADD
:100710004732380A0070726F62655F726577697080
:100720006500473239205265747279696E67004DF1
:1007300031313720426564206C6576656C696E677F
:10074000206661696C65642E0A4730205A31300A90
:100750004D3330302050323520533838300A4D3345
:100760003030205035302053300A4D333030205057
:10077000323520533838300A4D3330302050353040
:100780002053300A4D333030205032352053383822
:10079000300A4D333030205035302053300A473442
:1007A0002053310070726F62655F6661696C6564C9
:1007B000004D31313720426564206C6576656C6987
:1007C0006E6720646F6E652E004D65736820706FD4
:1007D000696E742063616E6E6F742062652072654D
:1007E000736F6C7665640A004E6F204D6F76652ED0
:1007F00000456E642066696C65206C6973740A003C
:10080000426567696E2066696C65206C6973740A5D
:1008100000526573756D696E6720534400286E6FD2
:100820002066696C65290043757272656E74206676
:10083000696C653A20005072696E742074696D6548
:100840003A20000A53746174733A2046696C616DF2
:10085000656E7420757365643A20002C204C6F6EB1
:1008600067657374206A6F623A2000546F74616C1C
:100870002074696D653A20002C204661696C6564BE
:100880003A20002C2046696E69736865643A20003E
:100890005072696E74733A200053746174733A2015
:1008A00000452025530044454255473A004D31311B
:1008B0003320530042656420436F6F6C696E672E6E
:1008C0002E2E004265642048656174696E672E2E85
:1008D0002E004348414D4245525F54454D504552CC
:1008E0004154555245004D4F54494F4E5F4D4F4472
:1008F000455300544845524D414C5F50524F54456A
:100900004354494F4E004155544F5245504F525455
:100910005F53445F5354415455530050524F4D5010
:10092000545F535550504F525400454D4552474522
:100930004E43595F50415253455200434153455F26
:100940004C494748545F4252494748544E455353D7
:1009500000544F47474C455F4C4947485453005358
:100960004F4654574152455F504F574552004255EC
:10097000494C445F50455243454E54004C45564502
:100980004C494E475F44415441005A5F50524F42D8
:1009900045004155544F4C4556454C005052494E28
:1009A000545F4A4F420050524F4752455353004103
:1009B00055544F5245504F52545F54454D50005678
:1009C0004F4C554D455452494300454550524F4DAB
:1009D0000042494E4152595F46494C455F5452418D
:1009E0004E534645520053455249414C5F584F4E75
:1009F0005F584F4646004649524D574152455F4E5B
:100A0000414D453A4D61726C696E20322E302E3464
:100A10005F44573620544D334420453550534D44A0
:100A2000424220534F555243455F434F44455F5523
:100A3000524C3A68747470733A2F2F6769746875F2
:100A4000622E636F6D2F496E73616E6974794175A3
:100A5000746F6D6174696F6E2F4D61726C696E2F6A
:100A6000747265652F437265616C69747944776946
:100A70006E5F322E302050524F544F434F4C5F56D2
:100A8000455253494F4E3A312E30204D414348494B
:100A90004E455F545950453A544D33442045352016
:100AA000506C75732045585452554445525F434F1E
:100AB000554E543A3120555549443A636564653280
:100AC0006132662D343161322D343734382D39623C
:100AD00031322D6335356336326633363766660A12
:100AE000002F2F20003F4A206F7574206F66207200
:100AF000616E67652028302E303120746F20302ED3
:100B000033290A0020466C6F773A200050726F74C8
:100B100065637465642050696E0A00206F757420E7
:100B20006F662072616E67650A0020536572766F8A
:100B3000200020643A0020693A0020703A0064697D
:100B4000730043290A0061626C656420286D696E38
:100B50002074656D702000436F6C6420657874723A
:100B600075646573206172652000504944204175A9
:100B7000746F74756E65206661696C6564212042CE
:100B80006164206578747275646572206E756D623B
:100B900065720A0046696C616D656E742072756ECF
:100BA0006F75742064697374616E636520286D6D60
:100BB000293A200046696C616D656E742072756E0D
:100BC0006F757420004D34323120696E636F72721C
:100BD00065637420706172616D65746572207573F0
:100BE0006167650A00454550524F4D204F4B0A0042
:100BF000506F7765722D6C6F7373207265636F76BB
:100C0000657279200099067F2592068B067D064540
:100C100072726F722077726974696E6720746F20C8
:100C2000454550524F4D210A00627573793A207044
:100C3000617573656420666F7220696E7075740AE1
:100C400000627573793A2070617573656420666F10
:100C50007220757365720A00627573793A2070723A
:100C60006F63657373696E670A0070617573650001
:100C70004D363030002066696C616D656E745F7250
:100C8000756E6F7574200066696C616D656E745F5A
:100C900072756E6F757420540046696C616D656E77
:100CA0007452756E6F75742054004E6F20436865E2
:100CB000636B73756D2077697468206C696E65204D
:100CC0006E756D6265722C204C617374204C696E78
:100CD000653A2000636865636B73756D206D697399
:100CE0006D617463682C204C617374204C696E656F
:100CF0003A20004C696E65204E756D626572206900
:100D000073206E6F74204C617374204C696E652083
:100D10004E756D6265722B312C204C617374204CC2
:100D2000696E653A20004D31313000776169740A8F
:100D30000053442072656164206572726F720A000C
:100D40002121204B494C4C206361757365642062FE
:100D50007920746F6F206D75636820696E616374AC
:100D60006976652074696D65202D206375727265E2
:100D70006E7420636F6D6D616E643A2000706F77E2
:100D800065726F6666004B494C4C45442E200050FE
:100D900072696E7465722068616C7465642E206B74
:100DA000696C6C28292063616C6C6564210A0036CB
:100DB0003726033C3D380E2E303E121A1C180844CC
:100DC0000AFF43080907000124F4D43050C38E20E1
:100DD000C2A24017828B7011127A910D816CD90AD0
:100DE000A861E108C7586607615143061E4B5D05BF
:100DF000C145A7041A411104093D98037139310313
:100E00004036DB0265339102D4305402802E1D023D
:100E1000632CEE01752AC501B028A00110278101BD
:100E20008F2564012B244B01E0223401AC211F01EA
:100E30008D200D01801FFC00841EED00971DDF003A
:100E4000B81CD200E61BC600201BBC00641AB2000E
:100E5000B219A8000A19A0006A189900D1179100C8
:100E600040178B00B516840031167E00B31579004B
:100E70003A157300C7146F0058146A00EE13660029
:100E80008813630025135E00C7125B006C125700C5
:100E900015125400C111510070114F0021114B0067
:100EA000D61049008D104700461044000210420041
:100EB000C00F4000800F3E00420F3C00060F3B0079
:100EC000CB0E3800930E37005C0E3500270E340031
:100ED000F30D3200C10D3100900D3000600D2E0079
:100EE000320D2D00050D2C00D90C2B00AE0C290065
:100EF000850C29005C0C2700350C27000E0C260001
:100F0000E80B2400C40B2400A00B23007D0B23005E
:100F10005A0B2100390B2100180B2000F80A1F0082
:100F2000D90A1E00BB0A1E009D0A1D00800A1D0072
:100F3000630A1C00470A1B002C0A1B00110A1A0036
:100F4000F7091A00DD091900C4091900AB091900D5
:100F5000920917007B091800630917004C09160055
:100F600036091600200916000A091500F5081500B3
:100F7000E0081400CC081400B8081400A4081400F9
:100F8000900813007D0812006B0813005808120027
:100F9000460812003408110023081100120811003D
:100FA00001081100F0071000E0071000D007100042
:100FB000C0071000B0070F00A107100091070E0036
:100FC00083070F0074070F0065070E0057070E0018
:100FD00049070E003B070D002E070E0020070D00ED
:100FE00013070D0006070D00F9060C00ED060D00B5
:100FF000E0060C00D4060C00C8060C00BC060C0071
:10100000B0060C00A4060B0099060C008D060B0020
:1010100082060B0077060B006C060B0061060A00C7
:1010200057060B004C060A0042060A0038060A0062
:101030002E060A0024060A001A060A0010060900F5
:1010400007060A00FD050900F4050900EB05090083
:10105000E2050900D9050900D0050900C705090006
:10106000BE050900B5050800AD050800A505090085
:101070009C050800940508008C05080084050800FC
:101080007C050800740508006C050700650508006C
:101090005D050700560508004E05070047050700D7
:1010A0004005080038050700310507002A0507003C
:1010B000230507001C050600160507000F0507009D
:1010C0000805060002050700FB040600F5040700FA
:1010D000EE040600E8040600E2040700DB04060054
:1010E000D5040600CF040600C9040600C3040600A8
:1010F000BD040600B7040600B1040500AC040600F8
:10110000A6040600A00405009B0406009504050043
:10111000900406008A04050085040500800406008A
:101120007A04050075040500700405006B040500D1
:1011300066040500610405005C0405005704050011
:10114000520405004D040500480405004304050051
:101150003E0404003A040500350405003004040090
:101160002C04050027040400230405001E040400C9
:101170001A04040016040500110404000D04040000
:10118000090405000404040000040400FC03040036
:10119000F8030400F4030400F0030400EC0304006B
:1011A000E8030400E4030400E0030400DC0304009B
:1011B000D8030400D4030400D0030400CC030400CB
:1011C000C8030300C503030024F404D9201BC40C86
:1011D0005C0E9804C4095F0265077101F405F9000B
:1011E000FB04B30048048700C1036900580355009D
:1011F00003034500BE023A008402310053022A0074
:101200002902250004022000E4011C00C801190085
:10121000AF01170098011400840113007101100040
:101220006101100051010E0043010D0036010B0059
:101230002B010B0020010B00150109000C01090016
:1012400003010800FB000800F3000800EB000700A2
:10125000E4000600DE000600D8000600D20006000A
:10126000CC000500C7000500C2000500BD00040059
:10127000B9000400B5000400B1000400AD00040092
:10128000A9000400A5000300A20003009F000400C1
:101290009B000300980003009500020093000300E8
:1012A000900003008D0002008B0003008800020004
:1012B0008600020084000300810002007F0002001B
:1012C0007D0002007B00020079000200770001002F
:1012D000760002007400020072000100710002003A
:1012E0006F0002006D0001006C0002006A00010046
:1012F000690002006700010066000100650001004E
:101300006400020062000100610001006000010051
:101310005F0002005D0001005C0001005B00010055
:101320005A00010059000100580001005700010057
:101330005600010055000100540001005300000058
:101340005300010052000100510001005000010053
:101350004F0001004E0000004E0001004D00010052
:101360004C0001004B0000004B0001004A0001004E
:10137000490001004800000048000100470001004A
:101380004600000046000100450000004500010045
:10139000440001004300000043000100420000003F
:1013A0004200010041000000410001004000010036
:1013B0003F0000003F0001003E0000003E00010031
:1013C0003D0000003D0001003C0000003C0000002A
:1013D0003C0001003B0000003B0001003A0000001F
:1013E0003A00010039000000390001003800000017
:1013F000380000003800010037000000370001000D
:101400003600000036000000360001003500000004
:1014100035000000350001003400000034000000F9
:1014200034000100330000003300000033000100ED
:1014300032000000320000003200010031000000E4
:1014400031000000310001003000000030000000D9
:10145000300001002F0000002F0000002F000000CE
:101460002F0001002E0000002E0000002E000100C1
:101470002D0000002D0000002D0000002D000100B7
:101480002C0000002C0000002C0000002C000100AB
:101490002B0000002B0000002B0000002B0001009F
:1014A0002A0000002A0000002A0000002A00010093
:1014B0002900000029000000290000002900000088
:1014C000290001002800000028000000280000007A
:1014D000280000002800010027000000270000006D
:1014E0002700000027000000270001002600000060
:1014F0002600000026000000260000002600010053
:101500002500000025000000250000002500000047
:101510002500000025000100240000002400000038
:10152000240000002400000024000100230000002B
:10153000230000002300000023000000230000001F
:101540002300000023000100220000002200000010
:101550002200000022000000220000002200010002
:1015600021000000210000002100000021000000F7
:1015700021000000210000002100010020000000E7
:1015800020000000200000002000000020000000DB
:101590002000000020000000200001001F000000CB
:1015A0001F0000001F0000001F0000001F000000BF
:1015B0001F0000001F0001001E0000001E000000B0
:1015C0001E0000001E00000039300000332500001E
:1015D00087190000B00F0000DB080000BD04000008
:1015E000740200003F01000050726F62696E672054
:1015F000506F696E740025532025692F25690050AE
:10160000726F62696E67206D65736820706F696EB6
:10161000742000202844525952554E29004732392F
:10162000204175746F20426564204C6576656C6955
:101630006E67003F20284C2C522C462C4229206FEC
:101640007574206F6620626F756E64732E0A003F9A
:101650002856296572626F7365206C6576656C200B
:10166000696D706C61757369626C652028302D340A
:10167000292E0A00426164205A2076616C75650A41
:10168000004E6F2062696C696E65617220677269D5
:10169000640A005374616E64617264204465766903
:1016A0006174696F6E3A20002052616E67653A205E
:1016B000004D65616E3A200046696E697368656425
:1016C000210A002072616E67653A20002073696705
:1016D0006D613A2000206D65616E3A20003A207AF3
:1016E0003A2000206F662000476F696E6720746F94
:1016F0003A20580043570A00206469723A0020617A
:101700006E676C653A00537461727420726164692B
:1017100075733A00506F736974696F6E696E6720F4
:101720007468652070726F62652E2E2E0A003F4E1F
:10173000756D626572206F66206C65677320696ED7
:10174000206D6F76656D656E74206E6F7420706CA1
:1017500061757369626C652028302D3135292E0A38
:10176000003F2028582C5929206F7574206F66205F
:10177000626F756E64732E0A003F53616D706C6505
:101780002073697A65206E6F7420706C617573695F
:10179000626C652028342D3530292E0A004D3438EE
:1017A000205A2D50726F62652052657065617461B8
:1017B00062696C69747920546573740A006F6B00F8
:1017C000526573656E643A20002569792025696445
:1017D000202569682025696D202569730057616996
:1017E00074696E6720666F72206865617475702E0B
:1017F0000A004C656176696E6720473236003F53B8
:10180000706563696669656420582C5920636F6F41
:101810007264696E617465206F7574206F662062F2
:101820006F756E64732E0A003F28522965706561DA
:10183000742076616C7565206E6F7420706C6175B4
:101840007369626C653B206D7573742062652061FD
:1018500074206C6561737420312E0A003F28522970
:101860006570656174206D75737420626520737096
:1018700065636966696564207768656E206E6F745C
:10188000207573696E6720616E204C43442E0A00F8
:101890003F537065636966696564206E6F7A7A6C20
:1018A000652074656D7065726174757265206E6F08
:1018B0007420706C61757369626C652E0A003F5309
:1018C00070656369666965642066696C616D656EE3
:1018D000742073697A65206E6F7420706C61757303
:1018E00069626C652E0A003F5370656369666965BD
:1018F00064207072696D65206C656E677468206E17
:101900006F7420706C61757369626C652E0A003F9C
:101910005072696D65206C656E677468206D7573B3
:1019200074206265207370656369666965642077F9
:1019300068656E206E6F74207573696E6720616EC6
:10194000204C43442E0A003F537065636966696505
:1019500064206E6F7A7A6C652073697A65206E6F89
:101960007420706C61757369626C652E0A003F5259
:10197000657472616374696F6E204D756C74697003
:101980006C696572206D7573742062652073706573
:101990006369666965642E0A003F53706563696612
:1019A0006965642052657472616374696F6E204D5D
:1019B000756C7469706C696572206E6F7420706CE0
:1019C00061757369626C652E0A003F5370656369C7
:1019D00066696564206C617965722068656967680D
:1019E00074206E6F7420706C61757369626C652E03
:1019F0000A0043292E0A003F5370656369666965D2
:101A000064206265642074656D70657261747572BE
:101A100065206E6F7420706C61757369626C6520EF
:101A20002834302D00473236207374617274696E29
:101A3000672E2E2E0A000000B0430000B4430000C1
:101A4000C8430000B0430000B443000000000000A1
:101A5000484200004842000080400202040000A00A
:101A6000400000A040000000400101FF0000000114
:101A700000000001000080005555550000004000A6
:101A800033333300AAAA2A00499224000000200020
:101A9000C7711C0099991900D145170055551500BB
:101AA0003BB1130024491200111111000000100075
:101AB0000F0F0F00E3380E0043790D00CCCC0C0063
:101AC000C3300C00E8A20B0064210B00AAAA0A0094
:101AD000703D0A009DD80900427B0900922409004C
:101AE000DCD30800888808001042080000000800C5
:101AF000F0C107008787070075500700711C0700B9
:101B00003EEB0600A1BC0600699006006666060072
:101B1000703E06006118060017F4050074D1050038
:101B20005BB00500B29005006272050055550500D6
:101B300078390500B81E0500050505004EEC0400C7
:101B400087D40400A1BD040090A7040049920400BA
:101B5000C17D0400EE690400C7560400444404003B
:101B60005C3204000821040041100400000004005D
:101B70003FF00300F8E0030026D20300C3C30300D4
:101B8000CCB503003AA803000A9B0300388E03007B
:101B9000C08103009F750300D0690300505E0300FD
:101BA0001D53030034480300913D03003333030009
:101BB00016290300381F030097150300300C03009B
:101BC000030303000BFA020049F10200BAE8020025
:101BD0005CE002002DD802002DD0020059C802009E
:101BE000B0C0020031B90200DAB10200AAAA0200B4
:101BF000A0A30200BC9C0200FA9502005C8F0200C8
:101C0000DF88020082820200457C02002776020003
:101C100027700200436A02007C640200D05E02006A
:101C20003F590200C853020020436F756E7420585C
:101C30003A005761726E696E673A20486F6D696E3F
:101C4000672042756D702044697669736F72203C1D
:101C500020310A007C3C3E5E2B3D3F2F5B5D3B2CE0
:101C60002A225C002062797465733B2063726320D2
:101C70000053657474696E67732053746F72656482
:101C8000202800454550524F4D20646174617369AE
:101C90007A65206572726F722E0A002073746F72FB
:101CA00065642073657474696E67732072657472FD
:101CB0006965766564202800202863616C63756C13
:101CC0006174656429210A0020213D2000454550AA
:101CD000524F4D20435243206D69736D61746368A8
:101CE000202D202873746F726564292000496E646A
:101CF00065783A2000204D61726C696E3D5637362A
:101D0000290A00454550524F4D2076657273696F20
:101D10006E206D69736D617463682028454550526B
:101D20004F4D3D00496E76616C6964206578747230
:101D3000756465720A00544845524D414C20525515
:101D40004E4157415900546865726D616C2052755F
:101D50006E61776179004572723A204D4158544561
:101D60004D50004D415854454D502074726967677D
:101D700065726564004572723A204D494E54454D76
:101D800050004D494E54454D502074726967676547
:101D9000726564004D383420582059205A2045007F
:101DA000202F002042403A0020403A0020573A00BD
:101DB0001000C90210012C0140012201700118011C
:101DC000B0010E01F00104015002FA00B002F0006F
:101DD0003003E600D003DC009004D2007005C80098
:101DE000A006BE000008B400B009AA00D00BA000F5
:101DF000600E960060118C0000158200201978009A
:101E0000C01D6E00A0226400B0275A00902C500024
:101E100000314600E0343C0010383200903A28008F
:101E2000603C1E00A03D1400803E0A00203F0000E0
:101E300020746F6F206C6F6E672065787472757395
:101E4000696F6E2070726576656E7465640A002035
:101E5000636F6C6420657874727573696F6E20703F
:101E6000726576656E7465640A00220A00556E6BB1
:101E70006E6F776E20636F6D6D616E643A20220025
:101E80004F666673657473204170706C6965640099
:101E90004572723A20546F6F206661722100546F50
:101EA0006F206661722066726F6D20726566657262
:101EB000656E636520706F696E740A0044696666BA
:101EC0003A200046726F6D5374703A005374657017
:101ED0007065723A00556E4C6576656C3A004C65DB
:101EE00076656C65643A005261773A2020202000C4
:101EF0000A4C6F676963616C3A00436F756E7420BA
:101F0000453A004361703A004D302053746F7000C1
:101F10004D312053746F7000436F6E74696E756538
:101F200000436C69636B20746F20526573756D6537
:101F30002E2E2E0050726F6265204F666673657498
:101F4000205A0050726F6265204F66667365745A3E
:101F50003A20003F5A206F7574206F662072616EC0
:101F600067652028003F59206F7574206F662072C6
:101F7000616E676520282D0020746F20003F582077
:101F80006F7574206F662072616E676520282D0062
:101F900050726F6265204F666673657420580065E5
:101FA0006E7175657565696E67202200FFFDFCFA2C
:101FB000F8F6F4F2F0EEECEAE9E7E5E3E1E0DEDC86
:101FC000DAD9D7D5D4D2D0CFCDCBCAC8C7C5C3C232
:101FD000C0BFBDBCBAB9B7B6B4B3B2B0AFADACAAAE
:101FE000A9A8A6A5A4A2A1A09E9D9C9A9998979500
:101FF000949392908F8E8D8B8A8988878684838232
:1020000081807F7E7D7B7A79787776757473727143
:10201000706F6E6D6C6B6A69686766656463626138
:10202000605F5E5D5C5B5A59585857565554535221
:102030005150504F4E4D4C4B4A4A494847464645F1
:102040004443424241403F3E3E3D3C3B3B3A3938AF
:102050003837363535343332323130302F2E2E2D5D
:102060002C2B2B2A29292827272625252423232200
:10207000212120201F1E1E1D1C1C1B1B1A19191894
:1020800018171616151514131312121111100F0F1D
:102090000E0E0D0D0C0C0B0A0A090908080707069D
:1020A0000605050404030302020100004D3130302F
:1020B000302053002020506C616E6E657242756650
:1020C00066657242797465733A20002046726565D0
:1020D000204D656D6F72793A2000436F6D70696CA9
:1020E00065643A204D617220203720323032300A48
:1020F00000204C61737420557064617465643A20EB
:10210000323032302D30322D3238207C20417574FF
:10211000686F723A2054696E794D616368696E65C3
:102120007333440A00322E302E345F4457360A008F
:102130004D61726C696E0020536F667477617265D1
:102140002052657365740A00205761746368646F78
:10215000672052657365740A002042726F776E20A3
:102160006F75742052657365740A00204578746534
:10217000726E616C2052657365740A00506F7765EA
:102180007255700A006175746F25632E67004732BF
:1021900038585900446F6E65207072696E74696EAC
:1021A000672066696C650A004D3331004D3051314E
:1021B000533630006572726F722077726974696E7F
:1021C0006720746F2066696C650A00446F6E652035
:1021D000736176696E672066696C652E0A004D3200
:1021E0003900205A3A0020593A00656E6473746FC2
:1021F0007073206869743A20002053697A653A2028
:102200000043616E6E6F74206F70656E207375622F
:10221000646972200053442063617264206F6B0A0A
:10222000006F70656E526F6F74206661696C6564D3
:102230000A00766F6C756D652E696E697420666133
:10224000696C65640A00534420696E697420666194
:10225000696C0A004D32332025730046696C652095
:1022600073656C65637465640A0046696C65206F0C
:1022700070656E65643A2000454E442053554252C5
:102280004F5554494E450A002220706F730022209A
:10229000706172656E743A2200535542524F555424
:1022A000494E452043414C4C207461726765743A35
:1022B0002200747279696E6720746F2063616C6CA0
:1022C000207375622D67636F64652066696C657342
:1022D000207769746820746F6F206D616E79206C4F
:1022E0006576656C732E204D4158206C6576656C63
:1022F0002069733A310A0044656C6574696F6E2019
:102300006661696C65642C2046696C653A200046FC
:10231000696C652064656C657465643A005344209B
:102320007072696E74696E67206279746520004E00
:102330006F74205344207072696E74696E670A006E
:1023400057726974696E6720746F2066696C653AAC
:102350002000667265736800646F696E67004E6F77
:10236000772000416363656C65726174696F6E3AD2
:10237000205000204D393220580020204D61783AFD
:10238000200020204D696E3A2000536F667420654E
:102390006E6473746F70733A2000473238004D32A8
:1023A000342053256C642054256C64004739322E48
:1023B00039204525730047312046256400473932CE
:1023C0002E39205A2573004731205A3020463230AA
:1023D000300047312058257320592573204633306B
:1023E0003030004D34323020532569205A25730097
:1023F0004D3130362050256920532569004D31304C
:102400003920532569004D31393020532569004D5D
:1024100032303020442573004739322E3920453080
:102420005A300A47315A320A473238523058590026
:102430004D343230205330205A300020496E7661BE
:102440006C696420657874727564657220006563D8
:10245000686F3A004572726F723A0042696C696E39
:10246000656172204C6576656C696E67204772699C
:10247000643A0A0053544F505045442E2000507285
:10248000696E7465722073746F7070656420647512
:102490006520746F206572726F72732E20466978A2
:1024A00020746865206572726F7220616E64207599
:1024B0007365204D39393920746F207265737461EA
:1024C00072742E202854656D706572617475726522
:1024D0002069732072657365742E205365742069BA
:1024E00074206166746572207265737461727469B8
:1024F0006E67290A0021212053544F502063616CDC
:102500006C65642062656361757365206F66204247
:102510004C546F756368206572726F72202D207243
:102520006573746172742077697468204D39393924
:102530000A002F2F616374696F6E3A0062656769E4
:102540006E00656E640070726F6D70745F0073680A
:102550006F770044697361626C6552756E6F757454
:102560000050757267654D6F726500554E4B4E4F4A
:10257000574E2053544154450047434F44455F490B
:102580004E464F004C43445F50415553455F5245C2
:1025900053554D450046494C414D454E545F5255AB
:1025A0004E4F55545F434F4E54494E554500464992
:1025B0004C414D454E545F52554E4F5554004D3889
:1025C000373620526573706F6E64696E67205052A3
:1025D0004F4D50545F002052000A20696E697420EC
:1025E0007A70726F62655F7A6F6666736574203D9C
:1025F0002000454550524F4D20496E697469616C09
:10260000697A65640A0048617264636F6465642076
:1026100044656661756C742053657474696E677384
:10262000204C6F616465640A003B200020204D3619
:102630003033200020204D34313220530046696C65
:10264000616D656E742072756E6F75742073656E42
:10265000736F723A0020550046696C616D656E7447
:10266000206C6F61642F756E6C6F6164206C656E99
:10267000677468733A0020204D3835312058005A6D
:102680002D50726F6265204F66667365740020205E
:102690004D343133205300506F7765722D4C6F737A
:1026A00073205265636F766572793A0020204D334E
:1026B000303420500020204D33303120500050491C
:1026C000442073657474696E67733A002020473242
:1026D00039205720490020204D343230205300410A
:1026E00075746F20426564204C6576656C696E6711
:1026F0003A0020204D323036205800486F6D65205A
:102700006F66667365743A00204A0020204D3230AF
:1027100035204200416476616E6365643A20423C34
:102720006D696E5F7365676D656E745F74696D6505
:102730005F75733E20533C6D696E5F6665656472BC
:102740006174653E20543C6D696E5F74726176659C
:102750006C5F66656564726174653E204A3C6A75AB
:102760006E635F6465763E0020204D323034205029
:1027700000416363656C65726174696F6E202875D2
:102780006E6974732F7332293A20503C7072696EEF
:10279000745F616363656C3E20523C726574726164
:1027A00063745F616363656C3E20543C7472617650
:1027B000656C5F616363656C3E0020204D32303193
:1027C0002058004D6178696D756D20416363656CBB
:1027D00065726174696F6E2028756E6974732F73EA
:1027E00032293A0020590020204D32303320580041
:1027F0004D6178696D756D2066656564726174659B
:10280000732028756E6974732F73293A00537465A9
:1028100070732070657220756E69743A0020204DC7
:102820003230302044300A0020204D3230302044F5
:10283000002044697361626C65640A0046696C61DA
:102840006D656E742073657474696E67733A0020E9
:10285000286D6D29002020473231202020203B2088
:10286000556E69747320696E206D6D00486F6D69D7
:102870006E67204661696C6564006F70656E005418
:1028800052494747455245440066696C616D656E23
:1028900074007A5F6D696E00795F6D617800785FB2
:1028A0006D6178005265706F7274696E6720656E35
:1028B0006473746F70207374617475730A000080A0
:1028C0003B4400803B440000204100009642000051
:1028D000A0420000A042000048440080CC43D00742
:1028E0000000D0070000640000004B000000206DD5
:1028F00061783A2000206D696E3A20002364656695
:10290000696E652044454641554C545F004B642038
:10291000004B6920004B70200050494420417574E1
:102920006F74756E652066696E69736865642120D1
:1029300050757420746865206C617374204B702C22
:10294000204B6920616E64204B6420636F6E73744A
:10295000616E74732066726F6D2062656C6F772094
:10296000696E746F20436F6E666967757261746912
:102970006F6E2E680A00504944204175746F74755B
:102980006E65206661696C6564212074696D656F90
:1029900075740A000A20436C61737369632050499F
:1029A00044200A00204B643A2000204B693A200062
:1029B000204B703A20000A204E6F206F76657273AC
:1029C000686F6F740A002054753A2000204B753AE6
:1029D000200020643A200020626961733A20005090
:1029E0004944204175746F74756E6520737461720B
:1029F000740A00504944204175746F74756E6520E7
:102A00006661696C6564212054656D7065726174DE
:102A100075726520746F6F20686967680A004531B8
:102A200000626564002C2073797374656D20737483
:102A30006F7070656421204865617465725F4944F8
:102A40003A200048656174696E67204661696C656B
:102A5000640048656174696E67206661696C6564CD
:102A6000004D3131322053687574646F776E0020E9
:102A70002D20496E76616C69642065787472756486
:102A80006572206E756D62657220210A0070012CDE
:102A90000190012701B0012201C0011D01F00118C0
:102AA000011002130130020E0160020901900204BC
:102AB00001C002FF000003FA004003F5008003F0AC
:102AC00000D003EB002004E6007004E100E004DC29
:102AD000004005D700C005D2004006CD00D006C892
:102AE000008007C3003008BE00F008B900C009B478
:102AF00000B00AAF00B00BAA00D00CA500000EA0D9
:102B000000500F9B00C01096005012910000148CD2
:102B100000C0158700B0178200B0197D00D01B7867
:102B200000001E730040206E0090226900F02464B3
:102B30000040275F0090295A00E02B5500102E50CE
:102B40000020304B0010324600E033410090353C0D
:102B5000001037370070383200A0392D00B03A2805
:102B600000A03B2300603C1E00103D1900903D1466
:102B700000103E0F00703E0A00C03E0500003F00FE
:102B800000403FFBFF803FF6FFC03FF1FF706175E3
:102B90007365640053656E64204D31303820746F66
:102BA00020726573756D650A00496E7365727420D5
:102BB00066696C616D656E7420616E642073656E0C
:102BC00064204D3130380A005265686561742066B2
:102BD000696E69736865642E00526568656174206A
:102BE000446F6E6500526568656174696E672E2E6C
:102BF0002E00526568656174696E6700526568658C
:102C000061740048656174657254696D656F7574AF
:102C10000053656E64204D31303820746F20686534
:102C20006174206E6F7A7A6C650A004E6F7A7A6CE6
:102C300065205061726B656400486F74656E642036
:102C4000746F6F20636F6C640A00627574746F6ECA
:102C5000004C6F61642046696C616D656E74004C58
:102C60006F61642046696C616D656E7420540072FA
:102C70006573756D656400526573756D696E670087
:102C80006F70656E206661696C65642C2046696CA6
:102C9000653A20006E6F74696669636174696F6E6E
:102CA000200063616E63656C005072696E74204130
:102CB000626F72746564004469736D697373005563
:102CC000492041626F7274656400726573756D6549
:102CD0000000000000000000000000000050726FC3
:102CE00062696E67204661696C656400205A3A200B
:102CF0000020593A200042656420583A2000507262
:102D00006F62696E67204661696C65640A00486F8E
:102D10006D652025732573257320466972737400D1
:102D200000002100240027002A002D00300033007D
:102D300001010000040107010A0100002200250032
:102D400028002B002E003100340002010000050194
:102D500008010B01000020002300260029002C00A0
:102D60002F003200000100000301060109010505E2
:102D70000505070508080808020202020A0A0808F1
:102D8000040404040101010101010101030303031F
:102D900003030303040707070C0C0C0C0C0C0C0CAE
:102DA0000202020206060606060606060B0B0B0BBF
:102DB0000B0B0B0B010210202008081020401020E4
:102DC00040800201020108040201010204081020EF
:102DD00040808040201008040201800402018040ED
:102DE0002010080402010804020101020408102056
:102DF0004080010204081020408000000A0B0209F4
:102E00000C0D0E0807030401000000000000000084
:102E100000000000000000000000000000000000B2
:102E2000000000000000121110000000000000006F
:102E30000000000000000000000000000000000092
:102E40005072696E742050617573656400544D331F
:102E50004420453520506C75732052656164792E8D
:102E6000005072696E74696E672E2E2E004F4646B2
:102E70000A004661646520486569676874200042FD
:102E80006564204C6576656C696E672000466169F3
:102E90006C656420746F20656E61626C65204265AC
:102EA00064204C6576656C696E670A00496E7661D0
:102EB0006C6964206D6573682E0A000081010D0144
:102EC00011241FBECFEFD1E2DEBFCDBF00E00CBFAB
:102ED00018E0A0E0B2E0EAECF9E502E00BBF02C0C6
:102EE00007900D92A233B107D9F72CE1A2E3B8E025
:102EF00001C01D92AD34B207E1F717E1CFE5D7E18C
:102F000000E006C021970109802FFE010F940E29D1
:102F1000CE35D10780E00807A9F70F9459160D9414
:102F2000D32C0C9400002F923F924F925F926F929D
:102F30007F928F929F92AF92BF92CF92DF92EF9249
:102F4000FF920F931F93CF93DF93CDB7DEB7A49774
:102F50000FB6F894DEBF0FBECDBF81E0809332166E
:102F600010923116109230168091130E882329F09A
:102F70000F941207882309F46AC6109249088091B9
:102F80004908853620F0109249081092130EE091FE
:102F9000130E8E2FEE0F990BAA0BBB0BFC01319772
:102FA000E730F10508F0A2C08827EE58FF4F8F4F99
:102FB0000D940E290F940A07882309F497C081E025
:102FC00080934C0282EB93E00E94555080E190E0A8
:102FD0009093FF138093FE1385E08093F21372E8C1
:102FE000F72EF092F51384E190E1A0E0B0E0809339
:102FF000F6139093F713A093F813B093F9130E946C
:1030000001FF81E09AE59093FF138093FE1386E31E
:1030100090E0909301148093001487E08093F21362
:10302000F092F51384E890E0A0E0B0E08093F6130E
:103030009093F713A093F813B093F9130E9401FF34
:1030400053C00F940A07882309F450C049C080EC8C
:1030500093E00E94555081E09AE59093FF1380938E
:10306000FE1380E490E0909301148093001467E0D5
:10307000F62EF092F21382E88093F51384E890E044
:10308000A0E0B0E08093F6139093F713A093F813A9
:10309000B093F9130E9401FFF092130E27C08091A4
:1030A0004808882319F10F940A078823F9F00F9430
:1030B000120781111BC0D1C50F940A078823B1F0F4
:1030C0000F941207811112C0F6C50F9412078111D7
:1030D0000DC042E060E070E0CB010F94280704C00F
:1030E0000F941207811102C01092130E80914C02AE
:1030F000882309F4DCC480912711811123C184E065
:1031000096E09093FF138093FE1380EA90E89093EB
:1031100001148093001447E0F42EF092F21352E869
:10312000E52EE092F51380EA90E0A0E0B0E0809315
:10313000F6139093F713A093F813B093F9130E942A
:1031400001FF8091050290910602A0910702B091C3
:1031500008020097A105B10519F51092FF1310920E
:10316000FE1335E0F32EF092F213E092F5138AE8A5
:1031700090E1A0E0B0E08093F6139093F713A09352
:10318000F813B093F9130E9401FF89E090E0909347
:10319000FF138093FE13F092F213E092F51341C0F7
:1031A0000196A11DB11D25E0B695A7959795879528
:1031B0002A95D1F70197A109B109009721E0A2074B
:1031C000B10558F0B093FF13A093FE139093011430
:1031D00080930014F092F21307C09093FF13809332
:1031E000FE1385E08093F21392E8F92EF092F51326
:1031F0008AE890E1A0E0B0E08093F6139093F71393
:10320000A093F813B093F9130E9401FF88E090E0B7
:103210009093FF138093FE1385E08093F213F09256
:10322000F5138CE890E1A0E0B0E08093F613909362
:10323000F713A093F813B093F9130E9401FFC09005
:103240000502D0900602E0900702F0900802C11437
:10325000D10431E0E306F10450F0F092FF13E09264
:10326000FE13D0920114C092001487E005C0D092E2
:10327000FF13C092FE1385E08093F21382E88093DF
:10328000F51388E890E1A0E0B0E08093F613909306
:10329000F713A093F813B093F9130E9401FFFE2CCB
:1032A000ED2CDC2CCC24C114D10481E0E806F1041F
:1032B00050F0F092FF13E092FE13D0920114C092EE
:1032C000001487E005C0D092FF13C092FE1385E082
:1032D0008093F213B2E8FB2EF092F51381EA90E0AE
:1032E000A0E0B0E08093F6139093F713A093F81347
:1032F000B093F9130E9401FF8091A716882319F05B
:1033000083E090E002C082E090E09093FF1380930E
:10331000FE1385E08093F213F092F51385E490E1BB
:10332000A0E0B0E08093F6139093F713A093F81306
:10333000B093F9130E9401FF80912711875E80935B
:10334000271123C08A3F08F58EEF809327118EEC5A
:1033500093E00E94555081E080934C0281E09AE511
:103360009093FF138093FE138DE290E090930114ED
:103370008093001487E08093F21382E88093F51322
:1033800084E890E0A0E0B0E03DC420912711822FB6
:1033900090E0253678F49093FF138093FE1385E038
:1033A0008093F21382E88093F51380E090E1A0E02F
:1033B000B0E010C0845691099093FF138093FE13E0
:1033C00085E08093F21382E88093F51381E090E129
:1033D000A0E0B0E08093F6139093F713A093F81356
:1033E000B093F9130E9401FF8091601390916113D3
:1033F000891B877009F0D7C40E94EC4C8111D3C49B
:1034000080916C1482FDCFC480C484E690E09093D8
:10341000FF138093FE13E092F213F092F5138EE007
:1034200090E1A0E0B0E08093F6139093F713A0939F
:10343000F813B093F9130E9401FF92E3C91A90E8C0
:10344000D90ACC0CDD1CD092FF13C092FE13E0927F
:10345000F213F092F5138FE090E1A0E0B0E08093DA
:10346000F6139093F713A093F813B093F9130E94F7
:1034700001FF0F94F10490E09093FF138093FE13EB
:1034800085E08093F21382E88093F51386E190E162
:10349000A0E0B0E08093F6139093F713A093F81395
:1034A000B093F9130E9401FF20E030E048EC52E4B1
:1034B0006091331C7091341C8091351C9091361CA6
:1034C0000F949B220F94832A7093FF136093FE1333
:1034D00055E0E52EE092F21362E8F62EF092F51335
:1034E00086E290E1A0E0B0E08093F6139093F713AA
:1034F000A093F813B093F9130E9401FF20E030E08D
:10350000A90160911A1270911B1280911C12909166
:103510001D120F9417290F94832A7093FF13609341
:10352000FE13E092F213F092F51386E390E1A0E02F
:10353000B0E08093F6139093F713A093F813B09331
:10354000F9130E9401FF6091530A7091540A80910F
:10355000550A9091560A0F94832A7093FF13609333
:10356000FE13E092F213F092F5138CE390E1A0E0E9
:10357000B0E08093F6139093F713A093F813B093F1
:10358000F9130E9401FF80911E1290911F129093D7
:10359000FF138093FE13E092F213F092F51384E38D
:1035A00090E1A0E0B0E08093F6139093F713A0931E
:1035B000F813B093F9130E9401FF8091570A90917C
:1035C000580A9093FF138093FE13E092F213F09247
:1035D000F5138AE390E1A0E0B0E08093F6139093B6
:1035E000F713A093F813B093F9130E9401FF809191
:1035F0003E0290913F029093FF138093FE13E0925E
:10360000F213F092F51380E093E1A0E0B0E0809334
:10361000F6139093F713A093F813B093F9130E9445
:1036200001FF20E030E040E251E460919C0D709198
:103630009D0D80919E0D90919F0D0F949B220F9454
:103640008A2A7093FF136093FE13E092F213F092B4
:10365000F51382E492E1A0E0B0E08093F61390933A
:10366000F713A093F813B093F9130E9401FF20E021
:1036700030E040E251E46091A00D7091A10D809185
:10368000A20D9091A30D0F949B220F948A2A709300
:10369000FF136093FE13E092F213F092F51386E4A9
:1036A00092E1A0E0B0E08093F6139093F713A0931B
:1036B000F813B093F9130E9401FF20E030E040E2DC
:1036C00051E46091A40D7091A50D8091A60D90918B
:1036D000A70D0F949B220F948A2A7093FF13609377
:1036E000FE13E092F213F092F5138AE492E1A0E067
:1036F000B0E08093F6139093F713A093F813B09370
:10370000F9130E9401FF20E030E040E251E46091B3
:10371000A80D7091A90D8091AA0D9091AB0D0F94F9
:103720009B220F948A2A7093FF136093FE13E092FA
:10373000F213F092F5138EE492E1A0E0B0E08093F2
:10374000F6139093F713A093F813B093F9130E9414
:1037500001FF20E030E048EC52E460912B1C7091B6
:103760002C1C80912D1C90912E1C0F949B220F9449
:10377000832A7093FF136093FE13E092F213F0928A
:10378000F51386E392E1A0E0B0E08093F613909306
:10379000F713A093F813B093F9130E9401FF20E0F0
:1037A00030E048EC52E460912F1C7091301C809105
:1037B000311C9091321C0F949B220F94832A70939A
:1037C000FF136093FE13E092F213F092F5138AE375
:1037D00092E1A0E0B0E08093F6139093F713A093EA
:1037E000F813B093F9130E9401FF20E030E048EC99
:1037F00052E46091331C7091341C8091351C90917F
:10380000361C0F949B220F94832A7093FF136093AE
:10381000FE13E092F213F092F5138EE392E1A0E032
:10382000B0E08093F6139093F713A093F813B0933E
:10383000F9130E9401FF809103029091040290937A
:10384000FF138093FE13E092F213F092F51382E5DA
:1038500092E1A0E0B0E08093F6139093F713A09369
:10386000F813B093F9130E9401FF80910102909127
:1038700002029093FF138093FE13E092F213F092F2
:10388000F51384E592E1A0E0B0E08093F613909305
:10389000F713A093F813B093F9130E9401FF20E0EF
:1038A00030E040E251E46091211270912212809147
:1038B0002312909124120F949B220F948A2A7093C2
:1038C000FF136093FE13E092F213F092F51386E576
:1038D00092E1A0E0B0E08093F6139093F713A093E9
:1038E000F813B093F9130E9401FF2CEA35EC47E27C
:1038F0005EE36091251270912612809127129091BB
:1039000028120F94112A20E030E040E251E40F9495
:103910009B220F948A2A7093FF136093FE13E09208
:10392000F213F092F5138AE592E1A0E0B0E0809303
:10393000F6139093F713A093F813B093F9130E9422
:1039400001FF2CEA35EC47E25EE3609129127091A9
:103950002A1280912B1290912C120F949B2220E01E
:1039600030E040E251E40F949B220F948A2A709336
:10397000FF136093FE13E092F213F092F5138EE5BD
:1039800092E1A0E0B0E08093F6139093F713A09338
:10399000F813B093F9130E9401FF20E030E040E2F9
:1039A00051E460915A0A70915B0A80915C0A90918F
:1039B0005D0A0F949B220F948A2A7093FF136093E1
:1039C000FE13E092F213F092F51382E692E1A0E08A
:1039D000B0E08093F6139093F713A093F813B0938D
:1039E000F9130E9401FF2CEA35EC47E25EE3609197
:1039F0005E0A70915F0A8091600A9091610A0F944B
:103A0000112A20E030E040E251E40F949B220F9411
:103A10008A2A7093FF136093FE13E092F213F092E0
:103A2000F51386E692E1A0E0B0E08093F613909360
:103A3000F713A093F813B093F9130E9401FF2CEA37
:103A400035EC47E25EE36091620A7091630A80910F
:103A5000640A9091650A0F949B2220E030E040E2D6
:103A600051E40F949B220F948A2A7093FF13609362
:103A7000FE13E092F213F092F5138AE692E1A0E0D1
:103A8000B0E08093F6139093F713A093F813B093DC
:103A9000F9130E9401FFB0904308B11025C2809134
:103AA0004508811121C2809148088111E2C292E447
:103AB000C92E94E1D92E2AE1B22E8DE292E10E9424
:103AC000A8CEE0903808F09039081816190634F49A
:103AD000BAE1EB16F10414F40C942A321E141F04FC
:103AE00094F49091A31380914214981709F4A7C3FA
:103AF0008AE1E2E4F4E1DF011D928A95E9F7109290
:103B00003908109238088091A6139091A713A091BC
:103B1000A813B091A9138C34E0E19E07A105B1056B
:103B200009F47AC08A349041A105B10509F474C042
:103B300020E030E040E251E4609178027091790237
:103B400080917A0290917B020F949B220F94832A9A
:103B50007093FF136093FE1305E00093F21312E8D5
:103B60001093F51388E490E1A0E0B0E08093F613A1
:103B70009093F713A093F813B093F9130E9401FFE9
:103B800020E030E040E251E460917C0270917D02DF
:103B900080917E0290917F020F949B220F94832A42
:103BA0007093FF136093FE130093F2131093F513B9
:103BB0008AE490E1A0E0B0E08093F6139093F713CD
:103BC000A093F813B093F9130E9401FF20E030E0B6
:103BD00040E251E460918002709181028091820202
:103BE000909183020F949B220F94832A7093FF136A
:103BF0006093FE130093F2131093F5138CE490E19D
:103C0000A0E0B0E08093F6139093F713A093F8131D
:103C1000B093F9130E9401FF10923216A4960FB6CA
:103C2000F894DEBF0FBECDBFDF91CF911F910F91F2
:103C3000FF90EF90DF90CF90BF90AF909F908F90CC
:103C40007F906F905F904F903F902F90089580915C
:103C500049088F5F8093490892C981EF95E00E94DF
:103C600055508091470890E0A0E0B0E0895B9F4FFD
:103C7000AE4FB54A21E03AE53093FF132093FE138F
:103C8000909301148093001487E08093F21382E8EC
:103C90008093F51384E890E0A0E0B0E08093F61301
:103CA0009093F713A093F813B093F9130E9401FFB8
:103CB0001092480819CA81E080934C021092130EAA
:103CC0008FEF95E00E94555081E09AE59093FF13A5
:103CD0008093FE138EE490E090930114809300147F
:103CE00087E08093F21382E88093F51384E890E0F4
:103CF000A0E0B0E08093F6139093F713A093F8132D
:103D0000B093F9130E9401FFF1C98090530A90907B
:103D1000540AA090550AB090560A6091570A7091C3
:103D2000580A072E000C880B990B0F943C222B018C
:103D30003C0120E030E040E050E40F941629A5015A
:103D400094010F94772B18160CF4D9C120E030E0C1
:103D5000A90160911A1270911B1280911C1290910E
:103D60001D120F94172969A37AA38BA39CA36091BA
:103D70001E1270911F12072E000C880B990B0F94C6
:103D80003C226B017C0120E030E040E251E40F94E2
:103D9000162929A13AA14BA15CA10F94772B1816E3
:103DA0000CF4ADC18DC18CE090E09093FF13809333
:103DB000FE1395E0F92EF092F21382E88093F5134A
:103DC00084E190E1A0E0B0E08093F6139093F713C4
:103DD000A093F813B093F9130E9401FF0F941503F9
:103DE00020E13EE040E050E00F948B2821153105A2
:103DF00081E04807510560F05093FF134093FE1394
:103E0000309301142093001487E08093F21306C0CE
:103E10003093FF132093FE13F092F213F2E8FF2E7B
:103E2000F092F51380E190E1A0E0B0E08093F6130A
:103E30009093F713A093F813B093F9130E9401FF26
:103E40000F94150320E13EE040E050E00F948B28F2
:103E50002CE330E040E050E00F948B283093FF13C8
:103E60002093FE13A5E0EA2EE092F213F092F513F0
:103E700082E190E1A0E0B0E08093F6139093F71315
:103E8000A093F813B093F9130E9401FF0F94F1046B
:103E9000882379F08F5F80934608C82ED12C833316
:103EA00008F0B3CACC0CDD1CD092FF13C092FE13F5
:103EB00004C01092FF131092FE13E092F213F092DE
:103EC000F5138EE090E1A0E0B0E08093F6139093BC
:103ED000F713A093F813B093F9130E9401FF109207
:103EE000FF131092FE13B3CA20E030E0A9016091E5
:103EF0001A1270911B1280911C1290911D120F9436
:103F0000172920E030E048EC52E40F949B226B012B
:103F10007C0160911E1270911F12072E000C880BFD
:103F2000990B0F943C229B01AC01C701B6010F9481
:103F3000112A0F948A2A6436710510F064E670E045
:103F40007093FF136093FE1335E0932E9092F2135B
:103F500042E8A42EA092F51384E290E1A0E0B0E044
:103F60008093F6139093F713A093F813B093F9137B
:103F70000E9401FF20E030E0A90160911A127091C7
:103F80001B1280911C1290911D120F9417296B0126
:103F90007C0120E030E04AE253E40F94772B1816BE
:103FA0000CF0EFC0BB2009F4ECC01092430820E0F5
:103FB00030E040E251E460913B0870913C08809110
:103FC0003D0890913E080F949B220F94832A709392
:103FD000FF136093FE139092F213A092F51384E501
:103FE00090E1A0E0B0E08093F6139093F713A093D4
:103FF000F813B093F9130E9401FF20E030E040E293
:1040000051E460913F08709140088091410890917F
:1040100042080F949B220F94832A7093FF1360939E
:10402000FE139092F213A092F51388E590E1A0E0C0
:10403000B0E08093F6139093F713A093F813B09326
:10404000F9130E9401FF8DE096E00E94555081E037
:104050009AE59093FF138093FE1381E490E0909390
:1040600001148093001487E08093F213A092F5135B
:10407000D7C080913A08FF24F394F80EF0923A08E2
:1040800090E09093FF138093FE1385E08093F213EA
:1040900082E88093F51382E490E1A0E0B0E08093A1
:1040A000F6139093F713A093F813B093F9130E94AB
:1040B00001FFA9E0AF1508F0FACC10923A08F7CC4E
:1040C00020E030E040E050E4C301B2010F94172932
:1040D000A50194010F94352287FD31C020E030E026
:1040E00040E251E4C701B6010F94172929A13AA172
:1040F0004BA15CA10F94352287FD21C0D5C98DE06D
:1041000090E09093FF138093FE1385E08093F21369
:1041100082E88093F51384E190E1A0E0B0E0809321
:10412000F6139093F713A093F813B093F9130E942A
:1041300001FF8091120E811121C081E01FC084E136
:1041400090E09093FF138093FE1385E08093F21329
:1041500082E88093F51384E190E1A0E0B0E08093E1
:10416000F6139093F713A093F813B093F9130E94EA
:1041700001FF8091120E811101C082E08093120E26
:1041800093C960911E1270911F12072E000C880BAC
:10419000990B0F943C229B01AC01C701B6010F940F
:1041A000772B87FD80CC60914508662309F47BCC92
:1041B000062E000C770B84E696E00E94B3E58AE0B9
:1041C0000E944A4F1092450884E090E09093FF13BC
:1041D0008093FE1385E08093F21382E8F82EF0922C
:1041E000F5138EE890E1A0E0B0E08093F613909391
:1041F000F713A093F813B093F9130E9401FF81E025
:104200009AE59093FF138093FE1383E590E09093DB
:1042100001148093001487E08093F213F092F51359
:1042200084E890E0A0E0B0E08093F6139093F71359
:10423000A093F813B093F9130E9401FF34CC90912E
:10424000A41380914314981353CC83E0E816F1042F
:104250000CF44ECC909144149093A2138091451489
:104260008093A513933079F4982F9D7F903859F45B
:10427000909146149F3409F055C0909147149B3497
:1042800009F050C035CC833809F04CC080914614F9
:1042900090914714982789279827A0E0B0E0809351
:1042A000A6139093A713A093A813B093A9134091BA
:1042B000481450E060E070E04093AA135093AB13B1
:1042C0006093AC137093AD1389E4A82E84E1B82EEB
:1042D00080E090E0DC0184179507A607B70708F097
:1042E0004FC06C017D01F694E794D794C794960172
:1042F0002A5F3F4FF901EE0FFF1F9F012E553C4EE5
:104300007901F501208130E0322F2227D1802D293B
:10431000F701318320830296A11DB11DF2E0AF0E9B
:10432000B11CD9CF813861F58091461490E0A0E0AE
:10433000B0E08093A6139093A713A093A813B09313
:10434000A91380914714482F50E060E070E040933B
:10435000AA135093AB136093AC137093AD13A8E4FE
:10436000B4E1EEEAF3E190E020E030E0281739070D
:1043700039F04D9150E0419351932F5F3F4FF6CF6D
:104380008AE1E2E4F4E1DF011D928A95E9F71092F7
:104390003908109238088FED93E00E9455506091D3
:1043A000130E161664F4062E000C770B89E596E0C2
:1043B0000E94B3E58AE00E944A4F0C941B32609140
:1043C000AE137091AF1387E496E00E9495E58AE002
:1043D0000E944A4F4091A6135091A7136091A813D1
:1043E0007091A91388E396E00E9484E58AE00E9418
:1043F0004A4F8091A6139091A713A091A813B09152
:10440000A913ECE8F2E0E12CF12C4191519161917A
:104410007191411551056105710509F442C04817B4
:1044200059076A077B07C9F5AC01BD01477F4233D5
:10443000504161057105C9F18433F0E19F07A10581
:10444000B10599F1811523E19207A105B10569F143
:10445000AC01BD0148505041610971094530510519
:104460006105710530F1AC01BD014654504161094F
:1044700071094730510561057105F8F0AC01BD01C6
:104480004455504161097109453051056105710577
:10449000B8F462E1E62EF12C13C03FEFE31AF30A01
:1044A000B4CFEE24EA94FE2C0BC0F8E0EF2EF12CF2
:1044B00007C0E3E0EE2EF12C03C07FE0E72EF12CE5
:1044C0008235E2E19E07A105B10509F467C090F5C8
:1044D000823422E19207A105B10509F45FC0B0F46E
:1044E0008A33E2E19E07A105B10509F457C08E3376
:1044F000F2E19F07A105B10509F450C0863322E11E
:104500009207A105B10509F04CC048C08A3432E1D8
:104510009307A105B10509F441C08E34E2E19E077D
:10452000A105B105D9F18634F2E19F07A105B105D6
:10453000C1F534C08E3522E19207A105B10571F1B4
:1045400098F48635E2E19E07A105B10539F18A3577
:10455000F2E19F07A105B10509F1843522E1920737
:10456000A105B105F1F41AC0863632E19307A10521
:10457000B105A1F038F48236F2E19F07A105B1053B
:1045800081F40CC08A3622E19207A105B10531F011
:10459000811533E19307A105B10519F458E0E52E23
:1045A000F12C8A509042A109B109833D9105A105E2
:1045B000B10530F08FEFE816F80629F40C941B32A1
:1045C00049E1E42EF12C80E094E00E945550B701BF
:1045D0000F2C000C880B990B0E94BE4F0E944F506D
:1045E0008CE296E00E945550BAE1EB16F10410F00F
:1045F0000C941732F7018827E758FF4F8F4F0D941F
:104600000E298091AE139091AF1381309105B1F4D2
:1046100010924C028FEF8093B71860E080E00F9407
:104620009F0D8EE094E00E94555081E09AE59093B2
:10463000FF138093FE138EE290E0D9C08230910583
:1046400009F0BEC081E080934C020F94690588E2B6
:1046500096E09093FE0E8093FD0E8BE090E0909399
:10466000FF138093FE1305E00093F21312E81093FA
:10467000F51380E092E1A0E0B0E08093F613909310
:10468000F713A093F813B093F9130E9401FF10924F
:10469000FF131092FE130093F2131093F5138EE0A4
:1046A00090E1A0E0B0E08093F6139093F713A0930D
:1046B000F813B093F9130E9401FF1092FF131092A8
:1046C000FE130093F2131093F5138FE090E1A0E036
:1046D000B0E08093F6139093F713A093F813B09380
:1046E000F9130E9401FF1092FF131092FE13009322
:1046F000F2131093F51386E190E1A0E0B0E080930F
:10470000F6139093F713A093F813B093F9130E9444
:1047100001FF62E070E080E090E00F94DF0710920C
:10472000FF131092FE130093F2131093F51380E120
:1047300090E1A0E0B0E08093F6139093F713A0937C
:10474000F813B093F9130E9401FF1092FF13109217
:10475000FE130093F2131093F51382E190E1A0E0B1
:10476000B0E08093F6139093F713A093F813B093EF
:10477000F9130E9401FF86E394E00E94555081E006
:104780009AE59093FF138093FE138DE290E090934F
:1047900001148093001487E08093F2131093F513B3
:1047A00084E890E0A0E0B0E08093F6139093F713D4
:1047B000A093F813B093F9130E9401FF0C941B32DD
:1047C00083309105F9F481E080934C028EE594E00A
:1047D0000E94555080910002882309F44BC381E068
:1047E0009AE59093FF138093FE138AE390E09093F1
:1047F00001148093001487E08093F21382E8809381
:10480000F513CECF049711F00C941B3210924C028A
:104810000C941B328091AE139091AF1381309105AF
:10482000D1F410924C0280910002882319F082E0AA
:1048300090E002C083E090E09093FF138093FE131A
:1048400085E08093F21382E88093F5138EE190E186
:10485000A0E0B0E0A9CF82309105E9F486E894E0C9
:104860000E94555081E080934C028091120E84305A
:1048700049F081E09AE59093FF138093FE1385E35E
:1048800090E0B5CF81E09AE59093FF138093FE13FB
:1048900086E390E0ACCF8330910509F04CC02091C5
:1048A0000002222319F19093FF138093FE1385E0F9
:1048B0008093F21382E88093F5138EE190E1A0E0FB
:1048C000B0E08093F6139093F713A093F813B0938E
:1048D000F9130E9401FF40E060E070E088EC92E490
:1048E0000F94C005109200020C941B3282E090E0FD
:1048F0009093FF138093FE1385E08093F21382E878
:104900008093F5138EE190E1A0E0B0E08093F61380
:104910009093F713A093F813B093F9130E9401FF3B
:1049200040E060E070E0CB010F94C00581E080932F
:1049300000020C941B32049711F00C941B328091EE
:1049400036088823F1F082E090E09093FF13809383
:10495000FE1385E08093F21382E88093F5138FE1D4
:1049600090E1A0E0B0E08093F6139093F713A0934A
:10497000F813B093F9130E9401FF109236080C94BB
:104980001B3283E090E09093FF138093FE1385E049
:104990008093F21382E88093F5138FE190E1A0E019
:1049A000B0E08093F6139093F713A093F813B093AD
:1049B000F9130E9401FF81E0809336080C941B32AA
:1049C0000091AE131091AF13B80180E090E00F9406
:1049D0003A226B017C0120E030E040E251E40F9488
:1049E000352287FD0DC020E030E04AEF53E4C701D7
:1049F000B6010F94772B181634F0902F812F05C035
:104A00009AE080E002C094EF81E090932C028093C2
:104A10002D020C941B328091A6139091A713A091A4
:104A2000A813B091A9138830E0E19E07A105B10554
:104A300009F092C08BEA94E00E9455508091AE1329
:104A40009091AF13803F910561F581E09AE59093D5
:104A5000FF138093FE1385E390E0909301148093FD
:104A6000001487E08093F21382E88093F51384E8C2
:104A700090E0A0E0B0E08093F6139093F713A0933A
:104A8000F813B093F9130E9401FF6091AE13709177
:104A9000AF1380E296E00E9495E58AE00E944A4FBB
:104AA000EAC081E09AE59093FF138093FE138DE2B4
:104AB00090E0909301148093001487E08093F213A8
:104AC00012E81093F51384E890E0A0E0B0E0809342
:104AD000F6139093F713A093F813B093F9130E9471
:104AE00001FF1092FF131092FE1305E00093F213E2
:104AF0001093F51380E190E1A0E0B0E08093F6130D
:104B00009093F713A093F813B093F9130E9401FF49
:104B10001092FF131092FE130093F2131093F513EB
:104B200082E190E1A0E0B0E08093F6139093F71358
:104B3000A093F813B093F9130E9401FF6091AE1394
:104B40007091AF1381E196E00E9495E58AE00E94A2
:104B50004A4F0F9469058FC08A30F0E19F07A10585
:104B6000B105E1F58091AE139091AF13813F9105AE
:104B700011F00C941B3281E09AE59093FF1380931F
:104B8000FE1386E390E0909301148093001487E075
:104B90008093F21382E88093F51384E890E0A0E01C
:104BA000B0E08093F6139093F713A093F813B093AB
:104BB000F9130E9401FF45ED54E06CED74E084E0D0
:104BC0000F94010260E080E49EE20F941F058BECDD
:104BD00094E09093FE0E8093FD0E4DC08C3090417A
:104BE000A105B10509F047C08091AE139091AF13B4
:104BF000019709F040C00F94C11C1092120E81E081
:104C000080934C028CE090E09093FF138093FE130E
:104C100085E08093F21312E81093F51384E190E19C
:104C2000A0E0B0E08093F6139093F713A093F813ED
:104C3000B093F9130E9401FF81E09AE59093FF136E
:104C40008093FE1385E390E0909301148093001409
:104C500087E08093F2131093F51384E890E0A0E0CE
:104C6000B0E08093F6139093F713A093F813B093EA
:104C7000F9130E9401FF8091A6139091A713A091B0
:104C8000A813B091A9138C309041A105B10511F082
:104C90000C941B328091AE139091AF13029711F0D8
:104CA0000C941B320F94C11C81E080934508109234
:104CB000120E80934C0281E09AE59093FF1380934B
:104CC000FE1382E590E093CD2091AE133091AF13A7
:104CD000B90180E090E037FF09C00F943A2220E04C
:104CE00030E040E857E40F94162902C00F943A22AE
:104CF00020E030E048EC52E40F94112A6B017C0173
:104D000020E030E040E151EC0F94772B87FD2DC07F
:104D100020E030E040E151E4C701B6010F943522B4
:104D200018161CF1A70196016091331C7091341C78
:104D30008091351C9091361C0F9416292091A40D5A
:104D40003091A50D4091A60D5091A70D0F949B2277
:104D500090580F94832ACB010F94400D82E195E087
:104D60009093FE0E8093FD0E28C020E030E048ECCA
:104D700052E46091331C7091341C8091351C9091E9
:104D8000361C0F949B220F94832A7093FF13609319
:104D9000FE1385E08093F21382E88093F51386E298
:104DA00090E1A0E0B0E08093F6139093F713A09306
:104DB000F813B093F9130E9401FF6091331C7091B6
:104DC000341C8091351C9091361C8E010B5E1F4F58
:104DD00023E041E00F94061D9F938F9383E096E0BC
:104DE0009F938F93045111091F930F930F94CD211B
:104DF000C8010E945F6E0F900F900F900F900F9060
:104E00000F900C941B328091AE139091AF130097CA
:104E100029F481E080934C020C941B32813091057F
:104E2000B1F480910002882349F081E09AE59093E3
:104E3000FF138093FE138CE390E0D9CC81E09AE5D8
:104E40009093FF138093FE138BE390E0D0CC8230DD
:104E50009105F9F283309105F9F48091000240E068
:104E6000882389F060E070E088EC92E40F94C0053C
:104E70001092000281E09AE59093FF138093FE1355
:104E800089E390E0B4CC60E070E0CB010F94C00502
:104E900081E080930002A3CC8530910559F540E074
:104EA00060E070E084E393E40F949D0646E060E0E8
:104EB00070E08CE892E40F949D0684EB90E0909370
:104EC000FF138093FE1305E00093F21312E8109392
:104ED000F51384E390E1A0E0B0E08093F6139093A3
:104EE000F713A093F813B093F9130E9401FF86E41F
:104EF00090E02DC08630910599F540E060E070E0CB
:104F000080E793E40F949D0646E060E070E08CED4E
:104F100092E40F949D0680EF90E09093FF138093AE
:104F2000FE1305E00093F21312E81093F51384E3E7
:104F300090E1A0E0B0E08093F6139093F713A09374
:104F4000F813B093F9130E9401FF8EE690E090935E
:104F5000FF138093FE130093F2131093F513DBC03D
:104F6000813F910511F00C941B3240E060E070E04D
:104F7000CB010F94C00541E060E070E0CB010F94DD
:104F8000C0051092000240E060E070E0CB010F9499
:104F90009D0646E060E070E0CB010F949D06109204
:104FA000FF131092FE1305E00093F21312E8109322
:104FB000F51384E390E1A0E0B0E08093F6139093C2
:104FC000F713A093F813B093F9130E9401FF61E067
:104FD00070E080E090E00F94DF071092FF131092D2
:104FE000FE130093F2131093F5138AE390E1A0E00F
:104FF000B0E08093F6139093F713A093F813B09357
:10500000F9130E9401FF61E070E080E090E00F94EE
:10501000DF0784E190E09093FF138093FE130093E9
:10502000F2131093F51384E190E1A0E0B0E08093D7
:10503000F6139093F713A093F813B093F9130E940B
:1050400001FF81E09AE59093FF138093FE1389E3BB
:1050500090E0909301148093001487E08093F21302
:105060001093F51384E890E0A0E0B0E08093F6138D
:105070009093F713A093F813B093F9130E9401FFD4
:1050800082E00C94143285EB94E00E945550C0905D
:10509000A613D090A713E090A813F090A913209125
:1050A000AE133091AF1382E3C81680E1D806E10455
:1050B000F104B1F52115310509F48CCB213031050E
:1050C000A9F440E060E070E0CB010F949D061092DF
:1050D000FF131092FE1385E08093F21382E8809311
:1050E000F51384E390E1A0E0B0E05ECB223031051F
:1050F00011F00C941B3246E060E070E0CB010F949D
:105100009D061092FF131092FE1385E08093F21318
:1051100082E88093F5138AE390E1A0E0B0E044CB0D
:1051200094E3C91690E1D906E104F10439F4B90118
:1051300080E090E00F943A2240E00DC0AAE3CA1646
:10514000A0E1DA06E104F10451F4B90180E090E055
:105150000F943A2246E00F949D060C941B32C11422
:10516000B3E1DB06E104F10421F530933F02209323
:105170003E02B901330F880B990B0F943C222AE0B1
:1051800037ED43E25CE30F949B222091090E3091AE
:105190000A0E40910B0E50910C0E0F949B226093BF
:1051A00038027093390280933A0290933B020C9438
:1051B0001B32E2E5CE16E2E1DE06E104F10431F451
:1051C00030930402209303020C941B32F4E5CF16B3
:1051D000F2E1DF06E104F10431F43093020220939E
:1051E00001020C941B32B90180E090E037FF09C046
:1051F0000F943A2220E030E040E857E40F9416295B
:1052000002C00F943A2220E030E048EC52E40F94C0
:10521000112A4B015C0122E4C21622E1D206E1040C
:10522000F10481F420E030E040E251E40F949B224D
:1052300060939C0D70939D0D80939E0D90939F0D98
:105240000C941B3236E4C31632E1D306E104F104B8
:1052500081F420E030E040E251E40F949B2260931F
:10526000A00D7093A10D8093A20D9093A30D0C94AB
:105270001B328AE4C81682E1D806E104F10491F4F5
:1052800020E030E040E251E4C501B4010F949B22DC
:105290006093A40D7093A50D8093A60D9093A70D18
:1052A0000C941B329EE4C91692E1D906E104F10484
:1052B00091F420E030E040E251E4C501B4010F94E4
:1052C0009B226093A80D7093A90D8093AA0D9093D3
:1052D000AB0D0C941B32A6E3CA16A2E1DA06E10478
:1052E000F10451F480922B1C90922C1CA0922D1C46
:1052F000B0922E1C0C941B32BAE3CB16B2E1DB0643
:10530000E104F10451F480922F1C9092301CA09281
:10531000311CB092321C0C941B32EEE3CE16E2E14B
:10532000DE06E104F10451F48092331C9092341CA7
:10533000A092351CB092361C0C941B32F6E5CF16A9
:10534000F2E1DF06E104F104B9F52CEA35EC47E2BD
:105350005EE36091291270912A1280912B12909134
:105360002C120F949B226B017C012CEA35EC47E256
:105370005EE3609125127091261280912712909120
:1053800028120F94112A2B013C0120E030E040E26A
:1053900051E4C501B4010F949B22609321127093D4
:1053A000221280932312909324122CEA35EC47E2C8
:1053B0005EE3C301B20123C02AE5C21622E1D20690
:1053C000E104F104C1F52CEA35EC47E25EE36091BB
:1053D000291270912A1280912B1290912C120F9405
:1053E0009B226B017C0120E030E040E251E4C501EA
:1053F000B4010F949B222CEA35EC47E25EE30F9454
:105400009B2260932512709326128093271290930B
:1054100028122CEA35EC47E25EE3C701B6010F948F
:10542000112A6093291270932A1280932B12909361
:105430002C120C941B323EE5C31632E1D306E10474
:10544000F10449F52CEA35EC47E25EE36091251260
:105450007091261280912712909128120F94112A90
:105460002CEA35EC47E25EE30F949B226093251211
:1054700070932612809327129093281220E030E038
:1054800040E251E4C501B4010F949B222CEA35ECB3
:1054900047E25EE3C4CF82E6C81682E1D806E104A3
:1054A000F104B9F52CEA35EC47E25EE36091620A5B
:1054B0007091630A8091640A9091650A0F949B220F
:1054C0006B017C012CEA35EC47E25EE360915E0AF9
:1054D00070915F0A8091600A9091610A0F94112A7D
:1054E0002B013C0120E030E040E251E4C501B40171
:1054F0000F949B2260935A0A70935B0A80935C0A14
:1055000090935D0A2CEA35EC47E25EE3C301B201F9
:1055100023C096E6C91692E1D906E104F10469F5C3
:105520002CEA35EC47E25EE36091620A7091630A0F
:105530008091640A9091650A0F949B226B017C0113
:1055400020E030E040E251E4C501B4010F949B2219
:105550002CEA35EC47E25EE30F949B2260935E0AEF
:1055600070935F0A8093600A9093610A2CEA35EC8D
:1055700047E25EE3C701B60130C0AAE6CA16A2E15F
:10558000DA06E104F10409F056C72CEA35EC47E2EB
:105590005EE360915E0A70915F0A8091600A90916B
:1055A000610A0F94112A2CEA35EC47E25EE30F946E
:1055B0009B2260935E0A70935F0A8093600A9093C7
:1055C000610A20E030E040E251E4C501B4010F94EB
:1055D0009B222CEA35EC47E25EE30F94112A60939C
:1055E000620A7093630A8093640A9093650A23C7E2
:1055F0008091AE139091AF13009709F40ACC8130DB
:10560000910509F04CC08091A716882319F083E01A
:1056100090E002C082E090E09093FF138093FE132D
:1056200085E08093F21382E88093F51385E490E19E
:10563000A0E0B0E08093F6139093F713A093F813D3
:10564000B093F9130E9401FF8AE090E09093FF135A
:105650008093FE1385E08093F21382E88093F51324
:1056600080E092E1A0E0B0E08093F6139093F7130E
:10567000A093F813B093F9130E9401FF0F940A0747
:10568000811103C083EF95E002C087EF95E090930E
:10569000FE0E8093FD0E82E08093130E0BC18230CC
:1056A000910509F0ADC081E080934C0288E0EBE306
:1056B000F8E0DF011D928A95E9F780E090E0A0E232
:1056C000B1E480933B0890933C08A0933D08B093CD
:1056D0003E0880933F0890934008A0934108B09300
:1056E000420884E690E09093FF138093FE1305E058
:1056F0000093F21312E81093F51384E590E1A0E013
:10570000B0E08093F6139093F713A093F813B0933F
:10571000F9130E9401FF20E030E040E251E4609183
:105720003F087091400880914108909142080F9481
:105730009B220F94832A7093FF136093FE130093B0
:10574000F2131093F51388E590E1A0E0B0E08093A8
:10575000F6139093F713A093F813B093F9130E94E4
:1057600001FF20E030E0A90160911A1270911B1234
:1057700080911C1290911D120F9417290F94832A67
:105780007093FF136093FE130093F2131093F513BD
:1057900086E390E1A0E0B0E08093F6139093F713D6
:1057A000A093F813B093F9130E9401FF80911E1289
:1057B00090911F129093FF138093FE130093F213A6
:1057C0001093F51384E390E1A0E0B0E08093F6132A
:1057D0009093F713A093F813B093F9130E9401FF6D
:1057E00062E070E080E090E00F94DF0781E09AE5EE
:1057F0009093FF138093FE1381E490E00C94C723F1
:105800008330910561F41092470881E09AE5909306
:10581000FF138093FE1387E490E00C94F723843009
:10582000910509F408C68530910549F44EE750E129
:1058300060E070E083EC94E00E94FCFFFCC50697FA
:1058400009F0F9C588E296E09093FE0E8093FD0E74
:105850008BE090E0A9C28091AE139091AF130197B5
:1058600011F510924C0281E09AE59093FF1380931A
:10587000FE138FE390E0909301148093001487E06F
:105880008093F21382E88093F51384E890E0A0E01F
:10589000B0E08093F6139093F713A093F813B093AE
:1058A000F9130E9401FF8091AE139091AF130297FC
:1058B00009F0C1C581E09AE59093FF138093FE1330
:1058C00080E490E00C94F7236091AE137091AF13D5
:1058D000FB013197EC30F10508F0B5C18827ED5692
:1058E000FF4F8F4F0D940E2980910E1280FFDDC562
:1058F000869580FDDDC5D9C52DEC3CEC4CEC5DE317
:105900006091331C7091341C8091351C9091361C31
:105910000F9417296B017C0120E030E040E151EC4D
:105920000F94772B87FD3EC220E030E040E151E448
:10593000C701B6010F94352218160CF0C0C532C24B
:105940002DEC3CEC4CEC5DE36091331C7091341C0D
:105950008091351C9091361C0F9416296B017C01A7
:1059600020E030E040E151EC0F94772B87FD1AC224
:1059700020E030E040E151E4C701B6010F94352248
:1059800018160CF0F8C50EC280E00E94C9E00F9412
:105990000A07811103C080EC95E002C084EC95E019
:1059A0009093FE0E8093FD0E82E08093130E81E0B3
:1059B0009AE59093FF138093FE1384E590E0909313
:1059C00001148093001487E08093F21382E880939F
:1059D000F51384E890E0A0E0B0E08093F613909394
:1059E000F713A093F813B093F9130E9401FFDAC1E3
:1059F00083E08093130E83E090E09093FF138093F5
:105A0000FE1385E08093F21382E88093F5138DE80E
:105A100090E1A0E0B0E08093F6139093F713A09389
:105A2000F813B093F9130E9401FFC12C31E1D32E7A
:105A3000E12CF12C05E012E81092FF131092FE13F6
:105A40000093F2131093F513C092F613D092F7134C
:105A5000E092F813F092F9130E9401FFB2E0CB0E2E
:105A6000D11CE11CF11CE2E3CE16E1E1DE06E1040B
:105A7000F10411F781E09AE59093FF138093FE13F0
:105A800085E590E0909301148093001487E0809363
:105A9000F21382E88093F51384E890E0A0E0B0E090
:105AA0008093F6139093F713A093F813B093F91320
:105AB0000E9401FF82E695E09093FE0E8093FD0E1A
:105AC00071C142E060E070E080E890E40F94280744
:105AD00040E060E070E080E393E40F94280741E049
