:100000000C947F250C94B0250C94B0250C94B0254D
:100010000C94B0250C94B0250C94B0250C94B0250C
:100020000C94B0250C94B0250C94B0250C94B025FC
:100030000C94B0250C94B0250C94B0250C94B025EC
:100040000C94B0250D949F650C94B0250C94B025AC
:100050000C94B0250C94B0250D94B84A0D94AF645F
:100060000C94B0250C94E35B0C94D95B0C94B025F4
:100070000C94B0250C94B0250C94B0250C94B025AC
:100080000C9471540C94B0250C94B0250C94B025AC
:100090000C94B0250C94B0250C94B0250C94B0258C
:1000A0000C94B0250C94B0250C9443540C94B025BA
:1000B0000C94B0250C94B0250C94B0250C941554D8
:1000C0000C94B0250C94B0250C94B0250C94B0255C
:1000D0000C94B0250C94B0250C94B0250C94B0254C
:1000E0000C94B025824C894C3C4D4D4E954F9E4F03
:1000F000AE4F195C1F5C315C415C495C795C4D5CC6
:10010000795C515C555C795C595C5D5C615C6A5CF6
:10011000795C755C41017D018702FF029F023D0110
:10012000A101A702D70155010D02FF017B01530177
:100130001702930189010503A501F501BF022701FB
:10014000A902B70123012B020503D902E102DD0157
:1001500063015902E3018902410233029B01F70264
:1001600095025D027901D702850113023302110263
:100170007301EF02084AD73B3BCE016E84BCBFFD42
:10018000C12F3D6C74319ABD56833DDA3D00C77F67
:1001900011BED9E4BB4C3E916BAAAABE0000008000
:1001A0003F05A84CCDB2D44EB93836A9020C50B98F
:1001B000918688083CA6AAAA2ABE000000803F07B4
:1001C000634236B79BD8A71A39685618AEBAAB55F2
:1001D0008C1D3CB7CC5763BD6DEDFD753EF61772B7
:1001E00031BF000000803F08000000BE9224491289
:1001F0003EABAAAA2ABECDCCCC4C3E00000080BEAD
:10020000ABAAAAAA3E00000000BF000000803F0089
:1002100000000000084178D3BB4387D1133D190E7D
:100220003CC3BD4282AD2B3E68EC8276BED98FE1E5
:10023000A93E4C80EFFFBE01C4FF7F3F00000000DD
:1002400000000C94555C0D9444840C94F9BF0D94FB
:1002500036840C94E6C30D94F32B0D94F8010D94A1
:1002600014300C94C2C30C94795C0D9401650D9408
:10027000A49C0D94800A0C945D5C0D94A6240D94AE
:1002800022550D94BA240D9480640D9462280C9428
:1002900006CE0C94894C0D9458250C947B890D94B2
:1002A000E42B0C94238B0D9424840D94C8240C947B
:1002B000D48B0C94F4BE0C9483CD0C943DCE0D9451
:1002C000D0270C9443BF0D9460870D9414780C9440
:1002D0008DBE0D9446480D94072E0C945CC80C946A
:1002E000195C0C9429860D94E3870C94F7890D947E
:1002F000F7010D94AC870D9421840D949D240D94E9
:100300006F210C94B7CC0C945A810D94C5870C9432
:1003100039B50D941D840C9401CE0D944B330D947E
:10032000FF770C94ECC30D9417840D943D250C9429
:10033000E0C30C947ECD0D9488870D94312F0D94DD
:1003400032360D94A9240C942BCE0D9428840C9451
:1003500027C70C943DC00C94415C0D94252D0D9441
:1003600077210C94B4BF0C9437CE0C941E930D944B
:1003700040840D94E4040C94F9C10C94CDBF0C940A
:1003800075BF0C9479CD0C94B3B80D9457210D948E
:100390007C270D945F210D94B1270C943F7F0C9422
:1003A0005E810C948EBF0C94954F0D94F52B0D949B
:1003B000AC240C944D5C0C94798C0D9456840C9464
:1003C00060810C9411BF0D946A870D9422250D94C1
:1003D000EF280C944D4E0D94781C0C94F8C30C949B
:1003E000615C0C94755C0D9443640D942C840C94A6
:1003F000AE4F0D94062A0D9453210C945CBF0D94BE
:10040000B2240C949E4F0C94495C0D946B210D9476
:100410004C2D0D9419640D94907B0D94AF240C9485
:1004200005C50D94D9870D94CF870D94A9250D94FA
:1004300013840C94A9800C94E2CB0D9423550C9456
:100440001B8B0C949CC10C941B930D949D220D94BA
:1004500046770C9444C40D9448840C94008A0C9400
:1004600031CE0D9473210D94F7870C94DCC60C9457
:100470001F5C0C94F2C30D94292D0D945A320C94E8
:100480009AC60D947E870C94824C0C94A1BF0D9457
:10049000B4080C9482C00C94C8C30C94DAC30D94B5
:1004A000869C0D94A0220D945D270C943C4D0D94D8
:1004B00019270D9465870D94E42E0D94A2870C9452
:1004C00026830D94572D0D94F72B0D94AD040D94A8
:1004D000A0030D94D8270C94FEC30C943C890C9473
:1004E0006DB40C942ABF0D94F92B0C941D8E0C94B2
:1004F000F5CB0C94E1900D945F030C9414C80D940B
:1005000018020D941E030D949B270C9405C00D94A6
:10051000A0240D9474870C948FB40C94F6BE0C94A4
:10052000EDCB0C9462810C949A890D9498870D946C
:10053000A4310C9488CD0C94595C0C946A5C0D9495
:10054000A3240C94515C0D9458310D9416250D94F0
:10055000B5240D943A840C94EBC60C947EC00C9494
:100560005C810D94DE040C94BBBE0C94E0BF0D9432
:1005700073250D949A220C94CEC30D94511F0D94A3
:1005800032840C94F3CB0C940BCE0C94D4C30D9406
:10059000E61D0C94EE890D94A6270C94A4BE0D9430
:1005A0007B210D946C640D9467210C948DCD0D947A
:1005B000B6870D944E840C9425CE0D9463210C9433
:1005C000CFC10D9452840D944E640C94C6C50D9405
:1005D0001C7A0D941F780C94F9CF0D948E250D94F0
:1005E000ED870D94051D0C94BED10D9453300D94E0
:1005F00090870C942CCA0D945B210D9441280D9486
:10060000BD240D9482550C94315C0D945B844E4155
:100610004E494E495459494E46CDCCCC3D0AD7237C
:100620003C17B7D13877CC2B329595E6241FB14FC4
:100630000A000020410000C84200401C4620BCBE09
:100640004CCA1B0E5AAEC59D7400407A10F35A0076
:10065000A0724E18090010A5D4E80000E8764817EB
:100660000000E40B54020000CA9A3B000000E1F5D0
:1006700005000080969800000040420F000000A096
:100680008601000000102700000000E803000000C1
:10069000006400000000000A0000000000010000EB
:1006A0000000002C76D888DC674F0823DFC1DFAE5E
:1006B00059E1B1B796E5E3E453C63AE65199769627
:1006C000E8E6C28426EB898C9B62ED407C6FFCEFF0
:1006D000BC9C9F40F2BAA56FA5F490055A2AF75C1E
:1006E000936B6CF9676DC11BFCE0E40D47FEF520D0
:1006F000E6B500D0ED902E03009435770500808498
:100700001E080000204E0A000000C80C33333333AB
:100710000F986E12831141EF8D2114893BE6551617
:10072000CFFEE6DB18D1844B381BF77C1D901DA44F
:10073000BBE424203284725E228100C9F124ECA142
:10074000E53D27434F4D4D554E49434154494F4E8A
:100750000044525952554E004552524F5253004593
:1007600043484F0047322F47332062616420706155
:1007700072616D65746572730A00536C6565702EE5
:100780002E2E005A2050726F6265205061737420C3
:100790004265640A005A2050726F6265205061738E
:1007A000742042656400486F6D6520585920666961
:1007B0007273740A00486F6D65205859204669723B
:1007C000737400205A3A200020593A200042656490
:1007D00020583A20004D65736820706F696E742050
:1007E00063616E6E6F74206265207265736F6C76E4
:1007F00065640A004E6F204D6F76652E00456E646D
:100800002066696C65206C6973740A0042656769CB
:100810006E2066696C65206C6973740A005265739A
:10082000756D696E6720534400286E6F2066696C91
:1008300065290043757272656E742066696C653A4D
:1008400020005072696E742074696D653A20000A48
:1008500053746174733A2046696C616D656E7420DF
:10086000757365643A20002C204C6F6E6765737455
:10087000206A6F623A2000546F74616C2074696D55
:10088000653A20002C204661696C65643A20002C92
:100890002046696E69736865643A20005072696E1B
:1008A00074733A200053746174733A200045202514
:1008B000530044454255473A004D313133205300EF
:1008C00042656420436F6F6C696E672E2E2E004266
:1008D00065642048656174696E672E2E2E00544D44
:1008E000334420456E64657234204F46462E0043E3
:1008F00048414D4245525F54454D50455241545533
:100900005245004D4F54494F4E5F4D4F44455300A3
:10091000544845524D414C5F50524F544543544901
:100920004F4E004155544F5245504F52545F53441F
:100930005F5354415455530050524F4D50545F53E0
:100940005550504F525400454D455247454E43591E
:100950005F50415253455200434153455F4C494714
:1009600048545F4252494748544E45535300544FF0
:1009700047474C455F4C494748545300534F4654F2
:10098000574152455F504F574552004255494C44DC
:100990005F50455243454E54004C4556454C494ED8
:1009A000475F44415441005A5F50524F4245004115
:1009B00055544F4C4556454C005052494E545F4A91
:1009C0004F420050524F4752455353004155544FE8
:1009D0005245504F52545F54454D5000564F4C5560
:1009E0004D45545249430042494E4152595F464990
:1009F0004C455F5452414E5346455200534552496F
:100A0000414C5F584F4E5F584F4646004649524D45
:100A1000574152455F4E414D453A4D61726C696E8A
:100A200020322E302E345F44573620544D3344202C
:100A30004534535344425520534F555243455F4329
:100A40004F44455F55524C3A68747470733A2F2F77
:100A50006769746875622E636F6D2F496E73616E7E
:100A60006974794175746F6D6174696F6E2F4D6132
:100A7000726C696E2F747265652F437265616C6963
:100A800074794477696E5F322E302050524F544F44
:100A9000434F4C5F56455253494F4E3A312E30200A
:100AA0004D414348494E455F545950453A544D33A2
:100AB0004420456E6465723420455854525544456F
:100AC000525F434F554E543A3120555549443A638D
:100AD000656465326132662D343161322D343734CC
:100AE000382D396231322D6335356336326633360F
:100AF0003766660A002F2F20004D31343520533CD5
:100B0000696E6465783E206F7574206F662072612F
:100B10006E67652028302D31290A00416363656CBA
:100B200065726174696F6E3A20500020466C6F7771
:100B30003A200050726F7465637465642050696E6A
:100B40000A00206F7574206F662072616E67650AF7
:100B50000020536572766F200020643A0020693AC5
:100B60000020703A006469730043290A0061626CD6
:100B7000656420286D696E2074656D702000436F78
:100B80006C64206578747275646573206172652089
:100B9000004D34323120696E636F72726563742068
:100BA000706172616D657465722075736167650A45
:100BB000004F666673657473204170706C6965647C
:100BC000004572723A20546F6F20666172210054A2
:100BD0006F6F206661722066726F6D207265666548
:100BE00072656E636520706F696E740A00454550CA
:100BF000524F4D204F4B0A003F4B2076616C75657C
:100C0000206F7574206F662072616E6765202830D2
:100C10002D3130292E0A00416476616E6365204BC8
:100C20003D00506F7765722D6C6F73732072656332
:100C30006F7665727920005F079B0E580751074356
:100C4000076563686F3A004572726F723A00202040
:100C50004D3432312049002020473239204939397A
:100C60000A006163746976650A00205379737465BC
:100C70006D2076312E303120002020207C0A004E5D
:100C8000414E0020202E20202000207C004C434498
:100C90003A0A004353563A0A0020666F7220003A1F
:100CA0000A0A000A42656420546F706F67726170AF
:100CB0006879205265706F72740050726F62696E4D
:100CC00067204661696C65640A0050726F62696EE4
:100CD00067204661696C656400446F6E652E0A008A
:100CE0003F496E76616C69642073746F72616765E9
:100CF00020736C6F742E0A3F557365203020746F1B
:100D000020004732392050322066696E6973686569
:100D1000642E0A005859206F7574736964652070D9
:100D200072696E7461626C65207261646975732E9C
:100D30000A003F4572726F7220696E2042757369B6
:100D40006E6573732043617264206D6561737572A3
:100D5000656D656E742E0A004D616E75616C6C79FF
:100D60002070726F62696E6720756E72656163686C
:100D700061626C65206D657368206C6F6361746976
:100D80006F6E732E0A0050726F62696E6720617217
:100D90006F756E642028004D65736820696E7661FA
:100DA0006C6964617465642E2050726F62696E674D
:100DB000206D6573682E0A004D657368207A657230
:100DC0006F65642E0A0044656661756C74207374E7
:100DD0006F7261676520736C6F7420302073656C6F
:100DE00065637465642E0A004C6F6164696E6720E8
:100DF000746573745F7061747465726E2076616C73
:100E00007565732E0A0A00496E76616C69642074F8
:100E10006573745F7061747465726E2076616C7551
:100E2000652E20282D3120746F2032290A0A004CAB
:100E30006F636174696F6E7320696E76616C69644B
:100E4000617465642E0A0A00456E74697265204DEE
:100E500065736820696E76616C6964617465642E7F
:100E60000A0A00726F746174696F6E206D6174722A
:100E700069783A0A00206D61783A00206D696E3A0F
:100E800000417869732000554E4B4E4F574E20530A
:100E9000544154450047434F44455F494E464F0037
:100EA0004C43445F50415553455F524553554D4562
:100EB0000046494C414D454E545F52554E4F555496
:100EC0005F434F4E54494E55450046494C414D45B0
:100ED0004E545F52554E4F5554004D3837362052C0
:100EE0006573706F6E64696E672050524F4D505439
:100EF0005F004572726F722077726974696E672045
:100F0000746F20454550524F4D210A006275737928
:100F10003A2070617573656420666F7220696E7027
:100F200075740A00627573793A207061757365642F
:100F300020666F7220757365720A00627573793A64
:100F40002070726F63657373696E670A004E6F205D
:100F5000436865636B73756D2077697468206C698D
:100F60006E65206E756D6265722C204C6173742005
:100F70004C696E653A2000636865636B73756D201C
:100F80006D69736D617463682C204C617374204CBF
:100F9000696E653A20004C696E65204E756D62651C
:100FA00072206973206E6F74204C617374204C69D9
:100FB0006E65204E756D6265722B312C204C61730D
:100FC00074204C696E653A20004D313130007761F4
:100FD00069740A0053442072656164206572726FFF
:100FE000720A002121204B494C4C206361757365C6
:100FF00064206279204B494C4C20627574746F6E8A
:101000002F70696E0A002121204B494C4C206361EE
:101010007573656420627920746F6F206D756368E5
:1010200020696E6163746976652074696D65202D31
:101030002063757272656E7420636F6D6D616E648E
:101040003A2000506C6561736520526573657400C9
:101050005052494E5445522048414C544544002575
:10106000533A20255300706F7765726F6666004BA8
:10107000494C4C45442E20005072696E74657220B4
:1010800068616C7465642E206B696C6C2829206320
:10109000616C6C6564210A00363726033C3D380ECE
:1010A0002E303E121A1C1808440AFF430809070094
:1010B00001486F74656E6420746F6F20636F6C6499
:1010C0000A00706175736564004D3630303A205403
:1010D0006F6F20436F6C6400726573756D6564009B
:1010E0004C6F61642046696C616D656E74205400BC
:1010F000496E736572742066696C616D656E7420EB
:10110000616E642073656E64204D3130380A005280
:101110006573756D696E6700473236204865617486
:10112000696E67204E6F7A7A6C65004732362048C8
:10113000656174696E67204265640057616974690E
:101140006E6720666F72206865617475702E0A0084
:101150004669786564204C656E67746820507269D2
:101160006D6500446F6E65205072696D696E670031
:101170004D616E75616C207072696D696E672E2E9F
:101180002E004732362043616E63656C6564004C07
:10119000656176696E6720473236003F537065633C
:1011A000696669656420582C5920636F6F726469A1
:1011B0006E617465206F7574206F6620626F756E46
:1011C00064732E0A003F2852296570656174207689
:1011D000616C7565206E6F7420706C6175736962E7
:1011E0006C653B206D757374206265206174206CA2
:1011F0006561737420312E0A003F53706563696620
:10120000696564206E6F7A7A6C652074656D7065AF
:10121000726174757265206E6F7420706C61757385
:1012200069626C652E0A003F537065636966696583
:10123000642066696C616D656E742073697A6520DF
:101240006E6F7420706C61757369626C652E0A0034
:101250003F537065636966696564207072696D6586
:10126000206C656E677468206E6F7420706C617599
:101270007369626C652E0A003F5370656369666925
:101280006564206E6F7A7A6C652073697A65206E6A
:101290006F7420706C61757369626C652E0A003F13
:1012A00052657472616374696F6E204D756C7469F8
:1012B000706C696572206D7573742062652073703F
:1012C000656369666965642E0A003F5370656369EA
:1012D000666965642052657472616374696F6E201B
:1012E0004D756C7469706C696572206E6F742070D6
:1012F0006C61757369626C652E0A003F537065639B
:101300006966696564206C617965722068656967E2
:101310006874206E6F7420706C61757369626C659F
:101320002E0A0043292E0A003F53706563696669DF
:101330006564206265642074656D706572617475A2
:101340007265206E6F7420706C61757369626C6574
:10135000202834302D00473236207374617274694E
:101360006E672E2E2E0A0025532025692F25690031
:101370005D0A0062656420706C616E65206E6F723C
:101380006D616C203D205B00436F756C64206E6F57
:101390007420636F6D706C657465204C534621003A
:1013A00054696C74696E67206D65736820706F692D
:1013B0006E7420003F4572726F722070726F6269A6
:1013C0006E6720706F696E742E2041626F7274694F
:1013D0006E67206F7065726174696F6E2E0A0025EA
:1013E0005320332F330054696C74696E67206D6528
:1013F00073682028332F33290A00255320322F33D6
:101400000054696C74696E67206D657368202832BA
:101410002F33290A00436F727265637465645F5AE3
:101420003D0054696C74696E6720506F696E74007A
:10143000255320312F330054696C74696E67206D19
:101440006573682028312F33290A00646F6E650A9E
:1014500000496E73756666696369656E74206461C0
:1014600074610A004578747261706F6C6174696EA2
:1014700067206D6573682E2E2E0053544F505045D3
:10148000442E20005072696E7465722073746F7000
:101490007065642064756520746F206572726F7268
:1014A000732E2046697820746865206572726F72A9
:1014B00020616E6420757365204D39393920746F51
:1014C00020726573746172742E202854656D706586
:1014D0007261747572652069732072657365742E0C
:1014E000205365742069742061667465722072658A
:1014F0007374617274696E67290A00212120535444
:101500004F502063616C6C65642062656361757324
:1015100065206F6620424C546F7563682065727257
:101520006F72202D207265737461727420776974F4
:1015300068204D3939390A005072696E74696E67D6
:10154000204F626A656374002553202569002F2FA0
:10155000616374696F6E3A00626567696E006275F7
:1015600074746F6E0073686F770050757267654DA5
:101570006F72650053656E64204D31303820746F92
:1015800020726573756D650A005265686561742027
:10159000446F6E6500526568656174696E670052DC
:1015A00065686561740048656174657254696D654C
:1015B0006F75740053656E64204D31303820746F40
:1015C0002068656174206E6F7A7A6C650A004E6FD0
:1015D0007A7A6C65205061726B6564000000803F10
:1015E000666632426666B042CCCC034366662F43E1
:1015F00000005B43504944204175746F74756E65FB
:10160000202A005049442D44202A005049442D49A5
:10161000202A005049442D50202A002002204661F3
:101620006374002002204D6178002002204D696E15
:10163000004175746F74656D700056547261762048
:101640004D696E00566D696E00566D6178204500DB
:10165000566D6178205A00566D6178205900566D9C
:101660006178205800416D6178204500416D6178B6
:10167000205A00416D6178205900416D61782058F1
:1016800000412D54726176656C00412D5265747273
:1016900061637400416363656C004A756E637469CD
:1016A0006F6E204465760050726F62652059204F3E
:1016B00066667365740050726F62652058204F66CD
:1016C00066736574004F7574616765205265636F5A
:1016D0007665727900436F6E6669677572617469C9
:1016E0006F6E003F0043616E63656C0045787472F5
:1016F00075646572730074696E796D616368696E93
:10170000657333642E636F6D00544D334420456E12
:101710006465723400323032302D30322D32380070
:10172000322E302E345F445736005072696E746525
:101730007220537461747300546865726D697374B8
:101740006F727300426F61726420496E666F005061
:1017500072696E74657220496E666F004D3130306B
:10176000300053746F70205072696E74005265734C
:10177000756D65205072696E74004368616E6765AF
:101780002046696C616D656E7400507265686561B4
:101790007420437573746F6D004261636B004D324A
:1017A00031004368616E6765204D65646961004181
:1017B000626F7574205072696E746572004D3630B8
:1017C00030204230004C6576656C696E6720546F3E
:1017D0006F6C73004E6F204D6564696100537461D6
:1017E0007274205072696E740043616E6E6F742063
:1017F000656E746572207375626469723A200005C3
:101800002E2E00206D61783A2000206D696E3A20FE
:1018100000656E7175657565696E672022006F6B76
:1018200000526573656E643A200025697920256948
:1018300064202569682025696D202569730023646B
:101840006566696E652044454641554C545F004BC2
:101850006420004B6920004B702000504944204117
:1018600075746F74756E652066696E6973686564FA
:10187000212050757420746865206C617374204B4E
:10188000702C204B6920616E64204B6420636F6E66
:101890007374616E74732066726F6D2062656C6F15
:1018A0007720696E746F20436F6E66696775726129
:1018B00074696F6E2E680A00504944204175746F38
:1018C00074756E65206661696C6564212074696D4C
:1018D000656F75740A000A20436C61737369632035
:1018E000504944200A00204B643A2000204B693ABA
:1018F0002000204B703A20000A204E6F206F766542
:101900007273686F6F740A002054753A2000204B80
:10191000753A200020643A200020626961733A2001
:1019200000504944204175746F74756E652073745E
:101930006172740A00504944204175746F74756E69
:1019400065206661696C6564212054656D706572FF
:10195000617475726520746F6F20686967680A002A
:10196000504944204175746F74756E6520666169D5
:101970006C656421204261642065787472756465C9
:1019800072206E756D6265720A00A1000000690028
:10199000A20000006300B00000000900C1000000C8
:1019A0004100C20000004100C30000004100C4002B
:1019B00000004100C50000004100C6000000414594
:1019C000C70000004300C80000004500C900000037
:1019D0004500CD0000004900D10000004E00D500B8
:1019E00000004F00D60000004F00D7000000780034
:1019F000DC0000005500DD0000005900E0000000A0
:101A00006100E10000006100E20000006100E3000D
:101A100000006100E40000006100E50000006100DA
:101A2000E60000006165E70000006300E8000000D8
:101A30006500E90000006500EA0000006500EB00B9
:101A400000006500EC0000006900ED000000690086
:101A5000EE0000006900EF0000006900F1000000E6
:101A60006E00F20000006F00F30000006F00F40051
:101A700000006F00F50000006F00F60000006F002E
:101A8000F80000006F00F90000007500FA00000087
:101A90007500FB0000007500FC0000007500FD00F3
:101AA00000007900FF0000007900040100004100FF
:101AB000050100006100060100004300070100006D
:101AC00063000C01000043000D01000063000E01E3
:101AD000000044000F0100006400110100006400D8
:101AE0001901000065001F010000670030010000BF
:101AF0004900310100006900410100004C00420131
:101B000000006C00430100004E00440100006E0024
:101B1000480100006E005901000072005A010000E7
:101B200053005B01000073005F010000730060015F
:101B300000005300610100007300650100007400A3
:101B40006F01000075007C0100007A007D0100003B
:101B50005A007E0100007A00920100006600E30254
:101B600000007800222000002E001E210000507886
:101B700022210000544D902100003C2D92210000B4
:101B80002D3EB02100000300BB21000004003C22D8
:101B900000007E00482200007E3D60220000213DC2
:101BA000612200003D00642200003C3D65220000EF
:101BB0003E3DF12300000700A03000003D0021F36E
:101BC00001000200C2F401000500A2000000EC00C8
:101BD000B0000000DF00E4000000E100F6000000BB
:101BE000EF00F7000000FD00FC000000F500E3023C
:101BF0000000EB0087030000A5008F030000F40045
:101C000098030000F2009E030000E300A30300001D
:101C1000F600A9030000F400AC030000E000AD03EF
:101C20000000E300B1030000E000B2030000E200A6
:101C3000B5030000E300B8030000F200BC0300009D
:101C4000E400BE030000E300C0030000F700C1038E
:101C50000000E600C3030000E500902100007F00C3
:101C6000922100007E001A220000E8001E220000DF
:101C7000F30088250000FF0002300000A1000C30B6
:101C80000000A2000D300000A3009B300000DE0029
:101C90009C300000DF00A03000003D00A1300000BB
:101CA000A700A2300000B100A3300000A800A430BB
:101CB0000000B200A5300000A900A6300000B3006B
:101CC000A7300000AA00A8300000B400A93000002E
:101CD000AB00AA300000B500AB300000B600AC305D
:101CE0000000B6DEAD300000B700AE300000B7DE59
:101CF000AF300000B800B0300000B8DEB1300000F6
:101D0000B900B2300000B9DEB3300000BA00B43020
:101D10000000BADEB5300000BB00B6300000BBDE0C
:101D2000B7300000BC00B8300000BCDEB9300000A5
:101D3000BD00BA300000BDDEBB300000BE00BC30CC
:101D40000000BEDEBD300000BF00BE300000BFDEC0
:101D5000BF300000C000C0300000C0DEC130000055
:101D6000C100C2300000C1DEC3300000AF00C4308B
:101D70000000C200C5300000C2DEC6300000C30053
:101D8000C7300000C3DEC8300000C400C930000006
:101D9000C4DECA300000C500CB300000C600CC3025
:101DA0000000C700CD300000C800CE300000C900E0
:101DB000CF300000CA00D0300000CADED1300000B1
:101DC000CADFD2300000CB00D3300000CBDED430ED
:101DD0000000CBDFD5300000CC00D6300000CCDED8
:101DE000D7300000CCDFD8300000CD00D930000063
:101DF000CDDEDA300000CDDFDB300000CE00DC309D
:101E00000000CEDEDD300000CEDFDE300000CF008F
:101E1000DF300000D000E0300000D100E1300000F1
:101E2000D200E2300000D300E3300000AC00E43028
:101E30000000D400E5300000AD00E6300000D50021
:101E4000E7300000AE00E8300000D600E9300000C6
:101E5000D700EA300000D800EB300000D900EC30A9
:101E60000000DA00ED300000DB00EF300000DC00A5
:101E7000F2300000A600F3300000DD00F430000076
:101E8000B3DEF7300000DCDEFA300000A6DEFB3007
:101E90000000A500FC300000B000FD300000A400F0
:101EA000074E0000FB0086510000FC004353000079
:101EB000FA0064FF0000A40065FF0000A50066FFB3
:101EC0000000A60067FF0000A70068FF0000A80050
:101ED00069FF0000A9006AFF0000AA006BFF000074
:101EE000AB006CFF0000AC006DFF0000AD006EFFAA
:101EF0000000AE006FFF0000AF0070FF0000B000F8
:101F000071FF0000B10072FF0000B20073FF00001B
:101F1000B30074FF0000B40075FF0000B50076FF49
:101F20000000B60077FF0000B70078FF0000B8009F
:101F300079FF0000B9007AFF0000BA007BFF0000C3
:101F4000BB007CFF0000BC007DFF0000BD007EFFE9
:101F50000000BE007FFF0000BF0080FF0000C00047
:101F600081FF0000C10082FF0000C20083FF00006B
:101F7000C30084FF0000C40085FF0000C50086FF89
:101F80000000C60087FF0000C70088FF0000C800EF
:101F900089FF0000C9008AFF0000CA008BFF000013
:101FA000CB008CFF0000CC008DFF0000CD008EFF29
:101FB0000000CE008FFF0000CF0090FF0000D00097
:101FC00091FF0000D10092FF0000D20093FF0000BB
:101FD000D30094FF0000D40095FF0000D50096FFC9
:101FE0000000D60097FF0000D70098FF0000D8003F
:101FF00099FF0000D9009AFF0000DA009BFF000063
:10200000DB009CFF0000DC009DFF0000DD009EFF68
:102010000000DE009FFF0000DF00E5FF00005C0025
:1020200000101010101010000014141414141400D8
:102030000015151515151500001C1F11111F0000A6
:102040000006191803130C00040E1F041C000000E6
:10205000000E1315110E00001C10181705060500C0
:10206000040A0A0A0A11110E0C12120C00000000D8
:10207000001F1511151F00002062797465733B2045
:10208000637263200053657474696E6773205374C0
:102090006F7265642028004E6F20454550524F4DA9
:1020A0002E0A00454550524F4D206461746173699A
:1020B0007A65206572726F722E0A003F4D657368F3
:1020C00020746F6F2062696720666F7220454550EB
:1020D000524F4D2E0A0055424C2072657365740AAA
:1020E00000206C6F616465642066726F6D2073748C
:1020F0006F726167652E0A004D65736820003F436B
:10210000616E277420656E61626C65200020696EC7
:10211000697469616C697A65642E0A0A00207374B7
:102120006F7265642073657474696E67732072657D
:1021300074726965766564202800202863616C6389
:10214000756C6174656429210A0020213D200045D9
:102150004550524F4D20435243206D69736D617459
:102160006368202D202873746F72656429200049EC
:102170006E6465783A2000204D61726C696E3D5640
:102180003736290A00454550524F4D207665727307
:10219000696F6E206D69736D6174636820284545B1
:1021A00050524F4D3D005072696E742050617573EE
:1021B0006564005061757365205072696E74002506
:1021C00068753A25303268750025303268753A25D1
:1021D000303268750020202020202020004D6564CA
:1021E00069612052656D6F766564004D6564696153
:1021F00020496E736572746564006E6F74696669F8
:10220000636174696F6E2000544D334420456E64E1
:102210006572342052656164792E005072696E7463
:10222000696E672E2E2E0063616E63656C005072BE
:10223000696E742041626F72746564004469736DE5
:102240006973730055492041626F72746564004D73
:10225000323520500A4D323400526573756D650079
:10226000554920506175736500726573756D650021
:102270004C6F6164206D6D00556E6C6F6164206DF4
:102280006D0046696C2E204469612E004520696E00
:10229000206D6DC2B3004D333033205531204525BC
:1022A0006920532569004F6666004F6E0054656DC6
:1022B00070657261747572650050726568656174ED
:1022C00020414253005072656865617420504C4152
:1022D00000536F667420456E6473746F7073004DA5
:1022E00038340044697361626C65205374657070A2
:1022F000657273004732380A4D343820503130004F
:102300004D34382050726F62652054657374004CF0
:102310006576656C20436F726E6572730047323864
:10232000205A00486F6D65205A0047323820590006
:10233000486F6D65205900473238205800486F6D4E
:10234000652058004175746F20486F6D65005072AC
:10235000656865617420504C41204265640050728C
:10236000656865617420504C4120456E6400507270
:1023700065686561742041425320456E6400507267
:102380006568656174204142532042656400436F73
:102390006F6C646F776E0020573A00496E76616CFF
:1023A00069642065787472756465720A007C3C3ECD
:1023B0005E2B3D3F2F5B5D3B2C2A225C0024F4D436
:1023C0003050C38E20C2A24017828B7011127A91B6
:1023D0000D816CD90AA861E108C7586607615143AD
:1023E000061E4B5D05C145A7041A411104093D981D
:1023F00003713931034036DB0265339102D4305426
:1024000002802E1D02632CEE01752AC501B028A0A2
:1024100001102781018F2564012B244B01E0223418
:1024200001AC211F018D200D01801FFC00841EEDD9
:1024300000971DDF00B81CD200E61BC600201BBCA5
:1024400000641AB200B219A8000A19A0006A18990B
:1024500000D117910040178B00B516840031167E0D
:1024600000B31579003A157300C7146F0058146A49
:1024700000EE1366008813630025135E00C7125B2D
:10248000006C12570015125400C111510070114F09
:102490000021114B00D61049008D10470046104412
:1024A0000002104200C00F4000800F3E00420F3C6F
:1024B00000060F3B00CB0E3800930E37005C0E3544
:1024C00000270E3400F30D3200C10D3100900D30A5
:1024D00000600D2E00320D2D00050D2C00D90C2BA7
:1024E00000AE0C2900850C29005C0C2700350C2758
:1024F000000E0C2600E80B2400C40B2400A00B23C4
:10250000007D0B23005A0B2100390B2100180B20F2
:1025100000F80A1F00D90A1E00BB0A1E009D0A1DF2
:1025200000800A1D00630A1C00470A1B002C0A1BBE
:1025300000110A1A00F7091A00DD091900C4091967
:1025400000AB091900920917007B091800630917ED
:10255000004C09160036091600200916000A091554
:1025600000F5081500E0081400CC081400B80814A1
:1025700000A4081400900813007D0812006B0813D3
:1025800000580812004608120034081100230811F0
:10259000001208110001081100F0071000E00710F8
:1025A00000D0071000C0071000B0070F00A10710EF
:1025B0000091070E0083070F0074070F0065070ED8
:1025C0000057070E0049070E003B070D002E070EAF
:1025D0000020070D0013070D0006070D00F9060C7B
:1025E00000ED060D00E0060C00D4060C00C8060C39
:1025F00000BC060C00B0060C00A4060B0099060CEB
:10260000008D060B0082060B0077060B006C060B94
:102610000061060A0057060B004C060A0042060A33
:102620000038060A002E060A0024060A001A060AC6
:10263000001006090007060A00FD050900F4050957
:1026400000EB050900E2050900D9050900D00509DC
:1026500000C7050900BE050900B5050800AD05085D
:1026600000A50509009C050800940508008C0508D4
:1026700000840508007C050800740508006C050747
:1026800000650508005D050700560508004E0507B2
:102690000047050700400508003805070031050719
:1026A000002A050700230507001C0506001605077C
:1026B000000F0507000805060002050700FB0406D9
:1026C00000F5040700EE040600E8040600E2040733
:1026D00000DB040600D5040600CF040600C904068A
:1026E00000C3040600BD040600B7040600B10405DB
:1026F00000AC040600A6040600A00405009B040626
:102700000095040500900406008A04050085040570
:1027100000800406007A04050075040500700405B5
:10272000006B04050066040500610405005C0405F7
:102730000057040500520405004D04050048040537
:1027400000430405003E0404003A04050035040576
:1027500000300404002C04050027040400230405B1
:10276000001E0404001A04040016040500110404E9
:10277000000D04040009040500040404000004041E
:1027800000FC030400F8030400F4030400F0030455
:1027900000EC030400E8030400E4030400E0030485
:1027A00000DC030400D8030400D4030400D00304B5
:1027B00000CC030400C8030300C503030024F40491
:1027C000D9201BC40C5C0E9804C4095F0265077114
:1027D00001F405F900FB04B30048048700C1036954
:1027E000005803550003034500BE023A008402313D
:1027F0000053022A002902250004022000E4011CE3
:1028000000C8011900AF01170098011400840113DA
:1028100000710110006101100051010E0043010D13
:102820000036010B002B010B0020010B00150109E4
:10283000000C01090003010800FB000800F3000878
:1028400000EB000700E4000600DE000600D80006EA
:1028500000D2000600CC000500C7000500C200053C
:1028600000BD000400B9000400B5000400B100047C
:1028700000AD000400A9000400A5000300A20003AD
:10288000009F0004009B00030098000300950002D5
:102890000093000300900003008D0002008B0003F2
:1028A000008800020086000200840003008100020C
:1028B000007F0002007D0002007B00020079000220
:1028C000007700010076000200740002007200012F
:1028D00000710002006F0002006D0001006C000238
:1028E000006A000100690002006700010066000143
:1028F0000065000100640002006200010061000147
:1029000000600001005F0002005D0001005C00014A
:10291000005B0001005A000100590001005800014D
:10292000005700010056000100550001005400014D
:10293000005300000053000100520001005100014B
:1029400000500001004F0001004E0000004E000149
:10295000004D0001004C0001004B0000004B000145
:10296000004A000100490001004800000048000141
:10297000004700010046000000460001004500003D
:102980000045000100440001004300000043000135
:10299000004200000042000100410000004100012F
:1029A00000400001003F0000003F0001003E000029
:1029B000003E0001003D0000003D0001003C000021
:1029C000003C0000003C0001003B0000003B000117
:1029D000003A0000003A000100390000003900010F
:1029E0000038000000380000003800010037000007
:1029F00000370001003600000036000000360001FC
:102A000000350000003500000035000100340000F2
:102A100000340000003400010033000000330000E7
:102A200000330001003200000032000000320001DB
:102A300000310000003100000031000100300000D2
:102A40000030000000300001002F0000002F0000C7
:102A5000002F0000002F0001002E0000002E0000BB
:102A6000002E0001002D0000002D0000002D0000B0
:102A7000002D0001002C0000002C0000002C0000A4
:102A8000002C0001002B0000002B0000002B000098
:102A9000002B0001002A0000002A0000002A00008C
:102AA000002A000100290000002900000029000080
:102AB0000029000000290001002800000028000073
:102AC0000028000000280000002800010027000066
:102AD0000027000000270000002700000027000159
:102AE000002600000026000000260000002600004E
:102AF0000026000100250000002500000025000040
:102B00000025000000250000002500010024000031
:102B10000024000000240000002400000024000124
:102B20000023000000230000002300000023000019
:102B30000023000000230000002300010022000009
:102B400000220000002200000022000000220000FD
:102B500000220001002100000021000000210000EF
:102B600000210000002100000021000000210001E0
:102B700000200000002000000020000000200000D5
:102B800000200000002000000020000000200001C4
:102B9000001F0000001F0000001F0000001F0000B9
:102BA000001F0000001F0000001F0001001E0000A9
:102BB000001E0000001E0000001E000000232C006C
:102BC00000B8220000561800003A0F0000B80800B4
:102BD00000B1040000710200003E01000020746F8B
:102BE0006F206C6F6E6720657874727573696F6E95
:102BF0002070726576656E7465640A0020636F6C80
:102C00006420657874727573696F6E207072657672
:102C1000656E7465640A00486F6D652025732573C1
:102C2000257320466972737400220A00556E6B6E1C
:102C30006F776E20636F6D6D616E643A202200497C
:102C40006E666F2053637265656E0047726964201B
:102C50004D657368204C6576656C696E6700473218
:102C600039204A3000332D506F696E74204C6576E0
:102C7000656C696E6700473239205033205220431B
:102C80002E2569004D616E75616C2046696C6C2D56
:102C9000696E0046696C6C2D696E20416D6F756EB2
:102CA00074004D65736820696E76616C6964617447
:102CB00065642E0A00473239204900496E76616CFE
:102CC000696461746520436C6F7365737400496E49
:102CD00076616C696461746520416C6C00473239BF
:102CE000205031204300436F6E74696E7565204239
:102CF0006564204D6573680046696C6C2D696E20B3
:102D00004D657368004275696C6420437573746F18
:102D10006D204D657368004732380A4D31393020D7
:102D2000533131300A4D31303920533234300A4773
:102D300032392050310A4D3130342053300A4D3170
:102D40003430205330004275696C64204D657368DF
:102D5000202841425329004732380A4D313930206A
:102D60005337300A4D31303920533138300A473229
:102D7000392050310A4D3130342053300A4D31342E
:102D800030205330004275696C64204D65736820B3
:102D900028504C4129004D313137204D6573682052
:102DA0002569204C6F6164656400473239204C25E9
:102DB00069004D313137204D6573682025692053F6
:102DC000617665640047323920532569004C6F6194
:102DD0006420426564204D657368004D656D6F72B7
:102DE0007920536C6F74004E6F2053746F7261675B
:102DF0006500486F6D696E672058595A004732392F
:102E000020503420582573205925732052256900FD
:102E1000202D2D2D2D2D00000000000000000000B1
:102E2000000000000066430000614300009643007C
:102E300000484200004842000080400202040000B6
:102E4000A0400000A04000000040FFFFFF00000085
:102E500001000000010000800055555500000040B1
:102E60000033333300AAAA2A00499224000000202C
:102E700000C7711C0099991900D1451700555515C7
:102E8000003BB11300244912001111110000001081
:102E9000000F0F0F00E3380E0043790D00CCCC0C6F
:102EA00000C3300C00E8A20B0064210B00AAAA0AA0
:102EB00000703D0A009DD80900427B090092240958
:102EC00000DCD308008888080010420800000008D1
:102ED00000F0C107008787070075500700711C07C5
:102EE000003EEB0600A1BC0600699006006666067F
:102EF00000703E06006118060017F4050074D10545
:102F0000005BB00500B290050062720500555505E2
:102F10000078390500B81E0500050505004EEC04D3
:102F20000087D40400A1BD040090A70400499204C6
:102F300000C17D0400EE690400C756040044440447
:102F4000005C320400082104004110040000000469
:102F5000003FF00300F8E0030026D20300C3C303E0
:102F600000CCB503003AA803000A9B0300388E0387
:102F700000C08103009F750300D0690300505E0309
:102F8000001D53030034480300913D030033330315
:102F90000016290300381F030097150300300C03A7
:102FA00000030303000BFA020049F10200BAE80231
:102FB000005CE002002DD802002DD0020059C802AA
:102FC00000B0C0020031B90200DAB10200AAAA02C0
:102FD00000A0A30200BC9C0200FA9502005C8F02D4
:102FE00000DF88020082820200457C020027760210
:102FF0000027700200436A02007C640200D05E0277
:10300000003F590200C85302005761726E696E6733
:103010003A20486F6D696E672042756D7020446973
:103020007669736F72203C20310A00416476616ECC
:103030006365642053657474696E677300436F6ED3
:1030400074696E756500554E4C4F41442046494C9D
:10305000414D454E540046494C414D454E54204348
:1030600048414E4745004C6F616420536574746954
:103070006E677300526573746F7265204465666194
:10308000756C74730053746F726520536574746942
:103090006E67730050726568656174204142532009
:1030A000436F6E66005072656865617420504C41D4
:1030B00020436F6E6600424C546F756368004D315B
:1030C00039305335350A4732380A47323950310AD8
:1030D00047323950330A47323953310A473239536C
:1030E000300A47323946302E300A473239410A4DCC
:1030F000313034533231350A4732380A4D313039A4
:10310000533231350A47315831353059313530462F
:10311000353030300A47315A300A4D3530300A4D9B
:103120003430300A4D31313720536574205A204FE6
:103130006666736574004D313036533132380A4D4E
:103140003330334338533231354530550A4D3530FD
:10315000300A4D313137205049442054756E652076
:10316000446F6E65004D3139305335350A4D31307D
:1031700034533231350A4732380A4732394C310A32
:1031800047312058313030593130304635303030C9
:103190000A47315A30004D3530300A4D3131372031
:1031A00053657474696E67732053746F726564003D
:1031B0005072657020666F72205A2041646A757380
:1031C00074005049442054756E65005365747570E1
:1031D000004D37303220542564004D3630302042C7
:1031E0003020542564004D373032203B2564004D9B
:1031F00037303120542564005075726765206D6F3B
:10320000726500524553554D45204F5054494F4E1D
:10321000533A005052494E542050415553454400B2
:1032200020204E6F7A7A6C653A2000256C642E253A
:10323000696D00457874727564656420546F7461BB
:103240006C004C6F6E67657374204A6F622054691E
:103250006D65003E2000546F74616C205072696E81
:10326000742074696D6500436F6D706C657465647E
:10327000005072696E7420436F756E740031353082
:10328000004245443A4154432031303447542D32B2
:103290000052756E617761792057617463683A20D6
:1032A0004F4E004D61782054656D7000343530000C
:1032B0004D696E2054656D7000350045313A2045EA
:1032C00050434F53203130304B0050535500476529
:1032D0006E657269630050726F746F636F6C00315A
:1032E0002E3000426175640032353030303000439A
:1032F0007265616C69747933442052414D505300BA
:103300005061726B696E672E2E2E00000057616946
:103310007420666F720066696C616D656E742063FF
:1033200068616E676500746F207374617274005712
:1033300061697420666F720066696C616D656E7498
:1033400020756E6C6F616400004E6F7A7A6C652038
:1033500068656174696E6700506C6561736520779C
:103360006169742E2E2E0000507265737320627591
:1033700074746F6E00746F2068656174206E6F7A6C
:103380007A6C650000496E736572742066696C61C1
:103390006D656E7400616E64207072657373206277
:1033A0007574746F6E00746F20636F6E74696E75E0
:1033B00065005761697420666F720066696C616DA3
:1033C000656E74206C6F61640000507265737320C9
:1033D000427574746F6E00746F20726573756D65DD
:1033E000207072696E7400005761697420666F7294
:1033F000207072696E7400746F20726573756D65EC
:103400002E2E2E00005761697420666F7200666967
:103410006C616D656E742070757267650000457330
:10342000746570732F6D6D005A73746570732F6DB2
:103430006D005973746570732F6D6D0058737465EA
:1034400070732F6D6D00496E6974004D3432380011
:10345000496E697469616C697A6520454550524FBF
:103460004D0043616E63656C204F626A6563740052
:1034700053746570732F6D6D0050726F6265204FCD
:10348000666673657473004A65726B0041636365B9
:103490006C65726174696F6E0056656C6F636974F8
:1034A000790053657420486F6D65204F66667365BB
:1034B0007473004E65787420506F696E74004E65A9
:1034C0007874004E4F005945530043616E63656C3C
:1034D000204F626A656374203D00436D643A205357
:1034E000572D4D6F646500436D643A2053746F77B8
:1034F00000436D643A204465706C6F7900436D64DD
:103500003A2053656C662D5465737400436D643ABC
:103510002052657365740046616E20537065656462
:103520000050726F6265205A204F666673657400A2
:10353000416476616E6365204B0046616E20537076
:10354000656564207E004D61696E004D3130392023
:10355000532569004D3139302053256900466C6F81
:1035600077004D65736820456469746F7200426529
:10357000642054656D7000486F74656E64205465F6
:103580006D70004732392050362043202D004865A9
:103590006967687420416D6F756E740041646A7567
:1035A0007374204D657368204865696768740047C7
:1035B000323920503420540046696E652054756EAF
:1035C0006520436C6F736573740047323620432067
:1035D0004225692048256920500056616C69646164
:1035E000746520437573746F6D204D657368004773
:1035F00032380A47323620432042313130204832B7
:10360000343020500056616C6964617465204D65EA
:103610007368202841425329004732380A4732361E
:103620002043204237302048313830205000566146
:103630006C6964617465204D6573682028504C4145
:103640002900473239204A2569004C6576656C208F
:103650004D657368005369646520506F696E7473BB
:103660000005000006010004000601000605000038
:10367000000600040070366B36663661364D6561B3
:103680006E204D657368204865696768743A20004C
:1036900023206F662073616D706C65733A20000A99
:1036A0004D657368206F6E6C79207061727469610A
:1036B0006C6C7920706F70756C617465642E0A0A89
:1036C0000050726F62696E6720506F696E74000AF5
:1036D00050726F62696E67206D65736820706F69E4
:1036E0006E74200020616E642074616B652061201F
:1036F0006D6561737572656D656E742E0A006D6D12
:1037000020746869636B2E0A00427573696E657375
:10371000732043617264206973200052656D6F7677
:10372000652026204D6561737572652042656400D1
:1037300052656D6F7665207368696D00506C6163CA
:1037400065207368696D20756E646572206E6F7A8E
:103750007A6C65004D65736820506F696E74204DFA
:10376000656173757265642061743A20000A4D6565
:103770007368206F6E6C79207061727469616C6C13
:103780007920706F70756C617465642E0A00506CDE
:10379000616365205368696D2026204D65617375EE
:1037A0007265004D6F76696E6720746F206E657864
:1037B00074004D6573682045646974696E672053B1
:1037C000746F7070656400446F6E65204564697441
:1037D000696E67204D6573680A00446F6E65204509
:1037E000646974696E67204D6573680046696E652B
:1037F0002054756E696E67204D6573680028582CDB
:103800005929206F757473696465207072696E74CC
:1038100061626C65207261646975732E0A004F667F
:1038200066736574206F7574206F6620626F756EA5
:1038300064732E20283020746F2031306D6D290A7A
:103840000A00496E76616C6964206D61702074793C
:1038500070652E0A0A003F28462961646520686564
:103860006967687420666F7220426564204C6576D3
:10387000656C20436F7272656374696F6E206E6F42
:103880007420706C61757369626C652E0A0A003F62
:1038900043616E2774206163746976617465206189
:1038A0006E64206465616374697661746520617417
:1038B000207468652073616D652074696D652E0ADA
:1038C0000A00426F7468205820262059206C6F63CC
:1038D0006174696F6E73206D7573742062652073F7
:1038E00070656369666965642E0A0A003F496E76F1
:1038F000616C696420677269642073697A65202845
:103900004A29207370656369666965642028322DD1
:1039100039292E0A0A003F285029686173652076EC
:10392000616C756520696E76616C69642028302D44
:1039300036292E0A0A003F2856296572626F736580
:10394000206C6576656C20696D706C617573696259
:103950006C652028302D34292E0A0A003F28522970
:10396000657065746974696F6E20636F756E74201D
:10397000696E76616C69642028312B292E0A0A0051
:10398000446F696E672047323900453100626564D3
:10399000002C2073797374656D2073746F7070657B
:1039A0006421204865617465725F49443A2000488B
:1039B000656174696E67204661696C65640048657D
:1039C0006174696E67206661696C6564004D3131B0
:1039D000322053687574646F776E00202D20496E15
:1039E00076616C6964206578747275646572206EA6
:1039F000756D62657220210A00544845524D414C54
:103A00002052554E4157415900546865726D616CA2
:103A10002052756E61776179004572723A204D418E
:103A20005854454D50004D415854454D50207472E6
:103A300069676765726564004572723A204D494E48
:103A400054454D50004D494E54454D5020747269B7
:103A5000676765726564004D383420582059205AD4
:103A6000204500202F002042403A0020403A0070BC
:103A7000012C0190012701B0012201C0011D01F0BC
:103A80000118011002130130020E016002090190B9
:103A9000020401C002FF000003FA004003F50080A9
:103AA00003F000D003EB002004E6007004E100E026
:103AB00004DC004005D700C005D2004006CD00D090
:103AC00006C8008007C3003008BE00F008B900C077
:103AD00009B400B00AAF00B00BAA00D00CA50000DA
:103AE0000EA000500F9B00C01096005012910000D5
:103AF000148C00C0158700B0178200B0197D00D06B
:103B00001B7800001E730040206E0090226900F0B8
:103B100024640040275F0090295A00E02B550010D4
:103B20002E500020304B0010324600E03341009010
:103B3000353C001037370070383200A0392D00B006
:103B40003A2800A03B2300603C1E00103D19009065
:103B50003D1400103E0F00703E0A00C03E050000FC
:103B60003F0000403FFBFF803FF6FFC03FF1FF10EA
:103B700000C90210012C014001220170011801B09E
:103B8000010E01F00104015002FA00B002F0003011
:103B900003E600D003DC009004D2007005C800A04A
:103BA00006BE000008B400B009AA00D00BA0006057
:103BB0000E960060118C000015820020197800C05C
:103BC0001D6E00A0226400B0275A00902C50000007
:103BD000314600E0343C0010383200903A28006052
:103BE0003C1E00A03D1400803E0A00203F00002043
:103BF00053697A653A200043616E6E6F74206F706E
:103C0000656E20737562646972200053442063619D
:103C10007264206F6B0A006F70656E526F6F742054
:103C20006661696C65640A00766F6C756D652E69F6
:103C30006E6974206661696C65640A00534420698A
:103C40006E6974206661696C0A004D3233202573F9
:103C50000046696C652073656C65637465640A0071
:103C600046696C65206F70656E65643A2000454E4C
:103C70004420535542524F5554494E450A00222084
:103C8000706F73002220706172656E743A22005367
:103C90005542524F5554494E452043414C4C207497
:103CA00061726765743A2200747279696E67207474
:103CB0006F2063616C6C207375622D67636F646540
:103CC0002066696C6573207769746820746F6F2053
:103CD0006D616E79206C6576656C732E204D415850
:103CE000206C6576656C2069733A310A0044656C16
:103CF0006574696F6E206661696C65642C20466925
:103D00006C653A200046696C652064656C65746575
:103D1000643A005344207072696E74696E67206261
:103D200079746520004E6F74205344207072696E60
:103D300074696E670A0057726974696E6720746FE0
:103D40002066696C653A2000667265736800646F6E
:103D5000696E67004E6F772000204A0020520045B0
:103D60004550524F4D20496E697469616C697A659E
:103D7000640A004D65736820736176656420696E1E
:103D800020736C6F7420003F556E61626C65207407
:103D90006F2073617665206D65736820646174615E
:103DA0002E0A0020736C6F743D00206D657368658A
:103DB000735F656E643D004532454E443D00206DA5
:103DC00065736820736C6F747320617661696C61D0
:103DD000626C652E0A003F496E76616C69642073DF
:103DE0006C6F742E0A004D657368206C6F6164659A
:103DF000642066726F6D20736C6F7420003F556E87
:103E000061626C6520746F206C6F6164206D6573F6
:103E10006820646174612E0A0048617264636F6493
:103E200065642044656661756C74205365747469BB
:103E30006E6773204C6F616465640A00556E696635
:103E400069656420426564204C6576656C696E67BF
:103E5000003B200020204D36303320002055004606
:103E6000696C616D656E74206C6F61642F756E6C2A
:103E70006F6164206C656E677468733A0020204D32
:103E8000393030204B004C696E6561722041647698
:103E9000616E63653A0020204D3835312058005A54
:103EA0002D50726F6265204F666673657400202026
:103EB0004D343133205300506F7765722D4C6F7342
:103EC00073205265636F766572793A0020204D3316
:103ED000303420500020204D3330312050005049E4
:103EE000442073657474696E67733A00204600203D
:103EF000480020204D3134352053004D61746572E7
:103F000069616C2068656174757020706172616DA3
:103F100065746572733A00206D65736865732E0A67
:103F20000A00454550524F4D2063616E20686F6C0A
:103F3000642000416374697665204D657368205381
:103F40006C6F743A200020204D3432302053002012
:103F5000204D323036205800486F6D65206F666600
:103F60007365743A0020204D3230352042004164A0
:103F700076616E6365643A20423C6D696E5F73657D
:103F8000676D656E745F74696D655F75733E205310
:103F90003C6D696E5F66656564726174653E205450
:103FA0003C6D696E5F74726176656C5F66656564B1
:103FB000726174653E204A3C6A756E635F64657623
:103FC0003E0020204D323034205000416363656C48
:103FD00065726174696F6E2028756E6974732F73D2
:103FE00032293A20503C7072696E745F6163636578
:103FF0006C3E20523C726574726163745F616363EE
:10400000656C3E20543C74726176656C5F616363DD
:10401000656C3E0020204D3230312058004D6178D3
:10402000696D756D20416363656C65726174696F5C
:104030006E2028756E6974732F7332293A00202020
:104040004D3230332058004D6178696D756D2066B2
:1040500065656472617465732028756E6974732F69
:1040600073293A0053746570732070657220756E01
:1040700069743A0020204D3230302044300A00204C
:10408000204D3230302044002044697361626C65F9
:10409000640A0046696C616D656E742073657474A2
:1040A000696E67733A0020204D3134392043203B3C
:1040B00020556E69747320696E2043656C73697551
:1040C000730A0020286D6D290020204732312020FE
:1040D00020203B20556E69747320696E206D6D0041
:1040E000486F6D696E67204661696C6564006F702A
:1040F000656E00545249474745524544007A5F6D0A
:10410000696E00795F6D696E00785F6D696E00524F
:1041100065706F7274696E6720656E6473746F701A
:10412000207374617475730A0020423A0020436F53
:10413000756E7420413A0000803B4400803B44008F
:10414000002041000096420000A0420000A0420072
:1041500000C8430000BE42D0070000D00700006442
:104160000000004B0000004D313030302053007013
:10417000726F6D70745F00656E64002020506C611A
:104180006E6E657242756666657242797465733AE1
:1041900020002046726565204D656D6F72793A206A
:1041A00000436F6D70696C65643A204D6172202028
:1041B0003820323032300A00204C61737420557040
:1041C00064617465643A20323032302D30322D32E1
:1041D00038207C20417574686F723A2054696E797A
:1041E0004D616368696E657333440A00322E302E68
:1041F000345F4457360A004D61726C696E0020537B
:104200006F6674776172652052657365740A002069
:104210005761746368646F672052657365740A0040
:104220002042726F776E206F7574205265736574CB
:104230000A002045787465726E616C205265736562
:10424000740A00506F77657255700A006175746F5B
:1042500025632E6700473238585900446F6E652039
:104260007072696E74696E672066696C650A004DCC
:104270003331004D30513153313830300065727276
:104280006F722077726974696E6720746F20666937
:104290006C650A00446F6E6520736176696E6720F5
:1042A00066696C652E0A004D32390025532025635E
:1042B00020256320256320256300205A3A002059D9
:1042C0003A0020583A00656E6473746F707320680A
:1042D00069743A2000FFFDFCFAF8F6F4F2F0EEEC17
:1042E000EAE9E7E5E3E1E0DEDCDAD9D7D5D4D2D0FC
:1042F000CFCDCBCAC8C7C5C3C2C0BFBDBCBAB9B792
:10430000B6B4B3B2B0AFADACAAA9A8A6A5A4A2A1F9
:10431000A09E9D9C9A99989795949392908F8E8D3C
:104320008B8A8988878684838281807F7E7D7B7A61
:10433000797877767574737271706F6E6D6C6B6A65
:10434000696867666564636261605F5E5D5C5B5A55
:104350005958585756555453525150504F4E4D4C32
:104360004B4A4A4948474646454443424241403FFA
:104370003E3E3D3C3B3B3A393838373635353433B1
:1043800032323130302F2E2E2D2C2B2B2A2929285A
:10439000272726252524232322212120201F1E1EF6
:1043A0001D1C1C1B1B1A1919181817161615151485
:1043B000131312121111100F0F0E0E0D0D0C0C0B0A
:1043C0000A0A090908080707060605050404030385
:1043D0000202010000446966663A200046726F6D71
:1043E0005374703A00537465707065723A00556E7C
:1043F0004C6576656C3A004C6576656C65643A0090
:104400005261773A20202020000A4C6F676963616F
:104410006C3A00436F756E7420453A004361703A00
:10442000004D302053746F70004D312053746F7005
:1044300000436C69636B20746F20526573756D6502
:104440002E2E2E0050726F6265204F666673657463
:10445000205A0050726F6265204F66667365745A09
:104460003A20003F5A206F7574206F662072616E8B
:1044700067652028003F59206F7574206F66207291
:10448000616E676520282D003F58206F7574206F7E
:10449000662072616E676520282D0050726F62651C
:1044A000204F6666736574205800473239205034B7
:1044B00020523939392054004732380A47323920DE
:1044C0005031004D6F74696F6E00473238004732CB
:1044D0003920532D31004F6666205072696E746525
:1044E00072204261636B757000473239205431008D
:1044F0004F757470757420666F7220435356004771
:104500003239205430004F757470757420666F72A4
:1045100020486F73740045646974204D65736800AA
:1045200047323920493939390A4732392050322047
:1045300042205430004D616E75616C6C792042757B
:10454000696C64204D65736800372E205361766571
:1045500020426564204D65736800362E2046696EE2
:10456000652054756E6520416C6C00352E205661B7
:104570006C6964617465204D65736800342E204653
:10458000696E652054756E6520416C6C00332E2079
:1045900056616C6964617465204D657368004732CB
:1045A0003920503320543000322E20536D61727404
:1045B0002046696C6C2D696E00312E204275696C45
:1045C0006420436F6C64204D6573680046616465C8
:1045D00020486569676874004732392057004F7575
:1045E000747075742055424C20496E666F005542B8
:1045F0004C20546F6F6C73004F7574707574204D40
:10460000657368204D6170004D6573682053746F49
:1046100072616765004D6573682045646974005375
:104620007465702D42792D537465702055424C008D
:1046300047323920410041637469766174652055C1
:10464000424C004732392044004465616374697606
:104650006174652055424C003F4A206F7574206F8D
:10466000662072616E67652028302E303120746FAD
:1046700020302E33290A00204D39322058002020C6
:104680004D61783A200020204D696E3A2000536F2A
:10469000667420656E6473746F70733A20004D32D7
:1046A000342053256C642054256C64004739322E25
:1046B00039204525730047312046256400473932AB
:1046C0002E39205A2573004731205A302046323087
:1046D0003000473120582573205925732046333048
:1046E0003030004D34323020532569205A25730074
:1046F0004D3130362050256920532569004D323028
:104700003020442573004739322E392045305A3045
:104710000A47315A320A47323852305859004D341C
:104720003230205330205A300020496E76616C6957
:104730006420657874727564657220005072696EC9
:10474000742066726F6D204D65646961004D6F76EF
:10475000652025736D6D004D6F766520302E316DAF
:104760006D004D6F766520316D6D004D6F76652063
:1047700031306D6D004D6F7665204178697300486A
:104780006F74656E6420746F6F20636F6C64004596
:1047900078747275646572004D6F7665205A004DAD
:1047A0006F76652059004D6F766520580000002116
:1047B00000240027002A002D0030003300010100F2
:1047C00000040107010A0100002200250028002B37
:1047D000002E003100340002010000050108010B29
:1047E00001000020002300260029002C002F0032A9
:1047F0000000010000030106010901050505050788
:104800000508080808020202020A0A08080404044B
:104810000401010101010101010303030303030377
:1048200003040707070C0C0C0C0C0C0C0C02020206
:104830000206060606060606060B0B0B0B0B0B0BF9
:104840000B01021020200808102040102040800298
:1048500001020108040201010204081020408080C6
:10486000402010080402018004020180402010084A
:104870000402010804020101020408102040800122
:104880000204081020408000000A0B02090C0D0EE3
:104890000807030401000000000000000000000001
:1048A0000000000000000000000000000000000008
:1048B00000000012111000000000000000000000C5
:1048C000000000000000000000000000003F45451F
:1048D00050524F4D2073746F72616765206E6F7414
:1048E00020617661696C61626C652E0A00537461A7
:1048F0006E6461726420446576696174696F6E3AB2
:1049000020004F46460A0046616465204865696795
:1049100068742000426564204C6576656C696E673A
:1049200020004661696C656420746F20656E616269
:104930006C6520426564204C6576656C696E670A1B
:1049400000496E76616C6964206D6573682E0A009B
:1049500076616C69640A53746F7261676520736C69
:104960006F743A20004D65736820697320003F49D9
:104970006E76616C69642073746F72616765207311
:104980006C6F742E0A00446576696174696F6E00FD
:1049900025533A202573002052616E67653A200046
:1049A0004D65616E3A200046696E697368656421E1
:1049B0000A002072616E67653A2000207369676D96
:1049C000613A2000206D65616E3A20003A207A3A03
:1049D0002000206F662000476F696E6720746F3A71
:1049E00020580043570A00206469723A0020616E23
:1049F000676C653A00537461727420726164697502
:104A0000733A004D343820506F696E740025533A64
:104A10002025642F256400506F736974696F6E6977
:104A20006E67207468652070726F62652E2E2E0A84
:104A3000003F4E756D626572206F66206C6567730E
:104A400020696E206D6F76656D656E74206E6F7473
:104A500020706C61757369626C652028302D31356A
:104A6000292E0A003F2028582C5929206F757420C0
:104A70006F6620626F756E64732E0A003F53616D1E
:104A8000706C652073697A65206E6F7420706C613C
:104A9000757369626C652028342D3530292E0A0023
:104AA0004D3438205A2D50726F6265205265706502
:104AB00061746162696C69747920546573740A0069
:104AC0003F2856296572626F7365206C6576656C48
:104AD00020696D706C61757369626C652028302D7A
:104AE00034292E0A006F70656E206661696C6564FA
:104AF0002C2046696C653A20000037014F021124D2
:104B00001FBECFEFD1E2DEBFCDBF00E00CBF13E090
:104B1000A0E0B2E0ECECFEE503E00BBF02C00790C2
:104B20000D92A437B107D9F728E1A4E7B3E001C09B
:104B30001D92A130B207E1F715E2CEE7D5E200E021
:104B400006C021970109802FFE010F946BAACD3773
:104B5000D10780E00807A9F70F9446950D9454AF4C
:104B60000C9400002F923F924F925F926F927F922F
:104B70008F929F92AF92BF92CF92DF92EF92FF926D
:104B80000F931F93CF93DF93CDB7DEB7E4970FB6A4
:104B9000F894DEBF0FBECDBF8BAB20914D1228AB7A
:104BA00021E020934D1280916B128D3409F488C35B
:104BB000843511F40C949D37873411F00C94A4378C
:104BC0008091691290916A128B31910509F41AC192
:104BD000B4F48430910534F482309105DCF597FF0C
:104BE0002DC06AC38531910511F40C94A6378A3122
:104BF000910509F403C1049709F05EC3C0C08A326D
:104C0000910509F4A7C254F48D31910509F424C12A
:104C10000CF412C14E9709F423C14EC38B35910594
:104C200009F4E2C18C35910509F4E3C18A35910597
:104C300009F042C3109282030C94A637809154026B
:104C4000882311F40C94A6370F940A810F94421311
:104C50000C94A63720915402222311F40C94A63709
:104C600011E0029709F010E00F940A8119821A826C
:104C70001B821C821D821E821F82188682E50E9472
:104C8000F73D882309F44BC00E94753D6B017C0100
:104C900020E030E0A9010F9470A3882309F455C0E7
:104CA00080917D0690917E06A0917F06B09180064E
:104CB0008CA39DA3AEA3BFA3809181069091820691
:104CC000A0918306B09184068CA79DA7AEA7BFA72D
:104CD0008090520690905306A0905406B0905506CE
:104CE00040905606509057066090580670905906AE
:104CF000A50194016CA17DA18EA19FA10F9470A329
:104D000081110C94AF37A30192016CA57DA58EA5EE
:104D10009FA50F9470A38823C1F00C94AF3789E44A
:104D20000E94F73D882331F00E94753D69837A83A4
:104D30008B839C838AE40E94F73D882331F00E9494
:104D4000753D6D837E838F83988720E030E0A901D5
:104D500069817A818B819C810F9470A381110C945D
:104D6000633820E030E0A9016D817E818F819885D4
:104D70000F9470A381110C9463380C94763880E5FD
:104D80000E94F73D882329F00F9452806B017C012B
:104D900003C0C12CD12C760183E50E94F73D882306
:104DA00061F00E94753D20E030E04AE754E40F9442
:104DB000D6A30F94E7AB6B017C010F94496A8091F5
:104DC0003905811105C060E08AE797E00E941DB4B3
:104DD0000F943A88C60ED71EE81EF91E0F943A8823
:104DE000DC01CB018C199D09AE09BF09B7FD02C0DA
:104DF0000C94A63780E00E94E255F0CF0E94126426
:104E00000C94A6370F94160081110C94A6378CE0F1
:104E1000EFE7F2E0DE01119601900D928A95E1F73D
:104E200060E070E080E50F94B67EBE016F5F7F4F5B
:104E30000E949AB00C94A6378091A40E8770873098
:104E400011F00C947D3860E08FE40E94F65F8111D0
:104E50000C94A6370C947D380E94DD480C94A6373C
:104E600020913D1230913E1240913F1250914012DC
:104E700060917D0670917E0680917F0690918006FC
:104E80000F9474AAAB01BC0188E50E945498698311
:104E90007A838B839C8320914112309142124091FE
:104EA0004312509144126091810670918206809164
:104EB0008306909184060F9474AAAB01BC0189E526
:104EC0000E9454986D837E838F839887BE016B5FA9
:104ED0007F4FCE0101960E949D3E882311F40C94D1
:104EE000A63780E00E94A1410F94051061E085E49F
:104EF0000E94F65F182F01E021E041E0682FCE010B
:104F000001960E943F466B017C019B01AC010F940E
:104F1000C1AD81115FC089809A80AB80BC8020E0E8
:104F200030E0A901C501B4010F9470A387FF05C04B
:104F300027E137EB41E558EB04C027E137EB41E5CA
:104F400058E3C501B4010F9474AAAB01BC018DEC08
:104F500097E00E940A468D809E80AF80B88420E052
:104F600030E0A901C501B4010F9470A387FF05C00B
:104F700027E137EB41E558EB04C027E137EB41E58A
:104F800058E3C501B4010F9474AAAB01BC0188ECCD
:104F900097E00E940A4620E030E0A901C701B6016F
:104FA0000F9470A387FF05C027E137EB41E558EB6D
:104FB00004C027E137EB41E558E3C701B6010F9480
:104FC00074AAAB01BC0183EC97E00E940A468AE018
:104FD0000E949F540F94EC0F113011F40F945967F5
:104FE0000F9434600C94A6378FE0809382030C9466
:104FF000A63780916812882349F1893009F0A6C04C
:105000004FE0A42E43E0B42E5DE7E52E56E0F52EEA
:10501000D12C00E010E0D5018D915D010E94F73D9B
:10502000882369F00E94753DF70160837183828354
:105030009383133011F401E002C0DD24D3941F5F89
:10504000F4E0EF0EF11C143031F775C09FE0292E0B
:1050500093E0392E28E9E22E2EE0F22E2DE736E0FD
:105060003DA32CA33CE8C32E3EE0D32E00E010E08D
:10507000D1018D911D010E94F73D882309F44BC099
:105080000E94753D2B013C01133049F0F60120814F
:105090003181428153810F9473AA2B013C01ACA151
:1050A000BDA12D913D914D915C91C301B2010F9431
:1050B00073AA4B015C012DEB37E346E855EB0F94E7
:1050C000D4AC87FD0AC02DEB37E346E855E3C501B4
:1050D000B4010F9470A31816F4F4133051F44092F5
:1050E000890650928A0660928B0670928C0601E0C7
:1050F00012C0A5019401F7016081718182819381C1
:105100000F9474AAD7016D937D938D939C931397FD
:10511000812F0F94180F1F5FB4E0EB0EF11CECA170
:10512000FDA13496FDA3ECA3F4E0CF0ED11C143006
:1051300009F09ECF05C0DD2019F00F94101206C0B3
:10514000002321F089E896E00F945A6A0F943460A6
:105150000C94A63780915402882311F40C94A6373E
:1051600089E40E94F73D082F882321F00E94713DB9
:10517000E82E01C0E12C8AE40E94F73D182F882315
:1051800021F00E94713DF82E01C0F12C002319F08E
:1051900025E02E1528F0112349F035E03F1530F4B5
:1051A00085ED97E00E94B4430C94A63780E1EDE7CB
:1051B000F6E0A2E5B6E001900D928A95E1F70023B2
:1051C00059F08E2D0E94683F6093520670935306EB
:1051D0008093540690935506112359F08F2D0E9409
:1051E000683F6093560670935706809358069093D5
:1051F000590660E080E50E94F65F8823C1F1002334
:10520000D1F020913D1230913E1240913F125091C9
:10521000401260915206709153068091540690910D
:1052200055060F9473AA60935206709353068093A9
:105230005406909355061123D1F0209141123091DC
:10524000421240914312509144126091560670915F
:10525000570680915806909159060F9473AA60934F
:10526000560670935706809358069093590640E06F
:1052700050E0BA0186E40E9454986B017C0120E062
:1052800030E0A9010F94D4AC18164CF420E030E0C3
:1052900040E752E4C701B6010F946EAB03C060E073
:1052A00070E0CB0169837A838B839C83CE01019666
:1052B0000F94111C0C94A6370E94F2FF0C94A63791
:1052C0008091691290916A128837910509F4D7C7C5
:1052D0000CF087C18C34910509F481C40CF098C09E
:1052E0008A31910509F46FC3B4F58431910509F44D
:1052F000BAC294F48131910509F4A1C244F4029731
:1053000010F00C949A370F945B740C94A637429764
:1053100009F4B6C60C949A378731910509F4C8C2CE
:105320008CF48531910509F4BFC2469711F00C94B5
:105330009A370F94D35680913816877F809338160A
:105340000C94A6378831910509F4C9C2499709F42C
:105350002FC30C949A378032910509F4C0C3ECF541
:105360008D31910509F4A4C384F48B31910509F4BE
:1053700038C34C9711F00C949A3780911F05909187
:1053800020050F948A5A0C94A6378E31910509F4A2
:1053900096C34F9711F00C949A370E94E9AC6C8F2A
:1053A0007D8F8E8F9F8FBE016F5F7F4FCE014C969A
:1053B0000E94CC9D60E0CE0101960E94CEB40E9476
:1053C0007948BE016F5F7F4F82E498E00E942846D3
:1053D0008AE00E949F540C94A6378033910509F40B
:1053E000E7C34CF48132910509F4A2C38A9709F40A
:1053F000B1C30C949A378934910509F4DDC38B3419
:10540000910511F00C949A370E94C3510C94A63761
:105410008B36910509F431C5F4F58435910509F40D
:105420002FC604F58135910509F407C654F48D346F
:10543000910509F4D8C38E34910509F4D8C30C94AE
:105440009A378235910509F414C68335910511F018
:105450000C949A37809182038F7E806280938203BE
:105460000C94A6378836910509F454C454F4853554
:10547000910509F408C68C35910509F427C60C94EA
:105480009A378936910509F4C0C48A36910509F422
:10549000D0C40C949A378137910509F455C5DCF4D2
:1054A0008E36910509F4F8C45CF48C36910511F43C
:1054B0000C94A6378D36910509F451C40C949A3793
:1054C0008F36910509F4FBC48037910511F40C94D3
:1054D000A6370C949A378537910509F484C60CF0E9
:1054E00073C08237910509F47BC68337910511F0AB
:1054F0000C949A378CE09AE00E94B44360E08CEF01
:1055000099E00F94FC7460E087EE99E00F94FC74CE
:1055100061E08BE594E30F94FC7461E08CED99E01D
:105520000F94FC7461E08CEC99E00F94FC7460E0E3
:1055300083EC99E00F94FC7461E089EB99E00F949F
:10554000FC7461E08FEA99E00F94FC7461E087EAF3
:1055500099E00F94FC7461E089E999E00F94FC7480
:1055600061E08BE899E00F94FC7460E08CE799E0CF
:105570000F94FC7460E08EE699E00F94FC7460E098
:1055800088E599E00F94FC7461E087E499E00F945A
:10559000FC7461E088E399E00F94FC7461E083E2BD
:1055A00099E00F94FC7461E080E199E00F94FC7441
:1055B00060E083E099E00F94FC7460E08FEE98E087
:1055C0000F94FC740C94A6378637910509F41DC618
:1055D0008737910511F00C949A370F94555D0C9410
:1055E000A6378033A1E09A0711F40C9465340CF0CF
:1055F00085C08D3C910509F464C7D4F58B399105BC
:1056000009F4F2C4E4F48D37910509F413C56CF480
:105610008937910511F00C949A371092DA0F109295
:10562000D90F0F94A75D0C94A6378C38910509F417
:10563000AFC48139910509F429C60C949A37893C85
:10564000910509F4C8C654F48E3B910509F4BAC417
:10565000883C910509F475C60C949A378B3C9105EA
:1056600009F4DCC68C3C910509F4F7C60C949A3712
:105670008831E1E09E0711F40C943633E4F48C3D5C
:10568000910509F444C76CF48E3C910509F41CC7DC
:10569000833D910511F00C949A370F94C97E0C94B8
:1056A000A6378D3D910509F43FC7823E910509F467
:1056B00091C70C949A378D3221E0920711F40C9423
:1056C000E5336CF48232A1E09A0711F40C94CD33E7
:1056D0008C32914011F40C94D0330C949A378E3262
:1056E000E1E09E0711F40C94D8348F32914011F010
:1056F0000C949A370E946B980C94A637863F21E051
:10570000920711F40C948B360CF04FC0843AA1E050
:105710009A0711F40C9426352CF58239E1E09E07A6
:1057200011F40C941F358CF4803921E0920711F4A8
:105730000C941C358139914011F00C949A370E94D9
:10574000943E0F9434600C94A6378A39A1E09A07EE
:1057500011F40C94A6378D39914011F40C947937DB
:105760000C949A37863EE1E09E0711F40C941C36A7
:105770006CF4853A21E0920711F40C9429358C3AA7
:10578000914011F40C94BF350C949A37843FA1E0FA
:105790009A0711F40C948836853F914011F00C94CF
:1057A0009A370F941E600C94A6378335E3E09E076A
:1057B00011F40C942C370CF58C3022E0920711F484
:1057C0000C94A8366CF4873FA1E09A0711F40C946E
:1057D0008E36883F914011F40C9497360C949A378A
:1057E0008835E2E09E0711F40C94B0368B35924078
:1057F00011F40C94B3360C949A37803A23E0920754
:1058000009F49AC16CF48C36A3E09A0711F40C9455
:10581000A6378438934011F40C942F370C949A37A0
:10582000873EE3E09E0711F40C946B37883E93406B
:1058300011F00C949A370F94CE7C0C94A63780917B
:105840006C1284FF02C00C94763A80916E1287FF2E
:1058500002C00C94763A80916F12837011F00C9410
:10586000763A0C94923A8CE098E00E94B44385E535
:1058700096E10E9419D58BE1E5E5F6E1DE0111968E
:1058800001900D928A95E1F760E070E0CE010196FB
:105890000F94BC5BCE0101960E94F1608DEF97E002
:1058A0000E94B4430C94A6370F9444570C94A63727
:1058B000E0911F05F09120058081882329F0803236
:1058C00009F410823196F8CF60E080911F05909125
:1058D00020050F94DA5A109299100C94A63783E59C
:1058E0000E94F73D882321F00E94613D0E947B9F2A
:1058F00084E50E94F73D8823A9F00E94613D6B0179
:105900007C010E941DADC0923012D0923112E09203
:105910003212F0923312CD28CE28CF2819F081E030
:10592000809338128091480F8823E9F080E090E05E
:10593000A0EAB1E489839A83AB83BC831C8E1D8E5D
:105940001E8E1F8E18A219A21AA21BA220E0AE0161
:105950004F5F5F4FBE01645E7F4FCE0180960E9415
:10596000F7600C94A6370E949F51882381F00F9412
:10597000E4560E94C35189E190E10F948956109238
:10598000150510921605109217051092180561E082
:1059900089E692E20E94576F4CE352E26DE178E0B3
:1059A00085E00F94000080E00E940CB50C94A637AF
:1059B0008091381682FF03C08B7F809338160F9436
:1059C0002D830C94A6378091381683FD02C00C9469
:1059D000A63783E50E94F73D81110C94A03A0C9400
:1059E000A63783E40E94AE3D8823C1F183E398E0AB
:1059F0000E94B44380919C17882339F1BE016F5FE8
:105A00007F4F89E997E10E9490D88E010F5F1F4F69
:105A1000D8018D918D01882319F00E949F54F8CFF1
:105A2000CE0101960F945C5A8091BA12882389F0B6
:105A300080E20E949F540AEB12E1F80181918F01EC
:105A4000882339F00E949F54F8CF89E298E00E94A1
:105A5000B4438AE00E949F540C94A63783E50E94C9
:105A6000F73D882309F10E94D25F182F90E0CD976F
:105A70000CF01CE3109378030F943A886B017C01BF
:105A8000212F30E0A8EEB3E00F941AAAC60ED71E5D
:105A9000E81EF91EC0927403D0927503E09276035B
:105AA000F09277030C94A6370F9462560C94A637A5
:105AB000809138168E7F809338160C94A63780918B
:105AC000381683FD02C00C94A6370E94D8FF80913F
:105AD0001F05909120050F94E8590C94A6378091EA
