:100000000C948E120C94B8120C94B8120C94B81272
:100010000C94B8120C94B8120C94B8120C94B81238
:100020000C94B8120C94B8120C94B8120C94B81228
:100030000C94B8120C947B9B0C94B8120C94B812CC
:100040000C94B8120C948F8E0C945D900C94B81292
:100050000C9403300C94F92F0C94B8120C94B81231
:100060000C94B8120C94B8120C94B8120C94B812E8
:100070000C94B8120C94B8120C94B8120C94B812D8
:100080000C94C72A0C94B8120C94B81234303A303D
:100090004B3056305E3073306230733066306A30C9
:1000A00073307030D5A694A5CBA511A7CBA5CBA551
:1000B000CBA5CBA5CBA5CBA5CBA5CBA5CBA5CBA5C0
:1000C000CBA5CBA5CBA5CBA5CBA5CBA5CBA5CBA5B0
:1000D000CBA5CBA5CBA5CBA5CBA5CBA5CBA5CBA5A0
:1000E0000BA7CBA5CBA5CBA5CBA5CBA5CBA5CBA54E
:1000F000CBA5E4A6CBA5CBA5CBA5CBA5CBA5CBA566
:10010000CBA5CBA5CBA5CBA528A7C8A5D6C7D9C7B6
:10011000CCC7D0C7F0C7F0C7DDC7E1C7E7C7EBC79B
:1001200017CA1CCA21CA2BCA59CA59CA35CA3DCADC
:1001300045CA4FCA4E414E494E495459494E46CD83
:10014000CCCC3D0AD7233C17B7D13877CC2B32958E
:1001500095E6241FB14F0A000020410000C842006C
:10016000401C4620BCBE4CCA1B0E5AAEC59D740036
:10017000407A10F35A00A0724E18090010A5D4E876
:100180000000E87648170000E40B54020000CA9A09
:100190003B000000E1F5050000809698000000405B
:1001A000420F000000A086010000001027000000A0
:1001B00000E803000000006400000000000A0000E6
:1001C0000000000100000000002C76D888DC674F9A
:1001D0000823DFC1DFAE59E1B1B796E5E3E453C6CA
:1001E0003AE651997696E8E6C28426EB898C9B62C2
:1001F000ED407C6FFCEFBC9C9F40F2BAA56FA5F46C
:1002000090055A2AF75C936B6CF9676DC11BFCE093
:10021000E40D47FEF520E6B500D0ED902E030094E6
:100220003577050080841E080000204E0A0000007B
:10023000C80C333333330F986E12831141EF8D2185
:1002400014893BE65516CFFEE6DB18D1844B381BEC
:10025000F77C1D901DA4BBE424203284725E2281B1
:1002600000C9F124ECA1E53D27434F4D4D554E49C2
:10027000434154494F4E0044525952554E00455245
:10028000524F525300494E464F004543484F00538A
:100290006C6565702E2E2E005A2050726F6265209C
:1002A00050617374204265640A005A2050726F6274
:1002B0006520506173742042656400486F6D65204D
:1002C00058592066697273740A00486F6D6520582A
:1002D00059204669727374004D65736820706F69A8
:1002E0006E742063616E6E6F742062652072657338
:1002F0006F6C7665640A00436C69636B20746F20D1
:10030000526573756D652E2E2E004E6F204D6F76E3
:10031000652E00456E642066696C65206C69737497
:100320000A00426567696E2066696C65206C6973B6
:10033000740A00706175736500286E6F2066696CC1
:1003400065290043757272656E742066696C653A42
:1003500020005344207072696E74696E6720627960
:10036000746520004E6F74205344207072696E745F
:10037000696E670A00256979202569642025696806
:100380002025696D20256973005072696E74207490
:10039000696D653A200044454255473A004D313178
:1003A00033205300544D334420456E64657235202C
:1003B0004F46462E00204D39322058004649524DB6
:1003C000574152455F4E414D453A4D61726C696EE1
:1003D00020322E302E345F44573620544D33442083
:1003E0004535455344424220534F555243455F43A0
:1003F0004F44455F55524C3A68747470733A2F2FCE
:100400006769746875622E636F6D2F496E73616ED4
:100410006974794175746F6D6174696F6E2F4D6188
:10042000726C696E2F747265652F437265616C69B9
:1004300074794477696E5F322E302050524F544F9A
:10044000434F4C5F56455253494F4E3A312E302060
:100450004D414348494E455F545950453A544D33F8
:100460004420456E646572352045585452554445C4
:10047000525F434F554E543A3120555549443A63E3
:10048000656465326132662D343161322D34373422
:10049000382D396231322D63353563363266333665
:1004A0003766660A002F2F20004D31343520533C2B
:1004B000696E6465783E206F7574206F6620726186
:1004C0006E67652028302D31290A00205400205203
:1004D00000416363656C65726174696F6E3A2050A8
:1004E000003F4A206F7574206F662072616E6765E9
:1004F0002028302E303120746F20302E33290A000E
:1005000020204D61783A200020204D696E3A20006D
:10051000536F667420656E6473746F70733A200055
:1005200020466C6F773A200050726F746563746573
:10053000642050696E0A00206F7574206F66207207
:10054000616E67650A0020536572766F20005072F5
:100550006F6265204F6666736574205A0050726F33
:100560006265204F66667365745A3A2000496E765C
:10057000616C69642065787472756465720A002024
:10058000643A0020693A0020703A006469730043BD
:10059000290A0061626C656420286D696E207465AB
:1005A0006D702000436F6C642065787472756465AB
:1005B000732061726520004D34323120696E636FA3
:1005C000727265637420706172616D65746572200A
:1005D00075736167650A004F6666736574732041C1
:1005E00070706C696564004572723A20546F6F20B8
:1005F0006661722100546F6F206661722066726FAF
:100600006D207265666572656E636520706F696ED8
:10061000740A00454550524F4D204F4B0A003F5A37
:10062000206F7574206F662072616E6765202800E8
:100630003F59206F7574206F662072616E67652068
:10064000282D0020746F20003F58206F7574206F94
:10065000662072616E676520282D0050726F62659A
:10066000204F66667365742058004F464600506FF1
:100670007765722D6C6F7373207265636F76657228
:100680007920008A0285027E027702690245727231
:100690006F722077726974696E6720746F204545A8
:1006A00050524F4D210A00627573793A207061757E
:1006B00073656420666F7220696E7075740A0062DB
:1006C0007573793A2070617573656420666F722066
:1006D000757365720A00627573793A2070726F6380
:1006E000657373696E670A002121204B494C4C20C9
:1006F00063617573656420627920746F6F206D7516
:10070000636820696E6163746976652074696D65DC
:10071000202D2063757272656E7420636F6D6D613C
:100720006E643A20004E6F20436865636B73756D8D
:100730002077697468206C696E65206E756D6265DE
:10074000722C204C617374204C696E653A200063F2
:100750006865636B73756D206D69736D6174636833
:100760002C204C617374204C696E653A20004C69F2
:100770006E65204E756D626572206973206E6F74B0
:10078000204C617374204C696E65204E756D6265F6
:10079000722B312C204C617374204C696E653A20A9
:1007A000004D313130005344207265616420657220
:1007B000726F720A000F150E1216170E1303021A2B
:1007C0001401000E0C190DFF180C04000146696C91
:1007D0002E204469612E004520696E206D6DC2B3E4
:1007E000004D33303320553120452569205325698C
:1007F00000504944204175746F74756E65202A005D
:100800005049442D44202A005049442D49202A00B3
:100810005049442D50202A004573746570732F6D24
:100820006D005A73746570732F6D6D005973746524
:1008300070732F6D6D005873746570732F6D6D003C
:1008400050726F6265205A204F6666736574004669
:10085000616E205370656564004E6F7A7A6C650036
:100860004D61696E00466C6F77002568753A2530DA
:1008700032687500256875642025303268753A2520
:1008800030326875003FFFF038007030FC3020FCDB
:10089000102078102030102C00D02E31D02F7BD09B
:1008A0002F7BD02E31D02C00D0203010207810207B
:1008B000FC1030FC303800703FFFF03FFFF0380094
:1008C000703186302387102787902F87D02F03D051
:1008D0002030102078102078102030102F03D02FD7
:1008E00087D02787902387103186303800703FFFEC
:1008F000F004104002082002082004104008208064
:100900001041001041000820800410400000001F2A
:10091000FFF81FFFF823646566696E65204445464D
:1009200041554C545F004B6420004B6920004B70D4
:100930002000504944204175746F74756E652066BF
:10094000696E6973686564212050757420746865E8
:10095000206C617374204B702C204B6920616E6495
:10096000204B6420636F6E7374616E7473206672C3
:100970006F6D2062656C6F7720696E746F20436FB6
:100980006E66696775726174696F6E2E680A0050D1
:100990004944204175746F74756E65206661696C99
:1009A0006564212074696D656F75740A000A2043BF
:1009B0006C617373696320504944200A00204B64C2
:1009C0003A2000204B693A2000204B703A2000204A
:1009D00054753A2000204B753A2000206D61783A1A
:1009E0002000206D696E3A200020643A20002062C9
:1009F0006961733A2000504944204175746F7475E1
:100A00006E652073746172740A0050494420417508
:100A1000746F74756E65206661696C65642120541D
:100A2000656D706572617475726520746F6F206892
:100A30006967680A00504944204175746F74756E87
:100A400065206661696C6564212042616420657877
:100A5000747275646572206E756D6265720A004508
:100A600072723A207574663820666F6E74206E6FED
:100A70007420696E697469616C697A65642E00001E
:100A80000C0D00FE07022603BC017FFE08FE08FED7
:100A900005080806000040F0C88888987810050806
:100AA00008060000C0F88888888888F805050506CB
:100AB00000012030F830200508080600002070F8FA
:100AC00020202020E00509090600FF2070A8A8B812
:100AD00088887020050606060001E08CEA8C8A0AE8
:100AE0000509090600FFF8A88888888888A8F805FD
:100AF0000A0A0600FE205050505088A8A8887003AB
:100B0000030306000340A040FFFFFFFFFFFFFFFFBE
:100B1000FFFFFFFFFFFFFFFFFFFFFFFFFFFF0000E3
:100B2000000605FF01070706020080808080800024
:100B300080030303060105A0A0A005060606000029
:100B400050F85050F8500509090600FF2070A8A081
:100B50007028A87020050707060000C8C8102040AC
:100B6000989805070706000040A0A040A8906801DB
:100B700003030602058080800309090601FF204067
:100B8000408080804040200309090601FF804040EA
:100B900020202040408005070706000020A8702084
:100BA00070A8200505050600012020F8202002037A
:100BB000030601FFC04080050101060003F80202A0
:100BC00002060100C0C0050707060000081010203B
:100BD000404080050707060000708898A8C8887004
:100BE00003070706010040C040404040E0050707FA
:100BF000060000708808102040F80507070600006E
:100C0000F8081030088870050707060000103050FB
:100C100090F81010050707060000F880F008088813
:100C200070050707060000304080F08888700507CF
:100C300007060000F808101020202005070706000E
:100C40000070888870888870050707060000708823
:100C50008878081060020505060100C0C000C0C009
:100C60000206060601FFC0C000C04080030505065D
:100C700001012040804020050303060002F800F82F
:100C80000305050601018040204080050707060096
:100C900000708810202000200507070600007088DB
:100CA000B8A8B88070050707060000708888F88823
:100CB0008888050707060000F04848704848F00596
:100CC0000707060000708880808088700507070687
:100CD0000000F04848484848F0050707060000F8BB
:100CE0008080F08080F8050707060000F88080F01B
:100CF00080808005070706000070888080988870D3
:100D0000050707060000888888F888888803070791
:100D1000060100E04040404040E0050707060000B3
:100D2000381010101090600507070600008890A08A
:100D3000C0A0908805070706000080808080808022
:100D4000F805070706000088D8A88888888805075E
:100D5000070600008888C8A8988888050707060045
:100D60000070888888888870050707060000F0886A
:100D700088F080808005070706000070888888A8B2
:100D80009068050707060000F08888F0A0908805A5
:100D9000070706000070888070088870050707063E
:100DA0000000F820202020202005070706000088EA
:100DB00088888888887005070706000088888888E2
:100DC00050502005070706000088888888A8A8508A
:100DD0000507070600008888502050888805070707
:100DE0000600008888502020202005070706000004
:100DF000F80810204080F80309090601FFE0808010
:100E00008080808080E00507070600008040402049
:100E10001010080309090601FFE0202020202020EF
:100E200020E00503030600052050880501010600A7
:100E3000FEF80303030601058040200505050600B2
:100E40000070087888780507070600008080F08821
:100E50008888F00505050600007080808870050709
:100E600007060000080878888888780505050600C8
:100E7000007088F08070050707060000304840E0E9
:100E80004040400507070600FE7088888878087093
:100E90000507070600008080F08888888803070718
:100EA0000601004000C0404040E00409090601FE80
:100EB0001000301010101090600507070600008029
:100EC000808890E09088030707060100C0404040FA
:100ED0004040E0050505060000D0A8A8A8A8050523
:100EE00005060000B0C88888880505050600007062
:100EF000888888700507070600FEF0888888F080DB
:100F0000800507070600FE788888887808080505A8
:100F100005060000B0C88080800505050600007841
:100F2000807008F00507070600002020F820202028
:100F300018050505060000888888986805050506D7
:100F4000000088888850200505050600008888A8CC
:100F5000A8500505050600008850205088050707A1
:100F60000600FE88888850204080050505060000A0
:100F7000F8102040F80309090601FF204040408096
:100F8000404040200109090602FF80808080808067
:100F90008080800309090601FF80404040204040D6
:100FA000408005030306000248A890FF5061757356
:100FB00065205072696E74004D6564696120496EE8
:100FC0007365727465640063616E63656C00507272
:100FD000696E742041626F72746564004D32350031
:100FE000726573756D650000000000000000000070
:100FF00000000000006643000061430000964300CB
:101000000066430000614300000000000048420009
:10101000004842000080400202040000A04000009E
:10102000A040000000400101FF5761726E696E67C9
:101030003A20486F6D696E672042756D7020446973
:101040007669736F72203C20310A0043616E6E6FC7
:1010500074206F70656E207375626469722000532E
:10106000442063617264206F6B0A006F70656E527A
:101070006F6F74206661696C65640A00766F6C75C9
:101080006D652E696E6974206661696C65640A001D
:10109000534420696E6974206661696C0A004D32A0
:1010A00034004D32332025730046696C652073652A
:1010B0006C65637465640A002053697A653A2000A0
:1010C00046696C65206F70656E65643A2000454E18
:1010D0004420535542524F5554494E450A00222050
:1010E000706F73002220706172656E743A22005333
:1010F0005542524F5554494E452043414C4C207463
:1011000061726765743A2200747279696E6720743F
:101110006F2063616C6C207375622D67636F64650B
:101120002066696C6573207769746820746F6F201E
:101130006D616E79206C6576656C732E204D41581B
:10114000206C6576656C2069733A310A0044656CE1
:101150006574696F6E206661696C65642C204669F0
:101160006C653A200046696C652064656C65746541
:10117000643A0057726974696E6720746F206669FB
:101180006C653A2000646F696E67004E6F772000CF
:101190004D6F74696F6E0054656D70657261747522
:1011A0007265004D38340044697361626C65205388
:1011B00074657070657273004C6576656C20436F62
:1011C000726E65727300473238004175746F204843
:1011D0006F6D65005072656865617420504C4120E8
:1011E000426564005072656865617420504C41200E
:1011F000456E6400507265686561742041425320F9
:10120000456E6400507265686561742041425320E8
:1012100042656400436F6F6C646F776E0050726557
:10122000686561742041425300507265686561745D
:1012300020504C41004F7574616765205265636FA3
:1012400076657279003F00436F6E666967757261FB
:1012500074696F6E0053746F70205072696E740001
:10126000526573756D65205072696E7400426163DA
:101270006B0053746F70004D3231004174746163C0
:1012800068204D65646961004D32320052656C65BD
:10129000617365204D65646961004C6576656C69B4
:1012A0006E6720546F6F6C73004D656469612052E6
:1012B000656C656173656400496E666F2053637287
:1012C00065656E0043616E6E6F7420656E74657245
:1012D000207375626469723A2000022E2E0001525A
:1012E000656672657368004F6666004F6E00416404
:1012F00076616E6365642053657474696E6773000C
:1013000046696C616D656E740053746570732F6D02
:101310006D004E65787420506F696E74004E65786C
:101320007400486F6D696E672058595A00436D64A8
:101330003A2053746F7700436D643A2053572D4D14
:101340006F646500436D643A204465706C6F79008A
:10135000436D643A2053656C662D54657374004385
:101360006D643A205265736574004C6F616420535C
:10137000657474696E677300526573746F7265206B
:1013800044656661756C74730053746F72652053A5
:10139000657474696E677300424C546F75636800BE
:1013A0004D3139305335350A4732380A4732390A18
:1013B0004D3430300A4D313034533231350A4732F2
:1013C000380A4D313039533231350A4D34323053C9
:1013D000310A4731583130305931303046353030AC
:1013E000300A47315A300A4D3530300A4D313137E5
:1013F00020536574205A204F6666736574004D3122
:101400003036533132380A4D33303343385332316A
:10141000354530550A4D3530300A4D313137205081
:1014200049442054756E6520446F6E65004D313916
:10143000305335350A4D313034533231350A473265
:10144000380A4732394C310A473120583130305947
:1014500031303046353030300A47315A30004D3562
:1014600030300A4D3131372053657474696E6773BB
:101470002053746F726564005072657020666F72DD
:10148000205A2041646A7573740050494420547591
:101490006E65005365747570004D3130303000500A
:1014A00072696E74205061757365640020746F6F8B
:1014B000206C6F6E6720657874727573696F6E202B
:1014C00070726576656E7465640A0020636F6C6483
:1014D00020657874727573696F6E207072657665B9
:1014E0006E7465640A00220A00556E6B6E6F776E2B
:1014F00020636F6D6D616E643A202200544D334459
:1015000020456E646572352052656164792E005005
:1015100072696E74696E672E2E2E004572723A20C3
:101520004D415854454D50004D415854454D502063
:10153000747269676765726564004572723A204D1E
:10154000494E54454D50004D494E54454D50207420
:101550007269676765726564004D38342058205998
:10156000205A204500202F002042403A0020403AD7
:10157000007C3C3E5E2B3D3F2F5B5D3B2C2A225C7A
:10158000004D313030302053002020506C616E6EA1
:10159000657242756666657242797465733A2000B9
:1015A0002046726565204D656D6F72793A20004363
:1015B0006F6D70696C65643A204D6172202038202F
:1015C000323032300A00204C6173742055706461EF
:1015D0007465643A20323032302D30322D3238206A
:1015E0007C20417574686F723A2054696E794D6140
:1015F0006368696E657333440A00322E302E345F9F
:101600004457360A004D61726C696E0020536F6654
:1016100074776172652052657365740A00205761A2
:10162000746368646F672052657365740A002042B2
:10163000726F776E206F75742052657365740A003F
:101640002045787465726E616C2052657365740A0A
:1016500000506F77657255700A006175746F25636D
:101660002E6700446F6E65207072696E74696E67D4
:101670002066696C650A004D3331004D305131539D
:1016800031383030006572726F7220777269746918
:101690006E6720746F2066696C650A00446F6E6522
:1016A00020736176696E672066696C652E0A004D4D
:1016B000323900456E6473746F70730025532025B2
:1016C0006320256320256320256300205A3A0020EB
:1016D000593A00656E6473746F7073206869743A68
:1016E0002000426564204C6576656C696E67200059
:1016F0004661696C656420746F20656E61626C651B
:1017000020426564204C6576656C696E670A004905
:101710006E76616C6964206D6573682E0A00507284
:101720006F62696E6720506F696E740025532025C3
:10173000692F25690050726F62696E67206D65734D
:101740006820706F696E74200020284452595255E9
:101750004E2900473239204175746F20426564205C
:101760004C6576656C696E67003F20284C2C522CC6
:10177000462C4229206F7574206F6620626F756E4B
:1017800064732E0A003F2856296572626F736520C4
:101790006C6576656C20696D706C61757369626CDF
:1017A000652028302D34292E0A00426164205A20F9
:1017B00076616C75650A004E6F2062696C696E65B2
:1017C000617220677269640A004D32342053256CBF
:1017D000642054256C64004739322E392045257326
:1017E00000473120462564004739322E39205A25DA
:1017F00073004731205A30204632303000473120C4
:1018000058257320592573204633303030004D342D
:10181000323020532569205A2573004D313036204F
:1018200050256920532569004D31303920532569F1
:10183000004D31393020532569004D32303020447D
:101840002573004739322E392045305A300A473146
:101850005A320A47323852305859004D343230200B
:101860005330205A300020496E76616C69642065DF
:1018700078747275646572200024F4D43050C38E7D
:1018800020C2A24017828B7011127A910D816CD9FF
:101890000AA861E108C7586607615143061E4B5DFF
:1018A00005C145A7041A411104093D980371393156
:1018B000034036DB0265339102D4305402802E1D82
:1018C00002632CEE01752AC501B028A00110278102
:1018D000018F2564012B244B01E0223401AC211F30
:1018E000018D200D01801FFC00841EED00971DDF7F
:1018F00000B81CD200E61BC600201BBC00641AB254
:1019000000B219A8000A19A0006A189900D117910D
:101910000040178B00B516840031167E00B3157990
:10192000003A157300C7146F0058146A00EE13666E
:10193000008813630025135E00C7125B006C12570A
:101940000015125400C111510070114F0021114BAC
:1019500000D61049008D1047004610440002104286
:1019600000C00F4000800F3E00420F3C00060F3BBE
:1019700000CB0E3800930E37005C0E3500270E3476
:1019800000F30D3200C10D3100900D3000600D2EBE
:1019900000320D2D00050D2C00D90C2B00AE0C29AA
:1019A00000850C29005C0C2700350C27000E0C2646
:1019B00000E80B2400C40B2400A00B23007D0B23A4
:1019C000005A0B2100390B2100180B2000F80A1FC8
:1019D00000D90A1E00BB0A1E009D0A1D00800A1DB8
:1019E00000630A1C00470A1B002C0A1B00110A1A7C
:1019F00000F7091A00DD091900C4091900AB09191B
:101A000000920917007B091800630917004C09169A
:101A10000036091600200916000A091500F50815F8
:101A200000E0081400CC081400B8081400A408143E
:101A300000900813007D0812006B0813005808126C
:101A40000046081200340811002308110012081182
:101A50000001081100F0071000E0071000D0071087
:101A600000C0071000B0070F00A107100091070E7B
:101A70000083070F0074070F0065070E0057070E5D
:101A80000049070E003B070D002E070E0020070D32
:101A90000013070D0006070D00F9060C00ED060DFA
:101AA00000E0060C00D4060C00C8060C00BC060CB6
:101AB00000B0060C00A4060B0099060C008D060B66
:101AC0000082060B0077060B006C060B0061060A0D
:101AD0000057060B004C060A0042060A0038060AA8
:101AE000002E060A0024060A001A060A001006093B
:101AF0000007060A00FD050900F4050900EB0509C9
:101B000000E2050900D9050900D0050900C705094B
:101B100000BE050900B5050800AD050800A50509CA
:101B2000009C050800940508008C05080084050841
:101B3000007C050800740508006C050700650508B1
:101B4000005D050700560508004E0507004705071C
:101B5000004005080038050700310507002A050781
:101B600000230507001C050600160507000F0507E2
:101B7000000805060002050700FB040600F504073F
:101B800000EE040600E8040600E2040700DB040699
:101B900000D5040600CF040600C9040600C30406ED
:101BA00000BD040600B7040600B1040500AC04063D
:101BB00000A6040600A00405009B04060095040589
:101BC00000900406008A04050085040500800406D0
:101BD000007A04050075040500700405006B040517
:101BE0000066040500610405005C04050057040557
:101BF00000520405004D0405004804050043040597
:101C0000003E0404003A04050035040500300404D5
:101C1000002C04050027040400230405001E04040E
:101C2000001A04040016040500110404000D040445
:101C300000090405000404040000040400FC03047B
:101C400000F8030400F4030400F0030400EC0304B0
:101C500000E8030400E4030400E0030400DC0304E0
:101C600000D8030400D4030400D0030400CC030410
:101C700000C8030300C503030024F404D9201BC4D7
:101C80000C5C0E9804C4095F0265077101F405F944
:101C900000FB04B30048048700C1036900580355E2
:101CA0000003034500BE023A008402310053022AB9
:101CB000002902250004022000E4011C00C80119CB
:101CC00000AF011700980114008401130071011086
:101CD000006101100051010E0043010D0036010B9F
:101CE000002B010B0020010B00150109000C01095C
:101CF0000003010800FB000800F3000800EB0007E8
:101D000000E4000600DE000600D8000600D200064F
:101D100000CC000500C7000500C2000500BD00049E
:101D200000B9000400B5000400B1000400AD0004D7
:101D300000A9000400A5000300A20003009F000406
:101D4000009B00030098000300950002009300032D
:101D500000900003008D0002008B00030088000249
:101D6000008600020084000300810002007F000260
:101D7000007D0002007B0002007900020077000174
:101D8000007600020074000200720001007100027F
:101D9000006F0002006D0001006C0002006A00018B
:101DA0000069000200670001006600010065000193
:101DB0000064000200620001006100010060000197
:101DC000005F0002005D0001005C0001005B00019B
:101DD000005A00010059000100580001005700019D
:101DE000005600010055000100540001005300009E
:101DF0000053000100520001005100010050000199
:101E0000004F0001004E0000004E0001004D000197
:101E1000004C0001004B0000004B0001004A000193
:101E2000004900010048000000480001004700018F
:101E3000004600000046000100450000004500018A
:101E40000044000100430000004300010042000084
:101E5000004200010041000000410001004000017B
:101E6000003F0000003F0001003E0000003E000176
:101E7000003D0000003D0001003C0000003C00006F
:101E8000003C0001003B0000003B0001003A000064
:101E9000003A00010039000000390001003800005C
:101EA0000038000000380001003700000037000152
:101EB000003600000036000000360001003500004A
:101EC000003500000035000100340000003400003F
:101ED0000034000100330000003300000033000133
:101EE000003200000032000000320001003100002A
:101EF000003100000031000100300000003000001F
:101F000000300001002F0000002F0000002F000013
:101F1000002F0001002E0000002E0000002E000106
:101F2000002D0000002D0000002D0000002D0001FC
:101F3000002C0000002C0000002C0000002C0001F0
:101F4000002B0000002B0000002B0000002B0001E4
:101F5000002A0000002A0000002A0000002A0001D8
:101F600000290000002900000029000000290000CD
:101F700000290001002800000028000000280000BF
:101F800000280000002800010027000000270000B2
:101F900000270000002700000027000100260000A5
:101FA0000026000000260000002600000026000198
:101FB000002500000025000000250000002500008D
:101FC000002500000025000100240000002400007E
:101FD0000024000000240000002400010023000071
:101FE0000023000000230000002300000023000065
:101FF0000023000000230001002200000022000056
:102000000022000000220000002200000022000147
:10201000002100000021000000210000002100003C
:10202000002100000021000000210001002000002C
:102030000020000000200000002000000020000020
:10204000002000000020000000200001001F000010
:10205000001F0000001F0000001F0000001F000004
:10206000001F0000001F0001001E0000001E0000F5
:10207000001E0000001E000000043700001E2900A2
:1020800000511B00005810000010090000CC040093
:102090000078020000410100004E6F20454550527B
:1020A0004F4D2E0A00454550524F4D20496E6974E0
:1020B00069616C697A65640A00486F6D696E6720B2
:1020C0004661696C6564006F70656E0054524947E3
:1020D0004745524544007A5F6D696E00795F6D61D6
:1020E0007800785F6D6178005265706F7274696E08
:1020F0006720656E6473746F702073746174757398
:102100000A0020436F756E7420583A0020453A004B
:1021100000803B4400803B44000020410000964288
:102120000000A0420000A0420000C8430000BE42E0
:10213000D0070000D0070000640000004B00000042
:10214000506C656173652052657365740050524927
:102150004E5445522048414C5445440025533A20A2
:10216000255300706F7765726F6666004B494C4C63
:1021700045442E20005072696E7465722068616C4F
:102180007465642E206B696C6C28292063616C6C0B
:102190006564210A006563686F3A004572726F7268
:1021A0003A0042696C696E656172204C6576656CB7
:1021B000696E6720477269643A0A0053544F505061
:1021C00045442E20005072696E7465722073746FDE
:1021D000707065642064756520746F206572726F1D
:1021E00072732E2046697820746865206572726F5C
:1021F0007220616E6420757365204D393939207401
:102200006F20726573746172742E202854656D702E
:102210006572617475726520697320726573657487
:102220002E20536574206974206166746572207273
:10223000657374617274696E67290A0021212053E5
:10224000544F502063616C6C6564206265636175F6
:102250007365206F6620424C546F75636820657209
:10226000726F72202D2072657374617274207769A9
:102270007468204D3939390A006F70656E206661C7
:10228000696C65642C2046696C653A20002F2F61CB
:102290006374696F6E3A005072696E742066726F73
:1022A0006D204D6564696100205A3A200020593A3A
:1022B000200042656420583A200050726F62696EB7
:1022C00067204661696C65640A0050726F62696ECE
:1022D00067204661696C656400486F6D65202573F1
:1022E0002573257320466972737400000021002451
:1022F0000027002A0000002200250028002B0000F3
:10230000002000230026002900020202020202022D
:102310000204040404040404040303030303030386
:102320000301010101010101010102040810204023
:10233000800102040810204080010204081020409F
:102340008080402010080402010000000102000902
:102350000A0000000004030807000000000000005D
:102360000000000000000000004D6F76652025731E
:102370006D6D004D6F766520302E316D6D004D6FA7
:10238000766520316D6D004D6F76652031306D6D55
:10239000004D6F7665204178697300486F74656EF3
:1023A0006420746F6F20636F6C640045787472757D
:1023B000646572004D6F7665205A004D6F7665201A
:1023C00059004D6F7665205800656E7175657565AD
:1023D000696E672022006F6B00526573656E643A08
:1023E000200020573A0045202553004265642043D1
:1023F0006F6F6C696E672E2E2E00426564204865F3
:102400006174696E672E2E2E00453100626564008E
:102410002C2073797374656D2073746F70706564AC
:1024200021204865617465725F49443A200048651F
:102430006174696E67204661696C65640048656116
:1024400074696E67206661696C6564004D31313274
:102450002053687574646F776E00202D20496E7666
:10246000616C6964206578747275646572206E753C
:102470006D62657220210A00544845524D414C203E
:1024800052554E4157415900546865726D616C2038
:1024900052756E61776179001000C90210012C013C
:1024A0004001220170011801B0010E01F001040188
:1024B0005002FA00B002F0003003E600D003DC0066
:1024C0009004D2007005C800A006BE000008B40049
:1024D000B009AA00D00BA000600E960060118C001D
:1024E0000015820020197800C01D6E00A022640033
:1024F000B0275A00902C500000314600E0343C00D8
:1025000010383200903A2800603C1E00A03D1400B4
:10251000803E0A00203F000038E51AE511241FBE66
:10252000CFEFD0E4DEBFCDBF12E0A0E0B1E0EAEF34
:10253000FBEE01E00BBF02C007900D92AA35B10778
:10254000D9F72FE0AAE5B2E001C01D92A93EB2077B
:10255000E1F712E1CDE8D2E104C02197FE010E942B
:1025600057F3CC38D107C9F70E9446E00C94F0F538
:102570000C9400002F923F924F925F926F927F9245
:102580008F929F92AF92BF92CF92DF92EF92FF9283
:102590000F931F93CF93DF93CDB7DEB7EB970FB6B3
:1025A000F894DEBF0FBECDBF8AAF20915F0228AF87
:1025B00081E080935F028091040F8D3409F4A0C400
:1025C000843511F40C94EA25873411F00C94052617
:1025D0008091020F9091030F8C31910509F4C6C1CF
:1025E0008CF48430910509F4F4C01CF4029738F19E
:1025F00083C48531910511F40C9407264B9709F497
:1026000026C17AC48A32910509F44FC344F48D314E
:10261000910509F4BBC14E9709F4CCC16DC48B354B
:10262000910509F48CC28C35910509F48DC28A3567
:10263000910509F061C410925E020C940726809106
:102640007501882311F40C94072619821A821B82C3
:102650001C8202E8802E01E0902ECE0101965C01E2
:1026600086E8E82E83E0F82E08E211E090EDC92E0E
:102670009EE0D92E312CD4018D914D010E9408B4D9
:10268000F50181935F01882319F10E949FB32B010B
:102690003C01832D0E943691882351F0D8012D9161
:1026A0003D914D915C91C301B2010E9461F309C05B
:1026B000F6012081318142815381C301B2010E9420
:1026C00060F3D7016D937D938D939C9313970AC00C
:1026D000F80180819181A281B381F7018083918388
:1026E000A283B3833394F4E0EF0EF11C0C5F1F4F11
:1026F00024E0C20ED11C33E03312BDCF85E40E942A
:1027000008B48C83882301F10E949FB36B017C0184
:1027100083E00E943691882371F02091340130913A
:1027200035014091360150913701C701B6010E9431
:1027300061F36B017C01C0929203D0929303E0920B
:102740009403F092950310C080913401909135016B
:10275000A0913601B0913701809392039093930337
:10276000A0939403B09395038091F106882381F0A0
:102770008091E70B82FF0CC08C81882349F089810E
:10278000811103C08A81882319F080E00E9415B46A
:1027900040E050E0BA0186E40E94E3CC20E030E063
:1027A000A9010E94E4F4181684F40E949FB320E06B
:1027B00030E040E752E40E94E4F360936D017093CF
:1027C0006E0180936F01909370010E949A590C944E
:1027D000072680E50E9408B4882329F00E941E93F2
:1027E0006B017C0103C0C12CD12C760183E50E94D2
:1027F00008B4882361F00E949FB320E030E04AE7EC
:1028000054E40E94D0EC0E945DF46B017C010E94B4
:10281000885380912103811105C060E08FE892E028
:102820000E94424F0E945190C60ED71EE81EF91E0C
:102830000E945190DC01CB018C199D09AE09BF09A2
:10284000B7FD02C00C9407260E94B82CF1CF0E945D
:10285000D8C281110C9407268CE0E6E7F1E0DE0196
:10286000119601900D928A95E1F780E50E9408B4D7
:10287000882319F00E948FB301C060E080E090E0EF
:10288000A8E4B2E488A799A7AAA7BBA780E090E034
:10289000A0EAB0E48CA39DA3AEA3BFA3613019F05E
:1028A000623039F029C0BE016C5D7F4FCE010996C0
:1028B00044C029853A854B855C85609130017091D3
:1028C000310180913201909133010E9461F36B01DB
:1028D0007C0120E030E046E953E40E946AEC87FD89
:1028E00006C0C12CD12C16E9E12E13E4F12ECC8EBA
:1028F000DD8EEE8EFF8E1CC0A0903001B0903101B5
:10290000C0903201D0903301E984FA840B851C8594
:102910009701A801B501C6010E946AEC87FD02C0BB
:1029200075018601C701D8018C8F9D8FAE8FBF8F37
:10293000BE016C5D7F4FCE014C960E94475E88E0E1
:10294000FE013196DE015C9601900D928A95E1F7C9
:10295000AE01485D5F4FBE01605E7F4FCE014C9679
:102960000E94255E0E94EBAB0C9407268091EE0E30
:102970008770873011F00C94102660E08FE40E947D
:10298000939681110C9407260C9410260E94D8C2AD
:1029900081110C94072680919F03882311F40C94D5
:1029A0002B2860E08FE40E94939681110C940726F7
:1029B0000C942B282091DC0E3091DD0E4091DE0E20
:1029C0005091DF0E609128017091290180912A01B8
:1029D00090912B010E9461F3AB01BC0188E50E943C
:1029E000E3CC69837A838B839C832091E00E3091C2
:1029F000E10E4091E20E5091E30E60912C01709136
:102A00002D0180912E0190912F010E9461F3AB0165
:102A1000BC0189E50E94E3CC6D837E838F83988718
:102A2000BE016B5F7F4FCE0101960E945B938823AE
:102A300011F40C94072680E00E940AB70E942A5DD8
:102A400061E085E40E949396182F21E0482FBE0193
:102A50006B5F7F4FCE0101960E9475C36B017C01B5
:102A60009B01AC010E9462F581115FC089809A8050
:102A7000AB80BC8020E030E0A901C501B4010E9418
:102A80006AEC87FD05C027E137EB41E558E304C058
:102A900027E137EB41E558EBC501B4010E9461F332
:102AA000AB01BC0182EB92E20E94E9BA8D809E806C
:102AB000AF80B88420E030E0A901C501B4010E94D4
:102AC0006AEC87FD05C027E137EB41E558E304C018
:102AD00027E137EB41E558EBC501B4010E9461F3F2
:102AE000AB01BC018DEA92E20E94E9BA20E030E03D
:102AF000A901C701B6010E946AEC87FD05C067E124
:102B000077EB81E598E304C067E177EB81E598EB2B
:102B1000A70196010E9461F3AB01BC0188EA92E231
:102B20000E94E9BA8AE00E948C2B0E94115D11304C
:102B300011F40E942EA40E94EBAB0C9407268FE0A8
:102B400080935E020C9407268091010F882349F13F
:102B5000893009F0A6C0A2E8AA2EA1E0BA2EB8E2F8
:102B6000EB2EB1E0FB2ED12C00E010E0D5018D91D1
:102B70005D010E9408B4882369F00E949FB3F701A9
:102B80006083718382839383133019F0DD24D3949F
:102B900001C001E01F5FF4E0EF0EF11C143031F7CB
:102BA00075C072E8272E71E0372EE9E7EE2EE3E0DC
:102BB000FE2E28E231E03DA72CA7F0EDCF2EFEE05F
:102BC000DF2E00E010E0D1018D911D010E9408B4BC
:102BD000882309F44BC00E949FB32B013C011330A2
:102BE00049F0F60120813181428153810E9460F3D6
:102BF0002B013C01ACA5BDA52D913D914D915C9162
:102C0000C301B2010E9460F34B015C012DEB37E37D
:102C100046E855EB0E94E4F487FD0AC02DEB37E34C
:102C200046E855E3C501B4010E946AEC1816F4F4B5
:102C3000133051F4409234015092350160923601C4
:102C40007092370101E012C0A5019401F701608183
:102C50007181828193810E9461F3D7016D937D938D
:102C60008D939C931397812F0E943E581F5FB4E071
:102C7000EB0EF11CECA5FDA53496FDA7ECA7F4E046
:102C8000CF0ED11C143009F09ECF05C0DD2019F005
:102C90000E94E9AB06C0002321F084E391E00E948A
:102CA000EFA40E94EBAB0C9407268091750188235A
:102CB00011F40C94072689E40E9408B4E82E8823B6
:102CC00021F00E94A896082F01C000E08AE40E942B
:102CD00008B4F82E882321F00E94A896182F01C06E
:102CE00010E0EE2011F0053020F4FF2041F0153007
:102CF00030F088ED92E00E944FBA0C94072680E1F4
:102D0000E8E2F1E0A6E8B3E001900D928A95E1F7E0
:102D1000EE2019F1602F000F770B880B990B0E94A2
:102D200071EC2091B8083091B9084091BA085091DF
:102D3000BB080E94D0EC2091B0083091B1084091BE
:102D4000B2085091B3080E9461F3609386037093B8
:102D500087038093880390938903FF2019F1612FE3
:102D6000110F770B880B990B0E9471EC2091BC0816
:102D70003091BD084091BE085091BF080E94D0EC30
:102D80002091B4083091B5084091B6085091B70829
:102D90000E9461F360938A0370938B0380938C038A
:102DA00090938D0360E080E50E9493968823C1F1A3
:102DB000EE20D1F02091DC0E3091DD0E4091DE0E40
:102DC0005091DF0E60918603709187038091880394
:102DD000909189030E9460F3609386037093870348
:102DE0008093880390938903FF20D1F02091E00E17
:102DF0003091E10E4091E20E5091E30E60918A0312
:102E000070918B0380918C0390918D030E9460F3ED
:102E100060938A0370938B0380938C0390938D034C
:102E200040E050E0BA0186E40E94E3CC6B017C01F3
:102E300020E030E0A9010E94E4F418165CF420E0E0
:102E400030E040E752E4C701B6010E94E4F36B01B1
:102E50007C0103C0C12CD12C760180906D01909033
:102E60006E01A0906F01B090700120E030E0A901E8
:102E7000C701B6010E946AEC882341F0C0926D013F
:102E8000D0926E01E0926F01F092700100912401E6
:102E90001091250184E690E0909325018093240110
:102EA000C0903801D0903901E0903A01F0903B0198
:102EB00080E090E0A0E8BFE380933801909339016F
:102EC000A0933A01B0933B010E949A5980926D0100
:102ED00090926E01A0926F01B09270011093250143
:102EE00000932401C0923801D0923901E0923A0156
:102EF000F0923B010C9407260E941D880C94072633
:102F00008091020F9091030F8537910509F4E1C676
:102F10000CF0C5C08C34910509F477C40CF055C091
:102F20008931910509F4C7C21CF58431910509F472
:102F300040C27CF48131910509F416C22CF4029749
:102F400008F49BC10C94E725429709F497C50C94AB
:102F5000E7258631910509F451C20CF44BC2873143
:102F6000910509F454C2489709F466C20C94E72508
:102F70008E31910509F42FC3ACF48B31910509F41E
:102F8000CFC20CF4BFC28C31910509F41CC34D971C
:102F900011F00C94E7258091E70B8E7F8093E70B6F
:102FA0000C9407268032910509F425C30CF45AC30A
:102FB0008A32910509F401C48B34910511F00C9407
:102FC000E7250E94964D0C9407268A36910509F450
:102FD00065C4CCF58435910509F450C5FCF4813500
:102FE000910509F42EC54CF48D34910511F00C9423
:102FF000E7250E94D14D0C9407268235910509F4EE
:1030000035C58335910511F00C94E72580915E025A
:103010008F7E806280935E020C9407268C3591052A
:1030200009F49BC534F48535910509F471C50C94F8
:10303000E7258836910509F4FDC38936910509F421
:1030400019C40C94E7258F36910509F469C48CF4F2
:103050008C36910511F40C9407260CF443C48D367C
:10306000910509F403C48E36910509F446C40C9405
:10307000E7258137910509F498C414F40C940726C8
:103080008237910509F420C68337910511F00C941D
:10309000E7258CEB93E00E944FBA0C9407268D3203
:1030A00021E0920711F40C94F3220CF067C08B3CE2
:1030B000910509F42CC78CF58C38910509F49FC44F
:1030C000BCF48737910509F44FC60CF413C6883752
:1030D000910509F44CC68937910511F00C94E72548
:1030E00010924206109241060E944DAD0C940726A4
:1030F0008E3B910509F4A1C434F48139910509F49A
:103100003EC60C94E725883C910509F493C6893C9A
:10311000910509F4D9C60C94E7258C3D910511F46D
:103120000C9463218CF48D3C910509F483C70CF455
:103130000DC78E3C910509F4DDC7833D910511F45F
:103140000C949D200C94E725823E910511F40C947B
:10315000C6213CF48D3D910511F40C9470210C9422
:10316000E7258831A1E09A0711F40C9411228232EC
:10317000914011F40C94A8220C94E7258C3AE1E0DC
:103180009E0711F40C943824C4F5823921E092078B
:1031900011F40C94C523B4F48F32A1E09A0711F412
:1031A0000C94B72314F40C9473238039E1E09E0748
:1031B00011F40C94BA238139914011F40C94BD237D
:1031C0000C94E7258D3921E0920711F40C94C62563
:1031D0003CF48A39914011F40C9407260C94E725AD
:1031E000843AB1E09B0711F40C94CC23853A9140CA
:1031F00011F40C94CF230C94E7258C30F2E09F0758
:1032000011F40C94B724ECF4853F31E0930711F4EA
:103210000C94A0244CF4843F914011F00C94E725C9
:103220000E94D7480C940726863FE1E09E0711F4E0
:103230000C94A324883F914011F40C94A6240C9480
:10324000E725803A23E0920709F4FEC13CF4833578
:10325000934011F40C94BF240C94E725873EB3E00F
:103260009B0711F40C94B825883E934011F00C9400
:10327000E7250E944F910C940726A090FD0EB09078
:10328000FE0E80E50E9408B4882359F00E941E9328
:103290006B017C0111E0672B682B692B31F410E086
:1032A00004C010E0C12CD12C760183E50E9408B443
:1032B000882311F40C942E280E949FB320E030E064
:1032C0004AE754E40E94D0EC0E945DF46B017C015B
:1032D00011110BC0672B682B692B39F4A114B104B1
:1032E00021F0D5018C91811102C010E001C011E0E4
:1032F0000E948853112329F061E0C5010E94BC4F50
:1033000005C060E087EF92E00E94424F10915F029B
:1033100083E080935F0281E080934D03C114D10468
:10332000E104F10431F00E945190C60ED71EE81E50
:10333000F91E80914D03882311F40C943728C11491
:10334000D104E104F10411F40C9433280E9451904B
:10335000DC01CB018C199D09AE09BF09B7FF02C082
:103360000C9433280C94372884E392E00E942E9327
:103370008823A1F088E50E94D6B381115E9889E583
:103380000E94D6B381115E988AE50E94D6B3882345
:1033900011F40C94072615980C94072660E08AE037
:1033A00093E00E94424F5E985E9815985E980C9448
:1033B000072682E293E00E944FBA84E09CE00E94DC
:1033C000BA898BE1E4E0FCE0DE01119601900D92F8
:1033D0008A95E1F760E070E0CE0101960E94646595
:1033E000CE0101960E94EFB483E193E00E944FBAB0
:1033F0000C9407260E9427620C9407260E94746191
:103400008091E70B877F8093E70B0C940726E09170
:10341000FD0EF091FE0E8081882329F0803209F4A0
:1034200010823196F8CF60E08091FD0E9091FE0EF3
:103430000E9472640C94072683E50E9408B48823D6
:1034400021F00E948FB30E94AFD084E50E9408B49F
:103450008823A9F00E948FB36B017C010E947B4DF1
:10346000C0925003D0925103E0925203F092530362
:10347000CD28CE28CF2819F081E080935E040E94E9
:103480000929882381F00E9483610E94964D8FE76D
:1034900096E00E942A611092050F1092060F10927A
:1034A000070F1092080F80EE9FE00E94B2BC0E94AE
:1034B000E0870C9407268091E70B82FF03C08B7F87
:1034C0008093E70B8091F106882319F081E00E9438
:1034D00015B480915E04813069F482E080935E04CB
:1034E0000E94519060935403709355038093560348
:1034F000909357030E94E08783E393E00E94B2BC5D
:103500000C9407268091E70B83FD02C00C940726DC
:1035100083E50E9408B481110C943E280C94072680
:1035200083E40E94D6B3882319F183E493E00E94D8
:103530004FBA80914B0D882391F0BE016F5F7F4F92
:1035400088E49DE00E9481888E010F5F1F4FF80183
:1035500081918F01882339F00E948C2BF8CF89E369
:1035600093E00E944FBA8AE00E948C2B0C940726AD
:103570008091E70B82FF21C082E593E00E944FBA61
:103580006091E30B7091E40B8091E50B9091E60B59
:103590004AE00E94932B8FE20E948C2B6091DF0BFC
:1035A0007091E00B8091E10B9091E20B4AE00E9458
:1035B000932B0E94912C0C94072684E693E00E94A2
:1035C0004FBA0C9407268091FD0E9091FE0E0E943A
:1035D00023640C9407268091E70B83FD02C00C94B2
:1035E00007260E9403888091FD0E9091FE0E0E9496
:1035F00067630C9407268091E70B82FD0E94885335
:103600008091E70B83FD02C00C94072660E080E503
:103610000E949396182F682F8091FD0E9091FE0EB8
:103620000E94726483E50E9408B4882321F00E94FE
:103630008FB30E94AFD00E94836111110C940726B2
:103640000E94964D0C9407262091FD0E3091FE0E9F
:103650009091E70B92609093E70BC9010E9423645D
:103660000C9407260E94474D7B018C0120E831E530
:1036700041E050E00E94C0F2C9016DE671E00E9495
:103680002FF34B015C01C801B70120E13EE040E0AF
:1036900050E00E94C0F2CA01B90128E130E040E0E8
:1036A00050E00E94C0F2762E672EC62ED72E6CE315
:1036B000262E312C412C512CC801B701A2019101B9
:1036C0000E94C0F2F62EE72ECA01B901A2019101B3
:1036D0000E94C0F2CB018E010F5F1F4F8114910435
:1036E00099F0EF92FF927F936F936F927F92BF92C8
:1036F000AF929F928F9285E793E09F938F931F9352
:103700000F930E9402EC13C0A114B104B1F0EF9228
:10371000FF927F936F936F927F92BF92AF9289E7F0
:1037200093E09F938F931F930F930E9402EC0FB629
:10373000F894DEBF0FBECDBF30C0CD2879F0EF9238
:10374000FF927F936F936F927F928DE793E09F93A9
:103750008F931F930F930E9402ECE9CF892B69F09E
:10376000EF92FF927F936F9381E893E09F938F9303
:103770001F930F930E9402ECDACFEF92FF9285E83D
:1037800093E09F938F931F930F930E9402EC0F90EF
:103790000F900F900F900F900F9060E0C8010E9463
:1037A000BC4F0E94E9BBB80189E893E00E9407BBC7
:1037B0008AE00E948C2B0C94072683E50E9408B4B3
:1037C000882311F40C9407260E948F94F82E6FEF33
:1037D0007FEF80E50E94AC968C0197FF02C00C94AD
:1037E0000726843021F4F09284040C94072660E0CC
:1037F00089E40E94939681110C944328802F0E94A3
:10380000FADF8111E0C50C94432880915E04813079
:1038100011F00C94072682E080935E040E94519080
:10382000609354037093550380935603909357030A
:103830000C9407268091D40583FF02C00C940726C0
:103840000E94A39487FF02C00C94072683E50E9480
:1038500008B4882311F40C9407260E949FB30E9499
:1038600056F4CB010E94CD8C0C9407260E94CACE40
:103870000C9407260E94A394182F87FD0AC086ED9A
:1038800093E20E944FBA812F0E94DD8C8AE00E9451
:103890008C2BF8ADF0935F020C94CD2860E080E5AE
:1038A0000E94CC9481110C94072681E40E94D6B327
:1038B000882321F060918404062F02C00FEF10E0EE
:1038C00083E50E9408B4882349F00E948FB38B01DE
:1038D0006F3F710519F010F00FEF10E000938404B2
:1038E0000C94072660E080E50E94CC9481110C9432
:1038F0000726109284040C9407268EE40E9408B4D4
:10390000882311F40C9407260E948FB360938D0FC7
:1039100070938E0F80938F0F9093900F0C940726C7
:1039200083E50E94D6B3882331F060E083E50E94EE
:10393000CC948093D4050E94E9BB86E993E00E9471
:103940004FBA8091D405882369F153E8E52E56E0FB
:10395000F52E00E010E020E08091D40590E0A0E09A
:10396000B0E0002E04C0B695A795979587950A9468
:10397000D2F780FF0EC0DD24D394D20E222319F09B
:103980008CE20E948C2BF701859194910E944FBA92
:103990002D2D0F5F1F4F32E0E30EF11C0530110596
:1039A000D9F6E1CD88E691E2DCCD83E50E9408B44A
:1039B000882381F00E948F94282F30E02D33310529
:1039C00024F4809300010C9407268CE3809300017B
:1039D0000C9407260E94E9BBC0900001D12CE12C79
:1039E000F12C8DE993E00E944FBA4AE0C701B6017D
:1039F0000E94932B8AE00E948C2B0C9407268091C6
:103A0000D40583FF02C00C94072683E50E9408B406
:103A1000882311F40C9407260E949FB30E9456F449
:103A20006C38710514F06CE870E0709338066093A0
:103A300037060E94DBD90C9407260E94FACC0C941E
:103A400007260E94C78E0E94D14D0E9498530E9463
:103A5000062968EE73E080E090E00E9490B960E093
:103A600084EA93E00E94424F0C94072680915E0204
:103A70008F7D806180935E020C94072683E50E940F
:103A800008B48823A1F00E949FB320E030E04AE709
:103A900054E40E94D0EC0E945DF4609301017093A5
:103AA000020180930301909304010C94072684E3A0
:103AB00092E00E942E93882339F10E94885388E572
:103AC0000E94D6B3882331F05E9A8091EE0E8E7FED
:103AD0008093EE0E89E50E94D6B3882331F05E9A7A
:103AE0008091EE0E8D7F8093EE0E8AE50E94D6B314
:103AF000882311F40C940726159A8091EE0E8B7F83
:103B00008093EE0E0C9407260E9498530C9407267F
:103B100083E50E94D6B3882311F40C9407260E94F3
:103B200051906093E80E7093E90E8093EA0E9093A3
:103B3000EB0E0E949FB320E030E04AE754E40E947D
:103B4000D0EC0E945DF460935A0270935B02809304
:103B50005C0290935D020C9407260E94A39487FF59
:103B600002C00C94072684E392E00E942E938823DF
:103B700009F474C032E8C32E31E0D32E45EDE42EB3
:103B800045E0F42E10E0D6018D916D010E9408B43D
:103B9000882309F459C0133009F04FC00E949FB325
:103BA0004B015C0120E030E040EA51E40E946AEC05
:103BB00087FF3AC0A50194016091F5057091F60563
:103BC0008091F7059091F8050E94E4F32B013C01E8
:103BD0009B01AC0160910506709106068091070675
:103BE000909108060E94D0EC60930506709306063B
:103BF0008093070690930806609178047091790489
:103C000080917A0490917B040E946FECA301920151
:103C10000E94D0EC0E945DF4609378047093790464
:103C200080937A0490937B048092F5059092F60538
:103C3000A092F705B092F80507C00E949FB3F70164
:103C4000648B758B868B978B1F5FF4E0EF0EF11CF6
:103C5000143009F098CF0E94CBA4D9C70E94E9BBC9
:103C60004091E9055091EA056091EB057091EC05F2
:103C700085EB93E00E94E9BA4091ED055091EE0585
:103C80006091EF057091F0058FEB93E20E94E9BA25
:103C90004091F1055091F2056091F3057091F405A2
:103CA00088EB93E20E94E9BA4091F5055091F60540
:103CB0006091F7057091F80582E695E10E94E9BAF6
:103CC0008AE00E948C2BA3C70E9488530E94EBAB12
:103CD0009EC78091FD0E9091FE0E009741F0DC0191
:103CE0002C91222321F060E00E94BC4F90C70E94DB
:103CF000E0878DC70091FD0E1091FE0E94E0F12C2F
:103D000040E0915021F1F8018081282F2B7F213450
:103D100021F421812133D9F407C08035C1F4818198
:103D200080538A3048F013C0813421F0853421F467
:103D300041E002C0FF24F39498012E5F3F4F8901B8
:103D40002F5F3F4FF80180818032C9F3DACF4111F4
:103D50000E94E9BBFF2021F085EA94E00E944FBA5F
:103D6000C8010E94972C53C70E94FEAC50C781E047
:103D700080934206809341060E944DAD48C760E0A3
:103D800070E083E50E94AC968C011127023011058A
:103D90003CF00E941ABB89EA94E00E944FBA37C7F0
:103DA00088E40E9408B48823A9F00E94A8968A3A61
:103DB00091053CF0843BF1E09F072CF083EB91E010
:103DC00002C08AEA90E0F801EE0FFF1FE853F74FB8
:103DD0009183808386E40E9408B4882381F00E9446
:103DE000A89697FD07C08F3F910529F024F08FEF2B
:103DF00090E001C080E0F801EE53F74F808382E449
:103E00000E9408B4882309F402C70E94A89685304E
:103E1000910534F08D3891052CF08CE890E002C0CB
:103E200085E090E0F801EE0FFF1FEC53F74F918310
:103E30008083EDC60E94A394182F87FDE8C684E412
:103E40000E94D6B38823E9F10E949FB36B017C01E5
:103E500001E020E030E0A9010E946AEC811101C07C
:103E600000E00093960320E030E0A901C701B6010D
:103E70000E946AEC882329F124E01202F001112447
:103E8000E556FC4FC082D182E282F38220E030E02E
:103E9000A90160919B0370919C0380919D03909177
:103EA0009E030E946AEC81110CC080E090E0A0EEBD
:103EB000BFE380939B0390939C03A0939D03B093D7
:103EC0009E030E94EB52A3C60E94A39487FD9FC647
:103ED000A2E8EA2EA1E0FA2E05ED15E0D7018D91BA
:103EE0007D010E94D6B3882359F00E949FB30E949F
:103EF0005DF4F80160837183828393830E9484A4BC
:103F00000C5F1F4FF5E0053E1F0741F780C60E947A
:103F1000A39487FD7CC6F2E8EF2EF1E0FF2E05EDBD
:103F200015E0D7018D917D010E94D6B3882339F029
:103F30000E949FB3F80164A375A386A397A30C5FA7
:103F40001F4FF5E0053E1F0761F761C689E392E068
:103F50000E942E93811128C04091090650910A06B3
:103F600060910B0670910C0681ED94E00E94E9BA15
:103F700040910D0650910E0660910F06709110064B
:103F80008EEC94E00E94E9BA40911106509112061D
:103F900060911306709114068BEC94E00E94E9BACC
:103FA0008AE00E948C2B33C683E50E9408B48823E4
:103FB00091F00E949FB36093090670930A06809364
:103FC0000B0690930C066093110670931206809373
:103FD00013069093140680E50E9408B4882351F0DC
:103FE0000E949FB36093090670930A0680930B06A4
:103FF00090930C0682E50E9408B4882351F00E9439
:104000009FB360930D0670930E0680930F069093F6
:10401000100684E50E9408B4882309F4F8C50E94BC
:104020009FB36093110670931206809313069093CA
:104030001406EDC58EE392E00E942E93882309F4C6
:10404000E6C582E40E94D6B3882351F00E941E93F5
:104050006093E5057093E6058093E7059093E80586
:1040600083E50E94D6B3882351F00E949FB36093EA
:10407000150670931606809317069093180684E52C
:104080000E94D6B3882351F00E949FB36093190613
:1040900070931A0680931B0690931C068AE40E9474
:1040A000D6B3882309F4B3C50E949FB36B017C018A
:1040B0002AE037ED43E25CE30E94E4F487FD13C09D
:1040C0002AE939E949E95EE3C701B6010E946AECD1
:1040D00018164CF0C0926804D0926904E0926A0409
:1040E000F0926B0494C50E941ABB81EE94E00E948A
:1040F0004FBA8DC572E8C72E71E0D72EE2EFEE2ED3
:10410000E6E0FE2E10E0D6018D916D010E94D6B33F
:10411000882351F00E949FB3F701608371838283EB
:104120009383812F0E943E581F5FF4E0EF0EF11C35
:10413000133049F70E94EBAB6AC54090D00E509007
:10414000D10E6090D20E7090D30E20910B01309161
:104150000C0140910D0150910E01C301B2010E946A
:1041600061F36CA77DA78EA79FA78090D40E909037
:10417000D50EA090D60EB090D70E20910F013091A1
:1041800010014091110150911201C501B4010E942A
:1041900061F368AB79AB8AAB9BABC090D80ED09083
:1041A000D90EE090DA0EF090DB0E209113013091E1
:1041B00014014091150150911601C701B6010E94EA
:1041C00061F36CAB7DAB8EAB9FAB2091170130914F
:1041D00018014091190150911A01C301B2010E94C6
:1041E00061F32B013C0120911B0130911C01409196
:1041F0001D0150911E01C501B4010E9461F34B01E4
:104200005C0120911F0130912001409121015091CA
:104210002201C701B6010E9461F36B017C010E947B
:10422000E9BB80E195E00E944FBA83E50E94D6B3D6
:10423000882321F00E94D894809323018091230148
:10424000811103C08AE696E002C084E792E00E94F2
:104250004FBA88E095E00E944FBA4CA55DA56EA5C7
:104260007FA589EB93E00E94E9BA48A959A96AA9F8
:104270007BA98FEB93E20E94E9BA4CA95DA96EA9D4
:104280007FA988EB93E20E94E9BA83E791E20E945A
:104290004FBA80E095E00E944FBAB301A20189EBCA
:1042A00093E00E94E9BAB501A4018FEB93E20E946A
:1042B000E9BAB701A60188EB93E20E94E9BA8AE065
:1042C0000E948C2BA4C483E50E9408B4882309F4BF
:1042D0009EC40E94A896909325018093240197C4C0
:1042E0000E94A394F82E87FD92C483E50E9408B42F
:1042F0000F2D0F2C000C110B882369F10E94A8963A
:10430000F801EE0FFF1FEA5DFE4F91838083000FDF
:10431000111F000F111F9801285C3E4F7901BC014D
:10432000990F880B990B0E9471EC2AE037ED43E25C
:104330005CE30E94D0ECF801E956FC4F208131810A
:10434000428153810E94D0ECD7016D937D938D9370
:104350009C9313975CC40E94E9BB85E40E948C2B5C
:1043600080E38F0D0E948C2BF801EE0FFF1FEA5D9A
:10437000FE4F6081718180E295E00E94FABA85E289
:104380000E948C2B8AE00E948C2B41C480E50E9405
:10439000D6B3882309F43BC460E070E080E50E9456
:1043A000AC96F82E6FEF7FEF83E50E94AC968C0100
:1043B0000196039708F02BC4F7FC29C48F2D0E94A7
:1043C000FADF882339F00E941ABB88E295E00E9448
:1043D0004FBA1DC40E94885360E08F2D0E94B4C95B
:1043E0000F3FBFEF1B0731F00130110571F401E001
:1043F00010E00DC08F2D0E945CC931E020E0892BB8
:1044000009F030E0032F122F02C000E010E08F2DE2
:104410000E945CC98017910709F4F9C30E94B82C67
:10442000F6CF80E50E94D6B3882309F4F0C30E943A
:10443000A8968C01892B09F07FC083E50E94D6B332
:10444000882389F00E94A8968F3FEFEF9E0729F4FA
:104450008DE69BE00E942929DAC3BC018DE69BE032
:104460000E94D829D4C30E94E9BB60E070E086E4D2
:1044700095E00E94FABA80916F0B28E532E069015D
:10448000C81AD10887FDD394CC0CDD1CCC0CDD1CE4
:104490000D2C000CEE08FF0880916E0B28E830E030
:1044A0004901881A910887FD9394880C991C880CFF
:1044B000991C092C000CAA08BB0880916D0B8F3F3A
:1044C000C1F090E0FC01EE0FFF1F8E0F9F1FFC015B
:1044D000E85BF44F2181328183E0220F331F8A95FC
:1044E000E1F794E0369527959A95E1F72E5F3F4FD7
:1044F00002C020E030E02F5F3F4FC901330FAA0B0D
:10450000BB0B9C01AD01281939094A095B09A4EBD1
:10451000B0E00E9401F3A7019601281939094A0960
:104520005B090E94E2F2B9018BE294E20E94FABABE
:104530008AE00E948C2B6BC30E941ABBB80187E4EF
:1045400095E00E94FABA87E395E00E944FBA5FC3F4
:104550008AE50E9408B4811105C083E50E9408B471
:104560008823A1F10E949FB320E030E040E050ECAE
:104570000E946AEC87FD9BC50E949FB320E030E05B
:1045800040E050E40E94E4F418160CF48AC50E943E
:104590009FB36B017C012091F1053091F2054091B0
:1045A000F3055091F405C701B6010E94D0EC0E94BA
:1045B00056F4CB010E9434C380E50E94D6B3882311
:1045C00009F47BC50E94D894811177C583E492E0F9
:1045D0000E942E93882309F496C582E50E94D6B3E3
:1045E000811191C514C360E085E40E94CC948111CF
:1045F00073C080E50E94D6B3882351F00E949FB318
:104600006093190B70931A0B80931B0B90931C0BE8
:1046100089E40E94D6B3882381F00E949FB32CEADC
:1046200035EC47E25EE30E94D0EC60931D0B709383
:104630001E0B80931F0B9093200B84E40E94D6B333
:10464000882381F00E949FB32CEA35EC47E25EE3B9
:104650000E94E4F36093210B7093220B8093230B51
:104660009093240B0E94E9BB4091190B50911A0BB7
:1046700060911B0B70911C0B87E895E00E94E9BAD2
:104680002CEA35EC47E25EE360911D0B70911E0B46
:1046900080911F0B9091200B0E94E4F3AB01BC01B1
:1046A00083E895E00E94E9BA2CEA35EC47E25EE344
:1046B0006091210B7091220B8091230B9091240B20
:1046C0000E94D0ECAB01BC018FE795E00E94E9BAF3
:1046D0008AE00E948C2B9BC20E941ABB8DE695E05B
:1046E0000E944FBA94C283E50E94D6B3182F882344
:1046F00071F00E949FB30E9456F470933D01609345
:104700003C0121E0672B09F020E02093950480E52F
:104710000E94D6B3882359F020913C0130913D018D
:10472000232B11F00E94D8948093950470C211112C
:104730006EC20E94E9BB84EA95E00E944FBA809164
:104740009504811103C08BE895E002C081EC92E1F1
:104750000E944FBA60913C0170913D0183E995E060
:104760000E94FABA8FE895E00E944FBA50C20E94A8
:10477000DA444DC20E9488534AC28091CF0E811103
:10478000D9CC81E00E9455A3D5CC0E9452930E94BF
:104790002EA40E94EBAB3BC20E94E89438C26FEF9C
:1047A0007FEF89E40E94AC96182F6FEF7FEF8AE4C9
:1047B0000E94AC96082F8AE50E94D6B3F82E81118C
:1047C00005C081E50E94D6B3D82E01C0D12C17FDBB
:1047D00006C007FD04C0F11009C0D11007C00E9437
:1047E0001ABB87EB95E00E944FBA11C2153010F446
:1047F000053038F00E941ABB88ED92E00E944FBA53
:1048000006C2E12E110FFF08002E000C110B0E94B2
:104810009FB3DD2099F025E02E9DF0012F9DF00D36
:104820001124E00FF11FEE0FFF1FEE0FFF1FE45BDF
:10483000F74F208131814281538103C020E030E075
:10484000A901A5E0AE9DF001AF9DF00D11240E0F62
:104850001F1F000F111F000F111F045B174F0E9435
:1048600061F3D8016D937D938D939C931397CFC182
:104870000E94D8C28111CBC10FEF1FE0E8E2F1E046
:10488000FDA7ECA79E012F5F3F4F190196E2C92EAD
:1048900090E1D92E7901F8016591759185919491F6
:1048A000ACA5BDA58D909D90AD90BD90BDA7ACA7CA
:1048B000A50194010E9460F32B013C0120E030E04F
:1048C00040EA51EC0E94E4F487FD10C020E030E0A3
:1048D00040EA51E4C301B2010E946AEC181634F0B8
:1048E000F70140825182628273820EC0F601849188
:1048F0001816B4F7B7FAB094B7F8B094D7018D9200
:104900009D92AD92BC921397D7018D909D90AD90E2
:10491000BD907D0120E030E040EA51ECC501B401DA
:104920000E94E4F487FD01C420E030E040EA51E455
:10493000C501B4010E946AEC18160CF004C4F5C35A
:104940000E9479B364C10E946AAD61C181E0809325
:10495000C1080E9490AE1092C108882309F457C183
:104960000E94E9BB83E196E00E944FBA50C180915A
:10497000E70B82FF4CC180648093E70B48C183E45E
:1049800092E00E942E93811128C04091DC0E50913C
:10499000DD0E6091DE0E7091DF0E8BE596E00E94D9
:1049A000E9BA4091E00E5091E10E6091E20E7091F3
:1049B000E30E8FEB93E20E94E9BA4091E40E50912E
:1049C000E50E6091E60E7091E70E88EB93E20E948F
:1049D000E9BA8AE00E948C2B1AC12090DC0E30903C
:1049E000DD0E4090DE0E5090DF0E6090E00E709075
:1049F000E10E8090E20EF091E30EFCA7C090E40E71
:104A0000D090E50EE090E60EF090E70E88E50E946B
:104A100008B4882351F10E949FB35B018C0120E010
:104A200030E04CE553EC0E94E4F487FD0AC020E03E
:104A300030E04CE553E4B501C8010E946AEC181659
:104A400094F46CED70E088E496E00E94FABA6CEDA4
:104A500070E083E496E00E94FABA88EC94E00E9449
:104A60004FBA10E003C01501280111E089E50E944A
:104A700008B4882381F10E949FB3962EA72EB82EEA
:104A8000092F20E030E04CE553EC0E94E4F487FD70
:104A90000CC020E030E04CE553E4692D7A2D8B2DDD
:104AA000902F0E946AEC181694F46CED70E080E38D
:104AB00096E00E94FABA6CED70E083E496E00E9402
:104AC000FABA88EC94E00E944FBA10E004C0692C56
:104AD0007A2C8B2C0CA78AE50E9408B4882339F124
:104AE0000E949FB36B017C0120E030E040E151EC7B
:104AF0000E94E4F487FD0AC020E030E040E151E488
:104B0000C701B6010E946AEC18168CF467EF7FEFBC
:104B10008EE196E00E94FABA69E070E083E496E0E4
:104B20000E94FABA88EC94E00E944FBA70C0112338
:104B300009F46DC0C101D2018093DC0E9093DD0EAB
:104B4000A093DE0EB093DF0EC301A82DBCA5809309
:104B5000E00E9093E10EA093E20EB093E30EC092AC
:104B6000E40ED092E50EE092E60EF092E70E4FC012
:104B700081E08093750110924C0360E083E50E9410
:104B80009396811144C00E94F7D041C083E50E94F2
:104B9000D6B3882339F00E94D8948093F1060E94FE
:104BA000D5B435C00E94E9BB8EE696E00E944FBAAC
:104BB0008091F106811103C08AE696E002C084E785
:104BC00092E00E944FBA8AE00E948C2B20C00E9483
:104BD0001D881DC00091020F1091030F0023B9F032
:104BE0000E94E9BB84E50E948C2BB8017727072E31
:104BF000000C880B990B0E94002C80E20E948C2BE9
:104C00008DE695E00E944FBA02C00E941D882AAD31
:104C1000211102C00E94E7D038AD30935F02BDC2BF
:104C20000E94885380919F0389AF80E00E940AB759
:104C30000E942A5D81E0809342060E944DAD88E586
:104C40000E94D6B3182F89E50E94D6B3282E8AE594
:104C50000E94D6B31211F1C1181711F0212EEDC127
:104C60002224239411E001E080E1E8E2F1E0A6E8EB
:104C7000B3E001900D928A95E1F782E50E9408B4B5
:104C8000882309F443C00E949FB36B017C0120E09C
:104C900030E0A9010E946AEC8823C1F1111103C020
:104CA000222009F411C18091EE0E82FD09C02091ED
:104CB000300130913101409132015091330103C0F4
:104CC00020E030E0A901C701B6010E9461F36093C2
:104CD0008E0370938F0380939003909391032091A0
:104CE00030013091310140913201509133010E94E5
:104CF000E4F418165CF419821A821B821C82BE012D
:104D00006F5F7F4F8EE893E00E94475E112309F4A6
:104D1000D6C0222009F4D0C0109228011092290197
:104D200010922A0110922B0110922C0110922D0149
:104D300010922E0110922F010E94E9ABE6E2F0E101
:104D400084918BAFE3EFFFE085909590A590B490B0
:104D5000E7EFFFE0C590D590E590F490A7019601AC
:104D6000C501B4010E94E4F418162CF4A5019401C5
:104D7000C701B60104C0A7019601C501B4010E9494
:104D8000E4F32B013C01EFE0F0E185919591A591D1
:104D9000B4918CA79DA7AEA7BFA7EBE0F0E18591EA
:104DA0009591A591B49188AB99ABAAABBBAB9C0193
:104DB000AD016CA57DA58EA59FA50E94E4F41816F3
:104DC0003CF01CA59DA59CAB3EA4AFA5ACA706C01E
:104DD00018A9B9A9BCAB3AA8EBA9ECA7A301920109
:104DE000C301B2010E94D0EC20E030E040E85FE374
:104DF0000E9461F30E9422F5212F3CA9432D5CA55E
:104E00000E94D0EC6CA37DA38EA39FA3E7E2F0E108
:104E1000149120E030E040EC5FE3C701B6010E944E
:104E2000D0EC6B017C01612F110F770B880B990B74
:104E30000E9471EC9B01AC01C701B6010E94D0EC4D
:104E400069837A838B839C8320E030E040EC5FE3CE
:104E5000C501B4010E94D0EC6B017C01FBAD6F2F4A
:104E6000FF0F770B880B990B0E9471EC9B01AC0133
:104E7000C701B6010E94D0EC6C8F7D8F8E8F9F8F03
:104E8000AE014C5D5F4FBE016F5F7F4FCE014C9610
:104E90000E94255E0E945CAD1092280110922901AB
:104EA00010922A0110922B0110922C0110922D01C8
:104EB00010922E0110922F0180E00E945E58222055
:104EC00019F081E00E945E58002309F4A5C080E03B
:104ED0000E94D3B98091EE0E8370833051F060E070
:104EE0008AEC92E00E94424F0E94E9BB8BEB92E079
:104EF000AFC00E94E9AB409030015090310160900A
:104F00003201709033012091DC0E3091DD0E409122
:104F1000DE0E5091DF0E60E070E08CED92E40E94B6
:104F200060F36B017C016093860370938703809329
:104F30008803909389032091E00E3091E10E409117
:104F4000E20E5091E30E60E070E08CED92E40E947E
:104F500060F34B015C0160938A0370938B03809331
:104F60008C0390938D032091E40E3091E50E4091D7
:104F7000E60E5091E70EC301B2010E9460F3609308
:104F80008E0370938F03809390039093910327E196
:104F900037EB41ED58EBC501B4010E94E4F487FD05
:104FA0004EC027E030E041E653E4C501B4010E9461
:104FB0006AEC18160CF443C027E137EB41ED58EBCF
:104FC000C701B6010E94E4F487FD39C027E030E054
:104FD00046E653E4C701B6010E946AEC18167CF15C
:104FE0001C8E1D8E1E8E1F8E88E0E6E8F3E0DE012B
:104FF000119601900D928A95E1F7AE01445E5F4FE4
:10500000BE016B5F7F4FCE0101960E94255E82E05C
:105010000E945E580E942EA40E94E9AB8091410636
:105020008093420689AD0E940AB70E94115D83E019
:10503000809368010E94EBABEACD082F15CE60E0AB
:105040008AEA92E00E94424F0E94E9BB88E992E01E
:105050000E944FBADFCF0E94BB96D9CD11110C949C
:1050600075190C946E190E94B82C0C9499190E9411
:10507000E08710924D0310935F02C9CD0E948FB359
:105080000E94AFD0C4CD61E0802F0E94B4C96F2DC3
:10509000802F0E9485C96F2D70E0802F0E94F0C97B
:1050A000B6CDC12CD12CE12C10E4F12E74CAC12C48
:1050B000D12CE12CB0ECFB2E6ECAA70196016091B9
:1050C000E40E7091E50E8091E60E9091E70E0E943D
:1050D00061F36093E40E7093E50E8093E60E909377
:1050E000E70E0E94E9BB4091E40E5091E50E6091FD
:1050F000E60E7091E70E8DE595E00E94E9BA8AE030
:105100000E948C2B63CA0E94E9BB4091E40E50912F
:10511000E50E6091E60E7091E70E8EE495E00E9438
:10512000E9BA8AE00E948C2B72CD0E941ABB85EFEF
:1051300095E00E944FBA61E087EE95E00E94424FF1
:105140000E949FA764CD0C5F1F4FBFEFCB1ADB0AF5
:10515000EBE0F0E1E017F10709F09DCB82EFE82EDC
:1051600086E0F82E10E0F10181919191A191B19129
:105170001F01F70181939193A193B1937F01812F37
:105180000E943E581F5F133071F70E94EBAB60E046
:1051900087ED95E00E94424F3ACDEB960FB6F8941A
:1051A000DEBF0FBECDBFDF91CF911F910F91FF905A
:1051B000EF90DF90CF90BF90AF909F908F907F90B7
:1051C0006F905F904F903F902F9008955E9A8091DE
:1051D000EE0E8E7F8093EE0E5E9A8091EE0E8D7FA6
:1051E0008093EE0E159A8091EE0E8B7F8093EE0EDB
:1051F0005E9A089580916502811107C00E9479B37B
:10520000882319F081E08093650208951092840448
:1052100008959091E70B93FB882780F993FF06C0D0
:1052200081E090914B0D911101C080E00895809133
:105230005E04823061F00E940929882349F0809140
:10524000E70B82FB882780F991E08927089581E0A8
:105250000895DC01EC91F0E0CF01880F991FE80F71
:10526000F91FE85BF44F80818F77808308958F92D8
:105270009F92AF92BF92CF92DF92EF92FF920F93E5
:10528000CF93DF931F92CDB7DEB75C016B017A013C
:105290004901F501808191810E949AF2898300235E
:1052A00011F0F6018083BE016F5F7F4FC4010E9441
:1052B0006EC0F50180819181019691838083FFEF1B
:1052C000CF1ADF0A81E0E81AF10819F780E00F90A1
:1052D000DF91CF910F91FF90EF90DF90CF90BF9033
:1052E000AF909F908F9008957F928F929F92AF92F0
:1052F000BF92CF92DF92EF92FF920F931F93CF93C3
:10530000DF931F92CDB7DEB77C0159018B016B0192
:10531000C40ED51E0C151D0559F1F7018080918032
:10532000F80171908F017982C4010E949AF2781677
:1053300091F0672DC4010E94A2F2C4010E949AF26A
:105340009981891741F00E94E9BB8DE896E00E949F
:105350004FBA81E00EC0BE016F5F7F4FC5010E9452
:105360006EC0F70180819181019691838083D2CFB5
:1053700080E00F90DF91CF911F910F91FF90EF9000
:10538000DF90CF90BF90AF909F908F907F900895C7
:105390001092900082E080939100109295001092FC
:1053A0009400C19AE1E7F0E08081826080830895F3
:1053B0007F928F929F92AF92BF92CF92DF92EF92A5
:1053C000FF920F931F93CF93DF93FC0190819C304A
:1053D00008F0CFC06B017F01892F90E0FC01EE0F38
:1053E000FF1F8E0F9F1FFC01E85BF44F808161E07F
:1053F0008F770E94B4C9F7011182128280816CE01C
:105400000E9423F3FCE08F9FB001112440E050E0A4
:105410009B01240F351FF901EE0FFF1F2E0F3F1FB9
:10542000F901E85BF44F908197FD09C04F5F5F4F32
:105430004C30510569F7811102C00E94C829F7015B
:105440007080C72DD0E08E01000F111FF801EC0F06
:10545000FD1FE85BF44F80818068808377FC89C002
:10546000F0E2CF16F2E0DF060CF041C0F7018281D6
:1054700028E532E0281B310987FD3395220F331FC1
:10548000220F331F032E000C440B550B818168E85B
:1054900070E04B01881A910887FD9394880C991C41
:1054A000880C991C092C000CAA08BB08D7FC0BC05F
:1054B000B601653B710514F064EB70E0072E000C3B
:1054C000880B990B03C060E070E0CB012819390903
:1054D0004A095B090E94B0F224EB30E040E050E062
:1054E0000E94E2F2820E931EA41EB51E01C0460168
:1054F000FBE0F71558F1F701218188E890E0821B65
:10550000910927FD9395880F991F880F991F881679
:10551000990684F0F701228188E592E0821B9109C7
:1055200027FD9395880F991F880F991F8816990654
:105530000CF4C40102972FB7F894C00FD11FC85BB9
:10554000D44F880F991F9A8389832FBF62E370E03D
:1055500080E090E0DF91CF911F910F91FF90EF904D
:10556000DF90CF90BF90AF909F908F907F900C94E2
:1055700090B9DF91CF911F910F91FF90EF90DF9045
:10558000CF90BF90AF909F908F907F9008951F9283
:105590000F920FB60F9211240BB60F922F933F93D9
:1055A0004F935F936F937F938F939F93AF93BF932B
:1055B000EF93FF938091640287FF05C010929500DE
:1055C000109294001BC020916402022E000C330B39
:1055D00080916C0B90E02817390784F48091640265
:1055E000082E000C990BFC01EE0FFF1F8E0F9F1F62
:1055F000FC01E85BF44F808187FD15C08091640257
:105600008F5F8093640220916402022E000C330BA2
:1056100080916C0B90E028173907C4F480916402E4
:105620008C3064F113C080916402082E000C990B39
:10563000FC01EE0FFF1F8E0F9F1FFC01E85BF44F74
:10564000808160E08F770E9485C9D8CF80919400D7
:1056500090919500049680349C4918F480E49CE96C
:1056600005C08091940090919500049690939900C4
:10567000809398008FEF809364023BC02091940048
:105680003091950080916402082E000C990BFC016A
:10569000EE0FFF1F8E0F9F1FFC01E85BF44F81810F
:1056A0009281820F931F909399008093980080912C
:1056B0006402082E000C990BFC01EE0FFF1F8E0FE9
:1056C0009F1FFC01E85BF44F808187FF12C080912F
:1056D0006402082E000C990BFC01EE0FFF1F8E0FC9
:1056E0009F1FFC01E85BF44F808161E08F770E948F
:1056F00085C9FF91EF91BF91AF919F918F917F915C
:105700006F915F914F913F912F910F900BBE0F9032
:105710000FBE0F901F9018959091C00095FFFCCF81
:105720008093C60008958F929F92AF92BF92EF929E
:10573000FF920F931F93CF93DF93CDB7DEB7A09760
:105740000FB6F894DEBF0FBECDBF611571058105A0
:10575000910591F100E0842E912CA12CB12C102FF9
:10576000EE24E394F12CEC0EFD1EE00EF11C07FD7F
:10577000FA94A50194010E94C0F2F7016083B90177
:10578000CA010F5F611571058105910541F71F3F42
:1057900031F1E1E0F0E0EC0FFD1FE10FF11D17FD2D
:1057A000FA9580818A3010F097E301C090E3890F69
:1057B0000E948C2B1150EBCF80E3A0960FB6F8948B
:1057C000DEBF0FBECDBFDF91CF911F910F91FF9034
:1057D000EF90BF90AF909F908F900C948C2BA096E1
:1057E0000FB6F894DEBF0FBECDBFDF91CF911F91F2
:1057F0000F91FF90EF90BF90AF909F908F90089582
:10580000CF92DF92EF92FF926B017C0197FF0BC06A
:105810008DE20E948C2BF094E094D094C094C11C33
:10582000D11CE11CF11C4AE0C701B601FF90EF90CA
:10583000DF90CF900C94932B8F929F92AF92BF9258
:10584000CF92DF92EF92FF92CF936B017C01B42E47
:1058500020E030E0A9010E946AEC87FF07C08DE2DA
:105860000E948C2BF7FAF094F7F8F094C0E060E017
:1058700070E080E09FE3CB1541F02DEC3CEC4CEC6C
:105880005DE30E94D0ECCF5FF6CF9B01AC01C70176
:10589000B6010E9461F36B017C010E945DF44B0133
:1058A0005C014AE00E94932BCC2389F1C501B4012D
:1058B0000E946FEC9B01AC01C701B6010E9460F32E
:1058C0006B017C018EE20E948C2B20E030E040E2F4
:1058D00051E4C701B6010E94D0EC4B015C010E946B
:1058E00056F46B01770FEE08FF08C701B6010E945E
:1058F000002CC701B6010E9471EC9B01AC01C501EF
:10590000B4010E9460F36B017C01C150F1F6CF91AC
:10591000FF90EF90DF90CF90BF90AF909F908F90CF
:1059200008958DE00E948C2B8AE00C948C2BCF93F1
:10593000DF93EC018991882319F00E948C2BFACF18
:10594000DF91CF910C94912C8091090F90910A0FC7
:10595000981759F0E92FF0E0E75FF04F82819F5FE1
:105960009F7790930A0F90E008958FEF9FEF08952F
:105970004F925F926F927F928F929F92AF92BF925F
:10598000CF92DF92EF92FF920F931F93CF93DF930B
:1059900000D01F92CDB7DEB70E9433500E945190C5
:1059A0006B017C0180910001882359F180915F0295
:1059B000882339F140916602509167026091680234
:1059C0007091690297018601041B150B260B370B9A
:1059D00037FD2AC0833079F03CF4813094F00E9486
:1059E000E9BB86ED96E00BC0843059F40E94E9BB18
:1059F00087EA96E004C00E94E9BB8FEB96E00E9424
:105A00004FBA2091000130E0A8EEB3E00E9414F3F9
:105A1000C60ED71EE81EF91EC0926602D09267021B
:105A2000E0926802F09269028091C207823008F029
:105A3000CDC18091C207823008F0EEC08091090F7D
:105A400090910A0F891B8F7709F4E6C00E94A42C5D
:105A500097FDEFCF8A3019F08D3009F0CFC010924A
:105A6000720280918B0F90918C0FFC01ED58FD4FCD
:105A70001082892B39F010928C0F10928B0F03E754
:105A800012E003C00E9486DCD4CFF80181918032FD
:105A900011F48F01FACF8E3409F07AC00115110587
:105AA00009F476C061EA77E0C8010E94E8EB7C0166
:105AB000892B41F06EE470E0C80104960E94B6F5AF
:105AC000009709F4C8014AE050E060E070E00196F8
:105AD0000E9460E960936E0270936F02809370027F
