:100000000C94AE130C94D8130C94D8130C94D813EE
:100010000C94D8130C94D8130C94D8130C94D813B4
:100020000C94D8130C94D8130C94D8130C94D813A4
:100030000C94D8130C942E500C94D8130C94D81301
:100040000C94D8130C94EF400C9461CF0C94D813FB
:100050000C94DBBB0C94D1BB0C94D8130C94D81328
:100060000C94D8130C94D8130C94D8130C94D81364
:100070000C94D8130C94D8130C94D8130C94D81354
:100080000C94E0B90C94D8130C94D8136D3C9F3C9D
:10009000A13CB03CB53C6B3CC03C0FBC15BC27BC84
:1000A00037BC3FBC6FBC43BC6FBC47BC4BBC6FBCD8
:1000B0004FBC53BC57BC60BC6FBC6BBCD5CDD8CD5E
:1000C000CBCDCFCDEFCDEFCDDCCDE0CDE6CDEACDC4
:1000D000D0CED5CEDACEE4CE12CF12CFEECEF6CE43
:1000E000FECE08CF4E414E494E495459494E46CD59
:1000F000CCCC3D0AD7233C17B7D13877CC2B3295DF
:1001000095E6241FB14F0A000020410000C84200BC
:10011000401C4620BCBE4CCA1B0E5AAEC59D740086
:10012000407A10F35A00A0724E18090010A5D4E8C6
:100130000000E87648170000E40B54020000CA9A59
:100140003B000000E1F505000080969800000040AB
:10015000420F000000A086010000001027000000F0
:1001600000E803000000006400000000000A000036
:100170000000000100000000002C76D888DC674FEA
:100180000823DFC1DFAE59E1B1B796E5E3E453C61A
:100190003AE651997696E8E6C28426EB898C9B6212
:1001A000ED407C6FFCEFBC9C9F40F2BAA56FA5F4BC
:1001B00090055A2AF75C936B6CF9676DC11BFCE0E4
:1001C000E40D47FEF520E6B500D0ED902E03009437
:1001D0003577050080841E080000204E0A000000CC
:1001E000C80C333333330F986E12831141EF8D21D6
:1001F00014893BE65516CFFEE6DB18D1844B381B3D
:10020000F77C1D901DA4BBE424203284725E228101
:1002100000C9F124ECA1E53D27000000000000002A
:1002200000000000000000164300001643000048D4
:1002300043660288235F0258024A020000484200D7
:1002400000484200008040FFFFFF434F4D4D554E98
:1002500049434154494F4E0044525952554E00456E
:1002600052524F5253004543484F006F6B003F5A64
:10027000206F7574206F662072616E67652028009C
:100280003F59206F7574206F662072616E6765201C
:10029000282D0020746F20003F58206F7574206F48
:1002A000662072616E676520282D0050726F62654E
:1002B000204F6666736574205800454550524F4D77
:1002C000204F4B0A004F666673657473204170704F
:1002D0006C696564004572723A20546F6F206661E4
:1002E000722100546F6F206661722066726F6D20FC
:1002F0007265666572656E636520706F696E740AFB
:10030000004D34323120696E636F72726563742000
:10031000706172616D657465722075736167650ADD
:1003200000426564204C6576656C696E6720004606
:1003300061696C656420746F20656E61626C652014
:10034000426564204C6576656C696E670A00496E8B
:1003500076616C6964206D6573682E0A0064697348
:100360000043290A0061626C656420286D696E2073
:1003700074656D702000436F6C64206578747275CD
:100380006465732061726520004C434420436F6EA6
:1003900074726173743A2000496E76616C696420EE
:1003A00065787472756465720A0020643A00206989
:1003B0003A0020703A0050726F6265204F66667393
:1003C0006574205A0050726F6265204F66667365CF
:1003D000745A3A2000206F7574206F662072616E27
:1003E00067650A0020536572766F200020466C6FA7
:1003F000773A20004F46460020204D61783A200091
:1004000020204D696E3A2000536F667420656E643B
:1004100073746F70733A20003F4A206F7574206FB9
:10042000662072616E67652028302E303120746F2F
:1004300020302E33290A00205400205200416363EB
:10044000656C65726174696F6E3A2050004D31348D
:100450003520533C696E6465783E206F7574206F5B
:10046000662072616E67652028302D31290A002FC1
:100470002F20004649524D574152455F4E414D4550
:100480003A4D61726C696E20322E302E345F4457C3
:100490003620544D33442045325353444242205376
:1004A0004F555243455F434F44455F55524C3A6860
:1004B000747470733A2F2F6769746875622E636F56
:1004C0006D2F496E73616E6974794175746F6D61DA
:1004D00074696F6E2F4D61726C696E2F74726565F1
:1004E0002F437265616C6974794477696E5F322E4F
:1004F000302050524F544F434F4C5F564552534952
:100500004F4E3A312E30204D414348494E455F54BD
:100510005950453A544D334420456E64657232203B
:1005200045585452554445525F434F554E543A3105
:1005300020555549443A63656465326132662D340D
:100540003161322D343734382D396231322D6335F3
:10055000356336326633363766660A00204D3932E7
:10056000205800544D334420456E64657232204F4C
:1005700046462E004D313133205300444542554705
:100580003A0050726F7465637465642050696E0A36
:100590000025697920256964202569682025696D11
:1005A00020256973005072696E742074696D653A14
:1005B00020004E6F204D6F76652E004D3020537415
:1005C0006F70004D312053746F7000436F6E74690B
:1005D0006E756500436C69636B20746F20526573A0
:1005E000756D652E2E2E004D65736820706F696ED7
:1005F000742063616E6E6F74206265207265736F24
:100600006C7665640A005A2050726F6265205061F2
:100610007374204265640A005A2050726F6265202C
:10062000506173742042656400486F6D65205859AD
:100630002066697273740A00486F6D6520585920EE
:10064000466972737400536C6565702E2E2E0024FB
:10065000F4D43050C38E20C2A24017828B70111286
:100660007A910D816CD90AA861E108C758660761C3
:100670005143061E4B5D05C145A7041A41110409EB
:100680003D9803713931034036DB0265339102D462
:10069000305402802E1D02632CEE01752AC501B074
:1006A00028A001102781018F2564012B244B01E034
:1006B000223401AC211F018D200D01801FFC00841C
:1006C0001EED00971DDF00B81CD200E61BC60020FF
:1006D0001BBC00641AB200B219A8000A19A0006A73
:1006E000189900D117910040178B00B5168400317E
:1006F000167E00B31579003A157300C7146F0058C1
:10070000146A00EE1366008813630025135E00C7A9
:10071000125B006C12570015125400C11151007089
:10072000114F0021114B00D61049008D1047004693
:1007300010440002104200C00F4000800F3E0042F3
:100740000F3C00060F3B00CB0E3800930E37005CC9
:100750000E3500270E3400F30D3200C10D3100902C
:100760000D3000600D2E00320D2D00050D2C00D92E
:100770000C2B00AE0C2900850C29005C0C270035E1
:100780000C27000E0C2600E80B2400C40B2400A04C
:100790000B23007D0B23005A0B2100390B2100187D
:1007A0000B2000F80A1F00D90A1E00BB0A1E009D7C
:1007B0000A1D00800A1D00630A1C00470A1B002C4A
:1007C0000A1B00110A1A00F7091A00DD091900C4F2
:1007D000091900AB091900920917007B0918006379
:1007E0000917004C09160036091600200916000AE0
:1007F000091500F5081500E0081400CC081400B82D
:10080000081400A4081400900813007D0812006B5F
:10081000081300580812004608120034081100237B
:100820000811001208110001081100F0071000E083
:10083000071000D0071000C0071000B0070F00A17C
:1008400007100091070E0083070F0074070F006563
:10085000070E0057070E0049070E003B070D002E3C
:10086000070E0020070D0013070D0006070D00F905
:10087000060C00ED060D00E0060C00D4060C00C8C6
:10088000060C00BC060C00B0060C00A4060B009978
:10089000060C008D060B0082060B0077060B006C21
:1008A000060B0061060A0057060B004C060A0042C0
:1008B000060A0038060A002E060A0024060A001A54
:1008C000060A001006090007060A00FD050900F4E3
:1008D000050900EB050900E2050900D9050900D06A
:1008E000050900C7050900BE050900B5050800ADEA
:1008F000050800A50509009C050800940508008C62
:10090000050800840508007C050800740508006CD3
:10091000050700650508005D050700560508004E3F
:1009200005070047050700400508003805070031A6
:100930000507002A050700230507001C0506001609
:100940000507000F0507000805060002050700FB64
:10095000040600F5040700EE040600E8040600E2C1
:10096000040700DB040600D5040600CF040600C916
:10097000040600C3040600BD040600B7040600B167
:10098000040500AC040600A6040600A00405009BB4
:1009900004060095040500900406008A04050085FD
:1009A000040500800406007A040500750405007043
:1009B0000405006B04050066040500610405005C85
:1009C00004050057040500520405004D04050048C5
:1009D000040500430405003E0404003A0405003504
:1009E000040500300404002C04050027040400233F
:1009F0000405001E0404001A040400160405001176
:100A00000404000D040400090405000404040000AB
:100A1000040400FC030400F8030400F4030400F0E1
:100A2000030400EC030400E8030400E4030400E012
:100A3000030400DC030400D8030400D4030400D042
:100A4000030400CC030400C8030300C5030300240F
:100A5000F404D9201BC40C5C0E9804C4095F026521
:100A6000077101F405F900FB04B30048048700C1D5
:100A70000369005803550003034500BE023A008491
:100A800002310053022A002902250004022000E45A
:100A9000011C00C8011900AF01170098011400845F
:100AA000011300710110006101100051010E00439B
:100AB000010D0036010B002B010B0020010B00156E
:100AC0000109000C01090003010800FB000800F304
:100AD000000800EB000700E4000600DE000600D876
:100AE000000600D2000600CC000500C7000500C2C9
:100AF000000500BD000400B9000400B5000400B109
:100B0000000400AD000400A9000400A5000300A239
:100B10000003009F0004009B000300980003009561
:100B200000020093000300900003008D0002008B80
:100B30000003008800020086000200840003008198
:100B40000002007F0002007D0002007B00020079AD
:100B500000020077000100760002007400020072BB
:100B6000000100710002006F0002006D0001006CC6
:100B70000002006A000100690002006700010066CF
:100B800000010065000100640002006200010061D4
:100B9000000100600001005F0002005D0001005CD8
:100BA0000001005B0001005A0001005900010058DB
:100BB00000010057000100560001005500010054DB
:100BC00000010053000000530001005200010051D9
:100BD000000100500001004F0001004E0000004ED7
:100BE0000001004D0001004C0001004B0000004BD3
:100BF0000001004A000100490001004800000048CF
:100C000000010047000100460000004600010045C9
:100C100000000045000100440001004300000043C3
:100C200000010042000000420001004100000041BC
:100C3000000100400001003F0000003F0001003EB5
:100C40000000003E0001003D0000003D0001003CAE
:100C50000000003C0000003C0001003B0000003BA5
:100C60000001003A0000003A00010039000000399C
:100C70000001003800000038000000380001003793
:100C8000000000370001003600000036000000368A
:100C9000000100350000003500000035000100347F
:100CA0000000003400000034000100330000003375
:100CB000000000330001003200000032000000326A
:100CC000000100310000003100000031000100305F
:100CD00000000030000000300001002F0000002F55
:100CE0000000002F0000002F0001002E0000002E49
:100CF0000000002E0001002D0000002D0000002D3E
:100D00000000002D0001002C0000002C0000002C31
:100D10000000002C0001002B0000002B0000002B25
:100D20000000002B0001002A0000002A0000002A19
:100D30000000002A0001002900000029000000290D
:100D40000000002900000029000100280000002800
:100D500000000028000000280000002800010027F3
:100D600000000027000000270000002700000027E7
:100D700000010026000000260000002600000026DA
:100D800000000026000100250000002500000025CD
:100D900000000025000000250000002500010024BF
:100DA00000000024000000240000002400000024B3
:100DB00000010023000000230000002300000023A6
:100DC0000000002300000023000000230001002297
:100DD000000000220000002200000022000000228B
:100DE000000000220001002100000021000000217D
:100DF000000000210000002100000021000000216F
:100E00000001002000000020000000200000002061
:100E10000000002000000020000000200000002052
:100E20000001001F0000001F0000001F0000001F45
:100E30000000001F0000001F0000001F0001001E36
:100E40000000001E0000001E0000001E000000390F
:100E50003000003325000087190000B00F0000DBD0
:100E6000080000BD040000740200003F01000046BD
:100E7000696C2E204469612E004520696E206D6DDD
:100E8000C2B300656E7175657565696E6720220075
:100E90004D333033205531204525692053256900D5
:100EA000504944204175746F74756E65202A005056
:100EB00049442D44202A005049442D49202A0050FD
:100EC00049442D50202A00200820466163740020E8
:100ED00008204D6178002008204D696E004175742E
:100EE0006F74656D700070012C0190012701B001D5
:100EF0002201C0011D01F00118011002130130028E
:100F00000E016002090190020401C002FF0000030B
:100F1000FA004003F5008003F000D003EB0020044A
:100F2000E6007004E100E004DC004005D700C005E5
:100F3000D2004006CD00D006C8008007C3003008AC
:100F4000BE00F008B900C009B400B00AAF00B00B91
:100F5000AA00D00CA500000EA000500F9B00C010EE
:100F600096005012910000148C00C0158700B01735
:100F70008200B0197D00D01B7800001E7300402055
:100F80006E0090226900F024640040275F009029E1
:100F90005A00E02B5500102E500020304B0010322C
:100FA0004600E033410090353C0010373700703880
:100FB0003200A0392D00B03A2800A03B2300603C4D
:100FC0001E00103D1900903D1400103E0F00703EB1
:100FD0000A00C03E0500003F0000403FFBFF803F8D
:100FE000F6FFC03FF1FF1000C90210012C014001C3
:100FF000220170011801B0010E01F001040150023C
:10100000FA00B002F0003003E600D003DC009004E8
:10101000D2007005C800A006BE000008B400B009E8
:10102000AA00D00BA000600E960060118C00001585
:10103000820020197800C01D6E00A0226400B02735
:101040005A00902C500000314600E0343C0010382B
:101050003200903A2800603C1E00A03D1400803E03
:101060000A00203F0000202D20496E76616C6964E3
:10107000206578747275646572206E756D62657234
:1010800020210A00544845524D414C2052554E41B2
:1010900057415900546865726D616C2052756E61DC
:1010A000776179004572723A204D415854454D5050
:1010B000004D415854454D50207472696767657200
:1010C0006564004572723A204D494E54454D5000BA
:1010D0004D494E54454D502074726967676572657D
:1010E0006400202F002042403A0020403A00008057
:1010F0003B4400803B440000204100009642000039
:10110000A0420000A0420000C8430000BE42D00739
:101110000000D0070000640000004B000000020245
:10112000040000A0400000A04000000040486F6D97
:10113000696E67204661696C6564006F70656E005A
:10114000545249474745524544007A5F6D696E00E5
:10115000795F6D696E00785F6D696E005265706FC2
:101160007274696E6720656E6473746F7020737437
:10117000617475730A0020436F756E7420583A00CD
:1011800020453A005761726E696E673A20486F6D6C
:10119000696E672042756D702044697669736F725D
:1011A000203C20310A000000000100000001000086
:1011B0008000555555000000400033333300AAAA83
:1011C0002A004992240000002000C7711C00999950
:1011D0001900D1451700555515003BB1130024499E
:1011E000120011111100000010000F0F0F00E33862
:1011F0000E0043790D00CCCC0C00C3300C00E8A2EB
:101200000B0064210B00AAAA0A00703D0A009DD8B9
:101210000900427B090092240900DCD30800888879
:1012200008001042080000000800F0C1070087878E
:10123000070075500700711C07003EEB0600A1BCBB
:1012400006006990060066660600703E060061189A
:10125000060017F4050074D105005BB00500B290DC
:101260000500627205005555050078390500B81E65
:101270000500050505004EEC040087D40400A1BD5F
:10128000040090A7040049920400C17D0400EE69A7
:101290000400C7560400444404005C3204000821E2
:1012A000040041100400000004003FF00300F8E0D7
:1012B000030026D20300C3C30300CCB503003AA841
:1012C00003000A9B0300388E0300C08103009F7552
:1012D0000300D0690300505E03001D53030034482F
:1012E0000300913D03003333030016290300381F28
:1012F000030097150300300C0300030303000BFAEF
:10130000020049F10200BAE802005CE002002DD8B8
:1013100002002DD0020059C80200B0C0020031B94D
:101320000200DAB10200AAAA0200A0A30200BC9C3B
:101330000200FA9502005C8F0200DF8802008282C0
:101340000200457C02002776020027700200436AF3
:1013500002007C640200D05E02003F590200C853C4
:101360000200FFFDFCFAF8F6F4F2F0EEECEAE9E731
:10137000E5E3E1E0DEDCDAD9D7D5D4D2D0CFCDCBEE
:10138000CAC8C7C5C3C2C0BFBDBCBAB9B7B6B4B37B
:10139000B2B0AFADACAAA9A8A6A5A4A2A1A09E9DDB
:1013A0009C9A99989795949392908F8E8D8B8A8919
:1013B00088878684838281807F7E7D7B7A79787737
:1013C000767574737271706F6E6D6C6B6A69686735
:1013D000666564636261605F5E5D5C5B5A59585824
:1013E0005756555453525150504F4E4D4C4B4A4AFC
:1013F0004948474646454443424241403F3E3E3DC0
:101400003C3B3B3A39383837363535343332323174
:1014100030302F2E2E2D2C2B2B2A2929282727261A
:10142000252524232322212120201F1E1E1D1C1CB4
:101430001B1B1A1919181817161615151413131241
:10144000121111100F0F0E0E0D0D0C0C0B0A0A09C4
:10145000090808070706060505040403030202013C
:101460000000454550524F4D20496E697469616CCA
:10147000697A65640A000F150E1216170E1303021F
:101480001A1401000E0C190DFF180C0400016275EE
:1014900073793A2070617573656420666F72206994
:1014A0006E7075740A00627573793A207061757395
:1014B000656420666F7220757365720A00627573C9
:1014C000793A2070726F63657373696E670A0021E1
:1014D00021204B494C4C206361757365642062790F
:1014E00020746F6F206D75636820696E6163746925
:1014F00076652074696D65202D2063757272656E46
:101500007420636F6D6D616E643A20004E6F2043EE
:101510006865636B73756D2077697468206C696E9C
:1015200065206E756D6265722C204C617374204C61
:10153000696E653A2000636865636B73756D206D35
:1015400069736D617463682C204C617374204C69FD
:101550006E653A20004C696E65204E756D6265724D
:10156000206973206E6F74204C617374204C696E17
:1015700065204E756D6265722B312C204C61737441
:10158000204C696E653A20004D3131300077616939
:10159000740A00506C656173652052657365740050
:1015A0005052494E5445522048414C544544002520
:1015B000533A20255300706F7765726F6666004B53
:1015C000494C4C45442E20005072696E746572205F
:1015D00068616C7465642E206B696C6C28292063CB
:1015E000616C6C6564210A006563686F3A0045723E
:1015F000726F723A0042696C696E656172204C6567
:1016000076656C696E6720477269643A0A002057F4
:101610003A0042656420436F6F6C696E672E2E2E10
:10162000004265642048656174696E672E2E2E0045
:1016300023646566696E652044454641554C545F98
:10164000004B6420004B6920004B7020005049443F
:10165000204175746F74756E652066696E69736874
:101660006564212050757420746865206C61737402
:10167000204B702C204B6920616E64204B642063EA
:101680006F6E7374616E74732066726F6D20626525
:101690006C6F7720696E746F20436F6E6669677533
:1016A000726174696F6E2E680A005049442041755A
:1016B000746F74756E65206661696C656421207451
:1016C000696D656F75740A000A20436C61737369F4
:1016D0006320504944200A00204B643A2000204BEC
:1016E000693A2000204B703A20000A204E6F206F8C
:1016F00076657273686F6F740A002054753A200023
:10170000204B753A2000206D61783A2000206D69E9
:101710006E3A200020643A200020626961733A200A
:1017200000504944204175746F74756E6520737460
:101730006172740A00504944204175746F74756E6B
:1017400065206661696C6564212054656D70657201
:10175000617475726520746F6F20686967680A002C
:10176000504944204175746F74756E6520666169D7
:101770006C656421204261642065787472756465CB
:1017800072206E756D6265720A004572723A20753C
:1017900074663820666F6E74206E6F7420696E698F
:1017A0007469616C697A65642E00FFE0FFD140A026
:1017B000C8A6A22FF80023AC00AF10FFFEFF05FF64
:1017C000D0FFE0FFC1FFD1E240A0C8A6A22FF800E1
:1017D000238127AC00AFFFD0FF64FFD1A5FFD0FF6E
:1017E00064FF64FFD1A4FFD0FFFE5072696E7420C5
:1017F0005061757365640020746F6F206C6F6E6745
:1018000020657874727573696F6E20707265766585
:101810006E7465640A0020636F6C6420657874726E
:101820007573696F6E2070726576656E7465640A93
:1018300000220A00556E6B6E6F776E20636F6D6DC0
:10184000616E643A202200544D334420456E646535
:1018500072322052656164792E005072696E74692B
:101860006E672E2E2E00000C0D00FE07022603BC14
:10187000017FFE08FE08FE05080806000040F0C8CB
:101880008888987810050808060000C0F8888888BD
:101890008888F80505050600012030F83020050885
:1018A000080600002070F820202020E00509090625
:1018B00000FF2070A8A8B8888870200506060600DA
:1018C00001E08CEA8C8A0A0509090600FFF8A8885D
:1018D00088888888A8F8050A0A0600FE205050501B
:1018E0005088A8A8887003030306000340A040FFA7
:1018F000FFFFFFFFFFFFFFFFFFFFFFFFFFFFFFFFF8
:10190000FFFFFFFFFF0000000605FF0107070602BB
:101910000080808080800080030303060105A0A072
:10192000A005060606000050F85050F850050909B9
:101930000600FF2070A8A07028A8702005070706E1
:101940000000C8C81020409898050707060000400E
:10195000A0A040A8906801030306020580808003D0
:1019600009090601FF204040808080404020030993
:10197000090601FF804040202020404080050707E5
:1019800006000020A8702070A820050505060001AB
:101990002020F820200203030601FFC0408005013B
:1019A00001060003F8020202060100C0C005070795
:1019B00006000008101020404080050707060000C0
:1019C000708898A8C8887003070706010040C040C7
:1019D000404040E0050707060000708808102040DE
:1019E000F8050707060000F808103008887005079A
:1019F0000706000010305090F81010050707060089
:101A000000F880F0080888700507070600003040DD
:101A100080F0888870050707060000F8081010207D
:101A200020200507070600007088887088887005E8
:101A30000707060000708888780810600205050610
:101A40000100C0C000C0C00206060601FFC0C00001
:101A5000C0408003050506010120408040200503A9
:101A600003060002F800F803050506010180402086
:101A70004080050707060000708810202000200520
:101A800007070600007088B8A8B880700507070629
:101A90000000708888F8888888050707060000F02D
:101AA0004848704848F005070706000070888080A5
:101AB000808870050707060000F04848484848F04D
:101AC000050707060000F88080F08080F80507070A
:101AD000060000F88080F08080800507070600007F
:101AE00070888080988870050707060000888888BD
:101AF000F8888888030707060100E040404040401E
:101B0000E005070706000038101010109060050768
:101B1000070600008890A0C0A0908805070706006F
:101B200000808080808080F805070706000088D844
:101B3000A8888888880507070600008888C8A898AC
:101B400088880507070600007088888888887005DF
:101B50000707060000F08888F080808005070706E8
:101B6000000070888888A89068050707060000F0C4
:101B70008888F0A0908805070706000070888070AC
:101B8000088870050707060000F820202020202084
:101B90000507070600008888888888887005070779
:101BA0000600008888888850502005070706000036
:101BB00088888888A8A850050707060000888850EC
:101BC00020508888050707060000888850202020BC
:101BD00020050707060000F80810204080F80309D8
:101BE000090601FFE080808080808080E005070793
:101BF000060000804040201010080309090601FF7C
:101C0000E020202020202020E005030306000520FE
:101C100050880501010600FEF80303030601058054
:101C2000402005050506000070087888780507073C
:101C30000600008080F0888888F005050506000011
:101C4000708080887005070706000008087888887B
:101C500088780505050600007088F0807005070784
:101C6000060000304840E04040400507070600FEFF
:101C7000708888887808700507070600008080F063
:101C8000888888880307070601004000C04040405C
:101C9000E00409090601FE100030101010109060D9
:101CA00005070706000080808890E09088030707FA
:101CB000060100C04040404040E005050506000028
:101CC000D0A8A8A8A8050505060000B0C88888887F
:101CD000050505060000708888887005070706005E
:101CE000FEF0888888F080800507070600FE788867
:101CF0008888780808050505060000B0C88080803F
:101D000005050506000078807008F0050707060045
:101D1000002020F8202020180505050600008888EE
:101D20008898680505050600008888885020050504
:101D3000050600008888A8A850050505060000884B
:101D4000502050880507070600FE888888502040EC
:101D500080050505060000F8102040F80309090673
:101D600001FF204040408040404020010909060218
:101D7000FF8080808080808080800309090601FFC9
:101D80008040404020404040800503030600024858
:101D9000A890FF53544F505045442E200050726974
:101DA0006E7465722073746F7070656420647565FD
:101DB00020746F206572726F72732E2046697820CE
:101DC000746865206572726F7220616E642075732D
:101DD00065204D39393920746F20726573746172D2
:101DE000742E202854656D7065726174757265205B
:101DF00069732072657365742E205365742069744D
:101E00002061667465722072657374617274696EA4
:101E100067290A0021212053544F502063616C6CC4
:101E200065642062656361757365206F6620424C4E
:101E3000546F756368206572726F72202D20726511
:101E400073746172742077697468204D3939390A66
:101E5000002F2F616374696F6E3A00627574746F3E
:101E60006E00626567696E0073686F770050726F0D
:101E700062696E6720506F696E7400255320256972
:101E80002F25690050726F62696E67206D657368F7
:101E900020706F696E742000202844525952554EAC
:101EA0002900473239204175746F20426564204C07
:101EB0006576656C696E67003F20284C2C522C4675
:101EC0002C4229206F7574206F6620626F756E64D6
:101ED000732E0A003F2856296572626F7365206C65
:101EE0006576656C20696D706C61757369626C658F
:101EF0002028302D34292E0A00426164205A207691
:101F0000616C75650A004E6F2062696C696E65616F
:101F10007220677269640A0050726F6265205A20ED
:101F20004F66667365740046616E20537065656424
:101F3000004E6F7A7A6C65004D61696E00466C6F79
:101F4000770020202020202020003FFFF038007064
:101F500030FC3020FC102078102030102C00D02EC7
:101F600031D02F7BD02F7BD02E31D02C00D0203001
:101F70001020781020FC1030FC303800703FFFF04B
:101F80003FFFF03800703186302387102787902F6D
:101F900087D02F03D02030102078102078102030E8
:101FA000102F03D02F87D0278790238710318630BA
:101FB0003800703FFFF0041040020820020820049F
:101FC00010400820801041001041000820800410BB
:101FD000400000001FFFF81FFFF84F6666004F6EBD
:101FE0000054656D7065726174757265004D3834AA
:101FF0000044697361626C6520537465707065722A
:1020000073004C6576656C20436F726E6572730069
:102010004732380A473239004C6576656C20426594
:102020006400473238004175746F20486F6D650059
:102030005072656865617420504C4120456E6400A3
:102040005072656865617420504C4120426564009F
:10205000507265686561742041425320456E64008A
:102060005072656865617420414253204265640086
:10207000436F6F6C646F776E005072656865617452
:1020800020414253005072656865617420504C4194
:1020900000416476616E6365642053657474696E93
:1020A0006773004E65787420506F696E74004E65DA
:1020B000787400486F6D696E672058595A00436DF7
:1020C000643A2053746F7700436D643A204465701E
:1020D0006C6F7900436D643A2053656C662D5465CE
:1020E000737400436D643A2053572D4D6F6465003F
:1020F000436D643A205265736574004C6F616420CF
:1021000053657474696E677300526573746F72659A
:102110002044656661756C74730050726568656112
:10212000742041425320436F6E66005072656865AB
:10213000617420504C4120436F6E66004C43442034
:10214000436F6E747261737400424C546F756368B0
:102150000053746F72652053657474696E67730001
:102160003F00436F6E66696775726174696F6E00D8
:102170004D3139305335350A4732380A4732390A3A
:102180004D3430300A4D313034533231350A473214
:10219000380A4D313039533231350A4D34323053EB
:1021A000310A4731583130305931303046353030CE
:1021B000300A47315A300A4D3530300A4D31313707
:1021C00020536574205A204F6666736574004D3144
:1021D0003036533132380A4D33303343385332318D
:1021E000354530550A4D3530300A4D3131372050A4
:1021F00049442054756E6520446F6E65004D313939
:10220000305335350A4D313034533231350A473287
:10221000380A4732394C310A473120583130305969
:1022200031303046353030300A47315A30004D3584
:1022300030300A4D3131372053657474696E6773DD
:102240002053746F726564005072657020666F72FF
:10225000205A2041646A75737400504944205475B3
:102260006E65005365747570004261636B004D6F5D
:1022700074696F6E00526573756D65205072696E7A
:10228000740053746F70205072696E74004C6576E0
:10229000656C696E6720546F6F6C7300496E666F72
:1022A0002053637265656E004A756E6374696F6E64
:1022B000204465760050726F62652059204F666633
:1022C0007365740050726F62652058204F666673A4
:1022D0006574004573746570732F6D6D005A737467
:1022E0006570732F6D6D005973746570732F6D6D0C
:1022F000005873746570732F6D6D0043616E636574
:102300006C00496E6974004D34323800496E69744E
:1023100069616C697A6520454550524F4D004669A8
:102320006C616D656E740053746570732F6D6D0014
:1023300050726F6265204F666673657473004A65FC
:10234000726B00416363656C65726174696F6E00E6
:1023500056656C6F636974790053657420486F6DBE
:1023600065204F6666736574730050757267654DBE
:102370006F726500554E4B4E4F574E20535441548B
:10238000450047434F44455F494E464F004C434448
:102390005F50415553455F524553554D45004649A1
:1023A0004C414D454E545F52554E4F55545F434F2F
:1023B0004E54494E55450046494C414D454E545F9B
:1023C00052554E4F5554004D383736205265737074
:1023D0006F6E64696E672050524F4D50545F0045D8
:1023E00072726F722077726974696E6720746F20E1
:1023F000454550524F4D210A00656E640020205023
:102400006C616E6E6572427566666572427974655E
:10241000733A20002046726565204D656D6F7279B4
:102420003A2000436F6D70696C65643A204D6172AB
:1024300020203820323032300A00204C6173742062
:10244000557064617465643A20323032302D303218
:102450002D3238207C20417574686F723A2054699F
:102460006E794D616368696E657333440A00322E7C
:10247000302E345F4457360A004D61726C696E002D
:1024800020536F6674776172652052657365740AB4
:1024900000205761746368646F67205265736574C8
:1024A0000A002042726F776E206F75742052657338
:1024B00065740A002045787465726E616C205265FF
:1024C0007365740A00506F77657255700A00456E27
:1024D0006473746F70730025532025632025632077
:1024E000256320256300205A3A0020593A00656E82
:1024F0006473746F7073206869743A200056547264
:102500006176204D696E00566D696E00566D61787A
:10251000204500566D6178205A00566D617820592B
:1025200000566D6178205800416D6178204500416A
:102530006D6178205A00416D6178205900416D61CC
:1025400078205800412D54726176656C00412D52FF
:1025500065747261637400416363656C00506175FA
:102560007365205072696E740063616E63656C0000
:102570005072696E742041626F72746564004469C0
:10258000736D6973730055492041626F727465649D
:1025900000706175736500526573756D650055490E
:1025A00020506175736500726573756D65006E6F9F
:1025B00074696669636174696F6E200020496E7684
:1025C000616C69642065787472756465722000526C
:1025D0006573656E643A2000204200452025530053
:1025E00000002100240027002A000000220025000E
:1025F00028002B00000020002300260029000202F2
:102600000202020202020404040404040404030398
:10261000030303030303010101010101010101029D
:1026200004081020408001020408102040800102AC
:10263000040810204080804020100804020100009F
:1026400000010200090A000000000403080700005E
:1026500000000000000000000000000000004D6FBE
:1026600076652025736D6D004D6F766520302E31B7
:102670006D6D004D6F766520316D6D004D6F766527
:102680002031306D6D004D6F7665204178697300A3
:10269000486F74656E6420746F6F20636F6C6400A4
:1026A0004578747275646572004D6F7665205A00C6
:1026B0004D6F76652059004D6F7665205800707219
:1026C0006F6D70745F00453100626564002C20738B
:1026D000797374656D2073746F7070656421204820
:1026E00065617465725F49443A20004865617469A8
:1026F0006E67204661696C65640048656174696E47
:1027000067206661696C6564004D31313220536821
:102710007574646F776E00205A3A200020593A2071
:102720000042656420583A200050726F62696E67FB
:10273000204661696C65640A0050726F62696E6759
:10274000204661696C656400486F6D6520257325BE
:102750007325732046697273740010E111241FBE43
:10276000CFEFD0E4DEBFCDBF12E0A0E0B1E0E4E106
:10277000FFED01E00BBF02C007900D92AA33B10735
:10278000D9F72FE0AAE3B2E001C01D92AA32B20746
:10279000E1F713E1CEEAD3E104C02197FE010E94E4
:1027A00032EDCD3AD107C9F70E949DDD0C9488EF38
:1027B0000C9400002F923F924F925F926F927F9203
:1027C0008F929F92AF92BF92CF92DF92EF92FF9241
:1027D0000F931F93CF93DF93CDB7DEB7C154D109C9
:1027E0000FB6F894DEBF0FBECDBF209143032EABD2
:1027F00081E080934303809142038D3409F456C4F1
:10280000843511F40C941D27873411F00C9438276B
:1028100080914003909141038C31910509F4AFC13F
:102820008CF48430910509F4D6C01CF4029738F179
:1028300039C48531910511F40C943A274B9709F46A
:1028400008C130C48A32910509F405C344F48D31BE
:10285000910509F4A4C14E9709F4B5C123C48B3581
:10286000910509F475C28C35910509F476C28A3553
:10287000910509F017C410923F030C943A278091F8
:102880002501882311F40C943A2725E7822E21E0B4
:10289000922E3FE2C32E33E0D32E44E9E42E44E0EF
:1028A000F42E51E0A52E5FE0B52E10E0D4018D91FD
:1028B0004D010E94FD90882311F10E9494902B01FC
:1028C0003C01812F0E9471CD882351F0F7012081B6
:1028D000318142815381C301B2010E943CED09C0A4
:1028E000D5012D913D914D915C91C301B2010E94A2
:1028F0003BEDF60160837183828393830AC0F70105
:1029000080819181A281B381F60180839183A2832A
:10291000B3831F5FF4E0CF0ED11C24E0E20EF11C64
:1029200034E0A30EB11C133009F685E40E94FD903B
:10293000882301F10E9494906B017C0183E00E9446
:1029400071CD882371F02091A0043091A1044091B1
:10295000A2045091A304C701B6010E943CED6B0193
:102960007C01C0923B03D0923C03E0923D03F09285
:102970003E0310C08091A0049091A104A091A204F4
:10298000B091A30480933B0390933C03A0933D0339
:10299000B0933E0340E050E0BA0186E40E940E6F1F
:1029A00020E030E0A9010E94BFEE181684F40E94D6
:1029B000949020E030E040E752E40E94BFED609345
:1029C0006D0170936E0180936F01909370010E946E
:1029D00078440C943A2780E50E94FD90882329F0E2
:1029E0000E948DCD6B017C0103C0C12CD12C7601DE
:1029F00083E50E94FD90882361F00E94949020E07E
:102A000030E04AE754E40E94ABE60E9438EE6B01E6
:102A10007C010E94C35280910403811105C060E0D3
:102A200086E496E00E9421C60E9455CFC60ED71EAE
:102A3000E81EF91E0E9455CFDC01CB018C199D09BF
:102A4000AE09BF09B7FD02C00C943A270E94426844
:102A5000F1CF0E94E5D881110C943A2719821A828D
:102A60001B821C821D821E821F82188680E090E0DD
:102A7000A0E2B1E489879A87AB87BC8780E50E9492
:102A8000FD90882319F00E945C9001C060E080E016
:102A900090E0A8E4B2E48AA39BA3ACA3BDA380E02A
:102AA00090E0A0EAB0E48E8F9F8FA8A3B9A3613015
:102AB00019F0623039F029C0BE01625E7F4FCE014D
:102AC000099644C029853A854B855C8560919C04B4
:102AD00070919D0480919E0490919F040E943CED12
:102AE0006B017C0120E030E048E453E40E9445E6BD
:102AF00087FD06C0C12CD12C98E4E92E93E4F92E71
:102B0000CE8ADF8AE88EF98E1CC0A0909C04B0901B
:102B10009D04C0909E04D0909F04E984FA840B85A4
:102B20001C859701A801B501C6010E9445E687FDF5
:102B300002C075018601C701D8018E8B9F8BA88FBB
:102B4000B98FBE01625E7F4FCE0146960E94254935
:102B500088E0FE013196DE01569601900D928A952D
:102B6000E1F7AE014E5D5F4FBE01665E7F4FCE0165
:102B700046960E9403490E94CF490C943A278091BF
:102B8000210F8770873011F00C94472760E08FE4A5
:102B90000E94259181110C943A270C9447270E949A
:102BA000E5D881110C943A2780910303882311F40E
:102BB0000C94692960E08FE40E94259181110C94A6
:102BC0003A270C94692920910D0F30910E0F4091F6
:102BD0000F0F5091100F60919404709195048091A3
:102BE0009604909197040E943CEDAB01BC0188E5EE
:102BF0000E940E6F69837A838B839C832091110FCF
:102C00003091120F4091130F5091140F609198045E
:102C10007091990480919A0490919B040E943CEDDC
:102C2000AB01BC0189E50E940E6F6D837E838F83AB
:102C30009887BE016B5F7F4FCE0101960E94288F5F
:102C4000882311F40C943A2780E00E94E1920E94BC
:102C5000084861E085E40E942591182F21E0482F63
:102C6000BE016B5F7F4FCE0101960E948AD96B0136
:102C70007C019B01AC010E943DEF81115FC0898006
:102C80009A80AB80BC8020E030E0A901C501B4018E
:102C90000E9445E687FD05C027E137EB41E558E393
:102CA00004C027E137EB41E558EBC501B4010E94B0
:102CB0003CEDAB01BC0181E297E20E946E678D8022
:102CC0009E80AF80B88420E030E0A901C501B40146
:102CD0000E9445E687FD05C027E137EB41E558E353
:102CE00004C027E137EB41E558EBC501B4010E9470
:102CF0003CEDAB01BC018CE197E20E946E6720E0E5
:102D000030E0A901C701B6010E9445E687FD05C074
:102D100067E177EB81E598E304C067E177EB81E554
:102D200098EBA70196010E943CEDAB01BC0187E145
:102D300097E20E946E678AE00E94A5BA0E94EF4760
:102D4000113011F40E94D2510E94CF490C943A27BD
:102D50008FE080933F030C943A27F5E72F2EF1E0A4
:102D60003F2EA5EFEA2EA2E0FA2E24E934E03FA39D
:102D70002EA3B1E0CB2EBFE0DB2E00E010E0D101AE
:102D80008D911D010E94FD90882309F44BC00E9483
:102D900094902B013C01133049F0F60120813181E0
:102DA000428153810E943BED2B013C01AEA1BFA1AA
:102DB0002D913D914D915C91C301B2010E943BED7B
:102DC0004B015C012DEB37E346E855EB0E94BFEE6B
:102DD00087FD0AC02DEB37E346E855E3C501B40192
:102DE0000E9445E61816F4F4133051F44092A00402
:102DF0005092A1046092A2047092A30401E012C058
:102E0000A5019401F70160817181828193810E9403
:102E10003CEDD7016D937D938D939C931397812FF8
:102E20000E9458441F5FB4E0EB0EF11CEEA1FFA11D
:102E30003496FFA3EEA3F4E0CF0ED11C143009F0BA
:102E40009ECF002321F080EA94E00E94D3520E949A
:102E5000CF490C943A2780912501882311F40C94D2
:102E60003A2789E40E94FD90E82E882321F00E94F1
:102E70009090082F01C000E08AE40E94FD90F82E97
:102E8000882321F00E949090182F01C010E0EE20BE
:102E900011F0053020F4FF2041F0153030F087EEBE
:102EA00095E00E94D4660C943A2780E1E4E9F4E0CE
:102EB000AFE2B3E001900D928A95E1F7EE2019F1AF
:102EC000602F000F770B880B990B0E944CE6209126
:102ED000E5023091E6024091E7025091E8020E943B
:102EE000ABE62091ED023091EE024091EF0250915D
:102EF000F0020E943CED60932F03709330038093A7
:102F0000310390933203FF2019F1612F110F770BDA
:102F1000880B990B0E944CE62091E9023091EA025D
:102F20004091EB025091EC020E94ABE62091F1023D
:102F30003091F2024091F3025091F4020E943CED74
:102F40006093330370933403809335039093360377
:102F500060E080E50E9425918823C1F1EE20D1F048
:102F600020910D0F30910E0F40910F0F5091100FC7
:102F700060912F037091300380913103909132035F
:102F80000E943BED60932F037093300380933103D5
:102F900090933203FF20D1F02091110F3091120F46
:102FA0004091130F5091140F6091330370913403CB
:102FB00080913503909136030E943BED609333037B
:102FC00070933403809335039093360340E050E0D0
:102FD000BA0186E40E940E6F6B017C0120E030E0B4
:102FE000A9010E94BFEE18165CF420E030E040E733
:102FF00052E4C701B6010E94BFED6B017C0103C022
:10300000C12CD12C760180906D0190906E01A09022
:103010006F01B090700120E030E0A901C701B60156
:103020000E9445E6882341F0C0926D01D0926E0166
:10303000E0926F01F0927001009122011091230142
:1030400084E690E09093230180932201C090480190
:10305000D0904901E0904A01F0904B0180E090E06F
:10306000A0E8BFE38093480190934901A0934A01EF
:10307000B0934B010E94784480926D0190926E0152
:10308000A0926F01B092700110932301009322016E
:10309000C0924801D0924901E0924A01F0924B015E
:1030A0000C943A270E9423850C943A278091400380
:1030B000909141038C38910509F4EBC30CF094C056
:1030C0008836910509F4F6C20CF044C08C349105A1
:1030D00009F4DBC2FCF48231910509F428C46CF4D4
:1030E00097FF02C00C941A27823091050CF442C15C
:1030F000419709F4CBC10C941A278A32910509F43F
:1031000098C28B34910509F4BCC24F9711F00C940E
:103110001A27E1C18335910509F401C47CF4813596
:10312000910509F4DFC30CF0F2C38D34910511F061
:103130000C941A270E947B620C943A2785359105DE
:1031400009F43FC40CF4F3C38C35910509F45EC453
:103150000C941A278037910511F40C943A27BCF48B
:103160008C36910511F40C943A273CF48A3691057B
:1031700009F4D8C20CF4C2C2F9C28E36910509F422
:1031800000C30CF011C30E9473CB0C943A2785370F
:10319000910509F4FAC48CF48237910509F4EFC45F
:1031A0000CF44DC38337910511F00C941A2783E773
:1031B00094E00E94D4660C943A278737910509F46D
:1031C00036C50CF4F9C48837910509F434C589373C
:1031D000910511F00C941A2710920103109202032A
:1031E0000E94314B0C943A278E3221E0920711F461
:1031F0000C946E230CF053C08E3C910509F4EEC67E
:10320000FCF4893C910509F4C9C574F48E3B910521
:1032100009F464C3883C910509F473C581399105AB
:1032200011F00C941A2710C58C3C910509F401C6C5
:103230000CF074C68B3C910509F4D9C50C941A277F
:10324000823E910511F40C94392174F48C3D910562
:1032500009F4ACC78D3D910509F4B5C7833D9105CF
:1032600011F00C941A27DCC68831A1E09A0711F4FA
:103270000C9484213CF48A3F910511F40C94592359
:103280000C941A278232E1E09E0711F40C941B2261
:103290008D32914011F40C9466220C941A27853AD1
:1032A00021E0920711F40C94282594F58139A1E0CE
:1032B0009A0711F40C94B52394F48033E1E09E074F
:1032C00011F40C94E62214F40C94B223803991404A
:1032D00011F00C941A270E94C3520C943A278A3991
:1032E00031E0930711F40C943A27843AA1E09A074D
:1032F00011F40C94BF238239914011F00C941A27D9
:103300000E941F8F0E94D2510E94CF490C943A27ED
:10331000863FE1E09E0711F40C94FF2584F4843F7E
:1033200021E0920711F40C94F92514F00C94FC257B
:103330008C3A914011F40C9491250C941A27833502
:10334000B3E09B0711F40C9413263CF4883F9140A2
:1033500011F40C9402260C941A278C3623E0920761
:1033600011F40C943A27873E934011F40C940C27E7
:103370000C941A27A090E302B090E40280E50E942A
:10338000FD90882359F00E948DCD6B017C0111E0E6
:10339000672B682B692B31F410E004C010E0C12CBE
:1033A000D12C760183E50E94FD90882311F40C94C2
:1033B0006C290E94949020E030E04AE754E40E9497
:1033C000ABE60E9438EE6B017C0111110BC0672B3C
:1033D000682B692B39F4A114B10421F0D5018C912B
:1033E000811102C010E001C011E00E94C3521123FC
:1033F00041F08091200F811109C0C5010E94F2C5E2
:1034000005C060E084ED95E00E9421C61091430361
:1034100083E08093430381E08093E2028091400344
:1034200090914103892B19F46BEB75E002C063ECBA
:1034300075E020E030E04BEC55E082E00E947091B6
:10344000C114D104E104F10431F00E9455CFC60E3D
:10345000D71EE81EF91E8091E202882311F40C9415
:103460007129C114D104E104F10411F40C947829F8
:103470000E9455CFDC01CB018C199D09AE09BF0913
:10348000B7FF02C00C9478290C9471298BE192E06B
:103490000E949DCD8823A1F088E50E94CB908111E8
:1034A0005E9889E50E94CB9081115E988AE50E9422
:1034B000CB90882311F40C943A2715980C943A2752
:1034C00060E082EB95E00E9421C65E985E981598B8
:1034D0005E980C943A270E9408627B018C0120E8D8
:1034E00031E541E050E00E949BECC9016DE671E0DE
:1034F0000E940AED4B015C01C801B70120E13EE0EA
:1035000040E050E00E949BECCA01B90128E130E0A4
:1035100040E050E00E949BEC762E672EC62ED72E00
:10352000ECE32E2E312C412C512CC801B701A20105
:1035300091010E949BECF62EE72ECA01B901A2016F
:1035400091010E949BECCB018E010F5F1F4F8114F4
:10355000910499F0EF92FF927F936F936F927F9215
:10356000BF92AF929F928F9281E995E09F938F9344
:103570001F930F930E94DDE513C0A114B104B1F0B5
:10358000EF92FF927F936F936F927F92BF92AF9271
:1035900085E995E09F938F931F930F930E94DDE53C
:1035A0000FB6F894DEBF0FBECDBF30C0CD2879F086
:1035B000EF92FF927F936F936F927F9289E995E0EC
:1035C0009F938F931F930F930E94DDE5E9CF892B83
:1035D00069F0EF92FF927F936F938DE995E09F934F
:1035E0008F931F930F930E94DDE5DACFEF92FF9246
:1035F00081EA95E09F938F931F930F930E94DDE5DF
:103600000F900F900F900F900F900F908091200FC0
:10361000811103C0C8010E94F2C50E94A367B801CE
:1036200085EA95E00E948C678AE00E94A5BA0C9416
:103630003A2783E50E94FD90882311F40C943A27E1
:103640000E946C90F82E6FEF7FEF80E50E940A9148
:103650008C0197FF02C00C943A27843021F4F09239
:10366000C0040C943A2760E089E40E9425918111FE
:103670000C947C29802F0E9491DB811117C60C9439
:103680007C290E9457620C943A27809193048130E0
:1036900011F00C943A2782E0809393040E9455CF56
:1036A0006093DE027093DF028093E0029093E10268
:1036B0000C943A278091840A83FF02C00C943A2725
:1036C0000E944ACB87FF02C00C943A2783E50E94F0
:1036D000FD90882379F00E9494900E9431EECB01F6
:1036E0000E942D3F0E942741811104C00E947B62ED
:1036F0000E9412850E941A520C943A270E944ACBCB
:10370000182F87FD0AC08BE692E00E94D466812FB5
:103710000E943D3F8AE00E94A5BABEA9B093430330
:103720000C94062A60E080E50E94199181110C94A6
:103730003A2781E40E94CB90882321F06091C00455
:10374000062F02C00FEF10E083E50E94FD90882352
:1037500049F00E945C908B016F3F710519F010F0E9
:103760000FEF10E00093C0040C943A2760E080E56E
:103770000E94199181110C943A271092C0040C9464
:103780003A278EE40E94FD90882311F40C943A2786
:103790000E945C906093DA027093DB028093DC02FB
:1037A0009093DD020C943A2783E50E94CB90882306
:1037B00031F060E083E50E9419918093840A0E94B1
:1037C000A3678BE795E00E94D4668091840A8823E2
:1037D00069F171E3E72E72E0F72E00E010E020E0DF
:1037E0008091840A90E0A0E0B0E0002E04C0B6957D
:1037F000A795979587950A94D2F780FF0EC0DD2490
:10380000D394D20E222319F08CE20E94A5BAF701BC
:10381000859194910E94D4662D2D0F5F1F4FE2E099
:10382000EE0EF11C05301105D9F604C08BEB95E1C5
:103830000E94D4668AE00E94A5BA0C943A2783E5D8
:103840000E94FD90882381F00E946C90282F30E028
:103850002D33310524F4809321010C943A278CE315
:10386000809321010C943A270E94A367C090210104
:10387000D12CE12CF12C84E795E00E94D4664AE03B
:10388000C701B6010E94ACBA8AE00E94A5BA0C94A6
:103890003A278091840A83FF02C00C943A2783E57B
:1038A0000E94FD90882379F00E9494900E9431EE4E
:1038B0006C38710514F06CE870E07093CC02609382
:1038C000CB020E94033D0E94274181110C943A27AC
:1038D0000E947B620E9412850C943A270E94867493
:1038E0000C943A270E943A410E947B620E94325413
:1038F0000E948ACD68EE73E080E090E00E94B0669E
:1039000060E083E695E00E9421C60C943A278091FE
:103910003F038F7D806180933F030C943A27809111
:103920003F038F7E806280933F030C943A2783E5A8
:103930000E94FD908823A1F00E94949020E030E046
:103940004AE754E40E94ABE60E9438EE60931D0102
:1039500070931E0180931F01909320010C943A27CD
:103960008BE192E00E949DCD882339F10E94C352E1
:1039700088E50E94CB90882331F05E9A80911F0FDA
:103980008E7F80931F0F89E50E94CB90882331F0B2
:103990005E9A80911F0F8D7F80931F0F8AE50E9492
:1039A000CB90882311F40C943A27159A80911F0F1D
:1039B0008B7F80931F0F0C943A270E9432540C94F3
:1039C0003A2783E50E94CB90882311F40C943A2780
:1039D0000E9455CF6093190F70931A0F80931B0F9D
:1039E00090931C0F0E94949020E030E04AE754E44A
:1039F0000E94ABE60E9438EE6093BF027093C00253
:103A00008093C1029093C2020C943A270E944ACB41
:103A100087FF02C00C943A278BE192E00E949DCD73
:103A2000882309F475C055E7C52E51E0D52E65E809
:103A3000E62E6AE0F62E10E0D6018D916D010E940F
:103A4000FD90882309F459C0133009F04FC00E943B
:103A500094904B015C0120E030E040EA51E40E9488
:103A600045E687FF3AC0A50194016091A50A7091CF
:103A7000A60A8091A70A9091A80A0E94BFED2B0187
:103A80003C019B01AC016091B50A7091B60A80912E
:103A9000B70A9091B80A0E94ABE66093B50A70939A
:103AA000B60A8093B70A9093B80A6091B4047091F3
:103AB000B5048091B6049091B7040E944AE6A30130
:103AC00092010E94ABE60E9438EE6093B4047093BA
:103AD000B5048093B6049093B7048092A50A90929F
:103AE000A60AA092A70AB092A80A07C00E949490C2
:103AF000F701648B758B868B978B1F5FF4E0EF0E5D
:103B0000F11C143009F098CF0E949F520C943A2770
:103B10000E94A3674091990A50919A0A60919B0A6A
:103B200070919C0A8CE595E00E946E6740919D0A19
:103B300050919E0A60919F0A7091A00A84EB96E2D0
:103B40000E946E674091A10A5091A20A6091A30A57
:103B50007091A40A8DEA96E20E946E674091A50AD0
:103B60005091A60A6091A70A7091A80A8CE295E28A
:103B70000E946E678AE00E94A5BA0C943A270E94C0
:103B8000C3520E94CF490C943A278091E30290914E
:103B9000E402009769F0DC012C91222349F0209186
:103BA000200F21110C943A270E94F2C50C943A2759
:103BB0000E9412850C943A270091E3021091E402CE
:103BC00094E0F12C40E0915021F1F8018081282F00
:103BD0002B7F213421F421812133D9F407C0803592
:103BE000C1F4818180538A3048F013C0813421F0C0
:103BF000853421F441E002C0FF24F39498012E5F44
:103C00003F4F89012F5F3F4FF80180818032C9F318
:103C1000DACF41110E94A367FF2021F08FE694E0E4
:103C20000E94D466C8010E94B0BB0C943A270E943F
:103C3000E24A0C943A2781E08093010380930203C7
:103C40000E94314B0C943A2760E070E083E50E94BB
:103C50000A918C0111270230110544F00E949F67E0
:103C60008DE494E00E94D4660C943A2788E40E9484
:103C7000FD908823A1F00E9490908A3A910534F03B
:103C8000813F91052CF080EF90E002C08AEA90E03D
:103C9000F801EE0FFF1FE554FD4F9183808386E40A
:103CA0000E94FD90882381F00E94909097FD07C0AC
:103CB0008F3F910529F024F08FEF90E001C080E064
:103CC000F801E754FD4F808382E40E94FD90882331
:103CD00011F40C943A270E9490908530910534F0AD
:103CE0008D3891052CF08CE890E002C085E090E0E2
:103CF000000F111FF801EB54FD4F918380830C944A
:103D00003A270E944ACB182F87FF02C00C943A270B
:103D100084E40E94CB908823E9F10E9494906B0187
:103D20007C0101E020E030E0A9010E9445E681111C
:103D300001C000E00093B40220E030E0A901C70117
:103D4000B6010E9445E6882329F124E01202F00121
:103D50001124E055FD4FC082D182E282F38220E03F
:103D600030E0A9016091B0027091B1028091B2027D
:103D70009091B3020E9445E681110CC080E090E072
:103D8000A0EEBFE38093B0029093B102A093B20281
:103D9000B093B3020E94914F0C943A270E944ACBF1
:103DA00087FF02C00C943A2795E7E92E91E0F92E9F
:103DB00005E81AE025E9C22E2AE0D22ED7018D911E
:103DC0007D010E94CB90882359F00E9494900E941C
:103DD00038EEF80160837183828393830E94585286
:103DE0000C5F1F4FC016D10649F70C943A270E946A
:103DF0004ACB87FF02C00C943A2785E7E82E81E082
:103E0000F82E05E81AE0D7018D917D010E94CB9034
:103E1000882339F00E949490F80164A375A386A3C7
:103E200097A30C5F1F4FFAE005391F0761F70C9449
:103E30003A2780E292E00E949DCD811129C04091F5
:103E4000B90A5091BA0A6091BB0A7091BC0A8DE31D
:103E500094E00E946E674091BD0A5091BE0A609145
:103E6000BF0A7091C00A8AE394E00E946E67409195
:103E7000C10A5091C20A6091C30A7091C40A87E3D3
:103E800094E00E946E678AE00E94A5BA0C943A27DB
:103E900083E50E94FD90882391F00E9494906093A6
:103EA000B90A7093BA0A8093BB0A9093BC0A6093D4
:103EB000C10A7093C20A8093C30A9093C40A80E532
:103EC0000E94FD90882351F00E9494906093B90A5B
:103ED0007093BA0A8093BB0A9093BC0A82E50E9451
:103EE000FD90882351F00E9494906093BD0A7093D6
:103EF000BE0A8093BF0A9093C00A84E50E94FD9099
:103F0000882309F4B7C70E9494906093C10A709304
:103F1000C20A8093C30A9093C40AACC785E292E0B8
:103F20000E949DCD882309F4A5C782E40E94CB900E
:103F3000882351F00E948DCD6093950A7093960A64
:103F40008093970A9093980A83E50E94CB908823E8
:103F500051F00E9494906093C50A7093C60A8093B2
:103F6000C70A9093C80A84E50E94CB90882351F039
:103F70000E9494906093C90A7093CA0A8093CB0AF6
:103F80009093CC0A8AE40E94CB90882309F472C7EC
:103F90000E9494906B017C012AE037ED43E25CE3E0
:103FA0000E94BFEE87FD13C02AE939E949E95EE3C3
:103FB000C701B6010E9445E618164CF0C092A40451
:103FC000D092A504E092A604F092A70453C70E94E1
:103FD0009F6788E194E00E94D4664CC715E7C12E24
:103FE00011E0D12E04EAE02E02E0F02E10E0D6011E
:103FF0008D916D010E94CB90882351F00E94949086
:10400000F7016083718382839383812F0E945844D8
:104010001F5FF4E0EF0EF11C133049F70C942717E3
:104020004090010F5090020F6090030F7090040FAA
:10403000209105013091060140910701509108013E
:10404000C301B2010E943CED6EA37FA388A799A78C
:104050008090050F9090060FA090070FB090080F6A
:104060002091090130910A0140910B0150910C01FE
:10407000C501B4010E943CED6AA77BA78CA79DA750
:10408000C090090FD0900A0FE0900B0FF0900C0F2A
:1040900020910D0130910E0140910F0150911001BE
:1040A000C701B6010E943CED6EA77FA788AB99AB14
:1040B000209111013091120140911301509114018E
:1040C000C301B2010E943CED2B013C01209115017E
:1040D000309116014091170150911801C501B401AA
:1040E0000E943CED4B015C012091190130911A01B5
:1040F00040911B0150911C01C701B6010E943CED8B
:104100006B017C010E94A36788E094E00E94D46662
:1041100083E50E94CB90882321F00E9480908093B9
:10412000040180910401811103C084EF93E002C077
:1041300085E592E00E94D46680E094E00E94D46617
:104140004EA15FA168A579A580E695E00E946E6703
:104150004AA55BA56CA57DA584EB96E20E946E67DF
:104160004EA55FA568A979A98DEA96E20E946E67BF
:1041700088E49FE10E94D46688EF93E00E94D466B1
:10418000B301A20180E695E00E946E67B501A4012B
:1041900084EB96E20E946E67B701A6018DEA96E273
:1041A0000E946E678AE00E94A5BA64C683E50E94F9
:1041B000FD90882309F45EC60E949090909323019D
:1041C0008093220157C60E944ACBF82E87FD52C623
:1041D00083E50E94FD900F2D0F2C000C110B8823FE
:1041E00069F10E949090F801EE0FFF1FEE5FFE4F05
:1041F00091838083000F111F000F111F9801285B0E
:104200003E4F7901BC01990F880B990B0E944CE637
:104210002AE037ED43E25CE30E94ABE6F801E056AA
:10422000FD4F20813181428153810E94ABE6D7014D
:104230006D937D938D939C9313971CC60E94A367E7
:1042400085E40E94A5BA80E38F0D0E94A5BA000FF5
:10425000111FF801EE5FFE4F608171818CEE93E0DB
:104260000E947F6785E20E94A5BA8AE00E94A5BAF3
:1042700001C680E50E94CB90882309F4FBC560E06D
:1042800070E080E50E940A91F82E6FEF7FEF83E5E2
:104290000E940A918C010196039708F0EBC5F7FC88
:1042A000E9C58F2D0E9491DB882339F00E949F671A
:1042B00082E895E00E94D466DDC50E94C35260E0AA
:1042C0008F2D0E946DCE0F3FBFEF1B0731F00130E5
:1042D000110571F401E010E00DC08F2D0E9415CE84
:1042E00031E020E0892B09F030E0032F122F02C0CB
:1042F00000E010E08F2D0E9415CE8017910709F481
:10430000B9C50E944268F6CF80E50E94CB90882311
:1043100009F4B0C50E9490908C01892B09F07FC0F0
:1043200083E50E94CB90882389F00E9490908F3F74
:10433000EFEF9E0729F48DE39DE00E9442B89AC5F5
:10434000BC018DE39DE00E94F1B894C50E94A36773
:1043500060E070E084EE93E00E947F6780913F0D03
:1043600028E532E06901C81AD10887FDD394CC0C46
:10437000DD1CCC0CDD1C0D2C000CEE08FF08809120
:104380003E0D28E830E04901881A910887FD939492
:10439000880C991C880C991C092C000CAA08BB08D5
:1043A00080913D0D8F3FC1F090E0FC01EE0FFF1FAB
:1043B0008E0F9F1FFC01E85EF24F2181328153E096
:1043C000220F331F5A95E1F764E0369527956A95D9
:1043D000E1F72E5F3F4F02C020E030E02F5F3F4FFC
:1043E000C901330FAA0BBB0B9C01AD012819390978
:1043F0004A095B09A4EBB0E00E94DCECA70196013E
:10440000281939094A095B090E94BDECB90188EEF7
:1044100096E20E947F678AE00E94A5BA2BC50E949F
:104420009F67B80185EE93E00E947F6785ED93E07A
:104430000E94D4661FC58AE50E94FD90811105C0C7
:1044400083E50E94FD908823A1F10E94949020E0D2
:1044500030E040E050EC0E9445E687FD61C70E94D5
:10446000949020E030E040E050E40E94BFEE181647
:104470000CF450C70E9494906B017C012091A10A1A
:104480003091A20A4091A30A5091A40AC701B60133
:104490000E94ABE60E9431EECB010E9449D980E533
:1044A0000E94CB90882309F441C70E94809081111B
:1044B0003DC78AE292E00E949DCD882309F45CC743
:1044C00082E50E94CB90811157C7D4C460E085E497
:1044D0000E941991811173C080E50E94CB908823BE
:1044E00051F00E94949060930C0D70930D0D809389
:1044F0000E0D90930F0D89E40E94CB90882381F0DC
:104500000E9494902CEA35EC47E25EE30E94ABE611
:104510006093100D7093110D8093120D9093130DF5
:1045200084E40E94CB90882381F00E9494902CEA2E
:1045300035EC47E25EE30E94BFED6093140D70938B
:10454000150D8093160D9093170D0E94A36740914F
:104550000C0D50910D0D60910E0D70910F0D82EBB1
:1045600093E00E946E672CEA35EC47E25EE36091CF
:10457000100D7091110D8091120D9091130D0E94EC
:10458000BFEDAB01BC018EEA93E00E946E672CEA9E
:1045900035EC47E25EE36091140D7091150D80914A
:1045A000160D9091170D0E94ABE6AB01BC018AEA93
:1045B00093E00E946E678AE00E94A5BA5BC40E94E5
:1045C0009F6788E993E00E94D46654C480E50E9406
:1045D000CB90882351F00E9494906093CE02709308
:1045E000CF028093D0029093D10289E40E94CB90B5
:1045F000882381F00E9494902CEA35EC47E25EE338
:104600000E94ABE66093D2027093D3028093D402EF
:104610009093D50284E40E94CB90882381F00E947D
:1046200094902CEA35EC47E25EE30E94BFED609384
:10463000D6027093D7028093D8029093D9020E9439
:10464000A3674091CE025091CF026091D002709149
:10465000D10282EB93E00E946E672CEA35EC47E2D0
:104660005EE36091D2027091D3028091D402909166
:10467000D5020E94BFEDAB01BC018EEA93E00E941F
:104680006E672CEA35EC47E25EE36091D6027091EA
:10469000D7028091D8029091D9020E94ABE6AB017B
:1046A000BC018AEA93E00E946E678AE00E94A5BA84
:1046B000E1C383E40E94CB90882321F00E94909074
:1046C0000E94B88E609100017091010189E893E029
:1046D0000E947F678AE00E94A5BACCC383E50E944E
:1046E000CB90182F882371F00E9494900E9431EE95
:1046F00070934D0160934C0121E0672B09F020E09D
:104700002093D10480E50E94CB90882359F020911A
:104710004C0130914D01232B11F00E948090809329
:10472000D104A8C31111A6C30E94A36786E793E032
:104730000E94D4668091D104811103C08DE593E07D
:1047400002C085EA92E20E94D46660914C017091A9
:104750004D0185E693E00E947F6781E693E00E9429
:10476000D46688C30E94256F85C38091000F811194
:104770000C94271781E00E94F9500C94271783E5C9
:104780000E94CB90882349F00E948090282E8111AE
:1047900006C080E00E94E19202C020900303409096
:1047A00094045090950460909604709097048091C2
:1047B000980490919904A0919A04B0919B0488AFB9
:1047C00099AFAAAFBBAF80919C0490919D04A0913A
:1047D0009E04B0919F048CAF9DAFAEAFBFAF86E596
:1047E0000E94CB908FAB20E030E0A9016091E50200
:1047F0007091E6028091E7029091E8020E9445E6FE
:10480000882309F4B0C083E40E94CB90882309F484
:10481000B6C00E9494906B017C011BAA312C98ECCD
:104820009CABA2ECADAB812C912CB8ECBEA7E2E422
:10483000EAABF5E0FEA32EA121502EA32F3F09F4F1
:104840003FC035E03AA795E0929FC001112422961F
:104850009FAF8EAF22979AA591509AA79F3F59F389
:104860002296EEADFFAD2297E90FF11DEE0FFF1F6F
:10487000EE0FFF1FE45CFD4F10810181B280A38029
:1048800094014EA55AA9612F702F8B2D9A2D0E944D
:1048900045E687FF04C0812E902EBEA6AAAA2BA9AA
:1048A000332D4CA95DA9612F702F8B2D9A2D0E945D
:1048B000BFEE181684F61BAB302EBCAAADAACBCF28
:1048C0002BA9332D4CA95DA9B4018EA59AA90E94EC
:1048D0003CED20E030E040E05FE30E94ABE6A70162
:1048E00096010E943CED4B015C012DEB37E346E85D
:1048F00055EB0E94BFEE87FD0AC02DEB37E346E87B
:1049000055E3C501B4010E9445E61816C4F580E0E0
:104910000E94E19205E0E02E85E0382EEA94BFEF98
:10492000EB1669F115E0F12E3E9C60011124FA941A
:10493000EFEFFE1699F386010F0D111D000F111FE9
:10494000000F111F045C1D4FA5019401D8016D914A
:104950007D918D919C910E943BEDF8016083718364
:1049600082839383E4CF211003C0FFA9FF23D1F0FA
:104970000E94A3678EE493E00E94D46616C02FA91C
:10498000222381F020E030E0A9016091E5027091DE
:10499000E6028091E7029091E8020E9445E68111CB
:1049A0000E94E366822D0E94E192222051F08091C4
:1049B0000303811106C00E949F678FE293E00E946B
:1049C000D4660E94A36781E293E00E94D46680913E
:1049D0000303811103C084EF93E002C085E592E0F8
:1049E0000E94D4668AE00E94A5BA20919404309176
:1049F00095044091960450919704C301B2010E941E
:104A000045E681110C942717209198043091990460
:104A100040919A0450919B0468AD79AD8AAD9BADED
:104A20000E9445E681110C94271720919C04309137
:104A30009D0440919E0450919F046CAD7DAD8EAD60
:104A40009FAD0E9445E6882309F414C20C942717F1
:104A50006FEF7FEF89E40E940A91182F6FEF7FEFCD
:104A60008AE40E940A91082F8AE50E94CB90F82ED2
:104A7000811105C081E50E94CB90D82E01C0D12CB8
:104A800017FD06C007FD04C0F11009C0D11007C012
:104A90000E949F6781E093E00E94D466EBC11530CD
:104AA00010F4053038F00E949F6787EE95E00E9471
:104AB000D466E0C1E12E110FFF08002E000C110B8F
:104AC0000E949490DD2099F025E02E9DF0012F9D0D
:104AD000F00D1124E00FF11FEE0FFF1FEE0FFF1F6F
:104AE000E45CFD4F208131814281538103C020E08D
:104AF00030E0A901A5E0AE9DF001AF9DF00D1124BD
:104B00000E0F1F1F000F111F000F111F045C1D4F00
:104B10000E943CEDD8016D937D938D939C931397E8
:104B2000A9C10E94E5D88111A5C109E112E0E4E91B
:104B3000F4E0FFA3EEA39E012F5F3F4F190197E41E
:104B4000C92E92E0D92E7901F80165917591859170
:104B50009491AEA1BFA18D909D90AD90BD90BFA34B
:104B6000AEA3A50194010E943BED2B013C0120E086
:104B700030E040EA51EC0E94BFEE87FD10C020E01B
:104B800030E040EA51E4C301B2010E9445E6181644
:104B900034F0F70140825182628273820EC0F601C6
:104BA00084911816B4F7B7FAB094B7F8B094D70157
:104BB0008D929D92AD92BC921397D7018D909D904E
:104BC000AD90BD907D0120E030E040EA51ECC501A0
:104BD000B4010E94BFEE87FDE1C320E030E040EA6F
:104BE00051E4C501B4010E9445E618160CF0E4C377
:104BF000D5C30E9495573EC10E94F2613BC10E94FD
:104C0000454D38C181E080933B020E942E5C10929A
:104C10003B02882309F42EC10E94A3678AEB92E02D
:104C20000E94D46627C18AE292E00E949DCD811144
:104C300028C040910D0F50910E0F60910F0F709191
:104C4000100F8BEA92E00E946E674091110F509115
:104C5000120F6091130F7091140F84EB96E20E9473
:104C60006E674091150F5091160F6091170F70915C
:104C7000180F8DEA96E20E946E678AE00E94A5BA3C
:104C8000F9C020900D0F30900E0F40900F0F5090F4
:104C9000100F6090110F7090120F8090130FF09111
:104CA000140FFEA3C090150FD090160FE090170FB1
:104CB000F090180F88E50E94FD90882351F10E9422
:104CC00094905B018C0120E030E046E153EC0E94BF
:104CD000BFEE87FD0AC020E030E046E153E4B501B5
:104CE000C8010E9445E6181694F466E970E088E968
:104CF00092E00E947F6766E970E083E992E00E949B
:104D00007F678CE694E00E94D46610E003C0150132
:104D1000280111E089E50E94FD90882381F10E941D
:104D20009490962EA72EB82E092F20E030E046E171
:104D300053EC0E94BFEE87FD0CC020E030E046E15E
:104D400053E4692D7A2D8B2D902F0E9445E618167D
:104D500094F466E970E080E892E00E947F6766E97B
:104D600070E083E992E00E947F678CE694E00E9405
:104D7000D46610E004C0692C7A2C8B2C0EA38AE533
:104D80000E94FD90882339F10E9494906B017C0170
:104D900020E030E040E151EC0E94BFEE87FD0AC008
:104DA00020E030E040E151E4C701B6010E9445E651
:104DB00018168CF467EF7FEF8EE692E00E947F6713
:104DC00069E070E083E992E00E947F678CE694E0FE
:104DD0000E94D4664FC0112309F44CC0C101D20116
:104DE00080930D0F90930E0FA0930F0FB093100FA1
:104DF000C301A82DBEA18093110F9093120FA09311
:104E0000130FB093140FC092150FD092160FE092AB
:104E1000170FF092180F2EC081E080932501109299
:104E2000200F60E083E50E942591811123C00E943C
:104E3000CCC920C00E9423851DC000914003109161
:104E400041030023B9F00E94A36784E50E94A5BA3C
:104E5000B8017727072E000C880B990B0E9419BB0D
:104E600080E20E94A5BA88E993E00E94D46602C05D
:104E70000E942385E0913A02F0E0E755F24F8081ED
:104E800081110E9491C92EA920934303BFC20E94A1
:104E9000C352309103033AAB80E00E94E1920E943A
:104EA000084881E0809301030E94314B88E50E940D
:104EB000CB90182F89E50E94CB90282E8AE50E947E
:104EC000CB901211F8C1181711F0212EF4C1222431
:104ED000239411E001E080E1E4E9F4E0AFE2B3E023
:104EE00001900D928A95E1F782E50E94FD9088235A
:104EF00069F00E9494906B017C0120E030E0A901F0
:104F00000E9445E6882309F43FC006C0C12CD12C7D
:104F100080E8E82E80E4F82E111103C0222009F465
:104F200011C180911F0F82FD09C060919C04709196
:104F30009D0480919E0490919F0403C060E070E006
:104F4000CB01A70196010E943CED6093370370935B
:104F500038038093390390933A0320919C04309155
:104F60009D0440919E0450919F040E94BFEE18162C
:104F70005CF419821A821B821C82BE016F5F7F4F14
:104F800087E393E00E942549112309F4D6C022202B
:104F900009F4D0C0109294041092950410929604D3
:104FA00010929704109298041092990410929A0407
:104FB00010929B040E94CD49E7E4F2E084918BAB10
:104FC000E5E2F2E085909590A590B490E9E2F2E0F8
:104FD000C590D590E590F490A7019601C501B40164
:104FE0000E94BFEE18162CF4A5019401C701B6016A
:104FF00004C0A7019601C501B4010E94BFED2B01B9
:105000003C01EFE3F2E085919591A591B4918EA3D7
:105010009FA3A8A7B9A7EBE3F2E085919591A5918D
:10502000B4918AA79BA7ACA7BDA79C01AD016EA1B7
:105030007FA188A599A50E94BFEE18163CF01EA17D
:105040009FA19EA738A4A9A5AEA306C01AA5BBA57B
:10505000BEA73CA4EDA5EEA3A3019201C301B2013A
:105060000E94ABE620E030E040E85FE30E943CEDC8
:105070000E94FDEE212F3EA5432D5EA10E94ABE6CE
:105080006E8F7F8F88A399A3E8E4F2E0149120E06B
:1050900030E040EC5FE3C701B6010E94ABE66B0174
:1050A0007C01612F110F770B880B990B0E944CE646
:1050B0009B01AC01C701B6010E94ABE669837A830C
:1050C0008B839C8320E030E040EC5FE3C501B401BA
:1050D0000E94ABE66B017C01FBA96F2FFF0F770BE2
:1050E000880B990B0E944CE69B01AC01C701B601ED
:1050F0000E94ABE66E8B7F8B888F998FAE01425EEC
:105100005F4FBE016F5F7F4FCE0146960E940349FD
:105110000E94404B109294041092950410929604B1
:1051200010929704109298041092990410929A0485
:1051300010929B0480E00E94094C222019F081E02B
:105140000E94094C002309F4A5C080E00E946592EA
:1051500080911F0F8370833051F060E088E396E008
:105160000E9421C60E94A36789E296E0AFC00E9418
:10517000CD4940909C0450909D0460909E04709096
:105180009F0420910D0F30910E0F40910F0F509101
:10519000100F60E070E086E992E40E943BED6B0145
:1051A0007C0160932F0370933003809331039093BD
:1051B00032032091110F3091120F4091130F509133
:1051C000140F60E070E086E992E40E943BED4B0131
:1051D0005C016093330370933403809335039093A1
:1051E00036032091150F3091160F4091170F5091F3
:1051F000180FC301B2010E943BED60933703709317
:1052000038038093390390933A0327E137EB41ED5C
:1052100058EBC501B4010E94BFEE87FD4EC027E0E8
:1052200030E046E153E4C501B4010E9445E618169A
:105230000CF443C027E137EB41ED58EBC701B60151
:105240000E94BFEE87FD39C027E030E046E153E41D
:10525000C701B6010E9445E618167CF11E8A1F8A16
:10526000188E198E88E0EFE2F3E0DE0111960190CE
:105270000D928A95E1F7AE014A5E5F4FBE016B5F0A
:105280007F4FCE0101960E94034982E00E94094CA3
:105290000E94D2510E94CD49809102038093010364
:1052A0008AA90E94E1920E94EF4783E08093240143
:1052B0000E94CF49DFCD082F0ECE60E088E196E056
:1052C0000E9421C60E94A36786E096E00E94D466F1
:1052D000DFCF0E945C93CECD11110C94F2190C9487
:1052E000EB190E9412851092E20210934303C2CD83
:1052F0000E9442680C942B1A61E0802F0E946DCEB0
:105300006F2D802F0E943ECE6F2D70E0802F0E9467
:10531000A9CEB0CDC12CD12CE12C30E4F32EAEC8F7
:10532000C12CD12CE12C20ECF22EA8C8A7019601AB
:105330006091150F7091160F8091170F9091180FB3
:105340000E943CED6093150F7093160F8093170F1A
:105350009093180F0E94A3674091150F5091160F5C
:105360006091170F7091180F85EC93E00E946E67A3
:105370008AE00E94A5BA9DC80E94A3674091150FBC
:105380005091160F6091170F7091180F86EB93E0F4
:105390000E946E678AE00E94A5BA6CCD0E949F674A
:1053A00083EE92E00E94D46661E085ED92E00E9477
:1053B00021C60E947C875ECD0C5F1F4FBFEFCB1ACA
:1053C000DB0AE5E2F2E0E017F10709F0BDCB84EA81
:1053D000E82E82E0F82E10E0F10181919191A191E7
:1053E000B1911F01F70181939193A193B1937F0133
:1053F000812F0E9458441F5F133071F70E94CF49DC
:1054000060E085EC92E00E9421C634CDCF5BDF4F97
:105410000FB6F894DEBF0FBECDBFDF91CF911F91C5
:105420000F91FF90EF90DF90CF90BF90AF909F9043
:105430008F907F906F905F904F903F902F90089546
:105440002F923F924F925F926F927F928F929F9294
:10545000AF92BF92CF92DF92EF92FF920F931F9382
:10546000CF93DF93CDB7DEB761970FB6F894DEBF69
:105470000FBECDBF8FEF9FEF909389008093880080
:105480000AE0098B212C312C789480918B03909128
:105490008C03A0918D03B0918E03892B8A2B8B2BCB
:1054A00079F08090710190907201A0907301B0909A
:1054B000740181149104A104B10409F005C2B7C1BB
:1054C0008091AE0E8823D1F01092AE0E8091AC0E7A
:1054D0009091AD0E892B29F310924C031092AD0ED2
:1054E0001092AC0E9091430D8091440D9817C9F223
:1054F0008091440D8F5F8F708093440D8091AC0E2E
:105500009091AD0E892B69F24091870350918803E9
:105510006091890370918A03809183039091840341
:10552000A0918503B091860300917A0310E020E0FA
:1055300030E0841B950BA60BB70B081719072A0739
:105540003B0710F4D901C801E82F840F951FA61F4F
:10555000B71F8093870390938803A0938903B09328
:105560008A03F1E08090510390905203A09053037E
:10557000B09054038091610390916203A091630302
:10558000B0916403880E991EAA1EBB1E809261030F
:1055900090926203A0926303B0926403B7FC31C09F
:1055A00080914403082E000C990BAA0BBB0B409171
:1055B000BB0E5091BC0E6091BD0E7091BE0E840F5B
:1055C000951FA61FB71F8093BB0E9093BC0EA09390
:1055D000BD0EB093BE0E80914D0390914E03A091ED
:1055E0004F03B0915003A5019401281B390B4A0BBE
:1055F0005B0B2093610330936203409363035093EA
:105600006403C0905503D0905603E0905703F09088
:1056100058038091650390916603A0916703B09150
:105620006803C80ED91EEA1EFB1EC0926503D09205
:105630006603E0926703F0926803F7FC31C0809143
:105640004503082E000C990BAA0BBB0B4091BF0E13
:105650005091C00E6091C10E7091C20E840F951FC3
:10566000A61FB71F8093BF0E9093C00EA093C10ECC
:10567000B093C20E80914D0390914E03A0914F03C1
:10568000B091500326013701481A590A6A0A7B0A69
:1056900040926503509266036092670370926803BC
:1056A0004091590350915A0360915B0370915C03E0
:1056B0008091690390916A03A0916B03B0916C0390
:1056C000480F591F6A1F7B1F4093690350936A0359
:1056D00060936B0370936C0377FD31C08091460338
:1056E000082E000C990BAA0BBB0B0091C30E109156
:1056F000C40E2091C50E3091C60E800F911FA21FBF
:10570000B31F8093C30E9093C40EA093C50EB093A5
:10571000C60E80914D0390914E03A0914F03B0911E
:1057200050038A019B01081B190B2A0B3B0B0093AA
:10573000690310936A0320936B0330936C03009109
:105740005D0310915E0320915F03309160038091AF
:105750006D0390916E03A0916F03B0917003800F61
:10576000911FA21FB31F80936D0390936E03A093AC
:105770006F03B0937003B7FD31C000914703002E53
:10578000000C110B220B330B4090C70E5090C80E2B
:105790006090C90E7090CA0E040D151D261D371D90
:1057A0000093C70E1093C80E2093C90E3093CA0EF3
:1057B00000914D0310914E0320914F0330915003FF
:1057C0002C013D01401A510A620A730A40926D038E
:1057D00050926E0360926F0370927003F11104C0D7
:1057E0002091840030918500B7FE5F9AF7FE469ABB
:1057F00077FF2B9AB7FF299A20918400309185007A
:105800002091840030918500B7FE5F98F7FE46989E
:1058100077FF2B98B7FF2998EE2321F08091840021
:1058200090918500E150F0E009F09CCE3ACE809155
:105830001D0F90911E0F009709F432C023B1247000
:1058400015980000000000001816190614F42A9A92
:1058500001C02A980000000000002B9A34E03A951D
:105860000000E9F72B98000000000000222311F04F
:105870002A9A01C02A980000000000001816190694
:1058800034F480911D0F90911E0F019705C08091F7
:105890001D0F90911E0F019690931E0F80931D0F68
:1058A0000E949966811104C08FEF9FEFDC0104C054
:1058B00080ED97E0A0E0B0E08093710190937201D9
:1058C000A0937301B093740180918B0390918C032A
:1058D000A0918D03B0918E03892B8A2B8B2B11F015
:1058E0000C944732E091AC0EF091AD0E309711F46C
:1058F0000C9422348091870390918803A0918903AE
:10590000B0918A0340918303509184036091850391
:105910007091860384179507A607B707D8F01092F1
:105920004C031092AD0E1092AC0E9091430D8091ED
:10593000440D981711F40C9422348091440D8F5F1C
:105940008F708093440DA0ED4A2EA7E05A2E612C53
:10595000712CF6C340917F035091800360918103C5
:1059600070918203481759076A077B0708F4A5C19D
:10597000C0907B03D0907C03E0907D03F0907E0389
:1059800085A996A9A7A9B0ADC816D906EA06FB064F
:1059900008F077C1C114D104E104F10449F4809105
:1059A000480390914903A0914A03B0914B0365C10C
:1059B000B0E0A9818C2D3D2D2E2DFA81EB817C81CB
:1059C0006D815E814F8198855091D003589F712DD4
:1059D00066274091D103489F700D611D1090D2033E
:1059E000189E600D539F700D611D439F600D529F67
:1059F000600DF72FE62FF79F512D44279927F69F2B
:105A0000500D411D9B1FE79F500D411D9B1FE69FA1
:105A1000400D911DF42FE92FF79FA12D44279927C1
:105A2000F69FA00D411D9B1FE79FA00D411D9B1FD1
:105A3000E69F400D911DF42FE92F552780914803D3
:105A40003091490320914A030090670B0B2A09F417
:105A500084C04091630B4F9F51198B0B3B0B2B0B59
:105A60009091640B9F9F501981093B0B2B0BA091C8
:105A7000650BAF9F801931092B0B4E9F501981097F
:105A80003B0B2B0B9E9F801931092B0BAE9F3019BE
:105A90002109F79FA12D44279927F69FA00D411DAD
:105AA0009B1FE79FA00D411D9B1FE69F400D911D71
:105AB000F42FE92F40915F0B4F9F510D8B1F3B1F20
:105AC0002B1F9091600B9F9F500D811D3B1F2B1F23
:105AD000A091610BAF9F800D311D2B1F4E9F500D6C
