:100000000C94611D0C94921D0C94921D0C94921DE5
:100010000C94921D0C94921D0C94921D0C94921DA4
:100020000C94921D0C94921D0C94921D0C94921D94
:100030000C94921D0C94921D0C94921D0C94921D84
:100040000C94921D0C9491F80C94921D0C94921D9A
:100050000C94921D0C94921D0C943FD30D94552C2E
:100060000C94921D0C948B3B0C94813B0C94921D30
:100070000C94921D0C94921D0C94921D0C94921D44
:100080000C94921D0C94921D0C94921D0C94921D34
:100090000C94921D0C94921D0C94921D0C94921D24
:1000A0000C94921D0C94921D0C94921D0C94921D14
:1000B0000C94921D0C94921D0C94921D0C94921D04
:1000C0000C94921D0C94921D0C94921D0C94921DF4
:1000D0000C94921D0C94921D0C94921D0C94921DE4
:1000E0000C94921DC13BC73BD93BE93BF13B213C02
:1000F000F53B213CF93BFD3B213C013C053C093CE7
:10010000123C213C1D3C7D74607463748074667481
:1001100069746C7478746F748B7472747574E100A4
:100120001302F1011B0241014502C301A101290192
:10013000830109026501D301C10145026D02FB0182
:10014000E900BF01FB00670159026101B701DF014E
:100150003702110125020D023502E1013302B70118
:10016000210215022301084AD73B3BCE016E84BC15
:10017000BFFDC12F3D6C74319ABD56833DDA3D0001
:10018000C77F11BED9E4BB4C3E916BAAAABE00004A
:1001900000803F05A84CCDB2D44EB93836A9020C28
:1001A00050B9918688083CA6AAAA2ABE0000008001
:1001B0003F000C94DA820C94AC610C94507B0C944C
:1001C000F3F70D94A02A0C94AA600C94B0610C94DF
:1001D000EA740D94D52A0C94477D0C9447B60C9480
:1001E000BF730C94123C0C94053C0C94F0BE0D941F
:1001F000B9000C9490610D94742B0C94DC700C94E9
:10020000D2820C94F76A0C94F8660C94927B0C944E
:10021000C0700D94D7040C94E4BE0C9478740C94C4
:10022000EEBE0D94A72B0C942A7B0C94C8700C94F2
:1002300063740D94EA000C94567B0C94207B0C9410
:1002400078610C9473600D94FC2B0C94D0700C941A
:1002500075820D94B12A0C94257B0C9456820C94D3
:10026000C13B0C941B610C941B7B0C94AFE90C9468
:100270000E7E0C9472740C9448B40C9418750C9403
:10028000B0660D949C2A0C944B6D0C9408610C94F0
:1002900014650C94E6BE0C94FD830C940D720C94C2
:1002A000013C0D9497020C94AFE80C94ECBE0C94B6
:1002B00018FF0D9476020C9469740C94D1BE0C94C2
:1002C00045FF0D948D2B0C94FD6A0D94BF2A0D945F
:1002D000792B0C94096B0C942E630C9425750C945B
:1002E000F5600C94C73B0C94D4700C9450BB0C94E8
:1002F000F13B0C94C3600C94F9760C943D7D0C9406
:10030000E8BE0C94B2BE0D94B52A0C94F93B0C9443
:10031000447B0C94F16A0C941AB40C9437750C94C9
:100320008B740C945BBB0C94E56A0C94B66E0C94C5
:10033000EABE0C9427750C94427D0C94D93B0D9425
:100340007C090D94AB2A0C946E7F0C94CC700C94A9
:10035000E0BE0C9473800C9491600C9448B90C949A
:10036000036B0C9434610C94E2BE0D9421370D9410
:10037000062C0C940D750C947D740C946A6C0D9481
:100380006F2B0D94C72A0D94A72A0C9423750C94F7
:100390006CFF0C94F5830D94D0000D940D020C9419
:1003A0004FE90C94216C0D94C32A0C940DFF0C940E
:1003B0000A720D948F190C947BFF0C94FD3B0D94E5
:1003C000972B0D94D42B0C9464FF0D943F370C9411
:1003D000213C0C9470600C9410720C94B8700D94C5
:1003E0005C090D94922A0C94E0850C94E2BB0C9469
:1003F0005F790C9446610D94D12A0C9437760C9455
:1004000075740C9485B90C94C3640C94EB6A0C94C9
:10041000093C0D94B92A0C946C740D94BB2B0C946C
:1004200031760C94AE840D94A32A0D94F22B0C9487
:10043000EEFE0D944C010D94962A0C9417820C94A8
:100440004A7B0D94E82B0D9404010D94B12B0C9470
:1004500005650C9460740C94C4700C9451650C94F4
:10046000E6E80C946F740D94DE2B0D94C52B0D945F
:100470009F2B0C947E880C94FAE80C9484610C9465
:10048000156B0C94EF630C94DC600D94DA2A0C94D9
:10049000DE740C9450E90C94AAFE0C94BC700C947D
:1004A00053850C94C9820C940F6B0C9476600C9459
:1004B00081B40D94832B0C9477FF0C9416E90C9463
:1004C00059610C94D9E80C94F9BC0C94D8700C9434
:1004D00083B40C941D3C0C948ACB0D94CD2A0C94BF
:1004E00066740C944C7D0C9480740C941B6B0C946F
:1004F000DF6A0C9431B40C94F53B0C94E93B4E410B
:100500004E494E495459494E46CDCCCC3D0AD7238D
:100510003C17B7D13877CC2B329595E6241FB14FD5
:100520000A000020410000C84200401C4620BCBE1A
:100530004CCA1B0E5AAEC59D7400407A10F35A0087
:10054000A0724E18090010A5D4E80000E8764817FC
:100550000000E40B54020000CA9A3B000000E1F5E1
:1005600005000080969800000040420F000000A0A7
:100570008601000000102700000000E803000000D2
:10058000006400000000000A0000000000010000FC
:100590000000002C76D888DC674F0823DFC1DFAE6F
:1005A00059E1B1B796E5E3E453C63AE65199769638
:1005B000E8E6C28426EB898C9B62ED407C6FFCEF01
:1005C000BC9C9F40F2BAA56FA5F490055A2AF75C2F
:1005D000936B6CF9676DC11BFCE0E40D47FEF520E1
:1005E000E6B500D0ED902E030094357705008084A9
:1005F0001E080000204E0A000000C80C33333333BD
:100600000F986E12831141EF8D2114893BE6551628
:10061000CFFEE6DB18D1844B381BF77C1D901DA460
:10062000BBE424203284725E228100C9F124ECA153
:10063000E53D27434F4D4D554E49434154494F4E9B
:100640000044525952554E004552524F52530045A4
:1006500043484F0047322F47332062616420706166
:1006600072616D65746572730A00536C6565702EF6
:100670002E2E00206F6620004D424C20473239203C
:10068000706F696E7420004A206F7574206F662049
:1006900072616E67652028302D0049206F757420C7
:1006A0006F662072616E67652028302D004D65737E
:1006B000682070726F62696E6720646F6E652E0AC3
:1006C000005374617274206D6573682070726F627C
:1006D000696E672077697468202247323920533168
:1006E000222066697273742E0A004732380A473234
:1006F0003920533200686173206E6F206461746129
:100700002E0A004D65736820426564204C6576654D
:100710006C696E67200053206F7574206F662072BD
:10072000616E67652028302D35292E0A004D6573CE
:100730006820706F696E742063616E6E6F742062E2
:1007400065207265736F6C7665640A004E6F204D8C
:100750006F76652E00456E642066696C65206C6955
:1007600073740A00426567696E2066696C65206C67
:100770006973740A00526573756D696E672053441E
:1007800000286E6F2066696C65290043757272657A
:100790006E742066696C653A20005072696E742030
:1007A00074696D653A20000A53746174733A204687
:1007B000696C616D656E7420757365643A20002CF8
:1007C000204C6F6E67657374206A6F623A20005424
:1007D0006F74616C2074696D653A20002C2046614D
:1007E000696C65643A20002C2046696E69736865FF
:1007F000643A20005072696E74733A200053746139
:1008000074733A2000452025530044454255473A29
:10081000004D31313320530042656420436F6F6CCB
:10082000696E672E2E2E00426564204865617469EA
:100830006E672E2E2E00544D334420456E64657233
:1008400034204F46462E004348414D4245525F54A6
:10085000454D5045524154555245004D4F54494F16
:100860004E5F4D4F44455300544845524D414C5FF7
:1008700050524F54454354494F4E004155544F52E6
:1008800045504F52545F53445F53544154555300A5
:1008900050524F4D50545F535550504F5254004595
:1008A0004D455247454E43595F50415253455200C2
:1008B000434153455F4C494748545F42524947487A
:1008C000544E45535300544F47474C455F4C49479E
:1008D00048545300534F4654574152455F504F5769
:1008E0004552004255494C445F50455243454E5491
:1008F000004C4556454C494E475F44415441005ACF
:100900005F50524F4245004155544F4C4556454C5F
:10091000005052494E545F4A4F420050524F475286
:10092000455353004155544F5245504F52545F5414
:10093000454D5000564F4C554D4554524943004289
:10094000494E4152595F46494C455F5452414E53BE
:100950004645520053455249414C5F584F4E5F58EF
:100960004F4646004649524D574152455F4E414D14
:10097000453A4D61726C696E20322E302E345F44E0
:10098000573620544D3344204534534D444E4E2069
:10099000534F555243455F434F44455F55524C3A80
:1009A00068747470733A2F2F6769746875622E6368
:1009B0006F6D2F496E73616E6974794175746F6DD7
:1009C0006174696F6E2F4D61726C696E2F74726500
:1009D000652F437265616C6974794477696E5F3223
:1009E0002E302050524F544F434F4C5F5645525378
:1009F000494F4E3A312E30204D414348494E455FD4
:100A0000545950453A544D334420456E6465723410
:100A10002045585452554445525F434F554E543A21
:100A20003120555549443A63656465326132662D1B
:100A3000343161322D343734382D396231322D63FF
:100A400035356336326633363766660A002F2F2017
:100A5000004D31343520533C696E6465783E206F1B
:100A60007574206F662072616E67652028302D31A5
:100A7000290A0020466C6F773A200050726F746527
:100A8000637465642050696E0A004D424C204164D5
:100A90006A757374205A0020643A0020693A002075
:100AA000703A006469730043290A0061626C6564EE
:100AB00020286D696E2074656D702000436F6C6432
:100AC0002065787472756465732061726520004FCB
:100AD000666673657473204170706C696564004567
:100AE00072723A20546F6F206661722100546F6FEA
:100AF000206661722066726F6D2072656665726530
:100B00006E636520706F696E740A00454550524FE0
:100B10004D204F4B0A003F4B2076616C7565206F6E
:100B20007574206F662072616E67652028302D31E4
:100B300030292E0A00416476616E6365204B3D00CA
:100B4000506F7765722D6C6F7373207265636F766B
:100B500065727920004F06730B480641063306552F
:100B60004E4B4E4F574E2053544154450047434F30
:100B700044455F494E464F004C43445F50415553F6
:100B8000455F524553554D450046494C414D454EF4
:100B9000545F52554E4F55545F434F4E54494E5536
:100BA000450046494C414D454E545F52554E4F55B8
:100BB00054004D38373620526573706F6E64696E1D
:100BC000672050524F4D50545F004572726F722033
:100BD00077726974696E6720746F20454550524F73
:100BE0004D210A00627573793A20706175736564EE
:100BF00020666F7220696E7075740A006275737971
:100C00003A2070617573656420666F722075736534
:100C1000720A00627573793A2070726F636573733C
:100C2000696E670A0053544F505045442E200050BF
:100C300072696E7465722073746F7070656420647D
:100C4000756520746F206572726F72732E2046690D
:100C50007820746865206572726F7220616E6420FE
:100C6000757365204D39393920746F20726573743E
:100C70006172742E202854656D706572617475728E
:100C8000652069732072657365742E205365742026
:100C90006974206166746572207265737461727420
:100CA000696E67290A004E6F20436865636B737530
:100CB0006D2077697468206C696E65206E756D6251
:100CC00065722C204C617374204C696E653A20006B
:100CD000636865636B73756D206D69736D617463B3
:100CE000682C204C617374204C696E653A20004C6E
:100CF000696E65204E756D626572206973206E6F36
:100D000074204C617374204C696E65204E756D6261
:100D100065722B312C204C617374204C696E653ADE
:100D200020004D31313000776169740A005344204E
:100D300072656164206572726F720A002121204B16
:100D4000494C4C20636175736564206279204B497E
:100D50004C4C20627574746F6E2F70696E0A00219E
:100D600021204B494C4C2063617573656420627986
:100D700020746F6F206D75636820696E616374699C
:100D800076652074696D65202D2063757272656EBD
:100D90007420636F6D6D616E643A2000506C656104
:100DA0007365205265736574005052494E54455224
:100DB0002048414C5445440025533A2025530070A7
:100DC0006F7765726F6666004B494C4C45442E2028
:100DD000005072696E7465722068616C7465642E6F
:100DE000206B696C6C28292063616C6C6564210A36
:100DF000006563686F3A004572726F723A00363769
:100E000026033C3D380E2E303E121A1C1808440AA8
:100E1000FF43080907000124F4D43050C38E20C2D8
:100E2000A24017828B7011127A910D816CD90AA899
:100E300061E108C7586607615143061E4B5D05C155
:100E400045A7041A411104093D9803713931034043
:100E500036DB0265339102D4305402802E1D0263CA
:100E60002CEE01752AC501B028A001102781018F41
:100E70002564012B244B01E0223401AC211F018D9C
:100E8000200D01801FFC00841EED00971DDF00B8BF
:100E90001CD200E61BC600201BBC00641AB200B2C4
:100EA00019A8000A19A0006A189900D117910040EA
:100EB000178B00B516840031167E00B31579003A01
:100EC000157300C7146F0058146A00EE136600888B
:100ED00013630025135E00C7125B006C12570015E8
:100EE000125400C111510070114F0021114B00D656
:100EF0001049008D1047004610440002104200C007
:100F00000F4000800F3E00420F3C00060F3B00CB1D
:100F10000E3800930E37005C0E3500270E3400F3B8
:100F20000D3200C10D3100900D3000600D2E0032E9
:100F30000D2D00050D2C00D90C2B00AE0C290085C1
:100F40000C29005C0C2700350C27000E0C2600E84D
:100F50000B2400C40B2400A00B23007D0B23005A9C
:100F60000B2100390B2100180B2000F80A1F00D9B3
:100F70000A1E00BB0A1E009D0A1D00800A1D006398
:100F80000A1C00470A1B002C0A1B00110A1A00F752
:100F9000091A00DD091900C4091900AB09190092EA
:100FA0000917007B091800630917004C0916003661
:100FB000091600200916000A091500F5081500E0B9
:100FC000081400CC081400B8081400A408140090F9
:100FD0000813007D0812006B081300580812004621
:100FE0000812003408110023081100120811000132
:100FF000081100F0071000E0071000D0071000C033
:10100000071000B0070F00A107100091070E008322
:10101000070F0074070F0065070E0057070E004901
:10102000070E003B070D002E070E0020070D0013D2
:10103000070D0006070D00F9060C00ED060D00E097
:10104000060C00D4060C00C8060C00BC060C00B050
:10105000060C00A4060B0099060C008D060B0082FE
:10106000060B0077060B006C060B0061060A0057A2
:10107000060B004C060A0042060A0038060A002E3B
:10108000060A0024060A001A060A001006090007CC
:10109000060A00FD050900F4050900EB050900E258
:1010A000050900D9050900D0050900C7050900BEDA
:1010B000050900B5050800AD050800A50509009C57
:1010C000050800940508008C050800840508007CCC
:1010D000050800740508006C050700650508005D3B
:1010E000050700560508004E0507004705070040A4
:1010F00005080038050700310507002A0507002309
:101100000507001C050600160507000F0507000867
:1011100005060002050700FB040600F5040700EEC3
:10112000040600E8040600E2040700DB040600D51C
:10113000040600CF040600C9040600C3040600BD6F
:10114000040600B7040600B1040500AC040600A6BE
:10115000040600A00405009B040600950405009009
:101160000406008A04050085040500800406007A50
:1011700004050075040500700405006B0405006695
:10118000040500610405005C0405005704050052D5
:101190000405004D04050048040500430405003E15
:1011A0000404003A04050035040500300404002C52
:1011B00004050027040400230405001E0404001A8B
:1011C00004040016040500110404000D04040009C1
:1011D0000405000404040000040400FC030400F8F7
:1011E000030400F4030400F0030400EC030400E82B
:1011F000030400E4030400E0030400DC030400D85B
:10120000030400D4030400D0030400CC030400C88A
:10121000030300C503030024F404D9201BC40C5CA1
:101220000E9804C4095F0265077101F405F900FB1B
:1012300004B30048048700C1036900580355000344
:10124000034500BE023A008402310053022A0029FD
:1012500002250004022000E4011C00C8011900AFAF
:10126000011700980114008401130071011000613E
:1012700001100051010E0043010D0036010B002B3F
:10128000010B0020010B00150109000C01090003EE
:10129000010800FB000800F3000800EB000700E471
:1012A000000600DE000600D8000600D2000600CCD2
:1012B000000500C7000500C2000500BD000400B91C
:1012C000000400B5000400B1000400AD000400A952
:1012D000000400A5000300A20003009F0004009B7F
:1012E00000030098000300950002009300030090A3
:1012F0000003008D0002008B0003008800020086BE
:1013000000020084000300810002007F0002007DD3
:101310000002007B000200790002007700010076E5
:101320000002007400020072000100710002006FF0
:101330000002006D0001006C0002006A00010069FB
:101340000002006700010066000100650001006402
:101350000002006200010061000100600001005F06
:101360000002005D0001005C0001005B0001005A0A
:10137000000100590001005800010057000100560B
:10138000000100550001005400010053000000530B
:101390000001005200010051000100500001004F07
:1013A0000001004E0000004E0001004D0001004C05
:1013B0000001004B0000004B0001004A0001004901
:1013C00000010048000000480001004700010046FD
:1013D00000000046000100450000004500010044F7
:1013E00000010043000000430001004200000042F1
:1013F0000001004100000041000100400001003FE9
:101400000000003F0001003E0000003E0001003DE2
:101410000000003D0001003C0000003C0000003CDA
:101420000001003B0000003B0001003A0000003AD0
:1014300000010039000000390001003800000038C8
:1014400000000038000100370000003700010036BE
:1014500000000036000000360001003500000035B5
:1014600000000035000100340000003400000034AA
:10147000000100330000003300000033000100329F
:101480000000003200000032000100310000003195
:10149000000000310001003000000030000000308A
:1014A0000001002F0000002F0000002F0000002F7F
:1014B0000001002E0000002E0000002E0001002D73
:1014C0000000002D0000002D0000002D0001002C68
:1014D0000000002C0000002C0000002C0001002B5C
:1014E0000000002B0000002B0000002B0001002A50
:1014F0000000002A0000002A0000002A0001002944
:101500000000002900000029000000290000002937
:10151000000100280000002800000028000000282A
:10152000000000280001002700000027000000271D
:101530000000002700000027000100260000002610
:101540000000002600000026000000260001002503
:1015500000000025000000250000002500000025F7
:1015600000000025000100240000002400000024E9
:1015700000000024000000240001002300000023DC
:1015800000000023000000230000002300000023CF
:1015900000000023000100220000002200000022C1
:1015A00000000022000000220000002200010021B3
:1015B00000000021000000210000002100000021A7
:1015C0000000002100000021000100200000002098
:1015D000000000200000002000000020000000208B
:1015E00000000020000000200001001F0000001F7C
:1015F0000000001F0000001F0000001F0000001F6F
:101600000000001F0001001E0000001E0000001E60
:101610000000001E000000232C0000B8220000562D
:101620001800003A0F0000B8080000B10400007173
:101630000200003E010000473236204865617469AF
:101640006E67204E6F7A7A6C6500473236204865A7
:101650006174696E67204265640057616974696EE0
:101660006720666F72206865617475702E0A004687
:1016700069786564204C656E677468205072696D86
:101680006500446F6E65205072696D696E67004D2C
:10169000616E75616C207072696D696E672E2E2E99
:1016A000004732362043616E63656C6564004C65AB
:1016B0006176696E6720473236003F537065636913
:1016C0006669656420582C5920636F6F7264696E77
:1016D000617465206F7574206F6620626F756E642B
:1016E000732E0A003F285229657065617420766167
:1016F0006C7565206E6F7420706C61757369626CB7
:10170000653B206D757374206265206174206C6583
:1017100061737420312E0A003F53706563696669F6
:101720006564206E6F7A7A6C652074656D70657281
:101730006174757265206E6F7420706C6175736969
:10174000626C652E0A003F53706563696669656463
:101750002066696C616D656E742073697A65206EB0
:101760006F7420706C61757369626C652E0A003F3E
:10177000537065636966696564207072696D652080
:101780006C656E677468206E6F7420706C61757321
:1017900069626C652E0A003F53706563696669650E
:1017A00064206E6F7A7A6C652073697A65206E6F3B
:1017B0007420706C61757369626C652E0A003F520B
:1017C000657472616374696F6E204D756C746970B5
:1017D0006C696572206D7573742062652073706525
:1017E0006369666965642E0A003F537065636966C4
:1017F0006965642052657472616374696F6E204D0F
:10180000756C7469706C696572206E6F7420706C91
:1018100061757369626C652E0A003F537065636978
:1018200066696564206C61796572206865696768BE
:1018300074206E6F7420706C61757369626C652EB4
:101840000A0043292E0A003F537065636966696583
:1018500064206265642074656D7065726174757270
:1018600065206E6F7420706C61757369626C6520A1
:101870002834302D00473236207374617274696EDB
:10188000672E2E2E0A000A4D6561737572656420FD
:10189000706F696E74733A0A00357835206D657320
:1018A000682E205A206F66667365743A2000507265
:1018B000696E74696E67204F626A656374002553B0
:1018C000202569002F2F616374696F6E3A0062658D
:1018D00067696E00627574746F6E0073686F77006D
:1018E00050757267654D6F726500486F74656E6400
:1018F00020746F6F20636F6C640A0053656E642000
:101900004D31303820746F20726573756D650A0033
:1019100052656865617420446F6E65005265686544
:101920006174696E6700526568656174004865613D
:1019300074657254696D656F75740053656E6420CB
:101940004D31303820746F2068656174206E6F7A75
:101950007A6C650A004E6F7A7A6C65205061726B02
:10196000656400706175736564004D3630303A20EF
:10197000546F6F20436F6C6400726573756D65649E
:10198000004C6F61642046696C616D656E74205413
:1019900000496E736572742066696C616D656E7462
:1019A00020616E642073656E64204D3130380A000A
:1019B000526573756D696E67004C6F616420536585
:1019C0007474696E67730053746F72652053657425
:1019D00074696E677300416476616E636564205359
:1019E000657474696E677300436F6E74696E7565B4
:1019F00000554E4C4F41442046494C414D454E54B4
:101A00000046494C414D454E54204348414E4745C0
:101A10000043616E63656C204F626A656374203DAC
:101A20000046616E20537065656400526573746F83
:101A300072652044656661756C74730050726568E8
:101A40006561742041425320436F6E660050726599
:101A50006865617420504C4120436F6E66004D37BD
:101A6000303220542564004D36303020423020542E
:101A70002564004D373032203B2564004D3730312E
:101A800020542564005075726765206D6F72650083
:101A9000524553554D45204F5054494F4E533A00EF
:101AA0005052494E54205041555345440020204E39
:101AB0006F7A7A6C653A2000256C642E25696D007A
:101AC000457874727564656420546F74616C004C61
:101AD0006F6E67657374204A6F622054696D65008C
:101AE0003E2000546F74616C205072696E742074D3
:101AF000696D6500436F6D706C657465640050724C
:101B0000696E7420436F756E740031353000424544
:101B1000443A4154432031303447542D32005275F9
:101B20006E617761792057617463683A204F4E0087
:101B30004D61782054656D7000333135004D696E0C
:101B40002054656D700045313A204550434F532075
:101B50003130304B005061726B696E672E2E2E0053
:101B600000005761697420666F720066696C616D70
:101B7000656E74206368616E676500746F207374AE
:101B8000617274005761697420666F720066696CD7
:101B9000616D656E7420756E6C6F616400004E6FD0
:101BA0007A7A6C652068656174696E6700506C654F
:101BB00061736520776169742E2E2E000050726566
:101BC000737320627574746F6E00746F2068656142
:101BD00074206E6F7A7A6C650000496E736572745A
:101BE0002066696C616D656E7400616E6420707250
:101BF00065737320627574746F6E00746F20636F09
:101C00006E74696E7565005761697420666F720045
:101C100066696C616D656E74206C6F616400005064
:101C20007265737320427574746F6E00746F2072E6
:101C30006573756D65207072696E74000057616917
:101C40007420666F72207072696E7400746F2072F7
:101C50006573756D652E2E2E0000576169742066C0
:101C60006F720066696C616D656E74207075726765
:101C700065000054656D7065726174757265005021
:101C800072656865617420414253005072656865F1
:101C9000617420504C4100416476616E6365204B55
:101CA00000426564205A004D61696E00507265689B
:101CB0006561742041425320456E6400507265682E
:101CC000656174204142532042656400436F6F6C2C
:101CD000646F776E0046616E205370656564207E88
:101CE000004261627973746570205A00466C6F77A8
:101CF000004F6666004F6E004D6F74696F6E004254
:101D00006564204C6576656C696E670043616E6E34
:101D10006F7420656E746572207375626469723ABF
:101D20002000052E2E00536F667420456E64737478
:101D30006F7073004D38340044697361626C6520C4
:101D4000537465707065727300473238205A0048CA
:101D50006F6D65205A00473238205900486F6D6515
:101D6000205900473238205800486F6D65205800D0
:101D7000473238004175746F20486F6D65005072AE
:101D8000656865617420504C4120456E6400507256
:101D9000656865617420504C4120426564004F7550
:101DA00074616765205265636F7665727900436F71
:101DB0006E66696775726174696F6E003F0043619A
:101DC0006E63656C005053550047656E65726963BC
:101DD0000050726F746F636F6C00312E300042617F
:101DE00075640032353030303000437265616C69A3
:101DF000747933442052414D5053004D657368202F
:101E00004C6576656C696E670045787472756465BB
:101E100072730074696E796D616368696E6573339E
:101E2000642E636F6D00544D334420456E646572BB
:101E30003400323032302D30322D323800322E30F4
:101E40002E345F445736005072696E7465722053A9
:101E50007461747300546865726D6973746F727322
:101E600000426F61726420496E666F005072696E45
:101E700074657220496E666F004D3130303000530A
:101E8000746F70205072696E7400526573756D6561
:101E9000205072696E74004368616E676520466900
:101EA0006C616D656E740050726568656174204385
:101EB0007573746F6D004261636B004D3231004386
:101EC00068616E6765204D656469610041626F7588
:101ED00074205072696E746572004D363030204245
:101EE000300054756E65004E6F204D656469610069
:101EF000496E666F2053637265656E00537461723C
:101F000074205072696E74002062797465733B208E
:101F1000637263200053657474696E677320537431
:101F20006F726564202800454550524F4D20646112
:101F3000746173697A65206572726F722E0A00206F
:101F400073746F7265642073657474696E6773204F
:101F50007265747269657665642028002028636163
:101F60006C63756C6174656429210A0020213D2031
:101F700000454550524F4D20435243206D69736DCB
:101F800061746368202D202873746F726564292042
:101F900000496E6465783A2000204D61726C696E6C
:101FA0003D563736290A00454550524F4D2076653B
:101FB0007273696F6E206D69736D61746368202838
:101FC000454550524F4D3D0000000000000000000C
:101FD00000000000000066430000614300009643DB
:101FE0000000484200004842000080400202040015
:101FF00000A0400000A04000000040FFFFFF0000E4
:10200000000100000001000080005555550000004F
:10201000400033333300AAAA2A004992240000006A
:102020002000C7711C0099991900D145170055551A
:1020300015003BB1130024491200111111000000DA
:1020400010000F0F0F00E3380E0043790D00CCCCC9
:102050000C00C3300C00E8A20B0064210B00AAAAFC
:102060000A00703D0A009DD80900427B09009224B5
:102070000900DCD30800888808001042080000002E
:102080000800F0C107008787070075500700711C22
:1020900007003EEB0600A1BC0600699006006666DC
:1020A0000600703E06006118060017F4050074D1A2
:1020B00005005BB00500B290050062720500555541
:1020C000050078390500B81E0500050505004EEC31
:1020D000040087D40400A1BD040090A70400499225
:1020E0000400C17D0400EE690400C75604004444A6
:1020F00004005C32040008210400411004000000C8
:1021000004003FF00300F8E0030026D20300C3C33D
:102110000300CCB503003AA803000A9B0300388EE5
:102120000300C08103009F750300D0690300505E67
:1021300003001D53030034480300913D0300333373
:10214000030016290300381F030097150300300C05
:102150000300030303000BFA020049F10200BAE88E
:1021600002005CE002002DD802002DD0020059C808
:102170000200B0C0020031B90200DAB10200AAAA1E
:102180000200A0A30200BC9C0200FA9502005C8F32
:102190000200DF88020082820200457C020027766E
:1021A000020027700200436A02007C640200D05ED5
:1021B00002003F590200C853020020423A00204367
:1021C0006F756E7420413A005761726E696E673A9E
:1021D00020486F6D696E672042756D702044697686
:1021E00069736F72203C20310A0020746F6F206C7D
:1021F0006F6E6720657874727573696F6E20707288
:102200006576656E7465640A0020636F6C64206592
:102210007874727573696F6E2070726576656E740E
:1022200065640A004C6F6164206D6D00556E6C6FC3
:102230006164206D6D0046696C2E204469612E003A
:102240004520696E206D6DC2B3004D33303320558B
:1022500031204525692053256900504944204175A6
:10226000746F74756E65202A005049442D44202AED
:10227000005049442D49202A005049442D50202A1D
:102280000020022046616374002002204D61780026
:102290002002204D696E004175746F74656D700089
:1022A0005654726176204D696E00566D696E005607
:1022B0006D6178204500566D6178205A00566D6139
:1022C00078205900566D6178205800416D61782062
:1022D0004500416D6178205A00416D6178205900B8
:1022E000416D6178205800412D54726176656C0013
:1022F000412D5265747261637400416363656C00C3
:102300004A756E6374696F6E204465760045737418
:102310006570732F6D6D005A73746570732F6D6DDA
:10232000005973746570732F6D6D00587374657008
:10233000732F6D6D00496E6974004D343238004959
:102340006E697469616C697A6520454550524F4DDC
:102350000053746570732F6D6D004A65726B004198
:102360006363656C65726174696F6E0056656C6F4E
:10237000636974790053657420486F6D65204F66FA
:102380006673657473007C3C3E5E2B3D3F2F5B5D46
:102390003B2C2A225C00496E76616C69642065786A
:1023A0007472756465720A00544845524D414C2060
:1023B00052554E4157415900546865726D616C2009
:1023C00052756E61776179004572723A204D4158BD
:1023D00054454D50004D415854454D50207472693C
:1023E000676765726564004572723A204D494E54C4
:1023F000454D50004D494E54454D5020747269670B
:102400006765726564004D383420582059205A2081
:102410004500202F002042403A0020403A0020573B
:102420003A001000C90210012C0140012201700184
:102430001801B0010E01F00104015002FA00B002CF
:10244000F0003003E600D003DC009004D2007005F9
:10245000C800A006BE000008B400B009AA00D00B56
:10246000A000600E960060118C00001582002019FB
:102470007800C01D6E00A0226400B0275A00902C86
:10248000500000314600E0343C0010383200903AF1
:102490002800603C1E00A03D1400803E0A00203F42
:1024A0000000206E6F7420656E74657265642E0A7C
:1024B000004D34323120696E636F7272656374202F
:1024C000706172616D657465722075736167650A0C
:1024D00000416363656C65726174696F6E3A205088
:1024E000003F4A206F7574206F662072616E6765C9
:1024F0002028302E303120746F20302E33290A00EE
:10250000204D393220580020204D61783A2000209B
:10251000204D696E3A2000536F667420656E6473B7
:10252000746F70733A20004D32342053256C642050
:1025300054256C64004739322E39204525730047F5
:102540003120462564004739322E39205A25730040
:102550004731205A3020463230300047312058254C
:102560007320592573204633303030004D343230DB
:1025700020532569205A2573004D313036205025CF
:102580006920532569004D31303920532569004DAC
:1025900031393020532569004D32303020442573C5
:1025A000004739322E392045305A300A47315A32E5
:1025B0000A47323852305859004D343230205330A7
:1025C000205A300020496E76616C69642065787409
:1025D00072756465722000656E7175657565696EEA
:1025E000672022006F6B00526573656E643A2000AD
:1025F00025697920256964202569682025696D2071
:102600002569730023646566696E6520444546410B
:10261000554C545F004B6420004B6920004B7020E8
:1026200000504944204175746F74756E6520666969
:102630006E69736865642120507574207468652024
:102640006C617374204B702C204B6920616E642088
:102650004B6420636F6E7374616E74732066726F67
:102660006D2062656C6F7720696E746F20436F6EAA
:1026700066696775726174696F6E2E680A005049E9
:1026800044204175746F74756E65206661696C6570
:1026900064212074696D656F75740A000A20436CAB
:1026A000617373696320504944200A00204B643AE7
:1026B0002000204B693A2000204B703A20000A206D
:1026C0004E6F206F76657273686F6F740A002054C6
:1026D000753A2000204B753A2000206D61783A2031
:1026E00000206D696E3A200020643A200020626963
:1026F00061733A2000504944204175746F74756EBF
:10270000652073746172740A0050494420417574E5
:102710006F74756E65206661696C6564212054650F
:102720006D706572617475726520746F6F20686971
:1027300067680A00504944204175746F74756E656E
:10274000206661696C65642120426164206578744B
:102750007275646572206E756D6265720A00A10003
:1027600000006900A20000006300B0000000090042
:10277000C10000004100C20000004100C300000091
:102780004100C40000004100C50000004100C60037
:1027900000004145C70000004300C800000045009C
:1027A000C90000004500CD0000004900D100000034
:1027B0004E00D50000004F00D60000004F00D700AB
:1027C00000007800DC0000005500DD00000059002A
:1027D000E00000006100E10000006100E200000094
:1027E0006100E30000006100E40000006100E5001A
:1027F00000006100E60000006165E7000000630082
:10280000E80000006500E90000006500EA00000043
:102810006500EB0000006500EC0000006900ED00C1
:1028200000006900EE0000006900EF000000690090
:10283000F10000006E00F20000006F00F3000000E5
:102840006F00F40000006F00F50000006F00F6005C
:1028500000006F00F80000006F00F9000000750034
:10286000FA0000007500FB0000007500FC0000008D
:102870007500FD0000007900FF00000079000401F0
:102880000000410005010000610006010000430056
:102890000701000063000C01000043000D0100006F
:1028A00063000E01000044000F01000064001101EC
:1028B000000064001901000065001F0100006700AE
:1028C00030010000490031010000690041010000B1
:1028D0004C00420100006C00430100004E00440126
:1028E00000006E00480100006E00590100007200F7
:1028F0005A01000053005B01000073005F010000FB
:102900007300600100005300610100007300650165
:10291000000074006F01000075007C0100007A0067
:102920007D0100005A007E0100007A009201000043
:102930006600E30200007800222000002E001E2125
:102940000000507822210000544D902100003C2DC1
:10295000922100002D3EB02100000300BB210000A9
:1029600004003C2200007E00482200007E3D6022E0
:102970000000213D612200003D00642200003C3D3A
:10298000652200003E3DF12300000700A03000005A
:102990003D0021F301000200C2F401000500A20085
:1029A0000000EC00B0000000DF00E4000000E100E7
:1029B000F6000000EF00F7000000FD00FC00000042
:1029C000F500E3020000EB0087030000A5008F0381
:1029D0000000F40098030000F2009E030000E300F2
:1029E000A3030000F600A9030000F400AC030000FC
:1029F000E000AD030000E300B1030000E000B2031B
:102A00000000E200B5030000E300B8030000F2009C
:102A1000BC030000E400BE030000E300C0030000AC
:102A2000F700C1030000E600C3030000E5009021A9
:102A300000007F00922100007E001A220000E800C2
:102A40001E220000F30088250000FF000230000075
:102A5000A1000C300000A2000D300000A3009B304C
:102A60000000DE009C300000DF00A03000003D00D0
:102A7000A1300000A700A2300000B100A330000088
:102A8000A800A4300000B200A5300000A900A630C4
:102A90000000B300A7300000AA00A8300000B40076
:102AA000A9300000AB00AA300000B500AB30000038
:102AB000B600AC300000B6DEAD300000B700AE307E
:102AC0000000B7DEAF300000B800B0300000B8DE64
:102AD000B1300000B900B2300000B9DEB330000000
:102AE000BA00B4300000BADEB5300000BB00B6302A
:102AF0000000BBDEB7300000BC00B8300000BCDE18
:102B0000B9300000BD00BA300000BDDEBB300000AF
:102B1000BE00BC300000BEDEBD300000BF00BE30D5
:102B20000000BFDEBF300000C000C0300000C0DECB
:102B3000C1300000C100C2300000C1DEC33000005F
:102B4000AF00C4300000C200C5300000C2DEC63095
:102B50000000C300C7300000C3DEC8300000C4005E
:102B6000C9300000C4DECA300000C500CB30000010
:102B7000C600CC300000C700CD300000C800CE3009
:102B80000000C900CF300000CA00D0300000CADE0B
:102B9000D1300000CADFD2300000CB00D3300000BB
:102BA000CBDED4300000CBDFD5300000CC00D630F7
:102BB0000000CCDED7300000CCDFD8300000CD00E4
:102BC000D9300000CDDEDA300000CDDFDB30000090
:102BD000CE00DC300000CEDEDD300000CEDFDE30A7
:102BE0000000CF00DF300000D000E0300000D10056
:102BF000E1300000D200E2300000D300E3300000FA
:102C0000AC00E4300000D400E5300000AD00E63058
:102C10000000D500E7300000AE00E8300000D6002C
:102C2000E9300000D700EA300000D800EB300000A7
:102C3000D900EC300000DA00ED300000DB00EF30AE
:102C40000000DC00F2300000A600F3300000DD00E0
:102C5000F4300000B3DEF7300000DCDEFA300000B4
:102C6000A6DEFB300000A500FC300000B000FD3007
:102C70000000A400074E0000FB0086510000FC008D
:102C800043530000FA0064FF0000A40065FF000049
:102C9000A50066FF0000A60067FF0000A70068FF10
:102CA0000000A80069FF0000A9006AFF0000AA0058
:102CB0006BFF0000AB006CFF0000AC006DFF00007C
:102CC000AD006EFF0000AE006FFF0000AF0070FFB0
:102CD0000000B00071FF0000B10072FF0000B20000
:102CE00073FF0000B30074FF0000B40075FF000024
:102CF000B50076FF0000B60077FF0000B70078FF50
:102D00000000B80079FF0000B9007AFF0000BA00A7
:102D10007BFF0000BB007CFF0000BC007DFF0000CB
:102D2000BD007EFF0000BE007FFF0000BF0080FFEF
:102D30000000C00081FF0000C10082FF0000C2004F
:102D400083FF0000C30084FF0000C40085FF000073
:102D5000C50086FF0000C60087FF0000C70088FF8F
:102D60000000C80089FF0000C9008AFF0000CA00F7
:102D70008BFF0000CB008CFF0000CC008DFF00001B
:102D8000CD008EFF0000CE008FFF0000CF0090FF2F
:102D90000000D00091FF0000D10092FF0000D2009F
:102DA00093FF0000D30094FF0000D40095FF0000C3
:102DB000D50096FF0000D60097FF0000D70098FFCF
:102DC0000000D80099FF0000D9009AFF0000DA0047
:102DD0009BFF0000DB009CFF0000DC009DFF00006B
:102DE000DD009EFF0000DE009FFF0000DF00E5FF2A
:102DF00000005C00001010101010100000141414DB
:102E0000141414000015151515151500001C1F11BC
:102E1000111F00000006191803130C00040E1F04F4
:102E20001C000000000E1315110E00001C101817D6
:102E300005060500040A0A0A0A11110E0C12120CEA
:102E400000000000001F1511151F00004D3130302B
:102E50003020530070726F6D70745F00656E640097
:102E60002020506C616E6E657242756666657242B6
:102E7000797465733A20002046726565204D656D52
:102E80006F72793A2000436F6D70696C65643A2007
:102E90004D617220203720323032300A00204C61E0
:102EA000737420557064617465643A203230323036
:102EB0002D30322D3238207C20417574686F723A83
:102EC0002054696E794D616368696E657333440A95
:102ED00000322E302E345F4457360A004D61726C3A
:102EE000696E0020536F6674776172652052657356
:102EF00065740A00205761746368646F67205265C7
:102F00007365740A002042726F776E206F757420AB
:102F100052657365740A002045787465726E616C41
:102F20002052657365740A00506F77657255700A98
:102F3000006175746F25632E670047323858590059
:102F4000446F6E65207072696E74696E6720666981
:102F50006C650A004D3331004D30513153313830FA
:102F600030006572726F722077726974696E6720C3
:102F7000746F2066696C650A00446F6E652073612A
:102F800076696E672066696C652E0A004D323900DD
:102F900025532025632025632025632025630020F9
:102FA0005A3A0020593A0020583A00656E6473740A
:102FB0006F7073206869743A20002053697A653A0B
:102FC000200043616E6E6F74206F70656E207375A4
:102FD00062646972200053442063617264206F6BE5
:102FE0000A006F70656E526F6F74206661696C6560
:102FF000640A00766F6C756D652E696E6974206663
:1030000061696C65640A00534420696E69742066C6
:1030100061696C0A004D32332025730046696C6586
:103020002073656C65637465640A0046696C65208D
:103030006F70656E65643A2000454E4420535542DA
:10304000524F5554494E450A002220706F7300229A
:1030500020706172656E743A2200535542524F558A
:1030600054494E452043414C4C207461726765744D
:103070003A2200747279696E6720746F2063616C04
:103080006C207375622D67636F64652066696C657B
:1030900073207769746820746F6F206D616E79207A
:1030A0006C6576656C732E204D4158206C65766595
:1030B0006C2069733A310A0044656C6574696F6EFF
:1030C000206661696C65642C2046696C653A200055
:1030D00046696C652064656C657465643A005344A8
:1030E000207072696E74696E672062797465200061
:1030F0004E6F74205344207072696E74696E670A53
:103100000057726974696E6720746F2066696C6518
:103110003A2000667265736800646F696E67004EDE
:103120006F7720004D6F7665205A005072696E747B
:103130002066726F6D204D65646961005072696E22
:103140007420506175736564004D6F76652025733A
:103150006D6D004D6F766520302E316D6D004D6FB9
:10316000766520316D6D004D6F76652031306D6D67
:10317000004D6F7665204178697300486F74656E05
:103180006420746F6F20636F6C640045787472758F
:10319000646572004D6F76652059004D6F7665202D
:1031A0005800486F6D652025732573257320466987
:1031B00072737400220A00556E6B6E6F776E206317
:1031C0006F6D6D616E643A202200544D334420458A
:1031D0006E646572342052656164792E00507269A4
:1031E0006E74696E672E2E2E0000002000230026CC
:1031F0000029002C002F003200000100000301060E
:10320000010901050505050705080808080202026D
:10321000020A0A0808040404040101010101010171
:10322000010303030303030303040707070C0C0C48
:103230000C0C0C0C0C020202020606060606060620
:10324000060B0B0B0B0B0B0B0B01021020200808BD
:1032500010204010204080020102010804020101F8
:1032600002040810204080804020100804020180E1
:103270000402018040201008040201080402010138
:103280000204081020408001020408102040800041
:10329000000A0B02090C0D0E0807030401000000D0
:1032A000000000000000000000000000000000001E
:1032B00000000000000000000000001211100000DB
:1032C00000000000000000000000000000000000FE
:1032D0000000000000FFFDFCFAF8F6F4F2F0EEEC5E
:1032E000EAE9E7E5E3E1E0DEDCDAD9D7D5D4D2D00C
:1032F000CFCDCBCAC8C7C5C3C2C0BFBDBCBAB9B7A2
:10330000B6B4B3B2B0AFADACAAA9A8A6A5A4A2A109
:10331000A09E9D9C9A99989795949392908F8E8D4C
:103320008B8A8988878684838281807F7E7D7B7A71
:10333000797877767574737271706F6E6D6C6B6A75
:10334000696867666564636261605F5E5D5C5B5A65
:103350005958585756555453525150504F4E4D4C42
:103360004B4A4A4948474646454443424241403F0A
:103370003E3E3D3C3B3B3A393838373635353433C1
:1033800032323130302F2E2E2D2C2B2B2A2929286A
:10339000272726252524232322212120201F1E1E06
:1033A0001D1C1C1B1B1A1919181817161615151495
:1033B000131312121111100F0F0E0E0D0D0C0C0B1A
:1033C0000A0A090908080707060605050404030395
:1033D000020201000043616E63656C204F626A6502
:1033E0006374004E65787420506F696E74004E658A
:1033F0007874004C6576656C696E6720446F6E6505
:1034000021002569202F20257500473239205331AE
:1034100000436C69636B20746F20426567696E00BE
:10342000486F6D696E672058595A005A2056616C72
:10343000756500496E646578205900496E64657849
:103440002058004C6576656C20436F726E65727310
:103450000046616465204865696768740045646971
:1034600074204D657368004C6576656C2042656418
:10347000004E4F00594553005061757365205072DE
:10348000696E74004D656469612052656D6F766583
:1034900064004D6564696120496E7365727465648A
:1034A000006E6F74696669636174696F6E20006392
:1034B000616E63656C005072696E742041626F7258
:1034C000746564004469736D6973730055492041E4
:1034D000626F72746564004D323520500A4D32348B
:1034E00000526573756D65005549205061757365AF
:1034F00000726573756D6500446966663A20004622
:10350000726F6D5374703A00537465707065723ADF
:1035100000556E4C6576656C3A004C6576656C6559
:10352000643A005261773A20202020000A4C6F67ED
:103530006963616C3A00436F756E7420453A0043CD
:1035400061703A004D302053746F70004D3120533C
:10355000746F7000436C69636B20746F20526573E5
:10356000756D652E2E2E006F70656E206661696C1C
:1035700065642C2046696C653A20002568753A25FB
:10358000303268750025303268753A2530326875FA
:10359000002D2D2D00202020202020200020520052
:1035A000454550524F4D20496E697469616C697A86
:1035B00065640A0048617264636F646564204465F1
:1035C0006661756C742053657474696E6773204C02
:1035D0006F616465640A003B200020204D36303363
:1035E000200020550046696C616D656E74206C6F1B
:1035F00061642F756E6C6F6164206C656E677468B2
:10360000733A0020204D393030204B004C696E65F4
:10361000617220416476616E63653A0020204D340A
:103620003133205300506F7765722D4C6F737320C8
:103630005265636F766572793A0020204D333034DD
:1036400020500020204D333031205000504944207C
:1036500073657474696E67733A00204600204800F1
:1036600020204D3134352053004D617465726961FD
:103670006C2068656174757020706172616D65742D
:103680006572733A002020473239205334205A00A3
:10369000202047323920533320490020204D343236
:1036A000302053004D65736820426564204C657678
:1036B000656C696E673A0020204D32303620580024
:1036C000486F6D65206F66667365743A00204A0026
:1036D00020204D323035204200416476616E6365B2
:1036E000643A20423C6D696E5F7365676D656E7408
:1036F0005F74696D655F75733E20533C6D696E5FE5
:1037000066656564726174653E20543C6D696E5FE8
:1037100074726176656C5F66656564726174653E3E
:10372000204A3C6A756E635F6465763E0020204DDA
:10373000323034205000416363656C657261746996
:103740006F6E2028756E6974732F7332293A20507A
:103750003C7072696E745F616363656C3E20523CBD
:10376000726574726163745F616363656C3E20545B
:103770003C74726176656C5F616363656C3E0020CA
:10378000204D3230312058004D6178696D756D20C3
:10379000416363656C65726174696F6E2028756E34
:1037A0006974732F7332293A0020204D3230332050
:1037B00058004D6178696D756D206665656472614C
:1037C0007465732028756E6974732F73293A0053DA
:1037D000746570732070657220756E69743A00208C
:1037E000204D3230302044300A0020204D3230301D
:1037F0002044002044697361626C65640A00466974
:103800006C616D656E742073657474696E67733A6C
:103810000020204D3134392043203B20556E6974FF
:103820007320696E2043656C736975730A002028E4
:103830006D6D29002020473231202020203B20556B
:103840006E69747320696E206D6D00486F6D696ECE
:1038500067204661696C6564006F70656E00545244
:1038600049474745524544007A5F6D696E00795F6C
:103870006D696E00785F6D696E005265706F72746D
:10388000696E6720656E6473746F70207374617401
:1038900075730A0000803B4400803B4400002041D7
:1038A000000096420000A0420000A0420000C84371
:1038B0000000BE42D0070000D007000064000000F6
:1038C0004B000000453100626564002C2073797361
:1038D00074656D2073746F70706564212048656134
:1038E0007465725F49443A200048656174696E6787
:1038F000204661696C65640048656174696E672083
:103900006661696C6564004D3131322053687574AD
:10391000646F776E00202D20496E76616C6964209B
:103920006578747275646572206E756D626572205B
:10393000210A0070012C0190012701B0012201C071
:10394000011D01F00118011002130130020E016087
:1039500002090190020401C002FF000003FA0040C6
:1039600003F5008003F000D003EB002004E60070B4
:1039700004E100E004DC004005D700C005D20040AF
:1039800006CD00D006C8008007C3003008BE00F096
:1039900008B900C009B400B00AAF00B00BAA00D04B
:1039A0000CA500000EA000500F9B00C01096005008
:1039B00012910000148C00C0158700B0178200B06F
:1039C000197D00D01B7800001E730040206E00900F
:1039D000226900F024640040275F0090295A00E02B
:1039E0002B5500102E500020304B0010324600E0C6
:1039F00033410090353C001037370070383200A05A
:103A0000392D00B03A2800A03B2300603C1E001076
:103A10003D1900903D1400103E0F00703E0A00C09A
:103A20003E0500003F0000403FFBFF803FF6FFC027
:103A30003FF1FF00002100240027002A002D003064
:103A400000330001010000040107010A0100002207
:103A500000250028002B002E003100340002010058
:103A600000050108010B014F46460A0046616465E6
:103A70002048656967687420004661696C65642048
:103A8000746F20656E61626C6520426564204C65D0
:103A900076656C696E670A004D65736820426564DF
:103AA000204C6576656C20646174613A0A00496E49
:103AB00076616C6964206D6573682E0A0000E5010B
:103AC000B50111241FBECFEFD1E2DEBFCDBF00E0B4
:103AD0000CBF13E0A0E0B2E0EEEEF0E902E00BBFB5
:103AE00002C007900D92A634B107D9F727E1A6E4EA
:103AF000B3E001C01D92A432B207E1F71DE1C0E6B8
:103B0000DDE100E006C021970109802FFE010F943E
:103B1000CF44CF35D10780E00807A9F70F9467306D
:103B20000D9465480C9400002F923F924F925F9243
:103B30006F927F928F929F92AF92BF92CF92DF92BD
:103B4000EF92FF920F931F93CF93DF93CDB7DEB722
:103B5000E4970FB6F894DEBF0FBECDBF8BAB2091BC
:103B6000D31128AB81E08093D3118091F5118D346E
:103B700009F428C4843511F40C94CC2E873411F048
:103B80000C94D32E8091F3119091F4118A31910508
:103B900009F412C194F48430910534F48230910513
:103BA000BCF597FF29C00AC48430910509F4C5C04B
:103BB000459711F40C94D52E01C48A32910509F46D
:103BC0007EC354F48C31910509F414C10CF4F8C08F
:103BD0004D9709F41FC1F2C38B35910509F4B8C2A2
:103BE0008C35910509F4B9C28A35910509F0E6C30F
:103BF000109254030C94D52E80916A02882311F4FC
:103C00000C94D52E0E9432D60E94189B0C94D52E6F
:103C100020916A02222311F40C94D52E11E0029710
:103C200009F010E00E9432D619821A821B821C828F
:103C30001D821E821F82188682E50E94064C882300
:103C400009F44BC00E94CF4B6B017C0120E030E0B7
:103C5000A9010F94D43D882309F455C080912D11FA
:103C600090912E11A0912F11B09130118CA39DA392
:103C7000AEA3BFA38091311190913211A091331165
:103C8000B09134118CA79DA7AEA7BFA78090AF10AD
:103C90009090B010A090B110B090B2104090B310BE
:103CA0005090B4106090B5107090B610A5019401BA
:103CB0006CA17DA18EA19FA10F94D43D81110C9484
:103CC000DE2EA30192016CA57DA58EA59FA50F9464
:103CD000D43D8823C1F00C94DE2E89E40E94064C6A
:103CE000882331F00E94CF4B69837A838B839C8336
:103CF0008AE40E94064C882331F00E94CF4B6D83EA
:103D00007E838F83988720E030E0A90169817A81E2
:103D10008B819C810F94D43D81110C94922F20E0D3
:103D200030E0A9016D817E818F8198850F94D43D0B
:103D300081110C94922F0C94A52F80E50E94064CC3
:103D4000882329F00E94F4DC6B017C0103C0C12CA4
:103D5000D12C760183E50E94064C882361F00E94F5
:103D6000CF4B20E030E04AE754E40F943A3E0F9402
:103D70004B466B017C010E94FFFB80917211811107
:103D800005C060E08AE696E00F940C090F94492C78
:103D9000C60ED71EE81EF91E0F94492CDC01CB017C
:103DA0008C199D09AE09BF09B7FD02C00C94D52E30
:103DB00080E00E949B35F0CF0E94374C0C94D52EAA
:103DC0000E942EF181110C94D52E8CE0E0E7F2E0F8
:103DD000DE01119601900D928A95E1F760E070E0A6
:103DE00080E50E9441DBBE016F5F7F4F0F94B407F7
:103DF0000C94D52E8091CC108770873011F00C94E4
:103E0000AC2F60E08FE40E94224C81110C94D52EDF
:103E10000C94AC2F83E50E9484F1182F863030F08B
:103E200086E197E00E944F330C94D52E833009F43D
:103E30000DC128F48130E9F0823069F106C0843088
:103E400009F454C1853009F461C183E097E00E9410
:103E50004F330E94775E882339F0809148110E9489
:103E600053600E94C95C58C185EF96E00E944F33B1
:103E700053C10E94635D1092010210920002809172
:103E80005E11811108C08AEE96E09093880E8093AF
:103E9000870E0C94D52E809100029091010297FF1D
:103EA00006C081EC96E00E944F330C94D52E00970B
:103EB000A1F48091310280935B0319821A821B82E4
:103EC0001C821C8E1D8E1E8E1F8EBE016F5F7F4F4B
:103ED000CE014C960E94539F27C0815065E00F94FD
:103EE000994480FF03C024E0291B922F25E0920211
:103EF000F0011124E80FF11D87FDFA95EE0FFF1F69
:103F0000EE0FFF1FED5EFA4F809135119091361143
:103F1000A0913711B091381180839183A283B3832C
:103F200080915B03809331028091000290910102A5
:103F3000893191050CF058C0109231029C012F5F1D
:103F40003F4F309301022093000265E00F949944A3
:103F500080FF03C024E0291B922F34E09302F0017C
:103F60001124E353FB4E80809180A280B38094E0C3
:103F70008902F0011124E754FB4E40805180628099
:103F800073808DEC9CECACE4BEE38C8F9D8FAE8F88
:103F9000BF8F19821A821B821C82DE0111966D016D
:103FA000E12CF12C00EA10E4A3019201C501B40157
:103FB0000E94759E19821A821B821C82B601CE0154
:103FC0004C960E94539F80922D1190922E11A09298
:103FD0002F11B092301140923111509232116092F3
:103FE0003311709234112FC080E090E0A0EAB0E469
:103FF0008093351190933611A0933711B0933811F7
:1040000084E392E00E945A9E0E94FFFB8FEF9FEF95
:1040100090930102809300028DEA96E00E944F3354
:1040200063E972E084E690E00F94B1086AEB72E015
:1040300084E690E00F94B10880E79DE10F94BC14F2
:1040400081E00E94735D10925E1168C089E40E9455
:10405000064C8823B1F00E94CB4B182F853060F0BE
:1040600064E070E08AE996E00E94E13480E79AE03B
:104070000E944F330C94D52E8AE40E94064C811185
:1040800005C08AE40F9461300C94D52E0E94CB4B6E
:10409000082F853060F064E070E087E896E00E94C9
:1040A000E13480E79AE00E944F330C94D52E8AE5E4
:1040B0000E94064C8823A9F00E94CF4BB5E01B025A
:1040C000F0011124E00FF11D07FDFA95EE0FFF1F1F
:1040D000EE0FFF1FED5EFA4F60837183828393833F
:1040E00033C08AE50F9461300C94D52E8AE50E9486
:1040F000064C8823B1F30E94CF4B60930F05709359
:10410000100580931105909312051EC080E00E9457
:10411000735D0E94635D18C01230B1F460910002BB
:10412000709101026931710514F069E170E088E76E
:1041300096E00E94E13469E170E083E796E00E9436
:10414000E1348AE00E9448330E949A9F0C94D52E55
:104150008FE0809354030C94D52E8091F211882324
:1041600051F1893009F0A7C0AEEFAA2EA2E0BA2E15
:10417000BDE2EB2EB1E1FB2ED12C00E010E0F50109
:1041800081915F010E94064C882371F00E94CF4B01
:10419000D7016D937D938D939C931397133011F4F6
:1041A00001E002C0DD24D3941F5FB4E0EB0EF11CEC
:1041B000143029F775C07EEF272E72E0372EE7EF17
:1041C000EE2EE4E0FE2EEDE2F1E1FDA3ECA3FBEE2A
:1041D000CF2EF4E0DF2E00E010E0D1018D911D0123
:1041E0000E94064C882309F44BC00E94CF4B2B0140
:1041F0003C01133049F0F601208131814281538125
:104200000F94D7442B013C01ACA1BDA12D913D9150
:104210004D915C91C301B2010F94D7444B015C01F5
:104220002DEB37E346E855EB0F94384787FD0AC07E
:104230002DEB37E346E855E3C501B4010F94D43DB7
:104240001816F4F4133051F44092391150923A1187
:1042500060923B1170923C1101E012C0A5019401E3
:10426000F70160817181828193810F94D844D701D5
:104270006D937D938D939C931397812F0E94579AF2
:104280001F5FB4E0EB0EF11CECA1FDA13496FDA381
:10429000ECA3F4E0CF0ED11C143009F09ECF05C082
:1042A000DD2019F00E94989F06C0002321F089E3C9
:1042B00091E10E9410FC0E949A9F0C94D52E80914F
:1042C0006A02882311F40C94D52E89E40E94064CCE
:1042D000F82E882321F00E94CB4B182F01C010E04C
:1042E0008AE40E94064C082F882319F00E94CB4BC9
:1042F00001C080E0FF2011F0153020F4002341F0D0
:10430000853030F08DE297E00E944F330C94D52E2B
:1043100090E1EDE2F1E1AFEAB0E101900D929A9502
:10432000E1F7FF2091F024E01202F0011124E353A1
:10433000FB4E40815181628173814093AF10509355
:10434000B0106093B1107093B210002391F034E07C
:104350008302F0011124E754FB4E80819181A281F8
:10436000B3818093B3109093B410A093B510B09321
:10437000B61040E050E0BA0186E40E945BE06B01B9
:104380007C0120E030E0A9010F94384718164CF466
:1043900020E030E040E752E4C701B6010F94D24577
:1043A00003C060E070E0CB0169837A838B839C83D8
:1043B000CE0101960E94F39D0C94D52E0E94FEF032
:1043C0000C94D52E8091F3119091F41186379105BC
:1043D00009F471C70CF0DDC08C34910509F4DBC31E
:1043E0000CF06DC08A31910509F4A9C2B4F584318D
:1043F000910509F4F5C194F48131910509F4DCC10A
:1044000044F4029710F00C94C92E0F9462120C948D
:10441000D52E429709F4F9C50C94C92E8731910520
:1044200009F403C28CF48531910509F4FAC1469769
:1044300011F00C94C92E0E9400EB8091EC14877F40
:104440008093EC140C94D52E8831910509F404C2A4
:10445000499709F469C20C94C92E8F31910509F46A
:1044600039C37CF48C31910509F4DEC20CF475C2B9
:104470008D31910509F4E0C24E9709F4E4C20C9421
:10448000C92E8A32910509F445C364F4803291053E
:1044900009F4E9C2819711F00C94C92E0E94B2E68A
:1044A0000C94D52E8934910509F462C38B3491059F
:1044B00011F00C94C92E0E94F5320C94D52E8A3638
:1044C000910509F490C4ACF58335910509F496C5BE
:1044D000BCF48E34910509F466C30CF460C38135D5
:1044E000910509F475C58235910511F00C94C92E1A
:1044F000809154038F7D8061809354030C94D52E5A
:104500008C35910509F4D0C554F48435910509F42E
:104510007CC58535910509F4A4C50C94C92E88364F
:10452000910509F4D2C38936910509F448C40C9465
:10453000C92E8F36910509F494C48CF48C369105FC
:1045400011F40C94D52E0CF46FC48D36910509F43A
:10455000E0C38E36910509F473C40C94C92E8237DA
:10456000910509F42BC65CF48037910511F40C9485
:10457000D52E8137910509F4B8C40C94C92E833720
:10458000910509F41EC68537910509F483C60C947C
:10459000C92E8E32A1E09A0711F40C94BA2C0CF0BB
:1045A0006DC08B3C910509F49DC78CF58C38910545
:1045B00009F4BDC49CF48837910509F4B9C60CF41C
:1045C000B4C68937910509F4BBC68D37910511F042
:1045D0000C94C92E0E9468DA0C94D52E8E3B91055E
:1045E00009F4BEC454F48139910509F4B0C68B397D
:1045F000910509F4C7C40C94C92E883C910509F4AF
:1046000001C7893C910509F447C70C94C92E8C3D1C
:10461000910509F4AEC79CF48D3C910509F484C75B
:104620000CF47FC78E3C910509F481C7833D910549
:1046300011F00C94C92E0E9454DB0C94D52E8232BA
:10464000E1E09E0711F40C94682B5CF48D3D91051C
:1046500009F49CC7823E910511F40C941C2B0C9418
:10466000C92E8C3221E0920711F40C94B32B8D32B9
:10467000914011F40C94C82B0C94C92E853FA1E0F5
:104680009A0711F40C94D02D0CF042C08D39E1E062
:104690009E0711F40C94B22EB4F4803321E09207FB
:1046A00011F40C94472C14F40C94FE2C8039A1E0E6
:1046B0009A0711F40C94012D8A39914011F40C944D
:1046C000D52E0C94C92E8C3AE1E09E0711F40C947F
:1046D000072D7CF4843A21E0920711F40C94042D08
:1046E000853A914011F00C94C92E0E94ACDD0C94D7
:1046F000D52E863EA1E09A0711F40C94642D843FD8
:10470000914011F00C94C92E0E944C890C94D52E26
:104710008B35E2E09E0711F40C94EF2D5CF5883F99
:1047200021E0920711F40C94D62DACF4863FA1E061
:104730009A0711F40C94D32D873F914011F00C94FB
:10474000C92E61E083E50E94224C91E089270F94F5
:1047500035210C94D52E8C30E2E09E0711F40C9498
:10476000E72D8835924011F00C94C92E0E9463D930
:104770000C94D52E803A23E0920709F49DC16CF485
:104780008C36A3E09A0711F40C94D52E843893400C
:1047900011F40C94682E0C94C92E873EE3E09E071A
:1047A00011F40C94A42E883E934011F00C94C92E61
:1047B0000E947BD70C94D52E8091EE1184FF02C00D
:1047C0000C9452318091F01187FF02C00C94523149
:1047D0008091F111837011F00C9452310C946E3170
:1047E00084E697E00E944F3389E095E10E9414CD62
:1047F0008BE1E9E0F5E1DE01119601900D928A95D9
:10480000E1F760E070E0CE0101960E94DDEECE019E
:1048100001960E94705985E597E00E944F330C94F1
:10482000D52E0E94B5EB0C94D52EE091B00DF091F1
:10483000B10D8081882329F0803209F410823196ED
:10484000F8CF60E08091B00D9091B10D0E94FBED2A
:104850001092860E0C94D52E83E50E94064C882378
:1048600021F00E94974B0E9482E784E50E94064C4B
:104870008823A9F00E94974B6B017C010E94B89499
:10488000C0924D11D0924E11E0924F11F092501102
:10489000CD28CE28CF2819F081E080932011809177
:1048A0000E108823E9F080E090E0A0EAB1E489836B
:1048B0009A83AB83BC831C8E1D8E1E8E1F8E18A206
:1048C00019A21AA21BA220E0AE014F5F5F4FBE01EA
:1048D000645E7F4FCE0180960E949A5A0C94D52E2A
:1048E0000E94D132882381F00E9411EB0E94F532A0
:1048F00085E09EE00E94B6EA1092240D1092250DEC
:104900001092260D1092270D61E081EF94E30E9432
:10491000765944EC54E365E777E085E00E940CF1BA
:104920000E94C1F00C94D52E8091EC1482FF03C03C
:104930008B7F8093EC140E9468DA0C94D52E8091C2
:10494000EC1483FD02C00C94D52E83E50E94064C26
:1049500081110C947C310C94D52E83E40E94415833
:104960008823C1F18BE897E00E944F338091501665
:10497000882339F1BE016F5F7F4F8DE496E10E947D
:104980005CCA8E010F5F1F4FD8018D918D01882366
:1049900019F00E944833F8CFCE0101960E947DEDB8
:1049A0008091DE10882389F080E20E9448330EED6A
:1049B00010E1F80181918F01882339F00E9448337A
:1049C000F8CF81E897E00E944F338AE00E94483395
:1049D0000C94D52E83E50E94064C882309F10E9491
:1049E000A74B182F90E0CD970CF01CE310934A03CF
:1049F0000F94492C6B017C01212F30E0A8EEB3E02D
:104A00000F947E44C60ED71EE81EF91EC0924603C0
:104A1000D0924703E0924803F09249030C94D52EBC
:104A20000E948FEA0C94D52E8091B00D9091B10D1B
:104A30000E94ABED0C94D52E8091EC148E7F809368
:104A4000EC140C94D52E8091EC1483FD02C00C94D0
:104A5000D52E0E94E4F08091B00D9091B10D0E948E
:104A600009ED0C94D52E8091EC1482FD0E94FFFB81
:104A70008091EC1483FD02C00C94D52E60E080E59B
:104A80000E94224C182F682F8091B00D9091B10D8B
:104A90000E94FBED83E50E94064C882321F00E94D2
:104AA000974B0E9482E70E9411EB11110C94D52EB6
:104AB0000E94F5320C94D52E2091B00D3091B10D9D
:104AC0009091EC1492609093EC14C9010E94ABEDAC
:104AD0000C94D52E0E9484946C8F7D8F8E8F9F8F27
:104AE000BE016F5F7F4FCE014C960E94D3E560E020
:104AF000CE0101960F94BB090E947533BE016F5F12
:104B00007F4F8AE997E00E945E338AE00E94483333
:104B10000C94D52E83E50E94064C882311F40C9446
:104B2000D52E0E94A74BF82E6DE070E080E50E9424
:104B3000134C8C0197FF02C00C94D52E873031F0B6
:104B4000893041F4F092B5050C94D52EF092B6055B
:104B50000C94D52E60E089E40E94224C81110C94C3
:104B60008131802F0F949B2E811183C50C9481314C
:104B700080E50E944158882311F40C94D52E0E94A0
:104B8000A74B90E08536910510F084E690E0809385
:104B9000860E0C94D52E0E94D3940C94D52E0E9490
:104BA000B3F90C94D52E60E070E083E50E94134CBD
:104BB0008E34910531F40E9424FA0E94C1F00C94C5
:104BC000D52E8DEF97E00E944F336091B60D709116
:104BD000B70D84EF97E00E94B8346091B80D7091E2
:104BE000B90D87EE97E00E94B8346091B60D7091D0
:104BF000B70D8091B80D9091B90D681B790B80911C
:104C00002011815021E030E0823010F020E030E0CF
:104C1000621B730B8CED97E00E94B8348AE00E940F
:104C200048338DEF97E00E944F338091BA0D9091F9
:104C3000BB0DA091BC0DB091BD0D8C8F9D8FAE8F23
:104C4000BF8FBE016F5F7F4FCE014C960E94D3E5B0
:104C5000BE016F5F7F4F8FEC97E00E945E338091C3
:104C6000BE0D9091BF0DA091C00DB091C10D8C8F64
:104C70009D8FAE8FBF8FBE016F5F7F4FCE014C9671
:104C80000E94D3E5BE016F5F7F4F8FEB97E00E94DC
:104C90005E3320E030E04AE754E46091C20D709149
:104CA000C30D8091C40D9091C50D0F94D245AB01F9
:104CB000BC0187EA97E00E9463358DE60E94483385
:104CC0008AE00E9448330C94D52E80917F0C83FF9C
:104CD00002C00C94D52E0E9452D787FF02C00C94BC
:104CE000D52E83E50E94064C882379F00E94CF4B95
:104CF0000F944446CB010E944DCE0E9477D3811180
:104D000004C00E94B3F90E94C1F00F94F1360C94D4
:104D1000D52E80917F0C83FF02C00C94D52E0E946B
:104D200052D7F82E87FF02C00C94D52E83E50E943F
:104D3000064C082F811106C082E50E94064C182FF0
:104D4000882381F10E94CF4B0F944446CB010E94EF
:104D50004DCE0E9477D3882311F40C948F310E949A
:104D6000F5326091141470911514072E000C880B05
:104D7000990B0F94DB3D4B015C0140901014509057
:104D800011146090121470901314A30192010F94E7
:104D90003847181614F40C94AF31002311F40C9416
:104DA000953111E00F94F136112311F40C94D52EA6
:104DB00040E0602F8F2D0E9461D00C94D52E0E9470
:104DC00052D7182F87FD0AC084EE95E20E944F3318
:104DD000812F0E945DCE8AE00E944833F8A9F093AB
:104DE000D3110C947A3280E50E9484F1182F82301E
:104DF00008F0DBC781E40E944158882321F06091CC
:104E0000B50570E002C06FEF70E083E50E9441DB02
:104E1000E12FF0E0EB54FA4F8F3F910519F010F0BD
:104E20008FEF90E08083C1C780E50E9484F18230DB
:104E300008F0BBC7E82FF0E0EB54FA4F1082B5C77B
:104E40008EE40E94064C882309F4AFC70E94974B5A
:104E50006093AC0D7093AD0D8093AE0D9093AF0D3C
:104E6000A4C783E50E944158882329F083E50E9466
:104E700084F180937F0C0E9475338AE098E00E9451
:104E80004F3380917F0C882369F165E5E62E6BE056
:104E9000F62E00E010E020E080917F0C90E0A0E092
:104EA000B0E0002E04C0B695A795979587950A9413
:104EB000D2F780FF0EC0DD24D394D20E222319F046
:104EC0008CE20E944833F701859194910E944F3300
:104ED0002D2D0F5F1F4F32E0E30EF11C0530110541
:104EE000D9F673CD84EC9DE06ECD83E50E94064C2F
:104EF000882371F00E94A74B282F30E02D33310515
:104F00001CF48093020251C78CE3809302024DC7C8
:104F10000E9475334091020250E060E070E081E150
:104F200098E00E945F608AE00E9448333EC780910B
:104F30007F0C83FD3AC783E50E94064C882339F035
:104F40000E94CF4B0F944446CB010E94894B0E9494
:104F500077D381112AC70E94B3F90E94C1F025C7F7
:104F600080917F0C83FD21C783E50E94064C182F9A
:104F700081110C94B23182E50E94064C81110C948F
:104F8000B23113C783E50E94064C882309F40DC78C
:104F90000E94A74B182F90E0CD970CF01CE31093C4
:104FA0004F030F94492C6B017C01212F30E0A8EEB8
:104FB000B3E00F947E44C60ED71EE81EF91EC092C1
:104FC0004B03D0924C03E0924D03F0924E03EDC69A
:104FD0000E948AD30E94B3F90E94EDFD0E94CC3258
:104FE00068EE73E080E090E00E94C15E0E940833AA
:104FF00060E086E398E00F940C09D7C680915403D3
:105000008F7E806280935403D0C683E50E94064C55
:10501000882399F00E94CF4B20E030E04AE754E427
:105020000F943A3E0F944B46609303027093040230
:105030008093050290930602B8C68091EE1184FF1A
:1050400002C00C94E1318091F01187FF02C00C94F2
:10505000E1318091F111837011F00C94E1310C94E5
:10506000123283E50E944158882309F49EC60F94AA
:10507000492C6093BF107093C0108093C11090931F
:10508000C2100E94CF4B20E030E04AE754E40F9476
:105090003A3E0F944B4660935003709351038093B4
:1050A00052039093530381C60E9452D787FD7DC659
:1050B0009091EE1194FD04C09091F01197FF0AC0F9
:1050C0004EEFC42E42E0D42E50E8E52E5CE0F52EE3
:1050D00010E009C09091F111937091F7682F81E071
:1050E0000E9443DC62C6D6018D916D010E94064C80
:1050F000882309F459C0133009F04FC00E94CF4BE8
:105100004B015C0120E030E040EA51E40F94D43DD3
:1051100087FF3AC0A50194016091A00C7091A10C89
:105120008091A20C9091A30C0F94D2452B013C01CD
:105130009B01AC016091B00C7091B10C8091B20CEC
:105140009091B30C0F943A3E6093B00C7093B10CF5
:105150008093B20C9093B30C6091A5057091A60555
:105160008091A7059091A8050F94D93DA3019201C4
:105170000F943A3E0F944B466093A5057093A60595
:105180008093A7059093A8058092A00C9092A10C03
:10519000A092A20CB092A30C07C00E94CF4BF701C3
:1051A000648B758B868B978B1F5FF4E0EF0EF11C81
:1051B000143009F098CF0E94DBFBF7C50F941C1345
:1051C000F4C584E699E00E944F3360E084E599E0FD
:1051D0000F94021360E08FE399E00F94021361E0F3
:1051E0008AE493E20F94021361E084E399E00F9460
:1051F000021361E084E299E00F94021360E08BE116
:1052000099E00F94021361E081E199E00F94021399
:1052100060E087E099E00F94021360E08FEF98E080
:105220000F94021361E081EF98E00F94021361E0A4
:1052300083EE98E00F94021360E084ED98E00F9401
:10524000021360E086EC98E00F94021360E080EBBC
:1052500098E00F94021361E08FE998E00F94021335
:1052600061E080E998E00F94021361E08BE798E039
:105270000F94021361E088E698E00F94021360E057
:105280008BE598E00F94021360E087E498E00F94B8
:1052900002138BC58091B00D9091B10D009741F034
:1052A000DC012C91222321F060E00F94BB097DC525
:1052B0000E94C1F07AC50091B00D1091B10D94E03B
:1052C000F12C40E0915021F1F8018081282F2B7FB3
:1052D000213421F421812133D9F407C08035C1F470
:1052E000818180538A3048F013C0813421F08534A5
:1052F00021F441E002C0FF24F39498012E5F3F4F58
:1053000089012F5F3F4FF80180818032C9F3DACFE6
:1053100041110E947533FF2021F08DE49AE00E9434
:105320004F33C8010E947A3540C50F949D1F3DC57B
:1053300081E08093C70D8093C60D0F94BB1F35C5C8
:105340001092C70D1092C60D0F94BB1F2EC560E0C2
:1053500070E083E50E94134C8C0111270230110587
:105360003CF00E94713381E59AE00E944F331DC5E5
:1053700088E40E94064C8823A9F00E94CB4B8A3A0D
:1053800091053CF08D32F1E09F072CF08CE291E02A
:1053900002C08AEA90E0F801EE0FFF1FE458FF4ECA
:1053A0009183808386E40E94064C882381F00E94CA
:1053B000CB4B97FD07C08F3F910529F024F08FEF6D
:1053C00090E001C080E0F801EC57FF4E808382E45A
:1053D0000E94064C882309F4E8C40E94CB4B853018
:1053E000910534F08D3891052CF08CE890E002C0E6
:1053F00085E090E0F801EE0FFF1FE058FF4E91832B
:105400008083D3C40E9452D7182F87FDCEC484E472
:105410000E9441588823E9F10E94CF4B6B017C0127
:1054200001E020E030E0A9010F94D43D811101C0DA
:1054300000E000933F1120E030E0A901C701B60170
:105440000F94D43D882329F124E01202F0011124A5
:10545000EC5BFE4EC082D182E282F38220E030E03B
:10546000A90160914411709145118091461190916C
:1054700047110F94D43D81110CC080E090E0A0EE64
:10548000BFE38093441190934511A0934611B093CC
:1054900047110E94F3F789C40E9452D787FD85C443
:1054A000BEEFEB2EB2E0FB2E00E81CE080E9C82E38
:1054B0008CE0D82ED7018D917D010E944158882320
:1054C00059F00E94CF4B0F944B46F80160837183D3
:1054D000828393830E9464FB0C5F1F4FC016D1062A
:1054E00049F763C40E9452D787FD5FC4AEEFEA2E2E
:1054F000A2E0FA2E00E81CE0D7018D917D010E9408
:105500004158882339F00E94CF4BF80164A375A35A
:1055100086A397A30C5F1F4FFCE000391F0761F7BC
:1055200044C40E947EDC41C40E9404DD3EC4EEEF10
:10553000CE2EE2E0DE2EF9E7EF2EFEE0FF2E10E0A9
:10554000D6018D916D010E944158882351F00E942F
:10555000CF4BF7016083718382839383812F0E94F5
:10556000579A1F5FF4E0EF0EF11C133049F70C94CB
:10557000A42083E50E94064C882309F416C40E94E7
:10558000CB4B90933302809332020FC40E9452D7C8
:10559000F82E87FD0AC483E50E94064C0F2D0F2CC0
:1055A000000C110B882369F10E94CB4BF801EE0F20
:1055B000FF1FE65AFD4F91838083000F111F000FDC
:1055C000111F9801245C3D4F7901BC01990F880B94
:1055D000990B0F94DB3D2AE037ED43E25CE30F9437
:1055E0003A3EF801E05CFE4E2081318142815381D8
:1055F0000F943A3ED7016D937D938D939C931397AF
:10560000D4C30E94753385E40E94483380E38F0D34
:105610000E944833F801EE0FFF1FE65AFD4F6081EC
:10562000718183E79AE00E94E13485E20E94483369
:105630008AE00E944833B9C380E50E94415888231C
:1056400009F4B3C360E070E080E50E94134CF82ECB
:105650006FEF7FEF83E50E94134C8C010196039757
:1056600008F0A3C3F7FCA1C38F2D0F949B2E8823B2
:1056700039F00E9471338BE79AE00E944F3395C353
:105680000E94FFFB60E08F2D0F940A2B0F3FBFEFAE
:105690001B0731F00130110571F000E010E00DC082
:1056A0008F2D0E947FF531E020E0892B09F030E05A
:1056B000032F122F02C001E010E08F2D0E947FF512
:1056C0008017910709F471C380E00E949B35F5CFE4
:1056D0008AE50E94064C811105C083E50E94064CB4
:1056E000882331F10E94CF4B20E030E040E050ECC5
:1056F0000F94D43D87FD9EC60E94CF4B20E030E042
:1057000040E050E40F94384718160CF48EC60E94FF
:10571000CF4B20919C0C30919D0C40919E0C509150
:105720009F0C0F943A3E0F944446CB010E948BF19C
:105730008091F01187FD83C68091F111837009F08B
:105740007EC60E94753340910F05509110056091FF
:105750001105709112058AE89AE00E9463358AE08B
:105760000E94483322C364E071E083E50E9441DB7C
:105770008C0168EE73E080E50E9441DB8938E3E14B
:105780009E0710F088E893E1B8010F94B1080DC3AB
:1057900085E40E9484F1811173C080E50E94415824
:1057A000882351F00E94CF4B609317147093181404
:1057B0008093191490931A1489E40E944158882305
:1057C00081F00E94CF4B2CEA35EC47E25EE30F9468
:1057D0003A3E60931B1470931C1480931D14909395
:1057E0001E1484E40E944158882381F00E94CF4B0C
:1057F0002CEA35EC47E25EE30F94D24560931F1428
:105800007093201480932114909322140E94753376
:1058100040911714509118146091191470911A1432
:105820008FE99AE00E9463352CEA35EC47E25EE3AB
:1058300060911B1470911C1480911D1490911E1482
:105840000F94D245AB01BC018BE99AE00E9463350D
:105850002CEA35EC47E25EE360911F14709120144E
:1058600080912114909122140F943A3EAB01BC0117
:1058700087E99AE00E9463358AE00E94483395C226
:105880000E94713386E993E20E944F338EC280E515
:105890000E944158882351F00E94CF4B60930A0D1B
:1058A00070930B0D80930C0D90930D0D89E40E9465
:1058B0004158882381F00E94CF4B2CEA35EC47E217
:1058C0005EE30F943A3E60930E0D70930F0D80933C
:1058D000100D9093110D84E40E944158882381F0AB
:1058E0000E94CF4B2CEA35EC47E25EE30F94D245A1
:1058F0006093120D7093130D8093140D9093150DFA
:105900000E94753340910A0D50910B0D60910C0D62
:1059100070910D0D8FE99AE00E9463352CEA35EC09
:1059200047E25EE360910E0D70910F0D8091100DB6
:105930009091110D0F94D245AB01BC018BE99AE017
:105940000E9463352CEA35EC47E25EE36091120D6C
:105950007091130D8091140D9091150D0F943A3E96
:10596000AB01BC0187E99AE00E9463358AE00E949E
:1059700048331BC283E50E944158182F882371F0D9
:105980000E94CF4B0F9444467093410260934002B3
:1059900021E0672B09F020E02093C70580E50E94F5
:1059A0004158882359F02091400230914102232B25
:1059B00011F00E94BB4B8093C705F7C11111F5C1CF
:1059C0000E9475338CEB9AE00E944F338091C7059B
:1059D000882319F089EF9EE102C083EA9AE00E94D1
:1059E0004F3360914002709141028BEA9AE00E942D
:1059F000E13487EA9AE00E944F33D7C10E9472E0F7
:105A0000D4C10E94FFFBD1C10F949F2CCEC10E9434
:105A10002EF18111CAC108EC1FE12DE231E13DA355
:105A20002CA3CE0101961C014BEFC42E4FE1D42EC6
:105A30007C01F8016591759185919491ACA1BDA10E
:105A40008D909D90AD90BD90BDA3ACA3A501940198
:105A50000F94D7442B013C01F7016083718382834B
:105A6000938320E030E040EA51EC0F94384787FD03
:105A70000AC020E030E040EA51E4C301B2010F94D3
:105A8000D43D18162CF4F601849118160CF4DDC4DC
:105A9000D7018D909D90AD90BD907D0120E030E0CC
:105AA00040EA51ECC501B4010F94384787FDD8C4D2
:105AB00020E030E040EA51E4C501B4010F94D43D48
:105AC00018160CF0E1C4CCC484E50E944158882328
:105AD000A1F01092C4041092C5041092C604109252
