:100000000C940D130C9437130C9437130C94371372
:100010000C9437130C9437130C9437130C94371338
:100020000C9437130C9437130C9437130C94371328
:100030000C9437130C9463870C9437130C94371378
:100040000C9437130C94C4D70C948A860C943713F1
:100050000C9465300C945B300C9437130C9437136C
:100060000C9437130C9437130C9437130C943713E8
:100070000C9437130C9437130C9437130C943713D8
:100080000C94292B0C9437130C94371396309C3016
:10009000AD30B830C030D530C430D530C830CC30B9
:1000A000D530D23095B2C7B2C9B2D8B2DDB293B2B0
:1000B000E8B27FD282D275D279D299D299D286D241
:1000C0008AD290D294D2C0D4C5D4CAD4D4D402D5C2
:1000D00002D5DED4E6D4EED4F8D44E414E494E4992
:1000E0005459494E46CDCCCC3D0AD7233C17B7D105
:1000F0003877CC2B329595E6241FB14F0A000020AB
:10010000410000C84200401C4620BCBE4CCA1B0E29
:100110005AAEC59D7400407A10F35A00A0724E1872
:10012000090010A5D4E80000E87648170000E40BA9
:1001300054020000CA9A3B000000E1F5050000806F
:10014000969800000040420F000000A086010000C9
:1001500000102700000000E8030000000064000019
:100160000000000A00000000000100000000002C58
:1001700076D888DC674F0823DFC1DFAE59E1B1B71D
:1001800096E5E3E453C63AE651997696E8E6C284EA
:1001900026EB898C9B62ED407C6FFCEFBC9C9F4002
:1001A000F2BAA56FA5F490055A2AF75C936B6CF927
:1001B000676DC11BFCE0E40D47FEF520E6B500D0FD
:1001C000ED902E0300943577050080841E08000012
:1001D000204E0A000000C80C333333330F986E12E0
:1001E000831141EF8D2114893BE65516CFFEE6DBE6
:1001F00018D1844B381BF77C1D901DA4BBE4242030
:100200003284725E228100C9F124ECA1E53D2743CE
:100210004F4D4D554E49434154494F4E004452595C
:1002200052554E004552524F525300494E464F00D0
:100230004543484F00536C6565702E2E2E005A20A2
:1002400050726F62652050617374204265640A00C9
:100250005A2050726F626520506173742042656449
:1002600000486F6D652058592066697273740A00E2
:10027000486F6D65205859204669727374004D654A
:10028000736820706F696E742063616E6E6F742086
:100290006265207265736F6C7665640A00436C69F1
:1002A000636B20746F20526573756D652E2E2E0062
:1002B0004E6F204D6F76652E00456E642066696C2A
:1002C00065206C6973740A00426567696E2066690F
:1002D0006C65206C6973740A007061757365002821
:1002E0006E6F2066696C65290043757272656E7465
:1002F0002066696C653A20005344207072696E7400
:10030000696E67206279746520004E6F74205344D3
:10031000207072696E74696E670A002569792025FC
:100320006964202569682025696D2025697300505E
:1003300072696E742074696D653A200044454255B7
:10034000473A004D313133205300544D334420455A
:100350006E64657232204F46462E00204D393220A1
:1003600058004649524D574152455F4E414D453A1E
:100370004D61726C696E20322E302E345F445736D8
:1003800020544D3344204532535344424220534F6E
:10039000555243455F434F44455F55524C3A68744C
:1003A0007470733A2F2F6769746875622E636F6D6E
:1003B0002F496E73616E6974794175746F6D6174E4
:1003C000696F6E2F4D61726C696E2F747265652F47
:1003D000437265616C6974794477696E5F322E305F
:1003E0002050524F544F434F4C5F56455253494F44
:1003F0004E3A312E30204D414348494E455F5459C5
:1004000050453A544D334420456E64657232204560
:10041000585452554445525F434F554E543A31203B
:10042000555549443A63656465326132662D34310D
:1004300061322D343734382D396231322D63353500
:100440006336326633363766660A002F2F20004D3A
:1004500031343520533C696E6465783E206F757485
:10046000206F662072616E67652028302D31290A61
:1004700000205400205200416363656C6572617412
:10048000696F6E3A2050003F4A206F7574206F6686
:100490002072616E67652028302E303120746F2005
:1004A000302E33290A0020466C6F773A20005072B4
:1004B0006F7465637465642050696E0A00206F75FF
:1004C00074206F662072616E67650A002053657242
:1004D000766F200050726F6265204F666673657498
:1004E000205A0050726F6265204F66667365745AB9
:1004F0003A2000496E76616C696420657874727583
:100500006465720A0020643A0020693A0020703A5B
:10051000004C434420436F6E74726173743A200040
:100520006469730043290A0061626C656420286D68
:10053000696E2074656D702000436F6C642065786F
:100540007472756465732061726520004D343231B8
:1005500020696E636F727265637420706172616D81
:10056000657465722075736167650A004F6666730E
:10057000657473204170706C696564004572723AED
:1005800020546F6F206661722100546F6F20666186
:10059000722066726F6D207265666572656E636546
:1005A00020706F696E740A00454550524F4D204FC0
:1005B0004B0A003F5A206F7574206F662072616E7F
:1005C00067652028003F59206F7574206F66207280
:1005D000616E676520282D0020746F20003F582031
:1005E0006F7574206F662072616E676520282D001C
:1005F00050726F6265204F66667365742058004FB5
:10060000464600506F7765722D6C6F73732072656C
:10061000636F76657279200030022B0224021D027E
:100620000F024572726F722077726974696E67206B
:10063000746F20454550524F4D210A006275737901
:100640003A2070617573656420666F7220696E7000
:1006500075740A00627573793A2070617573656408
:1006600020666F7220757365720A00627573793A3D
:100670002070726F63657373696E670A00212120B1
:100680004B494C4C2063617573656420627920741A
:100690006F6F206D75636820696E6163746976653C
:1006A0002074696D65202D2063757272656E7420EB
:1006B000636F6D6D616E643A20004E6F2043686514
:1006C000636B73756D2077697468206C696E652043
:1006D0006E756D6265722C204C617374204C696E6E
:1006E000653A2000636865636B73756D206D69738F
:1006F0006D617463682C204C617374204C696E6565
:100700003A20004C696E65204E756D6265722069F5
:1007100073206E6F74204C617374204C696E652079
:100720004E756D6265722B312C204C617374204CB8
:10073000696E653A20004D313130005344207265B6
:100740006164206572726F720A00506C6561736536
:10075000205265736574005052494E5445522048EA
:10076000414C5445440025533A20255300706F777F
:1007700065726F6666004B494C4C45442E20005014
:1007800072696E7465722068616C7465642E206B8A
:10079000696C6C28292063616C6C6564210A000F08
:1007A000150E1216170E1303021A1401000E0C195F
:1007B0000DFF180C040001506175736520507269BB
:1007C0006E74004D6564696120496E73657274656D
:1007D000640063616E63656C005072696E742041E1
:1007E000626F72746564004D323500726573756DA9
:1007F000650050726F6265205A204F66667365749B
:100800000046616E205370656564004E6F7A7A6CA5
:1008100065004D61696E00466C6F77002568753A1A
:10082000253032687500256875642025303268757A
:100830003A25303268750020202020202020003FFB
:10084000FFF038007030FC3020FC10207810203091
:10085000102C00D02E31D02F7BD02F7BD02E31D03A
:100860002C00D020301020781020FC1030FC3038C4
:1008700000703FFFF03FFFF0380070318630238773
:10088000102787902F87D02F03D02030102078108A
:100890002078102030102F03D02F87D02787902367
:1008A00087103186303800703FFFF0041040020896
:1008B0002002082004104008208010410010410050
:1008C0000820800410400000001FFFF81FFFF80000
:1008D00000000000000000000000000000164300BF
:1008E0000016430000484300004842000048420010
:1008F0000080400202040000A0400000A040000070
:100900000040FFFFFF5761726E696E673A20486FC3
:100910006D696E672042756D702044697669736FEA
:1009200072203C20310A004D6F74696F6E0054656F
:100930006D7065726174757265004D38340044697C
:100940007361626C65205374657070657273004CDE
:100950006576656C20436F726E657273004732383E
:10096000004175746F20486F6D6500507265686551
:10097000617420504C412042656400507265686586
:10098000617420504C4120456E640050726568656A
:10099000617420414253204265640050726568656D
:1009A00061742041425320456E6400436F6F6C6454
:1009B0006F776E0050726568656174204142530024
:1009C0005072656865617420504C410046696C2E18
:1009D000204469612E004520696E206D6DC2B30010
:1009E0004D3330332055312045256920532569008A
:1009F000504944204175746F74756E65202A00500B
:100A000049442D44202A005049442D49202A0050B1
:100A100049442D50202A004573746570732F6D6D05
:100A2000005A73746570732F6D6D0059737465701F
:100A3000732F6D6D005873746570732F6D6D004664
:100A4000696C616D656E740053746570732F6D6DA4
:100A5000004F7574616765205265636F76657279C2
:100A6000003F00436F6E66696775726174696F6EEF
:100A70000053746F70205072696E74005265737504
:100A80006D65205072696E74004261636B0053742F
:100A90006F70004D323100417474616368204D65A0
:100AA000646961004D32320052656C656173652086
:100AB0004D65646961004C6576656C696E672054AC
:100AC0006F6F6C73004D656469612052656C656180
:100AD00073656400496E666F2053637265656E00CE
:100AE00043616E6E6F7420656E74657220737562FB
:100AF0006469723A2000022E2E000152656672650A
:100B000073680020573A0045202553004265642051
:100B1000436F6F6C696E672E2E2E0042656420480D
:100B2000656174696E672E2E2E0023646566696E9A
:100B3000652044454641554C545F004B6420004BB2
:100B40006920004B702000504944204175746F7437
:100B5000756E652066696E697368656421205075DD
:100B60007420746865206C617374204B702C204B6A
:100B70006920616E64204B6420636F6E7374616ED4
:100B800074732066726F6D2062656C6F7720696E7A
:100B9000746F20436F6E66696775726174696F6EFA
:100BA0002E680A00504944204175746F74756E6553
:100BB000206661696C6564212074696D656F757468
:100BC0000A000A20436C6173736963205049442012
:100BD0000A00204B643A2000204B693A2000204B49
:100BE000703A20002054753A2000204B753A2000BE
:100BF000206D61783A2000206D696E3A20002064F3
:100C00003A200020626961733A2000504944204133
:100C100075746F74756E652073746172740A005018
:100C20004944204175746F74756E65206661696C06
:100C30006564212054656D706572617475726520FC
:100C4000746F6F20686967680A00504944204175D5
:100C5000746F74756E65206661696C6564212042ED
:100C60006164206578747275646572206E756D625A
:100C700065720A004572723A207574663820666F94
:100C80006E74206E6F7420696E697469616C697A24
:100C900065642E00FFE0FFD140A0C8A6A22FF80097
:100CA00023AC00AF10FFFEFF05FFD0FFE0FFC1FF48
:100CB000D1E240A0C8A6A22FF800238127AC00AF44
:100CC000FFD0FF64FFD1A5FFD0FF64FF64FFD1A474
:100CD000FFD0FFFE000C0D00FE07022603BC017FC3
:100CE000FE08FE08FE05080806000040F0C88888D7
:100CF000987810050808060000C0F8888888888859
:100D0000F80505050600012030F830200508080622
:100D100000002070F820202020E00509090600FFCF
:100D20002070A8A8B888887020050606060001E093
:100D30008CEA8C8A0A0509090600FFF8A8888888C9
:100D40008888A8F8050A0A0600FE205050505088EE
:100D5000A8A8887003030306000340A040FFFFFF1C
:100D6000FFFFFFFFFFFFFFFFFFFFFFFFFFFFFFFF93
:100D7000FFFFFF0000000605FF01070706020080D5
:100D8000808080800080030303060105A0A0A005E9
:100D9000060606000050F85050F8500509090600F4
:100DA000FF2070A8A07028A8702005070706000083
:100DB000C8C8102040989805070706000040A0A06A
:100DC00040A890680103030602058080800309099A
:100DD0000601FF2040408080804040200309090632
:100DE00001FF80404020202040408005070706008A
:100DF0000020A8702070A82005050506000120200D
:100E0000F820200203030601FFC04080050101060F
:100E10000003F8020202060100C0C0050707060031
:100E20000008101020404080050707060000708869
:100E300098A8C8887003070706010040C0404040DA
:100E400040E0050707060000708808102040F805FC
:100E50000707060000F80810300888700507070625
:100E6000000010305090F81010050707060000F839
:100E700080F008088870050707060000304080F001
:100E8000888870050707060000F808101020202049
:100E900005070706000070888870888870050707B6
:100EA00006000070888878081060020505060100B9
:100EB000C0C000C0C00206060601FFC0C000C0409E
:100EC000800305050601012040804020050303063C
:100ED0000002F800F803050506010180402040806B
:100EE000050707060000708810202000200507076E
:100EF0000600007088B8A8B88070050707060000D3
:100F0000708888F8888888050707060000F0484838
:100F1000704848F0050707060000708880808088C8
:100F200070050707060000F04848484848F00507E4
:100F300007060000F88080F08080F80507070600AB
:100F400000F88080F0808080050707060000708828
:100F50008080988870050707060000888888F888D0
:100F60008888030707060100E04040404040E00554
:100F700007070600003810101010906005070706DC
:100F800000008890A0C0A090880507070600008098
:100F90008080808080F805070706000088D8A88830
:100FA0008888880507070600008888C8A898888868
:100FB000050707060000708888888888700507077D
:100FC000060000F08888F080808005070706000092
:100FD00070888888A89068050707060000F0888850
:100FE000F0A09088050707060000708880700888C8
:100FF00070050707060000F82020202020200507A4
:10100000070600008888888888887005070706001A
:1010100000888888885050200507070600008888C7
:101020008888A8A850050707060000888850205027
:1010300088880507070600008888502020202005A2
:101040000707060000F80810204080F80309090689
:1010500001FFE080808080808080E0050707060037
:1010600000804040201010080309090601FFE0201D
:10107000202020202020E0050303060005205088C2
:101080000501010600FEF803030306010580402068
:101090000505050600007008788878050707060032
:1010A000008080F0888888F00505050600007080C3
:1010B0008088700507070600000808788888887807
:1010C0000505050600007088F0807005070706001A
:1010D00000304840E04040400507070600FE7088A9
:1010E00088887808700507070600008080F08888E7
:1010F00088880307070601004000C0404040E00424
:1011000009090601FE10003010101010906005074C
:101110000706000080808890E0908803070706019A
:1011200000C04040404040E0050505060000D0A852
:10113000A8A8A8050505060000B0C8888888050588
:101140000506000070888888700507070600FEF015
:10115000888888F080800507070600FE78888888E0
:10116000780808050505060000B0C88080800505E0
:101170000506000078807008F005070706000020CB
:1011800020F820202018050505060000888888988A
:1011900068050505060000888888502005050506B5
:1011A00000008888A8A85005050506000088502082
:1011B00050880507070600FE888888502040800573
:1011C0000505060000F8102040F80309090601FF94
:1011D0002040404080404040200109090602FF8035
:1011E00080808080808080800309090601FF804024
:1011F0004040204040408005030306000248A8907C
:10120000FF5072696E7420506175736564002074BC
:101210006F6F206C6F6E6720657874727573696F7D
:101220006E2070726576656E7465640A0020636F67
:101230006C6420657874727573696F6E2070726566
:1012400076656E7465640A00220A00556E6B6E6FD7
:10125000776E20636F6D6D616E643A202200544D8D
:10126000334420456E646572322052656164792E84
:10127000005072696E74696E672E2E2E004D3130EB
:1012800030302053002020506C616E6E65724275C4
:101290006666657242797465733A2000204672650D
:1012A00065204D656D6F72793A2000436F6D7069EE
:1012B0006C65643A204D6172202038203230323023
:1012C0000A00204C61737420557064617465643A3F
:1012D00020323032302D30322D3238207C20417592
:1012E00074686F723A2054696E794D616368696EF3
:1012F000657333440A00322E302E345F4457360A69
:10130000004D61726C696E0020536F667477617274
:10131000652052657365740A0020576174636864C0
:101320006F672052657365740A002042726F776E92
:10133000206F75742052657365740A0020457874B7
:1013400065726E616C2052657365740A00506F7728
:10135000657255700A006175746F25632E670044CD
:101360006F6E65207072696E74696E672066696C55
:10137000650A004D3331004D305131533138303032
:10138000006572726F722077726974696E6720747B
:101390006F2066696C650A00446F6E652073617624
:1013A000696E672066696C652E0A004D323900450A
:1013B0006E6473746F70730025532025632025635A
:1013C00020256320256300205A3A0020593A006501
:1013D0006E6473746F7073206869743A200024F42B
:1013E000D43050C38E20C2A24017828B7011127A63
:1013F000910D816CD90AA861E108C758660761514F
:1014000043061E4B5D05C145A7041A411104093D61
:101410009803713931034036DB0265339102D430D1
:101420005402802E1D02632CEE01752AC501B028DE
:10143000A001102781018F2564012B244B01E0229C
:101440003401AC211F018D200D01801FFC00841E82
:10145000ED00971DDF00B81CD200E61BC600201B64
:10146000BC00641AB200B219A8000A19A0006A18D8
:101470009900D117910040178B00B51684003116E2
:101480007E00B31579003A157300C7146F00581425
:101490006A00EE1366008813630025135E00C7120E
:1014A0005B006C12570015125400C11151007011ED
:1014B0004F0021114B00D61049008D1047004610F7
:1014C000440002104200C00F4000800F3E00420F57
:1014D0003C00060F3B00CB0E3800930E37005C0E2D
:1014E0003500270E3400F30D3200C10D3100900D90
:1014F0003000600D2E00320D2D00050D2C00D90C92
:101500002B00AE0C2900850C29005C0C2700350C43
:1015100027000E0C2600E80B2400C40B2400A00BAF
:1015200023007D0B23005A0B2100390B2100180BDF
:101530002000F80A1F00D90A1E00BB0A1E009D0ADF
:101540001D00800A1D00630A1C00470A1B002C0AAC
:101550001B00110A1A00F7091A00DD091900C40955
:101560001900AB091900920917007B0918006309DB
:1015700017004C09160036091600200916000A0942
:101580001500F5081500E0081400CC081400B80890
:101590001400A4081400900813007D0812006B08C2
:1015A00013005808120046081200340811002308DE
:1015B00011001208110001081100F0071000E007E7
:1015C0001000D0071000C0071000B0070F00A107DF
:1015D000100091070E0083070F0074070F006507C6
:1015E0000E0057070E0049070E003B070D002E079F
:1015F0000E0020070D0013070D0006070D00F90669
:101600000C00ED060D00E0060C00D4060C00C80628
:101610000C00BC060C00B0060C00A4060B009906DA
:101620000C008D060B0082060B0077060B006C0683
:101630000B0061060A0057060B004C060A00420622
:101640000A0038060A002E060A0024060A001A06B6
:101650000A001006090007060A00FD050900F40546
:101660000900EB050900E2050900D9050900D005CC
:101670000900C7050900BE050900B5050800AD054C
:101680000800A50509009C050800940508008C05C4
:101690000800840508007C050800740508006C0536
:1016A0000700650508005D050700560508004E05A2
:1016B0000700470507004005080038050700310509
:1016C00007002A050700230507001C05060016056C
:1016D00007000F0507000805060002050700FB04C8
:1016E0000600F5040700EE040600E8040600E20424
:1016F0000700DB040600D5040600CF040600C90479
:101700000600C3040600BD040600B7040600B104C9
:101710000500AC040600A6040600A00405009B0416
:10172000060095040500900406008A04050085045F
:101730000500800406007A040500750405007004A5
:1017400005006B04050066040500610405005C04E7
:10175000050057040500520405004D040500480427
:101760000500430405003E0404003A040500350466
:101770000500300404002C040500270404002304A1
:1017800005001E0404001A040400160405001104D8
:1017900004000D040400090405000404040000040E
:1017A0000400FC030400F8030400F4030400F00345
:1017B0000400EC030400E8030400E4030400E00375
:1017C0000400DC030400D8030400D4030400D003A5
:1017D0000400CC030400C8030300C503030024F481
:1017E00004D9201BC40C5C0E9804C4095F02650771
:1017F0007101F405F900FB04B30048048700C1033C
:1018000069005803550003034500BE023A008402F4
:10181000310053022A002902250004022000E401BD
:101820001C00C8011900AF011700980114008401C1
:101830001300710110006101100051010E004301FD
:101840000D0036010B002B010B0020010B001501D0
:1018500009000C01090003010800FB000800F30067
:101860000800EB000700E4000600DE000600D800D8
:101870000600D2000600CC000500C7000500C2002B
:101880000500BD000400B9000400B5000400B1006B
:101890000400AD000400A9000400A5000300A2009C
:1018A00003009F0004009B000300980003009500C4
:1018B000020093000300900003008D0002008B00E3
:1018C00003008800020086000200840003008100FB
:1018D00002007F0002007D0002007B000200790010
:1018E000020077000100760002007400020072001E
:1018F0000100710002006F0002006D0001006C0029
:1019000002006A0001006900020067000100660031
:101910000100650001006400020062000100610036
:101920000100600001005F0002005D0001005C003A
:1019300001005B0001005A0001005900010058003D
:10194000010057000100560001005500010054003D
:10195000010053000000530001005200010051003B
:101960000100500001004F0001004E0000004E0039
:1019700001004D0001004C0001004B0000004B0035
:1019800001004A0001004900010048000000480031
:10199000010047000100460000004600010045002C
:1019A0000000450001004400010043000000430026
:1019B000010042000000420001004100000041001F
:1019C0000100400001003F0000003F0001003E0018
:1019D00000003E0001003D0000003D0001003C0011
:1019E00000003C0000003C0001003B0000003B0008
:1019F00001003A0000003A000100390000003900FF
:101A000001003800000038000000380001003700F5
:101A100000003700010036000000360000003600EC
:101A200001003500000035000000350001003400E1
:101A300000003400000034000100330000003300D7
:101A400000003300010032000000320000003200CC
:101A500001003100000031000000310001003000C1
:101A6000000030000000300001002F0000002F00B7
:101A700000002F0000002F0001002E0000002E00AB
:101A800000002E0001002D0000002D0000002D00A0
:101A900000002D0001002C0000002C0000002C0094
:101AA00000002C0001002B0000002B0000002B0088
:101AB00000002B0001002A0000002A0000002A007C
:101AC00000002A0001002900000029000000290070
:101AD0000000290000002900010028000000280063
:101AE0000000280000002800000028000100270056
:101AF000000027000000270000002700000027004A
:101B0000010026000000260000002600000026003C
:101B1000000026000100250000002500000025002F
:101B20000000250000002500000025000100240021
:101B30000000240000002400000024000000240015
:101B40000100230000002300000023000000230008
:101B500000002300000023000000230001002200F9
:101B600000002200000022000000220000002200ED
:101B700000002200010021000000210000002100DF
:101B800000002100000021000000210000002100D1
:101B900001002000000020000000200000002000C4
:101BA00000002000000020000000200000002000B5
:101BB00001001F0000001F0000001F0000001F00A8
:101BC00000001F0000001F0000001F0001001E0099
:101BD00000001E0000001E0000001E000000043770
:101BE00000001E290000511B0000581000001009C1
:101BF0000000CC0400007802000041010000656391
:101C0000686F3A004572726F723A0042696C696E91
:101C1000656172204C6576656C696E6720477269F4
:101C2000643A0A0053544F505045442E20005072DD
:101C3000696E7465722073746F707065642064756A
:101C40006520746F206572726F72732E20466978FA
:101C500020746865206572726F7220616E642075F1
:101C60007365204D39393920746F20726573746142
:101C700072742E202854656D70657261747572657A
:101C80002069732072657365742E20536574206912
:101C90007420616674657220726573746172746910
:101CA0006E67290A0021212053544F502063616C34
:101CB0006C65642062656361757365206F662042A0
:101CC0004C546F756368206572726F72202D20729C
:101CD0006573746172742077697468204D3939397D
:101CE0000A00426564204C6576656C696E67200069
:101CF0004661696C656420746F20656E61626C6515
:101D000020426564204C6576656C696E670A0049FF
:101D10006E76616C6964206D6573682E0A0050727E
:101D20006F62696E6720506F696E740025532025BD
:101D3000692F25690050726F62696E67206D657347
:101D40006820706F696E74200020284452595255E3
:101D50004E2900473239204175746F204265642056
:101D60004C6576656C696E67003F20284C2C522CC0
:101D7000462C4229206F7574206F6620626F756E45
:101D800064732E0A003F2856296572626F736520BE
:101D90006C6576656C20696D706C61757369626CD9
:101DA000652028302D34292E0A00426164205A20F3
:101DB00076616C75650A004E6F2062696C696E65AC
:101DC000617220677269640A0020204D61783A20B0
:101DD0000020204D696E3A2000536F667420656EB6
:101DE0006473746F70733A20004D32342053256C45
:101DF000642054256C64004739322E392045257300
:101E000000473120462564004739322E39205A25B3
:101E100073004731205A302046323030004731209D
:101E200058257320592573204633303030004D3407
:101E3000323020532569205A2573004D3130362029
:101E400050256920532569004D31303920532569CB
:101E5000004D31393020532569004D323030204457
:101E60002573004739322E392045305A300A473120
:101E70005A320A47323852305859004D34323020E5
:101E80005330205A300020496E76616C69642065B9
:101E90007874727564657220004E6F20454550520B
:101EA0004F4D2E0A00454550524F4D20496E6974E2
:101EB00069616C697A65640A00486F6D696E6720B4
:101EC0004661696C6564006F70656E0054524947E5
:101ED0004745524544007A5F6D696E00795F6D69D0
:101EE0006E00785F6D696E005265706F7274696E16
:101EF0006720656E6473746F70207374617475739A
:101F00000A0020436F756E7420583A0020453A004D
:101F100000803B4400803B4400002041000096428A
:101F20000000A0420000A0420000C8430000BE42E2
:101F3000D0070000D0070000640000004B00000044
:101F40004F6666004F6E00416476616E6365642083
:101F500053657474696E6773004E65787420506FB2
:101F6000696E74004E65787400486F6D696E672005
:101F700058595A00436D643A2053746F7700436D8B
:101F8000643A204465706C6F7900436D643A205365
:101F9000572D4D6F646500436D643A2053656C6640
:101FA0002D5465737400436D643A205265736574F3
:101FB00000526573746F72652044656661756C7458
:101FC00073004C6F61642053657474696E677300AD
:101FD00053746F72652053657474696E6773004C37
:101FE000434420436F6E747261737400424C546FAB
:101FF000756368004D3139305335350A4732380A38
:102000004732390A4D3430300A4D31303453323191
:10201000350A4732380A4D313039533231350A4D9D
:1020200034323053310A4731583130305931303041
:1020300046353030300A47315A300A4D3530300A93
:102040004D31313720536574205A204F66667365D1
:1020500074004D313036533132380A4D333033430A
:1020600038533231354530550A4D3530300A4D310F
:102070003137205049442054756E6520446F6E6599
:10208000004D3139305335350A4D3130345332310A
:10209000350A4732380A4732394C310A473120581D
:1020A0003130305931303046353030300A47315ACE
:1020B00030004D3530300A4D31313720536574745E
:1020C000696E67732053746F726564005072657037
:1020D00020666F72205A2041646A757374005049FB
:1020E000442054756E65005365747570004D313031
:1020F0003030004D3234004D3233202573004669B4
:102100006C652073656C65637465640A00205369AF
:102110007A653A200046696C65206F70656E65646B
:102120003A2000454E4420535542524F5554494E93
:10213000450A002220706F73002220706172656E64
:10214000743A2200535542524F5554494E4520434C
:10215000414C4C207461726765743A220074727944
:10216000696E6720746F2063616C6C207375622DDB
:1021700067636F64652066696C657320776974684E
:1021800020746F6F206D616E79206C6576656C735D
:102190002E204D4158206C6576656C2069733A316C
:1021A0000A0044656C6574696F6E206661696C65D0
:1021B000642C2046696C653A200046696C65206491
:1021C000656C657465643A0057726974696E67205E
:1021D000746F2066696C653A2000646F696E6700F1
:1021E0004E6F772000202F002042403A0020403AD6
:1021F000007C3C3E5E2B3D3F2F5B5D3B2C2A225CEE
:10220000006F70656E206661696C65642C2046699C
:102210006C653A20002F2F616374696F6E3A00433A
:10222000616E6E6F74206F70656E20737562646985
:1022300072200053442063617264206F6B0A006F48
:1022400070656E526F6F74206661696C65640A0018
:10225000766F6C756D652E696E6974206661696C48
:1022600065640A00534420696E6974206661696C74
:102270000A005072696E742066726F6D204D65643D
:10228000696100205A3A200020593A2000426564D2
:1022900020583A200050726F62696E67204661696B
:1022A0006C65640A0050726F62696E6720466169EE
:1022B0006C656400486F6D65202573257325732058
:1022C00046697273740000002100240027002A0070
:1022D00000002200250028002B0000002000230021
:1022E000260029000202020202020202040404047F
:1022F00004040404030303030303030301010101B2
:1023000001010101010204081020408001020408BB
:1023100010204080010204081020408080402010DE
:1023200008040201000000010200090A0000000088
:102330000403080700000000000000000000000087
:10234000000000004D6F76652025736D6D004D6FA8
:10235000766520302E316D6D004D6F766520316DC4
:102360006D004D6F76652031306D6D004D6F766577
:10237000204178697300486F74656E6420746F6FD4
:1023800020636F6C64004578747275646572004DEB
:102390006F7665205A004D6F76652059004D6F7637
:1023A00065205800453100626564002C2073797304
:1023B00074656D2073746F70706564212048656169
:1023C0007465725F49443A200048656174696E67BC
:1023D000204661696C65640048656174696E6720B8
:1023E0006661696C6564004D3131322053687574E3
:1023F000646F776E00202D20496E76616C696420D1
:102400006578747275646572206E756D6265722090
:10241000210A00544845524D414C2052554E4157D7
:10242000415900546865726D616C2052756E617718
:102430006179004572723A204D415854454D500023
:102440004D415854454D50207472696767657265F7
:1024500064004572723A204D494E54454D50004D2E
:10246000494E54454D5020747269676765726564C2
:10247000004D383420582059205A20450070012C36
:102480000190012701B0012201C0011D01F00118D6
:10249000011002130130020E0160020901900204D2
:1024A00001C002FF000003FA004003F5008003F0C2
:1024B00000D003EB002004E6007004E100E004DC3F
:1024C000004005D700C005D2004006CD00D006C8A8
:1024D000008007C3003008BE00F008B900C009B48E
:1024E00000B00AAF00B00BAA00D00CA500000EA0EF
:1024F00000500F9B00C01096005012910000148CE9
:1025000000C0158700B0178200B0197D00D01B787D
:1025100000001E730040206E0090226900F02464C9
:102520000040275F0090295A00E02B5500102E50E4
:102530000020304B0010324600E033410090353C23
:10254000001037370070383200A0392D00B03A281B
:1025500000A03B2300603C1E00103D1900903D147C
:1025600000103E0F00703E0A00C03E0500003F0014
:1025700000403FFBFF803FF6FFC03FF1FF1000C966
:102580000210012C014001220170011801B0010E5E
:1025900001F00104015002FA00B002F0003003E63D
:1025A00000D003DC009004D2007005C800A006BE75
:1025B000000008B400B009AA00D00BA000600E967D
:1025C0000060118C000015820020197800C01D6E7B
:1025D00000A0226400B0275A00902C500000314621
:1025E00000E0343C0010383200903A2800603C1E75
:1025F00000A03D1400803E0A00203F0000656E717F
:1026000075657565696E672022006F6B0052657392
:10261000656E643A200027E709E711241FBECFEF5B
:10262000D0E4DEBFCDBF12E0A0E0B1E0E2E4FEEE18
:1026300001E00BBF02C007900D92A034B107D9F79B
:102640002FE0A0E4B2E001C01D92AF3DB207E1F778
:1026500013E1CCE0D3E104C02197FE010E9482F493
:10266000CB30D107C9F70E9435E20C9414F70C94D3
:1026700000002F923F924F925F926F927F928F92C3
:102680009F92AF92BF92CF92DF92EF92FF920F9301
:102690001F93CF93DF93CDB7DEB7E8970FB6F894CB
:1026A000DEBF0FBECDBF8FAB209145022CAB21E02A
:1026B0002093450280914C0F8D3409F4A7C48435D2
:1026C00011F40C94C225873411F00C94DD2580910F
:1026D0004A0F90914B0F8C31910509F4CDC18CF4C8
:1026E0008430910509F4F4C01CF4029738F18AC4CF
:1026F0008531910511F40C94DF254B9709F426C11F
:1027000081C48A32910509F456C344F48D31910590
:1027100009F4C2C14E9709F4D3C174C48B35910535
:1027200009F493C28C35910509F494C28A35910558
:1027300009F068C4109244020C94DF258091640172
:10274000882311F40C94DF2519821A821B821C82C3
:1027500028E6822E21E0922ECE0101965C013AE518
:10276000E32E33E0F32E05E014E040ECC42E4EE0FF
:10277000D42E312CD4018D914D010E94B091F501E0
:1027800081935F01882319F10E9447912B013C013D
:10279000832D0E947E9B882351F0D8012D913D917D
:1027A0004D915C91C301B2010E948CF409C0F60105
:1027B0002081318142815381C301B2010E948BF497
:1027C000D7016D937D938D939C9313970AC0F80165
:1027D00080819181A281B381F70180839183A2835B
:1027E000B3833394F4E0EF0EF11C0C5F1F4F24E031
:1027F000C20ED11C33E03312BDCF85E40E94B091EC
:102800008C83882301F10E9447916B017C0183E056
:102810000E947E9B882371F0209111043091120454
:102820004091130450911404C701B6010E948CF426
:102830006B017C01C0926603D0926703E09268034B
:10284000F092690310C08091110490911204A0913C
:102850001304B09114048093660390936703A093CC
:102860006803B093690380919706882381F0809173
:10287000D70B82FF0CC08C81882349F0898181119C
:1028800003C08A81882319F080E00E94D29140E041
:1028900050E0BA0186E40E944D6620E030E0A901D4
:1028A0000E940FF6181684F40E94479120E030E051
:1028B00040E752E40E940FF560935C0170935D0164
:1028C00080935E0190935F010E94E4490C94DF25A0
:1028D00080E50E94B091882329F00E94559E6B01EB
:1028E0007C0103C0C12CD12C760183E50E94B091FC
:1028F000882361F00E94479120E030E04AE754E4E9
:102900000E94FBED0E9488F56B017C010E94D2437E
:102910008091C802811105C060E085E392E00E94C9
:10292000A0370E947E86C60ED71EE81EF91E0E94A2
:102930007E86DC01CB018C199D09AE09BF09B7FD6C
:1029400002C00C94DF250E941A2DF1CF0E9483CD86
:1029500081110C94DF2519821A821B821C821D8230
:102960001E821F82188680E090E0A0E2B1E4898791
:102970009A87AB87BC8780E50E94B091882319F0C5
:102980000E940F9101C060E080E090E0A8E4B2E412
:1029900088A799A7AAA7BBA780E090E0A0EAB0E427
:1029A0008CA39DA3AEA3BFA3613019F0623039F0B0
:1029B00029C0BE016C5D7F4FCE01099644C02985B8
:1029C0003A854B855C8560910D0470910E04809171
:1029D0000F04909110040E948CF46B017C0120E0A4
:1029E00030E048E453E40E9495ED87FD06C0C12C19
:1029F000D12C98E4E92E93E4F92ECC8EDD8EEE8E68
:102A0000FF8E1CC0A0900D04B0900E04C0900F0467
:102A1000D0901004E984FA840B851C859701A801E5
:102A2000B501C6010E9495ED87FD02C075018601C2
:102A3000C701D8018C8F9D8FAE8FBF8FBE016C5D9B
:102A40007F4FCE014C960E94914E88E0FE01319658
:102A5000DE015C9601900D928A95E1F7AE01485D2A
:102A60005F4FBE01605E7F4FCE014C960E946F4E5D
:102A70000E94BBA40C94DF258091DF0E8770873005
:102A800011F00C94E82560E08FE40E94BD91811163
:102A90000C94DF250C94E8250E9483CD81110C94C1
:102AA000DF2580917303882311F40C940A2860E0D9
:102AB0008FE40E94BD9181110C94DF250C940A28AB
:102AC0002091CC0E3091CD0E4091CE0E5091CF0E74
:102AD00060910504709106048091070490910804A8
:102AE0000E948CF4AB01BC0188E50E944D666983AD
:102AF0007A838B839C832091D00E3091D10E4091AC
:102B0000D20E5091D30E6091090470910A04809105
:102B10000B0490910C040E948CF4AB01BC0189E57C
:102B20000E944D666D837E838F839887BE016B5FA5
:102B30007F4FCE0101960E94929E882311F40C943F
:102B4000DF2580E00E94C7940E94744D61E085E417
:102B50000E94BD91182F21E0482FBE016B5F7F4F6F
:102B6000CE0101960E9420CE6B017C019B01AC013D
:102B70000E948DF681115FC089809A80AB80BC80F5
:102B800020E030E0A901C501B4010E9495ED87FD68
:102B900005C027E137EB41E558E304C027E137EBF7
:102BA00041E558EBC501B4010E948CF4AB01BC01B6
:102BB0008DE892E20E94A6988D809E80AF80B884B6
:102BC00020E030E0A901C501B4010E9495ED87FD28
:102BD00005C027E137EB41E558E304C027E137EBB7
:102BE00041E558EBC501B4010E948CF4AB01BC0176
:102BF00088E892E20E94A69820E030E0A901C7018F
:102C0000B6010E9495ED87FD05C067E177EB81E590
:102C100098E304C067E177EB81E598EBA7019601A3
:102C20000E948CF4AB01BC0183E892E20E94A6985A
:102C30008AE00E94EE2B0E945B4D113011F40E943D
:102C400016900E94BBA40C94DF258FE08093440271
:102C50000C94DF258091490F882349F1893009F0D0
:102C6000A6C0A8E6AA2EA1E0BA2EB5E0EB2EB4E0ED
:102C7000FB2ED12C00E010E0D5018D915D010E946A
:102C8000B091882369F00E944791F70160837183B6
:102C900082839383133019F0DD24D39401C001E0C3
:102CA0001F5FF4E0EF0EF11C143031F775C078E6C9
:102CB000272E71E0372EEEE4EE2EE3E0FE2E25E027
:102CC00034E03DA72CA7F0ECCF2EFEE0DF2E00E095
:102CD00010E0D1018D911D010E94B091882309F46B
:102CE0004BC00E9447912B013C01133049F0F60183
:102CF00020813181428153810E948BF42B013C0160
:102D0000ACA5BDA52D913D914D915C91C301B20142
:102D10000E948BF44B015C012DEB37E346E855EB49
:102D20000E940FF687FD0AC02DEB37E346E855E316
:102D3000C501B4010E9495ED1816F4F4133051F456
:102D40004092110450921204609213047092140481
:102D500001E012C0A5019401F701608171818281B7
:102D600093810E948CF4D7016D937D938D939C93F6
:102D70001397812F0E9488481F5FB4E0EB0EF11C6F
:102D8000ECA5FDA53496FDA7ECA7F4E0CF0ED11C71
:102D9000143009F09ECF05C0DD2019F00E94B9A4BF
:102DA00006C0002321F081E194E00E94D7900E94A8
:102DB000BBA40C94DF2580916401882311F40C944A
:102DC000DF2589E40E94B091E82E882321F00E943B
:102DD0004391082F01C000E08AE40E94B091F82ED0
:102DE000882321F00E944391182F01C010E0EE20AB
:102DF00011F0053020F4FF2041F0153030F08EE75F
:102E000092E00E940C980C94DF2580E1E5E0F4E06C
:102E1000AAE5B3E001900D928A95E1F7EE2019F151
:102E2000602F000F770B880B990B0E949CED20916F
:102E30005A0830915B0840915C0850915D080E94EF
:102E4000FBED209152083091530840915408509165
:102E500055080E948CF460935A0370935B0380932F
:102E60005C0390935D03FF2019F1612F110F770B25
:102E7000880B990B0E949CED20915E0830915F08B1
:102E800040916008509161080E94FBED2091560826
:102E90003091570840915808509159080E948CF47D
:102EA00060935E0370935F0380936003909361036C
:102EB00060E080E50E94BD918823C1F1EE20D1F051
:102EC0002091CC0E3091CD0E4091CE0E5091CF0E70
:102ED00060915A0370915B0380915C0390915D0354
:102EE0000E948BF460935A0370935B0380935C039E
:102EF00090935D03FF20D1F02091D00E3091D10E40
:102F00004091D20E5091D30E60915E0370915F0399
:102F100080916003909161030E948BF460935E0343
:102F200070935F03809360039093610340E050E0EF
:102F3000BA0186E40E944D666B017C0120E030E01E
:102F4000A9010E940FF618165CF420E030E040E77B
:102F500052E4C701B6010E940FF56B017C0103C06A
:102F6000C12CD12C760180905C0190905D01A090E5
:102F70005E01B0905F0120E030E0A901C701B60119
:102F80000E9495ED882341F0C0925C01D0925D01D2
:102F9000E0925E01F0925F01009124011091250101
:102FA00084E690E09093250180932401C0902A014B
:102FB000D0902B01E0902C01F0902D0180E090E06A
:102FC000A0E8BFE380932A0190932B01A0932C01EA
:102FD000B0932D010E94E44980925C0190925D01C2
:102FE000A0925E01B0925F0110932501009324012D
:102FF000C0922A01D0922B01E0922C01F0922D0177
:103000000C94DF250E94FD850C94DF2580914A0FEA
:1030100090914B0F8537910509F4F2C60CF0C5C0AD
:103020008C34910509F48FC40CF055C08931910599
:1030300009F4DFC21CF58431910509F458C27CF40F
:103040008131910509F42EC22CF4029708F4B3C122
:103050000C94BF25429709F4AFC50C94BF25863167
:10306000910509F469C20CF463C28731910509F432
:103070006CC2489709F47EC20C94BF258E3191052D
:1030800009F447C3ACF48B31910509F4E7C20CF4A1
:10309000D7C28C31910509F434C34D9711F00C94CB
:1030A000BF258091D70B8E7F8093D70B0C94DF25A3
:1030B0008032910509F43DC30CF472C38A32910544
:1030C00009F419C48B34910511F00C94BF250E94AA
:1030D000F4350C94DF258A36910509F47DC4CCF5CE
:1030E0008435910509F468C5FCF48135910509F42E
:1030F00046C54CF48D34910511F00C94BF250E9407
:103100002F360C94DF258235910509F44DC58335A2
:10311000910511F00C94BF25809144028F7E80624E
:10312000809344020C94DF258C35910509F4AEC5DB
:1031300034F48535910509F486C50C94BF2588368D
:10314000910509F415C48936910509F431C40C942C
:10315000BF258F36910509F481C48CF48C36910516
:1031600011F40C94DF250CF45BC48D36910509F441
:103170001BC48E36910509F45EC40C94BF258137BB
:10318000910509F4B0C414F40C94DF25823791053D
:1031900009F431C68337910511F00C94BF2582E6FE
:1031A00093E00E940C980C94DF25823231E0930763
:1031B00011F40C9479220CF069C08B3C910509F450
:1031C0003DC78CF58C38910509F4B7C4BCF487373A
:1031D000910509F460C60CF424C68837910509F4FA
:1031E0005DC68937910511F00C94BF251092E80552
:1031F0001092E7050E941DA60C94DF258E3B9105D9
:1032000009F4B9C434F48139910509F44FC60C941A
:10321000BF25883C910509F4A4C6893C910509F4B1
:10322000EAC60C94BF258C3D910511F40C94342111
:10323000A4F48D3C910509F494C70CF41EC78E3C90
:10324000910511F40C941121833D910511F00C941A
:10325000BF250E94669D0C94DF25823E910511F4E6
:103260000C9497213CF48D3D910511F40C9441216F
:103270000C94BF258A3F910511F40C9444238831A6
:10328000914011F40C94E2210C94BF25853AE1E0C1
:103290009E0711F40C94A8230CF047C0813921E05B
:1032A000920711F40C94A023ECF48E32A1E09A075B
:1032B00011F40C9459233CF48D32914011F40C9488
:1032C000C4220C94BF258F32F1E09F0711F40C94B7
:1032D0009D238039914011F00C94BF250E94D24368
:1032E0000C94DF258A3931E0930711F40C94DF2523
:1032F0006CF48239914011F00C94BF250E94899E94
:103300000E9416900E94BBA40C94DF258D39E1E049
:103310009E0711F40C949E25843A914011F00C9470
:10332000BF250E94AA990C94DF25883F31E09307BE
:1033300011F40C947F24ECF4843FB1E09B0711F46A
:103340000C9479243CF48C3A914011F40C9411249F
:103350000C94BF25853F21E0920711F40C947C2446
:10336000863F914011F00C94BF250E943AA60C9420
:10337000DF25803AA3E09A0709F404C26CF48C308C
:10338000E2E09E0711F40C948F248335934011F4EE
:103390000C9497240C94BF25873E23E0920711F4E8
:1033A0000C949025883E934011F00C94BF250E9408
:1033B000979B0C94DF25A090450FB090460F80E5B9
:1033C0000E94B091882359F00E94559E6B017C01A8
:1033D00011E0672B682B692B31F410E004C010E07A
:1033E000C12CD12C760183E50E94B091882311F481
:1033F0000C940D280E94479120E030E04AE754E405
:103400000E94FBED0E9488F56B017C0111110BC03D
:10341000672B682B692B39F4A114B10421F0D50175
:103420008C91811102C010E001C011E00E94D243D2
:10343000112329F061E0C5010E941A3805C060E03F
:103440008DE992E00E94A0371091450283E08093BD
:10345000450281E08093F402C114D104E104F10437
:1034600031F00E947E86C60ED71EE81EF91E80919E
:10347000F402882311F40C941628C114D104E10439
:10348000F10411F40C9412280E947E86DC01CB0119
:103490008C199D09AE09BF09B7FF02C00C94122810
:1034A0000C9416288AE192E00E94659E8823A1F080
:1034B00088E50E947E9181115E9889E50E947E9147
:1034C00081115E988AE50E947E91882311F40C9404
:1034D000DF2515980C94DF2560E080EB92E00E94D8
:1034E000A0375E985E9815985E980C94DF2588EC5E
:1034F00092E00E940C9884EF9BE00E9471BA8BE1ED
:10350000E4EFFBE0DE01119601900D928A95E1F760
:1035100060E070E0CE0101960E94A9CBCE01019639
:103520000E94AC9289EB92E00E940C980C94DF25EB
:103530000E9495C50C94DF250E94DFB58091D70BC2
:10354000877F8093D70B0C94DF25E091450FF09196
:10355000460F8081882329F0803209F41082319649
:10356000F8CF60E08091450F9091460F0E949DB783
:103570000C94DF2583E50E94B091882321F00E94FE
:103580000F910E94166E84E50E94B0918823A9F0E5
:103590000E940F916B017C010E94D935C092F70205
:1035A000D092F802E092F902F092FA02CD28CE28E9
:1035B000CF2819F081E0809304040E946B298823AE
:1035C00081F00E94EEB50E94F43585E296E00E94FB
:1035D00095B510924D0F10924E0F10924F0F109202
:1035E000500F8BEE97E00E9455C00E94C0850C944E
:1035F000DF258091D70B82FF03C08B7F8093D70B91
:1036000080919706882319F081E00E94D2918091E1
:103610000404813069F482E0809304040E947E8671
:103620006093FB027093FC028093FD029093FE0274
:103630000E94C08589ED92E00E9455C00C94DF2560
:103640008091D70B83FD02C00C94DF2583E50E9497
:10365000B09181110C941D280C94DF2583E40E9405
:103660007E91882319F189EE92E00E940C98809156
:103670003B0D882391F0BE016F5F7F4F88E39DE093
:103680000E9438B98E010F5F1F4FF80181918F01A1
:10369000882339F00E94EE2BF8CF8FED92E00E9444
:1036A0000C988AE00E94EE2B0C94DF258091D70BBA
:1036B00082FF21C088EF92E00E940C986091D30BAA
:1036C0007091D40B8091D50B9091D60B4AE00E945B
:1036D000F52B8FE20E94EE2B6091CF0B7091D00BF7
:1036E0008091D10B9091D20B4AE00E94F52B0E9461
:1036F000F32C0C94DF258AE093E00E940C980C9444
:10370000DF258091450F9091460F0E944EB70C9493
:10371000DF258091D70B83FD02C00C94DF250E942A
:10372000E3858091450F9091460F0E9492B60C94CC
:10373000DF258091D70B82FD0E94D2438091D70B69
:1037400083FD02C00C94DF2560E080E50E94BD91FE
:10375000182F682F8091450F9091460F0E949DB7BA
:1037600083E50E94B091882321F00E940F910E946E
:10377000166E0E94EEB511110C94DF250E94F435EF
:103780000C94DF252091450F3091460F9091D70B77
:1037900092609093D70BC9010E944EB70C94DF251D
:1037A0000E94A5357B018C0120E831E541E050E025
:1037B0000E94EBF3C9016DE671E00E945AF44B01DF
:1037C0005C01C801B70120E13EE040E050E00E940A
:1037D000EBF3CA01B90128E130E040E050E00E947B
:1037E000EBF3762E672EC62ED72E6CE3262E312CC9
:1037F000412C512CC801B701A20191010E94EBF3A9
:10380000F62EE72ECA01B901A20191010E94EBF345
:10381000CB018E010F5F1F4F8114910499F0EF923D
:10382000FF927F936F936F927F92BF92AF929F921E
:103830008F928BE193E09F938F931F930F930E943E
:103840002DED13C0A114B104B1F0EF92FF927F935C
:103850006F936F927F92BF92AF928FE193E09F93AD
:103860008F931F930F930E942DED0FB6F894DEBF38
:103870000FBECDBF30C0CD2879F0EF92FF927F937D
:103880006F936F927F9283E293E09F938F931F9346
:103890000F930E942DEDE9CF892B69F0EF92FF92F3
:1038A0007F936F9387E293E09F938F931F930F9380
:1038B0000E942DEDDACFEF92FF928BE293E09F937F
:1038C0008F931F930F930E942DED0F900F900F90E9
:1038D0000F900F900F9060E0C8010E941A380E946C
:1038E000A699B8018FE293E00E94C4988AE00E94F2
:1038F000EE2B0C94DF2583E50E94B091882311F410
:103900000C94DF250E941F91F82E6FEF7FEF80E56A
:103910000E94C69F8C0197FF02C00C94DF25843063
:1039200021F4F0923A040C94DF2560E089E40E94CF
:10393000BD9181110C942228802F0E94E9E1811110
:1039400013C50C94222880910404813011F00C944A
:10395000DF2582E0809304040E947E866093FB0250
:103960007093FC028093FD029093FE020C94DF257D
:1039700080918A0583FF02C00C94DF250E94559B2D
:1039800087FF02C00C94DF2583E50E94B091882355
:1039900011F40C94DF250E9447910E9481F5CB0120
:1039A0000E94A0BE0C94DF250E94316C0C94DF2590
:1039B0000E94559B182F87FD0AC08AE096E20E945C
:1039C0000C98812F0E94B0BE8AE00E94EE2BFCA9C9
:1039D000F09345020C94AB2860E080E50E94D59FEF
:1039E00081110C94DF2581E40E947E91882321F0CF
:1039F00060913A04062F02C00FEF10E083E50E94A9
:103A0000B091882349F00E940F918B016F3F71059F
:103A100019F010F00FEF10E000933A040C94DF253A
:103A200060E080E50E94D59F81110C94DF25109203
:103A30003A040C94DF258EE40E94B091882311F49F
:103A40000C94DF250E940F916093D50F7093D60FD1
:103A50008093D70F9093D80F0C94DF2583E50E94B5
:103A60007E91882331F060E083E50E94D59F8093AA
:103A70008A050E94A6998CE393E00E940C9880919D
:103A80008A05882369F158E1E52E56E0F52E00E01D
:103A900010E020E080918A0590E0A0E0B0E0002EE8
:103AA00004C0B695A795979587950A94D2F780FF9D
:103AB0000EC0DD24D394D20E222319F08CE20E9492
:103AC000EE2BF701859194910E940C982D2D0F5F9C
:103AD0001F4F32E0E30EF11C05301105D9F6E1CDA0
:103AE00082E797E0DCCD83E50E94B091882381F0E6
:103AF0000E941F91282F30E02D33310524F480934C
:103B000000010C94DF258CE3809300010C94DF25E9
:103B10000E94A699C0900001D12CE12CF12C83E4E5
:103B200093E00E940C984AE0C701B6010E94F52B71
:103B30008AE00E94EE2B0C94DF2580918A0583FF9A
:103B400002C00C94DF2583E50E94B091882311F414
:103B50000C94DF250E9447910E9481F56C38710515
:103B600014F06CE870E07093E7086093E6080E9438
:103B70008CD70C94DF250E94616A0C94DF250E948B
:103B8000FCD70E942F360E94E2430E94682968EE0B
:103B900073E080E090E00E944D9760E08AE493E05B
:103BA0000E94A0370C94DF25809144028F7D8061B4
:103BB000809344020C94DF2583E50E94B091882312
:103BC000A1F00E94479120E030E04AE754E40E94CF
:103BD000FBED0E9488F560930101709302018093D0
:103BE0000301909304010C94DF258AE192E00E9486
:103BF000659E882329F10E94D24388E50E947E9128
:103C0000882331F05E9A8091DE0E8E7F8093DE0EE7
:103C100089E50E947E91882331F05E9A8091DE0EC4
:103C20008D7F8093DE0E8AE50E947E91882309F4C1
:103C3000C6C7159A8091DE0E8B7F8093DE0EBFC7BC
:103C40000E94E243BCC783E50E947E91882309F469
:103C5000B6C70E947E866093D80E7093D90E80936B
:103C6000DA0E9093DB0E0E94479120E030E04AE7A5
:103C700054E40E94FBED0E9488F56093400270932B
:103C80004102809342029093430299C70E94559B40
:103C900087FD95C78AE192E00E94659E882309F41A
:103CA00074C038E6C32E31E0D32E4BE8E42E45E055
:103CB000F42E10E0D6018D916D010E94B091882301
:103CC00009F459C0133009F04FC00E9447914B01CD
:103CD0005C0120E030E040EA51E40E9495ED87FF6E
:103CE0003AC0A50194016091AB057091AC0580913B
:103CF000AD059091AE050E940FF52B013C019B0193
:103D0000AC016091BB057091BC058091BD0590919F
:103D1000BE050E94FBED6093BB057093BC058093CC
:103D2000BD059093BE0560912E0470912F04809183
:103D30003004909131040E949AEDA30192010E94F7
:103D4000FBED0E9488F560932E0470932F048093FE
:103D50003004909331048092AB059092AC05A09210
:103D6000AD05B092AE0507C00E944791F701648B84
:103D7000758B868B978B1F5FF4E0EF0EF11C143070
:103D800009F098CF0E94B3901AC70E94A69940915B
:103D90009F055091A0056091A1057091A2058BE54A
:103DA00093E00E94A6984091A3055091A4056091CC
:103DB000A5057091A6058AE993E20E94A698409114
:103DC000A7055091A8056091A9057091AA0583E9FE
:103DD00093E20E94A6984091AB055091AC0560918A
:103DE000AD057091AE058AE794E20E94A6988AE03C
:103DF0000E94EE2BE4C60E94D2430E94BBA4DFC601
:103E00008091450F9091460F009741F0DC012C9175
:103E1000222321F060E00E941A38D1C60E94C0859A
:103E2000CEC60091450F1091460F94E0F12C40E072
:103E3000915021F1F8018081282F2B7F213421F42A
:103E400021812133D9F407C08035C1F481818053A9
:103E50008A3048F013C0813421F0853421F441E0E8
:103E600002C0FF24F39498012E5F3F4F89012F5F1A
:103E70003F4FF80180818032C9F3DACF41110E94AF
:103E8000A699FF2021F08BE494E00E940C98C801D1
:103E90000E94F92C94C60E94CEA591C681E0809321
:103EA000E8058093E7050E941DA689C660E070E0E2
:103EB00083E50E94C69F8C011127023011053CF05A
:103EC0000E94D7988FE494E00E940C9878C688E40A
:103ED0000E94B0918823A9F00E9443918A3A9105EB
:103EE0003CF0843BF1E09F072CF083EB91E002C0B3
:103EF0008AEA90E0F801EE0FFF1FE659F74F918331
:103F0000808386E40E94B091882381F00E944391CF
:103F100097FD07C08F3F910529F024F08FEF90E0C7
:103F200001C080E0F801EC59F74F808382E40E94E1
:103F3000B091882309F443C60E94439185309105CE
:103F400034F08D3891052CF08CE890E002C085E0CB
:103F500090E0F801EE0FFF1FEA59F74F918380833D
:103F60002EC60E94559B182F87FD29C684E40E9407
:103F70007E918823E9F10E9447916B017C0101E069
:103F800020E030E0A9010E9495ED811101C000E020
:103F900000936A0320E030E0A901C701B6010E9446
:103FA00095ED882329F124E01202F0011124E15952
:103FB000FC4FC082D182E282F38220E030E0A9018E
:103FC00060916F03709170038091710390917203FF
:103FD0000E9495ED81110CC080E090E0A0EEBFE35F
:103FE00080936F0390937003A0937103B093720357
:103FF0000E943543E4C50E94559B87FDE0C5A8E6B5
:10400000EA2EA1E0FA2E0BE815E0D7018D917D0193
:104010000E947E91882359F00E9447910E9488F562
:10402000F80160837183828393830E946C900C5F9C
:104030001F4FF5E00B391F0741F7C1C50E94559B83
:1040400087FDBDC5F8E6EF2EF1E0FF2E0BE815E089
:10405000D7018D917D010E947E91882339F00E94C5
:104060004791F80164A375A386A397A30C5F1F4F24
:10407000F5E00B391F0761F7A2C58FE192E00E94BE
:10408000659E811128C04091BF055091C005609187
:10409000C1057091C20587E794E00E94A6984091FF
:1040A000C3055091C4056091C5057091C60584E7AC
:1040B00094E00E94A6984091C7055091C805609170
:1040C000C9057091CA0581E794E00E94A6988AE02C
:1040D0000E94EE2B74C583E50E94B091882391F075
:1040E0000E9447916093BF057093C0058093C105FE
:1040F0009093C2056093C7057093C8058093C90566
:104100009093CA0580E50E94B091882351F00E94E7
:1041100047916093BF057093C0058093C10590934C
:10412000C20582E50E94B091882351F00E94479118
:104130006093C3057093C4058093C5059093C6052D
:1041400084E50E94B091882309F439C50E94479103
:104150006093C7057093C8058093C9059093CA05FD
:104160002EC584E292E00E94659E882309F427C54B
:1041700082E40E947E91882351F00E94559E6093B4
:104180009B0570939C0580939D0590939E0583E508
:104190000E947E91882351F00E9447916093CB0545
:1041A0007093CC058093CD059093CE0584E50E9455
:1041B0007E91882351F00E9447916093CF057093C0
:1041C000D0058093D1059093D2058AE40E947E9118
:1041D000882309F4F4C40E9447916B017C012AE012
:1041E00037ED43E25CE30E940FF687FD13C02AE936
:1041F00039E949E95EE3C701B6010E9495ED181659
:104200004CF0C0921E04D0921F04E0922004F09261
:104210002104D5C40E94D79887E894E00E940C98A6
:10422000CEC478E6C72E71E0D72EE8E9EE2EE6E0A0
:10423000FE2E10E0D6018D916D010E947E918823A3
:1042400051F00E944791F7016083718382839383C9
:10425000812F0E9488481F5FF4E0EF0EF11C13309D
:1042600049F70E94BBA4ABC483E50E94B0918823A8
:1042700009F4A5C40E9443919093250180932401E1
:104280009EC40E94559BF82E87FD99C483E50E9429
:10429000B0910F2D0F2C000C110B882369F10E9497
:1042A0004391F801EE0FFF1FEA5DFE4F918380837B
:1042B000000F111F000F111F9801265D3E4F79015D
:1042C000BC01990F880B990B0E949CED2AE037EDF9
:1042D00043E25CE30E94FBEDF801E559FC4F2081CD
:1042E0003181428153810E94FBEDD7016D937D9313
:1042F0008D939C93139763C40E94A69985E40E94B2
:10430000EE2B80E38F0D0E94EE2BF801EE0FFF1FC6
:10431000EA5DFE4F6081718186EA94E00E94B79861
:1043200085E20E94EE2B8AE00E94EE2B48C480E5D5
:104330000E947E91882309F442C460E070E080E529
:104340000E94C69FF82E6FEF7FEF83E50E94C69F05
:104350008C010196039708F032C4F7FC30C48F2D0E
:104360000E94E9E1882339F00E94D7988EEA94E010
:104370000E940C9824C40E94D24360E08F2D0E94BA
:104380005DD40F3FBFEF1B0731F00130110571F411
:1043900001E010E00DC08F2D0E9405D431E020E037
:1043A000892B09F030E0032F122F02C000E010E04B
:1043B0008F2D0E9405D48017910709F400C40E9434
:1043C0001A2DF6CF80E50E947E91882309F4F7C369
:1043D0000E9443918C01892B09F07FC083E50E94E4
:1043E0007E91882389F00E9443918F3FEFEF9E07D3
:1043F00029F48DE59BE00E948B29E1C3BC018DE58A
:104400009BE00E943A2ADBC30E94A69960E070E01C
:104410008CEC94E00E94B79880915F0B28E532E025
:104420006901C81AD10887FDD394CC0CDD1CCC0CD3
:10443000DD1C0D2C000CEE08FF0880915E0B28E8B7
:1044400030E04901881A910887FD9394880C991CE3
:10445000880C991C092C000CAA08BB0880915D0BE4
:104460008F3FC1F090E0FC01EE0FFF1F8E0F9F1FEA
:10447000FC01E85CF44F2181328183E0220F331F7D
:104480008A95E1F794E0369527959A95E1F72E5FA6
:104490003F4F02C020E030E02F5F3F4FC901330F94
:1044A000AA0BBB0B9C01AD01281939094A095B090C
:1044B000A4EBB0E00E942CF4A70196012819390959
:1044C0004A095B090E940DF4B90186EC93E20E944F
:1044D000B7988AE00E94EE2B72C30E94D798B80169
:1044E0008DEC94E00E94B7988DEB94E00E940C98BC
:1044F00066C38AE50E94B091811105C083E50E94E0
:10450000B0918823A1F10E94479120E030E040E083
:1045100050EC0E9495ED87FDA9C50E94479120E0CF
:1045200030E040E050E40E940FF618160CF498C5F5
:104530000E9447916B017C012091A7053091A8054D
:104540004091A9055091AA05C701B6010E94FBED53
:104550000E9481F5CB010E94DFCD80E50E947E9113
:10456000882309F489C50E943391811185C589E2A8
:1045700092E00E94659E882309F4A4C582E50E940A
:104580007E9181119FC51BC360E085E40E94D59F89
:10459000811173C080E50E947E91882351F00E94B2
:1045A00047916093090B70930A0B80930B0B9093C8
:1045B0000C0B89E40E947E91882381F00E94479130
:1045C0002CEA35EC47E25EE30E94FBED60930D0BB5
:1045D00070930E0B80930F0B9093100B84E40E944A
:1045E0007E91882381F00E9447912CEA35EC47E2C6
:1045F0005EE30E940FF56093110B7093120B809392
:10460000130B9093140B0E94A6994091090B5091A3
:104610000A0B60910B0B70910C0B8DE095E00E94E2
:10462000A6982CEA35EC47E25EE360910D0B7091A1
:104630000E0B80910F0B9091100B0E940FF5AB01A8
:10464000BC0189E095E00E94A6982CEA35EC47E28F
:104650005EE36091110B7091120B8091130B90919E
:10466000140B0E94FBEDAB01BC0185E095E00E94BC
:10467000A6988AE00E94EE2BA2C20E94D79883EFF0
:1046800094E00E940C989BC283E40E947E91882350
:1046900021F00E9443910E94BD76609107017091C4
:1046A000080181E195E00E94B7988AE00E94EE2B14
:1046B00086C283E50E947E91182F882371F00E94A4
:1046C00047910E9481F570932F0160932E0121E0A4
:1046D000672B09F020E020934B0480E50E947E9137
:1046E000882359F020912E0130912F01232B11F0B6
:1046F0000E94339180934B0462C2111160C20E94E8
:10470000A69989E395E00E940C9880914B04811151
:1047100003C080E295E002C08DED9AE00E940C9803
:1047200060912E0170912F0188E295E00E94B79868
:1047300084E295E00E940C9842C20E9464663FC2E7
:104740008091BF0E81118DCD81E00E943D8F89CD7A
:104750006FEF7FEF89E40E94C69F182F6FEF7FEF06
:104760008AE40E94C69F082F8AE50E947E91F82E57
:10477000811105C081E50E947E91D82E01C0D12C07
:1047800017FD06C007FD04C0F11009C0D11007C015
:104790000E94D7988CE495E00E940C9810C21530C6
:1047A00010F4053038F00E94D7988EE792E00E940E
:1047B0000C9805C2E12E110FFF08002E000C110B02
:1047C0000E944791DD2099F025E02E9DF0012F9D5C
:1047D000F00D1124E00FF11FEE0FFF1FEE0FFF1F72
:1047E000E251F84F208131814281538103C020E0A2
:1047F00030E0A901A5E0AE9DF001AF9DF00D1124C0
:104800000E0F1F1F000F111F000F111F0251184F15
:104810000E948CF4D8016D937D938D939C93139794
:10482000CEC10E9483CD8111CAC10FEC18E0E5E032
:10483000F4E0FDA7ECA79E012F5F3F4F190192E026
:10484000C92E99E0D92E7901F8016591759185916C
:104850009491ACA5BDA58D909D90AD90BD90BDA748
:10486000ACA7A50194010E948BF42B013C0120E030
:1048700030E040EA51EC0E940FF687FD10C020E0C6
:1048800030E040EA51E4C301B2010E9495ED1816F0
:1048900034F0F70140825182628273820EC0F601C9
:1048A00084911816B4F7B7FAB094B7F8B094D7015A
:1048B0008D929D92AD92BC921397D7018D909D9051
:1048C000AD90BD907D0120E030E040EA51ECC501A3
:1048D000B4010E940FF687FD07C420E030E040EAF3
:1048E00051E4C501B4010E9495ED18160CF00AC4FC
:1048F000FBC30E94333163C10E9456AC60C1209358
:1049000063080E9464A710926308882309F457C1C2
:104910000E94A69988EA95E00E940C9850C1809167
:10492000D70B82FF4CC180648093D70B48C189E2CA
:1049300092E00E94659E811128C04091CC0E50915A
:10494000CD0E6091CE0E7091CF0E80EF95E00E945B
:10495000A6984091D00E5091D10E6091D20E7091D8
:10496000D30E8AE993E20E94A6984091D40E50910A
:10497000D50E6091D60E7091D70E83E993E20E9416
:10498000A6988AE00E94EE2B1AC12090CC0E30909F
:10499000CD0E4090CE0E5090CF0E6090D00E709005
:1049A000D10E8090D20EF091D30EFCA7C090D40E01
:1049B000D090D50EE090D60EF090D70E88E50E94EC
:1049C000B091882351F10E9447915B018C0120E056
:1049D00030E046E153EC0E940FF687FD0AC020E06C
:1049E00030E046E153E4B501C8010E9495ED181688
:1049F00094F466E970E08DED95E00E94B79866E961
:104A000070E088ED95E00E94B7988EE694E00E94F1
:104A10000C9810E003C01501280111E089E50E94FF
:104A2000B091882381F10E944791962EA72EB82E2F
:104A3000092F20E030E046E153EC0E940FF687FD9D
:104A40000CC020E030E046E153E4692D7A2D8B2D37
:104A5000902F0E9495ED181694F466E970E085ECAD
:104A600095E00E94B79866E970E088ED95E00E94B5
:104A7000B7988EE694E00E940C9810E004C0692C70
:104A80007A2C8B2C0CA78AE50E94B091882339F1EF
:104A90000E9447916B017C0120E030E040E151EC45
:104AA0000E940FF687FD0AC020E030E040E151E4AB
:104AB000C701B6010E9495ED18168CF467EF7FEFE1
:104AC00083EB95E00E94B79869E070E088ED95E08F
:104AD0000E94B7988EE694E00E940C9870C0112353
:104AE00009F46DC0C101D2018093CC0E9093CD0E1C
:104AF000A093CE0EB093CF0EC301A82DBCA580937A
:104B0000D00E9093D10EA093D20EB093D30EC0923C
:104B1000D40ED092D50EE092D60EF092D70E4FC0A2
:104B200081E0809364011092F30260E083E50E94CB
:104B3000BD91811144C00E9448DF41C083E50E94BD
:104B40007E91882339F00E943391809397060E94CA
:104B5000929235C00E94A69983E096E00E940C983C
:104B600080919706811103C08FEF95E002C08AE122
:104B700092E00E940C988AE00E94EE2B20C00E94D6
:104B8000FD851DC000914A0F10914B0F0023B9F015
:104B90000E94A69984E50E94EE2BB8017727072E84
:104BA000000C880B990B0E94622C80E20E94EE2B75
:104BB00083EF94E00E940C9802C00E94FD852FA90B
:104BC000211102C00E9438DF3CA930934502C3C2C4
:104BD0000E94D243809173038EAB80E00E94C79401
:104BE0000E94744D81E08093E8050E941DA688E52F
:104BF0000E947E91182F89E50E947E91282E8AE5D9
:104C00000E947E911211F8C1181711F0212EF4C1E3
:104C10002224239411E001E080E1E5E0F4E0AAE53C
:104C2000B3E001900D928A95E1F782E50E94B09180
:104C3000882369F00E9447916B017C0120E030E0FD
:104C4000A9010E9495ED882309F43FC006C0C12C3C
:104C5000D12C80E8E82E80E4F82E111103C0222028
:104C600009F411C18091DE0E82FD09C060910D042E
:104C700070910E0480910F049091100403C060E0C5
:104C800070E0CB01A70196010E948CF4609362034F
:104C900070936303809364039093650320910D04E4
:104CA00030910E0440910F04509110040E940FF6B1
:104CB00018165CF419821A821B821C82BE016F5F77
:104CC0007F4F82E693E00E94914E112309F4D6C0F3
:104CD000222009F4D0C0109205041092060410920C
:104CE0000704109208041092090410920A0410920A
:104CF0000B0410920C040E94B9A4E2E0F9E0849144
:104D000088AFEBEDF8E085909590A590B490EFED2D
:104D1000F8E0C590D590E590F490A7019601C50103
:104D2000B4010E940FF618162CF4A5019401C701D6
:104D3000B60104C0A7019601C501B4010E940FF598
:104D40002B013C01EBEEF8E085919591A591B49192
:104D50008CA79DA7AEA7BFA7E7EEF8E08591959138
:104D6000A591B49188AB99ABAAABBBAB9C01AD014B
:104D70006CA57DA58EA59FA50E940FF618163CF088
:104D80001CA59DA59DAB3EA4AFA5ACA706C018A9C8
:104D9000B9A9BDAB3AA8EBA9ECA7A3019201C30145
:104DA000B2010E94FBED20E030E040E85FE30E94AA
:104DB0008CF40E944DF6212F3DA9432D5CA50E9445
:104DC000FBED6CA37DA38EA39FA3E3E0F9E0149118
:104DD00020E030E040EC5FE3C701B6010E94FBED4C
:104DE0006B017C01612F110F770B880B990B0E94CF
:104DF0009CED9B01AC01C701B6010E94FBED6983EC
:104E00007A838B839C8320E030E040EC5FE3C50134
:104E1000B4010E94FBED6B017C01F8AD6F2FFF0F19
:104E2000770B880B990B0E949CED9B01AC01C7018D
:104E3000B6010E94FBED6C8F7D8F8E8F9F8FAE0130
:104E40004C5D5F4FBE016F5F7F4FCE014C960E945D
:104E50006F4E0E942CA61092050410920604109228
:104E60000704109208041092090410920A04109288
:104E70000B0410920C0480E00E94A848222019F034
:104E800081E00E94A848002309F4A5C080E00E94A8
:104E900090978091DE0E8370833051F060E080E760
:104EA00092E00E94A0370E94A69981E692E0AFC0EE
:104EB0000E94B9A440900D0450900E0460900F041D
:104EC000709010042091CC0E3091CD0E4091CE0EFA
:104ED0005091CF0E60E070E086E992E40E948BF47E
:104EE0006B017C0160935A0370935B0380935C03B6
:104EF00090935D032091D00E3091D10E4091D20E4F
:104F00005091D30E60E070E086E992E40E948BF449
:104F10004B015C0160935E0370935F0380936003B9
:104F2000909361032091D40E3091D50E4091D60E0E
:104F30005091D70EC301B2010E948BF460936203BB
:104F400070936303809364039093650327E137EBC9
:104F500041ED58EBC501B4010E940FF687FD4EC02C
:104F600027E030E046E153E4C501B4010E9495ED2D
:104F700018160CF443C027E137EB41ED58EBC7019D
:104F8000B6010E940FF687FD39C027E030E046E108
:104F900053E4C701B6010E9495ED18167CF11C8EF2
:104FA0001D8E1E8E1F8E88E0EAE5F3E0DE0111966D
:104FB00001900D928A95E1F7AE01445E5F4FBE010C
:104FC0006B5F7F4FCE0101960E946F4E82E00E9480
:104FD000A8480E9416900E94B9A48091E70580938A
:104FE000E8058EA90E94C7940E945B4D83E08093E0
:104FF00057010E94BBA4E3CD082F0ECE60E080E5F0
:1050000092E00E94A0370E94A6998EE392E00E944F
:105010000C98DFCF0E94E19FD2CD11110C94131A8E
:105020000C940C1A0E941A2D0C94371A0E94C085F9
:105030001092F40210934502C2CD0E940F910E947B
:10504000166EBDCD61E0802F0E945DD46F2D802F44
:105050000E942ED46F2D70E0802F0E9499D4AFCD86
:10506000C12CD12CE12C10E4F12E66CAC12CD12C1C
:10507000E12CB0ECFB2E60CAA70196016091D40E22
:105080007091D50E8091D60E9091D70E0E948CF41F
:105090006093D40E7093D50E8093D60E9093D70E56
:1050A0000E94A6994091D40E5091D50E6091D60ED3
:1050B0007091D70E83EE94E00E94A6988AE00E9439
:1050C000EE2B55CA0E94A6994091D40E5091D50E50
:1050D0006091D60E7091D70E84ED94E00E94A69850
:1050E0008AE00E94EE2B6BCD0E94D7988AE895E06B
:1050F0000E940C9861E08CE795E00E94A0370E9426
:10510000E5705DCD0C5F1F4FBFEFCB1ADB0AE8E007
:105110000B3D1E0709F098CB88E9E82E86E0F82EB3
:1051200010E0F10181919191A191B1911F01F701DD
:1051300081939193A193B1937F01812F0E9488481D
:105140001F5F133071F70E94BBA460E08CE695E00E
:105150000E94A03734CDE8960FB6F894DEBF0FBE9C
:10516000CDBFDF91CF911F910F91FF90EF90DF9016
:10517000CF90BF90AF909F908F907F906F905F90F7
:105180004F903F902F9008955E9A8091DE0E8E7F13
:105190008093DE0E5E9A8091DE0E8D7F8093DE0E10
:1051A000159A8091DE0E8B7F8093DE0E5E9A0895B5
:1051B000EC018B01F42E0E94FCD70E94D7988FE758
:1051C00097E00E940C980115110511F401ED1BE008
:1051D000209711F4C6E7D7E00E9480411F930F93F8
:1051E000DF93CF9386E697E09F938F93D1E0DF9391
:1051F0000E9401380E94E570C091900BC695C6953B
:105200008DB79EB707960FB6F8949EBF0FBE8DBFA1
:105210008091C80B811104C0D093C80B0E94F6C1C5
:105220008091910B9091920B0E94CFC1DC2FDD0FEA
:105230001D2F1C0F83E00E94AA7648EC52E06C2FD1
:1052400080E00E9446661092C60BD093C70B87E59C
:1052500097E00E94E6651092C60B1093C70B8AE494
:1052600097E00E94E6658FE89BE00E9464C0811190
:10527000E1CF8DE697E00E9455C089EE93E030E6DD
:10528000019729F0232F2A950000E9F7F9CFF89428
:1052900089EE93E038EE019729F0232F2A9500003C
:1052A000E9F7F9CF0E94FCD7FF2019F00E94C4282B
:1052B00001C05E9AA895FECF80914B02811107C074
:1052C0000E9456AC882319F081E080934B02089528
:1052D00010923A0408959091D70B93FB882780F998
:1052E00093FF06C081E090913B0D911101C080E0D9
:1052F000089580910404823061F00E946B29882314
:1053000049F08091D70B82FB882780F991E08927AB
:10531000089581E00895DC01EC91F0E0CF01880F61
:10532000991FE80FF91FE85CF44F80818F77808325
:1053300008958F929F92AF92BF92CF92DF92EF9299
:10534000FF920F93CF93DF931F92CDB7DEB75C012F
:105350006B017A014901F501808191810E94C5F3B9
:105360008983002311F0F6018083BE016F5F7F4FB8
:10537000C4010E9411C4F50180819181019691833D
:105380008083FFEFCF1ADF0A81E0E81AF10819F7EE
:1053900080E00F90DF91CF910F91FF90EF90DF9021
:1053A000CF90BF90AF909F908F9008957F928F92F3
:1053B0009F92AF92BF92CF92DF92EF92FF920F93A4
:1053C0001F93CF93DF931F92CDB7DEB77C015901B6
:1053D0008B016B01C40ED51E0C151D0559F1F7018B
:1053E00080809180F80171908F017982C4010E94C0
:1053F000C5F3781691F0672DC4010E94CDF3C40166
:105400000E94C5F39981891741F00E94A69982E212
:1054100096E00E940C9881E00EC0BE016F5F7F4F46
:10542000C5010E9411C4F701808191810196918389
:105430008083D2CF80E00F90DF91CF911F910F91A9
:10544000FF90EF90DF90CF90BF90AF909F908F90A4
:105450007F9008951092900082E0809391001092C6
:10546000950010929400C19AE1E7F0E0808182609B
:10547000808308957F928F929F92AF92BF92CF9236
:10548000DF92EF92FF920F931F93CF93DF93FC0174
:1054900090819C3008F0CFC06B017F01892F90E094
:1054A000FC01EE0FFF1F8E0F9F1FFC01E85CF44F05
:1054B000808161E08F770E945DD4F70111821282B2
:1054C00080816CE00E944EF4FCE08F9FB0011124BB
:1054D00040E050E09B01240F351FF901EE0FFF1F44
:1054E0002E0F3F1FF901E85CF44F908197FD09C032
:1054F0004F5F5F4F4C30510569F7811102C00E9428
:105500002A2AF7017080C72DD0E08E01000F111FED
:10551000F801EC0FFD1FE85CF44F80818068808308
:1055200077FC89C0F0E2CF16F2E0DF060CF041C054
:10553000F701828128E532E0281B310987FD339588
:10554000220F331F220F331F032E000C440B550B69
:10555000818168E870E04B01881A910887FD939477
:10556000880C991C880C991C092C000CAA08BB08F3
:10557000D7FC0BC0B601653B710514F064EB70E01D
:10558000072E000C880B990B03C060E070E0CB0184
:10559000281939094A095B090E94DBF324EB30E042
:1055A00040E050E00E940DF4820E931EA41EB51E32
:1055B00001C04601FBE0F71558F1F701218188E8A9
:1055C00090E0821B910927FD9395880F991F880F02
:1055D000991F8816990684F0F701228188E592E0E8
:1055E000821B910927FD9395880F991F880F991F9A
:1055F000881699060CF4C40102972FB7F894C00FCF
:10560000D11FC85CD44F880F991F9A8389832FBFFD
:1056100062E370E080E090E0DF91CF911F910F9105
:10562000FF90EF90DF90CF90BF90AF909F908F90C2
:105630007F900C944D97DF91CF911F910F91FF9028
:10564000EF90DF90CF90BF90AF909F908F907F9022
:1056500008951F920F920FB60F9211240BB60F925E
:105660002F933F934F935F936F937F938F939F936A
:10567000AF93BF93EF93FF9380914A0287FF05C0DA
:1056800010929500109294001BC020914A02022EA5
:10569000000C330B80915C0B90E02817390784F4E1
:1056A00080914A02082E000C990BFC01EE0FFF1F9F
:1056B0008E0F9F1FFC01E85CF44F808187FD15C0B1
:1056C00080914A028F5F80934A0220914A02022E03
:1056D000000C330B80915C0B90E028173907C4F461
:1056E00080914A028C3064F113C080914A02082EE6
:1056F000000C990BFC01EE0FFF1F8E0F9F1FFC018A
:10570000E85CF44F808160E08F770E942ED4D8CF80
:105710008091940090919500049680349C4918F4EF
:1057200080E49CE905C080919400909195000496D6
:1057300090939900809398008FEF80934A023BC02A
:10574000209194003091950080914A02082E000C1F
:10575000990BFC01EE0FFF1F8E0F9F1FFC01E85CF1
:10576000F44F81819281820F931F909399008093CF
:10577000980080914A02082E000C990BFC01EE0F54
:10578000FF1F8E0F9F1FFC01E85CF44F808187FF95
:1057900012C080914A02082E000C990BFC01EE0FFA
:1057A000FF1F8E0F9F1FFC01E85CF44F808161E0BA
:1057B0008F770E942ED4FF91EF91BF91AF919F916F
:1057C0008F917F916F915F914F913F912F910F90AA
:1057D0000BBE0F900FBE0F901F9018959091C000B8
:1057E00095FFFCCF8093C60008958F929F92AF9251
:1057F000BF92EF92FF920F931F93CF93DF93CDB79A
:10580000DEB7A0970FB6F894DEBF0FBECDBF61150F
:1058100071058105910591F100E0842E912CA12C58
:10582000B12C102FEE24E394F12CEC0EFD1EE00EB3
:10583000F11C07FDFA94A50194010E94EBF3F70116
:105840006083B901CA010F5F61157105810591057A
:1058500041F71F3F31F1E1E0F0E0EC0FFD1FE10FF8
:10586000F11D17FDFA9580818A3010F097E301C091
:1058700090E3890F0E94EE2B1150EBCF80E3A096AE
:105880000FB6F894DEBF0FBECDBFDF91CF911F9151
:105890000F91FF90EF90BF90AF909F908F900C94DE
:1058A000EE2BA0960FB6F894DEBF0FBECDBFDF91F2
:1058B000CF911F910F91FF90EF90BF90AF909F906D
:1058C0008F900895CF92DF92EF92FF926B017C014F
:1058D00097FF0BC08DE20E94EE2BF094E094D094E1
:1058E000C094C11CD11CE11CF11C4AE0C701B601E7
:1058F000FF90EF90DF90CF900C94F52B8F929F92BA
:10590000AF92BF92CF92DF92EF92FF92CF936B0153
:105910007C01B42E20E030E0A9010E9495ED87FFC4
:1059200007C08DE20E94EE2BF7FAF094F7F8F0949E
:10593000C0E060E070E080E09FE3CB1541F02DEC2B
:105940003CEC4CEC5DE30E94FBEDCF5FF6CF9B019E
:10595000AC01C701B6010E948CF46B017C010E946E
:1059600088F54B015C014AE00E94F52BCC2389F1BC
:10597000C501B4010E949AED9B01AC01C701B601BB
:105980000E948BF46B017C018EE20E94EE2B20E0E2
:1059900030E040E251E4C701B6010E94FBED4B014B
:1059A0005C010E9481F56B01770FEE08FF08C701CB
:1059B000B6010E94622CC701B6010E949CED9B01BA
:1059C000AC01C501B4010E948BF46B017C01C15094
:1059D000F1F6CF91FF90EF90DF90CF90BF90AF9016
:1059E0009F908F9008958DE00E94EE2B8AE00C949A
:1059F000EE2BCF93DF93EC018991882319F00E945D
:105A0000EE2BFACFDF91CF910C94F32C8091510FB4
:105A10009091520F981759F0E92FF0E0EF5AF04F9C
:105A200082819F5F9F779093520F90E008958FEF50
:105A30009FEF08954F925F926F927F928F929F9205
:105A4000AF92BF92CF92DF92EF92FF920F931F938C
:105A5000CF93DF9300D01F92CDB7DEB70E9491386D
:105A60000E947E866B017C0180910001882359F1A0
:105A700080914502882339F140914C0250914D02AA
:105A800060914E0270914F0297018601041B150B25
:105A9000260B370B37FD2AC0833079F03CF4813078
:105AA00094F00E94A6998BE696E00BC0843059F4DE
:105AB0000E94A6998CE396E004C00E94A69984E512
:105AC00096E00E940C982091000130E0A8EEB3E02F
:105AD0000E943FF4C60ED71EE81EF91EC0924C026B
