:100000000C9430280C9461280C9461280C9461287D
:100010000C9461280C9461280C9461280C9461283C
:100020000C9461280C9461280C9461280C9461282C
:100030000C9461280C9461280C9461280C9461281C
:100040000C9461280D9458040C9461280C94612838
:100050000C9461280C9461280D9472910D94AC62FB
:100060000C9461280C9425720C941B720C946128DA
:100070000C9461280C9461280C9461280C946128DC
:100080000C94456A0C9461280C9461280C946128A6
:100090000C9461280C9461280C9461280C946128BC
:1000A0000C9461280C9461280C94176A0C946128B4
:1000B0000C9461280C9461280C9461280C94E969D3
:1000C0000C9461280C9461280C9461280C9461288C
:1000D0000C9461280C9461280C9461280C9461287C
:1000E0000C9461286C547354265537567D578657A7
:1000F00096575B726172737283728B72BB728F726E
:10010000BB7293729772BB729B729F72A372AC7236
:10011000BB72B7728502C7019301230269014303D1
:100120005701B1011F03F902ED021B03E302E701CE
:100130004303F501C702BF0183017B0149028B0123
:1001400091014F03AB021502CF02C902FD01210349
:10015000DD01EB024F03B3021303D5023B02BF02E2
:1001600081011902810181018101810181018101E6
:10017000810181018101810181018101810181016F
:10018000810181018101810181018101810181015F
:100190008101810181018101D501810181018101FB
:1001A000810181018101810181017B028101810144
:1001B000810181018101810181018101810181012F
:1001C0006F020F028B02A7028F011103D1029D0261
:1001D000F301DF02A101410301037F02084AD73B7B
:1001E0003BCE016E84BCBFFDC12F3D6C74319ABD06
:1001F00056833DDA3D00C77F11BED9E4BB4C3E912A
:100200006BAAAABE000000803F05A84CCDB2D44E18
:10021000B93836A9020C50B9918688083CA6AAAA1A
:100220002ABE000000803F07634236B79BD8A71A5A
:1002300039685618AEBAAB558C1D3CB7CC5763BD68
:100240006DEDFD753EF6177231BF000000803F086E
:10025000000000BE922449123EABAAAA2ABECDCC11
:10026000CC4C3E00000080BEABAAAAAA3E00000013
:1002700000BF000000803F0000000000084178D36C
:10028000BB4387D1133D190E3CC3BD4282AD2B3E0B
:1002900068EC8276BED98FE1A93E4C80EFFFBE01AB
:1002A000C4FF7F3F0000000000000C949A9C0D9456
:1002B00071270D948E8A0D94CE4E0D9434500D946A
:1002C000FE770C94689E0C948E980C949B720C9400
:1002D00068980D9466270C9460D80C94FBC10D941B
:1002E000278A0C946C540C94A5D70C94C99F0C9439
:1002F00055A80C942DA60D942E2E0C9414C10C947C
:10030000BEDF0D94AD3D0D94292E0C94F7A50C94F1
:100310004ADE0C9436980D943D2E0C948D9F0D94CE
:100320000F7F0D94472E0D945C270C94E69C0C9443
:100330000DA30D94C8340D9492710D94897B0C9487
:1003400096570D941B7F0C94A79D0C947B980D944D
:10035000008F0C9409C40D94003D0D94228A0C94D6
:100360007E9F0D9475270C9495D80C94F53E0C94B3
:10037000BEAC0C948E9C0D94A3780D94EE430D941A
:100380009F270D94318A0C94ADAC0C94C2AC0D94A3
:100390006D270C9426550D9461750C94D3A70D947C
:1003A000CB4E0D94CDAA0C941D980D943B3F0D940B
:1003B0002E700D94627F0D94EBAA0D948E2E0D94E9
:1003C000AD4D0C94829C0D946B460D943C770D942E
:1003D00091270C9424990C94949C0C9473720D9412
:1003E00030880C94889C0D94187F0D9497270D9459
:1003F000A7440C948B720D94397F0D94752E0C9438
:10040000BB720D94A74D0D94A44D0C94349A0D9489
:10041000AA4D0C9495970C9425C30D94568D0D946C
:10042000AA3D0D94997B0C947D570D94592E0D94F3
:1004300045770D94413F0C94DF980D94BA030C94CA
:1004400056970C94A9A90D9460270D94A83F0D947C
:100450007C620C94C0AC0C9448A60D94013D0D94A4
:100460004D770D94AC710C94BA980C949F720C94C7
:1004700061720C941CA90D94053F0D9410880C9486
:100480004DDC0C94D3980D941D770C946BA80D94AF
:10049000917B0D94332E0D94923C0C94DCA50D941D
:1004A00006880C944CC50D94B2710C9456C60C94ED
:1004B0005B720C94D0970D948D7B0C94AC720C9461
:1004C0006D970C9475D80D94127A0C942FDA0C94C5
:1004D0004F980D94B94C0C94BFAA0D94C2870D94FB
:1004E000583F0C947C9C0C94A09C0D942A880C94EE
:1004F000A3720D94817B0D94143F0D9450700D9454
:10050000217F0C94A0D80C94E9C80D946A270C9410
:10051000FEA00C9484970D94337F0D942C8A0D9437
:10052000A6490D94857B0C94679A0D94A1440C9474
:10053000CAC10C94EB970D94A5440D94157F0C94AF
:10054000E1D80C94709C0C94B7720C9497720D9433
:100550000C7F0C94919A0D94512E0C94769C0D94D2
:10056000EB700C9473540D94A22E0D949D7B0C94FF
:1005700017A80C94BCAC0D9401880D94957B0D9438
:10058000743D0C94A7980C94649C0D946B710D941D
:100590009B270D946B2E0D94D14E0C946A9C0D9458
:1005A000612E0D94127F0D943C880D94B62E0C9400
:1005B00004980D94A3440D948F3C0C9420990D94B1
:1005C000247F0C948AA80D948D270C9460A80D9418
:1005D000858A0D9475720D94982E0D9483270D9431
:1005E000A57B0D94AA710C94CE970C9492A80C94B0
:1005F0003C9F0D947F270D94D2530D9436880C9414
:10060000FBA80D941E7F0D942B7E0D9452620D94C9
:10061000043D0C948F720D946F710D947D7B0C943E
:1006200086570D94367F0D94AC2E0C94A6D70D945E
:100630009F440C940FC00D9489270C9448C40D94CA
:100640007B270D947F2E0C94D8C20D9431790C9495
:1006500022D90C94C4AC0D94A8710D940B880D9400
:1006600078880C9412A60C94C4C10D94538C0C94ED
:1006700037560C94B6A00D949D710D946E490C9450
:1006800093720D94317F0D94A4270C9436A80D9489
:1006900038730D94A17B0C9422C80C9483720D9432
:1006A000C02E0C9463A64E414E494E495459494EB2
:1006B00046CDCCCC3D0AD7233C17B7D13877CC2BCD
:1006C000329595E6241FB14F0A000020410000C872
:1006D0004200401C4620BCBE4CCA1B0E5AAEC59DF3
:1006E0007400407A10F35A00A0724E18090010A549
:1006F000D4E80000E87648170000E40B540200003C
:10070000CA9A3B000000E1F50500008096980000C1
:100710000040420F000000A08601000000102700EA
:10072000000000E803000000006400000000000A70
:1007300000000000000100000000002C76D888DCDA
:10074000674F0823DFC1DFAE59E1B1B796E5E3E4B7
:1007500053C63AE651997696E8E6C28426EB898C30
:100760009B62ED407C6FFCEFBC9C9F40F2BAA56F92
:10077000A5F490055A2AF75C936B6CF9676DC11B61
:10078000FCE0E40D47FEF520E6B500D0ED902E0329
:1007900000943577050080841E080000204E0A0072
:1007A0000000C80C333333330F986E12831141EFBE
:1007B0008D2114893BE65516CFFEE6DB18D1844B1C
:1007C000381BF77C1D901DA4BBE424203284725E8C
:1007D000228100C9F124ECA1E53D27434F4D4D5541
:1007E0004E49434154494F4E0044525952554E00D0
:1007F0004552524F5253004543484F0047322F470E
:10080000332062616420706172616D65746572731A
:100810000A00536C6565702E2E2E005A2050726FA0
:1008200062652050617374204265640A005A20504A
:10083000726F626520506173742042656400486F76
:100840006D652058592066697273740A00486F6D8F
:100850006520585920466972737400205A3A200066
:1008600020593A200042656420583A20004D6573B3
:100870006820706F696E742063616E6E6F742062A1
:1008800065207265736F6C7665640A004E6F204D4B
:100890006F76652E00456E642066696C65206C6914
:1008A00073740A00426567696E2066696C65206C26
:1008B0006973740A00526573756D696E67205344DD
:1008C00000286E6F2066696C652900437572726539
:1008D0006E742066696C653A20005072696E7420EF
:1008E00074696D653A20000A53746174733A204646
:1008F000696C616D656E7420757365643A20002CB7
:10090000204C6F6E67657374206A6F623A200054E2
:100910006F74616C2074696D653A20002C2046610B
:10092000696C65643A20002C2046696E69736865BD
:10093000643A20005072696E74733A2000537461F7
:1009400074733A2000452025530044454255473AE8
:10095000004D31313320530042656420436F6F6C8A
:10096000696E672E2E2E00426564204865617469A9
:100970006E672E2E2E003430302053755065522075
:100980004F46462E004348414D4245525F54454D27
:100990005045524154555245004D4F54494F4E5FBA
:1009A0004D4F44455300544845524D414C5F5052C1
:1009B0004F54454354494F4E004155544F524550B2
:1009C0004F52545F53445F53544154555300505257
:1009D0004F4D50545F535550504F525400454D4564
:1009E0005247454E43595F5041525345520043418F
:1009F00053455F4C494748545F4252494748544E1B
:100A000045535300544F47474C455F4C4947485462
:100A10005300534F4654574152455F504F5745522C
:100A2000004255494C445F50455243454E54004C9A
:100A30004556454C494E475F44415441005A5F502A
:100A4000524F4245004155544F4C4556454C00507D
:100A500052494E545F4A4F420050524F47524553FD
:100A600053004155544F5245504F52545F54454DD9
:100A70005000564F4C554D45545249430042494E43
:100A80004152595F46494C455F5452414E53464589
:100A9000520053455249414C5F584F4E5F584F46A4
:100AA00046004649524D574152455F4E414D453AE9
:100AB0004D61726C696E20322E302E345F44573691
:100AC00020544D33442034455341425520534F5513
:100AD0005243455F434F44455F55524C3A687474E6
:100AE00070733A2F2F6769746875622E636F6D2F6C
:100AF000496E73616E6974794175746F6D61746963
:100B00006F6E2F4D61726C696E2F747265652F4325
:100B10007265616C6974794477696E5F322E30203A
:100B200050524F544F434F4C5F56455253494F4ECE
:100B30003A312E30204D414348494E455F5459507B
:100B4000453A343030205375506552204558545240
:100B5000554445525F434F554E543A3120555549FF
:100B6000443A63656465326132662D343161322DF9
:100B7000343734382D396231322D633535633632AE
:100B80006633363766660A002F2F20004D31343524
:100B900020533C696E6465783E206F7574206F66E3
:100BA0002072616E67652028302D31290A002046A9
:100BB0006C6F773A200050726F74656374656420BF
:100BC00050696E0A00206F7574206F662072616E26
:100BD00067650A0020536572766F200020643A0032
:100BE00020693A0020703A006469730043290A00C2
:100BF00061626C656420286D696E2074656D70207B
:100C000000436F6C6420657874727564657320614D
:100C10007265200046696C616D656E742072756E38
:100C20006F75742064697374616E636520286D6DDF
:100C3000293A200046696C616D656E742072756E8C
:100C40006F757420004F6666736574732041707011
:100C50006C696564004572723A20546F6F2066615A
:100C6000722100546F6F206661722066726F6D2072
:100C70007265666572656E636520706F696E740A71
:100C800000454550524F4D204F4B0A003F4B2076B8
:100C9000616C7565206F7574206F662072616E6778
:100CA000652028302D3130292E0A00416476616E8E
:100CB0006365204B3D00506F7765722D6C6F7373C9
:100CC000207265636F766572792000F7072C14F047
:100CD00007E907DB07446F6E652E0A003F496E7611
:100CE000616C69642073746F7261676520736C6FE7
:100CF000742E0A3F557365203020746F20004732F0
:100D0000392050322066696E69736865642E0A0066
:100D10005859206F757473696465207072696E74B8
:100D200061626C65207261646975732E0A003F45CB
:100D300072726F7220696E20427573696E6573738B
:100D40002043617264206D6561737572656D656EB7
:100D5000742E0A004D616E75616C6C792070726F33
:100D600062696E6720756E726561636861626C6549
:100D7000206D657368206C6F636174696F6E732E8C
:100D80000A0050726F62696E672061726F756E64DF
:100D90002028004D65736820696E76616C69646116
:100DA0007465642E2050726F62696E67206D657382
:100DB000682E0A004D657368207A65726F65642E2F
:100DC0000A0044656661756C742073746F726167A4
:100DD0006520736C6F7420302073656C6563746577
:100DE000642E0A004C6F6164696E672074657374C9
:100DF0005F7061747465726E2076616C7565732EB8
:100E00000A0A00496E76616C696420746573745FC8
:100E10007061747465726E2076616C75652E202821
:100E20002D3120746F2032290A0A004C6F636174DF
:100E3000696F6E7320696E76616C69646174656454
:100E40002E0A0A00456E74697265204D657368202C
:100E5000696E76616C6964617465642E0A0A004D7E
:100E600065616E204D657368204865696768743AEE
:100E7000200023206F662073616D706C65733A20CB
:100E8000000A4D657368206F6E6C79207061727412
:100E900069616C6C7920706F70756C617465642E1B
:100EA0000A0A0050726F62696E6720506F696E7433
:100EB000000A50726F62696E67206D6573682070FA
:100EC0006F696E74200020616E642074616B652010
:100ED00061206D6561737572656D656E742E0A00B3
:100EE0006D6D20746869636B2E0A00427573696EBC
:100EF0006573732043617264206973200052656DCD
:100F00006F76652026204D65617375726520426598
:100F1000640052656D6F7665207368696D00506C72
:100F2000616365207368696D20756E646572206EFB
:100F30006F7A7A6C65004D65736820506F696E74C6
:100F4000204D656173757265642061743A20000AF2
:100F50004D657368206F6E6C792070617274696181
:100F60006C6C7920706F70756C617465642E0A000A
:100F7000506C616365205368696D2026204D656162
:100F800073757265004D6F76696E6720746F206EA1
:100F9000657874004D6573682045646974696E678F
:100FA0002053746F7070656400446F6E65204564F3
:100FB0006974696E67204D6573680A00446F6E65D9
:100FC0002045646974696E67204D657368004669E1
:100FD0006E652054756E696E67204D6573680028D4
:100FE000582C5929206F7574736964652070726973
:100FF0006E7461626C65207261646975732E0A009B
:101000004F6666736574206F7574206F6620626F1B
:10101000756E64732E20283020746F2031306D6D12
:10102000290A0A00496E76616C6964206D6170203E
:10103000747970652E0A0A003F284629616465208C
:1010400068656967687420666F7220426564204C29
:101050006576656C20436F7272656374696F6E208C
:101060006E6F7420706C61757369626C652E0A0A0C
:10107000003F43616E277420616374697661746513
:1010800020616E64206465616374697661746520B3
:101090006174207468652073616D652074696D6585
:1010A0002E0A0A00426F7468205820262059206CAE
:1010B0006F636174696F6E73206D75737420626500
:1010C000207370656369666965642E0A0A003F498A
:1010D0006E76616C696420677269642073697A65F1
:1010E00020284A2920737065636966696564202831
:1010F000322D39292E0A0A003F285029686173656C
:101100002076616C756520696E76616C6964202853
:10111000302D36292E0A0A003F2856296572626F43
:101120007365206C6576656C20696D706C61757394
:1011300069626C652028302D34292E0A0A003F2868
:101140005229657065746974696F6E20636F756E7E
:101150007420696E76616C69642028312B292E0A0F
:101160000A00446F696E6720473239005374616E1C
:101170006461726420446576696174696F6E3A20B7
:10118000004D34323120696E636F72726563742072
:10119000706172616D657465722075736167650A4F
:1011A00000446576696174696F6E0025533A2025A5
:1011B00073002052616E67653A20004D65616E3A9A
:1011C000200046696E6973686564210A00207261B7
:1011D0006E67653A2000207369676D613A200020D0
:1011E0006D65616E3A20003A207A3A2000206F66E1
:1011F0002000476F696E6720746F3A20580043578C
:101200000A00206469723A0020616E676C653A00DA
:101210005374617274207261646975733A004D345D
:101220003820506F696E740025533A2025642F25AD
:101230006400506F736974696F6E696E67207468BB
:10124000652070726F62652E2E2E0A003F4E756DFE
:10125000626572206F66206C65677320696E206D11
:101260006F76656D656E74206E6F7420706C61753D
:101270007369626C652028302D3135292E0A003FB4
:101280002028582C5929206F7574206F6620626FB2
:10129000756E64732E0A003F53616D706C65207328
:1012A000697A65206E6F7420706C61757369626C09
:1012B000652028342D3530292E0A004D3438205A27
:1012C0002D50726F6265205265706561746162694C
:1012D0006C69747920546573740A003F2856296537
:1012E00072626F7365206C6576656C20696D706CD9
:1012F00061757369626C652028302D34292E0A00CF
:10130000416363656C65726174696F6E3A20500069
:101310003F4A206F7574206F662072616E6765208A
:1013200028302E303120746F20302E33290A0020CF
:101330004D393220580020204D61783A200020207D
:101340004D696E3A2000536F667420656E64737445
:101350006F70733A20004D32342053256C64205452
:10136000256C64004739322E3920452573004731FA
:1013700020462564004739322E39205A257300470C
:1013800031205A3020463230300047312058257302
:1013900020592573204633303030004D3432302010
:1013A000532569205A2573004D3130362050256968
:1013B00020532569004D32303020442573004739D1
:1013C000322E392045305A300A47315A320A4732D4
:1013D0003852305859004D343230205330205A3072
:1013E0000020496E76616C6964206578747275645A
:1013F00065722000726F746174696F6E206D617424
:101400007269783A0A00206D61783A00206D696E41
:101410003A00417869732000554E4B4E4F574E208D
:1014200053544154450047434F44455F494E464F4E
:10143000004C43445F50415553455F524553554D11
:10144000450046494C414D454E545F52554E4F550F
:10145000545F434F4E54494E55450046494C414D0B
:10146000454E545F52554E4F5554004D3837362037
:10147000526573706F6E64696E672050524F4D50A5
:10148000545F004572726F722077726974696E677B
:1014900020746F20454550524F4D210A00627573EC
:1014A000793A2070617573656420666F7220696E89
:1014B0007075740A00627573793A2070617573658E
:1014C0006420666F7220757365720A0062757379A5
:1014D0003A2070726F63657373696E670A0070619A
:1014E000757365004D363030002066696C616D653E
:1014F0006E745F72756E6F7574200066696C616DD5
:10150000656E745F72756E6F757420540046696CF9
:10151000616D656E7452756E6F75742054004E6FF8
:1015200020436865636B73756D2077697468206C00
:10153000696E65206E756D6265722C204C617374E6
:10154000204C696E653A2000636865636B73756D46
:10155000206D69736D617463682C204C6173742015
:101560004C696E653A20004C696E65204E756D625F
:101570006572206973206E6F74204C617374204C07
:10158000696E65204E756D6265722B312C204C6141
:101590007374204C696E653A20004D31313000770C
:1015A0006169740A00534420726561642065727237
:1015B0006F720A002121204B494C4C2063617573E6
:1015C0006564206279204B494C4C20627574746FBD
:1015D0006E2F70696E0A002121204B494C4C20630C
:1015E000617573656420627920746F6F206D756317
:1015F0006820696E6163746976652074696D652021
:101600002D2063757272656E7420636F6D6D616EEF
:10161000643A2000363726033C3D380E2E303E1209
:101620001A1C1808440AFF430809070001486F7490
:10163000656E6420746F6F20636F6C640A003F45B1
:101640004550524F4D2073746F72616765206E6F05
:101650007420617661696C61626C652E0A0070614C
:1016600075736564004D3630303A20546F6F2043F7
:101670006F6C6400726573756D6564005265737597
:101680006D696E67004732362048656174696E6720
:10169000204E6F7A7A6C6500473236204865617457
:1016A000696E67204265640057616974696E6720DE
:1016B000666F72206865617475702E0A00466978DD
:1016C0006564204C656E677468205072696D6500B2
:1016D000446F6E65205072696D696E67004D616E72
:1016E00075616C207072696D696E672E2E2E0047D1
:1016F00032362043616E63656C6564004C656176CB
:10170000696E6720473236003F53706563696669CA
:10171000656420582C5920636F6F7264696E617420
:1017200065206F7574206F6620626F756E64732E0E
:101730000A003F28522965706561742076616C75D6
:1017400065206E6F7420706C61757369626C653BA7
:10175000206D757374206265206174206C656173FF
:101760007420312E0A003F537065636966696564B1
:10177000206E6F7A7A6C652074656D706572617425
:10178000757265206E6F7420706C61757369626C20
:10179000652E0A003F53706563696669656420665B
:1017A000696C616D656E742073697A65206E6F7403
:1017B00020706C61757369626C652E0A003F53700E
:1017C00065636966696564207072696D65206C6522
:1017D0006E677468206E6F7420706C6175736962D7
:1017E0006C652E0A003F5370656369666965642005
:1017F0006E6F7A7A6C652073697A65206E6F7420DB
:10180000706C61757369626C652E0A003F52657475
:1018100072616374696F6E204D756C7469706C6968
:101820006572206D757374206265207370656369DD
:10183000666965642E0A003F537065636966696571
:10184000642052657472616374696F6E204D756CAB
:101850007469706C696572206E6F7420706C61754C
:101860007369626C652E0A003F537065636966692F
:101870006564206C617965722068656967687420A9
:101880006E6F7420706C61757369626C652E0A00EE
:1018900043292E0A003F53706563696669656420B9
:1018A0006265642074656D7065726174757265201F
:1018B0006E6F7420706C61757369626C652028347A
:1018C000302D00473236207374617274696E672E52
:1018D0002E2E0A004F46460A004661646520486580
:1018E000696768742000426564204C6576656C69A0
:1018F0006E6720004661696C656420746F20656EB8
:1019000061626C6520426564204C6576656C696E29
:10191000670A00496E76616C6964206D6573682E94
:101920000A0076616C69640A53746F72616765209E
:10193000736C6F743A20004D6573682069732000E2
:101940003F496E76616C69642073746F726167657C
:1019500020736C6F742E0A00070000080100060057
:101960000801000807000000080006006719621956
:101970005D1958190000803FB76D6742B76DE542A9
:1019800049922B43B76D644392A48E434912AB43F3
:101990000080C74325532025692F2569005D0A0073
:1019A00062656420706C616E65206E6F726D616C33
:1019B000203D205B00436F756C64206E6F74206364
:1019C0006F6D706C657465204C5346210054696CD2
:1019D00074696E67206D65736820706F696E74201E
:1019E000003F4572726F722070726F62696E67207D
:1019F000706F696E742E2041626F7274696E672019
:101A00006F7065726174696F6E2E0A002553203302
:101A10002F330054696C74696E67206D657368209C
:101A200028332F33290A00255320322F33005469DD
:101A30006C74696E67206D6573682028322F3329B6
:101A40000A00436F727265637465645F5A3D0054A7
:101A5000696C74696E6720506F696E74002553203D
:101A6000312F330054696C74696E67206D6573683B
:101A70002028312F33290A00646F6E650A00496EF1
:101A800073756666696369656E7420646174610A62
:101A9000004578747261706F6C6174696E67206D57
:101AA0006573682E2E2E0053544F505045442E20FF
:101AB000005072696E7465722073746F7070656423
:101AC0002064756520746F206572726F72732E20AA
:101AD00046697820746865206572726F7220616E45
:101AE0006420757365204D39393920746F20726513
:101AF00073746172742E202854656D706572617400
:101B00007572652069732072657365742E20536544
:101B100074206974206166746572207265737461E3
:101B20007274696E67290A0021212053544F502096
:101B300063616C6C65642062656361757365206FB9
:101B40006620424C546F756368206572726F722014
:101B50002D20726573746172742077697468204DEA
:101B60003939390A005072696E74696E67204F62A4
:101B70006A656374002553202569002F2F61637403
:101B8000696F6E3A00626567696E0073686F77000F
:101B900044697361626C6552756E6F75740050753F
:101BA0007267654D6F72650053656E64204D31300C
:101BB0003820746F20726573756D650A0052656810
:101BC00065617420446F6E65005265686561746973
:101BD0006E6700526568656174004865617465727E
:101BE00054696D656F75740053656E64204D3130B6
:101BF0003820746F2068656174206E6F7A7A6C6526
:101C00000A004E6F7A7A6C65205061726B656400D1
:101C100052756E6F75742044697374206D6D004C3D
:101C20006F6164206D6D00556E6C6F6164206D6D29
:101C30000046696C2E204469612E004520696E20A3
:101C40006D6DC2B30050726F62652059204F666699
:101C50007365740050726F62652058204F6666731A
:101C60006574004573746570732F6D6D005A7374DD
:101C70006570732F6D6D005973746570732F6D6D82
:101C8000005873746570732F6D6D00496E69740030
:101C90004D34323800496E697469616C697A652027
:101CA000454550524F4D0043616E63656C204F6255
:101CB0006A6563740053746570732F6D6D005072A4
:101CC0006F6265204F666673657473004A65726B58
:101CD00000416363656C65726174696F6E0056657F
:101CE0006C6F636974790053657420486F6D65206B
:101CF0004F666673657473004E65787420506F6923
:101D00006E74004E657874004E4F00594553004381
:101D1000616E63656C204F626A656374203D0043A9
:101D20006D643A2053746F7700436D643A205357C3
:101D30002D4D6F646500436D643A204465706C6F8F
:101D40007900436D643A2053656C662D5465737455
:101D500000436D643A2052657365740046616E20DD
:101D6000537065656400206D61783A2000206D69CC
:101D70006E3A20004361703A004D302053746F700A
:101D8000004D312053746F7000436C69636B207495
:101D90006F20526573756D652E2E2E0050726F6226
:101DA00065204F6666736574205A0050726F6265D5
:101DB000204F66667365745A3A20003F5A206F754B
:101DC00074206F662072616E67652028003F59207D
:101DD0006F7574206F662072616E676520282D0014
:101DE0003F58206F7574206F662072616E676520A2
:101DF000282D0050726F6265204F666673657420EF
:101E00005800656E7175657565696E672022006F93
:101E10006B00526573656E643A2000256979202550
:101E20006964202569682025696D20256973002370
:101E3000646566696E652044454641554C545F00B3
:101E40004B6420004B6920004B7020005049442017
:101E50004175746F74756E652066696E6973686527
:101E600064212050757420746865206C617374203F
:101E70004B702C204B6920616E64204B6420636F93
:101E80006E7374616E74732066726F6D2062656C20
:101E90006F7720696E746F20436F6E666967757225
:101EA0006174696F6E2E680A005049442041757450
:101EB0006F74756E65206661696C65642120746954
:101EC0006D656F75740A000A20436C6173736963F2
:101ED00020504944200A00204B643A2000204B69DE
:101EE0003A2000204B703A20000A204E6F206F7677
:101EF000657273686F6F740A002054753A20002071
:101F00004B753A200020643A200020626961733AE0
:101F10002000504944204175746F74756E652073BC
:101F2000746172740A00504944204175746F74756D
:101F30006E65206661696C6564212054656D70650D
:101F400072617475726520746F6F20686967680AC2
:101F500000504944204175746F74756E6520666148
:101F6000696C6564212042616420657874727564CF
:101F70006572206E756D6265720A004D31303920D0
:101F8000532569004D3139302053256900496E666B
:101F90006F2053637265656E004D657368204564FC
:101FA00069746F72004265642054656D7000486FFB
:101FB00074656E642054656D700047323920503668
:101FC0002043202D0048656967687420416D6F7556
:101FD0006E740041646A757374204D65736820489F
:101FE00065696768740047323920503420540046D0
:101FF000696E652054756E6520436C6F73657374EC
:102000000047323620432042256920482569205068
:102010000056616C696461746520437573746F6DFB
:10202000204D657368004732380A47323620432016
:1020300042313130204832343020500056616C69D2
:1020400064617465204D65736820284142532900FE
:102050004732380A47323620432042373020483151
:10206000383020500056616C6964617465204D659C
:1020700073682028504C412900473239204A25698D
:10208000004C6576656C204D657368005369646526
:1020900020506F696E74730047726964204D6573D8
:1020A00068204C6576656C696E6700473239204A56
:1020B0003000332D506F696E74204C6576656C6905
:1020C0006E6700473239205033205220432E256955
:1020D000004D616E75616C2046696C6C2D696E00F7
:1020E00046696C6C2D696E20416D6F756E74004D84
:1020F00065736820696E76616C6964617465642ECD
:102100000A00473239204900496E76616C69646182
:10211000746520436C6F7365737400496E76616CEF
:10212000696461746520416C6C004732392050311C
:10213000204300436F6E74696E75652042656420AC
:102140004D6573680046696C6C2D696E204D657332
:1021500068004275696C6420437573746F6D204D1F
:10216000657368004732380A4D31393020533131B8
:10217000300A4D31303920533234300A4732392059
:1021800050310A4D3130342053300A4D3134302033
:102190005330004275696C64204D65736820284196
:1021A000425329004732380A4D31393020533730F5
:1021B0000A4D31303920533138300A4732392050F6
:1021C000310A4D3130342053300A4D3134302053F0
:1021D00030004275696C64204D6573682028504C4E
:1021E000412900506C656173652052657365740008
:1021F0005052494E5445522048414C5445440025C4
:10220000533A20255300706F7765726F6666004BF6
:10221000494C4C45442E20005072696E7465722002
:1022200068616C7465642E206B696C6C282920636E
:10223000616C6C6564210A006563686F3A004572E1
:10224000726F723A0020204D343231204900202034
:10225000473239204939390A006163746976650A61
:10226000002053797374656D2076312E3031200053
:102270002020207C0A004E414E0020202E202020CD
:1022800000207C004C43443A0A004353563A0A006B
:1022900020666F7220003A0A0A000A4265642054E0
:1022A0006F706F677261706879205265706F7274B9
:1022B0000050726F62696E67204661696C65640ADE
:1022C0000050726F62696E67204661696C656400D8
:1022D000473239205034205239393920540047329E
:1022E000380A473239205031004D6F74696F6E00E3
:1022F0004D313137204D657368202569204C6F6161
:1023000064656400473239204C2569004D3131370E
:10231000204D657368202569205361766564004708
:10232000323920532569004C6F6164204265642076
:102330004D657368004D656D6F727920536C6F74D5
:10234000004E6F2053746F7261676500486F6D694E
:102350006E672058595A004732392050342058258A
:1023600073205925732052256900202D2D2D2D2DE8
:10237000004732380047323920532D31004F66660E
:10238000205072696E746572204261636B757000D3
:10239000473239205431004F757470757420666F60
:1023A000722043535600473239205430004F757421
:1023B00070757420666F7220486F7374004564698D
:1023C00074204D6573680047323920493939390A1C
:1023D0004732392050322042205430004D616E7512
:1023E000616C6C79204275696C64204D657368007E
:1023F000372E205361766520426564204D657368F1
:1024000000362E2046696E652054756E6520416C3D
:102410006C00352E2056616C6964617465204D65D1
:10242000736800342E2046696E652054756E6520F1
:10243000416C6C00332E2056616C696461746520B8
:102440004D657368004732392050332054300032D4
:102450002E20536D6172742046696C6C2D696E007C
:10246000312E204275696C6420436F6C64204D6589
:102470007368004661646520486569676874004751
:1024800032392057004F75747075742055424C20B6
:10249000496E666F0055424C20546F6F6C73004F4D
:1024A0007574707574204D657368204D6170004DB2
:1024B0006573682053746F72616765004D6573685A
:1024C000204564697400537465702D42792D5374EE
:1024D00065702055424C00473239204100416374F9
:1024E00069766174652055424C00473239204400BA
:1024F000446561637469766174652055424C0020BF
:1025000062797465733B2063726320004E6F2045CF
:102510004550524F4D2E0A00204A0020520045459A
:1025200050524F4D206461746173697A6520657201
:10253000726F722E0A003F4D65736820746F6F20B2
:1025400062696720666F7220454550524F4D2E0AD2
:102550000055424C2072657365740A00206C6F61EF
:102560006465642066726F6D2073746F7261676555
:102570002E0A004D65736820003F43616E2774206A
:10258000656E61626C65200020696E697469616CBA
:10259000697A65642E0A0A002073746F726564207C
:1025A00073657474696E6773207265747269657699
:1025B0006564202800202863616C63756C61746514
:1025C0006429210A0020213D2000454550524F4DED
:1025D00020435243206D69736D61746368202D2020
:1025E0002873746F726564292000496E6465783AB7
:1025F0002000204D61726C696E3D563736290A0005
:10260000454550524F4D2076657273696F6E206D4F
:1026100069736D617463682028454550524F4D3D84
:1026200000454550524F4D20496E697469616C698F
:102630007A65640A004D657368207361766564206D
:10264000696E20736C6F7420003F556E61626C651B
:1026500020746F2073617665206D657368206461F6
:1026600074612E0A0020736C6F743D00206D6573D9
:102670006865735F656E643D004532454E443D00BC
:10268000206D65736820736C6F7473206176616967
:102690006C61626C652E0A003F496E76616C6964FC
:1026A00020736C6F742E0A004D657368206C6F6127
:1026B0006465642066726F6D20736C6F7420003FD8
:1026C000556E61626C6520746F206C6F6164206D63
:1026D00065736820646174612E0A004861726463E6
:1026E0006F6465642044656661756C74205365741D
:1026F00074696E6773204C6F616465640A00556E7F
:10270000696669656420426564204C6576656C691C
:102710006E67003B200020204D3630332000202003
:102720004D34313220530046696C616D656E742002
:1027300072756E6F75742073656E736F723A0020D8
:10274000550046696C616D656E74206C6F61642F15
:10275000756E6C6F6164206C656E677468733A00A7
:1027600020204D393030204B004C696E656172205D
:10277000416476616E63653A0020204D3835312022
:1027800058005A2D50726F6265204F6666736574EB
:102790000020204D343133205300506F7765722D67
:1027A0004C6F7373205265636F766572793A0020BF
:1027B000204D33303420500020204D333031205014
:1027C000005049442073657474696E67733A002041
:1027D000460020480020204D3134352053004D6103
:1027E00074657269616C20686561747570207061D0
:1027F00072616D65746572733A00206D657368650A
:10280000732E0A0A00454550524F4D2063616E20D9
:10281000686F6C642000416374697665204D657350
:102820006820536C6F743A200020204D34323020E1
:10283000530020204D323036205800486F6D6520FF
:102840006F66667365743A0020204D323035204241
:1028500000416476616E6365643A20423C6D696E46
:102860005F7365676D656E745F74696D655F7573C1
:102870003E20533C6D696E5F666565647261746588
:102880003E20543C6D696E5F74726176656C5F6664
:10289000656564726174653E204A3C6A756E635F6B
:1028A0006465763E0020204D323034205000416374
:1028B00063656C65726174696F6E2028756E6974EA
:1028C000732F7332293A20503C7072696E745F61C5
:1028D0006363656C3E20523C726574726163745F21
:1028E000616363656C3E20543C74726176656C5F15
:1028F000616363656C3E0020204D3230312058000A
:102900004D6178696D756D20416363656C657261B9
:1029100074696F6E2028756E6974732F7332293A4B
:102920000020204D3230332058004D6178696D759C
:102930006D206665656472617465732028756E69C3
:1029400074732F73293A0053746570732070657225
:1029500020756E69743A0020204D323030204430AA
:102960000A0020204D323030204400204469736139
:10297000626C65640A0046696C616D656E742073F3
:10298000657474696E67733A0020204D31343920C4
:1029900043203B20556E69747320696E2043656C3B
:1029A000736975730A0020286D6D29002020473255
:1029B00031202020203B20556E69747320696E20E1
:1029C0006D6D00486F6D696E67204661696C656466
:1029D000000000FA430000C84300002041000096B8
:1029E000420000A0420000A0420000C8430000BE18
:1029F00042E8030000EE020000640000004B00000B
:102A000000496E736572742066696C616D656E74E1
:102A100020616E642073656E64204D3130380A0089
:102A200020746F6F206C6F6E672065787472757399
:102A3000696F6E2070726576656E7465640A002039
:102A4000636F6C6420657874727573696F6E207043
:102A5000726576656E7465640A00486F6D65202541
:102A600073257325732046697273740062757474DC
:102A70006F6E00436F6E74696E7565004C6F6164B4
:102A80002046696C616D656E74205400220A005501
:102A90006E6B6E6F776E20636F6D6D616E643A2042
:102AA0002200000000000000000000000000000004
:102AB000CD430000C8430000C84300004842000066
:102AC0004842000080400202040000A0400000A034
:102AD0004000000040FFFFFF000000010000000177
:102AE000000080005555550000004000333333008E
:102AF000AAAA2A004992240000002000C7711C00E5
:102B000099991900D1451700555515003BB113008F
:102B10002449120011111100000010000F0F0F00C6
:102B2000E3380E0043790D00CCCC0C00C3300C0010
:102B3000E8A20B0064210B00AAAA0A00703D0A005B
:102B40009DD80900427B090092240900DCD30800CB
:102B5000888808001042080000000800F0C1070043
:102B60008787070075500700711C07003EEB0600C1
:102B7000A1BC06006990060066660600703E06006D
:102B80006118060017F4050074D105005BB005005C
:102B9000B2900500627205005555050078390500B0
:102BA000B81E0500050505004EEC040087D404009E
:102BB000A1BD040090A7040049920400C17D040057
:102BC000EE690400C7560400444404005C3204006B
:102BD0000821040041100400000004003FF003003D
:102BE000F8E0030026D20300C3C30300CCB5030002
:102BF0003AA803000A9B0300388E0300C08103003B
:102C00009F750300D0690300505E03001D5303004D
:102C100034480300913D03003333030016290300B9
:102C2000381F030097150300300C03000303030053
:102C30000BFA020049F10200BAE802005CE002006F
:102C40002DD802002DD0020059C80200B0C00200E9
:102C500031B90200DAB10200AAAA0200A0A3020060
:102C6000BC9C0200FA9502005C8F0200DF88020023
:102C700082820200457C0200277602002770020053
:102C8000436A02007C640200D05E02003F590200E9
:102C9000C8530200FFFDFCFAF8F6F4F2F0EEECEA9D
:102CA000E9E7E5E3E1E0DEDCDAD9D7D5D4D2D0CF6D
:102CB000CDCBCAC8C7C5C3C2C0BFBDBCBAB9B7B601
:102CC000B4B3B2B0AFADACAAA9A8A6A5A4A2A1A066
:102CD0009E9D9C9A99989795949392908F8E8D8BA8
:102CE0008A8988878684838281807F7E7D7B7A79CA
:102CF0007877767574737271706F6E6D6C6B6A69CC
:102D00006867666564636261605F5E5D5C5B5A59BB
:102D100058585756555453525150504F4E4D4C4B96
:102D20004A4A4948474646454443424241403F3E5D
:102D30003E3D3C3B3B3A3938383736353534333213
:102D4000323130302F2E2E2D2C2B2B2A29292827BB
:102D50002726252524232322212120201F1E1E1D56
:102D60001C1C1B1B1A1919181817161615151413E5
:102D70001312121111100F0F0E0E0D0D0C0C0B0A69
:102D80000A090908080707060605050404030302E3
:102D9000020100005761726E696E673A20486F6DDC
:102DA000696E672042756D702044697669736F7231
:102DB000203C20310A0024F4D43050C38E20C2A21B
:102DC0004017828B7011127A910D816CD90AA8611B
:102DD000E108C7586607615143061E4B5D05C145B2
:102DE000A7041A411104093D980371393103403693
:102DF000DB0265339102D4305402802E1D02632C15
:102E0000EE01752AC501B028A001102781018F2588
:102E100064012B244B01E0223401AC211F018D20E1
:102E20000D01801FFC00841EED00971DDF00B81C03
:102E3000D200E61BC600201BBC00641AB200B21907
:102E4000A8000A19A0006A189900D117910040172C
:102E50008B00B516840031167E00B31579003A1543
:102E60007300C7146F0058146A00EE1366008813CD
:102E7000630025135E00C7125B006C125700151229
:102E80005400C111510070114F0021114B00D61098
:102E900049008D1047004610440002104200C00F48
:102EA0004000800F3E00420F3C00060F3B00CB0E5F
:102EB0003800930E37005C0E3500270E3400F30DFA
:102EC0003200C10D3100900D3000600D2E00320D2A
:102ED0002D00050D2C00D90C2B00AE0C2900850C03
:102EE00029005C0C2700350C27000E0C2600E80B8F
:102EF0002400C40B2400A00B23007D0B23005A0BDD
:102F00002100390B2100180B2000F80A1F00D90AF4
:102F10001E00BB0A1E009D0A1D00800A1D00630AD8
:102F20001C00470A1B002C0A1B00110A1A00F70993
:102F30001A00DD091900C4091900AB09190092092A
:102F400017007B091800630917004C0916003609A1
:102F50001600200916000A091500F5081500E008FA
:102F60001400CC081400B8081400A4081400900839
:102F700013007D0812006B08130058081200460861
:102F80001200340811002308110012081100010872
:102F90001100F0071000E0071000D0071000C00774
:102FA0001000B0070F00A107100091070E00830763
:102FB0000F0074070F0065070E0057070E00490742
:102FC0000E003B070D002E070E0020070D00130713
:102FD0000D0006070D00F9060C00ED060D00E006D9
:102FE0000C00D4060C00C8060C00BC060C00B00691
:102FF0000C00A4060B0099060C008D060B0082063F
:103000000B0077060B006C060B0061060A005706E2
:103010000B004C060A0042060A0038060A002E067B
:103020000A0024060A001A060A001006090007060C
:103030000A00FD050900F4050900EB050900E20599
:103040000900D9050900D0050900C7050900BE051A
:103050000900B5050800AD050800A50509009C0597
:103060000800940508008C050800840508007C050C
:103070000800740508006C050700650508005D057B
:103080000700560508004E050700470507004005E4
:10309000080038050700310507002A050700230549
:1030A00007001C050600160507000F0507000805A8
:1030B000060002050700FB040600F5040700EE0405
:1030C0000600E8040600E2040700DB040600D5045D
:1030D0000600CF040600C9040600C3040600BD04B0
:1030E0000600B7040600B1040500AC040600A604FF
:1030F0000600A00405009B0406009504050090044A
:1031000006008A04050085040500800406007A0490
:10311000050075040500700405006B0405006604D5
:103120000500610405005C04050057040500520415
:1031300005004D04050048040500430405003E0455
:1031400004003A04050035040500300404002C0492
:10315000050027040400230405001E0404001A04CB
:10316000040016040500110404000D040400090401
:1031700005000404040000040400FC030400F80338
:103180000400F4030400F0030400EC030400E8036B
:103190000400E4030400E0030400DC030400D8039B
:1031A0000400D4030400D0030400CC030400C803CB
:1031B0000300C503030024F404D9201BC40C5C0ED7
:1031C0009804C4095F0265077101F405F900FB0466
:1031D000B30048048700C103690058035500030386
:1031E0004500BE023A008402310053022A0029023F
:1031F000250004022000E4011C00C8011900AF01F1
:10320000170098011400840113007101100061017E
:10321000100051010E0043010D0036010B002B017F
:103220000B0020010B00150109000C01090003012E
:103230000800FB000800F3000800EB000700E400B2
:103240000600DE000600D8000600D2000600CC0012
:103250000500C7000500C2000500BD000400B9005C
:103260000400B5000400B1000400AD000400A90092
:103270000400A5000300A20003009F0004009B00BF
:1032800003009800030095000200930003009000E3
:1032900003008D0002008B000300880002008600FE
:1032A000020084000300810002007F0002007D0014
:1032B00002007B0002007900020077000100760026
:1032C00002007400020072000100710002006F0031
:1032D00002006D0001006C0002006A00010069003C
:1032E0000200670001006600010065000100640043
:1032F00002006200010061000100600001005F0047
:1033000002005D0001005C0001005B0001005A004A
:10331000010059000100580001005700010056004B
:10332000010055000100540001005300000053004B
:1033300001005200010051000100500001004F0047
:1033400001004E0000004E0001004D0001004C0045
:1033500001004B0000004B0001004A000100490041
:10336000010048000000480001004700010046003D
:103370000000460001004500000045000100440037
:103380000100430000004300010042000000420031
:1033900001004100000041000100400001003F0029
:1033A00000003F0001003E0000003E0001003D0023
:1033B00000003D0001003C0000003C0000003C001B
:1033C00001003B0000003B0001003A0000003A0011
:1033D0000100390000003900010038000000380009
:1033E00000003800010037000000370001003600FF
:1033F00000003600000036000100350000003500F6
:1034000000003500010034000000340000003400EA
:1034100001003300000033000000330001003200DF
:1034200000003200000032000100310000003100D5
:1034300000003100010030000000300000003000CA
:1034400001002F0000002F0000002F0000002F00BF
:1034500001002E0000002E0000002E0001002D00B3
:1034600000002D0000002D0000002D0001002C00A8
:1034700000002C0000002C0000002C0001002B009C
:1034800000002B0000002B0000002B0001002A0090
:1034900000002A0000002A0000002A000100290084
:1034A0000000290000002900000029000000290078
:1034B000010028000000280000002800000028006B
:1034C000000028000100270000002700000027005E
:1034D0000000270000002700010026000000260051
:1034E0000000260000002600000026000100250044
:1034F0000000250000002500000025000000250038
:103500000000250001002400000024000000240029
:10351000000024000000240001002300000023001C
:10352000000023000000230000002300000023000F
:103530000000230001002200000022000000220001
:1035400000002200000022000000220001002100F3
:1035500000002100000021000000210000002100E7
:1035600000002100000021000100200000002000D8
:1035700000002000000020000000200000002000CB
:10358000000020000000200001001F0000001F00BC
:1035900000001F0000001F0000001F0000001F00AF
:1035A00000001F0001001E0000001E0000001E00A1
:1035B00000001E000000232C0000B8220000561856
:1035C00000003A0F0000B8080000B10400007102CA
:1035D00000003E01000020573A00496E76616C6998
:1035E000642065787472756465720A007C3C3E5E86
:1035F0002B3D3F2F5B5D3B2C2A225C005072696E95
:10360000742066726F6D204D65646961004D6F7640
:10361000652025736D6D004D6F766520302E316D00
:103620006D004D6F766520316D6D004D6F766520B4
:1036300031306D6D004D6F766520417869730048BB
:103640006F74656E6420746F6F20636F6C640045E7
:1036500078747275646572004D6F7665205A004DFE
:103660006F76652059004D6F76652058004368617C
:103670006E67652046696C616D656E7400556E6C91
:103680006F61642046696C616D656E74004C6F619A
:10369000642046696C616D656E7400507265686582
:1036A0006174204142530050726568656174205016
:1036B0004C41005072656865617420437573746F86
:1036C0006D004261636B0000002100240027002A86
:1036D000002D003000330001010000040107010A41
:1036E0000100002200250028002B002E00310034AC
:1036F0000002010000050108010B01000020002369
:1037000000260029002C002F0032000001000003D9
:103710000106010901050505050705080808080255
:103720000202020A0A08080404040401010101015A
:103730000101010303030303030303040707070C49
:103740000C0C0C0C0C0C0C020202020606060606FF
:103750000606060B0B0B0B0B0B0B0B0102102020AC
:1037600008081020401020408002010201080402D5
:10377000010102040810204080804020100804024B
:1037800001800402018040201008040201080402A4
:1037900001010204081020408001020408102040AA
:1037A0008000000A0B02090C0D0E0807030401003B
:1037B0000000000000000000000000000000000009
:1037C00000000000000000000000000000121110C6
:1037D00000000000000000000000000000000000E9
:1037E000000000000000002568753A253032687539
:1037F00000256875642025303268753A25303268B6
:10380000750020202020202020004D656469612063
:1038100052656D6F766564004D6564696120496E1F
:10382000736572746564001FE02010201020101072
:103830002010202010201030300840048003001F8A
:10384000E03FF03FF03FF01FE01FE03FF03FF03F70
:10385000F00FC0078003003FFFF038007030FC30ED
:1038600020FC102078102030102C00D02E31D02FCA
:103870007BD02F7BD02E31D02C00D0203010207860
:103880001020FC1030FC303800703FFFF03FFFF09C
:103890003800703186302387102787902F87D02FEC
:1038A00003D02030102078102078102030102F0303
:1038B000D02F87D02787902387103186303800702B
:1038C0003FFFF01FFFF81FFFF8041040020820021E
:1038D00008200410400820801041001041000820FA
:1038E000800410400000001FFFF81FFFF8FFFFFFDB
:1038F0008000018E00E19F01F19381399F81F99F42
:1039000081F99FB9F98F28F18038018000019FFF6C
:10391000F99174999B06A99B54A99B56A99B54990C
:103920009FFFF9FFFFFF4572723A207574663820D9
:10393000666F6E74206E6F7420696E697469616C55
:10394000697A65642E00000C0D00FE07022603BC98
:10395000017FFE08FE08FE05080806000040F0C8CA
:103960008888987810050808060000C0F8888888BC
:103970008888F80505050600012030F83020050884
:10398000080600002070F820202020E00509090624
:1039900000FF2070A8A8B8888870200506060600D9
:1039A00001E08CEA8C8A0A0509090600FFF8A8885C
:1039B00088888888A8F8050A0A0600FE205050501A
:1039C0005088A8A8887003030306000340A040FFA6
:1039D000FFFFFFFFFFFFFFFFFFFFFFFFFFFFFFFFF7
:1039E000FFFFFFFFFF0000000605FF0107070602BB
:1039F0000080808080800080030303060105A0A072
:103A0000A005060606000050F85050F850050909B8
:103A10000600FF2070A8A07028A8702005070706E0
:103A20000000C8C81020409898050707060000400D
:103A3000A0A040A8906801030306020580808003CF
:103A400009090601FF204040808080404020030992
:103A5000090601FF804040202020404080050707E4
:103A600006000020A8702070A820050505060001AA
:103A70002020F820200203030601FFC0408005013A
:103A800001060003F8020202060100C0C005070794
:103A900006000008101020404080050707060000BF
:103AA000708898A8C8887003070706010040C040C6
:103AB000404040E0050707060000708808102040DD
:103AC000F8050707060000F8081030088870050799
:103AD0000706000010305090F81010050707060088
:103AE00000F880F0080888700507070600003040DD
:103AF00080F0888870050707060000F8081010207D
:103B000020200507070600007088887088887005E7
:103B1000070706000070888878081060020505060F
:103B20000100C0C000C0C00206060601FFC0C00000
:103B3000C0408003050506010120408040200503A8
:103B400003060002F800F803050506010180402085
:103B5000408005070706000070881020200020051F
:103B600007070600007088B8A8B880700507070628
:103B70000000708888F8888888050707060000F02C
:103B80004848704848F005070706000070888080A4
:103B9000808870050707060000F04848484848F04C
:103BA000050707060000F88080F08080F805070709
:103BB000060000F88080F08080800507070600007E
:103BC00070888080988870050707060000888888BC
:103BD000F8888888030707060100E040404040401D
:103BE000E005070706000038101010109060050768
:103BF000070600008890A0C0A0908805070706006F
:103C000000808080808080F805070706000088D843
:103C1000A8888888880507070600008888C8A898AB
:103C200088880507070600007088888888887005DE
:103C30000707060000F08888F080808005070706E7
:103C4000000070888888A89068050707060000F0C3
:103C50008888F0A0908805070706000070888070AB
:103C6000088870050707060000F820202020202083
:103C70000507070600008888888888887005070778
:103C80000600008888888850502005070706000035
:103C900088888888A8A850050707060000888850EB
:103CA00020508888050707060000888850202020BB
:103CB00020050707060000F80810204080F80309D7
:103CC000090601FFE080808080808080E005070792
:103CD000060000804040201010080309090601FF7B
:103CE000E020202020202020E005030306000520FE
:103CF00050880501010600FEF80303030601058054
:103D0000402005050506000070087888780507073B
:103D10000600008080F0888888F005050506000010
:103D2000708080887005070706000008087888887A
:103D300088780505050600007088F0807005070783
:103D4000060000304840E04040400507070600FEFE
:103D5000708888887808700507070600008080F062
:103D6000888888880307070601004000C04040405B
:103D7000E00409090601FE100030101010109060D8
:103D800005070706000080808890E09088030707F9
:103D9000060100C04040404040E005050506000027
:103DA000D0A8A8A8A8050505060000B0C88888887E
:103DB000050505060000708888887005070706005D
:103DC000FEF0888888F080800507070600FE788866
:103DD0008888780808050505060000B0C88080803E
:103DE00005050506000078807008F0050707060045
:103DF000002020F8202020180505050600008888EE
:103E00008898680505050600008888885020050503
:103E1000050600008888A8A850050505060000884A
:103E2000502050880507070600FE888888502040EB
:103E300080050505060000F8102040F80309090672
:103E400001FF204040408040404020010909060217
:103E5000FF8080808080808080800309090601FFC8
:103E60008040404020404040800503030600024857
:103E7000A890FF00FE0003FF8007C7C00701E00015
:103E800000E00000F00000700400700E00701F00E1
:103E9000703F80F00E00E00F01E007C7C003FF8015
:103EA00000FE0000FE0003FF8007C7C00F01E00E08
:103EB00000E03F80F01F00700E00700400700000F2
:103EC000700000F00000E00701E007C7C003FF80BA
:103ED00000FE000E000E000E000E000E000E000E82
:103EE000000E007FC03F801F000E00040004000E83
:103EF000001F003F807FC00E000E000E000E000E5F
:103F0000000E000E000E00FFFFFF7F80FFC0FFC00D
:103F1000FFC07F807F80FFC0FFC0FFC03F001E004A
:103F20000C004D3330332055312045256920532571
:103F30006900504944204175746F74756E65202A7C
:103F4000005049442D44202A005049442D49202A3C
:103F5000005049442D50202A0020082046616374F7
:103F6000002008204D6178002008204D696E004136
:103F700075746F74656D70005654726176204D696A
:103F80006E00566D696E00566D6178204500566D65
:103F90006178205A00566D6178205900566D61781D
:103FA000205800416D6178204500416D6178205AAC
:103FB00000416D6178205900416D617820580041C1
:103FC0002D54726176656C00412D52657472616387
:103FD0007400416363656C004A756E6374696F6E4B
:103FE0002044657600416476616E636564205365A4
:103FF0007474696E677300554E4C4F4144204649B6
:104000004C414D454E540046494C414D454E54207F
:104010004348414E4745004C6F61642053657474BA
:10402000696E677300526573746F726520446566CC
:1040300061756C74730053746F726520536574748A
:10404000696E677300507265686561742041425300
:1040500020436F6E66005072656865617420504C35
:104060004120436F6E660052756E6F757420536504
:104070006E736F7200424C546F756368004D313936
:10408000305337350A4732380A47323950310A47F8
:10409000323950330A47323953310A4732395330B3
:1040A0000A47323946302E300A473239410A4D31FB
:1040B0003034533231350A4732380A4D31303953B2
:1040C0003231350A4731583135305931353046357E
:1040D0003030300A47315A300A4D3530300A4D34CD
:1040E00030300A4D31313720536574205A204F66E5
:1040F00066736574004D313036533132380A4D33B2
:1041000030334338533231354530550A4D35303030
:104110000A4D313137205049442054756E65204492
:104120006F6E65004D3139305337350A4D313034BB
:10413000533231350A4732380A4732394C310A474F
:104140003120583130305931303046353030300A36
:1041500047315A30004D3530300A4D313137205318
:10416000657474696E67732053746F726564005070
:1041700072657020666F72205A2041646A7573748C
:10418000005049442054756E650053657475700085
:104190004D37303220542564004D363030204230C7
:1041A00020542564004D373032203B2564004D37C4
:1041B000303120542564004D373032004D373031D6
:1041C000004D363030204230005075726765206DEA
:1041D0006F726500524553554D45204F5054494F1D
:1041E0004E533A005052494E542050415553454485
:1041F0000020204E6F7A7A6C653A20006F70656EF1
:10420000005452494747455245440066696C616D08
:10421000656E74007A5F6D696E00795F6D696E001E
:10422000785F6D696E005265706F7274696E672099
:10423000656E6473746F70207374617475730A00B3
:1042400020436F756E7420583A00FD5555555555ED
:104250005FFFFFFFFFFFFFFFFFFFFE00000000000A
:104260003FFFFFFFFFFFFFFFFFFFFD000007FFFF16
:10427000FFFFFFFFFFFFFFFFFFFFFE07C0055555D4
:104280005555555FFFFFFFFFFFFFFC0A20060000AA
:104290000000003FFFFFFFFFFFFFFE1410050000BE
:1042A00007FFFFFFFFFFFFFFFFFFFC28080607C017
:1042B0000555555555555FFFFFFFFE5404040A2070
:1042C0000600000000003FFFFFFFFC600406141022
:1042D00005000007FFFFFFFFFFFFFE500404280852
:1042E0000607C00555555555555FFC600406540436
:1042F000040A200600000000003FFE54041C600475
:104300000614100500000000001FFC28082E5004B1
:104310000428080607C00001F03FFE141054600492
:10432000065404040A200002081FFC0A20665404F4
:104330001C60040614100005043FFE07C054280842
:104340002E5004042808000A021FFC00002E14103E
:104350005460040654040015013FFE00001C0A20AE
:104360006654041C60040018011FFC00000607C00E
:104370005428082E50040014013FFE0000040000E1
:104380002E14105460040018011FFCFFFFFE0000F3
:104390001C0A206654041C15013FFED5555400002C
:1043A0000607C05428082A0A021FFC841046000091
:1043B0000400002E14105105043FFEC41044FFFFFA
:1043C000FE00001C0A206102881FFC841046D5559F
:1043D0005400000607C05101F03FFE8410448410D1
:1043E0004600000400002A00001FFCC41046C41050
:1043F00044FFFFFE00001C00003FFE8410448410B8
:1044000046D5555400000000001FFCD555568410B9
:104410004484104600000000003FFCFFFFFCC41075
:1044200046C41044FFFFFFFFFF9FFE0000068410FC
:1044300044841046D555555555BFFD555554D55551
:104440005684104484104104109FFFFFFFFCFFFFBF
:10445000FCC41046C410410411BFFFFFFFFE000062
:104460000684104484104104109FFFFFFFFD555542
:1044700054D5555684104104109FFFFFFFFFFFFFE6
:10448000FCFFFFFCC410410411BFFFFFFFFFFFFF53
:10449000FE00000684104104109FFFFFFFFFFFFF96
:1044A000FD555554D555555555BFFFFFFFFFFFFF2F
:1044B000FFFFFFFCFFFFFFFFFF9FFFFFFFFFFFFF6F
:1044C000FFFFFFFE00000000003FFFFFFFFFFFFFB8
:1044D000FFFFFFFD55555555555FFFFFFFFFFFFFE0
:1044E000FFFFFFFFFFFFFFFFFFFFFFFFFFFFFFFFDC
:1044F000FFFFFFFFFFFFFFFFFFFFFFFFFFFFFFFFCC
:10450000FFFFFFFFFFFFFFFFFFFFFFFFFFFFFFFFBB
:10451000FFFFFFFFFFFFFFFFFFFFE02EFB7DFBFB29
:10452000CFC1DFBB3EC0E1FE3C1FFDEE7B39F9F39E
:10453000CF9EDFBB3EDFDEFCDDE7FDEE3BBBF9EBF4
:10454000D7BF5FBB5EDFDEFDEDF7FDEEBBD3FAEB61
:10455000B73FDFBB4EDFDFFFCDF3FDEEDBC7FAEB8E
:10456000BB7FC03B6EC0E3FF1DF3FDEECBEFFADB7C
:10457000BB7FDFBB66DFF8FFCDF3FDEEEBEFFB5B50
:10458000033F5FBB76DFFE7FEDF3FDEEF3EFFB5BFA
:1045900079BEDFBB7ADFDE7DEDF7FDEEF3EFFBBA30
:1045A000FD9EDFBB7CDFDEFDCDE7FDEEFBEFFBBA62
:1045B000FDC1DFBB7EC0E0FE1C1F1FFFFFFFFFFF32
:1045C000FF600000000001FF400000000000FF80CD
:1045D00000000000007F83CF00000C303F87FF8089
:1045E000000C301F867980000C000F8C30C7838C44
:1045F00030E78C30CFC7CC31F38C30DCECEC33B906
:104600008C30D86C6C33198C30D06C0C33198C30E6
:10461000D86C0C33198C30DC6C0E3B198C30CF7C91
:10462000079F198C30C77C038F19400000000000E1
:1046300002600000000000061FFFFFFFFFFFF86898
:104640007474703A2F2F6D61726C696E66772E6F7D
:10465000726700322E302E345F445736004D3130B1
:10466000303020530070726F6D70745F00656E643F
:10467000002020506C616E6E6572427566666572D0
:1046800042797465733A20002046726565204D6555
:104690006D6F72793A2000436F6D70696C65643A92
:1046A000204D617220203820323032300A00204CF8
:1046B00061737420557064617465643A20323032DD
:1046C000302D30322D3238207C20417574686F7265
:1046D0003A2054696E794D616368696E657333443D
:1046E0000A00322E302E345F4457360A004D617274
:1046F0006C696E0020536F66747761726520526535
:104700007365740A00205761746368646F67205290
:10471000657365740A002042726F776E206F75743E
:104720002052657365740A002045787465726E6165
:104730006C2052657365740A00506F77657255700E
:104740000A006175746F25632E6700473238585927
:1047500000446F6E65207072696E74696E672066C2
:10476000696C650A004D3331004D30513153313899
:104770003030006572726F722077726974696E678B
:1047800020746F2066696C650A00446F6E65207343
:104790006176696E672066696C652E0A004D323954
:1047A00000255320256320256320256320256300F1
:1047B000205A3A0020593A00656E6473746F707322
:1047C000206869743A20005072696E7420506175D7
:1047D000736564005061757365205072696E740072
:1047E0006E6F74696669636174696F6E200034303E
:1047F000302053755065522052656164792E005007
:1048000072696E74696E672E2E2E0063616E636529
:104810006C005072696E742041626F72746564003E
:104820004469736D6973730055492041626F7274F6
:104830006564004D323520500A4D323400526573A4
:10484000756D65005549205061757365007265731B
:10485000756D650053657474696E67732053746F6A
:1048600072656420280054656D706572617475729C
:10487000650050726F6265205A204F6666736574DA
:1048800000416476616E6365204B004D61696E0086
:104890005072656865617420504C4120456E64001B
:1048A0005072656865617420504C41204265640017
:1048B000507265686561742041425320426564000E
:1048C000507265686561742041425320456E6400F2
:1048D000436F6F6C646F776E0046616E2053706536
:1048E0006564207E00466C6F77004F757461676564
:1048F000205265636F7665727900436F6E666967F3
:1049000075726174696F6E00256C642E25696D0087
:10491000457874727564656420546F74616C004CE2
:104920006F6E67657374204A6F622054696D65000D
:104930003E2000546F74616C205072696E74207454
:10494000696D6500436F6D706C65746564005072CD
:10495000696E7420436F756E7400313530004245C6
:10496000443A312520626574612033393530005274
:10497000756E617761792057617463683A204F4E94
:10498000004D61782054656D7000343530004D69FC
:104990006E2054656D7000350045313A2041544316
:1049A0002031303447542D32005053550047656E46
:1049B000657269630050726F746F636F6C00312EA3
:1049C000300042617564003235303030300043725F
:1049D00065616C69747933442052414D50530045F0
:1049E00078747275646572730074696E796D616351
:1049F00068696E657333642E636F6D0034303020E8
:104A0000537550655200323032302D30322D3238ED
:104A1000005072696E74657220537461747300542F
:104A20006865726D6973746F727300426F6172644E
:104A300020496E666F005072696E74657220496E0F
:104A4000666F004D313030300053746F70205072FB
:104A5000696E7400526573756D65205072696E746D
:104A6000004D3231004368616E6765204D656469B1
:104A7000610041626F7574205072696E74657200D6
:104A80004C6576656C696E6720546F6F6C73004E71
:104A90006F204D65646961005061726B696E672EAD
:104AA0002E2E0000005761697420666F72006669DF
:104AB0006C616D656E74206368616E676500746F0C
:104AC000207374617274005761697420666F72009C
:104AD00066696C616D656E7420756E6C6F616400E3
:104AE000004E6F7A7A6C652068656174696E670044
:104AF000506C6561736520776169742E2E2E0000FD
:104B0000507265737320627574746F6E00746F20D9
:104B100068656174206E6F7A7A6C650000496E7307
:104B20006572742066696C616D656E7400616E6497
:104B300020707265737320627574746F6E00746F89
:104B400020636F6E74696E756500576169742066C5
:104B50006F720066696C616D656E74206C6F616464
:104B60000000507265737320427574746F6E007428
:104B70006F20726573756D65207072696E740000C8
:104B80005761697420666F72207072696E74007468
:104B90006F20726573756D652E2E2E00005761694A
:104BA0007420666F720066696C616D656E7420704A
:104BB0007572676500002053697A653A2000436189
:104BC0006E6E6F74206F70656E20737562646972AB
:104BD000200053442063617264206F6B0A006F7081
:104BE000656E526F6F74206661696C65640A007649
:104BF0006F6C756D652E696E6974206661696C6590
:104C0000640A00534420696E6974206661696C0A05
:104C1000004D32332025730046696C652073656C46
:104C200065637465640A0046696C65206F70656E23
:104C300065643A2000454E4420535542524F555426
:104C4000494E450A002220706F7300222070617265
:104C5000656E743A2200535542524F5554494E45A1
:104C60002043414C4C207461726765743A22007491
:104C70007279696E6720746F2063616C6C20737544
:104C8000622D67636F64652066696C657320776960
:104C9000746820746F6F206D616E79206C65766525
:104CA0006C732E204D4158206C6576656C206973BD
:104CB0003A310A0044656C6574696F6E20666169FB
:104CC0006C65642C2046696C653A200046696C6509
:104CD0002064656C657465643A00534420707269A1
:104CE0006E74696E67206279746520004E6F74205F
:104CF0005344207072696E74696E670A0057726956
:104D000074696E6720746F2066696C653A2000666E
:104D10007265736800646F696E67004E6F7720007C
:104D20003F0043616E63656C004F6666004F6E0026
:104D30005374617274205072696E740043616E6EB8
:104D40006F7420656E746572207375626469723A5F
:104D50002000022E2E00536F667420456E6473741B
:104D60006F7073004D38340044697361626C652064
:104D70005374657070657273004732380A4D343869
:104D800020503130004D34382050726F626520540D
:104D9000657374004C6576656C20436F726E657246
:104DA0007300473238205A00486F6D65205A00471B
:104DB0003238205900486F6D65205900473238203D
:104DC0005800486F6D652058004175746F20486F1A
:104DD0006D6500453100626564002C207379737441
:104DE000656D2073746F707065642120486561740F
:104DF00065725F49443A200048656174696E6720B6
:104E00004661696C65640048656174696E67206617
:104E100061696C6564004D3131322053687574648A
:104E20006F776E00202D20496E76616C6964206575
:104E300078747275646572206E756D62657220217A
:104E40000A00544845524D414C2052554E4157415D
:104E50005900546865726D616C2052756E6177619E
:104E600079004572723A204D415854454D50004DDD
:104E7000415854454D502074726967676572656486
:104E8000004572723A204D494E54454D50004D49EF
:104E90004E54454D502074726967676572656400B1
:104EA0004D383420582059205A204500202F00200A
:104EB00042403A0020403A001000C90210012C0183
:104EC0004001220170011801B0010E01F00104013E
:104ED0005002FA00B002F0003003E600D003DC001C
:104EE0009004D2007005C800A006BE000008B400FF
:104EF000B009AA00D00BA000600E960060118C00D3
:104F00000015820020197800C01D6E00A0226400E8
:104F1000B0275A00902C500000314600E0343C008D
:104F200010383200903A2800603C1E00A03D14006A
:104F3000803E0A00203F00001000AA03F0013A0161
:104F40009002220130031001D00302017004F70027
:104F50001005ED00B005E5005006DD00F006D700B5
:104F60009007D1003008CC00D008C7007009C300FA
:104F7000100ABE00B00ABB00500BB700F00BB30024
:104F8000900CB000D00DAA00100FA5005010A0008A
:104F900090119B00D0129600B014900090168B00D8
:104FA00070188500501A8000301C7B00B01E750000
:104FB00030216F00B02369003026640010285F00A4
:104FC000902A5A00702C5500F02E4F007031480086
:104FD000B0324500F03341007036390010373700E9
:104FE0005038330090392D00D03A2700B03C1C00D7
:104FF000503D1700F03D1100903E0900D03FE5FF05
:105000006F70656E206661696C65642C2046696C02
:10501000653A2000446966663A200046726F6D5317
:1050200074703A00537465707065723A00556E4C36
:105030006576656C3A004C6576656C65643A00523D
:1050400061773A20202020000A4C6F676963616C09
:105050003A00436F756E7420453A0000DB01D101C0
:1050600011241FBECFEFD1E2DEBFCDBF00E00CBFE9
:1050700013E0A0E0B2E0E4E7FBE703E00BBF02C00F
:1050800007900D92A437B107D9F729E1A4E7B3E05F
:1050900001C01D92AF3DB207E1F718E2CFE2D8E2BE
:1050A00000E006C021970109802FFE010F94B8B8D7
:1050B000CE32D10780E00807A9F70F94D6A40D944B
:1050C000A8BD0C9400002F923F924F925F926F9276
:1050D0007F928F929F92AF92BF92CF92DF92EF9288
:1050E000FF920F931F93CF93DF93CDB7DEB7E49773
:1050F0000FB6F894DEBF0FBECDBF8BAB2091C405B9
:1051000028AB11E01093C40580917B058D3409F420
:1051100088C3843511F40C94673A873411F00C94E9
:105120006E3A8091790590917A058B31910509F459
:105130001AC1B4F48430910534F482309105DCF561
:1051400097FF2DC06AC38531910511F40C94703A14
:105150008A31910509F403C1049709F05EC3C0C008
:105160008A32910509F4A7C254F48D31910509F4EE
:1051700024C10CF412C14E9709F423C14EC38B35E0
:10518000910509F4E2C18C35910509F4E3C18A3532
:10519000910509F042C3109283030C94703A8091F8
:1051A0007A02882311F40C94703A0E94275E0F94BF
:1051B0001A590C94703A20917A02222311F40C941B
:1051C000703A11E0029709F010E00E94275E198200
:1051D0001A821B821C821D821E821F82188682E513
:1051E0000E94F8CB882309F44BC00E9476CB6B0158
:1051F0007C0120E030E0A9010F94BDB1882309F4BF
:1052000055C08091CC059091CD05A091CE05B0916F
:10521000CF058CA39DA3AEA3BFA38091D005909191
:10522000D105A091D205B091D3058CA79DA7AEA7BB
:10523000BFA78090710E9090720EA090730EB090E8
:10524000740E4090750E5090760E6090770E7090B0
:10525000780EA50194016CA17DA18EA19FA10F9450
:10526000BDB181110C94793AA30192016CA57DA581
:105270008EA59FA50F94BDB18823C1F00C94793AF7
:1052800089E40E94F8CB882331F00E9476CB6983B1
:105290007A838B839C838AE40E94F8CB882331F045
:1052A0000E9476CB6D837E838F83988720E030E0E9
:1052B000A90169817A818B819C810F94BDB1811193
:1052C0000C942D3B20E030E0A9016D817E818F811F
:1052D00098850F94BDB181110C942D3B0C94403BEB
:1052E00080E50E94F8CB882329F00E94BE5C6B0108
:1052F0007C0103C0C12CD12C760183E50E94F8CB40
:10530000882361F00E9476CB20E030E04AE754E445
:105310000F9423B20F9434BA6B017C010F94F10700
:1053200080916312811105C060E082E198E00F94E2
:10533000EA6F0F94032FC60ED71EE81EF91E0F94B6
:10534000032FDC01CB018C199D09AE09BF09B7FD04
:1053500002C00C94703A80E00E94B66BF0CF0E94BD
:10536000E77A0C94703A0F94E00081110C94703A33
:105370008CE0E4E9F2E0DE01119601900D928A954D
:10538000E1F760E070E080E50E94AC5ABE016F5F1B
:105390007F4F0F94B26C0C94703A80914B0D8770D4
:1053A000873011F00C94473B60E08FE40E948C76CC
:1053B00081110C94703A0C94473B0E94D1500C948C
:1053C000703A2091670D3091680D4091690D5091B0
:1053D0006A0D6091CC057091CD058091CE059091BC
:1053E000CF050F94C1B8AB01BC0188E50E9458AF4E
:1053F00069837A838B839C8320916B0D30916C0D34
:1054000040916D0D50916E0D6091D0057091D10558
:105410008091D2059091D3050F94C1B8AB01BC0126
:1054200089E50E9458AF6D837E838F839887BE0184
:105430006B5F7F4FCE0101960E949FCC882311F4B1
:105440000C94703A80E00E94CACF0F94905561E0AE
:1054500085E40E948C76182F01E021E041E0682F5E
:10546000CE0101960E9476D46B017C019B01AC01B8
:105470000F940EBC81115FC089809A80AB80BC8084
:1054800020E030E0A901C501B4010F94BDB187FF50
:1054900005C027E137EB41E558EB04C027E137EBC6
:1054A00041E558E3C501B4010F94C1B8AB01BC019B
:1054B00085E698E00E9441D48D809E80AF80B884BC
:1054C00020E030E0A901C501B4010F94BDB187FF10
:1054D00005C027E137EB41E558EB04C027E137EB86
:1054E00041E558E3C501B4010F94C1B8AB01BC015B
:1054F00080E698E00E9441D420E030E0A901C70195
:10550000B6010F94BDB187FF05C027E137EB41E538
:1055100058EB04C027E137EB41E558E3C701B6017A
:105520000F94C1B8AB01BC018BE598E00E9441D457
:105530008AE00E94736A0F947755113011F40F942A
:1055400012060F949D570C94703A8FE0809383035A
:105550000C94703A80917805882349F1893009F0DC
:10556000A6C04EEBA42E42E0B42E5CECE52E55E036
:10557000F52ED12C00E010E0D5018D915D010E9447
:10558000F8CB882369F00E9476CBF70160837183A2
:1055900082839383133011F401E002C0DD24D3949D
:1055A0001F5FF4E0EF0EF11C143031F775C09EEB75
:1055B000292E92E0392E2FE3E22E2DE0F22E2CEC54
:1055C00035E03DA32CA333E3C32E3DE0D32E00E012
:1055D00010E0D1018D911D010E94F8CB882309F4C0
:1055E0004BC00E9476CB2B013C01133049F0F601F1
:1055F00020813181428153810F94C0B82B013C013D
:10560000ACA1BDA12D913D914D915C91C301B20121
:105610000F94C0B84B015C012DEB37E346E855EB26
:105620000F9421BB87FD0AC02DEB37E346E855E315
:10563000C501B4010F94BDB11816F4F4133051F440
:105640004092D8055092D9056092DA057092DB0538
:1056500001E012C0A5019401F7016081718182818E
:1056600093810F94C1B8D7016D937D938D939C93D3
:105670001397812F0F94930D1F5FB4E0EB0EF11C75
:10568000ECA1FDA13496FDA3ECA3F4E0CF0ED11C58
:10569000143009F09ECF05C0DD2019F00F949B5700
:1056A00006C0002321F088ED95E00F949B0B0F942A
:1056B0009D570C94703A80917A02882311F40C94CF
:1056C000703A89E40E94F8CB082F882321F00E94C9
:1056D00072CBE82E01C0E12C8AE40E94F8CB182F8F
:1056E000882321F00E9472CBF82E01C0F12C0023F8
:1056F00019F027E02E1528F0112349F037E03F1567
:1057000030F48DE698E00E94E0D10C94703A80E18C
:10571000ECECF5E0A1E7BEE001900D928A95E1F78F
:10572000002359F08E2D0E9485CD6093710E7093E9
:10573000720E8093730E9093740E112359F08F2D77
:105740000E9485CD6093750E7093760E8093770ED0
:105750009093780E60E080E50E948C768823C1F1FA
:105760000023D1F02091670D3091680D4091690DB3
:1057700050916A0D6091710E7091720E8091730E4E
:105780009091740E0F94C0B86093710E7093720E66
:105790008093730E9093740E1123D1F020916B0DB2
:1057A00030916C0D40916D0D50916E0D6091750EA4
:1057B0007091760E8091770E9091780E0F94C0B80C
:1057C0006093750E7093760E8093770E9093780E9B
:1057D00040E050E0BA0186E40E9458AF6B017C01C2
:1057E00020E030E0A9010F9421BB18164CF420E012
:1057F00030E040E752E4C701B6010F94BBB903C0E3
:1058000060E070E0CB0169837A838B839C83CE0157
:1058100001960F94EB610C94703A0E94D8FF0C949F
:10582000703A8091790590917A058937910511F444
:105830000C9412340CF03CC18D34910509F446C42B
:105840000CF09CC08B31910509F42FC30CF056C0AD
:105850008531910509F488C2B4F58131910509F4C7
:105860006FC244F4029710F00C94643A0E9457BF40
:105870000C94703A8231910509F469C6449711F08D
:105880000C94643A84EA98E00E94E0D183E397E1C3
:105890000F94751D8BE1E3E3F7E1DE0111960190B2
:1058A0000D928A95E1F760E070E0CE0101960F94C9
:1058B000CE86CE0101960E94877785E998E00E9406
:1058C000E0D10C94703A8831910509F46CC26CF403
:1058D0008631910509F44CC2479711F00C94643A53
:1058E000E0918A05F0918B0550C28931910509F448
:1058F000C3C24A9709F4CBC20C94643A8132910531
:1059000009F47BC3ECF48E31910509F43DC37CF4BA
:105910008C31910509F430C34D9711F00C94643A21
:10592000809116178E7F809316170C94703A8F31E2
:10593000910509F466C3809709F436C30C94643A60
:105940008934910509F4ABC364F48A32910509F4F2
:1059500078C3C09711F00C94643A0E9462620C9470
:10596000703A8B34910509F4ADC38C34910511F074
:105970000C94643A0F9473690C94703A8C369105C8
:1059800011F40C94703A0CF053C08535910509F46C
:10599000E1C5ACF58235910509F4CBC534F58E34FB
:1059A000910509F497C38135910511F00C94643A7F
:1059B0000F94AA910F94B6060F9402080E94EC6708
:1059C0001092CB051092CA051092C90568EE73E0DB
:1059D00080E090E00E943AD10E94286860E086E76B
:1059E00099E00F94EA6F0C94703A8335910509F4AD
:1059F000A7C58435910509F4AAC50C94643A893683
:105A0000910509F475C454F48C35910509F4C5C5A4
:105A10008836910509F4F1C30C94643A8A369105ED
:105A200009F47AC48B36910509F49AC40C94643A4B
:105A30008237910509F43BC6D4F48F36910509F4F9
:105A4000B1C454F48D36910509F4FCC38E3691052A
:105A500009F495C40C94643A8037910511F40C94C0
:105A6000703A8137910509F4E2C40C94643A8637A0
:105A7000910509F49AC654F48337910509F41AC6BE
:105A80008537910509F47FC60C94643A87379105F0
:105A900009F4C5C68837910511F00C94643A81E089
:105AA00080931110809310100F940B590C94703A3E
:105AB0008139A1E09A0711F40C94B8370CF08EC02C
:105AC000833D910509F4BCC70CF040C0883C9105AA
:105AD00009F40AC7CCF48139910509F4AAC654F433
