:100000000C9453220C9484220C9484220C94842209
:100010000C9484220C9484220C9484220C948422C8
:100020000C9484220C9484220C9484220C948422B8
:100030000C9484220C9484220C9484220C948422A8
:100040000C9484220D94FE1D0C9484220C94842222
:100050000C9484220C9484220C9474720C94E07C92
:100060000C9484220C9413430C9409430C94842222
:100070000C9484220C9484220C9484220C94842268
:100080000C94593B0C9484220C9484220C9484226A
:100090000C9484220C9484220C9484220C94842248
:1000A0000C9484220C9484220C942B3B0C94842278
:1000B0000C9484220C9484220C9484220C94FD3A97
:1000C0000C9484220C9484220C9484220C94842218
:1000D0000C9484220C9484220C9484220C94842208
:1000E0000C94842249434F43614371437943A943AC
:1000F0007D43A94381438543A94389438D4391436C
:100100009A43A943A54343019101A3013301A301EC
:10011000A301A301A301A301A301A301A301A301BF
:10012000A301A301A301A301A301A301A301A301AF
:10013000A301A301A301A301A301A301A301A3019F
:10014000A301ED01A301A301A301A301A301A30145
:10015000A301A3018F01A301A301A301A301A30193
:10016000A301A301A301A301A3013901A901F50181
:100170009F015902090289029D01AF019702F10115
:100180008D02790163010D01AF02550185019D02C8
:10019000C501C901470283016902E9018502A7017E
:1001A0001101C501F7013B029F027D0245022301B7
:1001B00041021701D5014D021B0113013902AB02A7
:1001C0003D012D023701D501790293010B02084A46
:1001D000D73B3BCE016E84BCBFFDC12F3D6C74315B
:1001E0009ABD56833DDA3D00C77F11BED9E4BB4CB2
:1001F0003E916BAAAABE000000803F05A84CCDB27C
:10020000D44EB93836A9020C50B9918688083CA65C
:10021000AAAA2ABE000000803F000D94AE450C94AF
:100220002C610D94D5450D94AE480C944DA90D94B8
:1002300094480C943BA80D94A6480C94EAA60C9400
:10024000315E0C94D1A90D9480480C94029F0D94BA
:10025000F9320C94B3AE0D94F1320C94D2A60C94F6
:100260007E600C943C9D0D9474270C94DBA60D9439
:10027000E5480D948B270D94601D0D94CC480C948B
:1002800079AE0C948D430D9438270C947D430C94D7
:1002900085AE0C946C960C946DAE0C9481430C94CA
:1002A000A9430C94818B0C94FD8A0D94A0450C9469
:1002B00071430C9455AE0D945C0D0C94DF8C0C9432
:1002C000A6A60D941B350D94A6340C9435A60C945B
:1002D000C2600D94CB380C9438A70C945BAE0C9490
:1002E000EAA50C943FA80C948DA60D940F350D949F
:1002F000C9380D94A3340C941CA60D94B03B0C94F7
:10030000A65C0C94D4C50D94BF450D94A4450C94E3
:10031000E0AB0D948C350C940EA70D946B0D0D94E1
:1003200047270D94A7250D94F9480C949A430D94F2
:100330005E2F0D947D2E0C9473AE0D949A340D9413
:1003400091340D9484620D94E0250C94ABC50D940A
:10035000D1450D94DD250C947B600D94510D0D94C9
:100360009D340D9431250D9434250D94D1380C9481
:10037000B9A60D94023B0C94B07C0C94898B0C9420
:100380002CA70C946CA50C943A9D0D94E8450D9403
:10039000BA380D94B5450D94710D0C94898E0D9459
:1003A00011330D94AA3B0C94798B0D940D490D9447
:1003B000791C0D94ED3A0C94A5430C94369D0C9445
:1003C000CDA50D942E0D0C943A5C0D9497350D949B
:1003D000991C0D94C7450D9437250D946E270C94E8
:1003E0001DA70D94A0340C944FAE0D94AE340D9413
:1003F000DB450C9449430C947AA60C9449630C9405
:1004000078600D94B63B0D94F83A0D9414330C9427
:1004100067A60D94B1340D9403490C9479430C9460
:1004200089430D94803B0C9442A20C94526E0C9420
:10043000555C0D9423350D9416130C940B610C949C
:1004400049AE0D94ED3E0C943A8C0C9498500D945A
:10045000C9300C9495500C94C15C0D94DB480C94FD
:100460003E9D0D941A330D948A3B0D947F3C0C9461
:100470008B5C0D94B8480D94DF450D94A2620C94EA
:1004800094A50D948A480C94389D0D947B480D9446
:10049000B9450C94A4AE0C9491430D949E480C94D1
:1004A00055A50C94FFA60D94690D0C944F430D9423
:1004B000670D0D9494340C9461430D94073B0C9498
:1004C0007FAE0C941C8B0C9405A20D94310F0D94EF
:1004D000E9320D94C3450D94FD320D9401330D9412
:1004E000CF380D94A43B0D9409330C9467AE0C9453
:1004F000EC600D94EF480D94EF2D0D9476480C941C
:1005000083A50D9405330D940C3B0D94CD450D94AE
:100510000D330D9497340C9485430D94BC340D9495
:100520003C3A0C94C2AE0C944EA60D9417330D9425
:10053000A9340C9461AE0D94ED320D94AA450D943E
:10054000E3450C94CFA50C94E1600C94BE8A0D9405
:10055000853B0D94BC3B0D94C2480D94AD360D9473
:10056000B1450C94867C0C94705C0D94FD3A0C940F
:1005700094500D94CD380D949B380C940F910D949C
:100580005A110C94708B0C9403A60D94F5324E41C5
:100590004E494E495459494E46CDCCCC3D0AD723FD
:1005A0003C17B7D13877CC2B329595E6241FB14F45
:1005B0000A000020410000C84200401C4620BCBE8A
:1005C0004CCA1B0E5AAEC59D7400407A10F35A00F7
:1005D000A0724E18090010A5D4E80000E87648176C
:1005E0000000E40B54020000CA9A3B000000E1F551
:1005F00005000080969800000040420F000000A017
:100600008601000000102700000000E80300000041
:10061000006400000000000A00000000000100006B
:100620000000002C76D888DC674F0823DFC1DFAEDE
:1006300059E1B1B796E5E3E453C63AE651997696A7
:10064000E8E6C28426EB898C9B62ED407C6FFCEF70
:10065000BC9C9F40F2BAA56FA5F490055A2AF75C9E
:10066000936B6CF9676DC11BFCE0E40D47FEF52050
:10067000E6B500D0ED902E03009435770500808418
:100680001E080000204E0A000000C80C333333332C
:100690000F986E12831141EF8D2114893BE6551698
:1006A000CFFEE6DB18D1844B381BF77C1D901DA4D0
:1006B000BBE424203284725E228100C9F124ECA1C3
:1006C000E53D27434F4D4D554E49434154494F4E0B
:1006D0000044525952554E004552524F5253004514
:1006E00043484F0047322F473320626164207061D6
:1006F00072616D65746572730A00536C6565702E66
:100700002E2E005A2050726F626520506173742043
:100710004265640A005A2050726F6265205061730E
:10072000742042656400486F6D65205859206669E1
:100730007273740A00486F6D6520585920466972BB
:100740007374004D3131372050726F6265206661DD
:10075000696C65642E0A4732380A0070726F6265F0
:100760005F7265776970650047323920526574722F
:1007700079696E67004D31313720426564206C65C0
:1007800076656C696E67206661696C65642E0A47E0
:1007900030205A31300A4D3330302050323520531A
:1007A0003838300A4D333030205035302053300A3D
:1007B0004D3330302050323520533838300A4D33E5
:1007C0003030205035302053300A4D3330302050F7
:1007D000323520533838300A4D33303020503530E0
:1007E0002053300A47342053310070726F62655FC6
:1007F0006661696C6564004D313137204265642063
:100800006C6576656C696E6720646F6E652E004D51
:1008100065736820706F696E742063616E6E6F74AB
:10082000206265207265736F6C7665640A004E6F96
:10083000204D6F76652E00456E642066696C6520DC
:100840006C6973740A00426567696E2066696C653D
:10085000206C6973740A00526573756D696E672048
:10086000534400286E6F2066696C652900437572D9
:1008700072656E742066696C653A20005072696E0C
:10088000742074696D653A20000A53746174733A78
:100890002046696C616D656E7420757365643A20DD
:1008A000002C204C6F6E67657374206A6F623A206B
:1008B00000546F74616C2074696D653A20002C20BF
:1008C0004661696C65643A20002C2046696E697344
:1008D0006865643A20005072696E74733A20005360
:1008E000746174733A2000452025530044454255F5
:1008F000473A004D31313320530042656420436F45
:100900006F6C696E672E2E2E00426564204865610B
:1009100074696E672E2E2E0034303020537550656A
:1009200052204F46462E004348414D4245525F54A7
:10093000454D5045524154555245004D4F54494F35
:100940004E5F4D4F44455300544845524D414C5F16
:1009500050524F54454354494F4E004155544F5205
:1009600045504F52545F53445F53544154555300C4
:1009700050524F4D50545F535550504F52540045B4
:100980004D455247454E43595F50415253455200E1
:10099000434153455F4C494748545F425249474899
:1009A000544E45535300544F47474C455F4C4947BD
:1009B00048545300534F4654574152455F504F5788
:1009C0004552004255494C445F50455243454E54B0
:1009D000004C4556454C494E475F44415441005AEE
:1009E0005F50524F4245004155544F4C4556454C7F
:1009F000005052494E545F4A4F420050524F4752A6
:100A0000455353004155544F5245504F52545F5433
:100A1000454D5000564F4C554D45545249430042A8
:100A2000494E4152595F46494C455F5452414E53DD
:100A30004645520053455249414C5F584F4E5F580E
:100A40004F4646004649524D574152455F4E414D33
:100A5000453A4D61726C696E20322E302E345F44FF
:100A6000573620544D33442034535344424220538C
:100A70004F555243455F434F44455F55524C3A688A
:100A8000747470733A2F2F6769746875622E636F80
:100A90006D2F496E73616E6974794175746F6D6104
:100AA00074696F6E2F4D61726C696E2F747265651B
:100AB0002F437265616C6974794477696E5F322E79
:100AC000302050524F544F434F4C5F56455253497C
:100AD0004F4E3A312E30204D414348494E455F54E8
:100AE0005950453A3430302053755065522045589E
:100AF0005452554445525F434F554E543A31205558
:100B00005549443A63656465326132662D3431611A
:100B1000322D343734382D396231322D6335356317
:100B200036326633363766660A002F2F20004D3185
:100B3000343520533C696E6465783E206F757420AF
:100B40006F662072616E67652028302D31290A009A
:100B500020466C6F773A200050726F74656374653D
:100B6000642050696E0A00206F7574206F662072D1
:100B7000616E67650A0020536572766F20002064FD
:100B80003A0020693A0020703A00646973004329F2
:100B90000A0061626C656420286D696E2074656D61
:100BA000702000436F6C642065787472756465739F
:100BB00020617265200046696C616D656E742072FB
:100BC000756E6F75742064697374616E6365202837
:100BD0006D6D293A200046696C616D656E742072F6
:100BE000756E6F757420004D34323120696E636FFD
:100BF000727265637420706172616D6574657220D4
:100C000075736167650A00454550524F4D204F4B43
:100C10000A003F4B2076616C7565206F7574206FFC
:100C2000662072616E67652028302D3130292E0ACA
:100C300000416476616E6365204B3D00506F7765BF
:100C4000722D6C6F7373207265636F766572792095
:100C500000DF066F0CD806D106C306554E4B4E4F2B
:100C6000574E2053544154450047434F44455F4934
:100C70004E464F004C43445F50415553455F5245EB
:100C800053554D450046494C414D454E545F5255D4
:100C90004E4F55545F434F4E54494E5545004649BB
:100CA0004C414D454E545F52554E4F5554004D38B2
:100CB000373620526573706F6E64696E67205052CC
:100CC0004F4D50545F004572726F72207772697495
:100CD000696E6720746F20454550524F4D210A00C0
:100CE000627573793A2070617573656420666F72FE
:100CF00020696E7075740A00627573793A207061AC
:100D00007573656420666F7220757365720A006280
:100D10007573793A2070726F63657373696E670AD1
:100D2000007061757365004D363030002066696C67
:100D3000616D656E745F72756E6F757420006669A3
:100D40006C616D656E745F72756E6F7574205400A2
:100D500046696C616D656E7452756E6F7574205462
:100D6000004E6F20436865636B73756D20776974FF
:100D700068206C696E65206E756D6265722C204C02
:100D8000617374204C696E653A2000636865636B1B
:100D900073756D206D69736D617463682C204C618F
:100DA0007374204C696E653A20004C696E65204E64
:100DB000756D626572206973206E6F74204C61736B
:100DC00074204C696E65204E756D6265722B312CF6
:100DD000204C617374204C696E653A20004D3131AE
:100DE0003000776169740A005344207265616420A1
:100DF0006572726F720A002121204B494C4C2063AE
:100E00006175736564206279204B494C4C20627592
:100E100074746F6E2F70696E0A002121204B494C4B
:100E20004C2063617573656420627920746F6F2054
:100E30006D75636820696E61637469766520746995
:100E40006D65202D2063757272656E7420636F6D01
:100E50006D616E643A2000363726033C3D380E2E15
:100E6000303E121A1C1808440AFF43080907000103
:100E700024F4D43050C38E20C2A24017828B70114C
:100E8000127A910D816CD90AA861E108C7586607EA
:100E9000615143061E4B5D05C145A7041A4111046B
:100EA000093D9803713931034036DB026533910205
:100EB000D4305402802E1D02632CEE01752AC50128
:100EC000B028A001102781018F2564012B244B013C
:100ED000E0223401AC211F018D200D01801FFC0098
:100EE000841EED00971DDF00B81CD200E61BC60073
:100EF000201BBC00641AB200B219A8000A19A00095
:100F00006A189900D117910040178B00B51684001C
:100F100031167E00B31579003A157300C7146F00BF
:100F200058146A00EE1366008813630025135E00F0
:100F3000C7125B006C12570015125400C11151000A
:100F400070114F0021114B00D61049008D10470041
:100F50004610440002104200C00F4000800F3E00C7
:100F6000420F3C00060F3B00CB0E3800930E3700BB
:100F70005C0E3500270E3400F30D3200C10D310038
:100F8000900D3000600D2E00320D2D00050D2C004F
:100F9000D90C2B00AE0C2900850C29005C0C270015
:100FA000350C27000E0C2600E80B2400C40B24008F
:100FB000A00B23007D0B23005A0B2100390B2100CD
:100FC000180B2000F80A1F00D90A1E00BB0A1E00D9
:100FD0009D0A1D00800A1D00630A1C00470A1B00B1
:100FE0002C0A1B00110A1A00F7091A00DD09190062
:100FF000C4091900AB091900920917007B091800F0
:10100000630917004C09160036091600200916005E
:101010000A091500F5081500E0081400CC081400B2
:10102000B8081400A4081400900813007D081200EA
:101030006B0813005808120046081200340811000B
:10104000230811001208110001081100F007100018
:10105000E0071000D0071000C0071000B0070F0015
:10106000A107100091070E0083070F0074070F00FF
:1010700065070E0057070E0049070E003B070D00DD
:101080002E070E0020070D0013070D0006070D00A8
:10109000F9060C00ED060D00E0060C00D4060C006D
:1010A000C8060C00BC060C00B0060C00A4060B0021
:1010B00099060C008D060B0082060B0077060B00CC
:1010C0006C060B0061060A0057060B004C060A006E
:1010D00042060A0038060A002E060A0024060A0004
:1010E0001A060A001006090007060A00FD05090095
:1010F000F4050900EB050900E2050900D90509001E
:10110000D0050900C7050900BE050900B50508009E
:10111000AD050800A50509009C0508009405080018
:101120008C050800840508007C050800740508008B
:101130006C050700650508005D05070056050800F9
:101140004E05070047050700400508003805070061
:10115000310507002A050700230507001C050600C6
:10116000160507000F050700080506000205070021
:10117000FB040600F5040700EE040600E804060080
:10118000E2040700DB040600D5040600CF040600D5
:10119000C9040600C3040600BD040600B704060027
:1011A000B1040500AC040600A6040600A004050076
:1011B0009B04060095040500900406008A040500BF
:1011C00085040500800406007A0405007504050006
:1011D000700405006B040500660405006104050049
:1011E0005C04050057040500520405004D04050089
:1011F00048040500430405003E0404003A040500C9
:1012000035040500300404002C0405002704040004
:10121000230405001E0404001A040400160405003B
:10122000110404000D040400090405000404040072
:1012300000040400FC030400F8030400F4030400A9
:10124000F0030400EC030400E8030400E4030400DA
:10125000E0030400DC030400D8030400D40304000A
:10126000D0030400CC030400C8030300C50303003B
:1012700024F404D9201BC40C5C0E9804C4095F023A
:1012800065077101F405F900FB04B3004804870009
:10129000C10369005803550003034500BE023A002C
:1012A0008402310053022A00290225000402200092
:1012B000E4011C00C8011900AF01170098011400D7
:1012C00084011300710110006101100051010E0032
:1012D00043010D0036010B002B010B0020010B0018
:1012E000150109000C01090003010800FB000800BA
:1012F000F3000800EB000700E4000600DE00060033
:10130000D8000600D2000600CC000500C70005008A
:10131000C2000500BD000400B9000400B5000400CF
:10132000B1000400AD000400A9000400A500030002
:10133000A20003009F0004009B000300980003002C
:101340009500020093000300900003008D0002004E
:101350008B00030088000200860002008400030066
:10136000810002007F0002007D0002007B0002007D
:10137000790002007700010076000200740002008C
:1013800072000100710002006F0002006D00010098
:101390006C0002006A0001006900020067000100A1
:1013A00066000100650001006400020062000100A7
:1013B00061000100600001005F0002005D000100AB
:1013C0005C0001005B0001005A00010059000100AF
:1013D00058000100570001005600010055000100AF
:1013E00054000100530000005300010052000100AE
:1013F00051000100500001004F0001004E000000AC
:101400004E0001004D0001004C0001004B000000A7
:101410004B0001004A0001004900010048000000A3
:10142000480001004700010046000000460001009E
:101430004500000045000100440001004300000099
:101440004300010042000000420001004100000092
:1014500041000100400001003F0000003F0001008A
:101460003E0000003E0001003D0000003D00010084
:101470003C0000003C0000003C0001003B0000007C
:101480003B0001003A0000003A0001003900000072
:101490003900010038000000380000003800010069
:1014A0003700000037000100360000003600000061
:1014B0003600010035000000350000003500010055
:1014C000340000003400000034000100330000004C
:1014D0003300000033000100320000003200000041
:1014E0003200010031000000310000003100010035
:1014F0003000000030000000300001002F0000002C
:101500002F0000002F0000002F0001002E0000001F
:101510002E0000002E0001002D0000002D00000014
:101520002D0000002D0001002C0000002C00000008
:101530002C0000002C0001002B0000002B000000FC
:101540002B0000002B0001002A0000002A000000F0
:101550002A0000002A0001002900000029000000E4
:1015600029000000290000002900010028000000D7
:1015700028000000280000002800000028000100CA
:1015800027000000270000002700000027000000BF
:1015900027000100260000002600000026000000B1
:1015A00026000000260001002500000025000000A4
:1015B0002500000025000000250000002500010096
:1015C000240000002400000024000000240000008B
:1015D000240001002300000023000000230000007D
:1015E000230000002300000023000000230001006E
:1015F0002200000022000000220000002200000063
:101600002200000022000100210000002100000053
:101610002100000021000000210000002100000046
:101620002100010020000000200000002000000038
:10163000200000002000000020000000200000002A
:10164000200001001F0000001F0000001F0000001C
:101650001F0000001F0000001F0000001F0001000D
:101660001E0000001E0000001E0000001E00000002
:10167000232C0000B8220000561800003A0F00008A
:10168000B8080000B1040000710200003E01000033
:10169000206D61783A2000206D696E3A2000526515
:1016A00073656E643A2000256979202569642025D8
:1016B00069682025696D2025697300236465666962
:1016C0006E652044454641554C545F004B642000F4
:1016D0004B6920004B702000504944204175746FC5
:1016E00074756E652066696E697368656421205043
:1016F000757420746865206C617374204B702C20A5
:101700004B6920616E64204B6420636F6E7374615B
:101710006E74732066726F6D2062656C6F772069DE
:101720006E746F20436F6E66696775726174696F5E
:101730006E2E680A00504944204175746F74756EAE
:1017400065206661696C6564212074696D656F75DB
:10175000740A000A20436C61737369632050494422
:10176000200A00204B643A2000204B693A200020D8
:101770004B703A20000A204E6F206F7665727368B6
:101780006F6F740A002054753A2000204B753A2080
:101790000020643A200020626961733A20005049B9
:1017A00044204175746F74756E6520737461727432
:1017B0000A00504944204175746F74756E65206647
:1017C00061696C6564212054656D70657261747522
:1017D000726520746F6F20686967680A0050494419
:1017E000204175746F74756E65206661696C6564FF
:1017F0002120426164206578747275646572206E80
:10180000756D6265720A004572723A2075746638A9
:1018100020666F6E74206E6F7420696E69746961E2
:101820006C697A65642E00000C0D00FE0702260329
:10183000BC017FFE08FE08FE05080806000040F017
:10184000C88888987810050808060000C0F88888BD
:10185000888888F80505050600012030F830200545
:1018600008080600002070F820202020E005090963
:101870000600FF2070A8A8B8888870200506060614
:101880000001E08CEA8C8A0A0509090600FFF8A825
:101890008888888888A8F8050A0A0600FE20505023
:1018A000505088A8A8887003030306000340A04096
:1018B000FFFFFFFFFFFFFFFFFFFFFFFFFFFFFFFF38
:1018C000FFFFFFFFFFFF0000000605FF01070706FF
:1018D000020080808080800080030303060105A051
:1018E000A0A005060606000050F85050F850050963
:1018F000090600FF2070A8A07028A870200507071F
:10190000060000C8C8102040989805070706000088
:1019100040A0A040A89068010303060205808080D3
:101920000309090601FF20404080808040402003D9
:1019300009090601FF804040202020404080050723
:101940000706000020A8702070A8200505050600E5
:10195000012020F820200203030601FFC04080057B
:101960000101060003F8020202060100C0C00507DB
:1019700007060000081010204040800507070600F9
:1019800000708898A8C8887003070706010040C047
:1019900040404040E005070706000070880810201E
:1019A00040F8050707060000F808103008887005A1
:1019B000070706000010305090F8101005070706C2
:1019C0000000F880F008088870050707060000305E
:1019D0004080F0888870050707060000F80810109E
:1019E000202020050707060000708888708888700E
:1019F0000507070600007088887808106002050552
:101A0000060100C0C000C0C00206060601FFC0C03B
:101A100000C04080030505060101204080402005EC
:101A20000303060002F800F80305050601018040E3
:101A30002040800507070600007088102020002045
:101A40000507070600007088B8A8B880700507076A
:101A5000060000708888F888888805070706000057
:101A6000F04848704848F005070706000070888075
:101A700080808870050707060000F04848484848FD
:101A8000F0050707060000F88080F08080F8050761
:101A900007060000F88080F08080800507070600B8
:101AA0000070888080988870050707060000888885
:101AB00088F8888888030707060100E04040404016
:101AC00040E0050707060000381010101090600570
:101AD00007070600008890A0C0A0908805070706A9
:101AE0000000808080808080F8050707060000885D
:101AF000D8A8888888880507070600008888C8A8AD
:101B0000988888050707060000708888888888708C
:101B1000050707060000F08888F080808005070729
:101B200006000070888888A89068050707060000EE
:101B3000F08888F0A090880507070600007088806C
:101B400070088870050707060000F8202020202074
:101B500020050707060000888888888888700507A0
:101B6000070600008888888850502005070706006F
:101B70000088888888A8A85005070706000088887C
:101B800050205088880507070600008888502020CC
:101B90002020050707060000F80810204080F80301
:101BA00009090601FFE080808080808080E00507D1
:101BB00007060000804040201010080309090601B4
:101BC000FFE020202020202020E005030306000560
:101BD0002050880501010600FEF8030303060105F5
:101BE0008040200505050600007008788878050704
:101BF000070600008080F0888888F005050506004B
:101C00000070808088700507070600000808788843
:101C10008888780505050600007088F08070050743
:101C200007060000304840E0404040050707060036
:101C3000FE70888888780870050707060000808095
:101C4000F0888888880307070601004000C04040EC
:101C500040E00409090601FE100030101010109039
:101C60006005070706000080808890E090880307E1
:101C700007060100C04040404040E0050505060061
:101C800000D0A8A8A8A8050505060000B0C8888847
:101C90008805050506000070888888700507070616
:101CA00000FEF0888888F080800507070600FE782F
:101CB000888888780808050505060000B0C8808077
:101CC0008005050506000078807008F00507070606
:101CD00000002020F82020201805050506000088B7
:101CE00088889868050505060000888888502005C2
:101CF00005050600008888A8A8500505050600000F
:101D000088502050880507070600FE8888885020E4
:101D10004080050505060000F8102040F803090979
:101D20000601FF2040404080404040200109090654
:101D300002FF808080808080808080030909060106
:101D4000FF804040402040404080050303060002E1
:101D500048A890FF43616E63656C204F626A6563BB
:101D60007400416476616E636564205365747469C0
:101D70006E6773004E65787420506F696E74004E04
:101D800065787400486F6D696E672058595A004E27
:101D90004F005945530043616E63656C204F626A82
:101DA000656374203D00436D643A2053746F77007F
:101DB000436D643A204465706C6F7900436D643AFA
:101DC0002053572D4D6F646500436D643A20536571
:101DD0006C662D5465737400436D643A20526573CC
:101DE00065740046616E20537065656400526573CA
:101DF000746F72652044656661756C7473004C6F16
:101E000061642053657474696E67730053746F72F4
:101E1000652053657474696E6773005072656865F8
:101E200061742041425320436F6E660050726568B2
:101E300065617420504C4120436F6E6600424C54E3
:101E40006F756368004D3139305335350A47323884
:101E50000A4732390A4D3430300A4D31303453326A
:101E600031350A4732380A4D313039533231350A6B
:101E70004D34323053310A473158313030593130D6
:101E80003046353030300A47315A300A4D3530301F
:101E90000A4D31313720536574205A204F666673DE
:101EA0006574004D313036533132380A4D3330339A
:101EB0004338533231354530550A4D3530300A4DAF
:101EC000313137205049442054756E6520446F6E7F
:101ED00065004D3139305335350A4D313034533288
:101EE00031350A4732380A4732394C310A473120F6
:101EF000583130305931303046353030300A473182
:101F00005A30004D3530300A4D3131372053657429
:101F100074696E67732053746F72656400507265E4
:101F20007020666F72205A2041646A757374005085
:101F300049442054756E65005365747570007C3C8F
:101F40003E5E2B3D3F2F5B5D3B2C2A225C00496EA1
:101F500076616C69642065787472756465720A00D4
:101F6000453100626564002C2073797374656D20BF
:101F700073746F7070656421204865617465725F69
:101F800049443A200048656174696E67204661697A
:101F90006C65640048656174696E67206661696C90
:101FA0006564004D3131322053687574646F776E0B
:101FB00000202D20496E76616C696420657874720A
:101FC00075646572206E756D62657220210A005419
:101FD0004845524D414C2052554E415741590054AD
:101FE0006865726D616C2052756E6177617900452C
:101FF00072723A204D415854454D50004D4158544D
:10200000454D50207472696767657265640045725A
:10201000723A204D494E54454D50004D494E54455D
:102020004D5020747269676765726564004D38347D
:1020300020582059205A204500202F002042403AA5
:102040000020403A0020573A0070012C01900127EF
:1020500001B0012201C0011D01F00118011002139D
:102060000130020E016002090190020401C002FF6A
:10207000000003FA004003F5008003F000D003EBFA
:10208000002004E6007004E100E004DC004005D715
:1020900000C005D2004006CD00D006C8008007C3AE
:1020A000003008BE00F008B900C009B400B00AAFA3
:1020B00000B00BAA00D00CA500000EA000500F9B92
:1020C00000C01096005012910000148C00C01587BB
:1020D00000B0178200B0197D00D01B7800001E737D
:1020E0000040206E0090226900F024640040275FC9
:1020F0000090295A00E02B5500102E500020304B44
:102100000010324600E033410090353C0010373774
:102110000070383200A0392D00B03A2800A03B23CF
:1021200000603C1E00103D1900903D1400103E0F51
:1021300000703E0A00C03E0500003F0000403FFB2B
:10214000FF803FF6FFC03FF1FF1000C90210012CD5
:10215000014001220170011801B0010E01F00104DB
:10216000015002FA00B002F0003003E600D003DCB8
:10217000009004D2007005C800A006BE000008B49C
:1021800000B009AA00D00BA000600E960060118C70
:10219000000015820020197800C01D6E00A0226486
:1021A00000B0275A00902C500000314600E0343C2B
:1021B0000010383200903A2800603C1E00A03D1408
:1021C00000803E0A00203F0000FD55555555555FE3
:1021D000FFFFFFFFFFFFFFFFFFFE00000000003FCB
:1021E000FFFFFFFFFFFFFFFFFFFD000007FFFFFFF7
:1021F000FFFFFFFFFFFFFFFFFFFE07C0055555551F
:1022000055555FFFFFFFFFFFFFFC0A20060000009F
:1022100000003FFFFFFFFFFFFFFE14100500000757
:10222000FFFFFFFFFFFFFFFFFFFC28080607C005B9
:1022300055555555555FFFFFFFFE5404040A20060F
:1022400000000000003FFFFFFFFC600406141005C3
:10225000000007FFFFFFFFFFFFFE500404280806F1
:1022600007C00555555555555FFC600406540404D8
:102270000A200600000000003FFE54041C60040613
:1022800014100500000000001FFC28082E50040454
:1022900028080607C00001F03FFE14105460040631
:1022A0005404040A200002081FFC0A206654041C7F
:1022B00060040614100005043FFE07C05428082ED1
:1022C0005004042808000A021FFC00002E141054B9
:1022D00060040654040015013FFE00001C0A20663D
:1022E00054041C60040018011FFC00000607C054C1
:1022F00028082E50040014013FFE00000400002EA8
:1023000014105460040018011FFCFFFFFE00001CA5
:102310000A206654041C15013FFED55554000006E2
:1023200007C05428082A0A021FFC84104600000433
:1023300000002E14105105043FFEC41044FFFFFEA0
:1023400000001C0A206102881FFC841046D55554E9
:1023500000000607C05101F03FFE8410448410467F
:1023600000000400002A00001FFCC41046C41044F2
:10237000FFFFFE00001C00003FFE84104484104656
:10238000D5555400000000001FFCD555568410445C
:1023900084104600000000003FFCFFFFFCC4104614
:1023A000C41044FFFFFFFFFF9FFE0000068410449F
:1023B000841046D555555555BFFD555554D55556E0
:1023C00084104484104104109FFFFFFFFCFFFFFCBA
:1023D000C41046C410410411BFFFFFFFFE000006F9
:1023E00084104484104104109FFFFFFFFD55555495
:1023F000D5555684104104109FFFFFFFFFFFFFFCDF
:10240000FFFFFCC410410411BFFFFFFFFFFFFFFEF1
:1024100000000684104104109FFFFFFFFFFFFFFD37
:10242000555554D555555555BFFFFFFFFFFFFFFFCD
:10243000FFFFFCFFFFFFFFFF9FFFFFFFFFFFFFFF0F
:10244000FFFFFE00000000003FFFFFFFFFFFFFFF58
:10245000FFFFFD55555555555FFFFFFFFFFFFFFF80
:10246000FFFFFFFFFFFFFFFFFFFFFFFFFFFFFFFF7C
:10247000FFFFFFFFFFFFFFFFFFFFFFFFFFFFFFFF6C
:10248000FFFFFFFFFFFFFFFFFFFFFFFFFFFFFFFF5C
:10249000FFFFFFFFFFFFFFFFFFE02EFB7DFBFBCFFA
:1024A000C1DFBB3EC0E1FE3C1FFDEE7B39F9F3CF3F
:1024B0009EDFBB3EDFDEFCDDE7FDEE3BBBF9EBD78D
:1024C000BF5FBB5EDFDEFDEDF7FDEEBBD3FAEBB722
:1024D0003FDFBB4EDFDFFFCDF3FDEEDBC7FAEBBB2B
:1024E0007FC03B6EC0E3FF1DF3FDEECBEFFADBBB1D
:1024F0007FDFBB66DFF8FFCDF3FDEEEBEFFB5B03A9
:102500003F5FBB76DFFE7FEDF3FDEEF3EFFB5B7924
:10251000BEDFBB7ADFDE7DEDF7FDEEF3EFFBBAFD4C
:102520009EDFBB7CDFDEFDCDE7FDEEFBEFFBBAFD02
:10253000C1DFBB7EC0E0FE1C1F1FFFFFFFFFFFFFD0
:10254000600000000001FF400000000000FF80006C
:10255000000000007F83CF00000C303F87FF800029
:102560000C301F867980000C000F8C30C7838C30B4
:10257000E78C30CFC7CC31F38C30DCECEC33B98C4A
:1025800030D86C6C33198C30D06C0C33198C30D83B
:102590006C0C33198C30DC6C0E3B198C30CF7C0703
:1025A0009F198C30C77C038F194000000000000287
:1025B000600000000000061FFFFFFFFFFFF86874C7
:1025C00074703A2F2F6D61726C696E66772E6F7220
:1025D0006700322E302E345F445736004D31303094
:1025E000302053002020506C616E6E65724275661B
:1025F00066657242797465733A200020467265659B
:10260000204D656D6F72793A2000436F6D70696C73
:1026100065643A204D617220203820323032300A11
:1026200000204C61737420557064617465643A20B5
:10263000323032302D30322D3238207C20417574CA
:10264000686F723A2054696E794D616368696E658E
:102650007333440A00322E302E345F4457360A005A
:102660004D61726C696E0020536F6674776172659C
:102670002052657365740A00205761746368646F43
:10268000672052657365740A002042726F776E206E
:102690006F75742052657365740A002045787465FF
:1026A000726E616C2052657365740A00506F7765B5
:1026B0007255700A006175746F25632E670047328A
:1026C00038585900446F6E65207072696E74696E77
:1026D000672066696C650A004D3331004D30513119
:1026E0005331383030006572726F722077726974BE
:1026F000696E6720746F2066696C650A00446F6EAE
:102700006520736176696E672066696C652E0A00C4
:102710004D32390025532025632025632025632071
:10272000256300205A3A0020593A00656E6473749C
:102730006F7073206869743A20006F70656E005482
:1027400052494747455245440066696C616D656E64
:1027500074007A5F6D696E00795F6D696E00785FF5
:102760006D696E005265706F7274696E6720656E78
:102770006473746F70207374617475730A002043FE
:102780006F756E7420583A005761726E696E673AC1
:1027900020486F6D696E672042756D7020446976C0
:1027A00069736F72203C20310A00000000000000B5
:1027B0000000000000000000CD430000C8430000FE
:1027C000C843000048420000484200008040020226
:1027D000040000A0400000A04000000040FFFFFFF8
:1027E0000000000100000001000080005555550068
:1027F0000000400033333300AAAA2A004992240083
:1028000000002000C7711C0099991900D1451700DC
:10281000555515003BB11300244912001111110048
:10282000000010000F0F0F00E3380E0043790D0079
:10283000CCCC0C00C3300C00E8A20B0064210B00D0
:10284000AAAA0A00703D0A009DD80900427B09002F
:1028500092240900DCD30800888808001042080090
:1028600000000800F0C107008787070075500700C7
:10287000711C07003EEB0600A1BC06006990060033
:1028800066660600703E06006118060017F4050033
:1028900074D105005BB00500B290050062720500BE
:1028A0005555050078390500B81E050005050500D9
:1028B0004EEC040087D40400A1BD040090A70400DE
:1028C00049920400C17D0400EE690400C75604006B
:1028D000444404005C320400082104004110040058
:1028E000000004003FF00300F8E0030026D20300DC
:1028F000C3C30300CCB503003AA803000A9B03003E
:10290000388E0300C08103009F750300D069030067
:10291000505E03001D53030034480300913D030043
:102920003333030016290300381F030097150300F3
:10293000300C0300030303000BFA020049F102000C
:10294000BAE802005CE002002DD802002DD002009F
:1029500059C80200B0C0020031B90200DAB1020069
:10296000AAAA0200A0A30200BC9C0200FA950200E1
:102970005C8F0200DF88020082820200457C020038
:102980002776020027700200436A02007C6402007E
:10299000D05E02003F590200C85302004F757461B7
:1029A0006765205265636F7665727900436F6E6666
:1029B000696775726174696F6E003F0043616E6391
:1029C000656C0042696C696E656172204C65766564
:1029D0006C696E6700457874727564657273007413
:1029E000696E796D616368696E657333642E636FB8
:1029F0006D00343030205375506552003230323023
:102A00002D30322D3238005072696E746572205349
:102A10007461747300546865726D6973746F727356
:102A200000426F61726420496E666F005072696E79
:102A300074657220496E666F004D3130303000533E
:102A4000746F70205072696E7400526573756D6595
:102A5000205072696E74004D3231004368616E67B8
:102A600065204D656469610041626F757420507224
:102A7000696E746572004C6576656C696E6720548A
:102A80006F6F6C73004E6F204D6564696100496E15
:102A9000666F2053637265656E00537461727420B3
:102AA0005072696E740043616E6E6F7420656E744F
:102AB0006572207375626469723A2000022E2E00DE
:102AC0002568753A253032687500256875642025BB
:102AD000303268753A253032687500202020202079
:102AE0002020004D656469612052656D6F766564D4
:102AF000004D6564696120496E7365727465640098
:102B00001FE0201020102010102010202010201076
:102B100030300840048003001FE03FF03FF03FF0FA
:102B20001FE01FE03FF03FF03FF00FC007800300C1
:102B30003FFFF038007030FC3020FC10207810206F
:102B400030102C00D02E31D02F7BD02F7BD02E31C7
:102B5000D02C00D020301020781020FC1030FC3019
:102B60003800703FFFF03FFFF038007031863023AF
:102B700087102787902F87D02F03D0203010207800
:102B8000102078102030102F03D02F87D027879067
:102B90002387103186303800703FFFF01FFFF81F89
:102BA000FFF804104002082002082004104008200A
:102BB00080104100104100082080041040000000F7
:102BC0001FFFF81FFFF8FFFFFF8000018E00E19F4D
:102BD00001F19381399F81F99F81F99FB9F98F287C
:102BE000F18038018000019FFFF99174999B06A93B
:102BF0009B54A99B56A99B54999FFFF9FFFFFF4D3A
:102C00003330332055312045256920532569005044
:102C10004944204175746F74756E65202A005049CF
:102C2000442D44202A005049442D49202A0050496F
:102C3000442D50202A00200820466163740020089B
:102C4000204D6178002008204D696E004175746F39
:102C500074656D70005654726176204D696E005631
:102C60006D696E00566D6178204500566D61782063
:102C70005A00566D6178205900566D6178205800D1
:102C8000416D6178204500416D6178205A00416DA9
:102C90006178205900416D6178205800412D5472AF
:102CA0006176656C00412D526574726163740041F8
:102CB0006363656C0000FE0003FF8007C7C0070167
:102CC000E00000E00000F00000700400700E0070F2
:102CD0001F00703F80F00E00E00F01E007C7C00347
:102CE000FF8000FE0000FE0003FF8007C7C00F0149
:102CF000E00E00E03F80F01F00700E0070040070D6
:102D00000000700000F00000E00701E007C7C0030A
:102D1000FF8000FE000E000E000E000E000E000EE2
:102D2000000E000E007FC03F801F000E0004000454
:102D3000000E001F003F807FC00E000E000E000E30
:102D4000000E000E000E000E00FFFFFF7F80FFC090
:102D5000FFC0FFC07F807F80FFC0FFC0FFC03F007B
:102D60001E000C0052756E6F7574204469737420D8
:102D70006D6D004C6F6164206D6D00556E6C6F6100
:102D800064206D6D0046696C2E204469612E0045FB
:102D900020696E206D6DC2B3004F666673657473F3
:102DA000204170706C696564004572723A20546FFE
:102DB0006F206661722100546F6F20666172206619
:102DC000726F6D207265666572656E636520706FE7
:102DD000696E740A00446966663A200046726F6D37
:102DE0005374703A00537465707065723A00556E92
:102DF0004C6576656C3A004C6576656C65643A00A6
:102E00005261773A20202020000A4C6F6769636185
:102E10006C3A00436F756E7420453A004361703A16
:102E2000004D302053746F70004D312053746F701B
:102E300000436C69636B20746F20526573756D6518
:102E40002E2E2E0050726F6265204F666673657479
:102E5000205A0050726F6265204F66667365745A1F
:102E60003A20003F5A206F7574206F662072616EA1
:102E700067652028003F59206F7574206F662072A7
:102E8000616E676520282D0020746F20003F582058
:102E90006F7574206F662072616E676520282D0043
:102EA00050726F6265204F666673657420580065C6
:102EB0006E7175657565696E672022006F6B002005
:102EC00062797465733B2063726320004E6F204506
:102ED0004550524F4D2E0A00205200454550524F4A
:102EE0004D206461746173697A65206572726F72D6
:102EF0002E0A002073746F726564207365747469A0
:102F00006E67732072657472696576656420280047
:102F1000202863616C63756C6174656429210A0003
:102F200020213D2000454550524F4D204352432023
:102F30006D69736D61746368202D202873746F72DE
:102F40006564292000496E6465783A2000204D614F
:102F5000726C696E3D563736290A00454550524F0E
:102F60004D2076657273696F6E206D69736D617443
:102F700063682028454550524F4D3D00454550520D
:102F80004F4D20496E697469616C697A65640A0005
:102F900048617264636F6465642044656661756C42
:102FA000742053657474696E6773204C6F61646537
:102FB000640A003B200020204D36303320002020C2
:102FC0004D34313220530046696C616D656E74205A
:102FD00072756E6F75742073656E736F723A002030
:102FE000550046696C616D656E74206C6F61642F6D
:102FF000756E6C6F6164206C656E677468733A00FF
:1030000020204D393030204B004C696E65617220B4
:10301000416476616E63653A0020204D3835312079
:1030200058005A2D50726F6265204F666673657442
:103030000020204D343133205300506F7765722DBE
:103040004C6F7373205265636F766572793A002016
:10305000204D33303420500020204D33303120506B
:10306000005049442073657474696E67733A002098
:10307000460020480020204D3134352053004D615A
:1030800074657269616C2068656174757020706127
:1030900072616D65746572733A0020204732392081
:1030A0005720490020204D343230205300417574A0
:1030B0006F20426564204C6576656C696E673A00E6
:1030C00020204D323036205800486F6D65206F66E5
:1030D000667365743A00204A0020204D3230352056
:1030E0004200416476616E6365643A20423C6D69DA
:1030F0006E5F7365676D656E745F74696D655F752E
:10310000733E20533C6D696E5F66656564726174E1
:10311000653E20543C6D696E5F74726176656C5FCC
:1031200066656564726174653E204A3C6A756E63CB
:103130005F6465763E0020204D32303420500041DF
:103140006363656C65726174696F6E2028756E6962
:1031500074732F7332293A20503C7072696E745F19
:10316000616363656C3E20523C7265747261637486
:103170005F616363656C3E20543C74726176656C7C
:103180005F616363656C3E0020204D323031205812
:10319000004D6178696D756D20416363656C657282
:1031A0006174696F6E2028756E6974732F7332298C
:1031B0003A0020204D3230332058004D6178696D3F
:1031C000756D206665656472617465732028756E1F
:1031D0006974732F73293A00537465707320706596
:1031E0007220756E69743A0020204D3230302044D0
:1031F000300A0020204D32303020440020446973D2
:1032000061626C65640A0046696C616D656E74206C
:1032100073657474696E67733A0020204D313439D8
:103220002043203B20556E69747320696E204365EE
:103230006C736975730A0020286D6D290020204782
:103240003231202020203B20556E69747320696E36
:10325000206D6D00486F6D696E67204661696C6511
:1032600064000000FA430000C84300002041000051
:1032700096420000A0420000A0420000C8430000A7
:10328000BE42E8030000EE020000640000004B00B4
:1032900000002053697A653A200043616E6E6F74B6
:1032A000206F70656E2073756264697220005344EC
:1032B0002063617264206F6B0A006F70656E526FDD
:1032C0006F74206661696C65640A00766F6C756D59
:1032D000652E696E6974206661696C65640A0053C5
:1032E0004420696E6974206661696C0A004D32334E
:1032F0002025730046696C652073656C6563746591
:10330000640A0046696C65206F70656E65643A20DA
:1033100000454E4420535542524F5554494E450A9C
:10332000002220706F73002220706172656E743A03
:103330002200535542524F5554494E452043414C6B
:103340004C207461726765743A2200747279696EF8
:103350006720746F2063616C6C207375622D6763E6
:103360006F64652066696C65732077697468207482
:103370006F6F206D616E79206C6576656C732E20A1
:103380004D4158206C6576656C2069733A310A00AE
:1033900044656C6574696F6E206661696C65642C48
:1033A0002046696C653A200046696C652064656C4E
:1033B000657465643A005344207072696E74696E76
:1033C00067206279746520004E6F7420534420702A
:1033D00072696E74696E670A0057726974696E6704
:1033E00020746F2066696C653A20006672657368A8
:1033F00000646F696E67004E6F77200041636365FC
:103400006C65726174696F6E3A2050003F4A206F9C
:103410007574206F662072616E67652028302E30CB
:103420003120746F20302E33290A00204D3932208C
:10343000580020204D61783A200020204D696E3AD6
:103440002000536F667420656E6473746F70733AF6
:1034500020004D32342053256C642054256C6400C8
:103460004739322E392045257300473120462564DF
:10347000004739322E39205A2573004731205A30FF
:1034800020463230300047312058257320592573AB
:10349000204633303030004D3432302053256920FF
:1034A0005A2573004D313036205025692053256947
:1034B000004D31303920532569004D3139302053CA
:1034C0002569004D32303020442573004739322EB3
:1034D000392045305A300A47315A320A4732385279
:1034E000305859004D343230205330205A300020AB
:1034F000496E76616C696420657874727564657272
:10350000200053544F505045442E20005072696E95
:103510007465722073746F707065642064756520C3
:10352000746F206572726F72732E204669782074F2
:103530006865206572726F7220616E6420757365B4
:10354000204D39393920746F20726573746172743B
:103550002E202854656D70657261747572652069DE
:10356000732072657365742E20536574206974200E
:1035700061667465722072657374617274696E67D6
:10358000290A0021212053544F502063616C6C653F
:10359000642062656361757365206F6620424C54D8
:1035A0006F756368206572726F72202D207265736B
:1035B000746172742077697468204D3939390A0052
:1035C0005072696E74696E67204F626A6563740039
:1035D0002553202569002F2F616374696F6E3A00AF
:1035E000626567696E00656E640070726F6D7074FD
:1035F0005F0073686F770044697361626C65527530
:103600006E6F75740050757267654D6F7265004816
:103610006F74656E6420746F6F20636F6C640A0052
:1036200053656E64204D31303820746F207265739D
:10363000756D650A0052656865617420446F6E653A
:1036400000526568656174696E67005265686561FE
:10365000740048656174657254696D656F757400B6
:1036600053656E64204D31303820746F2068656179
:1036700074206E6F7A7A6C650A004E6F7A7A6C6588
:10368000205061726B656400706175736564004DF4
:103690003630303A20546F6F20436F6C640072658F
:1036A00073756D656400526573756D696E6700476B
:1036B00032362048656174696E67204E6F7A7A6C85
:1036C00065004732362048656174696E672042653F
:1036D000640057616974696E6720666F722068655F
:1036E000617475702E0A004669786564204C656EB9
:1036F000677468205072696D6500446F6E65205074
:1037000072696D696E67004D616E75616C207072D3
:10371000696D696E672E2E2E004732362043616E2A
:1037200063656C6564004C656176696E672047323D
:1037300036003F53706563696669656420582C598B
:1037400020636F6F7264696E617465206F75742099
:103750006F6620626F756E64732E0A003F285229CF
:1037600065706561742076616C7565206E6F74207C
:10377000706C61757369626C653B206D7573742044
:103780006265206174206C6561737420312E0A00BB
:103790003F537065636966696564206E6F7A7A6C01
:1037A000652074656D7065726174757265206E6FE9
:1037B0007420706C61757369626C652E0A003F53EA
:1037C00070656369666965642066696C616D656EC4
:1037D000742073697A65206E6F7420706C617573E4
:1037E00069626C652E0A003F53706563696669659E
:1037F00064207072696D65206C656E677468206EF8
:103800006F7420706C61757369626C652E0A003F7D
:10381000537065636966696564206E6F7A7A6C655A
:103820002073697A65206E6F7420706C617573699E
:10383000626C652E0A003F52657472616374696F31
:103840006E204D756C7469706C696572206D75734E
:1038500074206265207370656369666965642E0A09
:10386000003F5370656369666965642052657472D0
:10387000616374696F6E204D756C7469706C6965F5
:1038800072206E6F7420706C61757369626C652E46
:103890000A003F537065636966696564206C6179ED
:1038A000657220686569676874206E6F7420706C3B
:1038B00061757369626C652E0A0043292E0A003F08
:1038C0005370656369666965642062656420746528
:1038D0006D7065726174757265206E6F7420706CA6
:1038E00061757369626C65202834302D004732366B
:1038F000207374617274696E672E2E2E0A004F4613
:10390000460A00466164652048656967687420005E
:10391000426564204C6576656C696E67200046617F
:10392000696C656420746F20656E61626C6520420D
:103930006564204C6576656C696E670A00496E7631
:10394000616C6964206D6573682E0A005072696E3F
:1039500074205061757365640020746F6F206C6F04
:103960006E6720657874727573696F6E207072650A
:1039700076656E7465640A0020636F6C64206578F8
:1039800074727573696F6E2070726576656E74659A
:10399000640A00220A00556E6B6E6F776E20636FAB
:1039A0006D6D616E643A20220034303020537550C2
:1039B00065522052656164792E005072696E746997
:1039C0006E672E2E2E0050726F62696E6720506FE8
:1039D000696E740025532025692F25690050726F88
:1039E00062696E67206D65736820706F696E742000
:1039F00000202844525952554E290047323920415F
:103A000075746F20426564204C6576656C696E67DD
:103A1000003F20284C2C522C462C4229206F7574D4
:103A2000206F6620626F756E64732E0A003F285601
:103A3000296572626F7365206C6576656C20696DAF
:103A4000706C61757369626C652028302D34292E85
:103A50000A00426164205A2076616C75650A004E46
:103A60006F2062696C696E65617220677269640AB1
:103A700000446576696174696F6E0025533A2025AC
:103A800073005374616E6461726420446576696189
:103A900074696F6E3A20002052616E67653A2000AB
:103AA0004D65616E3A200046696E697368656421F0
:103AB0000A002072616E67653A2000207369676DA5
:103AC000613A2000206D65616E3A20003A207A3A12
:103AD0002000206F662000476F696E6720746F3A80
:103AE00020580043570A00206469723A0020616E32
:103AF000676C653A00537461727420726164697511
:103B0000733A004D343820506F696E740025533A73
:103B10002025642F256400506F736974696F6E6986
:103B20006E67207468652070726F62652E2E2E0A93
:103B3000003F4E756D626572206F66206C6567731D
:103B400020696E206D6F76656D656E74206E6F7482
:103B500020706C61757369626C652028302D313579
:103B6000292E0A003F2028582C5929206F757420CF
:103B70006F6620626F756E64732E0A003F53616D2D
:103B8000706C652073697A65206E6F7420706C614B
:103B9000757369626C652028342D3530292E0A0032
:103BA0004D3438205A2D50726F6265205265706511
:103BB00061746162696C69747920546573740A0078
:103BC00054656D70657261747572650050726F62D4
:103BD00065205A204F666673657400416476616E95
:103BE0006365204B004D61696E00507265686561C8
:103BF00074204142532042656400507265686561DB
:103C0000742041425320456E6400436F6F6C646FB3
:103C1000776E0046616E205370656564207E0046B5
:103C20006C6F77005061757365205072696E740017
:103C30006E6F74696669636174696F6E2000636199
:103C40006E63656C005072696E742041626F7274AD
:103C50006564004469736D6973730055492041625E
:103C60006F72746564004D323520500A4D32340055
:103C7000526573756D650055492050617573650017
:103C8000726573756D650053657474696E67732032
:103C900053746F726564202800FFFDFCFAF8F6F497
:103CA000F2F0EEECEAE9E7E5E3E1E0DEDCDAD9D7D1
:103CB000D5D4D2D0CFCDCBCAC8C7C5C3C2C0BFBD73
:103CC000BCBAB9B7B6B4B3B2B0AFADACAAA9A8A6E6
:103CD000A5A4A2A1A09E9D9C9A9998979594939231
:103CE000908F8E8D8B8A8988878684838281807F5E
:103CF0007E7D7B7A797877767574737271706F6E6A
:103D00006D6C6B6A696867666564636261605F5E5B
:103D10005D5C5B5A59585857565554535251505040
:103D20004F4E4D4C4B4A4A4948474646454443420C
:103D30004241403F3E3E3D3C3B3B3A3938383736C6
:103D40003535343332323130302F2E2E2D2C2B2B73
:103D50002A29292827272625252423232221212013
:103D6000201F1E1E1D1C1C1B1B1A191918181716A4
:103D700016151514131312121111100F0F0E0E0D2C
:103D80000D0C0C0B0A0A09090808070706060505A9
:103D900004040303020201000052756E6F75742063
:103DA00053656E736F7200554E4C4F414420464927
:103DB0004C414D454E540046494C414D454E5420D2
:103DC0004348414E4745004D37303220542564006A
:103DD0004D36303020423020542564004D3730328B
:103DE000203B2564004D37303120542564004D3789
:103DF0003032004D373031004D3630302042300007
:103E00005075726765206D6F726500524553554D50
:103E100045204F5054494F4E533A005052494E544A
:103E2000205041555345440020204E6F7A7A6C65EE
:103E30003A2000256C642E25696D004578747275F2
:103E400064656420546F74616C004C6F6E676573B9
:103E500074204A6F622054696D65003E2000546FE3
:103E600074616C205072696E742074696D650043D2
:103E70006F6D706C65746564005072696E74204378
:103E80006F756E7400313530004245443A415443F9
:103E90002031303447542D320052756E617761798C
:103EA0002057617463683A204F4E004D617820546A
:103EB000656D7000343530004D696E2054656D704D
:103EC00000350045313A204550434F5320313030C2
:103ED0004B005053550047656E6572696300507220
:103EE0006F746F636F6C00312E3000426175640037
:103EF00032353030303000437265616C697479332B
:103F0000442052414D5053005061726B696E672ED0
:103F10002E2E0000005761697420666F720066697A
:103F20006C616D656E74206368616E676500746FA7
:103F3000207374617274005761697420666F720037
:103F400066696C616D656E7420756E6C6F6164007E
:103F5000004E6F7A7A6C652068656174696E6700DF
:103F6000506C6561736520776169742E2E2E000098
:103F7000507265737320627574746F6E00746F2075
:103F800068656174206E6F7A7A6C650000496E73A3
:103F90006572742066696C616D656E7400616E6433
:103FA00020707265737320627574746F6E00746F25
:103FB00020636F6E74696E75650057616974206661
:103FC0006F720066696C616D656E74206C6F616400
:103FD0000000507265737320427574746F6E0074C4
:103FE0006F20726573756D65207072696E74000064
:103FF0005761697420666F72207072696E74007404
:104000006F20726573756D652E2E2E0000576169E5
:104010007420666F720066696C616D656E742070E5
:104020007572676500004A756E6374696F6E20442F
:1040300065760050726F62652059204F6666736521
:10404000740050726F62652058204F666673657405
:10405000004573746570732F6D6D005A73746570CD
:10406000732F6D6D005973746570732F6D6D0058EB
:1040700073746570732F6D6D00496E6974004D34F3
:10408000323800496E697469616C697A652045450A
:1040900050524F4D0053746570732F6D6D00507208
:1040A0006F6265204F666673657473004A65726B54
:1040B00000416363656C65726174696F6E0056657B
:1040C0006C6F636974790053657420486F6D652067
:1040D0004F666673657473004D6F74696F6E004F41
:1040E0006666004F6E00536F667420456E6473748D
:1040F0006F7073004D38340044697361626C6520E1
:104100005374657070657273004732380A4D3438E5
:1041100020503130004D34382050726F6265205489
:10412000657374004C6576656C20436F726E6572C2
:1041300073004661646520486569676874004732AA
:10414000380A473239004C6576656C204265640058
:10415000473238205A00486F6D65205A0047323880
:10416000205900486F6D65205900473238205800AB
:10417000486F6D65205800473238004175746F20D4
:10418000486F6D65005072656865617420504C41E0
:1041900020456E64005072656865617420504C4122
:1041A00020426564006F70656E206661696C6564AD
:1041B0002C2046696C653A2000000021002400276D
:1041C000002A002D00300033000101000004010727
:1041D000010A0100002200250028002B002E0031DA
:1041E00000340002010000050108010B010000205D
:1041F000002300260029002C002F003200000100BF
:104200000003010601090105050505070508080861
:1042100008020202020A0A08080404040401010157
:10422000010101010103030303030303030407075F
:10423000070C0C0C0C0C0C0C0C02020202060606FD
:1042400006060606060B0B0B0B0B0B0B0B010210E5
:1042500020200808102040102040800201020108A0
:104260000402010102040810204080804020100850
:1042700004020180040201804020100804020108A9
:104280000402010102040810204080010204081009
:1042900020408000000A0B02090C0D0E08070304E1
:1042A000010000000000000000000000000000000D
:1042B00000000000000000000000000000000012EC
:1042C00011100000000000000000000000000000CD
:1042D0000000000000000000004D6F76652025738F
:1042E0006D6D004D6F766520302E316D6D004D6F18
:1042F000766520316D6D004D6F76652031306D6DC6
:10430000004D6F7665204178697300486F74656E63
:104310006420746F6F20636F6C64004578747275ED
:10432000646572004D6F7665205A004D6F7665208A
:1043300059004D6F76652058004368616E676520AF
:1043400046696C616D656E7400556E6C6F616420BA
:1043500046696C616D656E74004C6F6164204669DE
:104360006C616D656E7400507265686561742041A2
:104370004253005072656865617420504C41005092
:1043800072656865617420437573746F6D00426176
:10439000636B005072696E742066726F6D204D659C
:1043A0006469610050726F62696E67204661696C72
:1043B000656400205A3A200020593A200042656482
:1043C00020583A2000496E736572742066696C61EA
:1043D0006D656E7420616E642073656E64204D316E
:1043E00030380A0050726F62696E67204661696CEE
:1043F00065640A00486F6D65202573257325732059
:10440000466972737400627574746F6E00436F6EE8
:1044100074696E7565004C6F61642046696C616DEE
:10442000656E74205400506C65617365205265732D
:104430006574005052494E5445522048414C5445F1
:10444000440025533A20255300706F7765726F66DC
:1044500066004B494C4C45442E20005072696E74E6
:1044600065722068616C7465642E206B696C6C28C1
:10447000292063616C6C6564210A006563686F3A8A
:10448000004572726F723A0042696C696E656172C2
:10449000204C6576656C696E6720477269643A0ADC
:1044A00000003D02A10111241FBECFEFD1E2DEBF0B
:1044B000CDBF00E00CBF13E0A0E0B2E0E8EEF9EE03
:1044C00002E00BBF02C007900D92AE36B107D9F7DC
:1044D00029E1AEE6B3E001C01D92A53EB207E1F7C7
:1044E00012E2C2E5D2E200E006C021970109802F66
:1044F000FE010F944571C135D10780E00807A9F787
:104500000F947B5C0D94E2740C9400002F923F9208
:104510004F925F926F927F928F929F92AF92BF92D3
:10452000CF92DF92EF92FF920F931F93CF93DF937F
:10453000CDB7DEB7E4970FB6F894DEBF0FBECDBFA0
:104540008BAB2091AE1928AB11E01093AE1980917E
:10455000D6088D3409F4EBC3843511F40C9424345B
:10456000873411F00C942B348091D4089091D508A5
:104570008B31910509F421C1B4F48430910534F4F0
:1045800082309105E4F597FF2EC0CDC385319105AA
:1045900011F40C942D348A31910509F40AC1049761
:1045A00009F0C1C3C7C08A32910509F4DCC24CF4DA
:1045B0008D319105B1F00CF41AC14E9709F458C130
:1045C000B2C38B35910509F418C28C35910509F4F5
:1045D00019C28A35910509F0A6C310927D030C9487
:1045E0002D3414E032C180910F02882311F40C9411
:1045F0002D340E9491CE0E94E4820C942D3420919F
:104600000F02222311F40C942D3411E0029709F0CB
:1046100010E00E9491CE19821A821B821C821D8298
:104620001E821F82188682E50E942DDC882309F4F1
:104630004BC00E94ADDB6B017C0120E030E0A901A2
:104640000F944A6A882309F455C080910B0B90910E
:104650000C0BA0910D0BB0910E0B8CA39DA3AEA3E0
:10466000BFA380910F0B9091100BA091110BB091F3
:10467000120B8CA79DA7AEA7BFA78090771990902B
:104680007819A0907919B0907A1940907B195090C0
:104690007C1960907D1970907E19A50194016CA120
:1046A0007DA18EA19FA10F944A6A81110C9436348A
:1046B000A30192016CA57DA58EA59FA50F944A6AC2
:1046C0008823C1F00C94363489E40E942DDC8823C1
:1046D00031F00E94ADDB69837A838B839C838AE40B
:1046E0000E942DDC882331F00E94ADDB6D837E8338
:1046F0008F83988720E030E0A90169817A818B81DE
:104700009C810F944A6A81110C94EA3420E030E0D5
:10471000A9016D817E818F8198850F944A6A8111EC
:104720000C94EA340F94AA5B84EE96E00F94B45A8A
:104730000C942D3480E50E942DDC882329F00E9402
:10474000CBD76B017C0103C0C12CD12C760183E552
:104750000E942DDC882361F00E94ADDB20E030E078
:104760004AE754E40F94B06A0F94C1726B017C0164
:104770000F94A82280917812811105C060E08AEF21
:1047800096E00F94351C0F945049C60ED71EE81EB4
:10479000F91E0F945049DC01CB018C199D09AE091B
:1047A000BF09B7FD02C00C942D3480E00E94B33CD9
:1047B000F0CF0E94F5E40C942D340F94B34D811189
:1047C0000C942D348CE0E1E9F2E0DE0111960190C9
:1047D0000D928A95E1F760E070E080E50E94C2D515
:1047E000BE016F5F7F4F0F94081B0C942D34809196
:1047F000A6198770873011F00C94FD3460E08FE4C7
:104800000E9449DC81110C942D340C94FD3480916C
:10481000E61281111FC00F942208882309F111505C
:1048200011F40C94FA3620E030E043E55CE368E6EE
:1048300077E085E00E9404E161E08BE597E00E946B
:10484000C5DE83E497E00E942BBA0F94B34D882312
:10485000F1F206C060E08FE40E9449DC8823D9F2BF
:104860000E94B6E087EF97E00E942BBA0C942D349B
:10487000209193193091941940919519509196195E
:1048800060910B0B70910C0B80910D0B90910E0BA6
:104890000F944E71AB01BC0188E50E949654698368
:1048A0007A838B839C83209197193091981940913A
:1048B000991950919A1960910F0B7091100B80917A
:1048C000110B9091120B0F944E71AB01BC0189E555
:1048D0000E9496546D837E838F839887BE016B5FA1
:1048E0007F4FCE0101960F945502882311F40C944A
:1048F0002D3480E00F94A7560E94D88561E085E4AE
:104900000E9449DC182F21E0482FBE016B5F7F4FCA
:10491000CE0101960F94A24E6B017C019B01AC016C
:104920000F94407481115FC089809A80AB80BC80F5
:1049300020E030E0A901C501B4010F944A6A87FF65
:1049400005C027E137EB41E558EB04C027E137EB21
:1049500041E558E3C501B4010F944E71AB01BC01B0
:104960008DEB93E40F94795B8D809E80AF80B8844B
:1049700020E030E0A901C501B4010F944A6A87FF25
:1049800005C027E137EB41E558EB04C027E137EBE1
:1049900041E558E3C501B4010F944E71AB01BC0170
:1049A00088EB93E40F94795B20E030E0A901C70124
:1049B000B6010F944A6A87FF05C067E177EB81E58E
:1049C00098EB04C067E177EB81E598E3A7019601D6
:1049D0000F944E71AB01BC0183EB93E40F94795BB0
:1049E0008AE00E94873B0E94BF85113011F40F942A
:1049F000B81F0E9441890C942D348FE080937D0371
:104A00000C942D348091D308882349F1893009F022
:104A1000A6C045E4A42E43E0B42E5BE0E52E5BE0A7
:104A2000F52ED12C00E010E0D5018D915D010E94A2
:104A30002DDC882369F00E94ADDBF7016083718370
:104A400082839383133011F401E002C0DD24D394F8
:104A50001F5FF4E0EF0EF11C143031F775C095E4E0
:104A6000292E93E0392E29EFE22E27E0F22E2BE0BB
:104A70003BE03DA32CA337E8C32E39E1D32E00E061
:104A800010E0D1018D911D010E942DDC882309F4D5
:104A90004BC00E94ADDB2B013C01133049F0F60105
:104AA00020813181428153810F944D712B013C0152
:104AB000ACA1BDA12D913D914D915C91C301B2017D
:104AC0000F944D714B015C012DEB37E346E855EB3C
:104AD0000F94AE7387FD0AC02DEB37E346E855E32C
:104AE000C501B4010F944A6A1816F4F4133051F456
:104AF0004092170B5092180B6092190B70921A0B80
:104B000001E012C0A5019401F701608171818281E9
:104B100093810F944E71D7016D937D938D939C93E8
:104B20001397812F0E9423821F5FB4E0EB0EF11CCC
:104B3000ECA1FDA13496FDA3ECA3F4E0CF0ED11CB3
:104B4000143009F09ECF05C0DD2019F00E940F88B7
:104B500006C0002321F087E19BE00F94B9220E9458
:104B600041890C942D3480910F02882311F40C9408
:104B70002D3489E40E942DDCE82E882321F00E9448
:104B8000A9DB082F01C000E08AE40E942DDCF82E8A
:104B9000882321F00E94A9DB182F01C010E0EE202D
:104BA00011F0083020F4FF2041F0183030F08FE091
:104BB00098E00F94B45A0C942D3480E1EBE0FBE0C4
:104BC000A7E7B9E101900D928A95E1F7EE2019F17E
:104BD000602F000F770B880B990B0F94516A20916F
:104BE000EE083091EF084091F0085091F1080F94D1
:104BF000B06A2091E0083091E1084091E2085091BC
:104C0000E3080F944E71609377197093781980932D
:104C1000791990937A19FF2019F1612F110F770BF1
:104C2000880B990B0F94516A2091F2083091F30888
:104C30004091F4085091F5080F94B06A2091E4086F
:104C40003091E5084091E6085091E7080F944E71C5
:104C500060937B1970937C1980937D1990937E19D2
:104C600060E080E50E9449DC8823C1F1EE20D1F0AC
:104C7000209193193091941940919519509196195A
:104C800060917719709178198091791990917A19BA
:104C90000F944D71609377197093781980937919F7
:104CA00090937A19FF20D1F020919719309198199B
:104CB0004091991950919A1960917B1970917C19C2
:104CC00080917D1990917E190F944D7160937B199D
:104CD00070937C1980937D1990937E1940E050E089
:104CE000BA0186E40E9496546B017C0120E030E01A
:104CF000A9010F94AE7318164CF420E030E040E7A1
:104D000052E4C701B6010F94487203C060E070E03E
:104D1000CB0169837A838B839C83CE0101960E94A9
:104D2000F7850C942D340F9435020C942D3480911A
:104D3000D4089091D5088937910509F4E5C70CF09E
:104D40003CC18D34910509F444C40CF09CC08B31F6
:104D5000910509F42DC30CF056C08531910509F475
:104D600087C2B4F58131910509F46EC244F402970B
:104D700010F00C9421340E94C9B60C942D34823169
:104D8000910509F457C6449711F00C94213486E438
:104D900098E00F94B45A8DE896E10E942C668BE15E
:104DA000EDE8F6E1DE01119601900D928A95E1F7AA
:104DB00060E070E0CE0101960E9484CDCE010196A4
:104DC0000E9444DD87E398E00F94B45A0C942D348C
:104DD0008831910509F46BC26CF48631910509F4B0
:104DE0004BC2479711F00C942134E091FC04F091F0
:104DF000FD044FC28931910509F4C1C24A9709F4F3
:104E0000C9C20C9421348132910509F479C3ECF4C0
:104E10008E31910509F43BC37CF48C31910509F482
:104E20002EC34D9711F00C942134809170168E7F13
:104E3000809370160C942D348F31910509F464C35E
:104E4000809709F434C30C9421348934910509F412
:104E5000A9C364F48A32910509F476C3C09711F0AE
:104E60000C9421340F9496030C942D348B349105BB
:104E700009F4ABC38C34910511F00C9421340F94D8
:104E800067180C942D348C36910511F40C942D3444
:104E90000CF053C08535910509F4CFC5ACF58235CA
:104EA000910509F4B9C534F58E34910509F495C31B
:104EB0008135910511F00C9421340E94AC720F944D
:104EC0005C200F9468240E9400391092AA19109255
:104ED000A9191092A81968EE73E080E090E00F9491
:104EE000F4590E943C3960E088E199E00F94351C48
:104EF0000C942D348335910509F495C584359105BD
:104F000009F498C50C9421348936910509F471C4CB
:104F100054F48C35910509F4B3C58836910509F42C
:104F2000EEC30C9421348A36910509F476C48B368D
:104F3000910509F496C40C9421348237910509F443
:104F400029C6D4F48F36910509F4ABC454F48D36D8
:104F5000910509F4F8C38E36910509F491C40C94B7
:104F600021348037910511F40C942D34813791054B
:104F700009F4DCC40C9421348637910509F487C602
:104F800054F48337910509F408C68537910509F46F
:104F90006DC60C9421348737910509F4B2C6883761
:104FA000910511F00C94213481E08093A505809344
:104FB000A4050E94AF8A0C942D34813921E0920718
:104FC00009F4AEC70CF08EC0833D910509F4B2C759
:104FD0000CF040C0883C910509F4F8C6CCF4813946
:104FE000910509F498C654F48D37910509F411C55B
:104FF0008C38910509F4BCC40C9421348B3991058B
:1050000009F4E1C48E3B910509F4CBC40C9421341E
:105010008C3C910509F466C754F4893C910509F468
:105020001FC78B3C910509F43EC70C9421348D3C7D
:10503000910509F45AC78E3C910511F00C94213466
:1050400065E4C62E63E0D62E77E5E72E76E0F72EF0
:1050500010E054C78C32A1E09A0711F40C94E330AD
:10506000F4F4823E910509F4CBC754F48C3D9105CC
:1050700009F463C78D3D910509F46CC70C94213484
:105080008831E1E09E0711F40C944C30823291405B
:1050900011F00C9421340E9458B20C942D348F32AC
:1050A00021E0920711F40C942F326CF48D32A1E0C0
:1050B0009A0711F40C94F8308E32914011F40C944C
:1050C000EB310C9421348033E1E09E0711F40C9411
:1050D00078318039914011F00C9421340F94A8223A
:1050E0000C942D34873F21E0920711F40C941C336B
:1050F0000CF04DC0853AA1E09A0711F40C944432AB
:105100001CF58C39E1E09E0711F40C9439326CF4F3
:10511000823921E0920711F40C9432328A3991409D
:1051200011F40C942D340C9421348D39A1E09A079C
:1051300011F40C940734843A914011F00C9421340A
:105140000E94E8E20C942D34843FE1E09E0711F4C4
:105150000C9416336CF48C3A21E0920711F40C9401
:10516000A732863E914011F40C94AA320C9421345B
:10517000853FA1E09A0711F40C941933863F9140C2
:1051800011F00C9421340E94E5BA0C942D348E3B1E
:10519000E2E09E0711F40C94B7331CF5883522E049
:1051A000920711F40C943D336CF4883FA1E09A0708
:1051B00011F40C9424338C30924011F40C94353358
:1051C0000C9421348B35E2E09E0711F40C944033AB
:1051D0008D3B924011F00C9421340E94A5D20C9486
:1051E0002D34843823E0920711F40C94BD336CF411
:1051F0008335A3E09A0711F40C94BA338C369340AC
:1052000011F40C942D340C942134873EE3E09E0776
:1052100011F40C94F933883EF3E09F0711F40C94D9
:105220001E34803A934011F00C9421342091FC04F8
:105230003091FD0490917016926090937016C901A0
:105240000E9452CC0C942D348091D70884FF02C068
:105250000C9410378091D90887FF02C00C94103746
:105260008091DA08837011F00C9410370C942C376D
:105270000E940CC90C942D340E9457C8809170165E
:10528000877F809370160C942D34803209F410823D
:10529000319680818111F9CF60E08091FC0490917A
:1052A000FD040E94A2CC109264060C942D3483E578
:1052B0000E942DDC882321F00E9475DB0E94BD5BDB
:1052C00084E50E942DDC8823A9F00E9475DB6B0128
:1052D0007C010F944C18C092EB12D092EC12E09229
:1052E000ED12F092EE12CD28CE28CF2819F081E0F1
:1052F00080930A0B8091FE098823E9F080E090E01A
:10530000A0EAB1E489839A83AB83BC831C8E1D8E93
:105310001E8E1F8E18A219A21AA21BA220E0AE0197
:105320004F5F5F4FBE01645E7F4FCE0180960E944B
:10533000DDDE0C942D340E940539882381F00E9413
:1053400068C80E94293984EE95E00E940DC8109229
:10535000DB081092DC081092DD081092DE0861E094
:1053600080E89CE30E94C5DE43E55CE367E578E006
:1053700085E00F94804D0F9412020C942D3480918F
:10538000701682FF03C08B7F809370160E94E9D451
:105390000C942D348091701683FD02C00C942D3432
:1053A00083E50E942DDC81110C943A370C942D3446
:1053B00083E40E94E4DB8823C1F18DE698E00F943A
:1053C000B45A8091D417882339F1BE016F5F7F4FA3
:1053D00081ED97E10E94A3698E010F5F1F4FD801F5
:1053E0008D918D01882319F00E94873BF8CFCE0163
:1053F00001960E9424CC8091C80A882389F080E21B
:105400000E94873B08EC1AE0F80181918F01882304
:1054100039F00E94873BF8CF83E698E00F94B45AA6
:105420008AE00E94873B0C942D3483E50E942DDC9A
:10543000882309F10E9485DB182F90E0CD970CF0AE
:105440001CE3109372030F9450496B017C01212FD0
:1054500030E0A8EEB3E00F94F470C60ED71EE81E3D
:10546000F91EC0926E03D0926F03E0927003F09227
:1054700071030C942D340E94E6C70C942D34809156
:10548000FC049091FD040E9452CC0C942D34809128
:10549000701683FD02C00C942D340F94BD50809182
:1054A000FC049091FD040E94B0CB0C942D348091AB
:1054B000701682FD0F94A8228091701683FD02C0A1
:1054C0000C942D3460E080E50E9449DC182F682F91
:1054D0008091FC049091FD040E94A2CC83E50E947F
:1054E0002DDC882321F00E9475DB0E94BD5B0E94A9
:1054F00068C811110C942D340E9429390C942D3454
:105500000E94ED5A0C942D340F9418186C8F7D8FD7
:105510008E8F9F8FBE016F5F7F4FCE014C960E9492
:105520000E5A60E0CE0101960F94D21C0F94AE5B30
:10553000BE016F5F7F4F8CE798E00F94975B8AE026
:105540000E94873B0C942D3483E50E942DDC882338
:1055500011F40C942D340E9485DBF82E6DE070E080
:1055600080E50E943ADC8C0197FF02C00C942D3438
:10557000873031F0893041F4F0924C0B0C942D348B
:10558000F0924D0B0C942D3460E089E40E9449DCCC
:1055900081110C943F37802F0F94435C81114DC5CE
:1055A0000C943F3780E50E94E4DB882311F40C94CF
:1055B0002D340E9485DB90E08536910510F084E65D
:1055C00090E0809364060C942D340E9429390C9449
:1055D0002D340F945C200C942D3460E070E083E552
:1055E0000E943ADC8E34910531F40F94CD200F9453
:1055F00012020C942D348FED98E00F94B45A609100
:1056000094057091950586ED98E00F946C5B609120
:1056100096057091970589EC98E00F946C5B60910A
:105620009405709195058091960590919705681B5A
:10563000790B80910A0B815021E030E0823010F02C
:1056400020E030E0621B730B8EEB98E00F946C5BF4
:105650008AE00E94873B8FED98E00F94B45A8091C6
:10566000980590919905A0919A05B0919B058C8F12
:105670009D8FAE8FBF8FBE016F5F7F4FCE014C9667
:105680000E940E5ABE016F5F7F4F81EB98E00F942E
:10569000975B80919C0590919D05A0919E05B0918E
:1056A0009F058C8F9D8FAE8FBF8FBE016F5F7F4F29
:1056B000CE014C960E940E5ABE016F5F7F4F81EA69
:1056C00098E00F94975B20E030E04AE754E4609163
:1056D000A0057091A1058091A2059091A3050F945A
:1056E0004872AB01BC0189E898E00F94795B8DE6C4
:1056F0000E94873B8AE00E94873B0C942D34809166
:10570000161283FF02C00C942D340E94B1CF87FF84
:1057100002C00C942D3483E50E942DDC882379F09F
:105720000E94ADDB0F94BA72CB010E94D06E0F9431
:10573000685C811104C00F945C200F9412020F94D6
:105740003F620C942D348091161283FF02C00C949A
:105750002D340E94B1CFF82E87FF02C00C942D3457
:1057600083E50E942DDC082F811106C082E50E948E
:105770002DDC182F882381F10E94ADDB0F94BA72C3
:10578000CB010E94D06E0F94685C882311F40C94B6
:105790004D370E9429396091291570912A15072EDD
:1057A000000C880B990B0F94516A4B015C014090DF
:1057B0002515509026156090271570902815A30187
:1057C00092010F94AE73181614F40C946D370023E5
:1057D00011F40C94533711E00F943F62112311F42C
:1057E0000C942D3440E0602F8F2D0E94E4700C94B7
:1057F0002D340E94B1CF182F87FD0AC08CEB9EE29A
:105800000F94B45A812F0E94E06E8AE00E94873B79
:10581000F8A9F093AE190C94E73760E080E50F9497
:105820008A03182F823010F00C942D3481E40E94EA
:10583000E4DB882321F060914C0B70E002C06FEF35
:1058400070E083E50E94C2D5E12FF0E0E45BF44F05
:105850008F3F910519F010F08FEF90E080830C944A
:105860002D3460E080E50F948A03823010F00C94B0
:105870002D34E82FF0E0E45BF44F10820C942D34CB
:105880008EE40E942DDC882309F4E7C70E9475DBB3
:105890006093F8047093F9048093FA049093FB04E6
:1058A000DCC783E50E94E4DB882331F060E083E518
:1058B0000F948A03809316120F94AE5B8CEE98E0DF
:1058C0000F94B45A80911612882369F181E5E82E6D
:1058D0008CE0F82E00E010E020E08091161290E0BD
:1058E000A0E0B0E0002E04C0B695A79597958795E7
:1058F0000A94D2F780FF0EC0DD24D394D20E222367
:1059000019F08CE20E94873BF701859194910F94E6
:10591000B45A2D2D0F5F1F4F32E0E30EF11C0530FE
:105920001105D9F67DCD8EE494E478CD83E50E940F
:105930002DDC882371F00E9485DB282F30E02D3389
:1059400031051CF48093000288C78CE38093000229
:1059500084C70F94AE5B4091000250E060E070E0BD
:1059600083EF98E00F945B5B8AE00E94873B75C7EA
:105970008091161283FD71C783E50E942DDC882378
:1059800039F00E94ADDB0F94BA72CB010E9467DB45
:105990000F94685C811161C70F945C200F94120210
:1059A0005CC78091161283FD58C783E50E942DDCE9
:1059B000182F81110C94703782E50E942DDC811123
:1059C0000C9470374AC783E50E942DDC882309F4C4
:1059D00044C70E9485DB182F90E0CD970CF01CE3A4
:1059E000109377030F9450496B017C01212F30E015
:1059F000A8EEB3E00F94F470C60ED71EE81EF91E91
:105A0000C0927303D0927403E0927503F092760310
:105A100024C70E94E9D421C780917D038F7D8061D6
:105A200080937D031AC780917D038F7E806280936F
:105A30007D0313C70E94C4D610C783E50E94E4DB30
:105A4000882309F40AC70F94504960939F197093F3
:105A5000A0198093A1199093A2190E94ADDB20E0B8
:105A600030E04AE754E40F94B06A0F94C172609337
:105A700078037093790380937A0390937B03EDC648
:105A80000E94B1CF87FDE9C69091D70894FD04C06C
:105A90009091D90897FF0AC015E4C12E13E0D12ECA
:105AA00007E1E02E02E1F02E10E009C09091DA0843
:105AB000937091F7682F81E00E941AD7CEC6D60165
:105AC0008D916D010E942DDC882309F459C013309B
:105AD00009F04FC00E94ADDB4B015C0120E030E0DB
