:100000000C94D61F0C9407200C9407200C94072006
:100010000C9407200C9407200C9407200C940720C4
:100020000C9407200C9407200C9407200C940720B4
:100030000C9407200C9407200C9407200C940720A4
:100040000C9407200D94B3240C9407200C940720E3
:100050000C9407200C9407200C9452F90C94A4D50E
:100060000C9407200C94623E0C94583E0C9407208C
:100070000C9407200C9407200C9407200C94072064
:100080000C9407200C9407200C9407200C94072054
:100090000C9407200C9407200C9407200C94072044
:1000A0000C9407200C9407200C9407200C94072034
:1000B0000C9407200C9407200C9407200C94072024
:1000C0000C9407200C9407200C9407200C94072014
:1000D0000C9407200C9407200C9407200C94072004
:1000E0000C940720983E9E3EB03EC03EC83EF83E6F
:1000F000CC3EF83ED03ED43EF83ED83EDC3EE03E1C
:10010000E93EF83EF43E7102BF0223026302AF01F2
:10011000E9011501AD017B019B01DD01B50139024A
:100120003701F10199015902B7013D018F024D01DB
:10013000B30163017702BB021B01B70133013D022A
:10014000E5010702E301C1025D011701B702510297
:100150001102C3028D01650243014F021F02B70263
:100160005B025F0219019502790193024102930239
:1001700093029302930293029302930293029302D7
:1001800093029302930293029302930293029302C7
:1001900093029302930293029302930293029302B7
:1001A00093026D01930293029302930293029302CE
:1001B00093029302690293029302930293029302C1
:1001C000930293029302930293020F015702084A8B
:1001D000D73B3BCE016E84BCBFFDC12F3D6C74315B
:1001E0009ABD56833DDA3D00C77F11BED9E4BB4CB2
:1001F0003E916BAAAABE000000803F05A84CCDB27C
:10020000D44EB93836A9020C50B9918688083CA65C
:10021000AAAA2ABE000000803F000C94D6660D9466
:10022000F82C0C9499B20C944EB20D947A030D9460
:10023000E6100D9455110D94730D0D9435220C9408
:10024000E0670C94366A0C949BB20C943C6A0C9454
:1002500016870C94688A0C940A820D942E1B0D94B8
:100260000F240D94EE010D94790D0D947B1E0D94C9
:100270004F0D0D9415240C94A58B0D94530D0C94D7
:10028000D43E0C9422B70D941E110C940F7C0D9447
:10029000CE1E0C9457E80C944E660D945D0D0D9493
:1002A000381B0D941F210C949B7B0C94F43E0C94F2
:1002B000E48A0C94426A0D94E21B0D94DC100D94B8
:1002C000331B0C9408670D94650D0D94D61B0C948C
:1002D000507D0D94DE010C94EF660D94DB2C0D9493
:1002E000F4010C94B03E0C9412820D94D6010C943F
:1002F000246A0D94142B0D947D030C9487660C9442
:100300007CB20C946C670C94CC3E0C94E57B0D9401
:10031000CE010C94306A0C94C03E0D940A110C94DA
:100320001E6A0C9410820C941B670C944AD50D9491
:10033000E2010D94420D0D9499030D94EC030C947D
:10034000047C0D94AC1B0C94D9860C94536C0C94C7
:100350006D6A0C942E6B0C94F48D0D9486030D94A1
:1003600074030D9498200D94610D0D9483030D94E6
:10037000860D0D94EA010D9479200C943BFE0C94AB
:100380006A7D0C9471B20C94D6830D94FA450C944A
:1003900054900C94C83E0D9411240C944E6A0D9404
:1003A000F1010C94CCFC0D94DA010D949E190C947F
:1003B000A17B0C9447670C94137C0D9480030C94E0
:1003C000F48A0C94376E0D94CD100D94810D0C941D
:1003D000EE680D9477030C9477E80C9426660C94E1
:1003E000486A0D943E0D0D94861E0C94983E0C9414
:1003F000A3670C949E7B0C94E54B0D949E2A0C9461
:10040000A4660C940F660C944ED60D94A42A0D94F9
:10041000C8100C94298A0D94B61B0C940C820D9470
:1004200019200D94F8100D94DC450D94C6010C9420
:100430004A7F0D94FE230C94EC8A0C9425D60D94DF
:1004400037110C94126A0D9471030D9452200C9480
:10045000F83E0D94641E0C94BD660D94DC1B0C9448
:100460008B670C9424700D94481D0D94241B0C94E0
:100470002A6A0D944C0D0C945AFD0D947D0D0D942B
:1004800033200D94E12C0D94611A0C94878A0C94FE
:100490002E670D945A200D94F81F0C94D03E0D94A5
:1004A0002D110D94F0100C94DB8A0C9497B20D94DE
:1004B0004A2B0D94480D0D9441110C94DC670D945A
:1004C0004B110C942BA10D948E030D9414110D94CB
:1004D000F7010D94B42C0D94D2010C94E93E0D94C7
:1004E00013240D948B030C940E820C94EF6D0D94D9
:1004F0006B0D0D94CA010D94E6010D94A12A0C9484
:1005000097670D940D240C94026C0C9421DE0D94CD
:10051000291B0C94186A0C94E64B0C943D660D94C0
:10052000570D0C9489660D944D2B0D94A52C0C94AD
:10053000D77F0D94D01B0C9487B20C94BCB40C9450
:10054000906C0C94F07B0C9459670C944A8C0C942E
:1005500095B30D948F1F0C94DC3E0D94B11B0C943D
:10056000E94B0C9474D50C94E03E0C94D83E0D9459
:100570005F110C94446C0D946F0D0C94A6FF0D94B8
:100580006E030D94D2100D9400110D94E81B0C9481
:100590009E3E0C94C3F24E414E494E495459494E29
:1005A00046CDCCCC3D0AD7233C17B7D13877CC2BDE
:1005B000329595E6241FB14F0A000020410000C883
:1005C0004200401C4620BCBE4CCA1B0E5AAEC59D04
:1005D0007400407A10F35A00A0724E18090010A55A
:1005E000D4E80000E87648170000E40B540200004D
:1005F000CA9A3B000000E1F50500008096980000D3
:100600000040420F000000A08601000000102700FB
:10061000000000E803000000006400000000000A81
:1006200000000000000100000000002C76D888DCEB
:10063000674F0823DFC1DFAE59E1B1B796E5E3E4C8
:1006400053C63AE651997696E8E6C28426EB898C41
:100650009B62ED407C6FFCEFBC9C9F40F2BAA56FA3
:10066000A5F490055A2AF75C936B6CF9676DC11B72
:10067000FCE0E40D47FEF520E6B500D0ED902E033A
:1006800000943577050080841E080000204E0A0083
:100690000000C80C333333330F986E12831141EFCF
:1006A0008D2114893BE65516CFFEE6DB18D1844B2D
:1006B000381BF77C1D901DA4BBE424203284725E9D
:1006C000228100C9F124ECA1E53D27434F4D4D5552
:1006D0004E49434154494F4E0044525952554E00E1
:1006E0004552524F5253004543484F0047322F471F
:1006F000332062616420706172616D65746572732C
:100700000A00536C6565702E2E2E00206F66200047
:100710004D424C2047323920706F696E7420004A78
:10072000206F7574206F662072616E6765202830B7
:100730002D0049206F7574206F662072616E6765A9
:100740002028302D004D6573682070726F62696ECD
:100750006720646F6E652E0A005374617274206D99
:100760006573682070726F62696E6720776974685C
:100770002022473239205331222066697273742E49
:100780000A004732380A4732392053320068617311
:10079000206E6F20646174612E0A004D65736820BD
:1007A000426564204C6576656C696E672000532055
:1007B0006F7574206F662072616E67652028302D1A
:1007C00035292E0A004D65736820706F696E74209C
:1007D00063616E6E6F74206265207265736F6C76F4
:1007E00065640A004E6F204D6F76652E00456E647D
:1007F0002066696C65206C6973740A0042656769DC
:100800006E2066696C65206C6973740A00526573AA
:10081000756D696E6720534400286E6F2066696CA1
:1008200065290043757272656E742066696C653A5D
:1008300020005072696E742074696D653A20000A58
:1008400053746174733A2046696C616D656E7420EF
:10085000757365643A20002C204C6F6E6765737465
:10086000206A6F623A2000546F74616C2074696D65
:10087000653A20002C204661696C65643A20002CA2
:100880002046696E69736865643A20005072696E2B
:1008900074733A200053746174733A200045202524
:1008A000530044454255473A004D313133205300FF
:1008B00042656420436F6F6C696E672E2E2E004276
:1008C00065642048656174696E672E2E2E00353090
:1008D00030205375506552204F46462E0043484104
:1008E0004D4245525F54454D504552415455524535
:1008F000004D4F54494F4E5F4D4F444553005448AF
:1009000045524D414C5F50524F54454354494F4E10
:10091000004155544F5245504F52545F53445F531A
:1009200054415455530050524F4D50545F535550FD
:10093000504F525400454D455247454E43595F5024
:10094000415253455200434153455F4C4947485437
:100950005F4252494748544E45535300544F47470E
:100960004C455F4C494748545300534F46545741F8
:1009700052455F504F574552004255494C445F50D5
:10098000455243454E54004C4556454C494E475FF1
:1009900044415441005A5F50524F42450041555422
:1009A0004F4C4556454C005052494E545F4A4F42B9
:1009B0000050524F4752455353004155544F5245F2
:1009C000504F52545F54454D5000564F4C554D4575
:1009D000545249430042494E4152595F46494C45A1
:1009E0005F5452414E534645520053455249414C83
:1009F0005F584F4E5F584F4646004649524D57414B
:100A000052455F4E414D453A4D61726C696E2032E0
:100A10002E302E345F44573620544D334420355306
:100A20004D444E4E20534F555243455F434F44452E
:100A30005F55524C3A68747470733A2F2F6769741B
:100A40006875622E636F6D2F496E73616E6974797C
:100A50004175746F6D6174696F6E2F4D61726C6951
:100A60006E2F747265652F437265616C6974794489
:100A700077696E5F322E302050524F544F434F4CA7
:100A80005F56455253494F4E3A312E30204D414327
:100A900048494E455F545950453A353030205375DA
:100AA0005065522045585452554445525F434F5566
:100AB0004E543A3120555549443A63656465326174
:100AC00032662D343161322D343734382D3962316C
:100AD000322D6335356336326633363766660A0043
:100AE0002F2F20004D31343520533C696E646578DA
:100AF0003E206F7574206F662072616E67652028D6
:100B0000302D31290A0020466C6F773A2000507250
:100B10006F7465637465642050696E0A004D424CC1
:100B20002041646A757374205A0020643A00206979
:100B30003A0020703A006469730043290A00616238
:100B40006C656420286D696E2074656D70200043AB
:100B50006F6C64206578747275646573206172656A
:100B6000200046696C616D656E742072756E6F75DC
:100B7000742064697374616E636520286D6D293A11
:100B8000200046696C616D656E742072756E6F75BC
:100B90007420004F666673657473204170706C69D1
:100BA0006564004572723A20546F6F20666172214D
:100BB00000546F6F206661722066726F6D207265DF
:100BC000666572656E636520706F696E740A0045B4
:100BD0004550524F4D204F4B0A003F4B2076616CE1
:100BE0007565206F7574206F662072616E67652071
:100BF00028302D3130292E0A00416476616E6365FC
:100C0000204B3D00506F7765722D6C6F73732072AF
:100C100065636F766572792000E706370CE006D9C8
:100C200006CB06554E4B4E4F574E2053544154451C
:100C30000047434F44455F494E464F004C43445F95
:100C400050415553455F524553554D450046494C1B
:100C5000414D454E545F52554E4F55545F434F4E94
:100C600054494E55450046494C414D454E545F52FE
:100C7000554E4F5554004D38373620526573706FBE
:100C80006E64696E672050524F4D50545F0045723C
:100C9000726F722077726974696E6720746F204575
:100CA0004550524F4D210A00627573793A207061A8
:100CB0007573656420666F7220696E7075740A00C2
:100CC000627573793A2070617573656420666F721E
:100CD00020757365720A00627573793A2070726FBD
:100CE00063657373696E670A007061757365004DA3
:100CF000363030002066696C616D656E745F7275A8
:100D00006E6F7574200066696C616D656E745F72DC
:100D1000756E6F757420540046696C616D656E74F4
:100D200052756E6F757420540053544F50504544A3
:100D30002E20005072696E7465722073746F70702B
:100D400065642064756520746F206572726F7273BC
:100D50002E2046697820746865206572726F722053
:100D6000616E6420757365204D39393920746F20A8
:100D7000726573746172742E202854656D7065728B
:100D800061747572652069732072657365742E20B5
:100D9000536574206974206166746572207265738E
:100DA00074617274696E67290A004E6F204368652A
:100DB000636B73756D2077697468206C696E65204C
:100DC0006E756D6265722C204C617374204C696E77
:100DD000653A2000636865636B73756D206D697398
:100DE0006D617463682C204C617374204C696E656E
:100DF0003A20004C696E65204E756D6265722069FF
:100E000073206E6F74204C617374204C696E652082
:100E10004E756D6265722B312C204C617374204CC1
:100E2000696E653A20004D31313000776169740A8E
:100E30000053442072656164206572726F720A000B
:100E40002121204B494C4C206361757365642062FD
:100E500079204B494C4C20627574746F6E2F706909
:100E60006E0A002121204B494C4C2063617573654B
:100E70006420627920746F6F206D75636820696EDD
:100E80006163746976652074696D65202D206375D2
:100E90007272656E7420636F6D6D616E643A2000CE
:100EA000506C6561736520526573657400505249DA
:100EB0004E5445522048414C5445440025533A2055
:100EC000255300706F7765726F6666004B494C4C16
:100ED00045442E20005072696E7465722068616C02
:100EE0007465642E206B696C6C28292063616C6CBE
:100EF0006564210A00363726033C3D380E2E303E0D
:100F0000121A1C1808440AFF43080907000124F4B8
:100F1000D43050C38E20C2A24017828B7011127A37
:100F2000910D816CD90AA861E108C7586607615123
:100F300043061E4B5D05C145A7041A411104093D36
:100F40009803713931034036DB0265339102D430A6
:100F50005402802E1D02632CEE01752AC501B028B3
:100F6000A001102781018F2564012B244B01E02271
:100F70003401AC211F018D200D01801FFC00841E57
:100F8000ED00971DDF00B81CD200E61BC600201B39
:100F9000BC00641AB200B219A8000A19A0006A18AD
:100FA0009900D117910040178B00B51684003116B7
:100FB0007E00B31579003A157300C7146F005814FA
:100FC0006A00EE1366008813630025135E00C712E3
:100FD0005B006C12570015125400C11151007011C2
:100FE0004F0021114B00D61049008D1047004610CC
:100FF000440002104200C00F4000800F3E00420F2C
:101000003C00060F3B00CB0E3800930E37005C0E01
:101010003500270E3400F30D3200C10D3100900D64
:101020003000600D2E00320D2D00050D2C00D90C66
:101030002B00AE0C2900850C29005C0C2700350C18
:1010400027000E0C2600E80B2400C40B2400A00B84
:1010500023007D0B23005A0B2100390B2100180BB4
:101060002000F80A1F00D90A1E00BB0A1E009D0AB4
:101070001D00800A1D00630A1C00470A1B002C0A81
:101080001B00110A1A00F7091A00DD091900C4092A
:101090001900AB091900920917007B0918006309B0
:1010A00017004C09160036091600200916000A0917
:1010B0001500F5081500E0081400CC081400B80865
:1010C0001400A4081400900813007D0812006B0897
:1010D00013005808120046081200340811002308B3
:1010E00011001208110001081100F0071000E007BC
:1010F0001000D0071000C0071000B0070F00A107B4
:10110000100091070E0083070F0074070F0065079A
:101110000E0057070E0049070E003B070D002E0773
:101120000E0020070D0013070D0006070D00F9063D
:101130000C00ED060D00E0060C00D4060C00C806FD
:101140000C00BC060C00B0060C00A4060B009906AF
:101150000C008D060B0082060B0077060B006C0658
:101160000B0061060A0057060B004C060A004206F7
:101170000A0038060A002E060A0024060A001A068B
:101180000A001006090007060A00FD050900F4051B
:101190000900EB050900E2050900D9050900D005A1
:1011A0000900C7050900BE050900B5050800AD0521
:1011B0000800A50509009C050800940508008C0599
:1011C0000800840508007C050800740508006C050B
:1011D0000700650508005D050700560508004E0577
:1011E00007004705070040050800380507003105DE
:1011F00007002A050700230507001C050600160541
:1012000007000F0507000805060002050700FB049C
:101210000600F5040700EE040600E8040600E204F8
:101220000700DB040600D5040600CF040600C9044D
:101230000600C3040600BD040600B7040600B1049E
:101240000500AC040600A6040600A00405009B04EB
:10125000060095040500900406008A040500850434
:101260000500800406007A0405007504050070047A
:1012700005006B04050066040500610405005C04BC
:10128000050057040500520405004D0405004804FC
:101290000500430405003E0404003A04050035043B
:1012A0000500300404002C04050027040400230476
:1012B00005001E0404001A040400160405001104AD
:1012C00004000D04040009040500040404000004E3
:1012D0000400FC030400F8030400F4030400F0031A
:1012E0000400EC030400E8030400E4030400E0034A
:1012F0000400DC030400D8030400D4030400D0037A
:101300000400CC030400C8030300C503030024F455
:1013100004D9201BC40C5C0E9804C4095F02650745
:101320007101F405F900FB04B30048048700C10310
:1013300069005803550003034500BE023A008402C9
:10134000310053022A002902250004022000E40192
:101350001C00C8011900AF01170098011400840196
:101360001300710110006101100051010E004301D2
:101370000D0036010B002B010B0020010B001501A5
:1013800009000C01090003010800FB000800F3003C
:101390000800EB000700E4000600DE000600D800AD
:1013A0000600D2000600CC000500C7000500C20000
:1013B0000500BD000400B9000400B5000400B10040
:1013C0000400AD000400A9000400A5000300A20071
:1013D00003009F0004009B00030098000300950099
:1013E000020093000300900003008D0002008B00B8
:1013F00003008800020086000200840003008100D0
:1014000002007F0002007D0002007B0002007900E4
:1014100002007700010076000200740002007200F2
:101420000100710002006F0002006D0001006C00FD
:1014300002006A0001006900020067000100660006
:10144000010065000100640002006200010061000B
:101450000100600001005F0002005D0001005C000F
:1014600001005B0001005A00010059000100580012
:101470000100570001005600010055000100540012
:101480000100530000005300010052000100510010
:101490000100500001004F0001004E0000004E000E
:1014A00001004D0001004C0001004B0000004B000A
:1014B00001004A0001004900010048000000480006
:1014C0000100470001004600000046000100450001
:1014D00000004500010044000100430000004300FB
:1014E00001004200000042000100410000004100F4
:1014F0000100400001003F0000003F0001003E00ED
:1015000000003E0001003D0000003D0001003C00E5
:1015100000003C0000003C0001003B0000003B00DC
:1015200001003A0000003A000100390000003900D3
:1015300001003800000038000000380001003700CA
:1015400000003700010036000000360000003600C1
:1015500001003500000035000000350001003400B6
:1015600000003400000034000100330000003300AC
:1015700000003300010032000000320000003200A1
:101580000100310000003100000031000100300096
:10159000000030000000300001002F0000002F008C
:1015A00000002F0000002F0001002E0000002E0080
:1015B00000002E0001002D0000002D0000002D0075
:1015C00000002D0001002C0000002C0000002C0069
:1015D00000002C0001002B0000002B0000002B005D
:1015E00000002B0001002A0000002A0000002A0051
:1015F00000002A0001002900000029000000290045
:101600000000290000002900010028000000280037
:10161000000028000000280000002800010027002A
:10162000000027000000270000002700000027001E
:101630000100260000002600000026000000260011
:101640000000260001002500000025000000250004
:1016500000002500000025000000250001002400F6
:1016600000002400000024000000240000002400EA
:1016700001002300000023000000230000002300DD
:1016800000002300000023000000230001002200CE
:1016900000002200000022000000220000002200C2
:1016A00000002200010021000000210000002100B4
:1016B00000002100000021000000210000002100A6
:1016C0000100200000002000000020000000200099
:1016D000000020000000200000002000000020008A
:1016E00001001F0000001F0000001F0000001F007D
:1016F00000001F0000001F0000001F0001001E006E
:1017000000001E0000001E0000001E000000232C30
:101710000000B8220000561800003A0F0000B80878
:101720000000B1040000710200003E0100002569C4
:101730007920256964202569682025696D2025693F
:10174000730023646566696E652044454641554CC7
:10175000545F004B6420004B6920004B7020005008
:101760004944204175746F74756E652066696E69B1
:1017700073686564212050757420746865206C61FD
:101780007374204B702C204B6920616E64204B6475
:1017900020636F6E7374616E74732066726F6D2058
:1017A00062656C6F7720696E746F20436F6E666937
:1017B0006775726174696F6E2E680A005049442023
:1017C0004175746F74756E65206661696C6564211E
:1017D0002074696D656F75740A000A20436C61732B
:1017E00073696320504944200A00204B643A20006A
:1017F000204B693A2000204B703A20000A204E6F9F
:10180000206F76657273686F6F740A002054753AA2
:101810002000204B753A2000206D61783A2000208E
:101820006D696E3A200020643A200020626961737D
:101830003A2000504944204175746F74756E6520DC
:1018400073746172740A00504944204175746F7456
:10185000756E65206661696C6564212054656D70E4
:101860006572617475726520746F6F20686967684E
:101870000A00504944204175746F74756E65206686
:1018800061696C65642120426164206578747275B9
:10189000646572206E756D6265720A004572723AF7
:1018A000207574663820666F6E74206E6F742069C0
:1018B0006E697469616C697A65642E00000C0D00B4
:1018C000FE07022603BC017FFE08FE08FE0508088D
:1018D00006000040F0C888889878100508080600BF
:1018E00000C0F88888888888F8050505060001206A
:1018F00030F830200508080600002070F82020206D
:1019000020E00509090600FF2070A8A8B8888870A3
:1019100020050606060001E08CEA8C8A0A05090902
:101920000600FFF8A88888888888A8F8050A0A06AB
:1019300000FE205050505088A8A88870030303066A
:10194000000340A040FFFFFFFFFFFFFFFFFFFFFF7F
:10195000FFFFFFFFFFFFFFFFFFFFFF000000060587
:10196000FF0107070602008080808080008003035B
:1019700003060105A0A0A005060606000050F850C9
:1019800050F8500509090600FF2070A8A07028A88B
:101990007020050707060000C8C810204098980569
:1019A000070706000040A0A040A8906801030306B6
:1019B00002058080800309090601FF2040408080E5
:1019C000804040200309090601FF8040402020207C
:1019D00040408005070706000020A8702070A8205E
:1019E0000505050600012020F8202002030306015A
:1019F000FFC04080050101060003F8020202060153
:101A000000C0C005070706000008101020404080F5
:101A1000050707060000708898A8C88870030707A4
:101A200006010040C040404040E0050707060000B6
:101A3000708808102040F8050707060000F8081015
:101A40003008887005070706000010305090F81025
:101A500010050707060000F880F0080888700507E1
:101A600007060000304080F08888700507070600F0
:101A700000F80810102020200507070600007088D5
:101A800088708888700507070600007088887808C5
:101A90001060020505060100C0C000C0C0020606B5
:101AA0000601FFC0C000C0408003050506010120FB
:101AB00040804020050303060002F800F8030505F6
:101AC000060101804020408005070706000070885D
:101AD00010202000200507070600007088B8A8B86D
:101AE0008070050707060000708888F888888805D8
:101AF0000707060000F04848704848F00507070649
:101B0000000070888080808870050707060000F05C
:101B10004848484848F0050707060000F88080F06C
:101B20008080F8050707060000F88080F08080803C
:101B300005070706000070888080988870050707F1
:101B4000060000888888F88888880307070601004F
:101B5000E04040404040E005070706000038101014
:101B6000101090600507070600008890A0C0A090A4
:101B700088050707060000808080808080F80507C0
:101B80000706000088D8A888888888050707060007
:101B9000008888C8A898888805070706000070880C
:101BA0008888888870050707060000F08888F0801C
:101BB000808005070706000070888888A89068055F
:101BC0000707060000F08888F0A090880507070640
:101BD000000070888070088870050707060000F80C
:101BE00020202020202005070706000088888888FC
:101BF000888870050707060000888888885050206C
:101C000005070706000088888888A8A850050707E8
:101C100006000088885020508888050707060000C5
:101C200088885020202020050707060000F80810AB
:101C3000204080F80309090601FFE0808080808051
:101C40008080E00507070600008040402010100853
:101C50000309090601FFE020202020202020E005C4
:101C600003030600052050880501010600FEF80365
:101C700003030601058040200505050600007008E5
:101C80007888780507070600008080F0888888F04B
:101C900005050506000070808088700507070600AE
:101CA000000808788888887805050506000070888F
:101CB000F08070050707060000304840E0404040D3
:101CC0000507070600FE70888888780870050707F2
:101CD0000600008080F088888888030707060100D6
:101CE0004000C0404040E00409090601FE100030F9
:101CF0001010101090600507070600008080889083
:101D0000E09088030707060100C04040404040E0E3
:101D1000050505060000D0A8A8A8A8050505060029
:101D200000B0C88888880505050600007088888886
:101D3000700507070600FEF0888888F08080050798
:101D4000070600FE788888887808080505050600DB
:101D500000B0C88080800505050600007880700806
:101D6000F00507070600002020F8202020180505B0
:101D70000506000088888898680505050600008823
:101D8000888850200505050600008888A8A8500509
:101D9000050506000088502050880507070600FE4C
:101DA00088888850204080050505060000F810202E
:101DB00040F80309090601FF2040404080404040B0
:101DC000200109090602FF80808080808080808059
:101DD0000309090601FF8040404020404040800543
:101DE000030306000248A890FF4732362048656189
:101DF00074696E67204E6F7A7A6C650047323620C0
:101E000048656174696E6720426564005761697452
:101E1000696E6720666F72206865617475702E0A3E
:101E2000004669786564204C656E6774682050725E
:101E3000696D6500446F6E65205072696D696E67EB
:101E4000004D616E75616C207072696D696E672EF0
:101E50002E2E004732362043616E63656C65640048
:101E60004C656176696E6720473236003F53706576
:101E700063696669656420582C5920636F6F7264CA
:101E8000696E617465206F7574206F6620626F756E
:101E90006E64732E0A003F285229657065617420B4
:101EA00076616C7565206E6F7420706C61757369F6
:101EB000626C653B206D75737420626520617420CF
:101EC0006C6561737420312E0A003F53706563693D
:101ED00066696564206E6F7A7A6C652074656D70D2
:101EE00065726174757265206E6F7420706C6175B7
:101EF0007369626C652E0A003F5370656369666999
:101F000065642066696C616D656E742073697A65BD
:101F1000206E6F7420706C61757369626C652E0A37
:101F2000003F537065636966696564207072696D0E
:101F300065206C656E677468206E6F7420706C61CC
:101F4000757369626C652E0A003F5370656369663C
:101F5000696564206E6F7A7A6C652073697A652092
:101F60006E6F7420706C61757369626C652E0A0007
:101F70003F52657472616374696F6E204D756C7445
:101F800069706C696572206D757374206265207369
:101F900070656369666965642E0A003F5370656306
:101FA00069666965642052657472616374696F6EF5
:101FB000204D756C7469706C696572206E6F742049
:101FC000706C61757369626C652E0A003F537065B1
:101FD000636966696564206C61796572206865690A
:101FE000676874206E6F7420706C61757369626CC1
:101FF000652E0A0043292E0A003F53706563696607
:10200000696564206265642074656D7065726174D1
:10201000757265206E6F7420706C61757369626C87
:1020200065202834302D0047323620737461727475
:10203000696E672E2E2E0A0052756E6F75742044DD
:10204000697374206D6D004C6F6164206D6D005577
:102050006E6C6F6164206D6D0046696C2E20446962
:10206000612E004520696E206D6DC2B30065636806
:102070006F3A004572726F723A000A4D656173756E
:1020800072656420706F696E74733A0A003878382C
:10209000206D6573682E205A206F66667365743AEA
:1020A00020005072696E74696E67204F626A6563C2
:1020B00074002553202569002F2F616374696F6EAA
:1020C0003A00626567696E0073686F7700446973F0
:1020D00061626C6552756E6F7574005075726765DC
:1020E0004D6F726500486F74656E6420746F6F2069
:1020F000636F6C640A0053656E64204D3130382084
:10210000746F20726573756D650A0052656865614C
:102110007420446F6E6500526568656174696E670E
:102120000052656865617400486561746572546940
:102130006D656F75740053656E64204D31303820C5
:10214000746F2068656174206E6F7A7A6C650A001E
:102150004E6F7A7A6C65205061726B6564007061B5
:1021600075736564004D3630303A20546F6F2043EC
:102170006F6C6400726573756D656400526573758C
:102180006D696E670043616E63656C204F626A65BE
:10219000637400416476616E636564205365747492
:1021A000696E677300486F6D696E672058595A00F1
:1021B0005A2056616C756500496E64657820590037
:1021C000496E64657820580053746F7265205365BA
:1021D0007474696E6773004C6F6164205365747426
:1021E000696E6773004C6576656C20436F726E652F
:1021F00072730046616465204865696768740045CC
:10220000646974204D657368004C6576656C204286
:102210006564004E4F005945530043616E63656C21
:10222000204F626A656374203D0046616E205370E2
:1022300065656400526573746F72652044656661FC
:10224000756C747300507265686561742041425307
:1022500020436F6E66005072656865617420504C53
:102260004120436F6E66004D333033205531204599
:1022700025692053256900504944204175746F74C5
:10228000756E65202A005049442D44202A0050498B
:10229000442D49202A005049442D50202A0020086E
:1022A0002046616374002008204D617800200820DA
:1022B0004D696E004175746F74656D70005654728F
:1022C0006176204D696E00566D696E00566D6178BD
:1022D000204500566D6178205A00566D617820596E
:1022E00000566D6178205800416D617820450041AD
:1022F0006D6178205A00416D6178205900416D610F
:1023000078205800412D54726176656C00412D5241
:1023100065747261637400416363656C004F75742A
:10232000616765205265636F7665727900436F6EF1
:1023300066696775726174696F6E003F0043616E14
:1023400063656C004D657368204C6576656C696EDD
:1023500067004578747275646572730074696E798C
:102360006D616368696E657333642E636F6D0035EC
:10237000303020537550655200323032302D3032BB
:102380002D3238005072696E746572205374617416
:102390007300546865726D6973746F727300426F75
:1023A00061726420496E666F005072696E74657266
:1023B00020496E666F004D313030300053746F70BD
:1023C000205072696E7400526573756D652050728D
:1023D000696E74004D3231004368616E6765204D4F
:1023E000656469610041626F7574205072696E7432
:1023F0006572004E6F204D656469610054756E65AD
:1024000000496E666F2053637265656E0053746198
:102410007274205072696E740043616E6E6F742026
:10242000656E746572207375626469723A20000289
:102430002E2E006F70656E00545249474745524535
:10244000440066696C616D656E74007A5F6D696EDB
:1024500000795F6D696E00785F6D696E005265701E
:102460006F7274696E6720656E6473746F70207329
:1024700074617475730A0020436F756E7420583A46
:10248000005761726E696E673A20486F6D696E67BA
:102490002042756D702044697669736F72203C200C
:1024A000310A0000000000000000000000000000F1
:1024B00000FF430000FA430000FA430000484200D6
:1024C000004842000080400202040000A0400000DA
:1024D000A04000000040FFFFFF00000001000000DE
:1024E0000100008000555555000000400033333393
:1024F00000AAAA2A004992240000002000C7711CEB
:102500000099991900D1451700555515003BB11395
:10251000002449120011111100000010000F0F0FCC
:1025200000E3380E0043790D00CCCC0C00C3300C16
:1025300000E8A20B0064210B00AAAA0A00703D0A61
:10254000009DD80900427B090092240900DCD308D1
:1025500000888808001042080000000800F0C10749
:10256000008787070075500700711C07003EEB06C7
:1025700000A1BC06006990060066660600703E0673
:10258000006118060017F4050074D105005BB00562
:1025900000B29005006272050055550500783905B6
:1025A00000B81E0500050505004EEC040087D404A4
:1025B00000A1BD040090A7040049920400C17D045D
:1025C00000EE690400C7560400444404005C320471
:1025D000000821040041100400000004003FF00343
:1025E00000F8E0030026D20300C3C30300CCB50308
:1025F000003AA803000A9B0300388E0300C0810341
:10260000009F750300D0690300505E03001D530353
:102610000034480300913D030033330300162903BF
:1026200000381F030097150300300C030003030359
:10263000000BFA020049F10200BAE802005CE00275
:10264000002DD802002DD0020059C80200B0C002EF
:102650000031B90200DAB10200AAAA0200A0A30266
:1026600000BC9C0200FA9502005C8F0200DF880229
:102670000082820200457C02002776020027700259
:1026800000436A02007C640200D05E02003F5902EF
:1026900000C85302002568753A2530326875002558
:1026A0006875642025303268753A253032687500C7
:1026B00020202020202020004D6564696120526583
:1026C0006D6F766564004D6564696120496E736560
:1026D00072746564001FE02010201020101020107C
:1026E000202010201030300840048003001FE03FFD
:1026F000F03FF03FF01FE01FE03FF03FF03FF00FF2
:10270000C0078003003FFFF038007030FC3020FC31
:10271000102078102030102C00D02E31D02F7BD0FC
:102720002F7BD02E31D02C00D020301020781020DC
:10273000FC1030FC303800703FFFF03FFFF03800F5
:10274000703186302387102787902F87D02F03D0B2
:102750002030102078102078102030102F03D02F38
:1027600087D02787902387103186303800703FFF4D
:10277000F01FFFF81FFFF804104002082002082095
:1027800004104008208010410010410008208004FF
:1027900010400000001FFFF81FFFF8FFFFFF800040
:1027A000018E00E19F01F19381399F81F99F81F9A9
:1027B0009FB9F98F28F18038018000019FFFF991BE
:1027C00074999B06A99B54A99B56A99B54999FFF5A
:1027D000F9FFFFFF7C3C3E5E2B3D3F2F5B5D3B2CBA
:1027E0002A225C00416476616E6365204B0042657D
:1027F00064205A004D61696E00436F6F6C646F779F
:102800006E0046616E205370656564207E004261F3
:10281000627973746570205A00466C6F770020628D
:10282000797465733B2063726320004E6F204545C9
:1028300050524F4D2E0A00205200454550524F4DE8
:10284000206461746173697A65206572726F722E9B
:102850000A002073746F7265642073657474696E06
:10286000677320726574726965766564202800203C
:102870002863616C63756C6174656429210A0020AA
:10288000213D2000454550524F4D20435243206D7D
:1028900069736D61746368202D202873746F72658D
:1028A00064292000496E6465783A2000204D6172E9
:1028B0006C696E3D563736290A00454550524F4DDA
:1028C0002076657273696F6E206D69736D617463D4
:1028D000682028454550524F4D3D00454550524FC8
:1028E0004D20496E697469616C697A65640A0048B3
:1028F000617264636F6465642044656661756C74BD
:102900002053657474696E6773204C6F61646564ED
:102910000A003B200020204D363033200020204D7F
:1029200034313220530046696C616D656E742072DB
:10293000756E6F75742073656E736F723A002055F3
:102940000046696C616D656E74206C6F61642F75F3
:102950006E6C6F6164206C656E677468733A0020FA
:10296000204D393030204B004C696E65617220413A
:102970006476616E63653A0020204D343133205314
:1029800000506F7765722D4C6F7373205265636FC3
:10299000766572793A0020204D3330342050002083
:1029A000204D3330312050005049442073657474F9
:1029B000696E67733A0020460020480020204D31A0
:1029C00034352053004D6174657269616C2068650F
:1029D0006174757020706172616D65746572733AAF
:1029E000002020473239205334205A00202047321B
:1029F0003920533320490020204D343230205300F9
:102A00004D65736820426564204C6576656C696E1F
:102A1000673A0020204D323036205800486F6D65EF
:102A2000206F66667365743A00204A0020204D329C
:102A30003035204200416476616E6365643A20421D
:102A40003C6D696E5F7365676D656E745F74696D0B
:102A5000655F75733E20533C6D696E5F66656564A6
:102A6000726174653E20543C6D696E5F747261766C
:102A7000656C5F66656564726174653E204A3C6A98
:102A8000756E635F6465763E0020204D32303420E1
:102A90005000416363656C65726174696F6E2028D4
:102AA000756E6974732F7332293A20503C707269C5
:102AB0006E745F616363656C3E20523C7265747234
:102AC0006163745F616363656C3E20543C74726142
:102AD00076656C5F616363656C3E0020204D32302B
:102AE000312058004D6178696D756D2041636365D3
:102AF0006C65726174696F6E2028756E6974732FCE
:102B00007332293A0020204D3230332058004D6175
:102B100078696D756D206665656472617465732092
:102B200028756E6974732F73293A00537465707336
:102B30002070657220756E69743A0020204D323025
:102B4000302044300A0020204D3230302044002014
:102B500044697361626C65640A0046696C616D6505
:102B60006E742073657474696E67733A0020204D2B
:102B70003134392043203B20556E69747320696ECF
:102B80002043656C736975730A0020286D6D2900F8
:102B90002020473231202020203B20556E6974735D
:102BA00020696E206D6D00486F6D696E672046610B
:102BB000696C6564000000FA430000C843000070BF
:102BC00041000096420000A0420000A0420000C860
:102BD000430000BE42E8030000BC020000640000A5
:102BE000004B00000020746F6F206C6F6E672065D3
:102BF0007874727573696F6E2070726576656E7425
:102C000065640A0020636F6C642065787472757364
:102C1000696F6E2070726576656E7465640A00FD7A
:102C200055555555555FFFFFFFFFFFFFFFFFFFFEA7
:102C300000000000003FFFFFFFFFFFFFFFFFFFFD61
:102C4000000007FFFFFFFFFFFFFFFFFFFFFFFFFE8B
:102C500007C00555555555555FFFFFFFFFFFFFFCAA
:102C60000A200600000000003FFFFFFFFFFFFFFEFD
:102C7000141005000007FFFFFFFFFFFFFFFFFFFC31
:102C800028080607C00555555555555FFFFFFFFE3F
:102C90005404040A200600000000003FFFFFFFFC70
:102CA000600406141005000007FFFFFFFFFFFFFE92
:102CB00050040428080607C00555555555555FFCB6
:102CC0006004065404040A200600000000003FFED1
:102CD00054041C60040614100500000000001FFCD2
:102CE00028082E50040428080607C00001F03FFE03
:102CF0001410546004065404040A200002081FFC47
:102D00000A206654041C60040614100005043FFEEB
:102D100007C05428082E5004042808000A021FFC8B
:102D200000002E14105460040654040015013FFEE8
:102D300000001C0A206654041C60040018011FFCDB
:102D400000000607C05428082E50040014013FFE5E
:102D500000000400002E14105460040018011FFC31
:102D6000FFFFFE00001C0A206654041C15013FFEF4
:102D7000D5555400000607C05428082A0A021FFC33
:102D800084104600000400002E14105105043FFE7C
:102D9000C41044FFFFFE00001C0A206102881FFCD3
:102DA000841046D5555400000607C05101F03FFE7F
:102DB00084104484104600000400002A00001FFC18
:102DC000C41046C41044FFFFFE00001C00003FFE7C
:102DD000841044841046D5555400000000001FFCA8
:102DE000D5555684104484104600000000003FFC76
:102DF000FFFFFCC41046C41044FFFFFFFFFF9FFE0F
:102E0000000006841044841046D555555555BFFD25
:102E1000555554D5555684104484104104109FFFD5
:102E2000FFFFFCFFFFFCC41046C410410411BFFFAC
:102E3000FFFFFE00000684104484104104109FFF31
:102E4000FFFFFD555554D5555684104104109FFF82
:102E5000FFFFFFFFFFFCFFFFFCC410410411BFFF99
:102E6000FFFFFFFFFFFE00000684104104109FFFDC
:102E7000FFFFFFFFFFFD555554D555555555BFFF75
:102E8000FFFFFFFFFFFFFFFFFCFFFFFFFFFF9FFFB5
:102E9000FFFFFFFFFFFFFFFFFE00000000003FFFFE
:102EA000FFFFFFFFFFFFFFFFFD55555555555FFF26
:102EB000FFFFFFFFFFFFFFFFFFFFFFFFFFFFFFFF22
:102EC000FFFFFFFFFFFFFFFFFFFFFFFFFFFFFFFF12
:102ED000FFFFFFFFFFFFFFFFFFFFFFFFFFFFFFFF02
:102EE000FFFFFFFFFFFFFFFFFFFFFFFFFFFFFFE011
:102EF0002EFB7DFBFBCFC1DFBB3EC0E1FE3C1FFDD7
:102F0000EE7B39F9F3CF9EDFBB3EDFDEFCDDE7FD74
:102F1000EE3BBBF9EBD7BF5FBB5EDFDEFDEDF7FD40
:102F2000EEBBD3FAEBB73FDFBB4EDFDFFFCDF3FDE8
:102F3000EEDBC7FAEBBB7FC03B6EC0E3FF1DF3FDCA
:102F4000EECBEFFADBBB7FDFBB66DFF8FFCDF3FD37
:102F5000EEEBEFFB5B033F5FBB76DFFE7FEDF3FD48
:102F6000EEF3EFFB5B79BEDFBB7ADFDE7DEDF7FDD5
:102F7000EEF3EFFBBAFD9EDFBB7CDFDEFDCDE7FDB0
:102F8000EEFBEFFBBAFDC1DFBB7EC0E0FE1C1F1FE6
:102F9000FFFFFFFFFFFF600000000001FF40000097
:102FA000000000FF8000000000007F83CF00000CC5
:102FB000303F87FF80000C301F867980000C000FA7
:102FC0008C30C7838C30E78C30CFC7CC31F38C305A
:102FD000DCECEC33B98C30D86C6C33198C30D06CA1
:102FE0000C33198C30D86C0C33198C30DC6C0E3BE4
:102FF000198C30CF7C079F198C30C77C038F194008
:10300000000000000002600000000000061FFFFF3B
:10301000FFFFFFF8687474703A2F2F6D61726C694E
:103020006E66772E6F726700322E302E345F4457F3
:1030300036004D3130303020530070726F6D707437
:103040005F00656E64002020506C616E6E65724298
:10305000756666657242797465733A20002046721F
:103060006565204D656D6F72793A2000436F6D7014
:10307000696C65643A204D6172202038203230320C
:10308000300A00204C61737420557064617465646B
:103090003A20323032302D30322D3238207C2041EF
:1030A0007574686F723A2054696E794D616368690E
:1030B0006E657333440A00322E302E345F44573627
:1030C0000A004D61726C696E0020536F66747761FF
:1030D00072652052657365740A00205761746368D5
:1030E000646F672052657365740A002042726F77BF
:1030F0006E206F75742052657365740A00204578E0
:103100007465726E616C2052657365740A00506F4D
:1031100077657255700A006175746F25632E6700BC
:10312000473238585900446F6E65207072696E746A
:10313000696E672066696C650A004D3331004D3059
:1031400051315331383030006572726F72207772AE
:103150006974696E6720746F2066696C650A004443
:103160006F6E6520736176696E672066696C652E87
:103170000A004D3239002553202563202563202580
:103180006320256300205A3A0020593A00656E6496
:1031900073746F7073206869743A20002053697AE1
:1031A000653A200043616E6E6F74206F70656E200B
:1031B00073756264697220005344206361726420F5
:1031C0006F6B0A006F70656E526F6F742066616975
:1031D0006C65640A00766F6C756D652E696E697436
:1031E000206661696C65640A00534420696E6974E5
:1031F000206661696C0A004D3233202573004669F0
:103200006C652073656C65637465640A0046696C5F
:1032100065206F70656E65643A2000454E4420530A
:103220005542524F5554494E450A002220706F7343
:10323000002220706172656E743A2200535542522A
:103240004F5554494E452043414C4C2074617267A0
:1032500065743A2200747279696E6720746F206316
:10326000616C6C207375622D67636F64652066699D
:103270006C6573207769746820746F6F206D616E60
:1032800079206C6576656C732E204D4158206C65F5
:1032900076656C2069733A310A0044656C6574691F
:1032A0006F6E206661696C65642C2046696C653AB6
:1032B000200046696C652064656C657465643A003D
:1032C0005344207072696E74696E67206279746508
:1032D00020004E6F74205344207072696E74696EC2
:1032E000670A0057726974696E6720746F20666997
:1032F0006C653A2000667265736800646F696E677A
:10330000004E6F7720005061757365205072696EB2
:1033100074006E6F74696669636174696F6E200012
:1033200063616E63656C005072696E742041626FF8
:1033300072746564004469736D6973730055492044
:1033400041626F72746564004D323520500A4D320F
:103350003400526573756D65005549205061757371
:103360006500726573756D650053657474696E6789
:10337000732053746F7265642028003F4A206F7574
:1033800074206F662072616E67652028302E3031A0
:1033900020746F20302E33290A00204D39322058F6
:1033A0000020204D61783A200020204D696E3A209F
:1033B00000536F667420656E6473746F70733A2087
:1033C000004D32342053256C642054256C64004732
:1033D00039322E39204525730047312046256400B7
:1033E0004739322E39205A2573004731205A302070
:1033F000463230300047312058257320592573203C
:103400004633303030004D34323020532569205A55
:103410002573004D31303620502569205325690031
:103420004D31303920532569004D31393020532535
:1034300069004D32303020442573004739322E392F
:103440002045305A300A47315A320A473238523012
:103450005859004D343230205330205A3000204922
:103460006E76616C6964206578747275646572202B
:103470000070012C0190012701B0012201C0011D43
:1034800001F00118011002130130020E016002095F
:103490000190020401C002FF000003FA004003F59E
:1034A000008003F000D003EB002004E6007004E18C
:1034B00000E004DC004005D700C005D2004006CD86
:1034C00000D006C8008007C3003008BE00F008B96D
:1034D00000C009B400B00AAF00B00BAA00D00CA520
:1034E00000000EA000500F9B00C0109600501291DB
:1034F0000000148C00C0158700B0178200B0197D41
:1035000000D01B7800001E730040206E00902269DE
:1035100000F024640040275F0090295A00E02B55FA
:1035200000102E500020304B0010324600E0334196
:103530000090353C001037370070383200A0392D2C
:1035400000B03A2800A03B2300603C1E00103D194B
:1035500000903D1400103E0F00703E0A00C03E0572
:1035600000003F0000403FFBFF803FF6FFC03FF1FF
:10357000FF1000C90210012C014001220170011846
:1035800001B0010E01F00104015002FA00B002F096
:10359000003003E600D003DC009004D2007005C8C0
:1035A00000A006BE000008B400B009AA00D00BA01D
:1035B00000600E960060118C0000158200201978C2
:1035C00000C01D6E00A0226400B0275A00902C504D
:1035D0000000314600E0343C0010383200903A28B8
:1035E00000603C1E00A03D1400803E0A00203F0009
:1035F00000496E76616C69642065787472756465E3
:10360000720A00202D20496E76616C69642065780D
:10361000747275646572206E756D62657220210A20
:1036200000544845524D414C2052554E4157415946
:1036300000546865726D616C2052756E61776179B6
:10364000004572723A204D415854454D50004D414D
:103650005854454D502074726967676572656400FF
:103660004572723A204D494E54454D50004D494ED9
:1036700054454D5020747269676765726564004DEA
:10368000383420582059205A204500202F0020424D
:10369000403A0020403A0020573A0052756E6F754C
:1036A000742053656E736F7200554E4C4F41442029
:1036B00046494C414D454E540046494C414D454EBE
:1036C00054204348414E4745004D37303220542561
:1036D00064004D36303020423020542564004D3790
:1036E0003032203B2564004D3730312054256400B2
:1036F0004D373032004D373031004D3630302042BA
:1037000030005075726765206D6F726500524553C9
:10371000554D45204F5054494F4E533A0050524951
:103720004E54205041555345440020204E6F7A7A24
:103730006C653A2000256C642E25696D004578740F
:10374000727564656420546F74616C004C6F6E67B1
:10375000657374204A6F622054696D65003E2000D5
:10376000546F74616C205072696E742074696D6559
:1037700000436F6D706C65746564005072696E749F
:1037800020436F756E7400313530004245443A4134
:1037900054432031303447542D320052756E6177D6
:1037A00061792057617463683A204F4E004D61780B
:1037B0002054656D7000343530004D696E205465BD
:1037C0006D7000350045313A204550434F5320314C
:1037D00030304B005053550047656E657269630089
:1037E00050726F746F636F6C00312E3000426175E0
:1037F000640032353030303000437265616C69747A
:103800007933442052414D5053005061726B696EC0
:10381000672E2E2E0000005761697420666F7200BB
:1038200066696C616D656E74206368616E676500C2
:10383000746F207374617274005761697420666FCD
:10384000720066696C616D656E7420756E6C6F6177
:103850006400004E6F7A7A6C652068656174696EE9
:103860006700506C6561736520776169742E2E2E38
:103870000000507265737320627574746F6E00740B
:103880006F2068656174206E6F7A7A6C65000049FC
:103890006E736572742066696C616D656E7400612B
:1038A0006E6420707265737320627574746F6E003D
:1038B000746F20636F6E74696E756500576169740B
:1038C00020666F720066696C616D656E74206C6F46
:1038D00061640000507265737320427574746F6E7A
:1038E00000746F20726573756D65207072696E74F7
:1038F00000005761697420666F72207072696E747F
:1039000000746F20726573756D652E2E2E00005742
:1039100061697420666F720066696C616D656E74B2
:103920002070757267650000446966663A2000463B
:10393000726F6D5374703A00537465707065723AAB
:1039400000556E4C6576656C3A004C6576656C6525
:10395000643A005261773A20202020000A4C6F67B9
:103960006963616C3A00436F756E7420453A004399
:1039700061703A004D302053746F70004D31205308
:10398000746F7000436C69636B20746F20526573B1
:10399000756D652E2E2E00656E7175657565696E87
:1039A000672022006F6B00526573656E643A2000D9
:1039B0004D6F7665205A004D6F76652025736D6DCD
:1039C000004D6F766520302E316D6D004D6F766540
:1039D00020316D6D004D6F76652031306D6D004D7D
:1039E0006F7665204178697300486F74656E642056
:1039F000746F6F20636F6C640045787472756465D2
:103A000072004D6F76652059004D6F766520580025
:103A10004368616E67652046696C616D656E740010
:103A2000556E6C6F61642046696C616D656E7400E3
:103A30004C6F61642046696C616D656E74005072F4
:103A40006568656174204142530050726568656124
:103A50007420504C41005072656865617420437554
:103A600073746F6D004261636B00000021002400DD
:103A700027002A002D00300033000101000004015E
:103A800007010A0100002200250028002B002E005B
:103A90003100340002010000050108010B010000A3
:103AA00020002300260029002C002F0032000001F6
:103AB00000000301060109010505050507050808C1
:103AC0000808020202020A0A0808040404040101A8
:103AD00001010101010103030303030303030407BD
:103AE00007070C0C0C0C0C0C0C0C02020202060654
:103AF0000606060606060B0B0B0B0B0B0B0B010247
:103B000010202008081020401020408002010201EF
:103B100008040201010204081020408080402010A7
:103B20000804020180040201804020100804020100
:103B30000804020101020408102040800102040868
:103B40001020408000000A0B02090C0D0E0807032C
:103B50000401000000000000000000000000000060
:103B60000000000000000000000000000000000055
:103B70001211100000000000000000000000000012
:103B8000000000000000000000006F70656E2066FD
:103B900061696C65642C2046696C653A20004F664B
:103BA00066004F6E004D6F74696F6E004265642051
:103BB0004C6576656C696E670054656D7065726101
:103BC0007475726500536F667420456E6473746F0C
:103BD0007073004D38340044697361626C65205322
:103BE0007465707065727300473238205A00486FF0
:103BF0006D65205A00473238205900486F6D6520A6
:103C00005900473238205800486F6D6520580047EA
:103C10003238004175746F20486F6D6500507265D1
:103C20006865617420504C4120456E640050726597
:103C30006865617420504C41204265640050726593
:103C4000686561742041425320456E64005072657E
:103C5000686561742041425320426564004A756E74
:103C60006374696F6E204465760045737465707384
:103C70002F6D6D005A73746570732F6D6D005973DD
:103C8000746570732F6D6D005873746570732F6D4C
:103C90006D00496E6974004D34323800496E6974A4
:103CA00069616C697A6520454550524F4D005374E7
:103CB0006570732F6D6D004A65726B0041636365BB
:103CC0006C65726174696F6E0056656C6F636974C0
:103CD000790053657420486F6D65204F6666736583
:103CE0007473004E65787420506F696E74004E6571
:103CF0007874004C6576656C696E6720446F6E65FC
:103D000021002569202F20257500473239205331A5
:103D100000436C69636B20746F20426567696E00B5
:103D2000FFFDFCFAF8F6F4F2F0EEECEAE9E7E5E381
:103D3000E1E0DEDCDAD9D7D5D4D2D0CFCDCBCAC83A
:103D4000C7C5C3C2C0BFBDBCBAB9B7B6B4B3B2B0C1
:103D5000AFADACAAA9A8A6A5A4A2A1A09E9D9C9A1D
:103D600099989795949392908F8E8D8B8A89888756
:103D70008684838281807F7E7D7B7A797877767571
:103D800074737271706F6E6D6C6B6A69686766656B
:103D900064636261605F5E5D5C5B5A595858575658
:103DA000555453525150504F4E4D4C4B4A4A49482E
:103DB000474646454443424241403F3E3E3D3C3BF0
:103DC0003B3A3938383736353534333232313030A2
:103DD0002F2E2E2D2C2B2B2A292928272726252547
:103DE00024232322212120201F1E1E1D1C1C1B1BDF
:103DF0001A1919181817161615151413131212116B
:103E000011100F0F0E0E0D0D0C0C0B0A0A090908EC
:103E10000807070606050504040303020201000063
:103E20005072696E742066726F6D204D65646961B1
:103E300000496E736572742066696C616D656E749D
:103E400020616E642073656E64204D3130380A0045
:103E50005072696E742050617573656400486F6DAF
:103E6000652025732573257320466972737400627B
:103E70007574746F6E00436F6E74696E7565004C77
:103E80006F61642046696C616D656E742054002218
:103E90000A00556E6B6E6F776E20636F6D6D616E8D
:103EA000643A20220035303020537550655220523C
:103EB000656164792E005072696E74696E672E2E8A
:103EC0002E00453100626564002C2073797374659F
:103ED0006D2073746F70706564212048656174652E
:103EE000725F49443A200048656174696E672046F4
:103EF00061696C65640048656174696E672066611C
:103F0000696C6564004D3131322053687574646F9B
:103F1000776E004F46460A00466164652048656931
:103F200067687420004661696C656420746F206561
:103F30006E61626C6520426564204C6576656C69D3
:103F40006E670A004D65736820426564204C657693
:103F5000656C20646174613A0A00496E76616C692F
:103F600064206D6573682E0A00206E6F7420656E84
:103F700074657265642E0A004D34323120696E63B7
:103F80006F727265637420706172616D65746572C1
:103F90002075736167650A00416363656C657261D2
:103FA00074696F6E3A205000C501130211241FBEC0
:103FB000CFEFD1E2DEBFCDBF00E00CBF13E0A0E049
:103FC000B2E0E4E1FFEA02E00BBF02C007900D920D
:103FD000A634B107D9F729E1A6E4B3E001C01D92E8
:103FE000A434B207E1F71FE1C5EDDFE100E006C050
:103FF00021970109802FFE010F94DB53C43DD107A7
:1040000080E00807A9F70F941B3F0D9478570C9494
:1040100000002F923F924F925F926F927F928F9209
:104020009F92AF92BF92CF92DF92EF92FF920F9347
:104030001F93CF93DF93CDB7DEB7E4970FB6F89415
:10404000DEBF0FBECDBF8BAB2091921828AB11E025
:104050001093921880918B118D3409F43CC48435EF
:1040600011F40C947C31873411F00C9483318091DD
:10407000891190918A118A31910509F412C194F441
:104080008430910534F482309105BCF597FF29C046
:104090001EC48430910509F4C5C0459711F40C94F1
:1040A000853115C48A32910509F492C354F48C31D8
:1040B000910509F414C10CF4F8C04D9709F41FC11F
:1040C00006C48B35910509F4CCC28C35910509F4F1
:1040D000CDC28A35910509F0FAC3109255030C94AC
:1040E000853180917F02882311F40C9485310E94E0
:1040F00057E90E944D980C94853120917F0222232C
:1041000011F40C94853111E0029709F010E00E943F
:1041100057E919821A821B821C821D821E821F820D
:10412000188682E50E94AD5A882309F44BC00E948C
:10413000765A6B017C0120E030E0A9010F94E04C3D
:10414000882309F455C08091910690919206A09120
:104150009306B09194068CA39DA3AEA3BFA38091B8
:10416000950690919606A0919706B09198068CA717
:104170009DA7AEA7BFA78090751890907618A090C5
:104180007718B09078184090791850907A1860900D
:104190007B1870907C18A50194016CA17DA18EA163
:1041A0009FA10F94E04C81110C948E31A3019201D8
:1041B0006CA57DA58EA59FA50F94E04C8823C1F02A
:1041C0000C948E3189E40E94AD5A882331F00E940C
:1041D000765A69837A838B839C838AE40E94AD5AE2
:1041E000882331F00E94765A6D837E838F8398876F
:1041F00020E030E0A90169817A818B819C810F9454
:10420000E04C81110C94423220E030E0A9016D8134
:104210007E818F8198850F94E04C81110C944232FD
:104220000C94553280E50E94AD5A882329F00F94F2
:104230007A3A6B017C0103C0C12CD12C760183E555
:104240000E94AD5A882361F00E94765A20E030E047
:104250004AE754E40F94464D0F9457556B017C0187
:104260000F9421288091C410811105C060E082E084
:1042700097E00E9413E80F94A211C60ED71EE81E05
:10428000F91E0F94A211DC01CB018C199D09AE0916
:10429000BF09B7FD02C00C94853180E00E9402384E
:1042A000F0CF0E94DE5A0C9485310F94F3308111C7
:1042B0000C9485318CE0E5E8F2E0DE011196019086
:1042C0000D928A95E1F760E070E080E50E9488F049
:1042D000BE016F5F7F4F0E94E9E60C9485318091AB
:1042E0008E188770873011F00C945C3260E08FE498
:1042F0000E94C95A81110C9485310C945C3283E57B
:104300000F944931182F863030F08EEA97E00E94E2
:104310005E750C948531833009F421C128F4813015
:10432000E9F0823069F106C0843009F468C1853053
:1043300009F475C18BE997E00E945E750E94F074E4
:10434000882339F0809146180E949E760E94037659
:104350006CC18DE897E00E945E7567C10E94D973B9
:10436000109201021092000280913918811108C048
:1043700082E897E09093CC0E8093CB0E0C9485311D
:10438000809100029091010297FF06C089E597E0B5
:104390000E945E750C9485310097A1F480912F02E4
:1043A00080935C0319821A821B821C821C8E1D8ED4
:1043B0001E8E1F8EBE016F5F7F4FCE014C960E94F6
:1043C000889C30C08150982F977897FF03C09150F8
:1043D000986F9F5FE92F87FD895F85958595859506
:1043E00080FF02C0E7E0E91B28E0E202F0011124AF
:1043F000E80FF11D87FDFA95EE0FFF1FEE0FFF1F6F
:10440000E05EFA4F8091990690919A06A0919B06E2
:10441000B0919C0680839183A283B38380915C03D7
:1044200080932F0220910002309101022034310547
:104430000CF063C010922F02C90101969093010203
:1044400080930002822F877887FF03C08150886F96
:104450008F5FA82FE22F27FF02C0E7E0E20FE5956C
:10446000E595E595E0FF02C0A7E0A81B34E0A302B4
:10447000D0011124AD5BBA4E8D909D90AD90BC9053
:1044800084E0E802F0011124ED5DFA4E4080518095
:10449000628073808DEC9CECACE4BEE38C8F9D8FCE
:1044A000AE8FBF8F19821A821B821C82DE01119689
:1044B0006D01E12CF12C00EA10E4A3019201C50189
:1044C000B4010E94AA9B19821A821B821C82B60127
:1044D000CE014C960E94889C809291069092920602
:1044E000A0929306B092940640929506509296063A
:1044F00060929706709298062FC080E090E0A0EA44
:10450000B0E48093990690939A06A0939B06B0938B
:104510009C0682E392E00E948F9B0F9421288FEFEC
:104520009FEF909301028093000285E497E00E9440
:104530005E7563E972E084E690E00E94E6E76AEB6C
:1045400072E084E690E00E94E6E78FE09CE30F943F
:10455000A10C81E00E94EC731092391868C089E4C4
:104560000E94AD5A8823B1F00E94725A182F8830E9
:1045700060F067E070E082E397E00E94D97683E024
:104580009BE00E945E750C9485318AE40E94AD5ACE
:10459000811105C08AE40F94AB470C9485310E94C9
:1045A000725A082F883060F067E070E08FE197E082
:1045B0000E94D97683E09BE00E945E750C94853161
:1045C0008AE50E94AD5A8823A9F00E94765AB8E085
:1045D0001B02F0011124E00FF11D07FDFA95EE0F0B
:1045E000FF1FEE0FFF1FE05EFA4F6083718382832F
:1045F000938333C08AE50F94AB470C9485318AE5E9
:104600000E94AD5A8823B1F30E94765A60931C052C
:1046100070931D0580931E0590931F051EC080E0BA
:104620000E94EC730E94D97318C01230B1F46091EB
:104630000002709101026034710514F060E470E0D2
:1046400080E197E00E94D97660E470E08BE097E02B
:104650000E94D9768AE00E94D6360E94CF9C0C94A4
:1046600085318FE0809355030C94853180918811BA
:10467000882351F1893009F0A7C0A7E2AA2EA3E050
:10468000BA2EB1E9EB2EB6E0FB2ED12C00E010E003
:10469000F50181915F010E94AD5A882371F00E945B
:1046A000765AD7016D937D938D939C931397133016
:1046B00011F401E002C0DD24D3941F5FB4E0EB0EDF
:1046C000F11C143029F775C077E2272E73E0372EDE
:1046D000E4E0EE2EE5E0FE2EE1E9F6E0FDA3ECA33A
:1046E000F8EFCF2EF4E0DF2E00E010E0D1018D9145
:1046F0001D010E94AD5A882309F44BC00E94765ACE
:104700002B013C01133049F0F601208131814281B7
:1047100053810F94E3532B013C01ACA1BDA12D911A
:104720003D914D915C91C301B2010F94E3534B0154
:104730005C012DEB37E346E855EB0F94445687FDBB
:104740000AC02DEB37E346E855E3C501B4010F94E9
:10475000E04C1816F4F4133051F440929D06509238
:104760009E0660929F067092A00601E012C0A5010D
:104770009401F70160817181828193810F94E453E8
:10478000D7016D937D938D939C931397812F0E94F6
:104790008C971F5FB4E0EB0EF11CECA1FDA13496E9
:1047A000FDA3ECA3F4E0CF0ED11C143009F09ECF92
:1047B00005C0DD2019F00E94CD9C06C0002321F029
:1047C0008DE996E00F9432280E94CF9C0C9485319D
:1047D00080917F02882311F40C94853189E40E9432
:1047E000AD5AF82E882321F00E94725A182F01C06A
:1047F00010E08AE40E94AD5A082F882319F00E9425
:10480000725A01C080E0FF2011F0183020F400231C
:1048100041F0883030F085EC97E00E945E750C9492
:10482000853190E1E1E9F6E0A5E7B8E101900D926C
:104830009A95E1F7FF2091F024E01202F001112493
:10484000ED5BFA4E4081518162817381409375180E
:10485000509376186093771870937818002391F02E
:1048600034E08302F0011124ED5DFA4E80819181E4
:10487000A281B3818093791890937A18A0937B18C2
:10488000B0937C1840E050E0BA0186E40E94E74F04
:104890006B017C0120E030E0A9010F94445618160A
:1048A0004CF420E030E040E752E4C701B6010F9439
:1048B000DE5403C060E070E0CB0169837A838B83B0
:1048C0009C83CE0101960E94289B0C9485310F9405
:1048D000DF2F0C9485318091891190918A1188374E
:1048E000910509F4ABC70CF083C18D34910509F42F
:1048F00074C40CF098C08A31910509F462C3B4F510
:104900008431910509F4AEC294F48131910509F422
:1049100095C244F4029710F00C9479310F94340A44
:104920000C948531429709F48BC60C947931873108
:10493000910509F4BCC28CF48531910509F4B3C228
:10494000469711F00C9479310E9429D980916E1507
:10495000877F80936E150C9485318831910509F419
:10496000BDC2499709F422C30C9479318032910574
:1049700009F4B3C3ECF58D31910509F497C384F4C0
:104980008B31910509F42BC34C9711F00C947931BC
:1049900080915604909157040E94FBDB0C94853162
:1049A0008E31910509F489C34F9711F00C94793138
:1049B0000E943EE36C8F7D8F8E8F9F8FBE016F5F55
:1049C0007F4FCE014C960E947D5560E0CE0101964E
:1049D0000E94B0E80E94FD76BE016F5F7F4F82E3C8
:1049E00098E00E94E6768AE00E94D6360C948531E3
:1049F0008934910509F4DAC34CF48132910509F444
:104A000095C38A9709F4A4C30C9479318B3491052A
:104A100009F4DFC38C34910511F00C9479310E94B4
:104A20008DE30C9485318B36910509F415C5D4F5C9
:104A30008435910509F404C6E4F48135910509F43F
:104A4000E2C534F48E34910509F4CBC30C9479316A
:104A50008235910509F4EDC58335910511F00C946B
:104A60007931809155038F7E8062809355030C9439
:104A700085318836910509F446C454F4853591058D
:104A800009F4E1C58C35910509F400C60C9479311F
:104A90008936910509F4ABC48A36910509F4BBC483
:104AA0000C9479318137910509F437C5DCF48E36E1
:104AB000910509F4DDC45CF48C36910511F40C9475
:104AC00085318D36910509F442C40C9479318F36C5
:104AD000910509F4DEC48037910511F40C948531F9
:104AE0000C9479318537910509F45DC60CF073C0DB
:104AF0008237910509F454C68337910511F00C945F
:104B000079318AEF99E00E945E7560E08AEE99E063
:104B10000F94D10A60E085ED99E00F94D10A61E02D
:104B200087EA9CE30F94D10A61E08AEC99E00F9444
:104B3000D10A61E08AEB99E00F94D10A60E081EB41
:104B400099E00F94D10A61E087EA99E00F94D10AC5
:104B500060E08DE999E00F94D10A60E085E999E081
:104B60000F94D10A61E087E899E00F94D10A61E0DF
:104B700089E799E00F94D10A60E08AE699E00F9402
:104B8000D10A60E08CE599E00F94D10A60E086E4F8
:104B900099E00F94D10A61E085E399E00F94D10A7E
:104BA00061E086E299E00F94D10A61E081E199E049
:104BB0000F94D10A61E08EEF98E00F94D10A60E083
:104BC00081EF98E00F94D10A60E08DED98E00F94AA
:104BD000D10A0C9485318637910509F4F5C58737DC
:104BE000910511F00C9479310E94D79D0C94853178
:104BF0008039A1E09A0711F40C947F2F0CF083C048
:104C00008D3C910509F40EC7ECF58B39910509F43B
:104C1000D1C4E4F48D37910509F4F2C46CF48937FA
:104C2000910511F00C94793110920B0E10920A0E2E
:104C30000E94FC9D0C9485318C38910509F48FC439
:104C40008139910509F401C60C947931893C9105AB
:104C500009F4A0C654F48E3B910509F499C4883C2C
:104C6000910509F44DC60C9479318B3C910509F4FA
:104C7000B7C68C3C910511F00C9479310F94043A2D
:104C80000C9485318232E1E09E0709F49FC7E4F479
:104C90008C3D910509F4EBC66CF48E3C910509F44A
:104CA000C4C6833D910511F00C9479310E949BF0AC
:104CB0000C9485318D3D910509F4E6C6823E91053F
:104CC00009F438C70C9479318E3221E0920711F43F
:104CD0000C94382F5CF48C32A1E09A0709F4C1C718
:104CE0008D32914009F4D2C70C9479318F32E1E0D2
:104CF0009E0711F40C947C2F8033914011F40C9496
:104D0000C52E0C947931873F21E0920711F40C9461
:104D100078300CF047C0853AA1E09A0711F40C9462
:104D2000A62FECF48C39E1E09E0711F40C94822F4D
:104D30003CF48A39914011F40C9485310C9479310A
:104D40008D3931E0930711F40C946231843A91402B
:104D500011F00C9479310F946E3B0C948531843FA3
:104D6000B1E09B0711F40C9472306CF48C3AF1E0D2
:104D70009F0711F40C94A92F863E914011F40C94D6
:104D800006300C947931853F31E0930711F40C948F
:104D90007530863F914011F00C9479310E9408B92A
:104DA0000C9485318E3BB2E09B0711F40C941531C5
:104DB0001CF58835F2E09F0711F40C9499306CF4DF
:104DC000883F31E0930711F40C9480308C3092408E
:104DD00011F40C9491300C9479318B35B2E09B072F
:104DE00011F40C949C308D3B924011F00C9479316D
:104DF0000E946BED0C948531803AF3E09F0709F433
:104E000099C16CF48C3633E0930711F40C9485311E
:104E10008438934011F40C9418310C947931873E06
:104E2000B3E09B0711F40C945431883E934011F089
:104E30000C9479310E94A0EA0C9485318091841100
:104E400084FF02C00C9402348091861187FF02C057
:104E50000C94023480918711837011F00C94023409
:104E60000C941E348CEF97E00E945E758BE895E100
:104E70000E9453AF8BE1EBE8F5E1DE011196019062
:104E80000D928A95E1F760E070E0CE0101960E94F4
:104E90002DDDCE0101960E94C1728DEE97E00E9439
:104EA0005E750C9485310E94DED90C948531E091B9
:104EB0005604F09157048081882329F0803209F448
:104EC00010823196F8CF60E080915604909157049B
:104ED0000E944BDC1092CA0E0C94853183E50E942F
:104EE000AD5A882321F00E943E5A0E942C5784E537
:104EF0000E94AD5A8823A9F00E943E5A6B017C01A2
:104F00000E9472E3C0924B18D0924C18E0924D1858
:104F1000F0924E18CD28CE28CF2819F081E080934A
:104F2000E518809153108823E9F080E090E0A0EA32
:104F3000B1E489839A83AB83BC831C8E1D8E1E8E45
:104F40001F8E18A219A21AA21BA220E0AE014F5F69
:104F50005F4FBE01645E7F4FCE0180960E943D7719
:104F60000C9485310E947A35882381F00E943AD9C9
:104F70000E949E3589E49EE00E94DFD810928C1139
:104F800010928D1110928E1110928F1161E082E6B5
:104F900093E30E946D7545E353E36DE078E085E0AF
:104FA0000F94DE300F94A22F0C94853180916E15F2
:104FB00082FF03C08B7F80936E150E94AFEF0C942D
:104FC000853180916E1583FD02C00C94853183E597
:104FD0000E94AD5A81110C942C340C94853183E4D9
:104FE0000E9492718823C1F183E298E00E945E756D
:104FF0008091D216882339F1BE016F5F7F4F8FEC0D
:1050000096E10E941FAF8E010F5F1F4FD8018D9157
:105010008D01882319F00E94D636F8CFCE01019673
:105020000E94CDDB8091A318882389F080E20E9442
:10503000D63603EA18E1F80181918F01882339F00F
:105040000E94D636F8CF89E198E00E945E758AE02A
:105050000E94D6360C94853183E50E94AD5A882390
:1050600009F10E944E5A182F90E0CD970CF01CE3E6
:1050700010934A030F94A2116B017C01212F30E0A1
:10508000A8EEB3E00F948A53C60ED71EE81EF91E91
:10509000C0924603D0924703E0924803F09249033E
:1050A0000C9485310E94B8D80C94853180916E158E
:1050B0008E7F80936E150C94853180916E1583FDE3
:1050C00002C00C9485310F94C52F809156049091A5
:1050D00057040E9459DB0C94853180916E1582FD36
:1050E0000F94212880916E1583FD02C00C948531A8
:1050F00060E080E50E94C95A182F682F80915604FD
:10510000909157040E944BDC83E50E94AD5A88239E
:1051100021F00E943E5A0E942C570E943AD9111148
:105120000C9485310E949E350C9485310E945C560A
:105130000C948531209156043091570490916E154E
:10514000926090936E15C9010E94FBDB0C9485312F
:1051500083E50E94AD5A882311F40C9485310E9496
:105160004E5AF82E6DE070E080E50E94BA5A8C012C
:1051700097FF02C00C948531873031F0893041F4BB
:10518000F092D2060C948531F092D3060C948531BE
:1051900060E089E40E94C95A81110C943134802F57
:1051A0000F946A3D8111E3C40C94313480E50E9470
:1051B0009271882311F40C9485310E944E5A90E02C
:1051C0008536910510F084E690E08093CA0E0C9429
:1051D00085310E949E350C9485310F94D5250C9411
:1051E000853160E070E083E50E94BA5A8E34910503
:1051F00031F40F9446260F94A22F0C94853185E943
:1052000098E00E945E756091FA0D7091FB0D8CE83C
:1052100098E00E94BB766091FC0D7091FD0D8FE7C8
:1052200098E00E94BB766091FA0D7091FB0D809121
:10523000FC0D9091FD0D681B790B8091E518815054
:1052400021E030E0823010F020E030E0621B730B90
:1052500084E798E00E94BB768AE00E94D63685E912
:1052600098E00E945E758091FE0D9091FF0DA091D7
:10527000000EB091010E8C8F9D8FAE8FBF8FBE013F
:105280006F5F7F4FCE014C960E947D55BE016F5FD0
:105290007F4F87E698E00E94E6768091020E90911B
:1052A000030EA091040EB091050E8C8F9D8FAE8FD2
:1052B000BF8FBE016F5F7F4FCE014C960E947D5520
:1052C000BE016F5F7F4F87E598E00E94E67620E0A1
:1052D00030E04AE754E46091060E7091070E809129
:1052E000080E9091090E0F94DE54AB01BC018FE3C0
:1052F00098E00E94C8768DE60E94D6368AE00E9429
:10530000D6360C94853180919C0D83FF02C00C949D
:1053100085310E9477EA87FF02C00C94853183E5CE
:105320000E94AD5A882379F00E94765A0F94505506
:10533000CB010E9460F40F948E44811104C00F943D
:10534000D5250F94A22F0F947B470C948531809123
:105350009C0D83FDDAC70E9477EAF82E87FDD5C73A
:1053600083E50E94AD5A082F811106C082E50E9494
:10537000AD5A182F882381F10E94765A0F94505508
:10538000CB010E9460F40F948E44882311F40C9496
:105390003F340E949E356091571470915814072E27
:1053A000000C880B990B0F94E74C4B015C0140906B
:1053B0005314509054146090551470905614A301D7
:1053C00092010F944456181614F40C945F34002381
:1053D00011F40C94453411E00F947B47112309F428
:1053E00094C740E0602F8F2D0E9474F68EC70E94F4
:1053F00077EA182F87FD0AC084EA99E30E945E7558
:10540000812F0E9470F48AE00E94D636F8A9F093AA
:1054100092180C94233580E50F944931182F82306F
:1054200008F073C781E40E949271882321F0609193
:10543000D20670E002C06FEF70E083E50E9488F052
:10544000E12FF0E0EE52F94F8F3F910519F010F087
:105450008FEF90E0808359C780E50F944931823007
:1054600008F053C7E82FF0E0EE52F94F10824DC715
:105470008EE40E94AD5A882309F447C70E943E5A21
:105480006093520470935304809354049093550492
:105490003CC783E50E949271882329F083E50F942D
:1054A000493180939C0D0E94FD7682EA98E00E942B
:1054B0005E7580919C0D882369F169E1E62E6CE0B0
:1054C000F62E00E010E020E080919C0D90E0A0E03E
:1054D000B0E0002E04C0B695A795979587950A94DD
:1054E000D2F780FF0EC0DD24D394D20E222319F010
:1054F0008CE20E94D636F701859194910E945E75E8
:105500002D2D0F5F1F4F32E0E30EF11C053011050A
:10551000D9F69DCD88EC9EE098CD83E50E94AD5AEA
:10552000882371F00E944E5A282F30E02D33310528
:105530001CF480930202E9C68CE380930202E5C664
:105540000E94FD764091020250E060E070E089EA3E
:1055500098E00E94AA768AE00E94D636D6C680914C
:105560009C0D83FDD2C683E50E94AD5A882339F095
:105570000E94765A0F945055CB010E94305A0F94D6
:105580008E448111C2C60F94D5250F94A22FBDC69B
:1055900080919C0D83FDB9C683E50E94AD5A182FFA
:1055A00081110C94623482E50E94AD5A81110C94F1
:1055B0006234ABC683E50E94AD5A882309F4A5C6C0
:1055C0000E944E5A182F90E0CD970CF01CE31093D8
:1055D0004F030F94A2116B017C01212F30E0A8EE44
:1055E000B3E00F948A53C60ED71EE81EF91EC09270
:1055F0004B03D0924C03E0924D03F0924E0385C6CC
:105600000E94AFEF82C60E948AF90F94D5250F94AD
:10561000E1290E94753568EE73E080E090E00E9419
:105620003A750E94B13560E08EEC98E00E9413E874
:105630006CC6809155038F7D80618093550365C64C
:105640000E948AF162C683E50E949271882309F460
:105650005CC60F94A211609385187093861880938E
:105660008718909388180E94765A20E030E04AE725
:1056700054E40F94464D0F94575560935003709324
:10568000510380935203909353033FC60E9477EADD
:1056900087FD3BC69091841194FD04C090918611C2
:1056A00097FF0AC047E2C42E43E0D42E5DE9E52E01
:1056B0005DE0F52E10E009C090918711937091F78D
:1056C000682F81E00E94E0F120C6D6018D916D0126
:1056D0000E94AD5A882309F459C0133009F04FC015
:1056E0000E94765A4B015C0120E030E040EA51E430
:1056F0000F94E04C87FF3AC0A50194016091BD0D65
:105700007091BE0D8091BF0D9091C00D0F94DE542D
:105710002B013C019B01AC016091CD0D7091CE0D30
:105720008091CF0D9091D00D0F94464D6093CD0D8B
:105730007093CE0D8093CF0D9093D00D6091C206E3
:105740007091C3068091C4069091C5060F94E54CF4
:10575000A30192010F94464D0F9457556093C206D2
:105760007093C3068093C4069093C5068092BD0DC6
:105770009092BE0DA092BF0DB092C00D07C00E94C6
:10578000765AF701648B758B868B978B1F5FF4E0DD
:10579000EF0EF11C143009F098CF0F94FD27B5C51A
:1057A0000F94EB0AB2C5809156049091570400976C
:1057B00041F0DC012C91222321F060E00E94B0E84E
:1057C000A4C50F94A22FA1C50091560410915704AF
:1057D00094E0F12C40E0915021F1F8018081282FD4
:1057E0002B7F213421F421812133D9F407C0803566
:1057F000C1F4818180538A3048F013C0813421F094
:10580000853421F441E002C0FF24F39498012E5F17
:105810003F4F89012F5F3F4FF80180818032C9F3EC
:10582000DACF41110E94FD76FF2021F080EE9AE050
:105830000E945E75C8010E94E13767C510930B0E88
:1058400010930A0E0E94FC9D60C560E070E083E545
:105850000E94BA5A8C011127023011053CF00E94B7
:10586000F97684EE9AE00E945E754FC588E40E9446
:10587000AD5A8823A9F00E94725A8A3A91053CF0E9
:10588000843BF1E09F072CF083EB91E002C08AEAB1
:1058900090E0F801EE0FFF1FEA5DFD4E91838083DB
:1058A00086E40E94AD5A882381F00E94725A97FDC7
:1058B00007C08F3F910529F024F08FEF90E001C0E1
:1058C00080E0F801E25EFD4E808382E40E94AD5AE2
:1058D000882309F41AC50E94725A8530910534F064
:1058E0008D3891052CF08CE890E002C085E090E0C6
:1058F000F801EE0FFF1FE65EFD4E9183808305C524
:105900000E9477EA182F87FD00C584E40E949271F7
:105910008823E9F10E94765A6B017C0101E020E0C6
:1059200030E0A9010F94E04C811101C000E0009328
:105930003D1820E030E0A901C701B6010F94E04C0A
:10594000882329F124E01202F0011124EE5BF74EC6
:10595000C082D182E282F38220E030E0A90160912E
:1059600042187091431880914418909145180F94F3
:10597000E04C81110CC080E090E0A0EEBFE380938A
:10598000421890934318A0934418B09345180F946D
:105990001524BBC40E9477EA87FDB7C417E2E12E45
:1059A00013E0F12E0DE91DE08DEAC82E8DE0D82E12
:1059B000D7018D917D010E949271882359F00E9438
:1059C000765A0F945755F8016083718382839383CD
:1059D0000F9486270C5F1F4FC016D10649F795C458
:1059E0000E9477EA87FD91C4A7E2EA2EA3E0FA2E8F
:1059F0000DE91DE0BDEACB2EBDE0DB2ED7018D9178
:105A00007D010E949271882339F00E94765AF80134
:105A100064A375A386A397A30C5F1F4FC016D1067E
:105A200069F773C40E941BF270C4E7E2CE2EE3E074
:105A3000DE2EFDEBEF2EFEE0FF2E10E0D6018D9165
:105A40006D010E949271882351F00E94765AF701ED
:105A50006083718382839383812F0E948C971F5F61
:105A6000F4E0EF0EF11C133049F70C942D2383E57D
:105A70000E94AD5A882309F448C40E94725A909338
:105A800031028093300241C40E9477EAF82E87FDEC
:105A90003CC483E50E94AD5A0F2D0F2C000C110B56
:105AA000882369F10E94725AF801EE0FFF1FE45932
:105AB000FD4F91838083000F111F000F111F98016C
:105AC0002F5B3D4F7901BC01990F880B990B0F9407
:105AD000E74C2AE037ED43E25CE30F94464DF801D2
